{
  "_format": "hh-sol-artifact-1",
  "contractName": "GenericCompound",
  "sourceName": "contracts/genericLender/GenericCompound.sol",
  "abi": [
    {
      "inputs": [
        {
          "internalType": "address",
          "name": "_strategy",
          "type": "address"
        },
        {
          "internalType": "string",
          "name": "name",
          "type": "string"
        },
        {
          "internalType": "contract IUniswapV3Router",
          "name": "_uniswapV3Router",
          "type": "address"
        },
        {
          "internalType": "contract IUniswapV2Router",
          "name": "_uniswapV2Router",
          "type": "address"
        },
        {
          "internalType": "contract IComptroller",
          "name": "_comptroller",
          "type": "address"
        },
        {
          "internalType": "address",
          "name": "_comp",
          "type": "address"
        },
        {
          "internalType": "bytes",
          "name": "_path",
          "type": "bytes"
        },
        {
          "internalType": "address",
          "name": "_cToken",
          "type": "address"
        },
        {
          "internalType": "address[]",
          "name": "governorList",
          "type": "address[]"
        },
        {
          "internalType": "address",
          "name": "guardian",
          "type": "address"
        }
      ],
      "stateMutability": "nonpayable",
      "type": "constructor"
    },
    {
      "anonymous": false,
      "inputs": [
        {
          "indexed": false,
          "internalType": "bytes",
          "name": "_path",
          "type": "bytes"
        }
      ],
      "name": "PathUpdated",
      "type": "event"
    },
    {
      "anonymous": false,
      "inputs": [
        {
          "indexed": true,
          "internalType": "bytes32",
          "name": "role",
          "type": "bytes32"
        },
        {
          "indexed": true,
          "internalType": "bytes32",
          "name": "previousAdminRole",
          "type": "bytes32"
        },
        {
          "indexed": true,
          "internalType": "bytes32",
          "name": "newAdminRole",
          "type": "bytes32"
        }
      ],
      "name": "RoleAdminChanged",
      "type": "event"
    },
    {
      "anonymous": false,
      "inputs": [
        {
          "indexed": true,
          "internalType": "bytes32",
          "name": "role",
          "type": "bytes32"
        },
        {
          "indexed": true,
          "internalType": "address",
          "name": "account",
          "type": "address"
        },
        {
          "indexed": true,
          "internalType": "address",
          "name": "sender",
          "type": "address"
        }
      ],
      "name": "RoleGranted",
      "type": "event"
    },
    {
      "anonymous": false,
      "inputs": [
        {
          "indexed": true,
          "internalType": "bytes32",
          "name": "role",
          "type": "bytes32"
        },
        {
          "indexed": true,
          "internalType": "address",
          "name": "account",
          "type": "address"
        },
        {
          "indexed": true,
          "internalType": "address",
          "name": "sender",
          "type": "address"
        }
      ],
      "name": "RoleRevoked",
      "type": "event"
    },
    {
      "inputs": [],
      "name": "BLOCKS_PER_YEAR",
      "outputs": [
        {
          "internalType": "uint256",
          "name": "",
          "type": "uint256"
        }
      ],
      "stateMutability": "view",
      "type": "function"
    },
    {
      "inputs": [],
      "name": "DEFAULT_ADMIN_ROLE",
      "outputs": [
        {
          "internalType": "bytes32",
          "name": "",
          "type": "bytes32"
        }
      ],
      "stateMutability": "view",
      "type": "function"
    },
    {
      "inputs": [],
      "name": "GUARDIAN_ROLE",
      "outputs": [
        {
          "internalType": "bytes32",
          "name": "",
          "type": "bytes32"
        }
      ],
      "stateMutability": "view",
      "type": "function"
    },
    {
      "inputs": [],
      "name": "STRATEGY_ROLE",
      "outputs": [
        {
          "internalType": "bytes32",
          "name": "",
          "type": "bytes32"
        }
      ],
      "stateMutability": "view",
      "type": "function"
    },
    {
      "inputs": [],
      "name": "WETH",
      "outputs": [
        {
          "internalType": "address",
          "name": "",
          "type": "address"
        }
      ],
      "stateMutability": "view",
      "type": "function"
    },
    {
      "inputs": [],
      "name": "apr",
      "outputs": [
        {
          "internalType": "uint256",
          "name": "",
          "type": "uint256"
        }
      ],
      "stateMutability": "view",
      "type": "function"
    },
    {
      "inputs": [
        {
          "internalType": "uint256",
          "name": "amount",
          "type": "uint256"
        }
      ],
      "name": "aprAfterDeposit",
      "outputs": [
        {
          "internalType": "uint256",
          "name": "",
          "type": "uint256"
        }
      ],
      "stateMutability": "view",
      "type": "function"
    },
    {
      "inputs": [],
      "name": "cToken",
      "outputs": [
        {
          "internalType": "contract CErc20I",
          "name": "",
          "type": "address"
        }
      ],
      "stateMutability": "view",
      "type": "function"
    },
    {
      "inputs": [],
      "name": "comp",
      "outputs": [
        {
          "internalType": "address",
          "name": "",
          "type": "address"
        }
      ],
      "stateMutability": "view",
      "type": "function"
    },
    {
      "inputs": [],
      "name": "comptroller",
      "outputs": [
        {
          "internalType": "contract IComptroller",
          "name": "",
          "type": "address"
        }
      ],
      "stateMutability": "view",
      "type": "function"
    },
    {
      "inputs": [],
      "name": "deposit",
      "outputs": [],
      "stateMutability": "nonpayable",
      "type": "function"
    },
    {
      "inputs": [
        {
          "internalType": "uint256",
          "name": "amount",
          "type": "uint256"
        }
      ],
      "name": "emergencyWithdraw",
      "outputs": [],
      "stateMutability": "nonpayable",
      "type": "function"
    },
    {
      "inputs": [
        {
          "internalType": "bytes32",
          "name": "role",
          "type": "bytes32"
        }
      ],
      "name": "getRoleAdmin",
      "outputs": [
        {
          "internalType": "bytes32",
          "name": "",
          "type": "bytes32"
        }
      ],
      "stateMutability": "view",
      "type": "function"
    },
    {
      "inputs": [
        {
          "internalType": "bytes32",
          "name": "role",
          "type": "bytes32"
        },
        {
          "internalType": "address",
          "name": "account",
          "type": "address"
        }
      ],
      "name": "grantRole",
      "outputs": [],
      "stateMutability": "nonpayable",
      "type": "function"
    },
    {
      "inputs": [],
      "name": "hasAssets",
      "outputs": [
        {
          "internalType": "bool",
          "name": "",
          "type": "bool"
        }
      ],
      "stateMutability": "view",
      "type": "function"
    },
    {
      "inputs": [
        {
          "internalType": "bytes32",
          "name": "role",
          "type": "bytes32"
        },
        {
          "internalType": "address",
          "name": "account",
          "type": "address"
        }
      ],
      "name": "hasRole",
      "outputs": [
        {
          "internalType": "bool",
          "name": "",
          "type": "bool"
        }
      ],
      "stateMutability": "view",
      "type": "function"
    },
    {
      "inputs": [],
      "name": "lenderName",
      "outputs": [
        {
          "internalType": "string",
          "name": "",
          "type": "string"
        }
      ],
      "stateMutability": "view",
      "type": "function"
    },
    {
      "inputs": [],
      "name": "minCompToSell",
      "outputs": [
        {
          "internalType": "uint256",
          "name": "",
          "type": "uint256"
        }
      ],
      "stateMutability": "view",
      "type": "function"
    },
    {
      "inputs": [],
      "name": "nav",
      "outputs": [
        {
          "internalType": "uint256",
          "name": "",
          "type": "uint256"
        }
      ],
      "stateMutability": "view",
      "type": "function"
    },
    {
      "inputs": [],
      "name": "path",
      "outputs": [
        {
          "internalType": "bytes",
          "name": "",
          "type": "bytes"
        }
      ],
      "stateMutability": "view",
      "type": "function"
    },
    {
      "inputs": [],
      "name": "poolManager",
      "outputs": [
        {
          "internalType": "contract IPoolManager",
          "name": "",
          "type": "address"
        }
      ],
      "stateMutability": "view",
      "type": "function"
    },
    {
      "inputs": [
        {
          "internalType": "bytes32",
          "name": "role",
          "type": "bytes32"
        },
        {
          "internalType": "address",
          "name": "account",
          "type": "address"
        }
      ],
      "name": "renounceRole",
      "outputs": [],
      "stateMutability": "nonpayable",
      "type": "function"
    },
    {
      "inputs": [
        {
          "internalType": "bytes32",
          "name": "role",
          "type": "bytes32"
        },
        {
          "internalType": "address",
          "name": "account",
          "type": "address"
        }
      ],
      "name": "revokeRole",
      "outputs": [],
      "stateMutability": "nonpayable",
      "type": "function"
    },
    {
      "inputs": [
        {
          "internalType": "bytes",
          "name": "_path",
          "type": "bytes"
        }
      ],
      "name": "setPath",
      "outputs": [],
      "stateMutability": "nonpayable",
      "type": "function"
    },
    {
      "inputs": [],
      "name": "strategy",
      "outputs": [
        {
          "internalType": "address",
          "name": "",
          "type": "address"
        }
      ],
      "stateMutability": "view",
      "type": "function"
    },
    {
      "inputs": [
        {
          "internalType": "address",
          "name": "_token",
          "type": "address"
        },
        {
          "internalType": "address",
          "name": "to",
          "type": "address"
        }
      ],
      "name": "sweep",
      "outputs": [],
      "stateMutability": "nonpayable",
      "type": "function"
    },
    {
      "inputs": [],
      "name": "underlyingBalanceStored",
      "outputs": [
        {
          "internalType": "uint256",
          "name": "balance",
          "type": "uint256"
        }
      ],
      "stateMutability": "view",
      "type": "function"
    },
    {
      "inputs": [],
      "name": "uniswapV2Router",
      "outputs": [
        {
          "internalType": "contract IUniswapV2Router",
          "name": "",
          "type": "address"
        }
      ],
      "stateMutability": "view",
      "type": "function"
    },
    {
      "inputs": [],
      "name": "uniswapV3Router",
      "outputs": [
        {
          "internalType": "contract IUniswapV3Router",
          "name": "",
          "type": "address"
        }
      ],
      "stateMutability": "view",
      "type": "function"
    },
    {
      "inputs": [],
      "name": "want",
      "outputs": [
        {
          "internalType": "contract IERC20",
          "name": "",
          "type": "address"
        }
      ],
      "stateMutability": "view",
      "type": "function"
    },
    {
      "inputs": [],
      "name": "weightedApr",
      "outputs": [
        {
          "internalType": "uint256",
          "name": "",
          "type": "uint256"
        }
      ],
      "stateMutability": "view",
      "type": "function"
    },
    {
      "inputs": [
        {
          "internalType": "uint256",
          "name": "amount",
          "type": "uint256"
        }
      ],
      "name": "withdraw",
      "outputs": [
        {
          "internalType": "uint256",
          "name": "",
          "type": "uint256"
        }
      ],
      "stateMutability": "nonpayable",
      "type": "function"
    },
    {
      "inputs": [],
      "name": "withdrawAll",
      "outputs": [
        {
          "internalType": "bool",
          "name": "",
          "type": "bool"
        }
      ],
      "stateMutability": "nonpayable",
      "type": "function"
    }
  ],
  "bytecode": "0x6101206040526706f05b59d3b200006006553480156200001e57600080fd5b50604051620046bf380380620046bf833981016040819052620000419162000b6c565b600380546001600160a01b0319166001600160a01b038c169081179091556040805163dc4c90d360e01b815290518c928c92869286929163dc4c90d3916004808301926020929190829003018186803b1580156200009e57600080fd5b505afa158015620000b3573d6000803e3d6000fd5b505050506040513d601f19601f82011682018060405250810190620000d9919062000b4c565b600280546001600160a01b0319166001600160a01b0392909216918217905560408051637e062a3560e11b8152905163fc0c546a91600480820192602092909190829003018186803b1580156200012f57600080fd5b505afa15801562000144573d6000803e3d6000fd5b505050506040513d601f19601f820116820180604052508101906200016a919062000b4c565b600480546001600160a01b0319166001600160a01b039290921691909117905582516200019f90600190602086019062000987565b50600254620001c8906000805160206200469f833981519152906001600160a01b0316620004ba565b60005b82518110156200022757620002126000805160206200469f833981519152848381518110620001fe57620001fe62000de1565b6020026020010151620004ba60201b60201c565b806200021e8162000db7565b915050620001cb565b50620002436000805160206200469f83398151915282620004ba565b6200025e6000805160206200467f83398151915285620004ba565b620002886000805160206200469f8339815191526000805160206200467f833981519152620004ca565b620002b26000805160206200467f8339815191526000805160206200469f833981519152620004ca565b600454620002d9906001600160a01b0316856000196200051e602090811b620014e417901c565b505050506001600160a01b03871615801590620002fe57506001600160a01b03881615155b80156200031357506001600160a01b03861615155b620003495760405162461bcd60e51b81526020600482015260016024820152600360fc1b60448201526064015b60405180910390fd5b83516200035e90600590602087019062000987565b506001600160601b0319606089811b821660e05288811b82166101005287811b821660c05286811b821660a05284901b166080526004805460408051636f307dc360e01b815290516001600160a01b039283169392871692636f307dc392808201926020929091829003018186803b158015620003da57600080fd5b505afa158015620003ef573d6000803e3d6000fd5b505050506040513d601f19601f8201168201806040525081019062000415919062000b4c565b6001600160a01b0316146200045c5760405162461bcd60e51b815260206004820152600c60248201526b3bb937b7339031aa37b5b2b760a11b604482015260640162000340565b60045462000483906001600160a01b0316846000196200051e602090811b620014e417901c565b620004aa88600019876001600160a01b03166200051e60201b620014e4179092919060201c565b5050505050505050505062000e26565b620004c682826200067d565b5050565b600082815260208190526040902060010154819060405184907fbd79b86ffe0ab8e8776151514217cd7cacd52c909f66475c3af44e129f0b00ff90600090a460009182526020829052604090912060010155565b801580620005ac5750604051636eb1769f60e11b81523060048201526001600160a01b03838116602483015284169063dd62ed3e9060440160206040518083038186803b1580156200056f57600080fd5b505afa15801562000584573d6000803e3d6000fd5b505050506040513d601f19601f82011682018060405250810190620005aa919062000ca7565b155b620006205760405162461bcd60e51b815260206004820152603660248201527f5361666545524332303a20617070726f76652066726f6d206e6f6e2d7a65726f60448201527f20746f206e6f6e2d7a65726f20616c6c6f77616e636500000000000000000000606482015260840162000340565b604080516001600160a01b038416602482015260448082018490528251808303909101815260649091019091526020810180516001600160e01b0390811663095ea7b360e01b17909152620006789185916200071d16565b505050565b6000828152602081815260408083206001600160a01b038516845290915290205460ff16620004c6576000828152602081815260408083206001600160a01b03851684529091529020805460ff19166001179055620006d93390565b6001600160a01b0316816001600160a01b0316837f2f8788117e7eff1d82e926ec794901d17c78024a50270940304540a733656f0d60405160405180910390a45050565b600062000779826040518060400160405280602081526020017f5361666545524332303a206c6f772d6c6576656c2063616c6c206661696c6564815250856001600160a01b0316620007fb60201b620016f3179092919060201c565b8051909150156200067857808060200190518101906200079a919062000c83565b620006785760405162461bcd60e51b815260206004820152602a60248201527f5361666545524332303a204552433230206f7065726174696f6e20646964206e6044820152691bdd081cdd58d8d9595960b21b606482015260840162000340565b60606200080c848460008562000816565b90505b9392505050565b606082471015620008795760405162461bcd60e51b815260206004820152602660248201527f416464726573733a20696e73756666696369656e742062616c616e636520666f6044820152651c8818d85b1b60d21b606482015260840162000340565b843b620008c95760405162461bcd60e51b815260206004820152601d60248201527f416464726573733a2063616c6c20746f206e6f6e2d636f6e7472616374000000604482015260640162000340565b600080866001600160a01b03168587604051620008e7919062000cc1565b60006040518083038185875af1925050503d806000811462000926576040519150601f19603f3d011682016040523d82523d6000602084013e6200092b565b606091505b5090925090506200093e82828662000949565b979650505050505050565b606083156200095a5750816200080f565b8251156200096b5782518084602001fd5b8160405162461bcd60e51b815260040162000340919062000cdf565b828054620009959062000d7a565b90600052602060002090601f016020900481019282620009b9576000855562000a04565b82601f10620009d457805160ff191683800117855562000a04565b8280016001018555821562000a04579182015b8281111562000a04578251825591602001919060010190620009e7565b5062000a1292915062000a16565b5090565b5b8082111562000a12576000815560010162000a17565b805162000a3a8162000e0d565b919050565b600082601f83011262000a5157600080fd5b815160206001600160401b0382111562000a6f5762000a6f62000df7565b8160051b62000a8082820162000d14565b83815282810190868401838801850189101562000a9c57600080fd5b600093505b8584101562000acc57805162000ab78162000e0d565b83526001939093019291840191840162000aa1565b50979650505050505050565b600082601f83011262000aea57600080fd5b81516001600160401b0381111562000b065762000b0662000df7565b62000b1b601f8201601f191660200162000d14565b81815284602083860101111562000b3157600080fd5b62000b4482602083016020870162000d47565b949350505050565b60006020828403121562000b5f57600080fd5b81516200080f8162000e0d565b6000806000806000806000806000806101408b8d03121562000b8d57600080fd5b62000b988b62000a2d565b60208c0151909a506001600160401b038082111562000bb657600080fd5b62000bc48e838f0162000ad8565b9a5062000bd460408e0162000a2d565b995062000be460608e0162000a2d565b985062000bf460808e0162000a2d565b975062000c0460a08e0162000a2d565b965060c08d015191508082111562000c1b57600080fd5b62000c298e838f0162000ad8565b955062000c3960e08e0162000a2d565b94506101008d015191508082111562000c5157600080fd5b5062000c608d828e0162000a3f565b92505062000c726101208c0162000a2d565b90509295989b9194979a5092959850565b60006020828403121562000c9657600080fd5b815180151581146200080f57600080fd5b60006020828403121562000cba57600080fd5b5051919050565b6000825162000cd581846020870162000d47565b9190910192915050565b602081526000825180602084015262000d0081604085016020870162000d47565b601f01601f19169190910160400192915050565b604051601f8201601f191681016001600160401b038111828210171562000d3f5762000d3f62000df7565b604052919050565b60005b8381101562000d6457818101518382015260200162000d4a565b8381111562000d74576000848401525b50505050565b600181811c9082168062000d8f57607f821691505b6020821081141562000db157634e487b7160e01b600052602260045260246000fd5b50919050565b600060001982141562000dda57634e487b7160e01b600052601160045260246000fd5b5060010190565b634e487b7160e01b600052603260045260246000fd5b634e487b7160e01b600052604160045260246000fd5b6001600160a01b038116811462000e2357600080fd5b50565b60805160601c60a05160601c60c05160601c60e05160601c6101005160601c61374f62000f30600039600081816102980152612a570152600081816103290152612e430152600081816103fa01526118e4015260008181610231015281816124e8015281816128380152818161290a0152612da6015260008181610421015281816105bb01528181610649015281816106eb0152818161078d0152818161082f01528181610ba301528181610d5a01528181611104015281816111980152818161134c0152818161171e015281816118b70152818161196e01528181611a0c01528181611c5501528181611e1001528181611ee701528181612013015261247a015261374f6000f3fe608060405234801561001057600080fd5b506004361061020b5760003560e01c80635be9b2d31161012a578063ad5c4648116100bd578063d0e30db01161008c578063d547741f11610071578063d547741f1461050f578063dc4c90d314610522578063f381e07d1461054257600080fd5b8063d0e30db0146104fd578063d37db1d21461050557600080fd5b8063ad5c4648146104bf578063b8dc491b146104da578063c1590cd7146104ed578063c6afba3c146104f557600080fd5b80638b202176116100f95780638b2021761461044b57806391d1485414610453578063a217fddf14610497578063a8c62e761461049f57600080fd5b80635be9b2d3146103dd5780635fe3b567146103f557806369e527da1461041c578063853828b61461044357600080fd5b80632c76d7a6116101a25780633dc06356116101715780633dc06356146103865780635312ea8e1461039b57806357ded9c9146103ae578063580b7c2e146103b657600080fd5b80632c76d7a6146103245780632e1a7d4d1461034b5780632f2ff15d1461035e57806336568abe1461037357600080fd5b80631694505e116101de5780631694505e146102935780631f1fcd51146102ba578063248a9ca3146102da57806324ea54f4146102fd57600080fd5b806304324af814610210578063109d0af81461022c578063116ac4a314610278578063149a4ae414610280575b600080fd5b61021960065481565b6040519081526020015b60405180910390f35b6102537f000000000000000000000000000000000000000000000000000000000000000081565b60405173ffffffffffffffffffffffffffffffffffffffff9091168152602001610223565b610219610555565b61021961028e3660046131a1565b61057a565b6102537f000000000000000000000000000000000000000000000000000000000000000081565b6004546102539073ffffffffffffffffffffffffffffffffffffffff1681565b6102196102e83660046131a1565b60009081526020819052604090206001015490565b6102197f55435dd261a4b9b3364963f7738a7a662ad9c84396d64be3365284bb7f0a504181565b6102537f000000000000000000000000000000000000000000000000000000000000000081565b6102196103593660046131a1565b6109bf565b61037161036c3660046131ba565b6109fe565b005b6103716103813660046131ba565b610a29565b61038e610abb565b60405161022391906133af565b6103716103a93660046131a1565b610b49565b610219610d03565b6102197f928286c473ded01ff8bf61a1986f14a0579066072fa8261442d9fea514d93a4c81565b6103e5610d12565b6040519015158152602001610223565b6102537f000000000000000000000000000000000000000000000000000000000000000081565b6102537f000000000000000000000000000000000000000000000000000000000000000081565b6103e5610e88565b61038e610ed9565b6103e56104613660046131ba565b60009182526020828152604080842073ffffffffffffffffffffffffffffffffffffffff93909316845291905290205460ff1690565b610219600081565b6003546102539073ffffffffffffffffffffffffffffffffffffffff1681565b61025373c02aaa39b223fe8d0a0e5c4f27ead9083c756cc281565b6103716104e8366004613099565b610ee6565b6102196110b2565b6102196110bc565b610371611248565b6102196223dbb081565b61037161051d3660046131ba565b611444565b6002546102539073ffffffffffffffffffffffffffffffffffffffff1681565b6103716105503660046131df565b61146a565b60008061056061170c565b905061056a6117ce565b610574908261352e565b91505090565b600480546040517f70a0823100000000000000000000000000000000000000000000000000000000815273ffffffffffffffffffffffffffffffffffffffff7f0000000000000000000000000000000000000000000000000000000000000000811693820193909352600092839216906370a082319060240160206040518083038186803b15801561060b57600080fd5b505afa15801561061f573d6000803e3d6000fd5b505050506040513d601f19601f8201168201806040525081019061064391906132af565b905060007f000000000000000000000000000000000000000000000000000000000000000073ffffffffffffffffffffffffffffffffffffffff166347bd37186040518163ffffffff1660e01b815260040160206040518083038186803b1580156106ad57600080fd5b505afa1580156106c1573d6000803e3d6000fd5b505050506040513d601f19601f820116820180604052508101906106e591906132af565b905060007f000000000000000000000000000000000000000000000000000000000000000073ffffffffffffffffffffffffffffffffffffffff16638f840ddd6040518163ffffffff1660e01b815260040160206040518083038186803b15801561074f57600080fd5b505afa158015610763573d6000803e3d6000fd5b505050506040513d601f19601f8201168201806040525081019061078791906132af565b905060007f000000000000000000000000000000000000000000000000000000000000000073ffffffffffffffffffffffffffffffffffffffff1663173b99046040518163ffffffff1660e01b815260040160206040518083038186803b1580156107f157600080fd5b505afa158015610805573d6000803e3d6000fd5b505050506040513d601f19601f8201168201806040525081019061082991906132af565b905060007f000000000000000000000000000000000000000000000000000000000000000073ffffffffffffffffffffffffffffffffffffffff1663f3fdb15a6040518163ffffffff1660e01b815260040160206040518083038186803b15801561089357600080fd5b505afa1580156108a7573d6000803e3d6000fd5b505050506040513d601f19601f820116820180604052508101906108cb9190613292565b9050600073ffffffffffffffffffffffffffffffffffffffff821663b81688166108f58a896134db565b6040517fffffffff0000000000000000000000000000000000000000000000000000000060e084901b168152600481019190915260248101889052604481018790526064810186905260840160206040518083038186803b15801561095957600080fd5b505afa15801561096d573d6000803e3d6000fd5b505050506040513d601f19601f8201168201806040525081019061099191906132af565b905061099c8861187a565b6109a96223dbb08361352e565b6109b391906134db565b98975050505050505050565b60007f928286c473ded01ff8bf61a1986f14a0579066072fa8261442d9fea514d93a4c6109ec8133611b3d565b6109f583611c0d565b91505b50919050565b600082815260208190526040902060010154610a1a8133611b3d565b610a2483836121ee565b505050565b73ffffffffffffffffffffffffffffffffffffffff81163314610aad576040517f08c379a000000000000000000000000000000000000000000000000000000000815260206004820152600260248201527f373100000000000000000000000000000000000000000000000000000000000060448201526064015b60405180910390fd5b610ab782826122de565b5050565b60058054610ac8906135e3565b80601f0160208091040260200160405190810160405280929190818152602001828054610af4906135e3565b8015610b415780601f10610b1657610100808354040283529160200191610b41565b820191906000526020600020905b815481529060010190602001808311610b2457829003601f168201915b505050505081565b7f55435dd261a4b9b3364963f7738a7a662ad9c84396d64be3365284bb7f0a5041610b748133611b3d565b6040517f852a12e3000000000000000000000000000000000000000000000000000000008152600481018390527f000000000000000000000000000000000000000000000000000000000000000073ffffffffffffffffffffffffffffffffffffffff169063852a12e390602401602060405180830381600087803b158015610bfc57600080fd5b505af1158015610c10573d6000803e3d6000fd5b505050506040513d601f19601f82011682018060405250810190610c3491906132af565b50600254600480546040517f70a082310000000000000000000000000000000000000000000000000000000081523092810192909252610ab79273ffffffffffffffffffffffffffffffffffffffff908116929116906370a082319060240160206040518083038186803b158015610cab57600080fd5b505afa158015610cbf573d6000803e3d6000fd5b505050506040513d601f19601f82011682018060405250810190610ce391906132af565b60045473ffffffffffffffffffffffffffffffffffffffff169190612395565b6000610d0d61170c565b905090565b6040517f70a08231000000000000000000000000000000000000000000000000000000008152306004820152600090819073ffffffffffffffffffffffffffffffffffffffff7f000000000000000000000000000000000000000000000000000000000000000016906370a082319060240160206040518083038186803b158015610d9c57600080fd5b505afa158015610db0573d6000803e3d6000fd5b505050506040513d601f19601f82011682018060405250810190610dd491906132af565b1180610d0d5750600480546040517f70a08231000000000000000000000000000000000000000000000000000000008152309281019290925260009173ffffffffffffffffffffffffffffffffffffffff909116906370a082319060240160206040518083038186803b158015610e4a57600080fd5b505afa158015610e5e573d6000803e3d6000fd5b505050506040513d601f19601f82011682018060405250810190610e8291906132af565b11905090565b60007f928286c473ded01ff8bf61a1986f14a0579066072fa8261442d9fea514d93a4c610eb58133611b3d565b6000610ebf6117ce565b90506000610ecc82611c0d565b91909110159250505b5090565b60018054610ac8906135e3565b7f55435dd261a4b9b3364963f7738a7a662ad9c84396d64be3365284bb7f0a5041610f118133611b3d565b6000610f1b6123eb565b905060005b8151811015610fea57818181518110610f3b57610f3b613699565b602002602001015173ffffffffffffffffffffffffffffffffffffffff168573ffffffffffffffffffffffffffffffffffffffff161415610fd8576040517f08c379a000000000000000000000000000000000000000000000000000000000815260206004820152600260248201527f39330000000000000000000000000000000000000000000000000000000000006044820152606401610aa4565b80610fe281613631565b915050610f20565b506040517f70a082310000000000000000000000000000000000000000000000000000000081523060048201526110ac90849073ffffffffffffffffffffffffffffffffffffffff8716906370a082319060240160206040518083038186803b15801561105657600080fd5b505afa15801561106a573d6000803e3d6000fd5b505050506040513d601f19601f8201168201806040525081019061108e91906132af565b73ffffffffffffffffffffffffffffffffffffffff87169190612395565b50505050565b6000610d0d6117ce565b6040517f70a08231000000000000000000000000000000000000000000000000000000008152306004820152600090819073ffffffffffffffffffffffffffffffffffffffff7f000000000000000000000000000000000000000000000000000000000000000016906370a082319060240160206040518083038186803b15801561114657600080fd5b505afa15801561115a573d6000803e3d6000fd5b505050506040513d601f19601f8201168201806040525081019061117e91906132af565b90508061118d57600091505090565b670de0b6b3a76400007f000000000000000000000000000000000000000000000000000000000000000073ffffffffffffffffffffffffffffffffffffffff1663182df0f56040518163ffffffff1660e01b815260040160206040518083038186803b1580156111fc57600080fd5b505afa158015611210573d6000803e3d6000fd5b505050506040513d601f19601f8201168201806040525081019061123491906132af565b61123e908361352e565b61057491906134f3565b7f928286c473ded01ff8bf61a1986f14a0579066072fa8261442d9fea514d93a4c6112738133611b3d565b600480546040517f70a08231000000000000000000000000000000000000000000000000000000008152309281019290925260009173ffffffffffffffffffffffffffffffffffffffff909116906370a082319060240160206040518083038186803b1580156112e257600080fd5b505afa1580156112f6573d6000803e3d6000fd5b505050506040513d601f19601f8201168201806040525081019061131a91906132af565b6040517fa0712d68000000000000000000000000000000000000000000000000000000008152600481018290529091507f000000000000000000000000000000000000000000000000000000000000000073ffffffffffffffffffffffffffffffffffffffff169063a0712d6890602401602060405180830381600087803b1580156113a557600080fd5b505af11580156113b9573d6000803e3d6000fd5b505050506040513d601f19601f820116820180604052508101906113dd91906132af565b15610ab7576040517f08c379a000000000000000000000000000000000000000000000000000000000815260206004820152600960248201527f6d696e74206661696c00000000000000000000000000000000000000000000006044820152606401610aa4565b6000828152602081905260409020600101546114608133611b3d565b610a2483836122de565b7f55435dd261a4b9b3364963f7738a7a662ad9c84396d64be3365284bb7f0a50416114958133611b3d565b81516114a8906005906020850190613009565b507fa0ddd263f8966deaa9209d36ecf63770a4baf7f627d164775a94f808930cd048826040516114d891906133af565b60405180910390a15050565b80158061159357506040517fdd62ed3e00000000000000000000000000000000000000000000000000000000815230600482015273ffffffffffffffffffffffffffffffffffffffff838116602483015284169063dd62ed3e9060440160206040518083038186803b15801561155957600080fd5b505afa15801561156d573d6000803e3d6000fd5b505050506040513d601f19601f8201168201806040525081019061159191906132af565b155b61161f576040517f08c379a000000000000000000000000000000000000000000000000000000000815260206004820152603660248201527f5361666545524332303a20617070726f76652066726f6d206e6f6e2d7a65726f60448201527f20746f206e6f6e2d7a65726f20616c6c6f77616e6365000000000000000000006064820152608401610aa4565b60405173ffffffffffffffffffffffffffffffffffffffff8316602482015260448101829052610a249084907f095ea7b300000000000000000000000000000000000000000000000000000000906064015b604080517fffffffffffffffffffffffffffffffffffffffffffffffffffffffffffffffe08184030181529190526020810180517bffffffffffffffffffffffffffffffffffffffffffffffffffffffff167fffffffff0000000000000000000000000000000000000000000000000000000090931692909217909152612544565b60606117028484600085612650565b90505b9392505050565b6000611718600061187a565b6223dbb07f000000000000000000000000000000000000000000000000000000000000000073ffffffffffffffffffffffffffffffffffffffff1663ae9d70b06040518163ffffffff1660e01b815260040160206040518083038186803b15801561178257600080fd5b505afa158015611796573d6000803e3d6000fd5b505050506040513d601f19601f820116820180604052508101906117ba91906132af565b6117c4919061352e565b610d0d91906134db565b60006117d86110bc565b600480546040517f70a08231000000000000000000000000000000000000000000000000000000008152309281019290925273ffffffffffffffffffffffffffffffffffffffff16906370a082319060240160206040518083038186803b15801561184257600080fd5b505afa158015611856573d6000803e3d6000fd5b505050506040513d601f19601f820116820180604052508101906117c491906132af565b6040517f6aa875b500000000000000000000000000000000000000000000000000000000815273ffffffffffffffffffffffffffffffffffffffff7f00000000000000000000000000000000000000000000000000000000000000008116600483015260009182917f00000000000000000000000000000000000000000000000000000000000000001690636aa875b59060240160206040518083038186803b15801561192657600080fd5b505afa15801561193a573d6000803e3d6000fd5b505050506040513d601f19601f8201168201806040525081019061195e91906132af565b9050600083670de0b6b3a76400007f000000000000000000000000000000000000000000000000000000000000000073ffffffffffffffffffffffffffffffffffffffff1663182df0f56040518163ffffffff1660e01b815260040160206040518083038186803b1580156119d257600080fd5b505afa1580156119e6573d6000803e3d6000fd5b505050506040513d601f19601f82011682018060405250810190611a0a91906132af565b7f000000000000000000000000000000000000000000000000000000000000000073ffffffffffffffffffffffffffffffffffffffff166318160ddd6040518163ffffffff1660e01b815260040160206040518083038186803b158015611a7057600080fd5b505afa158015611a84573d6000803e3d6000fd5b505050506040513d601f19601f82011682018060405250810190611aa891906132af565b611ab2919061352e565b611abc91906134f3565b611ac691906134db565b9050611ad1826127d0565b9150600081611aee57611ae76223dbb08461352e565b9050611b1b565b81611afc6223dbb08561352e565b611b0e90670de0b6b3a764000061352e565b611b1891906134f3565b90505b612710611b2a8261251c61352e565b611b3491906134f3565b95945050505050565b60008281526020818152604080832073ffffffffffffffffffffffffffffffffffffffff8516845290915290205460ff16610ab757611b938173ffffffffffffffffffffffffffffffffffffffff166014612b32565b611b9e836020612b32565b604051602001611baf92919061332e565b604080517fffffffffffffffffffffffffffffffffffffffffffffffffffffffffffffffe0818403018152908290527f08c379a0000000000000000000000000000000000000000000000000000000008252610aa4916004016133af565b6040517f3af9e669000000000000000000000000000000000000000000000000000000008152306004820152600090819073ffffffffffffffffffffffffffffffffffffffff7f00000000000000000000000000000000000000000000000000000000000000001690633af9e66990602401602060405180830381600087803b158015611c9957600080fd5b505af1158015611cad573d6000803e3d6000fd5b505050506040513d601f19601f82011682018060405250810190611cd191906132af565b600480546040517f70a08231000000000000000000000000000000000000000000000000000000008152309281019290925291925060009173ffffffffffffffffffffffffffffffffffffffff16906370a082319060240160206040518083038186803b158015611d4157600080fd5b505afa158015611d55573d6000803e3d6000fd5b505050506040513d601f19601f82011682018060405250810190611d7991906132af565b90506000611d8782846134db565b905080851115611d95578094505b848210611dcf57600354600454611dc69173ffffffffffffffffffffffffffffffffffffffff918216911687612395565b50929392505050565b600480546040517f70a0823100000000000000000000000000000000000000000000000000000000815273ffffffffffffffffffffffffffffffffffffffff7f0000000000000000000000000000000000000000000000000000000000000000811693820193909352600092909116906370a082319060240160206040518083038186803b158015611e6057600080fd5b505afa158015611e74573d6000803e3d6000fd5b505050506040513d601f19601f82011682018060405250810190611e9891906132af565b9050600181111561210d576000611eaf848861356b565b9050818111611fe4576040517f852a12e3000000000000000000000000000000000000000000000000000000008152600481018290527f000000000000000000000000000000000000000000000000000000000000000073ffffffffffffffffffffffffffffffffffffffff169063852a12e390602401602060405180830381600087803b158015611f4057600080fd5b505af1158015611f54573d6000803e3d6000fd5b505050506040513d601f19601f82011682018060405250810190611f7891906132af565b15611fdf576040517f08c379a000000000000000000000000000000000000000000000000000000000815260206004820152601560248201527f72656465656d556e6465726c79696e67206661696c00000000000000000000006044820152606401610aa4565b61210b565b6040517f852a12e3000000000000000000000000000000000000000000000000000000008152600481018390527f000000000000000000000000000000000000000000000000000000000000000073ffffffffffffffffffffffffffffffffffffffff169063852a12e390602401602060405180830381600087803b15801561206c57600080fd5b505af1158015612080573d6000803e3d6000fd5b505050506040513d601f19601f820116820180604052508101906120a491906132af565b1561210b576040517f08c379a000000000000000000000000000000000000000000000000000000000815260206004820152601560248201527f72656465656d556e6465726c79696e67206661696c00000000000000000000006044820152606401610aa4565b505b612115612d75565b600480546040517f70a08231000000000000000000000000000000000000000000000000000000008152309281019290925273ffffffffffffffffffffffffffffffffffffffff16906370a082319060240160206040518083038186803b15801561217f57600080fd5b505afa158015612193573d6000803e3d6000fd5b505050506040513d601f19601f820116820180604052508101906121b791906132af565b6003546004549194506121e49173ffffffffffffffffffffffffffffffffffffffff908116911685612395565b5090949350505050565b60008281526020818152604080832073ffffffffffffffffffffffffffffffffffffffff8516845290915290205460ff16610ab75760008281526020818152604080832073ffffffffffffffffffffffffffffffffffffffff85168452909152902080547fffffffffffffffffffffffffffffffffffffffffffffffffffffffffffffff001660011790556122803390565b73ffffffffffffffffffffffffffffffffffffffff168173ffffffffffffffffffffffffffffffffffffffff16837f2f8788117e7eff1d82e926ec794901d17c78024a50270940304540a733656f0d60405160405180910390a45050565b60008281526020818152604080832073ffffffffffffffffffffffffffffffffffffffff8516845290915290205460ff1615610ab75760008281526020818152604080832073ffffffffffffffffffffffffffffffffffffffff8516808552925280832080547fffffffffffffffffffffffffffffffffffffffffffffffffffffffffffffff0016905551339285917ff6391f5c32d9c69d2a47ea670b442974b53935d1edc7fd64eb21e047a839171b9190a45050565b60405173ffffffffffffffffffffffffffffffffffffffff8316602482015260448101829052610a249084907fa9059cbb0000000000000000000000000000000000000000000000000000000090606401611671565b60408051600380825260808201909252606091600091906020820184803683375050600454825192935073ffffffffffffffffffffffffffffffffffffffff169183915060009061243e5761243e613699565b602002602001019073ffffffffffffffffffffffffffffffffffffffff16908173ffffffffffffffffffffffffffffffffffffffff16815250507f0000000000000000000000000000000000000000000000000000000000000000816001815181106124ac576124ac613699565b602002602001019073ffffffffffffffffffffffffffffffffffffffff16908173ffffffffffffffffffffffffffffffffffffffff16815250507f00000000000000000000000000000000000000000000000000000000000000008160028151811061251a5761251a613699565b73ffffffffffffffffffffffffffffffffffffffff90921660209283029190910190910152919050565b60006125a6826040518060400160405280602081526020017f5361666545524332303a206c6f772d6c6576656c2063616c6c206661696c65648152508573ffffffffffffffffffffffffffffffffffffffff166116f39092919063ffffffff16565b805190915015610a2457808060200190518101906125c4919061317f565b610a24576040517f08c379a000000000000000000000000000000000000000000000000000000000815260206004820152602a60248201527f5361666545524332303a204552433230206f7065726174696f6e20646964206e60448201527f6f742073756363656564000000000000000000000000000000000000000000006064820152608401610aa4565b6060824710156126e2576040517f08c379a000000000000000000000000000000000000000000000000000000000815260206004820152602660248201527f416464726573733a20696e73756666696369656e742062616c616e636520666f60448201527f722063616c6c00000000000000000000000000000000000000000000000000006064820152608401610aa4565b843b61274a576040517f08c379a000000000000000000000000000000000000000000000000000000000815260206004820152601d60248201527f416464726573733a2063616c6c20746f206e6f6e2d636f6e74726163740000006044820152606401610aa4565b6000808673ffffffffffffffffffffffffffffffffffffffff1685876040516127739190613312565b60006040518083038185875af1925050503d80600081146127b0576040519150601f19603f3d011682016040523d82523d6000602084013e6127b5565b606091505b50915091506127c5828286612fb6565b979650505050505050565b6000816127df57506000919050565b60045460609073ffffffffffffffffffffffffffffffffffffffff1673c02aaa39b223fe8d0a0e5c4f27ead9083c756cc214156128e75760408051600280825260608201835290916020830190803683370190505090507f00000000000000000000000000000000000000000000000000000000000000008160008151811061286a5761286a613699565b73ffffffffffffffffffffffffffffffffffffffff92831660209182029290920101526004548251911690829060019081106128a8576128a8613699565b602002602001019073ffffffffffffffffffffffffffffffffffffffff16908173ffffffffffffffffffffffffffffffffffffffff1681525050612a17565b6040805160038082526080820190925290602082016060803683370190505090507f00000000000000000000000000000000000000000000000000000000000000008160008151811061293c5761293c613699565b602002602001019073ffffffffffffffffffffffffffffffffffffffff16908173ffffffffffffffffffffffffffffffffffffffff168152505073c02aaa39b223fe8d0a0e5c4f27ead9083c756cc28160018151811061299e5761299e613699565b73ffffffffffffffffffffffffffffffffffffffff92831660209182029290920101526004548251911690829060029081106129dc576129dc613699565b602002602001019073ffffffffffffffffffffffffffffffffffffffff16908173ffffffffffffffffffffffffffffffffffffffff16815250505b6040517fd06ca61f00000000000000000000000000000000000000000000000000000000815260009073ffffffffffffffffffffffffffffffffffffffff7f0000000000000000000000000000000000000000000000000000000000000000169063d06ca61f90612a8e9087908690600401613428565b60006040518083038186803b158015612aa657600080fd5b505afa158015612aba573d6000803e3d6000fd5b505050506040513d6000823e601f3d9081017fffffffffffffffffffffffffffffffffffffffffffffffffffffffffffffffe0168201604052612b0091908101906130d2565b90508060018251612b11919061356b565b81518110612b2157612b21613699565b602002602001015192505050919050565b60606000612b4183600261352e565b612b4c9060026134db565b67ffffffffffffffff811115612b6457612b646136c8565b6040519080825280601f01601f191660200182016040528015612b8e576020820181803683370190505b5090507f300000000000000000000000000000000000000000000000000000000000000081600081518110612bc557612bc5613699565b60200101907effffffffffffffffffffffffffffffffffffffffffffffffffffffffffffff1916908160001a9053507f780000000000000000000000000000000000000000000000000000000000000081600181518110612c2857612c28613699565b60200101907effffffffffffffffffffffffffffffffffffffffffffffffffffffffffffff1916908160001a9053506000612c6484600261352e565b612c6f9060016134db565b90505b6001811115612d0c577f303132333435363738396162636465660000000000000000000000000000000085600f1660108110612cb057612cb0613699565b1a60f81b828281518110612cc657612cc6613699565b60200101907effffffffffffffffffffffffffffffffffffffffffffffffffffffffffffff1916908160001a90535060049490941c93612d05816135ae565b9050612c72565b508315611705576040517f08c379a000000000000000000000000000000000000000000000000000000000815260206004820181905260248201527f537472696e67733a20686578206c656e67746820696e73756666696369656e746044820152606401610aa4565b6040517f70a082310000000000000000000000000000000000000000000000000000000081523060048201526000907f000000000000000000000000000000000000000000000000000000000000000073ffffffffffffffffffffffffffffffffffffffff16906370a082319060240160206040518083038186803b158015612dfd57600080fd5b505afa158015612e11573d6000803e3d6000fd5b505050506040513d601f19601f82011682018060405250810190612e3591906132af565b9050600654811115612fb3577f000000000000000000000000000000000000000000000000000000000000000073ffffffffffffffffffffffffffffffffffffffff1663c04b8d596040518060a0016040528060058054612e95906135e3565b80601f0160208091040260200160405190810160405280929190818152602001828054612ec1906135e3565b8015612f0e5780601f10612ee357610100808354040283529160200191612f0e565b820191906000526020600020905b815481529060010190602001808311612ef157829003601f168201915b505050505081526020013073ffffffffffffffffffffffffffffffffffffffff16815260200142815260200184815260200160008152506040518263ffffffff1660e01b8152600401612f6191906133c2565b602060405180830381600087803b158015612f7b57600080fd5b505af1158015612f8f573d6000803e3d6000fd5b505050506040513d601f19601f82011682018060405250810190610ab791906132af565b50565b60608315612fc5575081611705565b825115612fd55782518084602001fd5b816040517f08c379a0000000000000000000000000000000000000000000000000000000008152600401610aa491906133af565b828054613015906135e3565b90600052602060002090601f016020900481019282613037576000855561307d565b82601f1061305057805160ff191683800117855561307d565b8280016001018555821561307d579182015b8281111561307d578251825591602001919060010190613062565b50610ed59291505b80821115610ed55760008155600101613085565b600080604083850312156130ac57600080fd5b82356130b7816136f7565b915060208301356130c7816136f7565b809150509250929050565b600060208083850312156130e557600080fd5b825167ffffffffffffffff808211156130fd57600080fd5b818501915085601f83011261311157600080fd5b815181811115613123576131236136c8565b8060051b915061313484830161348c565b8181528481019084860184860187018a101561314f57600080fd5b600095505b83861015613172578051835260019590950194918601918601613154565b5098975050505050505050565b60006020828403121561319157600080fd5b8151801515811461170557600080fd5b6000602082840312156131b357600080fd5b5035919050565b600080604083850312156131cd57600080fd5b8235915060208301356130c7816136f7565b600060208083850312156131f257600080fd5b823567ffffffffffffffff8082111561320a57600080fd5b818501915085601f83011261321e57600080fd5b813581811115613230576132306136c8565b613260847fffffffffffffffffffffffffffffffffffffffffffffffffffffffffffffffe0601f8401160161348c565b9150808252868482850101111561327657600080fd5b8084840185840137600090820190930192909252509392505050565b6000602082840312156132a457600080fd5b8151611705816136f7565b6000602082840312156132c157600080fd5b5051919050565b600081518084526132e0816020860160208601613582565b601f017fffffffffffffffffffffffffffffffffffffffffffffffffffffffffffffffe0169290920160200192915050565b60008251613324818460208701613582565b9190910192915050565b7f416363657373436f6e74726f6c3a206163636f756e7420000000000000000000815260008351613366816017850160208801613582565b7f206973206d697373696e6720726f6c652000000000000000000000000000000060179184019182015283516133a3816028840160208801613582565b01602801949350505050565b60208152600061170560208301846132c8565b602081526000825160a060208401526133de60c08401826132c8565b905073ffffffffffffffffffffffffffffffffffffffff60208501511660408401526040840151606084015260608401516080840152608084015160a08401528091505092915050565b6000604082018483526020604081850152818551808452606086019150828701935060005b8181101561347f57845173ffffffffffffffffffffffffffffffffffffffff168352938301939183019160010161344d565b5090979650505050505050565b604051601f82017fffffffffffffffffffffffffffffffffffffffffffffffffffffffffffffffe016810167ffffffffffffffff811182821017156134d3576134d36136c8565b604052919050565b600082198211156134ee576134ee61366a565b500190565b600082613529577f4e487b7100000000000000000000000000000000000000000000000000000000600052601260045260246000fd5b500490565b6000817fffffffffffffffffffffffffffffffffffffffffffffffffffffffffffffffff04831182151516156135665761356661366a565b500290565b60008282101561357d5761357d61366a565b500390565b60005b8381101561359d578181015183820152602001613585565b838111156110ac5750506000910152565b6000816135bd576135bd61366a565b507fffffffffffffffffffffffffffffffffffffffffffffffffffffffffffffffff0190565b600181811c908216806135f757607f821691505b602082108114156109f8577f4e487b7100000000000000000000000000000000000000000000000000000000600052602260045260246000fd5b60007fffffffffffffffffffffffffffffffffffffffffffffffffffffffffffffffff8214156136635761366361366a565b5060010190565b7f4e487b7100000000000000000000000000000000000000000000000000000000600052601160045260246000fd5b7f4e487b7100000000000000000000000000000000000000000000000000000000600052603260045260246000fd5b7f4e487b7100000000000000000000000000000000000000000000000000000000600052604160045260246000fd5b73ffffffffffffffffffffffffffffffffffffffff81168114612fb357600080fdfea264697066735822122010757a4d9d75969b4323cda43d58b044dd6ef35cee9c1cc10ff464ef3b53e38f64736f6c63430008070033928286c473ded01ff8bf61a1986f14a0579066072fa8261442d9fea514d93a4c55435dd261a4b9b3364963f7738a7a662ad9c84396d64be3365284bb7f0a5041",
  "linkReferences": {},
  "deployedLinkReferences": {}
}