{
  "_format": "hh-sol-artifact-1",
  "contractName": "MockBot",
  "sourceName": "contracts/mock/MockBot.sol",
  "abi": [
    {
      "inputs": [
        {
          "internalType": "address",
          "name": "bondingCurve",
          "type": "address"
        },
        {
          "internalType": "address",
          "name": "agToken",
          "type": "address"
        },
        {
          "internalType": "uint256",
          "name": "targetANGLEQuantity",
          "type": "uint256"
        }
      ],
      "name": "buyANGLEFromBondingCurve",
      "outputs": [],
      "stateMutability": "nonpayable",
      "type": "function"
    },
    {
      "inputs": [
        {
          "internalType": "address",
          "name": "distributor",
          "type": "address"
        },
        {
          "internalType": "address",
          "name": "stakingContract",
          "type": "address"
        }
      ],
      "name": "distributorDrip",
      "outputs": [],
      "stateMutability": "nonpayable",
      "type": "function"
    }
  ],
  "bytecode": "0x608060405234801561001057600080fd5b506102a3806100206000396000f3fe608060405234801561001057600080fd5b50600436106100365760003560e01c8063cccab90d1461003b578063e3df446414610050575b600080fd5b61004e610049366004610218565b610063565b005b61004e61005e3660046101e5565b610116565b6040517f3ea9e46a00000000000000000000000000000000000000000000000000000000815273ffffffffffffffffffffffffffffffffffffffff8381166004830152602482018390527fffffffffffffffffffffffffffffffffffffffffffffffffffffffffffffffff6044830152841690633ea9e46a90606401600060405180830381600087803b1580156100f957600080fd5b505af115801561010d573d6000803e3d6000fd5b50505050505050565b6040517f67a5cd0600000000000000000000000000000000000000000000000000000000815273ffffffffffffffffffffffffffffffffffffffff82811660048301528316906367a5cd0690602401602060405180830381600087803b15801561017f57600080fd5b505af1158015610193573d6000803e3d6000fd5b505050506040513d601f19601f820116820180604052508101906101b79190610254565b505050565b803573ffffffffffffffffffffffffffffffffffffffff811681146101e057600080fd5b919050565b600080604083850312156101f857600080fd5b610201836101bc565b915061020f602084016101bc565b90509250929050565b60008060006060848603121561022d57600080fd5b610236846101bc565b9250610244602085016101bc565b9150604084013590509250925092565b60006020828403121561026657600080fd5b505191905056fea26469706673582212209462824bdff1824ec200b76ac135499d61018fcbe48fd7c99b5ae5dc862dede164736f6c63430008070033",
  "linkReferences": {},
  "deployedLinkReferences": {}
}