{
  "_format": "hh-sol-artifact-1",
  "contractName": "FeeManagerStorage",
  "sourceName": "contracts/feeManager/FeeManagerStorage.sol",
  "abi": [
    {
      "anonymous": false,
      "inputs": [
        {
          "indexed": false,
          "internalType": "uint256[]",
          "name": "_xBonusMalusBurn",
          "type": "uint256[]"
        },
        {
          "indexed": false,
          "internalType": "uint64[]",
          "name": "_yBonusMalusBurn",
          "type": "uint64[]"
        }
      ],
      "name": "FeeBurnUpdated",
      "type": "event"
    },
    {
      "anonymous": false,
      "inputs": [
        {
          "indexed": false,
          "internalType": "uint256[]",
          "name": "_xBonusMalusMint",
          "type": "uint256[]"
        },
        {
          "indexed": false,
          "internalType": "uint64[]",
          "name": "_yBonusMalusMint",
          "type": "uint64[]"
        }
      ],
      "name": "FeeMintUpdated",
      "type": "event"
    },
    {
      "anonymous": false,
      "inputs": [
        {
          "indexed": false,
          "internalType": "uint64",
          "name": "_haFeeDeposit",
          "type": "uint64"
        },
        {
          "indexed": false,
          "internalType": "uint64",
          "name": "_haFeeWithdraw",
          "type": "uint64"
        }
      ],
      "name": "HaFeesUpdated",
      "type": "event"
    },
    {
      "anonymous": false,
      "inputs": [
        {
          "indexed": false,
          "internalType": "uint256[]",
          "name": "_xSlippageFee",
          "type": "uint256[]"
        },
        {
          "indexed": false,
          "internalType": "uint64[]",
          "name": "_ySlippageFee",
          "type": "uint64[]"
        }
      ],
      "name": "SlippageFeeUpdated",
      "type": "event"
    },
    {
      "anonymous": false,
      "inputs": [
        {
          "indexed": false,
          "internalType": "uint256[]",
          "name": "_xSlippage",
          "type": "uint256[]"
        },
        {
          "indexed": false,
          "internalType": "uint64[]",
          "name": "_ySlippage",
          "type": "uint64[]"
        }
      ],
      "name": "SlippageUpdated",
      "type": "event"
    },
    {
      "anonymous": false,
      "inputs": [
        {
          "indexed": false,
          "internalType": "uint256",
          "name": "_collatRatio",
          "type": "uint256"
        },
        {
          "indexed": false,
          "internalType": "uint64",
          "name": "_bonusMalusMint",
          "type": "uint64"
        },
        {
          "indexed": false,
          "internalType": "uint64",
          "name": "_bonusMalusBurn",
          "type": "uint64"
        },
        {
          "indexed": false,
          "internalType": "uint64",
          "name": "_slippage",
          "type": "uint64"
        },
        {
          "indexed": false,
          "internalType": "uint64",
          "name": "_slippageFee",
          "type": "uint64"
        }
      ],
      "name": "UserAndSLPFeesUpdated",
      "type": "event"
    },
    {
      "inputs": [],
      "name": "BASE_PARAMS_CASTED",
      "outputs": [
        {
          "internalType": "uint64",
          "name": "",
          "type": "uint64"
        }
      ],
      "stateMutability": "view",
      "type": "function"
    },
    {
      "inputs": [],
      "name": "haFeeDeposit",
      "outputs": [
        {
          "internalType": "uint64",
          "name": "",
          "type": "uint64"
        }
      ],
      "stateMutability": "view",
      "type": "function"
    },
    {
      "inputs": [],
      "name": "haFeeWithdraw",
      "outputs": [
        {
          "internalType": "uint64",
          "name": "",
          "type": "uint64"
        }
      ],
      "stateMutability": "view",
      "type": "function"
    },
    {
      "inputs": [],
      "name": "perpetualManager",
      "outputs": [
        {
          "internalType": "contract IPerpetualManager",
          "name": "",
          "type": "address"
        }
      ],
      "stateMutability": "view",
      "type": "function"
    },
    {
      "inputs": [],
      "name": "stableMaster",
      "outputs": [
        {
          "internalType": "contract IStableMaster",
          "name": "",
          "type": "address"
        }
      ],
      "stateMutability": "view",
      "type": "function"
    },
    {
      "inputs": [
        {
          "internalType": "uint256",
          "name": "",
          "type": "uint256"
        }
      ],
      "name": "xBonusMalusBurn",
      "outputs": [
        {
          "internalType": "uint256",
          "name": "",
          "type": "uint256"
        }
      ],
      "stateMutability": "view",
      "type": "function"
    },
    {
      "inputs": [
        {
          "internalType": "uint256",
          "name": "",
          "type": "uint256"
        }
      ],
      "name": "xBonusMalusMint",
      "outputs": [
        {
          "internalType": "uint256",
          "name": "",
          "type": "uint256"
        }
      ],
      "stateMutability": "view",
      "type": "function"
    },
    {
      "inputs": [
        {
          "internalType": "uint256",
          "name": "",
          "type": "uint256"
        }
      ],
      "name": "xSlippage",
      "outputs": [
        {
          "internalType": "uint256",
          "name": "",
          "type": "uint256"
        }
      ],
      "stateMutability": "view",
      "type": "function"
    },
    {
      "inputs": [
        {
          "internalType": "uint256",
          "name": "",
          "type": "uint256"
        }
      ],
      "name": "xSlippageFee",
      "outputs": [
        {
          "internalType": "uint256",
          "name": "",
          "type": "uint256"
        }
      ],
      "stateMutability": "view",
      "type": "function"
    },
    {
      "inputs": [
        {
          "internalType": "uint256",
          "name": "",
          "type": "uint256"
        }
      ],
      "name": "yBonusMalusBurn",
      "outputs": [
        {
          "internalType": "uint64",
          "name": "",
          "type": "uint64"
        }
      ],
      "stateMutability": "view",
      "type": "function"
    },
    {
      "inputs": [
        {
          "internalType": "uint256",
          "name": "",
          "type": "uint256"
        }
      ],
      "name": "yBonusMalusMint",
      "outputs": [
        {
          "internalType": "uint64",
          "name": "",
          "type": "uint64"
        }
      ],
      "stateMutability": "view",
      "type": "function"
    },
    {
      "inputs": [
        {
          "internalType": "uint256",
          "name": "",
          "type": "uint256"
        }
      ],
      "name": "ySlippage",
      "outputs": [
        {
          "internalType": "uint64",
          "name": "",
          "type": "uint64"
        }
      ],
      "stateMutability": "view",
      "type": "function"
    },
    {
      "inputs": [
        {
          "internalType": "uint256",
          "name": "",
          "type": "uint256"
        }
      ],
      "name": "ySlippageFee",
      "outputs": [
        {
          "internalType": "uint64",
          "name": "",
          "type": "uint64"
        }
      ],
      "stateMutability": "view",
      "type": "function"
    }
  ],
  "bytecode": "0x608060405234801561001057600080fd5b5061035a806100206000396000f3fe608060405234801561001057600080fd5b50600436106100df5760003560e01c80635d34082b1161008c578063aa4bef8d11610066578063aa4bef8d146101ff578063c011c5b014610212578063ccde501e14610225578063efce9edd1461023857600080fd5b80635d34082b146101875780636ac5dc46146101cc5780637597323d146101ec57600080fd5b806342746072116100bd578063427460721461014957806343223da9146101695780634c4050201461017457600080fd5b80631573087c146100e457806329ba62381461010a578063329c3e3d14610136575b600080fd5b6100f76100f236600461030b565b61024c565b6040519081526020015b60405180910390f35b61011d61011836600461030b565b61026d565b60405167ffffffffffffffff9091168152602001610101565b61011d61014436600461030b565b6102ab565b600a5461011d9068010000000000000000900467ffffffffffffffff1681565b61011d633b9aca0081565b61011d61018236600461030b565b6102bb565b6001546101a79073ffffffffffffffffffffffffffffffffffffffff1681565b60405173ffffffffffffffffffffffffffffffffffffffff9091168152602001610101565b6000546101a79073ffffffffffffffffffffffffffffffffffffffff1681565b6100f76101fa36600461030b565b6102cb565b6100f761020d36600461030b565b6102db565b61011d61022036600461030b565b6102eb565b6100f761023336600461030b565b6102fb565b600a5461011d9067ffffffffffffffff1681565b6004818154811061025c57600080fd5b600091825260209091200154905081565b6007818154811061027d57600080fd5b9060005260206000209060049182820401919006600802915054906101000a900467ffffffffffffffff1681565b6003818154811061027d57600080fd5b6009818154811061027d57600080fd5b6002818154811061025c57600080fd5b6008818154811061025c57600080fd5b6005818154811061027d57600080fd5b6006818154811061025c57600080fd5b60006020828403121561031d57600080fd5b503591905056fea2646970667358221220307f9347de5660f706ff3f71d724fc9f6f839a99d851ee2f0573b9168bc6115064736f6c63430008070033",
  "linkReferences": {},
  "deployedLinkReferences": {}
}