{
  "_format": "hh-sol-artifact-1",
  "contractName": "MockMiddlemanPolygonBridge",
  "sourceName": "contracts/mock/MockAngleMiddleman.sol",
  "abi": [
    {
      "inputs": [
        {
          "internalType": "address",
          "name": "_predicate",
          "type": "address"
        }
      ],
      "stateMutability": "nonpayable",
      "type": "constructor"
    },
    {
      "anonymous": false,
      "inputs": [
        {
          "indexed": false,
          "internalType": "address",
          "name": "",
          "type": "address"
        },
        {
          "indexed": false,
          "internalType": "address",
          "name": "",
          "type": "address"
        },
        {
          "indexed": false,
          "internalType": "uint256",
          "name": "",
          "type": "uint256"
        }
      ],
      "name": "Received",
      "type": "event"
    },
    {
      "inputs": [
        {
          "internalType": "address",
          "name": "user",
          "type": "address"
        },
        {
          "internalType": "address",
          "name": "rootToken",
          "type": "address"
        },
        {
          "internalType": "bytes",
          "name": "depositData",
          "type": "bytes"
        }
      ],
      "name": "depositFor",
      "outputs": [],
      "stateMutability": "nonpayable",
      "type": "function"
    },
    {
      "inputs": [],
      "name": "predicate",
      "outputs": [
        {
          "internalType": "contract MockMiddlemanPolygonPredicate",
          "name": "",
          "type": "address"
        }
      ],
      "stateMutability": "view",
      "type": "function"
    },
    {
      "inputs": [
        {
          "internalType": "address",
          "name": "",
          "type": "address"
        }
      ],
      "name": "tokenToType",
      "outputs": [
        {
          "internalType": "bytes32",
          "name": "",
          "type": "bytes32"
        }
      ],
      "stateMutability": "pure",
      "type": "function"
    },
    {
      "inputs": [
        {
          "internalType": "bytes32",
          "name": "",
          "type": "bytes32"
        }
      ],
      "name": "typeToPredicate",
      "outputs": [
        {
          "internalType": "address",
          "name": "",
          "type": "address"
        }
      ],
      "stateMutability": "view",
      "type": "function"
    }
  ],
  "bytecode": "0x608060405234801561001057600080fd5b5060405161052b38038061052b83398101604081905261002f91610054565b600080546001600160a01b0319166001600160a01b0392909216919091179055610084565b60006020828403121561006657600080fd5b81516001600160a01b038116811461007d57600080fd5b9392505050565b610498806100936000396000f3fe608060405234801561001057600080fd5b506004361061004c5760003560e01c8063e3dec8fb14610051578063e43009a614610066578063e6198705146100ac578063e66f9603146100f1575b600080fd5b61006461005f36600461026b565b61011c565b005b610099610074366004610249565b507f8653c25c4bc94996b88d5990adb542858d5c8dcc0a303bf1392c234b7b38c73890565b6040519081526020015b60405180910390f35b6000546100cc9073ffffffffffffffffffffffffffffffffffffffff1681565b60405173ffffffffffffffffffffffffffffffffffffffff90911681526020016100a3565b6100cc6100ff36600461035b565b5060005473ffffffffffffffffffffffffffffffffffffffff1690565b6000818060200190518101906101329190610374565b6000546040517fe375b64e00000000000000000000000000000000000000000000000000000000815291925073ffffffffffffffffffffffffffffffffffffffff169063e375b64e9061018f90339088908890889060040161038d565b600060405180830381600087803b1580156101a957600080fd5b505af11580156101bd573d6000803e3d6000fd5b50506040805173ffffffffffffffffffffffffffffffffffffffff8089168252871660208201529081018490527f8cabf31d2b1b11ba52dbb302817a3c9c83e4b2a5194d35121ab1354d69f6a4cb9250606001905060405180910390a150505050565b803573ffffffffffffffffffffffffffffffffffffffff8116811461024457600080fd5b919050565b60006020828403121561025b57600080fd5b61026482610220565b9392505050565b60008060006060848603121561028057600080fd5b61028984610220565b925061029760208501610220565b9150604084013567ffffffffffffffff808211156102b457600080fd5b818601915086601f8301126102c857600080fd5b8135818111156102da576102da610433565b604051601f82017fffffffffffffffffffffffffffffffffffffffffffffffffffffffffffffffe0908116603f0116810190838211818310171561032057610320610433565b8160405282815289602084870101111561033957600080fd5b8260208601602083013760006020848301015280955050505050509250925092565b60006020828403121561036d57600080fd5b5035919050565b60006020828403121561038657600080fd5b5051919050565b600073ffffffffffffffffffffffffffffffffffffffff80871683526020818716818501528186166040850152608060608501528451915081608085015260005b828110156103ea5785810182015185820160a0015281016103ce565b828111156103fc57600060a084870101525b5050601f017fffffffffffffffffffffffffffffffffffffffffffffffffffffffffffffffe0169190910160a00195945050505050565b7f4e487b7100000000000000000000000000000000000000000000000000000000600052604160045260246000fdfea26469706673582212209550eec67112dc076b7223041c71410f7b387dfdf601fbb3184f34c9d474de3164736f6c63430008070033",
  "linkReferences": {},
  "deployedLinkReferences": {}
}