{
  "_format": "hh-sol-artifact-1",
  "contractName": "MockAngleDistributor",
  "sourceName": "contracts/mock/MockAngleMiddleman.sol",
  "abi": [
    {
      "inputs": [
        {
          "internalType": "contract IERC20",
          "name": "_rewardToken",
          "type": "address"
        }
      ],
      "stateMutability": "nonpayable",
      "type": "constructor"
    },
    {
      "inputs": [],
      "name": "delegateGauge",
      "outputs": [
        {
          "internalType": "address",
          "name": "",
          "type": "address"
        }
      ],
      "stateMutability": "view",
      "type": "function"
    },
    {
      "inputs": [
        {
          "internalType": "address",
          "name": "gaugeAddr",
          "type": "address"
        },
        {
          "internalType": "uint256",
          "name": "amount",
          "type": "uint256"
        }
      ],
      "name": "distributeReward",
      "outputs": [],
      "stateMutability": "nonpayable",
      "type": "function"
    },
    {
      "inputs": [],
      "name": "rewardToken",
      "outputs": [
        {
          "internalType": "contract IERC20",
          "name": "",
          "type": "address"
        }
      ],
      "stateMutability": "view",
      "type": "function"
    },
    {
      "inputs": [
        {
          "internalType": "address",
          "name": "_delegateGauge",
          "type": "address"
        }
      ],
      "name": "setDelegateGauge",
      "outputs": [],
      "stateMutability": "nonpayable",
      "type": "function"
    }
  ],
  "bytecode": "0x608060405234801561001057600080fd5b506040516103be3803806103be83398101604081905261002f9161009d565b6001600160a01b0381166100785760405162461bcd60e51b815260206004820152600c60248201526b7a65726f206164647265737360a01b604482015260640160405180910390fd5b600080546001600160a01b0319166001600160a01b03929092169190911790556100cd565b6000602082840312156100af57600080fd5b81516001600160a01b03811681146100c657600080fd5b9392505050565b6102e2806100dc6000396000f3fe608060405234801561001057600080fd5b506004361061004c5760003560e01c80631ec8bb8c14610051578063af45d0df14610066578063ee578bf0146100af578063f7c618c114610104575b600080fd5b61006461005f366004610282565b610124565b005b6001546100869073ffffffffffffffffffffffffffffffffffffffff1681565b60405173ffffffffffffffffffffffffffffffffffffffff909116815260200160405180910390f35b6100646100bd366004610260565b600180547fffffffffffffffffffffffff00000000000000000000000000000000000000001673ffffffffffffffffffffffffffffffffffffffff92909216919091179055565b6000546100869073ffffffffffffffffffffffffffffffffffffffff1681565b60015473ffffffffffffffffffffffffffffffffffffffff166101a7576040517f08c379a000000000000000000000000000000000000000000000000000000000815260206004820152600c60248201527f7a65726f20616464726573730000000000000000000000000000000000000000604482015260640160405180910390fd5b6001546040517fe324718000000000000000000000000000000000000000000000000000000000815273ffffffffffffffffffffffffffffffffffffffff8481166004830152602482018490529091169063e324718090604401600060405180830381600087803b15801561021b57600080fd5b505af115801561022f573d6000803e3d6000fd5b505050505050565b803573ffffffffffffffffffffffffffffffffffffffff8116811461025b57600080fd5b919050565b60006020828403121561027257600080fd5b61027b82610237565b9392505050565b6000806040838503121561029557600080fd5b61029e83610237565b94602093909301359350505056fea26469706673582212204f254270323998c5c8126c848adc399d527825378a6305d19fe10afd6cd1d87e64736f6c63430008070033",
  "linkReferences": {},
  "deployedLinkReferences": {}
}