{
  "_format": "hh-sol-artifact-1",
  "contractName": "MockMiddlemanCurveGauge",
  "sourceName": "contracts/mock/MockAngleMiddleman.sol",
  "abi": [
    {
      "anonymous": false,
      "inputs": [
        {
          "indexed": false,
          "internalType": "address",
          "name": "",
          "type": "address"
        },
        {
          "indexed": false,
          "internalType": "uint256",
          "name": "",
          "type": "uint256"
        }
      ],
      "name": "Received",
      "type": "event"
    },
    {
      "inputs": [
        {
          "internalType": "address",
          "name": "_reward_token",
          "type": "address"
        },
        {
          "internalType": "uint256",
          "name": "_amount",
          "type": "uint256"
        }
      ],
      "name": "deposit_reward_token",
      "outputs": [],
      "stateMutability": "nonpayable",
      "type": "function"
    }
  ],
  "bytecode": "0x608060405234801561001057600080fd5b506101e9806100206000396000f3fe608060405234801561001057600080fd5b506004361061002b5760003560e01c806393f7aa6714610030575b600080fd5b61004361003e366004610145565b610045565b005b6040517f23b872dd0000000000000000000000000000000000000000000000000000000081523360048201523060248201526044810182905273ffffffffffffffffffffffffffffffffffffffff8316906323b872dd90606401602060405180830381600087803b1580156100b957600080fd5b505af11580156100cd573d6000803e3d6000fd5b505050506040513d601f19601f820116820180604052508101906100f1919061018a565b506040805173ffffffffffffffffffffffffffffffffffffffff84168152602081018390527f88a5966d370b9919b20f3e2c13ff65706f196a4e32cc2c12bf57088f88525874910160405180910390a15050565b6000806040838503121561015857600080fd5b823573ffffffffffffffffffffffffffffffffffffffff8116811461017c57600080fd5b946020939093013593505050565b60006020828403121561019c57600080fd5b815180151581146101ac57600080fd5b939250505056fea26469706673582212202937a1553a12872d7bae601844157c9a07db467ada25370c8a30c27468b0acb764736f6c63430008070033",
  "linkReferences": {},
  "deployedLinkReferences": {}
}