{
  "_format": "hh-sol-artifact-1",
  "contractName": "ComputePath",
  "sourceName": "contracts/mock/MockPath.sol",
  "abi": [
    {
      "inputs": [
        {
          "internalType": "address",
          "name": "_address1",
          "type": "address"
        },
        {
          "internalType": "address",
          "name": "_address2",
          "type": "address"
        },
        {
          "internalType": "address",
          "name": "_address3",
          "type": "address"
        },
        {
          "internalType": "uint24",
          "name": "_fee1",
          "type": "uint24"
        },
        {
          "internalType": "uint24",
          "name": "_fee2",
          "type": "uint24"
        }
      ],
      "stateMutability": "nonpayable",
      "type": "constructor"
    },
    {
      "inputs": [],
      "name": "address1",
      "outputs": [
        {
          "internalType": "address",
          "name": "",
          "type": "address"
        }
      ],
      "stateMutability": "view",
      "type": "function"
    },
    {
      "inputs": [],
      "name": "address2",
      "outputs": [
        {
          "internalType": "address",
          "name": "",
          "type": "address"
        }
      ],
      "stateMutability": "view",
      "type": "function"
    },
    {
      "inputs": [],
      "name": "address3",
      "outputs": [
        {
          "internalType": "address",
          "name": "",
          "type": "address"
        }
      ],
      "stateMutability": "view",
      "type": "function"
    },
    {
      "inputs": [],
      "name": "computePath",
      "outputs": [
        {
          "internalType": "bytes",
          "name": "path",
          "type": "bytes"
        }
      ],
      "stateMutability": "view",
      "type": "function"
    },
    {
      "inputs": [],
      "name": "fee1",
      "outputs": [
        {
          "internalType": "uint24",
          "name": "",
          "type": "uint24"
        }
      ],
      "stateMutability": "view",
      "type": "function"
    },
    {
      "inputs": [],
      "name": "fee2",
      "outputs": [
        {
          "internalType": "uint24",
          "name": "",
          "type": "uint24"
        }
      ],
      "stateMutability": "view",
      "type": "function"
    }
  ],
  "bytecode": "0x608060405234801561001057600080fd5b5060405161042b38038061042b83398101604081905261002f916100cf565b600080546001600160a01b03199081166001600160a01b0397881617909155600180549091169486169490941790935560028054929094166001600160b81b031990921691909117600160a01b62ffffff928316021762ffffff60b81b1916600160b81b9190921602179055610134565b80516001600160a01b03811681146100b757600080fd5b919050565b805162ffffff811681146100b757600080fd5b600080600080600060a086880312156100e757600080fd5b6100f0866100a0565b94506100fe602087016100a0565b935061010c604087016100a0565b925061011a606087016100bc565b9150610128608087016100bc565b90509295509295909350565b6102e8806101436000396000f3fe608060405234801561001057600080fd5b50600436106100725760003560e01c80639eea4a3a116100505780639eea4a3a1461011f578063c60982561461013f578063e144238b1461016657600080fd5b80631e38046c1461007757806339f73a48146100c15780633a36399e146100ff575b600080fd5b6002546100979073ffffffffffffffffffffffffffffffffffffffff1681565b60405173ffffffffffffffffffffffffffffffffffffffff90911681526020015b60405180910390f35b6002546100eb9077010000000000000000000000000000000000000000000000900462ffffff1681565b60405162ffffff90911681526020016100b8565b6000546100979073ffffffffffffffffffffffffffffffffffffffff1681565b6001546100979073ffffffffffffffffffffffffffffffffffffffff1681565b6002546100eb9074010000000000000000000000000000000000000000900462ffffff1681565b6102376000546002546001546040517fffffffffffffffffffffffffffffffffffffffff000000000000000000000000606094851b811660208301527fffffff000000000000000000000000000000000000000000000000000000000074010000000000000000000000000000000000000000850460e890811b8216603485015293861b8216603784015277010000000000000000000000000000000000000000000000850490931b909216604b82015291831b16604e820152606201604051602081830303815290604052905090565b6040516100b89190600060208083528351808285015260005b8181101561026c57858101830151858201604001528201610250565b8181111561027e576000604083870101525b50601f017fffffffffffffffffffffffffffffffffffffffffffffffffffffffffffffffe01692909201604001939250505056fea2646970667358221220e2d34154464e2dc6ad69098631194b2ba0eacb443a8c530139fb728bfb17999f64736f6c63430008070033",
  "linkReferences": {},
  "deployedLinkReferences": {}
}