{
  "_format": "hh-sol-artifact-1",
  "contractName": "GenericCompoundRinkebyETH",
  "sourceName": "contracts/genericLender/GenericCompoundRinkebyETH.sol",
  "abi": [
    {
      "inputs": [
        {
          "internalType": "address",
          "name": "_strategy",
          "type": "address"
        },
        {
          "internalType": "string",
          "name": "name",
          "type": "string"
        },
        {
          "internalType": "address",
          "name": "_uniswapRouter",
          "type": "address"
        },
        {
          "internalType": "address",
          "name": "_comp",
          "type": "address"
        },
        {
          "internalType": "bytes",
          "name": "_path",
          "type": "bytes"
        },
        {
          "internalType": "address",
          "name": "_cToken",
          "type": "address"
        },
        {
          "internalType": "address[]",
          "name": "governorList",
          "type": "address[]"
        },
        {
          "internalType": "address",
          "name": "guardian",
          "type": "address"
        }
      ],
      "stateMutability": "nonpayable",
      "type": "constructor"
    },
    {
      "anonymous": false,
      "inputs": [
        {
          "indexed": true,
          "internalType": "bytes32",
          "name": "role",
          "type": "bytes32"
        },
        {
          "indexed": true,
          "internalType": "bytes32",
          "name": "previousAdminRole",
          "type": "bytes32"
        },
        {
          "indexed": true,
          "internalType": "bytes32",
          "name": "newAdminRole",
          "type": "bytes32"
        }
      ],
      "name": "RoleAdminChanged",
      "type": "event"
    },
    {
      "anonymous": false,
      "inputs": [
        {
          "indexed": true,
          "internalType": "bytes32",
          "name": "role",
          "type": "bytes32"
        },
        {
          "indexed": true,
          "internalType": "address",
          "name": "account",
          "type": "address"
        },
        {
          "indexed": true,
          "internalType": "address",
          "name": "sender",
          "type": "address"
        }
      ],
      "name": "RoleGranted",
      "type": "event"
    },
    {
      "anonymous": false,
      "inputs": [
        {
          "indexed": true,
          "internalType": "bytes32",
          "name": "role",
          "type": "bytes32"
        },
        {
          "indexed": true,
          "internalType": "address",
          "name": "account",
          "type": "address"
        },
        {
          "indexed": true,
          "internalType": "address",
          "name": "sender",
          "type": "address"
        }
      ],
      "name": "RoleRevoked",
      "type": "event"
    },
    {
      "inputs": [],
      "name": "BLOCKS_PER_YEAR",
      "outputs": [
        {
          "internalType": "uint256",
          "name": "",
          "type": "uint256"
        }
      ],
      "stateMutability": "view",
      "type": "function"
    },
    {
      "inputs": [],
      "name": "DEFAULT_ADMIN_ROLE",
      "outputs": [
        {
          "internalType": "bytes32",
          "name": "",
          "type": "bytes32"
        }
      ],
      "stateMutability": "view",
      "type": "function"
    },
    {
      "inputs": [],
      "name": "GUARDIAN_ROLE",
      "outputs": [
        {
          "internalType": "bytes32",
          "name": "",
          "type": "bytes32"
        }
      ],
      "stateMutability": "view",
      "type": "function"
    },
    {
      "inputs": [],
      "name": "STRATEGY_ROLE",
      "outputs": [
        {
          "internalType": "bytes32",
          "name": "",
          "type": "bytes32"
        }
      ],
      "stateMutability": "view",
      "type": "function"
    },
    {
      "inputs": [],
      "name": "apr",
      "outputs": [
        {
          "internalType": "uint256",
          "name": "",
          "type": "uint256"
        }
      ],
      "stateMutability": "view",
      "type": "function"
    },
    {
      "inputs": [
        {
          "internalType": "uint256",
          "name": "amount",
          "type": "uint256"
        }
      ],
      "name": "aprAfterDeposit",
      "outputs": [
        {
          "internalType": "uint256",
          "name": "",
          "type": "uint256"
        }
      ],
      "stateMutability": "view",
      "type": "function"
    },
    {
      "inputs": [],
      "name": "cToken",
      "outputs": [
        {
          "internalType": "contract CEtherI",
          "name": "",
          "type": "address"
        }
      ],
      "stateMutability": "view",
      "type": "function"
    },
    {
      "inputs": [],
      "name": "comp",
      "outputs": [
        {
          "internalType": "address",
          "name": "",
          "type": "address"
        }
      ],
      "stateMutability": "view",
      "type": "function"
    },
    {
      "inputs": [],
      "name": "deposit",
      "outputs": [],
      "stateMutability": "nonpayable",
      "type": "function"
    },
    {
      "inputs": [
        {
          "internalType": "uint256",
          "name": "amount",
          "type": "uint256"
        }
      ],
      "name": "emergencyWithdraw",
      "outputs": [],
      "stateMutability": "nonpayable",
      "type": "function"
    },
    {
      "inputs": [
        {
          "internalType": "bytes32",
          "name": "role",
          "type": "bytes32"
        }
      ],
      "name": "getRoleAdmin",
      "outputs": [
        {
          "internalType": "bytes32",
          "name": "",
          "type": "bytes32"
        }
      ],
      "stateMutability": "view",
      "type": "function"
    },
    {
      "inputs": [
        {
          "internalType": "bytes32",
          "name": "role",
          "type": "bytes32"
        },
        {
          "internalType": "address",
          "name": "account",
          "type": "address"
        }
      ],
      "name": "grantRole",
      "outputs": [],
      "stateMutability": "nonpayable",
      "type": "function"
    },
    {
      "inputs": [],
      "name": "hasAssets",
      "outputs": [
        {
          "internalType": "bool",
          "name": "",
          "type": "bool"
        }
      ],
      "stateMutability": "view",
      "type": "function"
    },
    {
      "inputs": [
        {
          "internalType": "bytes32",
          "name": "role",
          "type": "bytes32"
        },
        {
          "internalType": "address",
          "name": "account",
          "type": "address"
        }
      ],
      "name": "hasRole",
      "outputs": [
        {
          "internalType": "bool",
          "name": "",
          "type": "bool"
        }
      ],
      "stateMutability": "view",
      "type": "function"
    },
    {
      "inputs": [],
      "name": "lenderName",
      "outputs": [
        {
          "internalType": "string",
          "name": "",
          "type": "string"
        }
      ],
      "stateMutability": "view",
      "type": "function"
    },
    {
      "inputs": [],
      "name": "minCompToSell",
      "outputs": [
        {
          "internalType": "uint256",
          "name": "",
          "type": "uint256"
        }
      ],
      "stateMutability": "view",
      "type": "function"
    },
    {
      "inputs": [],
      "name": "nav",
      "outputs": [
        {
          "internalType": "uint256",
          "name": "",
          "type": "uint256"
        }
      ],
      "stateMutability": "view",
      "type": "function"
    },
    {
      "inputs": [],
      "name": "path",
      "outputs": [
        {
          "internalType": "bytes",
          "name": "",
          "type": "bytes"
        }
      ],
      "stateMutability": "view",
      "type": "function"
    },
    {
      "inputs": [],
      "name": "poolManager",
      "outputs": [
        {
          "internalType": "contract IPoolManager",
          "name": "",
          "type": "address"
        }
      ],
      "stateMutability": "view",
      "type": "function"
    },
    {
      "inputs": [
        {
          "internalType": "bytes32",
          "name": "role",
          "type": "bytes32"
        },
        {
          "internalType": "address",
          "name": "account",
          "type": "address"
        }
      ],
      "name": "renounceRole",
      "outputs": [],
      "stateMutability": "nonpayable",
      "type": "function"
    },
    {
      "inputs": [
        {
          "internalType": "bytes32",
          "name": "role",
          "type": "bytes32"
        },
        {
          "internalType": "address",
          "name": "account",
          "type": "address"
        }
      ],
      "name": "revokeRole",
      "outputs": [],
      "stateMutability": "nonpayable",
      "type": "function"
    },
    {
      "inputs": [
        {
          "internalType": "bytes",
          "name": "_path",
          "type": "bytes"
        }
      ],
      "name": "setPath",
      "outputs": [],
      "stateMutability": "nonpayable",
      "type": "function"
    },
    {
      "inputs": [],
      "name": "strategy",
      "outputs": [
        {
          "internalType": "address",
          "name": "",
          "type": "address"
        }
      ],
      "stateMutability": "view",
      "type": "function"
    },
    {
      "inputs": [
        {
          "internalType": "address",
          "name": "_token",
          "type": "address"
        },
        {
          "internalType": "address",
          "name": "to",
          "type": "address"
        }
      ],
      "name": "sweep",
      "outputs": [],
      "stateMutability": "nonpayable",
      "type": "function"
    },
    {
      "inputs": [],
      "name": "underlyingBalanceStored",
      "outputs": [
        {
          "internalType": "uint256",
          "name": "balance",
          "type": "uint256"
        }
      ],
      "stateMutability": "view",
      "type": "function"
    },
    {
      "inputs": [],
      "name": "uniswapRouter",
      "outputs": [
        {
          "internalType": "address",
          "name": "",
          "type": "address"
        }
      ],
      "stateMutability": "view",
      "type": "function"
    },
    {
      "inputs": [],
      "name": "want",
      "outputs": [
        {
          "internalType": "contract IERC20",
          "name": "",
          "type": "address"
        }
      ],
      "stateMutability": "view",
      "type": "function"
    },
    {
      "inputs": [],
      "name": "weightedApr",
      "outputs": [
        {
          "internalType": "uint256",
          "name": "",
          "type": "uint256"
        }
      ],
      "stateMutability": "view",
      "type": "function"
    },
    {
      "inputs": [
        {
          "internalType": "uint256",
          "name": "amount",
          "type": "uint256"
        }
      ],
      "name": "withdraw",
      "outputs": [
        {
          "internalType": "uint256",
          "name": "",
          "type": "uint256"
        }
      ],
      "stateMutability": "nonpayable",
      "type": "function"
    },
    {
      "inputs": [],
      "name": "withdrawAll",
      "outputs": [
        {
          "internalType": "bool",
          "name": "",
          "type": "bool"
        }
      ],
      "stateMutability": "nonpayable",
      "type": "function"
    },
    {
      "stateMutability": "payable",
      "type": "receive"
    }
  ],
  "bytecode": "0x60806040526706f05b59d3b200006009553480156200001d57600080fd5b506040516200398d3803806200398d833981016040819052620000409162000a7f565b600380546001600160a01b0319166001600160a01b038a169081179091556040805163dc4c90d360e01b815290518a928a92869286929163dc4c90d3916004808301926020929190829003018186803b1580156200009d57600080fd5b505afa158015620000b2573d6000803e3d6000fd5b505050506040513d601f19601f82011682018060405250810190620000d8919062000a61565b600280546001600160a01b0319166001600160a01b0392909216918217905560408051637e062a3560e11b8152905163fc0c546a91600480820192602092909190829003018186803b1580156200012e57600080fd5b505afa15801562000143573d6000803e3d6000fd5b505050506040513d601f19601f8201168201806040525081019062000169919062000a61565b600480546001600160a01b0319166001600160a01b039290921691909117905582516200019e90600190602086019062000893565b50600254620001c7906000805160206200396d833981519152906001600160a01b0316620003c6565b60005b82518110156200022657620002116000805160206200396d833981519152848381518110620001fd57620001fd62000ccd565b6020026020010151620003c660201b60201c565b806200021d8162000ca3565b915050620001ca565b50620002426000805160206200396d83398151915282620003c6565b6200025d6000805160206200394d83398151915285620003c6565b620002876000805160206200396d8339815191526000805160206200394d833981519152620003d6565b620002b16000805160206200394d8339815191526000805160206200396d833981519152620003d6565b600454620002d8906001600160a01b0316856000196200042a602090811b6200116617901c565b505050506001600160a01b03851615801590620002fd57506001600160a01b03881615155b620003335760405162461bcd60e51b81526020600482015260016024820152600360fc1b60448201526064015b60405180910390fd5b600580546001600160a01b038089166001600160a01b031992831617909255600680549288169290911691909117905583516200037890600890602087019062000893565b50600780546001600160a01b0319166001600160a01b0385811691909117909155600654620003b89116876000196200042a602090811b6200116617901c565b505050505050505062000cf9565b620003d2828262000589565b5050565b600082815260208190526040902060010154819060405184907fbd79b86ffe0ab8e8776151514217cd7cacd52c909f66475c3af44e129f0b00ff90600090a460009182526020829052604090912060010155565b801580620004b85750604051636eb1769f60e11b81523060048201526001600160a01b03838116602483015284169063dd62ed3e9060440160206040518083038186803b1580156200047b57600080fd5b505afa15801562000490573d6000803e3d6000fd5b505050506040513d601f19601f82011682018060405250810190620004b6919062000b93565b155b6200052c5760405162461bcd60e51b815260206004820152603660248201527f5361666545524332303a20617070726f76652066726f6d206e6f6e2d7a65726f60448201527f20746f206e6f6e2d7a65726f20616c6c6f77616e63650000000000000000000060648201526084016200032a565b604080516001600160a01b038416602482015260448082018490528251808303909101815260649091019091526020810180516001600160e01b0390811663095ea7b360e01b17909152620005849185916200062916565b505050565b6000828152602081815260408083206001600160a01b038516845290915290205460ff16620003d2576000828152602081815260408083206001600160a01b03851684529091529020805460ff19166001179055620005e53390565b6001600160a01b0316816001600160a01b0316837f2f8788117e7eff1d82e926ec794901d17c78024a50270940304540a733656f0d60405160405180910390a45050565b600062000685826040518060400160405280602081526020017f5361666545524332303a206c6f772d6c6576656c2063616c6c206661696c6564815250856001600160a01b03166200070760201b62001375179092919060201c565b805190915015620005845780806020019051810190620006a6919062000b6f565b620005845760405162461bcd60e51b815260206004820152602a60248201527f5361666545524332303a204552433230206f7065726174696f6e20646964206e6044820152691bdd081cdd58d8d9595960b21b60648201526084016200032a565b606062000718848460008562000722565b90505b9392505050565b606082471015620007855760405162461bcd60e51b815260206004820152602660248201527f416464726573733a20696e73756666696369656e742062616c616e636520666f6044820152651c8818d85b1b60d21b60648201526084016200032a565b843b620007d55760405162461bcd60e51b815260206004820152601d60248201527f416464726573733a2063616c6c20746f206e6f6e2d636f6e747261637400000060448201526064016200032a565b600080866001600160a01b03168587604051620007f3919062000bad565b60006040518083038185875af1925050503d806000811462000832576040519150601f19603f3d011682016040523d82523d6000602084013e62000837565b606091505b5090925090506200084a82828662000855565b979650505050505050565b60608315620008665750816200071b565b825115620008775782518084602001fd5b8160405162461bcd60e51b81526004016200032a919062000bcb565b828054620008a19062000c66565b90600052602060002090601f016020900481019282620008c5576000855562000910565b82601f10620008e057805160ff191683800117855562000910565b8280016001018555821562000910579182015b8281111562000910578251825591602001919060010190620008f3565b506200091e92915062000922565b5090565b5b808211156200091e576000815560010162000923565b80516001600160a01b03811681146200095157600080fd5b919050565b600082601f8301126200096857600080fd5b815160206001600160401b0382111562000986576200098662000ce3565b8160051b6200099782820162000c00565b838152828101908684018388018501891015620009b357600080fd5b600093505b85841015620009e157620009cc8162000939565b835260019390930192918401918401620009b8565b50979650505050505050565b600082601f830112620009ff57600080fd5b81516001600160401b0381111562000a1b5762000a1b62000ce3565b62000a30601f8201601f191660200162000c00565b81815284602083860101111562000a4657600080fd5b62000a5982602083016020870162000c33565b949350505050565b60006020828403121562000a7457600080fd5b6200071b8262000939565b600080600080600080600080610100898b03121562000a9d57600080fd5b62000aa88962000939565b60208a01519098506001600160401b038082111562000ac657600080fd5b62000ad48c838d01620009ed565b985062000ae460408c0162000939565b975062000af460608c0162000939565b965060808b015191508082111562000b0b57600080fd5b62000b198c838d01620009ed565b955062000b2960a08c0162000939565b945060c08b015191508082111562000b4057600080fd5b5062000b4f8b828c0162000956565b92505062000b6060e08a0162000939565b90509295985092959890939650565b60006020828403121562000b8257600080fd5b815180151581146200071b57600080fd5b60006020828403121562000ba657600080fd5b5051919050565b6000825162000bc181846020870162000c33565b9190910192915050565b602081526000825180602084015262000bec81604085016020870162000c33565b601f01601f19169190910160400192915050565b604051601f8201601f191681016001600160401b038111828210171562000c2b5762000c2b62000ce3565b604052919050565b60005b8381101562000c5057818101518382015260200162000c36565b8381111562000c60576000848401525b50505050565b600181811c9082168062000c7b57607f821691505b6020821081141562000c9d57634e487b7160e01b600052602260045260246000fd5b50919050565b600060001982141562000cc657634e487b7160e01b600052601160045260246000fd5b5060010190565b634e487b7160e01b600052603260045260246000fd5b634e487b7160e01b600052604160045260246000fd5b612c448062000d096000396000f3fe6080604052600436106101d15760003560e01c806369e527da116100f7578063b8dc491b11610095578063d37db1d211610064578063d37db1d2146105a6578063d547741f146105bd578063dc4c90d3146105dd578063f381e07d1461060a57600080fd5b8063b8dc491b14610547578063c1590cd714610567578063c6afba3c1461057c578063d0e30db01461059157600080fd5b80638b202176116100d15780638b2021761461049f57806391d14854146104b4578063a217fddf14610505578063a8c62e761461051a57600080fd5b806369e527da14610430578063735de9f71461045d578063853828b61461048a57600080fd5b80632e1a7d4d1161016f5780635312ea8e1161013e5780635312ea8e146103a257806357ded9c9146103c2578063580b7c2e146103d75780635be9b2d31461040b57600080fd5b80632e1a7d4d1461031e5780632f2ff15d1461033e57806336568abe146103605780633dc063561461038057600080fd5b8063149a4ae4116101ab578063149a4ae41461026d5780631f1fcd511461028d578063248a9ca3146102ba57806324ea54f4146102ea57600080fd5b806304324af8146101dd578063109d0af814610206578063116ac4a31461025857600080fd5b366101d857005b600080fd5b3480156101e957600080fd5b506101f360095481565b6040519081526020015b60405180910390f35b34801561021257600080fd5b506006546102339073ffffffffffffffffffffffffffffffffffffffff1681565b60405173ffffffffffffffffffffffffffffffffffffffff90911681526020016101fd565b34801561026457600080fd5b506101f361062a565b34801561027957600080fd5b506101f361028836600461276e565b61064f565b34801561029957600080fd5b506004546102339073ffffffffffffffffffffffffffffffffffffffff1681565b3480156102c657600080fd5b506101f36102d536600461276e565b60009081526020819052604090206001015490565b3480156102f657600080fd5b506101f37f55435dd261a4b9b3364963f7738a7a662ad9c84396d64be3365284bb7f0a504181565b34801561032a57600080fd5b506101f361033936600461276e565b61065f565b34801561034a57600080fd5b5061035e610359366004612787565b61069e565b005b34801561036c57600080fd5b5061035e61037b366004612787565b6106c9565b34801561038c57600080fd5b5061039561075b565b6040516101fd9190612979565b3480156103ae57600080fd5b5061035e6103bd36600461276e565b6107e9565b3480156103ce57600080fd5b506101f3610a0d565b3480156103e357600080fd5b506101f37f928286c473ded01ff8bf61a1986f14a0579066072fa8261442d9fea514d93a4c81565b34801561041757600080fd5b50610420610a1c565b60405190151581526020016101fd565b34801561043c57600080fd5b506007546102339073ffffffffffffffffffffffffffffffffffffffff1681565b34801561046957600080fd5b506005546102339073ffffffffffffffffffffffffffffffffffffffff1681565b34801561049657600080fd5b50610420610b76565b3480156104ab57600080fd5b50610395610bc7565b3480156104c057600080fd5b506104206104cf366004612787565b60009182526020828152604080842073ffffffffffffffffffffffffffffffffffffffff93909316845291905290205460ff1690565b34801561051157600080fd5b506101f3600081565b34801561052657600080fd5b506003546102339073ffffffffffffffffffffffffffffffffffffffff1681565b34801561055357600080fd5b5061035e610562366004612719565b610bd4565b34801561057357600080fd5b506101f3610da0565b34801561058857600080fd5b506101f3610daa565b34801561059d57600080fd5b5061035e610f1d565b3480156105b257600080fd5b506101f36223186081565b3480156105c957600080fd5b5061035e6105d8366004612787565b611102565b3480156105e957600080fd5b506002546102339073ffffffffffffffffffffffffffffffffffffffff1681565b34801561061657600080fd5b5061035e6106253660046127aa565b611128565b60008061063561138e565b905061063f61143e565b6106499082612a45565b91505090565b600061065961138e565b92915050565b60007f928286c473ded01ff8bf61a1986f14a0579066072fa8261442d9fea514d93a4c61068c81336114f4565b610695836115c4565b91505b50919050565b6000828152602081905260409020600101546106ba81336114f4565b6106c48383611c3c565b505050565b73ffffffffffffffffffffffffffffffffffffffff8116331461074d576040517f08c379a000000000000000000000000000000000000000000000000000000000815260206004820152600260248201527f373100000000000000000000000000000000000000000000000000000000000060448201526064015b60405180910390fd5b6107578282611d2c565b5050565b6008805461076890612afa565b80601f016020809104026020016040519081016040528092919081815260200182805461079490612afa565b80156107e15780601f106107b6576101008083540402835291602001916107e1565b820191906000526020600020905b8154815290600101906020018083116107c457829003601f168201915b505050505081565b7f55435dd261a4b9b3364963f7738a7a662ad9c84396d64be3365284bb7f0a504161081481336114f4565b6007546040517f852a12e30000000000000000000000000000000000000000000000000000000081526004810184905273ffffffffffffffffffffffffffffffffffffffff9091169063852a12e390602401602060405180830381600087803b15801561088057600080fd5b505af1158015610894573d6000803e3d6000fd5b505050506040513d601f19601f820116820180604052508101906108b89190612879565b50600480546040517f2e1a7d4d000000000000000000000000000000000000000000000000000000008152479281019290925273ffffffffffffffffffffffffffffffffffffffff1690632e1a7d4d90602401600060405180830381600087803b15801561092557600080fd5b505af1158015610939573d6000803e3d6000fd5b5050600254600480546040517f70a082310000000000000000000000000000000000000000000000000000000081523092810192909252610757945073ffffffffffffffffffffffffffffffffffffffff928316935091909116906370a082319060240160206040518083038186803b1580156109b557600080fd5b505afa1580156109c9573d6000803e3d6000fd5b505050506040513d601f19601f820116820180604052508101906109ed9190612879565b60045473ffffffffffffffffffffffffffffffffffffffff169190611de3565b6000610a1761138e565b905090565b6007546040517f70a08231000000000000000000000000000000000000000000000000000000008152306004820152600091829173ffffffffffffffffffffffffffffffffffffffff909116906370a082319060240160206040518083038186803b158015610a8a57600080fd5b505afa158015610a9e573d6000803e3d6000fd5b505050506040513d601f19601f82011682018060405250810190610ac29190612879565b1180610a175750600480546040517f70a08231000000000000000000000000000000000000000000000000000000008152309281019290925260009173ffffffffffffffffffffffffffffffffffffffff909116906370a082319060240160206040518083038186803b158015610b3857600080fd5b505afa158015610b4c573d6000803e3d6000fd5b505050506040513d601f19601f82011682018060405250810190610b709190612879565b11905090565b60007f928286c473ded01ff8bf61a1986f14a0579066072fa8261442d9fea514d93a4c610ba381336114f4565b6000610bad61143e565b90506000610bba826115c4565b91909110159250505b5090565b6001805461076890612afa565b7f55435dd261a4b9b3364963f7738a7a662ad9c84396d64be3365284bb7f0a5041610bff81336114f4565b6000610c09611e39565b905060005b8151811015610cd857818181518110610c2957610c29612bb0565b602002602001015173ffffffffffffffffffffffffffffffffffffffff168573ffffffffffffffffffffffffffffffffffffffff161415610cc6576040517f08c379a000000000000000000000000000000000000000000000000000000000815260206004820152600260248201527f39330000000000000000000000000000000000000000000000000000000000006044820152606401610744565b80610cd081612b48565b915050610c0e565b506040517f70a08231000000000000000000000000000000000000000000000000000000008152306004820152610d9a90849073ffffffffffffffffffffffffffffffffffffffff8716906370a082319060240160206040518083038186803b158015610d4457600080fd5b505afa158015610d58573d6000803e3d6000fd5b505050506040513d601f19601f82011682018060405250810190610d7c9190612879565b73ffffffffffffffffffffffffffffffffffffffff87169190611de3565b50505050565b6000610a1761143e565b6007546040517f70a08231000000000000000000000000000000000000000000000000000000008152306004820152600091829173ffffffffffffffffffffffffffffffffffffffff909116906370a082319060240160206040518083038186803b158015610e1857600080fd5b505afa158015610e2c573d6000803e3d6000fd5b505050506040513d601f19601f82011682018060405250810190610e509190612879565b905080610e5f57600091505090565b600754604080517f182df0f50000000000000000000000000000000000000000000000000000000081529051670de0b6b3a76400009273ffffffffffffffffffffffffffffffffffffffff169163182df0f5916004808301926020929190829003018186803b158015610ed157600080fd5b505afa158015610ee5573d6000803e3d6000fd5b505050506040513d601f19601f82011682018060405250810190610f099190612879565b610f139083612a45565b6106499190612a0a565b7f928286c473ded01ff8bf61a1986f14a0579066072fa8261442d9fea514d93a4c610f4881336114f4565b600480546040517f70a08231000000000000000000000000000000000000000000000000000000008152309281019290925260009173ffffffffffffffffffffffffffffffffffffffff909116906370a082319060240160206040518083038186803b158015610fb757600080fd5b505afa158015610fcb573d6000803e3d6000fd5b505050506040513d601f19601f82011682018060405250810190610fef9190612879565b600480546040517f2e1a7d4d00000000000000000000000000000000000000000000000000000000815292935073ffffffffffffffffffffffffffffffffffffffff1691632e1a7d4d916110499185910190815260200190565b600060405180830381600087803b15801561106357600080fd5b505af1158015611077573d6000803e3d6000fd5b50505050600760009054906101000a900473ffffffffffffffffffffffffffffffffffffffff1673ffffffffffffffffffffffffffffffffffffffff16631249c58b826040518263ffffffff1660e01b81526004016000604051808303818588803b1580156110e557600080fd5b505af11580156110f9573d6000803e3d6000fd5b50505050505050565b60008281526020819052604090206001015461111e81336114f4565b6106c48383611d2c565b7f55435dd261a4b9b3364963f7738a7a662ad9c84396d64be3365284bb7f0a504161115381336114f4565b81516106c4906008906020850190612660565b80158061121557506040517fdd62ed3e00000000000000000000000000000000000000000000000000000000815230600482015273ffffffffffffffffffffffffffffffffffffffff838116602483015284169063dd62ed3e9060440160206040518083038186803b1580156111db57600080fd5b505afa1580156111ef573d6000803e3d6000fd5b505050506040513d601f19601f820116820180604052508101906112139190612879565b155b6112a1576040517f08c379a000000000000000000000000000000000000000000000000000000000815260206004820152603660248201527f5361666545524332303a20617070726f76652066726f6d206e6f6e2d7a65726f60448201527f20746f206e6f6e2d7a65726f20616c6c6f77616e6365000000000000000000006064820152608401610744565b60405173ffffffffffffffffffffffffffffffffffffffff83166024820152604481018290526106c49084907f095ea7b300000000000000000000000000000000000000000000000000000000906064015b604080517fffffffffffffffffffffffffffffffffffffffffffffffffffffffffffffffe08184030181529190526020810180517bffffffffffffffffffffffffffffffffffffffffffffffffffffffff167fffffffff0000000000000000000000000000000000000000000000000000000090931692909217909152611f32565b6060611384848460008561203e565b90505b9392505050565b600062231860600760009054906101000a900473ffffffffffffffffffffffffffffffffffffffff1673ffffffffffffffffffffffffffffffffffffffff1663ae9d70b06040518163ffffffff1660e01b815260040160206040518083038186803b1580156113fc57600080fd5b505afa158015611410573d6000803e3d6000fd5b505050506040513d601f19601f820116820180604052508101906114349190612879565b610a179190612a45565b6000611448610daa565b600480546040517f70a08231000000000000000000000000000000000000000000000000000000008152309281019290925273ffffffffffffffffffffffffffffffffffffffff16906370a082319060240160206040518083038186803b1580156114b257600080fd5b505afa1580156114c6573d6000803e3d6000fd5b505050506040513d601f19601f820116820180604052508101906114ea9190612879565b610a1791906129f2565b60008281526020818152604080832073ffffffffffffffffffffffffffffffffffffffff8516845290915290205460ff166107575761154a8173ffffffffffffffffffffffffffffffffffffffff1660146121be565b6115558360206121be565b6040516020016115669291906128f8565b604080517fffffffffffffffffffffffffffffffffffffffffffffffffffffffffffffffe0818403018152908290527f08c379a000000000000000000000000000000000000000000000000000000000825261074491600401612979565b6007546040517f3af9e669000000000000000000000000000000000000000000000000000000008152306004820152600091829173ffffffffffffffffffffffffffffffffffffffff90911690633af9e66990602401602060405180830381600087803b15801561163457600080fd5b505af1158015611648573d6000803e3d6000fd5b505050506040513d601f19601f8201168201806040525081019061166c9190612879565b600480546040517f70a08231000000000000000000000000000000000000000000000000000000008152309281019290925291925060009173ffffffffffffffffffffffffffffffffffffffff16906370a082319060240160206040518083038186803b1580156116dc57600080fd5b505afa1580156116f0573d6000803e3d6000fd5b505050506040513d601f19601f820116820180604052508101906117149190612879565b9050600061172282846129f2565b905080851115611730578094505b84821061176a576003546004546117619173ffffffffffffffffffffffffffffffffffffffff918216911687611de3565b50929392505050565b600480546007546040517f70a0823100000000000000000000000000000000000000000000000000000000815273ffffffffffffffffffffffffffffffffffffffff918216938101939093526000929116906370a082319060240160206040518083038186803b1580156117dd57600080fd5b505afa1580156117f1573d6000803e3d6000fd5b505050506040513d601f19601f820116820180604052508101906118159190612879565b90506001811115611b5b57600061182c8488612a82565b90508181116119c9576007546040517f852a12e30000000000000000000000000000000000000000000000000000000081526004810183905273ffffffffffffffffffffffffffffffffffffffff9091169063852a12e390602401602060405180830381600087803b1580156118a157600080fd5b505af11580156118b5573d6000803e3d6000fd5b505050506040513d601f19601f820116820180604052508101906118d99190612879565b15611940576040517f08c379a000000000000000000000000000000000000000000000000000000000815260206004820152601560248201527f72656465656d556e6465726c79696e67206661696c00000000000000000000006044820152606401610744565b60048054604080517fd0e30db0000000000000000000000000000000000000000000000000000000008152905173ffffffffffffffffffffffffffffffffffffffff9092169263d0e30db0924792808301926000929182900301818588803b1580156119ab57600080fd5b505af11580156119bf573d6000803e3d6000fd5b5050505050611b59565b6007546040517f852a12e30000000000000000000000000000000000000000000000000000000081526004810184905273ffffffffffffffffffffffffffffffffffffffff9091169063852a12e390602401602060405180830381600087803b158015611a3557600080fd5b505af1158015611a49573d6000803e3d6000fd5b505050506040513d601f19601f82011682018060405250810190611a6d9190612879565b15611ad4576040517f08c379a000000000000000000000000000000000000000000000000000000000815260206004820152601560248201527f72656465656d556e6465726c79696e67206661696c00000000000000000000006044820152606401610744565b60048054604080517fd0e30db0000000000000000000000000000000000000000000000000000000008152905173ffffffffffffffffffffffffffffffffffffffff9092169263d0e30db0924792808301926000929182900301818588803b158015611b3f57600080fd5b505af1158015611b53573d6000803e3d6000fd5b50505050505b505b611b63612401565b600480546040517f70a08231000000000000000000000000000000000000000000000000000000008152309281019290925273ffffffffffffffffffffffffffffffffffffffff16906370a082319060240160206040518083038186803b158015611bcd57600080fd5b505afa158015611be1573d6000803e3d6000fd5b505050506040513d601f19601f82011682018060405250810190611c059190612879565b600354600454919450611c329173ffffffffffffffffffffffffffffffffffffffff908116911685611de3565b5090949350505050565b60008281526020818152604080832073ffffffffffffffffffffffffffffffffffffffff8516845290915290205460ff166107575760008281526020818152604080832073ffffffffffffffffffffffffffffffffffffffff85168452909152902080547fffffffffffffffffffffffffffffffffffffffffffffffffffffffffffffff00166001179055611cce3390565b73ffffffffffffffffffffffffffffffffffffffff168173ffffffffffffffffffffffffffffffffffffffff16837f2f8788117e7eff1d82e926ec794901d17c78024a50270940304540a733656f0d60405160405180910390a45050565b60008281526020818152604080832073ffffffffffffffffffffffffffffffffffffffff8516845290915290205460ff16156107575760008281526020818152604080832073ffffffffffffffffffffffffffffffffffffffff8516808552925280832080547fffffffffffffffffffffffffffffffffffffffffffffffffffffffffffffff0016905551339285917ff6391f5c32d9c69d2a47ea670b442974b53935d1edc7fd64eb21e047a839171b9190a45050565b60405173ffffffffffffffffffffffffffffffffffffffff83166024820152604481018290526106c49084907fa9059cbb00000000000000000000000000000000000000000000000000000000906064016112f3565b60408051600380825260808201909252606091600091906020820184803683375050600454825192935073ffffffffffffffffffffffffffffffffffffffff1691839150600090611e8c57611e8c612bb0565b73ffffffffffffffffffffffffffffffffffffffff9283166020918202929092010152600754825191169082906001908110611eca57611eca612bb0565b73ffffffffffffffffffffffffffffffffffffffff9283166020918202929092010152600654825191169082906002908110611f0857611f08612bb0565b73ffffffffffffffffffffffffffffffffffffffff90921660209283029190910190910152919050565b6000611f94826040518060400160405280602081526020017f5361666545524332303a206c6f772d6c6576656c2063616c6c206661696c65648152508573ffffffffffffffffffffffffffffffffffffffff166113759092919063ffffffff16565b8051909150156106c45780806020019051810190611fb2919061274c565b6106c4576040517f08c379a000000000000000000000000000000000000000000000000000000000815260206004820152602a60248201527f5361666545524332303a204552433230206f7065726174696f6e20646964206e60448201527f6f742073756363656564000000000000000000000000000000000000000000006064820152608401610744565b6060824710156120d0576040517f08c379a000000000000000000000000000000000000000000000000000000000815260206004820152602660248201527f416464726573733a20696e73756666696369656e742062616c616e636520666f60448201527f722063616c6c00000000000000000000000000000000000000000000000000006064820152608401610744565b843b612138576040517f08c379a000000000000000000000000000000000000000000000000000000000815260206004820152601d60248201527f416464726573733a2063616c6c20746f206e6f6e2d636f6e74726163740000006044820152606401610744565b6000808673ffffffffffffffffffffffffffffffffffffffff16858760405161216191906128dc565b60006040518083038185875af1925050503d806000811461219e576040519150601f19603f3d011682016040523d82523d6000602084013e6121a3565b606091505b50915091506121b382828661260d565b979650505050505050565b606060006121cd836002612a45565b6121d89060026129f2565b67ffffffffffffffff8111156121f0576121f0612bdf565b6040519080825280601f01601f19166020018201604052801561221a576020820181803683370190505b5090507f30000000000000000000000000000000000000000000000000000000000000008160008151811061225157612251612bb0565b60200101907effffffffffffffffffffffffffffffffffffffffffffffffffffffffffffff1916908160001a9053507f7800000000000000000000000000000000000000000000000000000000000000816001815181106122b4576122b4612bb0565b60200101907effffffffffffffffffffffffffffffffffffffffffffffffffffffffffffff1916908160001a90535060006122f0846002612a45565b6122fb9060016129f2565b90505b6001811115612398577f303132333435363738396162636465660000000000000000000000000000000085600f166010811061233c5761233c612bb0565b1a60f81b82828151811061235257612352612bb0565b60200101907effffffffffffffffffffffffffffffffffffffffffffffffffffffffffffff1916908160001a90535060049490941c9361239181612ac5565b90506122fe565b508315611387576040517f08c379a000000000000000000000000000000000000000000000000000000000815260206004820181905260248201527f537472696e67733a20686578206c656e67746820696e73756666696369656e746044820152606401610744565b6006546040517f70a0823100000000000000000000000000000000000000000000000000000000815230600482015260009173ffffffffffffffffffffffffffffffffffffffff16906370a082319060240160206040518083038186803b15801561246b57600080fd5b505afa15801561247f573d6000803e3d6000fd5b505050506040513d601f19601f820116820180604052508101906124a39190612879565b905060095481111561260a576005546040805160a081019091526008805473ffffffffffffffffffffffffffffffffffffffff9093169263c04b8d59929182916124ec90612afa565b80601f016020809104026020016040519081016040528092919081815260200182805461251890612afa565b80156125655780601f1061253a57610100808354040283529160200191612565565b820191906000526020600020905b81548152906001019060200180831161254857829003601f168201915b505050505081526020013073ffffffffffffffffffffffffffffffffffffffff16815260200142815260200184815260200160008152506040518263ffffffff1660e01b81526004016125b8919061298c565b602060405180830381600087803b1580156125d257600080fd5b505af11580156125e6573d6000803e3d6000fd5b505050506040513d601f19601f820116820180604052508101906107579190612879565b50565b6060831561261c575081611387565b82511561262c5782518084602001fd5b816040517f08c379a00000000000000000000000000000000000000000000000000000000081526004016107449190612979565b82805461266c90612afa565b90600052602060002090601f01602090048101928261268e57600085556126d4565b82601f106126a757805160ff19168380011785556126d4565b828001600101855582156126d4579182015b828111156126d45782518255916020019190600101906126b9565b50610bc39291505b80821115610bc357600081556001016126dc565b803573ffffffffffffffffffffffffffffffffffffffff8116811461271457600080fd5b919050565b6000806040838503121561272c57600080fd5b612735836126f0565b9150612743602084016126f0565b90509250929050565b60006020828403121561275e57600080fd5b8151801515811461138757600080fd5b60006020828403121561278057600080fd5b5035919050565b6000806040838503121561279a57600080fd5b82359150612743602084016126f0565b6000602082840312156127bc57600080fd5b813567ffffffffffffffff808211156127d457600080fd5b818401915084601f8301126127e857600080fd5b8135818111156127fa576127fa612bdf565b604051601f82017fffffffffffffffffffffffffffffffffffffffffffffffffffffffffffffffe0908116603f0116810190838211818310171561284057612840612bdf565b8160405282815287602084870101111561285957600080fd5b826020860160208301376000928101602001929092525095945050505050565b60006020828403121561288b57600080fd5b5051919050565b600081518084526128aa816020860160208601612a99565b601f017fffffffffffffffffffffffffffffffffffffffffffffffffffffffffffffffe0169290920160200192915050565b600082516128ee818460208701612a99565b9190910192915050565b7f416363657373436f6e74726f6c3a206163636f756e7420000000000000000000815260008351612930816017850160208801612a99565b7f206973206d697373696e6720726f6c6520000000000000000000000000000000601791840191820152835161296d816028840160208801612a99565b01602801949350505050565b6020815260006113876020830184612892565b602081526000825160a060208401526129a860c0840182612892565b905073ffffffffffffffffffffffffffffffffffffffff60208501511660408401526040840151606084015260608401516080840152608084015160a08401528091505092915050565b60008219821115612a0557612a05612b81565b500190565b600082612a40577f4e487b7100000000000000000000000000000000000000000000000000000000600052601260045260246000fd5b500490565b6000817fffffffffffffffffffffffffffffffffffffffffffffffffffffffffffffffff0483118215151615612a7d57612a7d612b81565b500290565b600082821015612a9457612a94612b81565b500390565b60005b83811015612ab4578181015183820152602001612a9c565b83811115610d9a5750506000910152565b600081612ad457612ad4612b81565b507fffffffffffffffffffffffffffffffffffffffffffffffffffffffffffffffff0190565b600181811c90821680612b0e57607f821691505b60208210811415610698577f4e487b7100000000000000000000000000000000000000000000000000000000600052602260045260246000fd5b60007fffffffffffffffffffffffffffffffffffffffffffffffffffffffffffffffff821415612b7a57612b7a612b81565b5060010190565b7f4e487b7100000000000000000000000000000000000000000000000000000000600052601160045260246000fd5b7f4e487b7100000000000000000000000000000000000000000000000000000000600052603260045260246000fd5b7f4e487b7100000000000000000000000000000000000000000000000000000000600052604160045260246000fdfea264697066735822122061868ab85065fc48e21db58764dd49d17b762b88ed6f31c6572b98419e96b68064736f6c63430008070033928286c473ded01ff8bf61a1986f14a0579066072fa8261442d9fea514d93a4c55435dd261a4b9b3364963f7738a7a662ad9c84396d64be3365284bb7f0a5041",
  "linkReferences": {},
  "deployedLinkReferences": {}
}