{
  "_format": "hh-sol-artifact-1",
  "contractName": "CollateralSettlerVeANGLE",
  "sourceName": "contracts/collateralSettler/CollateralSettlerVeANGLE.sol",
  "abi": [
    {
      "inputs": [
        {
          "internalType": "contract IPoolManager",
          "name": "_poolManager",
          "type": "address"
        },
        {
          "internalType": "contract IVeANGLE",
          "name": "_veANGLE",
          "type": "address"
        },
        {
          "internalType": "uint256",
          "name": "_claimTime",
          "type": "uint256"
        },
        {
          "internalType": "address[]",
          "name": "governorList",
          "type": "address[]"
        }
      ],
      "stateMutability": "nonpayable",
      "type": "constructor"
    },
    {
      "anonymous": false,
      "inputs": [
        {
          "indexed": false,
          "internalType": "uint256",
          "name": "amountRedistribute",
          "type": "uint256"
        }
      ],
      "name": "AmountRedistributeUpdated",
      "type": "event"
    },
    {
      "anonymous": false,
      "inputs": [
        {
          "indexed": false,
          "internalType": "uint256",
          "name": "baseAmountToUserGov",
          "type": "uint256"
        },
        {
          "indexed": false,
          "internalType": "uint256",
          "name": "baseAmountToUser",
          "type": "uint256"
        },
        {
          "indexed": false,
          "internalType": "uint256",
          "name": "baseAmountToLpGov",
          "type": "uint256"
        },
        {
          "indexed": false,
          "internalType": "uint256",
          "name": "baseAmountToLp",
          "type": "uint256"
        },
        {
          "indexed": false,
          "internalType": "uint256",
          "name": "amountToRedistribute",
          "type": "uint256"
        }
      ],
      "name": "AmountToRedistributeAnnouncement",
      "type": "event"
    },
    {
      "anonymous": false,
      "inputs": [
        {
          "indexed": true,
          "internalType": "address",
          "name": "_poolManager",
          "type": "address"
        },
        {
          "indexed": true,
          "internalType": "address",
          "name": "_veANGLE",
          "type": "address"
        },
        {
          "indexed": false,
          "internalType": "uint256",
          "name": "claimTime",
          "type": "uint256"
        }
      ],
      "name": "CollateralSettlerInit",
      "type": "event"
    },
    {
      "anonymous": false,
      "inputs": [
        {
          "indexed": false,
          "internalType": "address",
          "name": "account",
          "type": "address"
        }
      ],
      "name": "Paused",
      "type": "event"
    },
    {
      "anonymous": false,
      "inputs": [
        {
          "indexed": false,
          "internalType": "uint64",
          "name": "proportionalRatioGovUser",
          "type": "uint64"
        },
        {
          "indexed": false,
          "internalType": "uint64",
          "name": "proportionalRatioGovLP",
          "type": "uint64"
        }
      ],
      "name": "ProportionalRatioGovUpdated",
      "type": "event"
    },
    {
      "anonymous": false,
      "inputs": [
        {
          "indexed": true,
          "internalType": "address",
          "name": "tokenAddress",
          "type": "address"
        },
        {
          "indexed": true,
          "internalType": "address",
          "name": "to",
          "type": "address"
        },
        {
          "indexed": false,
          "internalType": "uint256",
          "name": "amount",
          "type": "uint256"
        }
      ],
      "name": "Recovered",
      "type": "event"
    },
    {
      "anonymous": false,
      "inputs": [
        {
          "indexed": true,
          "internalType": "bytes32",
          "name": "role",
          "type": "bytes32"
        },
        {
          "indexed": true,
          "internalType": "bytes32",
          "name": "previousAdminRole",
          "type": "bytes32"
        },
        {
          "indexed": true,
          "internalType": "bytes32",
          "name": "newAdminRole",
          "type": "bytes32"
        }
      ],
      "name": "RoleAdminChanged",
      "type": "event"
    },
    {
      "anonymous": false,
      "inputs": [
        {
          "indexed": true,
          "internalType": "bytes32",
          "name": "role",
          "type": "bytes32"
        },
        {
          "indexed": true,
          "internalType": "address",
          "name": "account",
          "type": "address"
        },
        {
          "indexed": true,
          "internalType": "address",
          "name": "sender",
          "type": "address"
        }
      ],
      "name": "RoleGranted",
      "type": "event"
    },
    {
      "anonymous": false,
      "inputs": [
        {
          "indexed": true,
          "internalType": "bytes32",
          "name": "role",
          "type": "bytes32"
        },
        {
          "indexed": true,
          "internalType": "address",
          "name": "account",
          "type": "address"
        },
        {
          "indexed": true,
          "internalType": "address",
          "name": "sender",
          "type": "address"
        }
      ],
      "name": "RoleRevoked",
      "type": "event"
    },
    {
      "anonymous": false,
      "inputs": [
        {
          "indexed": false,
          "internalType": "uint256",
          "name": "_amountToRedistribute",
          "type": "uint256"
        }
      ],
      "name": "SettlementTriggered",
      "type": "event"
    },
    {
      "anonymous": false,
      "inputs": [
        {
          "indexed": false,
          "internalType": "uint256",
          "name": "newLpClaim",
          "type": "uint256"
        }
      ],
      "name": "TotalSupplyLpUpdated",
      "type": "event"
    },
    {
      "anonymous": false,
      "inputs": [
        {
          "indexed": false,
          "internalType": "uint256",
          "name": "newLpClaim",
          "type": "uint256"
        }
      ],
      "name": "TotalSupplyLpVeANGLEUpdated",
      "type": "event"
    },
    {
      "anonymous": false,
      "inputs": [
        {
          "indexed": false,
          "internalType": "uint256",
          "name": "newUserClaim",
          "type": "uint256"
        }
      ],
      "name": "TotalSupplyUserClaimsUpdated",
      "type": "event"
    },
    {
      "anonymous": false,
      "inputs": [
        {
          "indexed": false,
          "internalType": "uint256",
          "name": "newUserClaim",
          "type": "uint256"
        }
      ],
      "name": "TotalSupplyUserClaimsVeANGLEUpdated",
      "type": "event"
    },
    {
      "anonymous": false,
      "inputs": [
        {
          "indexed": false,
          "internalType": "address",
          "name": "account",
          "type": "address"
        }
      ],
      "name": "Unpaused",
      "type": "event"
    },
    {
      "inputs": [],
      "name": "BASE_PARAMS",
      "outputs": [
        {
          "internalType": "uint256",
          "name": "",
          "type": "uint256"
        }
      ],
      "stateMutability": "view",
      "type": "function"
    },
    {
      "inputs": [],
      "name": "BASE_TOKENS",
      "outputs": [
        {
          "internalType": "uint256",
          "name": "",
          "type": "uint256"
        }
      ],
      "stateMutability": "view",
      "type": "function"
    },
    {
      "inputs": [],
      "name": "DEFAULT_ADMIN_ROLE",
      "outputs": [
        {
          "internalType": "bytes32",
          "name": "",
          "type": "bytes32"
        }
      ],
      "stateMutability": "view",
      "type": "function"
    },
    {
      "inputs": [],
      "name": "GOVERNOR_ROLE",
      "outputs": [
        {
          "internalType": "bytes32",
          "name": "",
          "type": "bytes32"
        }
      ],
      "stateMutability": "view",
      "type": "function"
    },
    {
      "inputs": [],
      "name": "STABLEMASTER_ROLE",
      "outputs": [
        {
          "internalType": "bytes32",
          "name": "",
          "type": "bytes32"
        }
      ],
      "stateMutability": "view",
      "type": "function"
    },
    {
      "inputs": [],
      "name": "agToken",
      "outputs": [
        {
          "internalType": "contract IAgToken",
          "name": "",
          "type": "address"
        }
      ],
      "stateMutability": "view",
      "type": "function"
    },
    {
      "inputs": [],
      "name": "amountToRedistribute",
      "outputs": [
        {
          "internalType": "uint256",
          "name": "",
          "type": "uint256"
        }
      ],
      "stateMutability": "view",
      "type": "function"
    },
    {
      "inputs": [
        {
          "internalType": "address",
          "name": "",
          "type": "address"
        }
      ],
      "name": "balanceOfLpClaims",
      "outputs": [
        {
          "internalType": "uint256",
          "name": "",
          "type": "uint256"
        }
      ],
      "stateMutability": "view",
      "type": "function"
    },
    {
      "inputs": [
        {
          "internalType": "address",
          "name": "",
          "type": "address"
        }
      ],
      "name": "balanceOfLpClaimsVeANGLE",
      "outputs": [
        {
          "internalType": "uint256",
          "name": "",
          "type": "uint256"
        }
      ],
      "stateMutability": "view",
      "type": "function"
    },
    {
      "inputs": [
        {
          "internalType": "address",
          "name": "",
          "type": "address"
        }
      ],
      "name": "balanceOfUserClaims",
      "outputs": [
        {
          "internalType": "uint256",
          "name": "",
          "type": "uint256"
        }
      ],
      "stateMutability": "view",
      "type": "function"
    },
    {
      "inputs": [
        {
          "internalType": "address",
          "name": "",
          "type": "address"
        }
      ],
      "name": "balanceOfUserClaimsVeANGLE",
      "outputs": [
        {
          "internalType": "uint256",
          "name": "",
          "type": "uint256"
        }
      ],
      "stateMutability": "view",
      "type": "function"
    },
    {
      "inputs": [],
      "name": "baseAmountToEachComputed",
      "outputs": [
        {
          "internalType": "uint256",
          "name": "",
          "type": "uint256"
        }
      ],
      "stateMutability": "view",
      "type": "function"
    },
    {
      "inputs": [],
      "name": "baseAmountToLp",
      "outputs": [
        {
          "internalType": "uint64",
          "name": "",
          "type": "uint64"
        }
      ],
      "stateMutability": "view",
      "type": "function"
    },
    {
      "inputs": [],
      "name": "baseAmountToLpGov",
      "outputs": [
        {
          "internalType": "uint64",
          "name": "",
          "type": "uint64"
        }
      ],
      "stateMutability": "view",
      "type": "function"
    },
    {
      "inputs": [],
      "name": "baseAmountToUser",
      "outputs": [
        {
          "internalType": "uint64",
          "name": "",
          "type": "uint64"
        }
      ],
      "stateMutability": "view",
      "type": "function"
    },
    {
      "inputs": [],
      "name": "baseAmountToUserGov",
      "outputs": [
        {
          "internalType": "uint64",
          "name": "",
          "type": "uint64"
        }
      ],
      "stateMutability": "view",
      "type": "function"
    },
    {
      "inputs": [
        {
          "internalType": "uint256",
          "name": "perpetualID",
          "type": "uint256"
        }
      ],
      "name": "claimHA",
      "outputs": [],
      "stateMutability": "nonpayable",
      "type": "function"
    },
    {
      "inputs": [
        {
          "internalType": "address",
          "name": "dest",
          "type": "address"
        },
        {
          "internalType": "uint256",
          "name": "amountSanToken",
          "type": "uint256"
        }
      ],
      "name": "claimSLP",
      "outputs": [],
      "stateMutability": "nonpayable",
      "type": "function"
    },
    {
      "inputs": [],
      "name": "claimTime",
      "outputs": [
        {
          "internalType": "uint256",
          "name": "",
          "type": "uint256"
        }
      ],
      "stateMutability": "view",
      "type": "function"
    },
    {
      "inputs": [
        {
          "internalType": "address",
          "name": "dest",
          "type": "address"
        },
        {
          "internalType": "uint256",
          "name": "amountAgToken",
          "type": "uint256"
        }
      ],
      "name": "claimUser",
      "outputs": [],
      "stateMutability": "nonpayable",
      "type": "function"
    },
    {
      "inputs": [],
      "name": "collatBase",
      "outputs": [
        {
          "internalType": "uint256",
          "name": "",
          "type": "uint256"
        }
      ],
      "stateMutability": "view",
      "type": "function"
    },
    {
      "inputs": [
        {
          "internalType": "bytes32",
          "name": "role",
          "type": "bytes32"
        }
      ],
      "name": "getRoleAdmin",
      "outputs": [
        {
          "internalType": "bytes32",
          "name": "",
          "type": "bytes32"
        }
      ],
      "stateMutability": "view",
      "type": "function"
    },
    {
      "inputs": [
        {
          "internalType": "bytes32",
          "name": "role",
          "type": "bytes32"
        },
        {
          "internalType": "address",
          "name": "account",
          "type": "address"
        }
      ],
      "name": "grantRole",
      "outputs": [],
      "stateMutability": "nonpayable",
      "type": "function"
    },
    {
      "inputs": [
        {
          "internalType": "uint256",
          "name": "",
          "type": "uint256"
        }
      ],
      "name": "haClaimCheck",
      "outputs": [
        {
          "internalType": "uint256",
          "name": "",
          "type": "uint256"
        }
      ],
      "stateMutability": "view",
      "type": "function"
    },
    {
      "inputs": [
        {
          "internalType": "bytes32",
          "name": "role",
          "type": "bytes32"
        },
        {
          "internalType": "address",
          "name": "account",
          "type": "address"
        }
      ],
      "name": "hasRole",
      "outputs": [
        {
          "internalType": "bool",
          "name": "",
          "type": "bool"
        }
      ],
      "stateMutability": "view",
      "type": "function"
    },
    {
      "inputs": [],
      "name": "maxStablecoinsClaimable",
      "outputs": [
        {
          "internalType": "uint256",
          "name": "",
          "type": "uint256"
        }
      ],
      "stateMutability": "view",
      "type": "function"
    },
    {
      "inputs": [],
      "name": "oracle",
      "outputs": [
        {
          "internalType": "contract IOracle",
          "name": "",
          "type": "address"
        }
      ],
      "stateMutability": "view",
      "type": "function"
    },
    {
      "inputs": [],
      "name": "oracleValueHA",
      "outputs": [
        {
          "internalType": "uint256",
          "name": "",
          "type": "uint256"
        }
      ],
      "stateMutability": "view",
      "type": "function"
    },
    {
      "inputs": [],
      "name": "oracleValueUsers",
      "outputs": [
        {
          "internalType": "uint256",
          "name": "",
          "type": "uint256"
        }
      ],
      "stateMutability": "view",
      "type": "function"
    },
    {
      "inputs": [],
      "name": "pause",
      "outputs": [],
      "stateMutability": "nonpayable",
      "type": "function"
    },
    {
      "inputs": [],
      "name": "paused",
      "outputs": [
        {
          "internalType": "bool",
          "name": "",
          "type": "bool"
        }
      ],
      "stateMutability": "view",
      "type": "function"
    },
    {
      "inputs": [],
      "name": "perpetualManager",
      "outputs": [
        {
          "internalType": "contract IPerpetualManagerFront",
          "name": "",
          "type": "address"
        }
      ],
      "stateMutability": "view",
      "type": "function"
    },
    {
      "inputs": [],
      "name": "poolManager",
      "outputs": [
        {
          "internalType": "contract IPoolManager",
          "name": "",
          "type": "address"
        }
      ],
      "stateMutability": "view",
      "type": "function"
    },
    {
      "inputs": [],
      "name": "proportionalRatioGovLP",
      "outputs": [
        {
          "internalType": "uint64",
          "name": "",
          "type": "uint64"
        }
      ],
      "stateMutability": "view",
      "type": "function"
    },
    {
      "inputs": [],
      "name": "proportionalRatioGovUser",
      "outputs": [
        {
          "internalType": "uint64",
          "name": "",
          "type": "uint64"
        }
      ],
      "stateMutability": "view",
      "type": "function"
    },
    {
      "inputs": [
        {
          "internalType": "address",
          "name": "tokenAddress",
          "type": "address"
        },
        {
          "internalType": "address",
          "name": "to",
          "type": "address"
        },
        {
          "internalType": "uint256",
          "name": "amountToRecover",
          "type": "uint256"
        }
      ],
      "name": "recoverERC20",
      "outputs": [],
      "stateMutability": "nonpayable",
      "type": "function"
    },
    {
      "inputs": [
        {
          "internalType": "address",
          "name": "user",
          "type": "address"
        }
      ],
      "name": "redeemCollateral",
      "outputs": [],
      "stateMutability": "nonpayable",
      "type": "function"
    },
    {
      "inputs": [
        {
          "internalType": "bytes32",
          "name": "role",
          "type": "bytes32"
        },
        {
          "internalType": "address",
          "name": "account",
          "type": "address"
        }
      ],
      "name": "renounceRole",
      "outputs": [],
      "stateMutability": "nonpayable",
      "type": "function"
    },
    {
      "inputs": [
        {
          "internalType": "bytes32",
          "name": "role",
          "type": "bytes32"
        },
        {
          "internalType": "address",
          "name": "account",
          "type": "address"
        }
      ],
      "name": "revokeRole",
      "outputs": [],
      "stateMutability": "nonpayable",
      "type": "function"
    },
    {
      "inputs": [],
      "name": "sanRate",
      "outputs": [
        {
          "internalType": "uint256",
          "name": "",
          "type": "uint256"
        }
      ],
      "stateMutability": "view",
      "type": "function"
    },
    {
      "inputs": [],
      "name": "sanToken",
      "outputs": [
        {
          "internalType": "contract ISanToken",
          "name": "",
          "type": "address"
        }
      ],
      "stateMutability": "view",
      "type": "function"
    },
    {
      "inputs": [
        {
          "internalType": "uint256",
          "name": "newAmountToRedistribute",
          "type": "uint256"
        }
      ],
      "name": "setAmountToRedistribute",
      "outputs": [],
      "stateMutability": "nonpayable",
      "type": "function"
    },
    {
      "inputs": [],
      "name": "setAmountToRedistributeEach",
      "outputs": [],
      "stateMutability": "nonpayable",
      "type": "function"
    },
    {
      "inputs": [
        {
          "internalType": "uint64",
          "name": "_proportionalRatioGovUser",
          "type": "uint64"
        },
        {
          "internalType": "uint64",
          "name": "_proportionalRatioGovLP",
          "type": "uint64"
        }
      ],
      "name": "setProportionalRatioGov",
      "outputs": [],
      "stateMutability": "nonpayable",
      "type": "function"
    },
    {
      "inputs": [],
      "name": "startTimestamp",
      "outputs": [
        {
          "internalType": "uint256",
          "name": "",
          "type": "uint256"
        }
      ],
      "stateMutability": "view",
      "type": "function"
    },
    {
      "inputs": [],
      "name": "totalSupplyLpClaims",
      "outputs": [
        {
          "internalType": "uint256",
          "name": "",
          "type": "uint256"
        }
      ],
      "stateMutability": "view",
      "type": "function"
    },
    {
      "inputs": [],
      "name": "totalSupplyLpClaimsVeANGLE",
      "outputs": [
        {
          "internalType": "uint256",
          "name": "",
          "type": "uint256"
        }
      ],
      "stateMutability": "view",
      "type": "function"
    },
    {
      "inputs": [],
      "name": "totalSupplyUserClaims",
      "outputs": [
        {
          "internalType": "uint256",
          "name": "",
          "type": "uint256"
        }
      ],
      "stateMutability": "view",
      "type": "function"
    },
    {
      "inputs": [],
      "name": "totalSupplyUserClaimsVeANGLE",
      "outputs": [
        {
          "internalType": "uint256",
          "name": "",
          "type": "uint256"
        }
      ],
      "stateMutability": "view",
      "type": "function"
    },
    {
      "inputs": [
        {
          "internalType": "uint256",
          "name": "_oracleValue",
          "type": "uint256"
        },
        {
          "internalType": "uint256",
          "name": "_sanRate",
          "type": "uint256"
        },
        {
          "internalType": "uint256",
          "name": "_stocksUsers",
          "type": "uint256"
        }
      ],
      "name": "triggerSettlement",
      "outputs": [],
      "stateMutability": "nonpayable",
      "type": "function"
    },
    {
      "inputs": [],
      "name": "underlyingToken",
      "outputs": [
        {
          "internalType": "contract IERC20",
          "name": "",
          "type": "address"
        }
      ],
      "stateMutability": "view",
      "type": "function"
    },
    {
      "inputs": [],
      "name": "unpause",
      "outputs": [],
      "stateMutability": "nonpayable",
      "type": "function"
    },
    {
      "inputs": [],
      "name": "veANGLE",
      "outputs": [
        {
          "internalType": "contract IVeANGLE",
          "name": "",
          "type": "address"
        }
      ],
      "stateMutability": "view",
      "type": "function"
    }
  ],
  "bytecode": "0x6101606040523480156200001257600080fd5b506040516200434538038062004345833981016040819052620000359162000960565b6001805460ff191690556001600160a01b0383166200007f5760405162461bcd60e51b81526020600482015260016024820152600360fc1b60448201526064015b60405180910390fd5b836001600160a01b031660e0816001600160a01b031660601b81525050836001600160a01b0316635d34082b6040518163ffffffff1660e01b815260040160206040518083038186803b158015620000d657600080fd5b505afa158015620000eb573d6000803e3d6000fd5b505050506040513d601f19601f82011682018060405250810190620001119190620007e6565b6001600160a01b03166080816001600160a01b031660601b815250506000846001600160a01b0316636ac5dc466040518163ffffffff1660e01b815260040160206040518083038186803b1580156200016957600080fd5b505afa1580156200017e573d6000803e3d6000fd5b505050506040513d601f19601f82011682018060405250810190620001a49190620007e6565b60405163ba8b722360e01b81526001600160a01b0387811660048301529192506000918291829185169063ba8b72239060240160006040518083038186803b158015620001f057600080fd5b505afa15801562000205573d6000803e3d6000fd5b505050506040513d6000823e601f3d908101601f191682016040526200022f91908101906200080d565b50506001600160601b0319606087811b821660a052600283905585901b16610140526040805163ee565a6360e01b81529051969a50939850965050506001600160a01b038816935063ee565a639260048083019350602092829003018186803b1580156200029c57600080fd5b505afa158015620002b1573d6000803e3d6000fd5b505050506040513d601f19601f82011682018060405250810190620002d79190620007e6565b6001600160a01b031660c0816001600160a01b031660601b81525050876001600160a01b031663fc0c546a6040518163ffffffff1660e01b815260040160206040518083038186803b1580156200032d57600080fd5b505afa15801562000342573d6000803e3d6000fd5b505050506040513d601f19601f82011682018060405250810190620003689190620007e6565b6001600160601b0319606091821b8116610100529088901b1661012052601086905560005b8551811015620004775760006001600160a01b0316868281518110620003b757620003b762000af0565b60200260200101516001600160a01b03161415620003fc5760405162461bcd60e51b81526020600482015260016024820152600360fc1b604482015260640162000076565b620004396000805160206200430583398151915287838151811062000425576200042562000af0565b60200260200101516200053660201b60201c565b620004626000805160206200432583398151915287838151811062000425576200042562000af0565b806200046e8162000ac6565b9150506200038d565b5062000493600080516020620043258339815191528562000536565b620004ae600080516020620043058339815191528062000546565b620004d8600080516020620043258339815191526000805160206200430583398151915262000546565b866001600160a01b0316886001600160a01b03167fadcb85cd545791c8b0b13e99913c1fa5051d7281645512b69f3b01ba233e208a6010546040516200052091815260200190565b60405180910390a3505050505050505062000b35565b6200054282826200059a565b5050565b600082815260208190526040902060010154819060405184907fbd79b86ffe0ab8e8776151514217cd7cacd52c909f66475c3af44e129f0b00ff90600090a460009182526020829052604090912060010155565b6000828152602081815260408083206001600160a01b038516845290915290205460ff1662000542576000828152602081815260408083206001600160a01b03851684529091529020805460ff19166001179055620005f63390565b6001600160a01b0316816001600160a01b0316837f2f8788117e7eff1d82e926ec794901d17c78024a50270940304540a733656f0d60405160405180910390a45050565b600082601f8301126200064c57600080fd5b81516020620006656200065f8362000aa0565b62000a6d565b80838252828201915082860187848660051b89010111156200068657600080fd5b60005b85811015620006b0576200069d82620007c9565b8452928401929084019060010162000689565b5090979650505050505050565b60006101008284031215620006d157600080fd5b620006db62000a41565b82519091506001600160401b0380821115620006f657600080fd5b62000704858386016200063a565b835260208401519150808211156200071b57600080fd5b62000729858386016200063a565b602084015260408401519150808211156200074357600080fd5b62000751858386016200063a565b604084015260608401519150808211156200076b57600080fd5b506200077a848285016200063a565b6060830152506200078e60808301620007c9565b6080820152620007a160a08301620007c9565b60a0820152620007b460c08301620007c9565b60c082015260e082015160e082015292915050565b80516001600160401b0381168114620007e157600080fd5b919050565b600060208284031215620007f957600080fd5b8151620008068162000b1c565b9392505050565b6000806000806000806000806000898b036102008112156200082e57600080fd5b8a516200083b8162000b1c565b60208c0151909a506200084e8162000b1c565b60408c0151909950620008618162000b1c565b60608c0151909850620008748162000b1c565b8097505060808b0151955060a08b0151945060c08b015193506101008060df1983011215620008a257600080fd5b620008ac62000a41565b60e08d01518152908c015160208201526101208c015160408201526101408c015160608201529050620008e36101608c01620007c9565b6080820152620008f76101808c01620007c9565b60a08201526200090b6101a08c01620007c9565b60c08201526200091f6101c08c01620007c9565b60e08201526101e08b01519092506001600160401b038111156200094257600080fd5b620009508c828d01620006bd565b9150509295985092959850929598565b600080600080608085870312156200097757600080fd5b8451620009848162000b1c565b80945050602080860151620009998162000b1c565b6040870151606088015191955093506001600160401b03811115620009bd57600080fd5b8601601f81018813620009cf57600080fd5b8051620009e06200065f8262000aa0565b8082825284820191508484018b868560051b870101111562000a0157600080fd5b600094505b8385101562000a3157805162000a1c8162000b1c565b83526001949094019391850191850162000a06565b50979a9699509497505050505050565b60405161010081016001600160401b038111828210171562000a675762000a6762000b06565b60405290565b604051601f8201601f191681016001600160401b038111828210171562000a985762000a9862000b06565b604052919050565b60006001600160401b0382111562000abc5762000abc62000b06565b5060051b60200190565b600060001982141562000ae957634e487b7160e01b600052601160045260246000fd5b5060010190565b634e487b7160e01b600052603260045260246000fd5b634e487b7160e01b600052604160045260246000fd5b6001600160a01b038116811462000b3257600080fd5b50565b60805160601c60a05160601c60c05160601c60e05160601c6101005160601c6101205160601c6101405160601c61370562000c00600039600081816105e90152610e400152600081816104cd01528181611864015261268901526000818161042d0152818161138f0152818161147f01528181611c3701528181611ed10152612631015260006107650152600081816107c001526117a10152600081816106d10152612298015260008181610565015281816109a501528181610acc0152610c2201526137056000f3fe608060405234801561001057600080fd5b50600436106103575760003560e01c806378f35c15116101c8578063ccc5749011610104578063eda50a8f116100a2578063f11d66681161007c578063f11d666814610812578063f1f432d914610832578063f4af6e061461083b578063feb762aa1461086357600080fd5b8063eda50a8f146107b2578063ee565a63146107bb578063f028424a146107e257600080fd5b8063dc4c90d3116100de578063dc4c90d314610760578063df1b8bd314610787578063e6fd48bc14610796578063e92efff61461079f57600080fd5b8063ccc5749014610713578063d547741f1461073a578063dc2adbfd1461074d57600080fd5b806391d1485411610171578063a217fddf1161014b578063a217fddf146106a4578063a9cc1fd4146106ac578063b18925af146106cc578063c597c00e146106f357600080fd5b806391d14854146106425780639f48118f14610686578063a1a2b8361461069157600080fd5b80638becb6a8116101a25780638becb6a8146106135780638c5304851461061c5780638c5787e01461062f57600080fd5b806378f35c15146105c45780637dc0d1d0146105e45780638456cb591461060b57600080fd5b80633352861d1161029757806347fd75d3116102405780635d34082b1161021a5780635d34082b146105605780636848369a14610587578063714ad9e11461059b57806374d122d0146105bb57600080fd5b806347fd75d31461053757806350772731146105405780635c975abb1461054957600080fd5b80633aa4759f116102715780633aa4759f146104ef5780633b4cf4b31461050f5780633f4ba83a1461052f57600080fd5b80633352861d146104a257806336568abe146104b5578063375b90b4146104c857600080fd5b806321c0ceb21161030457806327b3bf11116102de57806327b3bf11146104745780632f2ff15d1461047d578063301d54da1461049057806330f915741461049957600080fd5b806321c0ceb2146103fc578063248a9ca3146104055780632495a5991461042857600080fd5b80631112d654116103355780631112d654146103ab5780631171bda9146103e05780631fc51fa3146103f357600080fd5b8063062138f01461035c578063092a5f10146103715780630bad1d9c14610379575b600080fd5b61036f61036a366004613345565b61086c565b005b61036f610cda565b600e5461038d9067ffffffffffffffff1681565b60405167ffffffffffffffff90911681526020015b60405180910390f35b6103d27f42e87691d7920cf38a77ca8920f5a4c84f1b5ae359a91577fea4018facdd7b5381565b6040519081526020016103a2565b61036f6103ee3660046132b6565b6112f9565b6103d2600c5481565b6103d260045481565b6103d2610413366004613345565b60009081526020819052604090206001015490565b61044f7f000000000000000000000000000000000000000000000000000000000000000081565b60405173ffffffffffffffffffffffffffffffffffffffff90911681526020016103a2565b6103d260105481565b61036f61048b36600461335e565b611539565b6103d260035481565b6103d260075481565b61036f6104b03660046132f7565b611564565b61036f6104c336600461335e565b611a54565b61044f7f000000000000000000000000000000000000000000000000000000000000000081565b6103d26104fd36600461327c565b60116020526000908152604090205481565b6103d261051d366004613345565b60156020526000908152604090205481565b61036f611ae1565b6103d260025481565b6103d2600d5481565b60015460ff165b60405190151581526020016103a2565b61044f7f000000000000000000000000000000000000000000000000000000000000000081565b600f5461038d9067ffffffffffffffff1681565b600e5461038d9068010000000000000000900467ffffffffffffffff1681565b6103d2600b5481565b6103d26105d236600461327c565b60126020526000908152604090205481565b61044f7f000000000000000000000000000000000000000000000000000000000000000081565b61036f611b17565b6103d2600a5481565b61036f61062a366004613345565b611b4a565b61036f61063d3660046133cb565b611d63565b61055061065036600461335e565b60009182526020828152604080842073ffffffffffffffffffffffffffffffffffffffff93909316845291905290205460ff1690565b6103d2633b9aca0081565b61036f61069f3660046133f7565b611f9e565b6103d2600081565b6103d26106ba36600461327c565b60146020526000908152604090205481565b61044f7f000000000000000000000000000000000000000000000000000000000000000081565b6103d261070136600461327c565b60136020526000908152604090205481565b6103d27f7935bd0ae54bc31f548c14dba4d37c5c64b3f8ca900cb468fb8abd54d5894f5581565b61036f61074836600461335e565b6120bb565b61036f61075b3660046132f7565b6120e1565b61044f7f000000000000000000000000000000000000000000000000000000000000000081565b6103d2670de0b6b3a764000081565b6103d260085481565b61036f6107ad36600461327c565b612359565b6103d260065481565b61044f7f000000000000000000000000000000000000000000000000000000000000000081565b600e5461038d907801000000000000000000000000000000000000000000000000900467ffffffffffffffff1681565b600f5461038d9068010000000000000000900467ffffffffffffffff1681565b6103d260055481565b600e5461038d90700100000000000000000000000000000000900467ffffffffffffffff1681565b6103d260095481565b6008541580159061088b57506008546010546108889190613518565b42105b8015610898575060085442115b610903576040517f08c379a000000000000000000000000000000000000000000000000000000000815260206004820152600260248201527f353700000000000000000000000000000000000000000000000000000000000060448201526064015b60405180910390fd5b60015460ff1615610970576040517f08c379a000000000000000000000000000000000000000000000000000000000815260206004820152601060248201527f5061757361626c653a207061757365640000000000000000000000000000000060448201526064016108fa565b6040517f430c2081000000000000000000000000000000000000000000000000000000008152336004820152602481018290527f000000000000000000000000000000000000000000000000000000000000000073ffffffffffffffffffffffffffffffffffffffff169063430c20819060440160206040518083038186803b1580156109fc57600080fd5b505afa158015610a10573d6000803e3d6000fd5b505050506040513d601f19601f82011682018060405250810190610a349190613323565b610a9a576040517f08c379a000000000000000000000000000000000000000000000000000000000815260206004820152600260248201527f323100000000000000000000000000000000000000000000000000000000000060448201526064016108fa565b6040517f6352211e000000000000000000000000000000000000000000000000000000008152600481018290526000907f000000000000000000000000000000000000000000000000000000000000000073ffffffffffffffffffffffffffffffffffffffff1690636352211e9060240160206040518083038186803b158015610b2357600080fd5b505afa158015610b37573d6000803e3d6000fd5b505050506040513d601f19601f82011682018060405250810190610b5b9190613299565b60008381526015602052604090205490915015610bd4576040517f08c379a000000000000000000000000000000000000000000000000000000000815260206004820152600260248201527f363400000000000000000000000000000000000000000000000000000000000060448201526064016108fa565b6000828152601560205260408082206001905560035490517fe048684200000000000000000000000000000000000000000000000000000000815260048101859052602481019190915281907f000000000000000000000000000000000000000000000000000000000000000073ffffffffffffffffffffffffffffffffffffffff169063e048684290604401604080518083038186803b158015610c7857600080fd5b505afa158015610c8c573d6000803e3d6000fd5b505050506040513d601f19601f82011682018060405250810190610cb091906133a7565b9150915080600114158015610cc55750600082115b15610cd457610cd48383612658565b50505050565b60015460ff1615610d47576040517f08c379a000000000000000000000000000000000000000000000000000000000815260206004820152601060248201527f5061757361626c653a207061757365640000000000000000000000000000000060448201526064016108fa565b60085415801590610d665750600854601054610d639190613518565b42115b610dcc576040517f08c379a000000000000000000000000000000000000000000000000000000000815260206004820152600260248201527f363300000000000000000000000000000000000000000000000000000000000060448201526064016108fa565b60095415610e36576040517f08c379a000000000000000000000000000000000000000000000000000000000815260206004820152600260248201527f363200000000000000000000000000000000000000000000000000000000000060448201526064016108fa565b60016009819055507f000000000000000000000000000000000000000000000000000000000000000073ffffffffffffffffffffffffffffffffffffffff166392611e336040518163ffffffff1660e01b815260040160206040518083038186803b158015610ea457600080fd5b505afa158015610eb8573d6000803e3d6000fd5b505050506040513d601f19601f82011682018060405250810190610edc919061338e565b6004819055600254600b5460009291610ef49161356b565b610efe9190613530565b90506000600454600254600a54610f15919061356b565b610f1f9190613530565b90508160075410610f7857600e80547fffffffffffffffffffffffffffffffffffffffffffffffff000000000000000016633b9aca0017905560078054839190600090610f6d9084906135a8565b90915550610fd49050565b81633b9aca00600754610f8b919061356b565b610f959190613530565b600e80547fffffffffffffffffffffffffffffffffffffffffffffffff00000000000000001667ffffffffffffffff9290921691909117905560006007555b80600754111561103457600e80547fffffffffffffffffffffffffffffffff0000000000000000ffffffffffffffff166b3b9aca000000000000000000179055600780548291906000906110299084906135a8565b9091555061109d9050565b80633b9aca00600754611047919061356b565b6110519190613530565b600e805467ffffffffffffffff9290921668010000000000000000027fffffffffffffffffffffffffffffffff0000000000000000ffffffffffffffff90921691909117905560006007555b600d54600754111561110757600e80547fffffffffffffffff0000000000000000ffffffffffffffffffffffffffffffff16733b9aca0000000000000000000000000000000000179055600d54600780546000906110fc9084906135a8565b9091555061117a9050565b600d54633b9aca0060075461111c919061356b565b6111269190613530565b600e805467ffffffffffffffff92909216700100000000000000000000000000000000027fffffffffffffffff0000000000000000ffffffffffffffffffffffffffffffff90921691909117905560006007555b600c5460075411156111e457600e805477ffffffffffffffffffffffffffffffffffffffffffffffff167b3b9aca00000000000000000000000000000000000000000000000000179055600c54600780546000906111d99084906135a8565b909155506112579050565b600c54633b9aca006007546111f9919061356b565b6112039190613530565b600e805467ffffffffffffffff9290921678010000000000000000000000000000000000000000000000000277ffffffffffffffffffffffffffffffffffffffffffffffff90921691909117905560006007555b600e546007546040805167ffffffffffffffff8085168252680100000000000000008504811660208301527001000000000000000000000000000000008504811692820192909252780100000000000000000000000000000000000000000000000090930416606083015260808201527fd03fc29c71e424856b1ea2312dee1853c0e5a6788992397bee3d568aa5e68b479060a0015b60405180910390a15050565b7f7935bd0ae54bc31f548c14dba4d37c5c64b3f8ca900cb468fb8abd54d5894f55611324813361287c565b60095461138d576040517f08c379a000000000000000000000000000000000000000000000000000000000815260206004820152600260248201527f353800000000000000000000000000000000000000000000000000000000000060448201526064016108fa565b7f000000000000000000000000000000000000000000000000000000000000000073ffffffffffffffffffffffffffffffffffffffff168473ffffffffffffffffffffffffffffffffffffffff1614156114ab5781600754101561144d576040517f08c379a000000000000000000000000000000000000000000000000000000000815260206004820152600260248201527f363600000000000000000000000000000000000000000000000000000000000060448201526064016108fa565b816007600082825461145f91906135a8565b909155506114a6905073ffffffffffffffffffffffffffffffffffffffff7f000000000000000000000000000000000000000000000000000000000000000016848461294c565b6114cc565b6114cc73ffffffffffffffffffffffffffffffffffffffff8516848461294c565b8273ffffffffffffffffffffffffffffffffffffffff168473ffffffffffffffffffffffffffffffffffffffff167ffff3b3844276f57024e0b42afec1a37f75db36511e43819a4f2a63ab7862b6488460405161152b91815260200190565b60405180910390a350505050565b600082815260208190526040902060010154611555813361287c565b61155f83836129d9565b505050565b6008541580159061158357506008546010546115809190613518565b42105b8015611590575060085442115b6115f6576040517f08c379a000000000000000000000000000000000000000000000000000000000815260206004820152600260248201527f353700000000000000000000000000000000000000000000000000000000000060448201526064016108fa565b60015460ff1615611663576040517f08c379a000000000000000000000000000000000000000000000000000000000815260206004820152601060248201527f5061757361626c653a207061757365640000000000000000000000000000000060448201526064016108fa565b73ffffffffffffffffffffffffffffffffffffffff82166116e0576040517f08c379a000000000000000000000000000000000000000000000000000000000815260206004820152600160248201527f300000000000000000000000000000000000000000000000000000000000000060448201526064016108fa565b60065481600a54600b546116f49190613518565b6116fe9190613518565b1115611766576040517f08c379a000000000000000000000000000000000000000000000000000000000815260206004820152600260248201527f363100000000000000000000000000000000000000000000000000000000000060448201526064016108fa565b6040517f23b872dd000000000000000000000000000000000000000000000000000000008152336004820152306024820152604481018290527f000000000000000000000000000000000000000000000000000000000000000073ffffffffffffffffffffffffffffffffffffffff16906323b872dd90606401602060405180830381600087803b1580156117fa57600080fd5b505af115801561180e573d6000803e3d6000fd5b505050506040513d601f19601f820116820180604052508101906118329190613323565b506040517f70a082310000000000000000000000000000000000000000000000000000000081523360048201526000907f000000000000000000000000000000000000000000000000000000000000000073ffffffffffffffffffffffffffffffffffffffff16906370a0823190602401602060405180830381600087803b1580156118bd57600080fd5b505af11580156118d1573d6000803e3d6000fd5b505050506040513d601f19601f820116820180604052508101906118f5919061338e565b905080156119ca57600f5460009067ffffffffffffffff1661191b633b9aca008461356b565b6119259190613530565b90508281116119345780611936565b825b905061194281846135a8565b925080600b60008282546119569190613518565b909155505073ffffffffffffffffffffffffffffffffffffffff841660009081526012602052604081208054839290611990908490613518565b90915550506040518181527f56b398b10ed5dcd62f6db39ec8aa3b17951026a13cf76b75ae4bc7c70415ac539060200160405180910390a1505b81600a60008282546119dc9190613518565b909155505073ffffffffffffffffffffffffffffffffffffffff831660009081526011602052604081208054849290611a16908490613518565b90915550506040518281527fbdfe37f8a7f5669fadb0f7756809f11a2c49d68b72ae4f2ee5de2c0ae76036c7906020015b60405180910390a1505050565b73ffffffffffffffffffffffffffffffffffffffff81163314611ad3576040517f08c379a000000000000000000000000000000000000000000000000000000000815260206004820152600260248201527f373100000000000000000000000000000000000000000000000000000000000060448201526064016108fa565b611add8282612ac9565b5050565b7f7935bd0ae54bc31f548c14dba4d37c5c64b3f8ca900cb468fb8abd54d5894f55611b0c813361287c565b611b14612b80565b50565b7f7935bd0ae54bc31f548c14dba4d37c5c64b3f8ca900cb468fb8abd54d5894f55611b42813361287c565b611b14612c61565b7f7935bd0ae54bc31f548c14dba4d37c5c64b3f8ca900cb468fb8abd54d5894f55611b75813361287c565b60085415801590611b945750600854601054611b919190613518565b42105b8015611ba1575060085442115b611c07576040517f08c379a000000000000000000000000000000000000000000000000000000000815260206004820152600260248201527f353700000000000000000000000000000000000000000000000000000000000060448201526064016108fa565b6040517f70a0823100000000000000000000000000000000000000000000000000000000815230600482015282907f000000000000000000000000000000000000000000000000000000000000000073ffffffffffffffffffffffffffffffffffffffff16906370a082319060240160206040518083038186803b158015611c8e57600080fd5b505afa158015611ca2573d6000803e3d6000fd5b505050506040513d601f19601f82011682018060405250810190611cc6919061338e565b1015611d2e576040517f08c379a000000000000000000000000000000000000000000000000000000000815260206004820152600260248201527f363600000000000000000000000000000000000000000000000000000000000060448201526064016108fa565b60078290556040518281527f59e82a9fff551ec1b376a6593a32aa5c2347468db665d87c044a0cfd320c9e62906020016112ed565b7f42e87691d7920cf38a77ca8920f5a4c84f1b5ae359a91577fea4018facdd7b53611d8e813361287c565b60085415611df8576040517f08c379a000000000000000000000000000000000000000000000000000000000815260206004820152600260248201527f353900000000000000000000000000000000000000000000000000000000000060448201526064016108fa565b600f5468010000000000000000900467ffffffffffffffff1615801590611e2a5750600f5467ffffffffffffffff1615155b611e90576040517f08c379a000000000000000000000000000000000000000000000000000000000815260206004820152600260248201527f363000000000000000000000000000000000000000000000000000000000000060448201526064016108fa565b600384905560058390556006829055426008556040517f70a082310000000000000000000000000000000000000000000000000000000081523060048201527f000000000000000000000000000000000000000000000000000000000000000073ffffffffffffffffffffffffffffffffffffffff16906370a082319060240160206040518083038186803b158015611f2857600080fd5b505afa158015611f3c573d6000803e3d6000fd5b505050506040513d601f19601f82011682018060405250810190611f60919061338e565b60078190556040519081527f5b18ebd259f7b78b92d4b7d1e57c2a81549bc59b3c8a354ba4521e2b17cf83709060200160405180910390a150505050565b7f7935bd0ae54bc31f548c14dba4d37c5c64b3f8ca900cb468fb8abd54d5894f55611fc9813361287c565b60085415612033576040517f08c379a000000000000000000000000000000000000000000000000000000000815260206004820152600260248201527f363500000000000000000000000000000000000000000000000000000000000060448201526064016108fa565b600f805467ffffffffffffffff848116680100000000000000009081027fffffffffffffffffffffffffffffffff00000000000000000000000000000000909316878316179290921792839055604080518483168152929093041660208201527f21a7a86a5661385cf2ed1bc7b5ab9fb5859fe1295909c4f2245fcfebae16d37c9101611a47565b6000828152602081905260409020600101546120d7813361287c565b61155f8383612ac9565b6008541580159061210057506008546010546120fd9190613518565b42105b801561210d575060085442115b612173576040517f08c379a000000000000000000000000000000000000000000000000000000000815260206004820152600260248201527f353700000000000000000000000000000000000000000000000000000000000060448201526064016108fa565b60015460ff16156121e0576040517f08c379a000000000000000000000000000000000000000000000000000000000815260206004820152601060248201527f5061757361626c653a207061757365640000000000000000000000000000000060448201526064016108fa565b73ffffffffffffffffffffffffffffffffffffffff821661225d576040517f08c379a000000000000000000000000000000000000000000000000000000000815260206004820152600160248201527f300000000000000000000000000000000000000000000000000000000000000060448201526064016108fa565b6040517f23b872dd000000000000000000000000000000000000000000000000000000008152336004820152306024820152604481018290527f000000000000000000000000000000000000000000000000000000000000000073ffffffffffffffffffffffffffffffffffffffff16906323b872dd90606401602060405180830381600087803b1580156122f157600080fd5b505af1158015612305573d6000803e3d6000fd5b505050506040513d601f19601f820116820180604052508101906123299190613323565b506000670de0b6b3a764000060055483612343919061356b565b61234d9190613530565b905061155f8382612658565b6009546123c2576040517f08c379a000000000000000000000000000000000000000000000000000000000815260206004820152600260248201527f353800000000000000000000000000000000000000000000000000000000000060448201526064016108fa565b60015460ff161561242f576040517f08c379a000000000000000000000000000000000000000000000000000000000815260206004820152601060248201527f5061757361626c653a207061757365640000000000000000000000000000000060448201526064016108fa565b600e5473ffffffffffffffffffffffffffffffffffffffff82166000908152601360205260408120549091633b9aca0091612490917801000000000000000000000000000000000000000000000000900467ffffffffffffffff169061356b565b600e5473ffffffffffffffffffffffffffffffffffffffff85166000908152601460205260409020546124e191700100000000000000000000000000000000900467ffffffffffffffff169061356b565b600454600e5460025473ffffffffffffffffffffffffffffffffffffffff88166000908152601160205260409020546801000000000000000090920467ffffffffffffffff1691612532919061356b565b61253c919061356b565b6125469190613530565b600454600e5460025473ffffffffffffffffffffffffffffffffffffffff891660009081526012602052604090205467ffffffffffffffff9092169161258c919061356b565b612596919061356b565b6125a09190613530565b6125aa9190613518565b6125b49190613518565b6125be9190613518565b6125c89190613530565b73ffffffffffffffffffffffffffffffffffffffff831660009081526012602090815260408083208390556011825280832083905560148252808320839055601390915281205590508015611add57611add73ffffffffffffffffffffffffffffffffffffffff7f000000000000000000000000000000000000000000000000000000000000000016838361294c565b6040517f70a082310000000000000000000000000000000000000000000000000000000081523360048201526000907f000000000000000000000000000000000000000000000000000000000000000073ffffffffffffffffffffffffffffffffffffffff16906370a0823190602401602060405180830381600087803b1580156126e257600080fd5b505af11580156126f6573d6000803e3d6000fd5b505050506040513d601f19601f8201168201806040525081019061271a919061338e565b905080156127fb57600f5460009068010000000000000000900467ffffffffffffffff1661274c633b9aca008461356b565b6127569190613530565b90508281116127655780612767565b825b905061277381846135a8565b925080600d60008282546127879190613518565b909155505073ffffffffffffffffffffffffffffffffffffffff8416600090815260146020526040812080548392906127c1908490613518565b90915550506040518181527ff0edebb1634b95010f522f22afce6996fd1b79fd65435dad15f20e8cba4b65409060200160405180910390a1505b81600c600082825461280d9190613518565b909155505073ffffffffffffffffffffffffffffffffffffffff831660009081526013602052604081208054849290612847908490613518565b90915550506040518281527fd71e8060baeb0234d0d88607262e3d1365a3a89f45df6aa61df274d676ffa74d90602001611a47565b60008281526020818152604080832073ffffffffffffffffffffffffffffffffffffffff8516845290915290205460ff16611add576128d28173ffffffffffffffffffffffffffffffffffffffff166014612d1f565b6128dd836020612d1f565b6040516020016128ee929190613446565b604080517fffffffffffffffffffffffffffffffffffffffffffffffffffffffffffffffe0818403018152908290527f08c379a00000000000000000000000000000000000000000000000000000000082526108fa916004016134c7565b6040805173ffffffffffffffffffffffffffffffffffffffff8416602482015260448082018490528251808303909101815260649091019091526020810180517bffffffffffffffffffffffffffffffffffffffffffffffffffffffff167fa9059cbb0000000000000000000000000000000000000000000000000000000017905261155f908490612f69565b60008281526020818152604080832073ffffffffffffffffffffffffffffffffffffffff8516845290915290205460ff16611add5760008281526020818152604080832073ffffffffffffffffffffffffffffffffffffffff85168452909152902080547fffffffffffffffffffffffffffffffffffffffffffffffffffffffffffffff00166001179055612a6b3390565b73ffffffffffffffffffffffffffffffffffffffff168173ffffffffffffffffffffffffffffffffffffffff16837f2f8788117e7eff1d82e926ec794901d17c78024a50270940304540a733656f0d60405160405180910390a45050565b60008281526020818152604080832073ffffffffffffffffffffffffffffffffffffffff8516845290915290205460ff1615611add5760008281526020818152604080832073ffffffffffffffffffffffffffffffffffffffff8516808552925280832080547fffffffffffffffffffffffffffffffffffffffffffffffffffffffffffffff0016905551339285917ff6391f5c32d9c69d2a47ea670b442974b53935d1edc7fd64eb21e047a839171b9190a45050565b60015460ff16612bec576040517f08c379a000000000000000000000000000000000000000000000000000000000815260206004820152601460248201527f5061757361626c653a206e6f742070617573656400000000000000000000000060448201526064016108fa565b600180547fffffffffffffffffffffffffffffffffffffffffffffffffffffffffffffff001690557f5db9ee0a495bf2e6ff9c91a7834c1ba4fdd244a5e8aa4e537bd38aeae4b073aa335b60405173ffffffffffffffffffffffffffffffffffffffff909116815260200160405180910390a1565b60015460ff1615612cce576040517f08c379a000000000000000000000000000000000000000000000000000000000815260206004820152601060248201527f5061757361626c653a207061757365640000000000000000000000000000000060448201526064016108fa565b600180547fffffffffffffffffffffffffffffffffffffffffffffffffffffffffffffff0016811790557f62e78cea01bee320cd4e420270b5ea74000d11b0c9f74754ebdbfc544b05a25833612c37565b60606000612d2e83600261356b565b612d39906002613518565b67ffffffffffffffff811115612d5157612d5161367e565b6040519080825280601f01601f191660200182016040528015612d7b576020820181803683370190505b5090507f300000000000000000000000000000000000000000000000000000000000000081600081518110612db257612db261364f565b60200101907effffffffffffffffffffffffffffffffffffffffffffffffffffffffffffff1916908160001a9053507f780000000000000000000000000000000000000000000000000000000000000081600181518110612e1557612e1561364f565b60200101907effffffffffffffffffffffffffffffffffffffffffffffffffffffffffffff1916908160001a9053506000612e5184600261356b565b612e5c906001613518565b90505b6001811115612ef9577f303132333435363738396162636465660000000000000000000000000000000085600f1660108110612e9d57612e9d61364f565b1a60f81b828281518110612eb357612eb361364f565b60200101907effffffffffffffffffffffffffffffffffffffffffffffffffffffffffffff1916908160001a90535060049490941c93612ef2816135eb565b9050612e5f565b508315612f62576040517f08c379a000000000000000000000000000000000000000000000000000000000815260206004820181905260248201527f537472696e67733a20686578206c656e67746820696e73756666696369656e7460448201526064016108fa565b9392505050565b6000612fcb826040518060400160405280602081526020017f5361666545524332303a206c6f772d6c6576656c2063616c6c206661696c65648152508573ffffffffffffffffffffffffffffffffffffffff166130759092919063ffffffff16565b80519091501561155f5780806020019051810190612fe99190613323565b61155f576040517f08c379a000000000000000000000000000000000000000000000000000000000815260206004820152602a60248201527f5361666545524332303a204552433230206f7065726174696f6e20646964206e60448201527f6f7420737563636565640000000000000000000000000000000000000000000060648201526084016108fa565b6060613084848460008561308c565b949350505050565b60608247101561311e576040517f08c379a000000000000000000000000000000000000000000000000000000000815260206004820152602660248201527f416464726573733a20696e73756666696369656e742062616c616e636520666f60448201527f722063616c6c000000000000000000000000000000000000000000000000000060648201526084016108fa565b843b613186576040517f08c379a000000000000000000000000000000000000000000000000000000000815260206004820152601d60248201527f416464726573733a2063616c6c20746f206e6f6e2d636f6e747261637400000060448201526064016108fa565b6000808673ffffffffffffffffffffffffffffffffffffffff1685876040516131af919061342a565b60006040518083038185875af1925050503d80600081146131ec576040519150601f19603f3d011682016040523d82523d6000602084013e6131f1565b606091505b509150915061320182828661320c565b979650505050505050565b6060831561321b575081612f62565b82511561322b5782518084602001fd5b816040517f08c379a00000000000000000000000000000000000000000000000000000000081526004016108fa91906134c7565b803567ffffffffffffffff8116811461327757600080fd5b919050565b60006020828403121561328e57600080fd5b8135612f62816136ad565b6000602082840312156132ab57600080fd5b8151612f62816136ad565b6000806000606084860312156132cb57600080fd5b83356132d6816136ad565b925060208401356132e6816136ad565b929592945050506040919091013590565b6000806040838503121561330a57600080fd5b8235613315816136ad565b946020939093013593505050565b60006020828403121561333557600080fd5b81518015158114612f6257600080fd5b60006020828403121561335757600080fd5b5035919050565b6000806040838503121561337157600080fd5b823591506020830135613383816136ad565b809150509250929050565b6000602082840312156133a057600080fd5b5051919050565b600080604083850312156133ba57600080fd5b505080516020909101519092909150565b6000806000606084860312156133e057600080fd5b505081359360208301359350604090920135919050565b6000806040838503121561340a57600080fd5b6134138361325f565b91506134216020840161325f565b90509250929050565b6000825161343c8184602087016135bf565b9190910192915050565b7f416363657373436f6e74726f6c3a206163636f756e742000000000000000000081526000835161347e8160178501602088016135bf565b7f206973206d697373696e6720726f6c652000000000000000000000000000000060179184019182015283516134bb8160288401602088016135bf565b01602801949350505050565b60208152600082518060208401526134e68160408501602087016135bf565b601f017fffffffffffffffffffffffffffffffffffffffffffffffffffffffffffffffe0169190910160400192915050565b6000821982111561352b5761352b613620565b500190565b600082613566577f4e487b7100000000000000000000000000000000000000000000000000000000600052601260045260246000fd5b500490565b6000817fffffffffffffffffffffffffffffffffffffffffffffffffffffffffffffffff04831182151516156135a3576135a3613620565b500290565b6000828210156135ba576135ba613620565b500390565b60005b838110156135da5781810151838201526020016135c2565b83811115610cd45750506000910152565b6000816135fa576135fa613620565b507fffffffffffffffffffffffffffffffffffffffffffffffffffffffffffffffff0190565b7f4e487b7100000000000000000000000000000000000000000000000000000000600052601160045260246000fd5b7f4e487b7100000000000000000000000000000000000000000000000000000000600052603260045260246000fd5b7f4e487b7100000000000000000000000000000000000000000000000000000000600052604160045260246000fd5b73ffffffffffffffffffffffffffffffffffffffff81168114611b1457600080fdfea26469706673582212209829fe7d454478d8c68ff3df7fae67017f7ff79781cb0cda0e0ab21e690857c264736f6c634300080700337935bd0ae54bc31f548c14dba4d37c5c64b3f8ca900cb468fb8abd54d5894f5542e87691d7920cf38a77ca8920f5a4c84f1b5ae359a91577fea4018facdd7b53",
  "linkReferences": {},
  "deployedLinkReferences": {}
}