{
  "_format": "hh-sol-artifact-1",
  "contractName": "PerpetualManager",
  "sourceName": "contracts/perpetualManager/PerpetualManager.sol",
  "abi": [
    {
      "anonymous": false,
      "inputs": [
        {
          "indexed": true,
          "internalType": "address",
          "name": "owner",
          "type": "address"
        },
        {
          "indexed": true,
          "internalType": "address",
          "name": "approved",
          "type": "address"
        },
        {
          "indexed": true,
          "internalType": "uint256",
          "name": "tokenId",
          "type": "uint256"
        }
      ],
      "name": "Approval",
      "type": "event"
    },
    {
      "anonymous": false,
      "inputs": [
        {
          "indexed": true,
          "internalType": "address",
          "name": "owner",
          "type": "address"
        },
        {
          "indexed": true,
          "internalType": "address",
          "name": "operator",
          "type": "address"
        },
        {
          "indexed": false,
          "internalType": "bool",
          "name": "approved",
          "type": "bool"
        }
      ],
      "name": "ApprovalForAll",
      "type": "event"
    },
    {
      "anonymous": false,
      "inputs": [
        {
          "indexed": false,
          "internalType": "string",
          "name": "_baseURI",
          "type": "string"
        }
      ],
      "name": "BaseURIUpdated",
      "type": "event"
    },
    {
      "anonymous": false,
      "inputs": [
        {
          "indexed": false,
          "internalType": "uint64",
          "name": "_maxLeverage",
          "type": "uint64"
        },
        {
          "indexed": false,
          "internalType": "uint64",
          "name": "_maintenanceMargin",
          "type": "uint64"
        }
      ],
      "name": "BoundsPerpetualUpdated",
      "type": "event"
    },
    {
      "anonymous": false,
      "inputs": [
        {
          "indexed": false,
          "internalType": "uint64[]",
          "name": "_xHAFees",
          "type": "uint64[]"
        },
        {
          "indexed": false,
          "internalType": "uint64[]",
          "name": "_yHAFees",
          "type": "uint64[]"
        },
        {
          "indexed": false,
          "internalType": "uint8",
          "name": "deposit",
          "type": "uint8"
        }
      ],
      "name": "HAFeesUpdated",
      "type": "event"
    },
    {
      "anonymous": false,
      "inputs": [
        {
          "indexed": false,
          "internalType": "uint256",
          "name": "_keeperFeesLiquidationCap",
          "type": "uint256"
        },
        {
          "indexed": false,
          "internalType": "uint256",
          "name": "_keeperFeesClosingCap",
          "type": "uint256"
        }
      ],
      "name": "KeeperFeesCapUpdated",
      "type": "event"
    },
    {
      "anonymous": false,
      "inputs": [
        {
          "indexed": false,
          "internalType": "uint64[]",
          "name": "xKeeperFeesClosing",
          "type": "uint64[]"
        },
        {
          "indexed": false,
          "internalType": "uint64[]",
          "name": "yKeeperFeesClosing",
          "type": "uint64[]"
        }
      ],
      "name": "KeeperFeesClosingUpdated",
      "type": "event"
    },
    {
      "anonymous": false,
      "inputs": [
        {
          "indexed": false,
          "internalType": "uint64",
          "name": "_keeperFeesLiquidationRatio",
          "type": "uint64"
        }
      ],
      "name": "KeeperFeesLiquidationRatioUpdated",
      "type": "event"
    },
    {
      "anonymous": false,
      "inputs": [
        {
          "indexed": false,
          "internalType": "address",
          "name": "keeperAddress",
          "type": "address"
        },
        {
          "indexed": false,
          "internalType": "uint256",
          "name": "liquidationFees",
          "type": "uint256"
        }
      ],
      "name": "KeeperTransferred",
      "type": "event"
    },
    {
      "anonymous": false,
      "inputs": [
        {
          "indexed": false,
          "internalType": "uint64",
          "name": "_lockTime",
          "type": "uint64"
        }
      ],
      "name": "LockTimeUpdated",
      "type": "event"
    },
    {
      "anonymous": false,
      "inputs": [
        {
          "indexed": false,
          "internalType": "address",
          "name": "account",
          "type": "address"
        }
      ],
      "name": "Paused",
      "type": "event"
    },
    {
      "anonymous": false,
      "inputs": [
        {
          "indexed": false,
          "internalType": "uint256",
          "name": "_perpetualID",
          "type": "uint256"
        },
        {
          "indexed": false,
          "internalType": "uint256",
          "name": "_closeAmount",
          "type": "uint256"
        }
      ],
      "name": "PerpetualClosed",
      "type": "event"
    },
    {
      "anonymous": false,
      "inputs": [
        {
          "indexed": false,
          "internalType": "uint256",
          "name": "_perpetualID",
          "type": "uint256"
        },
        {
          "indexed": false,
          "internalType": "uint256",
          "name": "_entryRate",
          "type": "uint256"
        },
        {
          "indexed": false,
          "internalType": "uint256",
          "name": "_margin",
          "type": "uint256"
        },
        {
          "indexed": false,
          "internalType": "uint256",
          "name": "_committedAmount",
          "type": "uint256"
        }
      ],
      "name": "PerpetualOpened",
      "type": "event"
    },
    {
      "anonymous": false,
      "inputs": [
        {
          "indexed": false,
          "internalType": "uint256",
          "name": "_perpetualID",
          "type": "uint256"
        },
        {
          "indexed": false,
          "internalType": "uint256",
          "name": "_margin",
          "type": "uint256"
        }
      ],
      "name": "PerpetualUpdated",
      "type": "event"
    },
    {
      "anonymous": false,
      "inputs": [
        {
          "indexed": false,
          "internalType": "uint256[]",
          "name": "perpetualIDs",
          "type": "uint256[]"
        },
        {
          "components": [
            {
              "internalType": "address",
              "name": "owner",
              "type": "address"
            },
            {
              "internalType": "uint256",
              "name": "netCashOutAmount",
              "type": "uint256"
            }
          ],
          "indexed": false,
          "internalType": "struct Pairs[]",
          "name": "ownerAndCashOut",
          "type": "tuple[]"
        },
        {
          "indexed": false,
          "internalType": "address",
          "name": "keeper",
          "type": "address"
        },
        {
          "indexed": false,
          "internalType": "uint256",
          "name": "reward",
          "type": "uint256"
        }
      ],
      "name": "PerpetualsForceClosed",
      "type": "event"
    },
    {
      "anonymous": false,
      "inputs": [
        {
          "indexed": true,
          "internalType": "address",
          "name": "tokenAddress",
          "type": "address"
        },
        {
          "indexed": true,
          "internalType": "address",
          "name": "to",
          "type": "address"
        },
        {
          "indexed": false,
          "internalType": "uint256",
          "name": "amount",
          "type": "uint256"
        }
      ],
      "name": "Recovered",
      "type": "event"
    },
    {
      "anonymous": false,
      "inputs": [
        {
          "indexed": false,
          "internalType": "uint256",
          "name": "_reward",
          "type": "uint256"
        }
      ],
      "name": "RewardAdded",
      "type": "event"
    },
    {
      "anonymous": false,
      "inputs": [
        {
          "indexed": true,
          "internalType": "address",
          "name": "_user",
          "type": "address"
        },
        {
          "indexed": false,
          "internalType": "uint256",
          "name": "_reward",
          "type": "uint256"
        }
      ],
      "name": "RewardPaid",
      "type": "event"
    },
    {
      "anonymous": false,
      "inputs": [
        {
          "indexed": false,
          "internalType": "uint256",
          "name": "_rewardsDuration",
          "type": "uint256"
        },
        {
          "indexed": true,
          "internalType": "address",
          "name": "_rewardsDistributor",
          "type": "address"
        }
      ],
      "name": "RewardsDistributionDurationUpdated",
      "type": "event"
    },
    {
      "anonymous": false,
      "inputs": [
        {
          "indexed": true,
          "internalType": "address",
          "name": "_rewardsDistributor",
          "type": "address"
        }
      ],
      "name": "RewardsDistributionUpdated",
      "type": "event"
    },
    {
      "anonymous": false,
      "inputs": [
        {
          "indexed": true,
          "internalType": "bytes32",
          "name": "role",
          "type": "bytes32"
        },
        {
          "indexed": true,
          "internalType": "bytes32",
          "name": "previousAdminRole",
          "type": "bytes32"
        },
        {
          "indexed": true,
          "internalType": "bytes32",
          "name": "newAdminRole",
          "type": "bytes32"
        }
      ],
      "name": "RoleAdminChanged",
      "type": "event"
    },
    {
      "anonymous": false,
      "inputs": [
        {
          "indexed": true,
          "internalType": "bytes32",
          "name": "role",
          "type": "bytes32"
        },
        {
          "indexed": true,
          "internalType": "address",
          "name": "account",
          "type": "address"
        },
        {
          "indexed": true,
          "internalType": "address",
          "name": "sender",
          "type": "address"
        }
      ],
      "name": "RoleGranted",
      "type": "event"
    },
    {
      "anonymous": false,
      "inputs": [
        {
          "indexed": true,
          "internalType": "bytes32",
          "name": "role",
          "type": "bytes32"
        },
        {
          "indexed": true,
          "internalType": "address",
          "name": "account",
          "type": "address"
        },
        {
          "indexed": true,
          "internalType": "address",
          "name": "sender",
          "type": "address"
        }
      ],
      "name": "RoleRevoked",
      "type": "event"
    },
    {
      "anonymous": false,
      "inputs": [
        {
          "indexed": false,
          "internalType": "uint64",
          "name": "_targetHAHedge",
          "type": "uint64"
        },
        {
          "indexed": false,
          "internalType": "uint64",
          "name": "_limitHAHedge",
          "type": "uint64"
        }
      ],
      "name": "TargetAndLimitHAHedgeUpdated",
      "type": "event"
    },
    {
      "anonymous": false,
      "inputs": [
        {
          "indexed": true,
          "internalType": "address",
          "name": "from",
          "type": "address"
        },
        {
          "indexed": true,
          "internalType": "address",
          "name": "to",
          "type": "address"
        },
        {
          "indexed": true,
          "internalType": "uint256",
          "name": "tokenId",
          "type": "uint256"
        }
      ],
      "name": "Transfer",
      "type": "event"
    },
    {
      "anonymous": false,
      "inputs": [
        {
          "indexed": false,
          "internalType": "address",
          "name": "account",
          "type": "address"
        }
      ],
      "name": "Unpaused",
      "type": "event"
    },
    {
      "inputs": [],
      "name": "BASE_PARAMS",
      "outputs": [
        {
          "internalType": "uint256",
          "name": "",
          "type": "uint256"
        }
      ],
      "stateMutability": "view",
      "type": "function"
    },
    {
      "inputs": [],
      "name": "BASE_TOKENS",
      "outputs": [
        {
          "internalType": "uint256",
          "name": "",
          "type": "uint256"
        }
      ],
      "stateMutability": "view",
      "type": "function"
    },
    {
      "inputs": [],
      "name": "DEFAULT_ADMIN_ROLE",
      "outputs": [
        {
          "internalType": "bytes32",
          "name": "",
          "type": "bytes32"
        }
      ],
      "stateMutability": "view",
      "type": "function"
    },
    {
      "inputs": [],
      "name": "GUARDIAN_ROLE",
      "outputs": [
        {
          "internalType": "bytes32",
          "name": "",
          "type": "bytes32"
        }
      ],
      "stateMutability": "view",
      "type": "function"
    },
    {
      "inputs": [],
      "name": "POOLMANAGER_ROLE",
      "outputs": [
        {
          "internalType": "bytes32",
          "name": "",
          "type": "bytes32"
        }
      ],
      "stateMutability": "view",
      "type": "function"
    },
    {
      "inputs": [],
      "name": "baseURI",
      "outputs": [
        {
          "internalType": "string",
          "name": "",
          "type": "string"
        }
      ],
      "stateMutability": "view",
      "type": "function"
    },
    {
      "inputs": [
        {
          "internalType": "address[]",
          "name": "governorList",
          "type": "address[]"
        },
        {
          "internalType": "address",
          "name": "guardian",
          "type": "address"
        },
        {
          "internalType": "contract IFeeManager",
          "name": "feeManager_",
          "type": "address"
        },
        {
          "internalType": "contract IOracle",
          "name": "oracle_",
          "type": "address"
        }
      ],
      "name": "deployCollateral",
      "outputs": [],
      "stateMutability": "nonpayable",
      "type": "function"
    },
    {
      "inputs": [
        {
          "internalType": "bytes32",
          "name": "role",
          "type": "bytes32"
        }
      ],
      "name": "getRoleAdmin",
      "outputs": [
        {
          "internalType": "bytes32",
          "name": "",
          "type": "bytes32"
        }
      ],
      "stateMutability": "view",
      "type": "function"
    },
    {
      "inputs": [
        {
          "internalType": "bytes32",
          "name": "role",
          "type": "bytes32"
        },
        {
          "internalType": "address",
          "name": "account",
          "type": "address"
        }
      ],
      "name": "grantRole",
      "outputs": [],
      "stateMutability": "nonpayable",
      "type": "function"
    },
    {
      "inputs": [],
      "name": "haBonusMalusDeposit",
      "outputs": [
        {
          "internalType": "uint64",
          "name": "",
          "type": "uint64"
        }
      ],
      "stateMutability": "view",
      "type": "function"
    },
    {
      "inputs": [],
      "name": "haBonusMalusWithdraw",
      "outputs": [
        {
          "internalType": "uint64",
          "name": "",
          "type": "uint64"
        }
      ],
      "stateMutability": "view",
      "type": "function"
    },
    {
      "inputs": [
        {
          "internalType": "bytes32",
          "name": "role",
          "type": "bytes32"
        },
        {
          "internalType": "address",
          "name": "account",
          "type": "address"
        }
      ],
      "name": "hasRole",
      "outputs": [
        {
          "internalType": "bool",
          "name": "",
          "type": "bool"
        }
      ],
      "stateMutability": "view",
      "type": "function"
    },
    {
      "inputs": [],
      "name": "keeperFeesClosingCap",
      "outputs": [
        {
          "internalType": "uint256",
          "name": "",
          "type": "uint256"
        }
      ],
      "stateMutability": "view",
      "type": "function"
    },
    {
      "inputs": [],
      "name": "keeperFeesLiquidationCap",
      "outputs": [
        {
          "internalType": "uint256",
          "name": "",
          "type": "uint256"
        }
      ],
      "stateMutability": "view",
      "type": "function"
    },
    {
      "inputs": [],
      "name": "keeperFeesLiquidationRatio",
      "outputs": [
        {
          "internalType": "uint64",
          "name": "",
          "type": "uint64"
        }
      ],
      "stateMutability": "view",
      "type": "function"
    },
    {
      "inputs": [],
      "name": "lastUpdateTime",
      "outputs": [
        {
          "internalType": "uint256",
          "name": "",
          "type": "uint256"
        }
      ],
      "stateMutability": "view",
      "type": "function"
    },
    {
      "inputs": [],
      "name": "limitHAHedge",
      "outputs": [
        {
          "internalType": "uint64",
          "name": "",
          "type": "uint64"
        }
      ],
      "stateMutability": "view",
      "type": "function"
    },
    {
      "inputs": [],
      "name": "lockTime",
      "outputs": [
        {
          "internalType": "uint64",
          "name": "",
          "type": "uint64"
        }
      ],
      "stateMutability": "view",
      "type": "function"
    },
    {
      "inputs": [],
      "name": "maintenanceMargin",
      "outputs": [
        {
          "internalType": "uint64",
          "name": "",
          "type": "uint64"
        }
      ],
      "stateMutability": "view",
      "type": "function"
    },
    {
      "inputs": [],
      "name": "maxLeverage",
      "outputs": [
        {
          "internalType": "uint64",
          "name": "",
          "type": "uint64"
        }
      ],
      "stateMutability": "view",
      "type": "function"
    },
    {
      "inputs": [
        {
          "internalType": "uint256",
          "name": "reward",
          "type": "uint256"
        }
      ],
      "name": "notifyRewardAmount",
      "outputs": [],
      "stateMutability": "nonpayable",
      "type": "function"
    },
    {
      "inputs": [],
      "name": "oracle",
      "outputs": [
        {
          "internalType": "contract IOracle",
          "name": "",
          "type": "address"
        }
      ],
      "stateMutability": "view",
      "type": "function"
    },
    {
      "inputs": [],
      "name": "pause",
      "outputs": [],
      "stateMutability": "nonpayable",
      "type": "function"
    },
    {
      "inputs": [],
      "name": "paused",
      "outputs": [
        {
          "internalType": "bool",
          "name": "",
          "type": "bool"
        }
      ],
      "stateMutability": "view",
      "type": "function"
    },
    {
      "inputs": [],
      "name": "periodFinish",
      "outputs": [
        {
          "internalType": "uint256",
          "name": "",
          "type": "uint256"
        }
      ],
      "stateMutability": "view",
      "type": "function"
    },
    {
      "inputs": [
        {
          "internalType": "uint256",
          "name": "",
          "type": "uint256"
        }
      ],
      "name": "perpetualData",
      "outputs": [
        {
          "internalType": "uint256",
          "name": "entryRate",
          "type": "uint256"
        },
        {
          "internalType": "uint256",
          "name": "entryTimestamp",
          "type": "uint256"
        },
        {
          "internalType": "uint256",
          "name": "margin",
          "type": "uint256"
        },
        {
          "internalType": "uint256",
          "name": "committedAmount",
          "type": "uint256"
        }
      ],
      "stateMutability": "view",
      "type": "function"
    },
    {
      "inputs": [
        {
          "internalType": "uint256",
          "name": "",
          "type": "uint256"
        }
      ],
      "name": "perpetualRewardPerTokenPaid",
      "outputs": [
        {
          "internalType": "uint256",
          "name": "",
          "type": "uint256"
        }
      ],
      "stateMutability": "view",
      "type": "function"
    },
    {
      "inputs": [],
      "name": "poolManager",
      "outputs": [
        {
          "internalType": "contract IPoolManager",
          "name": "",
          "type": "address"
        }
      ],
      "stateMutability": "view",
      "type": "function"
    },
    {
      "inputs": [
        {
          "internalType": "address",
          "name": "tokenAddress",
          "type": "address"
        },
        {
          "internalType": "address",
          "name": "to",
          "type": "address"
        },
        {
          "internalType": "uint256",
          "name": "tokenAmount",
          "type": "uint256"
        }
      ],
      "name": "recoverERC20",
      "outputs": [],
      "stateMutability": "nonpayable",
      "type": "function"
    },
    {
      "inputs": [
        {
          "internalType": "bytes32",
          "name": "role",
          "type": "bytes32"
        },
        {
          "internalType": "address",
          "name": "account",
          "type": "address"
        }
      ],
      "name": "renounceRole",
      "outputs": [],
      "stateMutability": "nonpayable",
      "type": "function"
    },
    {
      "inputs": [
        {
          "internalType": "bytes32",
          "name": "role",
          "type": "bytes32"
        },
        {
          "internalType": "address",
          "name": "account",
          "type": "address"
        }
      ],
      "name": "revokeRole",
      "outputs": [],
      "stateMutability": "nonpayable",
      "type": "function"
    },
    {
      "inputs": [],
      "name": "rewardPerTokenStored",
      "outputs": [
        {
          "internalType": "uint256",
          "name": "",
          "type": "uint256"
        }
      ],
      "stateMutability": "view",
      "type": "function"
    },
    {
      "inputs": [],
      "name": "rewardRate",
      "outputs": [
        {
          "internalType": "uint256",
          "name": "",
          "type": "uint256"
        }
      ],
      "stateMutability": "view",
      "type": "function"
    },
    {
      "inputs": [],
      "name": "rewardToken",
      "outputs": [
        {
          "internalType": "contract IERC20",
          "name": "",
          "type": "address"
        }
      ],
      "stateMutability": "view",
      "type": "function"
    },
    {
      "inputs": [
        {
          "internalType": "uint256",
          "name": "",
          "type": "uint256"
        }
      ],
      "name": "rewards",
      "outputs": [
        {
          "internalType": "uint256",
          "name": "",
          "type": "uint256"
        }
      ],
      "stateMutability": "view",
      "type": "function"
    },
    {
      "inputs": [],
      "name": "rewardsDistribution",
      "outputs": [
        {
          "internalType": "address",
          "name": "",
          "type": "address"
        }
      ],
      "stateMutability": "view",
      "type": "function"
    },
    {
      "inputs": [],
      "name": "rewardsDuration",
      "outputs": [
        {
          "internalType": "uint256",
          "name": "",
          "type": "uint256"
        }
      ],
      "stateMutability": "view",
      "type": "function"
    },
    {
      "inputs": [
        {
          "internalType": "string",
          "name": "_baseURI",
          "type": "string"
        }
      ],
      "name": "setBaseURI",
      "outputs": [],
      "stateMutability": "nonpayable",
      "type": "function"
    },
    {
      "inputs": [
        {
          "internalType": "uint64",
          "name": "_maxLeverage",
          "type": "uint64"
        },
        {
          "internalType": "uint64",
          "name": "_maintenanceMargin",
          "type": "uint64"
        }
      ],
      "name": "setBoundsPerpetual",
      "outputs": [],
      "stateMutability": "nonpayable",
      "type": "function"
    },
    {
      "inputs": [
        {
          "internalType": "uint64",
          "name": "feeDeposit",
          "type": "uint64"
        },
        {
          "internalType": "uint64",
          "name": "feeWithdraw",
          "type": "uint64"
        }
      ],
      "name": "setFeeKeeper",
      "outputs": [],
      "stateMutability": "nonpayable",
      "type": "function"
    },
    {
      "inputs": [
        {
          "internalType": "contract IFeeManager",
          "name": "feeManager_",
          "type": "address"
        }
      ],
      "name": "setFeeManager",
      "outputs": [],
      "stateMutability": "nonpayable",
      "type": "function"
    },
    {
      "inputs": [
        {
          "internalType": "uint64[]",
          "name": "_xHAFees",
          "type": "uint64[]"
        },
        {
          "internalType": "uint64[]",
          "name": "_yHAFees",
          "type": "uint64[]"
        },
        {
          "internalType": "uint8",
          "name": "deposit",
          "type": "uint8"
        }
      ],
      "name": "setHAFees",
      "outputs": [],
      "stateMutability": "nonpayable",
      "type": "function"
    },
    {
      "inputs": [
        {
          "internalType": "uint256",
          "name": "_keeperFeesLiquidationCap",
          "type": "uint256"
        },
        {
          "internalType": "uint256",
          "name": "_keeperFeesClosingCap",
          "type": "uint256"
        }
      ],
      "name": "setKeeperFeesCap",
      "outputs": [],
      "stateMutability": "nonpayable",
      "type": "function"
    },
    {
      "inputs": [
        {
          "internalType": "uint64[]",
          "name": "_xKeeperFeesClosing",
          "type": "uint64[]"
        },
        {
          "internalType": "uint64[]",
          "name": "_yKeeperFeesClosing",
          "type": "uint64[]"
        }
      ],
      "name": "setKeeperFeesClosing",
      "outputs": [],
      "stateMutability": "nonpayable",
      "type": "function"
    },
    {
      "inputs": [
        {
          "internalType": "uint64",
          "name": "_keeperFeesLiquidationRatio",
          "type": "uint64"
        }
      ],
      "name": "setKeeperFeesLiquidationRatio",
      "outputs": [],
      "stateMutability": "nonpayable",
      "type": "function"
    },
    {
      "inputs": [
        {
          "internalType": "uint64",
          "name": "_lockTime",
          "type": "uint64"
        }
      ],
      "name": "setLockTime",
      "outputs": [],
      "stateMutability": "nonpayable",
      "type": "function"
    },
    {
      "inputs": [
        {
          "internalType": "address",
          "name": "_rewardsDistribution",
          "type": "address"
        }
      ],
      "name": "setNewRewardsDistribution",
      "outputs": [],
      "stateMutability": "nonpayable",
      "type": "function"
    },
    {
      "inputs": [
        {
          "internalType": "contract IOracle",
          "name": "oracle_",
          "type": "address"
        }
      ],
      "name": "setOracle",
      "outputs": [],
      "stateMutability": "nonpayable",
      "type": "function"
    },
    {
      "inputs": [
        {
          "internalType": "uint256",
          "name": "_rewardsDuration",
          "type": "uint256"
        },
        {
          "internalType": "address",
          "name": "_rewardsDistribution",
          "type": "address"
        }
      ],
      "name": "setRewardDistribution",
      "outputs": [],
      "stateMutability": "nonpayable",
      "type": "function"
    },
    {
      "inputs": [
        {
          "internalType": "uint64",
          "name": "_targetHAHedge",
          "type": "uint64"
        },
        {
          "internalType": "uint64",
          "name": "_limitHAHedge",
          "type": "uint64"
        }
      ],
      "name": "setTargetAndLimitHAHedge",
      "outputs": [],
      "stateMutability": "nonpayable",
      "type": "function"
    },
    {
      "inputs": [],
      "name": "targetHAHedge",
      "outputs": [
        {
          "internalType": "uint64",
          "name": "",
          "type": "uint64"
        }
      ],
      "stateMutability": "view",
      "type": "function"
    },
    {
      "inputs": [],
      "name": "totalHedgeAmount",
      "outputs": [
        {
          "internalType": "uint256",
          "name": "",
          "type": "uint256"
        }
      ],
      "stateMutability": "view",
      "type": "function"
    },
    {
      "inputs": [],
      "name": "unpause",
      "outputs": [],
      "stateMutability": "nonpayable",
      "type": "function"
    },
    {
      "inputs": [
        {
          "internalType": "uint256",
          "name": "",
          "type": "uint256"
        }
      ],
      "name": "xHAFeesDeposit",
      "outputs": [
        {
          "internalType": "uint64",
          "name": "",
          "type": "uint64"
        }
      ],
      "stateMutability": "view",
      "type": "function"
    },
    {
      "inputs": [
        {
          "internalType": "uint256",
          "name": "",
          "type": "uint256"
        }
      ],
      "name": "xHAFeesWithdraw",
      "outputs": [
        {
          "internalType": "uint64",
          "name": "",
          "type": "uint64"
        }
      ],
      "stateMutability": "view",
      "type": "function"
    },
    {
      "inputs": [
        {
          "internalType": "uint256",
          "name": "",
          "type": "uint256"
        }
      ],
      "name": "xKeeperFeesClosing",
      "outputs": [
        {
          "internalType": "uint64",
          "name": "",
          "type": "uint64"
        }
      ],
      "stateMutability": "view",
      "type": "function"
    },
    {
      "inputs": [
        {
          "internalType": "uint256",
          "name": "",
          "type": "uint256"
        }
      ],
      "name": "yHAFeesDeposit",
      "outputs": [
        {
          "internalType": "uint64",
          "name": "",
          "type": "uint64"
        }
      ],
      "stateMutability": "view",
      "type": "function"
    },
    {
      "inputs": [
        {
          "internalType": "uint256",
          "name": "",
          "type": "uint256"
        }
      ],
      "name": "yHAFeesWithdraw",
      "outputs": [
        {
          "internalType": "uint64",
          "name": "",
          "type": "uint64"
        }
      ],
      "stateMutability": "view",
      "type": "function"
    },
    {
      "inputs": [
        {
          "internalType": "uint256",
          "name": "",
          "type": "uint256"
        }
      ],
      "name": "yKeeperFeesClosing",
      "outputs": [
        {
          "internalType": "uint64",
          "name": "",
          "type": "uint64"
        }
      ],
      "stateMutability": "view",
      "type": "function"
    }
  ],
  "bytecode": "0x608060405234801561001057600080fd5b5061389f806100206000396000f3fe608060405234801561001057600080fd5b50600436106103995760003560e01c8063840a7698116101e9578063c628a6f71161010f578063df136d65116100ad578063f301af421161007c578063f301af421461087b578063f5d011c51461089b578063f7c618c1146108ae578063f902fad7146108ce57600080fd5b8063df136d6514610847578063df1b8bd314610850578063e2b01a5e1461085f578063ebe2b12b1461087257600080fd5b8063d547741f116100e9578063d547741f146107ed578063d5eb058114610800578063d7f6328e14610814578063dc4c90d31461082757600080fd5b8063c628a6f7146107be578063c8f33c91146107d1578063d1aace9f146107da57600080fd5b80639f48118f11610187578063b3b1cb2711610156578063b3b1cb271461077b578063b8f368951461078e578063c0212c7214610797578063c1618dda146107ab57600080fd5b80639f48118f14610735578063a217fddf14610740578063ae3302c214610748578063b126e7e51461076857600080fd5b80638c6dfaf7116101c35780638c6dfaf7146106d15780638d5e19f1146106da5780638e2401441461070257806391d148541461072257600080fd5b8063840a7698146106965780638456cb59146106b6578063873291bb146106be57600080fd5b80633c6b16ab116102ce57806355f804b31161026c5780637b0a47ee1161023b5780637b0a47ee146106515780637bd06a151461065a5780637dc0d1d0146106635780638211477a1461068357600080fd5b806355f804b3146105ff5780635c975abb146106125780636c0360eb146106295780637adbf9731461063e57600080fd5b8063472d35b9116102a8578063472d35b9146105b357806347c12e01146105c657806349a5d3ef146105d9578063515dc480146105ec57600080fd5b80633c6b16ab146105535780633f4ba83a146105665780633fc6df6e1461056e57600080fd5b80632f2ff15d1161033b57806336754415116103155780633675441514610511578063367f21b4146105245780633805012914610537578063386a95251461054a57600080fd5b80632f2ff15d146104bb578063324f3815146104ce57806336568abe146104fe57600080fd5b80631171bda9116103775780631171bda914610449578063142c3ba01461045e578063248a9ca31461047157806324ea54f41461049457600080fd5b80630bfab8a71461039e5780630c016dc0146103ec5780630d66808714610421575b600080fd5b600e546103ce907801000000000000000000000000000000000000000000000000900467ffffffffffffffff1681565b60405167ffffffffffffffff90911681526020015b60405180910390f35b6104137f5916f72c85af4ac6f7e34636ecc97619c4b2085da099a5d28f3e58436cfbe56281565b6040519081526020016103e3565b600e546103ce90700100000000000000000000000000000000900467ffffffffffffffff1681565b61045c610457366004612e2d565b610923565b005b6103ce61046c366004613046565b610abb565b61041361047f366004613046565b60009081526022602052604090206001015490565b6104137f55435dd261a4b9b3364963f7738a7a662ad9c84396d64be3365284bb7f0a504181565b61045c6104c936600461305f565b610af9565b600d546103ce907801000000000000000000000000000000000000000000000000900467ffffffffffffffff1681565b61045c61050c36600461305f565b610b24565b61045c61051f36600461317d565b610bb1565b61045c610532366004612f42565b610c61565b6103ce610545366004613046565b610f31565b61041360155481565b61045c610561366004613046565b610f41565b61045c61118f565b60185461058e9073ffffffffffffffffffffffffffffffffffffffff1681565b60405173ffffffffffffffffffffffffffffffffffffffff90911681526020016103e3565b61045c6105c1366004612e10565b6111c5565b61045c6105d436600461315b565b611238565b6103ce6105e7366004613046565b6112ac565b61045c6105fa366004613198565b6112bc565b61045c61060d36600461308f565b61159e565b60865460ff165b60405190151581526020016103e3565b61063161160c565b6040516103e39190613403565b61045c61064c366004612e10565b61169a565b61041360145481565b610413600f5481565b60035461058e9073ffffffffffffffffffffffffffffffffffffffff1681565b61045c610691366004612fa6565b611762565b6104136106a4366004613046565b601b6020526000908152604090205481565b61045c611a6d565b61045c6106cc366004612e10565b611aa0565b61041360105481565b600d546103ce90700100000000000000000000000000000000900467ffffffffffffffff1681565b600e546103ce9068010000000000000000900467ffffffffffffffff1681565b61061961073036600461305f565b611b90565b610413633b9aca0081565b610413600081565b600d546103ce9068010000000000000000900467ffffffffffffffff1681565b61045c610776366004612e6e565b611bca565b61045c61078936600461317d565b611d1b565b61041360015481565b600e546103ce9067ffffffffffffffff1681565b6103ce6107b9366004613046565b611e3f565b61045c6107cc366004613198565b611e4f565b61041360165481565b6103ce6107e8366004613046565b611f1f565b61045c6107fb36600461305f565b611f2f565b600d546103ce9067ffffffffffffffff1681565b6103ce610822366004613046565b611f55565b60065461058e9073ffffffffffffffffffffffffffffffffffffffff1681565b61041360175481565b610413670de0b6b3a764000081565b61045c61086d36600461305f565b611f65565b61041360135481565b610413610889366004613046565b601c6020526000908152604090205481565b61045c6108a9366004613198565b61208f565b60055461058e9073ffffffffffffffffffffffffffffffffffffffff1681565b6109036108dc366004613046565b601a6020526000908152604090208054600182015460028301546003909301549192909184565b6040805194855260208501939093529183015260608201526080016103e3565b60185473ffffffffffffffffffffffffffffffffffffffff1633146109a9576040517f08c379a000000000000000000000000000000000000000000000000000000000815260206004820152600160248201527f310000000000000000000000000000000000000000000000000000000000000060448201526064015b60405180910390fd5b60055473ffffffffffffffffffffffffffffffffffffffff84811691161415610a2e576040517f08c379a000000000000000000000000000000000000000000000000000000000815260206004820152600260248201527f323000000000000000000000000000000000000000000000000000000000000060448201526064016109a0565b610a4f73ffffffffffffffffffffffffffffffffffffffff8416838361226b565b8173ffffffffffffffffffffffffffffffffffffffff168373ffffffffffffffffffffffffffffffffffffffff167ffff3b3844276f57024e0b42afec1a37f75db36511e43819a4f2a63ab7862b64883604051610aae91815260200190565b60405180910390a3505050565b600a8181548110610acb57600080fd5b9060005260206000209060049182820401919006600802915054906101000a900467ffffffffffffffff1681565b600082815260226020526040902060010154610b1581336122f8565b610b1f83836123a1565b505050565b73ffffffffffffffffffffffffffffffffffffffff81163314610ba3576040517f08c379a000000000000000000000000000000000000000000000000000000000815260206004820152600260248201527f373100000000000000000000000000000000000000000000000000000000000060448201526064016109a0565b610bad8282612435565b5050565b7f55435dd261a4b9b3364963f7738a7a662ad9c84396d64be3365284bb7f0a5041610bdc81336122f8565b600e80547fffffffffffffffff0000000000000000ffffffffffffffffffffffffffffffff1670010000000000000000000000000000000067ffffffffffffffff8516908102919091179091556040519081527f0cedd128b637e635da421319ae981d7968b7a477c1fa3b10275fac22ecbd51a6906020015b60405180910390a15050565b7f55435dd261a4b9b3364963f7738a7a662ad9c84396d64be3365284bb7f0a5041610c8c81336122f8565b828280518251148015610ca0575060008251115b610d06576040517f08c379a000000000000000000000000000000000000000000000000000000000815260206004820152600160248201527f350000000000000000000000000000000000000000000000000000000000000060448201526064016109a0565b60005b60018251610d1791906136b1565b8111610ec657633b9aca0067ffffffffffffffff16828281518110610d3e57610d3e6137e9565b602002602001015167ffffffffffffffff1611158015610d8f5750633b9aca0067ffffffffffffffff16838281518110610d7a57610d7a6137e9565b602002602001015167ffffffffffffffff1611155b610df5576040517f08c379a000000000000000000000000000000000000000000000000000000000815260206004820152600160248201527f360000000000000000000000000000000000000000000000000000000000000060448201526064016109a0565b8015610eb45782610e076001836136b1565b81518110610e1757610e176137e9565b602002602001015167ffffffffffffffff16838281518110610e3b57610e3b6137e9565b602002602001015167ffffffffffffffff1611610eb4576040517f08c379a000000000000000000000000000000000000000000000000000000000815260206004820152600160248201527f370000000000000000000000000000000000000000000000000000000000000060448201526064016109a0565b80610ebe81613781565b915050610d09565b508451610eda906011906020880190612c2b565b508351610eee906012906020870190612c2b565b507f275781d4ec4992e53f64326606b9f7eb81a89baf476df8de6d0410fd218e7be360116012604051610f229291906133d5565b60405180910390a15050505050565b60118181548110610acb57600080fd5b60185473ffffffffffffffffffffffffffffffffffffffff163314610fc2576040517f08c379a000000000000000000000000000000000000000000000000000000000815260206004820152600160248201527f310000000000000000000000000000000000000000000000000000000000000060448201526064016109a0565b610fca6124c7565b6017556013544210610feb57601554610fe390826134df565b60145561102d565b600042601354610ffb91906136b1565b905060006014548261100d9190613644565b60155490915061101d82856134c7565b61102791906134df565b60145550505b6005546040517f70a0823100000000000000000000000000000000000000000000000000000000815230600482015260009173ffffffffffffffffffffffffffffffffffffffff16906370a082319060240160206040518083038186803b15801561109757600080fd5b505afa1580156110ab573d6000803e3d6000fd5b505050506040513d601f19601f820116820180604052508101906110cf9190613142565b9050601554816110df91906134df565b601454111561114a576040517f08c379a000000000000000000000000000000000000000000000000000000000815260206004820152600260248201527f323200000000000000000000000000000000000000000000000000000000000060448201526064016109a0565b42601681905560155461115c916134c7565b6013556040518281527fde88a922e0d3b88b24e9623efeb464919c6bf9f66857a65e2bfcf2ce87a9433d90602001610c55565b7f55435dd261a4b9b3364963f7738a7a662ad9c84396d64be3365284bb7f0a50416111ba81336122f8565b6111c261252f565b50565b7f5916f72c85af4ac6f7e34636ecc97619c4b2085da099a5d28f3e58436cfbe5626111f081336122f8565b50600480547fffffffffffffffffffffffff00000000000000000000000000000000000000001673ffffffffffffffffffffffffffffffffffffffff92909216919091179055565b7f55435dd261a4b9b3364963f7738a7a662ad9c84396d64be3365284bb7f0a504161126381336122f8565b600f839055601082905560408051848152602081018490527fa0aa01eac9422dea36b84eb0bbc758e72643fbdbc72a4fd205d51c738803598291015b60405180910390a1505050565b600b8181548110610acb57600080fd5b7f55435dd261a4b9b3364963f7738a7a662ad9c84396d64be3365284bb7f0a50416112e781336122f8565b82633b9aca008167ffffffffffffffff161115611360576040517f08c379a000000000000000000000000000000000000000000000000000000000815260206004820152600160248201527f340000000000000000000000000000000000000000000000000000000000000060448201526064016109a0565b82633b9aca008167ffffffffffffffff1611156113d9576040517f08c379a000000000000000000000000000000000000000000000000000000000815260206004820152600160248201527f340000000000000000000000000000000000000000000000000000000000000060448201526064016109a0565b8367ffffffffffffffff168567ffffffffffffffff161115611457576040517f08c379a000000000000000000000000000000000000000000000000000000000815260206004820152600160248201527f380000000000000000000000000000000000000000000000000000000000000060448201526064016109a0565b600d80546fffffffffffffffffffffffffffffffff16780100000000000000000000000000000000000000000000000067ffffffffffffffff878116919091027fffffffffffffffff0000000000000000ffffffffffffffffffffffffffffffff1691909117700100000000000000000000000000000000918816918202179091556007546040517f5b749f35000000000000000000000000000000000000000000000000000000008152600481019290925273ffffffffffffffffffffffffffffffffffffffff1690635b749f3590602401600060405180830381600087803b15801561154457600080fd5b505af1158015611558573d6000803e3d6000fd5b50506040805167ffffffffffffffff808a168252881660208201527f686faddec2d8b23f0f43c10006482b63941b927c9a98339cd78514b67139ad679350019050610f22565b7f55435dd261a4b9b3364963f7738a7a662ad9c84396d64be3365284bb7f0a50416115c981336122f8565b81516115dc906019906020850190612ce6565b507f6741b2fc379fad678116fe3d4d4b9a1a184ab53ba36b86ad0fa66340b1ab41ad82604051610c559190613403565b601980546116199061372d565b80601f01602080910402602001604051908101604052809291908181526020018280546116459061372d565b80156116925780601f1061166757610100808354040283529160200191611692565b820191906000526020600020905b81548152906001019060200180831161167557829003601f168201915b505050505081565b60075473ffffffffffffffffffffffffffffffffffffffff16331461171b576040517f08c379a000000000000000000000000000000000000000000000000000000000815260206004820152600160248201527f310000000000000000000000000000000000000000000000000000000000000060448201526064016109a0565b600380547fffffffffffffffffffffffff00000000000000000000000000000000000000001673ffffffffffffffffffffffffffffffffffffffff92909216919091179055565b7f55435dd261a4b9b3364963f7738a7a662ad9c84396d64be3365284bb7f0a504161178d81336122f8565b8383805182511480156117a1575060008251115b611807576040517f08c379a000000000000000000000000000000000000000000000000000000000815260206004820152600160248201527f350000000000000000000000000000000000000000000000000000000000000060448201526064016109a0565b60005b6001825161181891906136b1565b81116119c757633b9aca0067ffffffffffffffff1682828151811061183f5761183f6137e9565b602002602001015167ffffffffffffffff16111580156118905750633b9aca0067ffffffffffffffff1683828151811061187b5761187b6137e9565b602002602001015167ffffffffffffffff1611155b6118f6576040517f08c379a000000000000000000000000000000000000000000000000000000000815260206004820152600160248201527f360000000000000000000000000000000000000000000000000000000000000060448201526064016109a0565b80156119b557826119086001836136b1565b81518110611918576119186137e9565b602002602001015167ffffffffffffffff1683828151811061193c5761193c6137e9565b602002602001015167ffffffffffffffff16116119b5576040517f08c379a000000000000000000000000000000000000000000000000000000000815260206004820152600160248201527f370000000000000000000000000000000000000000000000000000000000000060448201526064016109a0565b806119bf81613781565b91505061180a565b508360ff1660011415611a015785516119e7906009906020890190612c2b565b5084516119fb90600a906020880190612c2b565b50611a2a565b8551611a1490600b906020890190612c2b565b508451611a2890600c906020880190612c2b565b505b7f03c94e5b4f32a4b9a2709b098207aebe4cc92c950987ee077776cc2300adcde2868686604051611a5d9392919061339c565b60405180910390a1505050505050565b7f55435dd261a4b9b3364963f7738a7a662ad9c84396d64be3365284bb7f0a5041611a9881336122f8565b6111c2612610565b60185473ffffffffffffffffffffffffffffffffffffffff163314611b21576040517f08c379a000000000000000000000000000000000000000000000000000000000815260206004820152600160248201527f310000000000000000000000000000000000000000000000000000000000000060448201526064016109a0565b601880547fffffffffffffffffffffffff00000000000000000000000000000000000000001673ffffffffffffffffffffffffffffffffffffffff83169081179091556040517f1c794a043683a294127c95bc365bae91b63b651eb9884a2c9120afee2bb690b490600090a250565b600082815260226020908152604080832073ffffffffffffffffffffffffffffffffffffffff8516845290915290205460ff165b92915050565b7f5916f72c85af4ac6f7e34636ecc97619c4b2085da099a5d28f3e58436cfbe562611bf581336122f8565b60005b8551811015611c5657611c447f55435dd261a4b9b3364963f7738a7a662ad9c84396d64be3365284bb7f0a5041878381518110611c3757611c376137e9565b60200260200101516123a1565b80611c4e81613781565b915050611bf8565b50611c817f55435dd261a4b9b3364963f7738a7a662ad9c84396d64be3365284bb7f0a5041856123a1565b600754611cc5907f55435dd261a4b9b3364963f7738a7a662ad9c84396d64be3365284bb7f0a50419073ffffffffffffffffffffffffffffffffffffffff166123a1565b506004805473ffffffffffffffffffffffffffffffffffffffff9384167fffffffffffffffffffffffff000000000000000000000000000000000000000091821617909155600380549290931691161790555050565b7f55435dd261a4b9b3364963f7738a7a662ad9c84396d64be3365284bb7f0a5041611d4681336122f8565b81633b9aca008167ffffffffffffffff161115611dbf576040517f08c379a000000000000000000000000000000000000000000000000000000000815260206004820152600160248201527f340000000000000000000000000000000000000000000000000000000000000060448201526064016109a0565b600e805477ffffffffffffffffffffffffffffffffffffffffffffffff16780100000000000000000000000000000000000000000000000067ffffffffffffffff8681168202929092179283905560405192041681527f264a4c2e5ed86659859b3c52d1b00a899950c0f3a637d68ca438cc0216dd89bf9060200161129f565b60098181548110610acb57600080fd5b60045473ffffffffffffffffffffffffffffffffffffffff163314611ed0576040517f08c379a000000000000000000000000000000000000000000000000000000000815260206004820152600160248201527f310000000000000000000000000000000000000000000000000000000000000060448201526064016109a0565b600e805467ffffffffffffffff92831668010000000000000000027fffffffffffffffffffffffffffffffff000000000000000000000000000000009091169290931691909117919091179055565b60128181548110610acb57600080fd5b600082815260226020526040902060010154611f4b81336122f8565b610b1f8383612435565b600c8181548110610acb57600080fd5b7f55435dd261a4b9b3364963f7738a7a662ad9c84396d64be3365284bb7f0a5041611f9081336122f8565b8173ffffffffffffffffffffffffffffffffffffffff811661200e576040517f08c379a000000000000000000000000000000000000000000000000000000000815260206004820152600160248201527f300000000000000000000000000000000000000000000000000000000000000060448201526064016109a0565b6015849055601880547fffffffffffffffffffffffff00000000000000000000000000000000000000001673ffffffffffffffffffffffffffffffffffffffff85169081179091556040518581527fe139be2fc520b685c93d718b643b5d8c42fc57b5724201180c5d7656354673129060200160405180910390a250505050565b7f55435dd261a4b9b3364963f7738a7a662ad9c84396d64be3365284bb7f0a50416120ba81336122f8565b81633b9aca008167ffffffffffffffff161115612133576040517f08c379a000000000000000000000000000000000000000000000000000000000815260206004820152600160248201527f340000000000000000000000000000000000000000000000000000000000000060448201526064016109a0565b61213d8385613681565b67ffffffffffffffff166121566002633b9aca0061357b565b116121bd576040517f08c379a000000000000000000000000000000000000000000000000000000000815260206004820152600160248201527f380000000000000000000000000000000000000000000000000000000000000060448201526064016109a0565b600d80547fffffffffffffffffffffffffffffffff00000000000000000000000000000000166801000000000000000067ffffffffffffffff8781169182027fffffffffffffffffffffffffffffffffffffffffffffffff000000000000000016929092179186169182179092556040805192835260208301919091527fb556fe5cb4a1a8243b8d5000bbefd6f8b868adcac2765cd4a30ac9320ff1a0b6910160405180910390a150505050565b6040805173ffffffffffffffffffffffffffffffffffffffff8416602482015260448082018490528251808303909101815260649091019091526020810180517bffffffffffffffffffffffffffffffffffffffffffffffffffffffff167fa9059cbb00000000000000000000000000000000000000000000000000000000179052610b1f9084906126d0565b6123028282611b90565b610bad576123278173ffffffffffffffffffffffffffffffffffffffff1660146127dc565b6123328360206127dc565b60405160200161234392919061331b565b604080517fffffffffffffffffffffffffffffffffffffffffffffffffffffffffffffffe0818403018152908290527f08c379a00000000000000000000000000000000000000000000000000000000082526109a091600401613403565b6123ab8282611b90565b610bad57600082815260226020908152604080832073ffffffffffffffffffffffffffffffffffffffff8516808552925280832080547fffffffffffffffffffffffffffffffffffffffffffffffffffffffffffffff0016600117905551339285917f2f8788117e7eff1d82e926ec794901d17c78024a50270940304540a733656f0d9190a45050565b61243f8282611b90565b15610bad57600082815260226020908152604080832073ffffffffffffffffffffffffffffffffffffffff8516808552925280832080547fffffffffffffffffffffffffffffffffffffffffffffffffffffffffffffff0016905551339285917ff6391f5c32d9c69d2a47ea670b442974b53935d1edc7fd64eb21e047a839171b9190a45050565b6000600154600014156124db575060175490565b600154670de0b6b3a76400006014546016546124f5612a26565b6124ff91906136b1565b6125099190613644565b6125139190613644565b61251d91906134df565b60175461252a91906134c7565b905090565b60865460ff1661259b576040517f08c379a000000000000000000000000000000000000000000000000000000000815260206004820152601460248201527f5061757361626c653a206e6f742070617573656400000000000000000000000060448201526064016109a0565b608680547fffffffffffffffffffffffffffffffffffffffffffffffffffffffffffffff001690557f5db9ee0a495bf2e6ff9c91a7834c1ba4fdd244a5e8aa4e537bd38aeae4b073aa335b60405173ffffffffffffffffffffffffffffffffffffffff909116815260200160405180910390a1565b60865460ff161561267d576040517f08c379a000000000000000000000000000000000000000000000000000000000815260206004820152601060248201527f5061757361626c653a207061757365640000000000000000000000000000000060448201526064016109a0565b608680547fffffffffffffffffffffffffffffffffffffffffffffffffffffffffffffff001660011790557f62e78cea01bee320cd4e420270b5ea74000d11b0c9f74754ebdbfc544b05a2586125e63390565b6000612732826040518060400160405280602081526020017f5361666545524332303a206c6f772d6c6576656c2063616c6c206661696c65648152508573ffffffffffffffffffffffffffffffffffffffff16612a419092919063ffffffff16565b805190915015610b1f57808060200190518101906127509190613024565b610b1f576040517f08c379a000000000000000000000000000000000000000000000000000000000815260206004820152602a60248201527f5361666545524332303a204552433230206f7065726174696f6e20646964206e60448201527f6f7420737563636565640000000000000000000000000000000000000000000060648201526084016109a0565b606060006127eb836002613644565b6127f69060026134c7565b67ffffffffffffffff81111561280e5761280e613818565b6040519080825280601f01601f191660200182016040528015612838576020820181803683370190505b5090507f30000000000000000000000000000000000000000000000000000000000000008160008151811061286f5761286f6137e9565b60200101907effffffffffffffffffffffffffffffffffffffffffffffffffffffffffffff1916908160001a9053507f7800000000000000000000000000000000000000000000000000000000000000816001815181106128d2576128d26137e9565b60200101907effffffffffffffffffffffffffffffffffffffffffffffffffffffffffffff1916908160001a905350600061290e846002613644565b6129199060016134c7565b90505b60018111156129b6577f303132333435363738396162636465660000000000000000000000000000000085600f166010811061295a5761295a6137e9565b1a60f81b828281518110612970576129706137e9565b60200101907effffffffffffffffffffffffffffffffffffffffffffffffffffffffffffff1916908160001a90535060049490941c936129af816136f8565b905061291c565b508315612a1f576040517f08c379a000000000000000000000000000000000000000000000000000000000815260206004820181905260248201527f537472696e67733a20686578206c656e67746820696e73756666696369656e7460448201526064016109a0565b9392505050565b6000806013544210612a3a57601354611bc4565b4292915050565b6060612a508484600085612a58565b949350505050565b606082471015612aea576040517f08c379a000000000000000000000000000000000000000000000000000000000815260206004820152602660248201527f416464726573733a20696e73756666696369656e742062616c616e636520666f60448201527f722063616c6c000000000000000000000000000000000000000000000000000060648201526084016109a0565b843b612b52576040517f08c379a000000000000000000000000000000000000000000000000000000000815260206004820152601d60248201527f416464726573733a2063616c6c20746f206e6f6e2d636f6e747261637400000060448201526064016109a0565b6000808673ffffffffffffffffffffffffffffffffffffffff168587604051612b7b91906132ff565b60006040518083038185875af1925050503d8060008114612bb8576040519150601f19603f3d011682016040523d82523d6000602084013e612bbd565b606091505b5091509150612bcd828286612bd8565b979650505050505050565b60608315612be7575081612a1f565b825115612bf75782518084602001fd5b816040517f08c379a00000000000000000000000000000000000000000000000000000000081526004016109a09190613403565b82805482825590600052602060002090600301600490048101928215612cd65791602002820160005b83821115612ca057835183826101000a81548167ffffffffffffffff021916908367ffffffffffffffff1602179055509260200192600801602081600701049283019260010302612c54565b8015612cd45782816101000a81549067ffffffffffffffff0219169055600801602081600701049283019260010302612ca0565b505b50612ce2929150612d5a565b5090565b828054612cf29061372d565b90600052602060002090601f016020900481019282612d145760008555612cd6565b82601f10612d2d57805160ff1916838001178555612cd6565b82800160010185558215612cd6579182015b82811115612cd6578251825591602001919060010190612d3f565b5b80821115612ce25760008155600101612d5b565b8035612d7a81613847565b919050565b600082601f830112612d9057600080fd5b81356020612da5612da0836134a3565b613454565b80838252828201915082860187848660051b8901011115612dc557600080fd5b60005b85811015612deb57612dd982612df8565b84529284019290840190600101612dc8565b5090979650505050505050565b803567ffffffffffffffff81168114612d7a57600080fd5b600060208284031215612e2257600080fd5b8135612a1f81613847565b600080600060608486031215612e4257600080fd5b8335612e4d81613847565b92506020840135612e5d81613847565b929592945050506040919091013590565b60008060008060808587031215612e8457600080fd5b843567ffffffffffffffff811115612e9b57600080fd5b8501601f81018713612eac57600080fd5b80356020612ebc612da0836134a3565b8083825282820191508285018b848660051b8801011115612edc57600080fd5b600095505b84861015612f08578035612ef481613847565b835260019590950194918301918301612ee1565b509750612f189050888201612d6f565b9550505050612f2960408601612d6f565b9150612f3760608601612d6f565b905092959194509250565b60008060408385031215612f5557600080fd5b823567ffffffffffffffff80821115612f6d57600080fd5b612f7986838701612d7f565b93506020850135915080821115612f8f57600080fd5b50612f9c85828601612d7f565b9150509250929050565b600080600060608486031215612fbb57600080fd5b833567ffffffffffffffff80821115612fd357600080fd5b612fdf87838801612d7f565b94506020860135915080821115612ff557600080fd5b5061300286828701612d7f565b925050604084013560ff8116811461301957600080fd5b809150509250925092565b60006020828403121561303657600080fd5b81518015158114612a1f57600080fd5b60006020828403121561305857600080fd5b5035919050565b6000806040838503121561307257600080fd5b82359150602083013561308481613847565b809150509250929050565b600060208083850312156130a257600080fd5b823567ffffffffffffffff808211156130ba57600080fd5b818501915085601f8301126130ce57600080fd5b8135818111156130e0576130e0613818565b613110847fffffffffffffffffffffffffffffffffffffffffffffffffffffffffffffffe0601f84011601613454565b9150808252868482850101111561312657600080fd5b8084840185840137600090820190930192909252509392505050565b60006020828403121561315457600080fd5b5051919050565b6000806040838503121561316e57600080fd5b50508035926020909101359150565b60006020828403121561318f57600080fd5b612a1f82612df8565b600080604083850312156131ab57600080fd5b6131b483612df8565b91506131c260208401612df8565b90509250929050565b600081518084526020808501945080840160005b8381101561320557815167ffffffffffffffff16875295820195908201906001016131df565b509495945050505050565b805480835260008281526020808220940193909190825b8260038201101561327757815467ffffffffffffffff8082168852604082811c821660208a0152608083811c9092169089015260c09190911c606088015290950194600190910190600401613227565b905490828110156132995767ffffffffffffffff821686526020909501946001015b828110156132bc5767ffffffffffffffff604083901c1686526020909501946001015b828110156132df5767ffffffffffffffff608083901c1686526020909501946001015b828110156132f55760c082901c86526020860195505b5093949350505050565b600082516133118184602087016136c8565b9190910192915050565b7f416363657373436f6e74726f6c3a206163636f756e74200000000000000000008152600083516133538160178501602088016136c8565b7f206973206d697373696e6720726f6c652000000000000000000000000000000060179184019182015283516133908160288401602088016136c8565b01602801949350505050565b6060815260006133af60608301866131cb565b82810360208401526133c181866131cb565b91505060ff83166040830152949350505050565b6040815260006133e86040830185613210565b82810360208401526133fa8185613210565b95945050505050565b60208152600082518060208401526134228160408501602087016136c8565b601f017fffffffffffffffffffffffffffffffffffffffffffffffffffffffffffffffe0169190910160400192915050565b604051601f82017fffffffffffffffffffffffffffffffffffffffffffffffffffffffffffffffe016810167ffffffffffffffff8111828210171561349b5761349b613818565b604052919050565b600067ffffffffffffffff8211156134bd576134bd613818565b5060051b60200190565b600082198211156134da576134da6137ba565b500190565b600082613515577f4e487b7100000000000000000000000000000000000000000000000000000000600052601260045260246000fd5b500490565b600181815b8085111561357357817fffffffffffffffffffffffffffffffffffffffffffffffffffffffffffffffff04821115613559576135596137ba565b8085161561356657918102915b93841c939080029061351f565b509250929050565b6000612a1f60ff84168360008261359457506001611bc4565b816135a157506000611bc4565b81600181146135b757600281146135c1576135dd565b6001915050611bc4565b60ff8411156135d2576135d26137ba565b50506001821b611bc4565b5060208310610133831016604e8410600b8410161715613600575081810a611bc4565b61360a838361351a565b807fffffffffffffffffffffffffffffffffffffffffffffffffffffffffffffffff0482111561363c5761363c6137ba565b029392505050565b6000817fffffffffffffffffffffffffffffffffffffffffffffffffffffffffffffffff048311821515161561367c5761367c6137ba565b500290565b600067ffffffffffffffff808316818516818304811182151516156136a8576136a86137ba565b02949350505050565b6000828210156136c3576136c36137ba565b500390565b60005b838110156136e35781810151838201526020016136cb565b838111156136f2576000848401525b50505050565b600081613707576137076137ba565b507fffffffffffffffffffffffffffffffffffffffffffffffffffffffffffffffff0190565b600181811c9082168061374157607f821691505b6020821081141561377b577f4e487b7100000000000000000000000000000000000000000000000000000000600052602260045260246000fd5b50919050565b60007fffffffffffffffffffffffffffffffffffffffffffffffffffffffffffffffff8214156137b3576137b36137ba565b5060010190565b7f4e487b7100000000000000000000000000000000000000000000000000000000600052601160045260246000fd5b7f4e487b7100000000000000000000000000000000000000000000000000000000600052603260045260246000fd5b7f4e487b7100000000000000000000000000000000000000000000000000000000600052604160045260246000fd5b73ffffffffffffffffffffffffffffffffffffffff811681146111c257600080fdfea2646970667358221220fcfb323003ca9632284aa01fedf2bee2289de6569a364ffcf7b8e54e88637b4664736f6c63430008070033",
  "linkReferences": {},
  "deployedLinkReferences": {}
}