{
  "_format": "hh-sol-artifact-1",
  "contractName": "MockDestroy",
  "sourceName": "contracts/mock/MockDestroy.sol",
  "abi": [
    {
      "inputs": [
        {
          "internalType": "address payable",
          "name": "to",
          "type": "address"
        }
      ],
      "name": "destroyAndTransfer",
      "outputs": [],
      "stateMutability": "payable",
      "type": "function"
    }
  ],
  "bytecode": "0x608060405234801561001057600080fd5b5060bc8061001f6000396000f3fe608060405260043610601c5760003560e01c8063785e07b3146021575b600080fd5b6030602c366004604b565b6032565b005b8073ffffffffffffffffffffffffffffffffffffffff16ff5b600060208284031215605c57600080fd5b813573ffffffffffffffffffffffffffffffffffffffff81168114607f57600080fd5b939250505056fea2646970667358221220a65966df54ac7f9ff9bbabe12e03ecea467ff1292b7870e0ddc028696de0b4dc64736f6c63430008070033",
  "linkReferences": {},
  "deployedLinkReferences": {}
}