{
  "_format": "hh-sol-artifact-1",
  "contractName": "MockUniswapV3Pool",
  "sourceName": "contracts/mock/MockUniswapV3Pool.sol",
  "abi": [
    {
      "inputs": [
        {
          "internalType": "address",
          "name": "inputCur",
          "type": "address"
        },
        {
          "internalType": "address",
          "name": "outputCur",
          "type": "address"
        }
      ],
      "stateMutability": "nonpayable",
      "type": "constructor"
    },
    {
      "inputs": [],
      "name": "idxTick",
      "outputs": [
        {
          "internalType": "uint256",
          "name": "",
          "type": "uint256"
        }
      ],
      "stateMutability": "view",
      "type": "function"
    },
    {
      "inputs": [
        {
          "internalType": "uint16",
          "name": "observationCardinalityNext",
          "type": "uint16"
        }
      ],
      "name": "increaseObservationCardinalityNext",
      "outputs": [],
      "stateMutability": "nonpayable",
      "type": "function"
    },
    {
      "inputs": [
        {
          "internalType": "uint32[]",
          "name": "secondsAgos",
          "type": "uint32[]"
        }
      ],
      "name": "observe",
      "outputs": [
        {
          "internalType": "int56[]",
          "name": "tickCumulatives",
          "type": "int56[]"
        },
        {
          "internalType": "uint160[]",
          "name": "secondsPerLiquidityCumulativeX128s",
          "type": "uint160[]"
        }
      ],
      "stateMutability": "view",
      "type": "function"
    },
    {
      "inputs": [
        {
          "internalType": "uint256",
          "name": "",
          "type": "uint256"
        }
      ],
      "name": "ticks",
      "outputs": [
        {
          "internalType": "int24",
          "name": "",
          "type": "int24"
        }
      ],
      "stateMutability": "view",
      "type": "function"
    },
    {
      "inputs": [],
      "name": "token0",
      "outputs": [
        {
          "internalType": "address",
          "name": "",
          "type": "address"
        }
      ],
      "stateMutability": "view",
      "type": "function"
    },
    {
      "inputs": [],
      "name": "token1",
      "outputs": [
        {
          "internalType": "address",
          "name": "",
          "type": "address"
        }
      ],
      "stateMutability": "view",
      "type": "function"
    },
    {
      "inputs": [
        {
          "internalType": "int24[65535]",
          "name": "_ticks",
          "type": "int24[65535]"
        },
        {
          "internalType": "uint256",
          "name": "_idxTick",
          "type": "uint256"
        }
      ],
      "name": "updateAllTick",
      "outputs": [],
      "stateMutability": "nonpayable",
      "type": "function"
    },
    {
      "inputs": [
        {
          "internalType": "int24",
          "name": "tick",
          "type": "int24"
        }
      ],
      "name": "updateNextTick",
      "outputs": [],
      "stateMutability": "nonpayable",
      "type": "function"
    }
  ],
  "bytecode": "0x60c060405234801561001057600080fd5b506040516109cc3803806109cc83398101604081905261002f91610069565b6001600160601b0319606092831b8116608052911b1660a05261009c565b80516001600160a01b038116811461006457600080fd5b919050565b6000806040838503121561007c57600080fd5b6100858361004d565b91506100936020840161004d565b90509250929050565b60805160601c60a05160601c6109066100c6600039600061017b01526000609201526109066000f3fe608060405234801561001057600080fd5b50600436106100885760003560e01c8063534cb30d1161005b578063534cb30d1461011c578063883bdbfd146101425780638d17d2be14610163578063d21220a71461017657600080fd5b80630dfe16811461008d57806314553567146100de57806332148f67146100f357806343affdf514610104575b600080fd5b6100b47f000000000000000000000000000000000000000000000000000000000000000081565b60405173ffffffffffffffffffffffffffffffffffffffff90911681526020015b60405180910390f35b6100f16100ec3660046106c2565b61019d565b005b6100f16101013660046106e4565b50565b61010e61199a5481565b6040519081526020016100d5565b61012f61012a366004610708565b610296565b60405160029190910b81526020016100d5565b61015561015036600461064d565b6102c4565b6040516100d5929190610747565b6100f16101713660046105b4565b6104d2565b6100b47f000000000000000000000000000000000000000000000000000000000000000081565b61ffff61199a5410610236576040517f08c379a000000000000000000000000000000000000000000000000000000000815260206004820152603260248201527f4d6f636b556e6973776170506f6f6c3a3a7570646174654e6578745469636b3a60448201527f206c696d6974206964782072656163686564000000000000000000000000000060648201526084015b60405180910390fd5b600161199a600082825461024a91906107db565b9250508190555080600061199a5461ffff811061026957610269610872565b600a91828204019190066003026101000a81548162ffffff021916908360020b62ffffff16021790555050565b60008161ffff81106102a757600080fd5b600a9182820401919006600302915054906101000a900460020b81565b6060808267ffffffffffffffff8111156102e0576102e06108a1565b604051908082528060200260200182016040528015610309578160200160208202803683370190505b5091508267ffffffffffffffff811115610325576103256108a1565b60405190808252806020026020018201604052801561034e578160200160208202803683370190505b50905060005b838110156104ca57600085858381811061037057610370610872565b90506020020160208101906103859190610721565b63ffffffff1661199a5461039991906107f3565b1015610427576040517f08c379a000000000000000000000000000000000000000000000000000000000815260206004820152602860248201527f4d6f636b556e6973776170506f6f6c3a3a6f6273657276653a206c6f6f6b656460448201527f20746f6f20666172000000000000000000000000000000000000000000000000606482015260840161022d565b600085858381811061043b5761043b610872565b90506020020160208101906104509190610721565b63ffffffff1661199a5461046491906107f3565b61ffff811061047557610475610872565b600a91828204019190066003029054906101000a900460020b60020b8382815181106104a3576104a3610872565b602002602001019060060b908160060b8152505080806104c29061080a565b915050610354565b509250929050565b61199a8190556104e660008361ffff6104eb565b505050565b61199a830191839082156105785791602002820160005b8382111561054757835183826101000a81548162ffffff021916908360020b62ffffff1602179055509260200192600301602081600201049283019260010302610502565b80156105765782816101000a81549062ffffff0219169055600301602081600201049283019260010302610547565b505b50610584929150610588565b5090565b5b808211156105845760008155600101610589565b8035600281900b81146105af57600080fd5b919050565b6000806220000083850312156105c957600080fd5b83601f8401126105d857600080fd5b604051621fffe080820182811067ffffffffffffffff821117156105fe576105fe6108a1565b604052840181858783111561061257600080fd5b60005b61ffff81101561063d576106288261059d565b83526020928301929190910190600101610615565b5092979135965090945050505050565b6000806020838503121561066057600080fd5b823567ffffffffffffffff8082111561067857600080fd5b818501915085601f83011261068c57600080fd5b81358181111561069b57600080fd5b8660208260051b85010111156106b057600080fd5b60209290920196919550909350505050565b6000602082840312156106d457600080fd5b6106dd8261059d565b9392505050565b6000602082840312156106f657600080fd5b813561ffff811681146106dd57600080fd5b60006020828403121561071a57600080fd5b5035919050565b60006020828403121561073357600080fd5b813563ffffffff811681146106dd57600080fd5b604080825283519082018190526000906020906060840190828701845b8281101561078357815160060b84529284019290840190600101610764565b5050508381038285015284518082528583019183019060005b818110156107ce57835173ffffffffffffffffffffffffffffffffffffffff168352928401929184019160010161079c565b5090979650505050505050565b600082198211156107ee576107ee610843565b500190565b60008282101561080557610805610843565b500390565b60007fffffffffffffffffffffffffffffffffffffffffffffffffffffffffffffffff82141561083c5761083c610843565b5060010190565b7f4e487b7100000000000000000000000000000000000000000000000000000000600052601160045260246000fd5b7f4e487b7100000000000000000000000000000000000000000000000000000000600052603260045260246000fd5b7f4e487b7100000000000000000000000000000000000000000000000000000000600052604160045260246000fdfea2646970667358221220a01224a328214986ce8283f5fd255ed0e8978028e4effbf1bb9190a18d444d7764736f6c63430008070033",
  "linkReferences": {},
  "deployedLinkReferences": {}
}