{
  "_format": "hh-sol-artifact-1",
  "contractName": "SurplusConverterUniV2Sushi",
  "sourceName": "contracts/surplus/SurplusConverterUniV2Sushi.sol",
  "abi": [
    {
      "inputs": [
        {
          "internalType": "address",
          "name": "_rewardToken",
          "type": "address"
        },
        {
          "internalType": "address",
          "name": "_feeDistributor",
          "type": "address"
        },
        {
          "internalType": "address",
          "name": "_uniswapV2Router",
          "type": "address"
        },
        {
          "internalType": "address",
          "name": "_sushiswapRouter",
          "type": "address"
        },
        {
          "internalType": "address",
          "name": "whitelisted",
          "type": "address"
        },
        {
          "internalType": "address",
          "name": "governor",
          "type": "address"
        },
        {
          "internalType": "address[]",
          "name": "guardians",
          "type": "address[]"
        }
      ],
      "stateMutability": "nonpayable",
      "type": "constructor"
    },
    {
      "anonymous": false,
      "inputs": [
        {
          "indexed": true,
          "internalType": "address",
          "name": "newFeeDistributor",
          "type": "address"
        },
        {
          "indexed": true,
          "internalType": "address",
          "name": "oldFeeDistributor",
          "type": "address"
        }
      ],
      "name": "FeeDistributorUpdated",
      "type": "event"
    },
    {
      "anonymous": false,
      "inputs": [
        {
          "indexed": true,
          "internalType": "address",
          "name": "token",
          "type": "address"
        },
        {
          "indexed": false,
          "internalType": "address[]",
          "name": "path",
          "type": "address[]"
        },
        {
          "indexed": false,
          "internalType": "uint8",
          "name": "typePath",
          "type": "uint8"
        }
      ],
      "name": "PathAdded",
      "type": "event"
    },
    {
      "anonymous": false,
      "inputs": [
        {
          "indexed": true,
          "internalType": "address",
          "name": "token",
          "type": "address"
        },
        {
          "indexed": false,
          "internalType": "uint8",
          "name": "_type",
          "type": "uint8"
        }
      ],
      "name": "PathRevoked",
      "type": "event"
    },
    {
      "anonymous": false,
      "inputs": [
        {
          "indexed": false,
          "internalType": "address",
          "name": "account",
          "type": "address"
        }
      ],
      "name": "Paused",
      "type": "event"
    },
    {
      "anonymous": false,
      "inputs": [
        {
          "indexed": true,
          "internalType": "address",
          "name": "tokenAddress",
          "type": "address"
        },
        {
          "indexed": true,
          "internalType": "address",
          "name": "to",
          "type": "address"
        },
        {
          "indexed": false,
          "internalType": "uint256",
          "name": "amount",
          "type": "uint256"
        }
      ],
      "name": "Recovered",
      "type": "event"
    },
    {
      "anonymous": false,
      "inputs": [
        {
          "indexed": true,
          "internalType": "bytes32",
          "name": "role",
          "type": "bytes32"
        },
        {
          "indexed": true,
          "internalType": "bytes32",
          "name": "previousAdminRole",
          "type": "bytes32"
        },
        {
          "indexed": true,
          "internalType": "bytes32",
          "name": "newAdminRole",
          "type": "bytes32"
        }
      ],
      "name": "RoleAdminChanged",
      "type": "event"
    },
    {
      "anonymous": false,
      "inputs": [
        {
          "indexed": true,
          "internalType": "bytes32",
          "name": "role",
          "type": "bytes32"
        },
        {
          "indexed": true,
          "internalType": "address",
          "name": "account",
          "type": "address"
        },
        {
          "indexed": true,
          "internalType": "address",
          "name": "sender",
          "type": "address"
        }
      ],
      "name": "RoleGranted",
      "type": "event"
    },
    {
      "anonymous": false,
      "inputs": [
        {
          "indexed": true,
          "internalType": "bytes32",
          "name": "role",
          "type": "bytes32"
        },
        {
          "indexed": true,
          "internalType": "address",
          "name": "account",
          "type": "address"
        },
        {
          "indexed": true,
          "internalType": "address",
          "name": "sender",
          "type": "address"
        }
      ],
      "name": "RoleRevoked",
      "type": "event"
    },
    {
      "anonymous": false,
      "inputs": [
        {
          "indexed": false,
          "internalType": "address",
          "name": "account",
          "type": "address"
        }
      ],
      "name": "Unpaused",
      "type": "event"
    },
    {
      "inputs": [],
      "name": "DEFAULT_ADMIN_ROLE",
      "outputs": [
        {
          "internalType": "bytes32",
          "name": "",
          "type": "bytes32"
        }
      ],
      "stateMutability": "view",
      "type": "function"
    },
    {
      "inputs": [],
      "name": "GOVERNOR_ROLE",
      "outputs": [
        {
          "internalType": "bytes32",
          "name": "",
          "type": "bytes32"
        }
      ],
      "stateMutability": "view",
      "type": "function"
    },
    {
      "inputs": [],
      "name": "GUARDIAN_ROLE",
      "outputs": [
        {
          "internalType": "bytes32",
          "name": "",
          "type": "bytes32"
        }
      ],
      "stateMutability": "view",
      "type": "function"
    },
    {
      "inputs": [],
      "name": "WHITELISTED_ROLE",
      "outputs": [
        {
          "internalType": "bytes32",
          "name": "",
          "type": "bytes32"
        }
      ],
      "stateMutability": "view",
      "type": "function"
    },
    {
      "inputs": [
        {
          "internalType": "address",
          "name": "token",
          "type": "address"
        },
        {
          "internalType": "address[]",
          "name": "path",
          "type": "address[]"
        },
        {
          "internalType": "uint8",
          "name": "typePath",
          "type": "uint8"
        }
      ],
      "name": "addToken",
      "outputs": [],
      "stateMutability": "nonpayable",
      "type": "function"
    },
    {
      "inputs": [
        {
          "internalType": "address",
          "name": "token",
          "type": "address"
        }
      ],
      "name": "burn",
      "outputs": [],
      "stateMutability": "nonpayable",
      "type": "function"
    },
    {
      "inputs": [
        {
          "internalType": "address",
          "name": "token",
          "type": "address"
        },
        {
          "internalType": "uint256",
          "name": "amount",
          "type": "uint256"
        },
        {
          "internalType": "uint256",
          "name": "minAmount",
          "type": "uint256"
        },
        {
          "internalType": "bool",
          "name": "transfer",
          "type": "bool"
        }
      ],
      "name": "buyback",
      "outputs": [],
      "stateMutability": "nonpayable",
      "type": "function"
    },
    {
      "inputs": [],
      "name": "feeDistributor",
      "outputs": [
        {
          "internalType": "contract IFeeDistributor",
          "name": "",
          "type": "address"
        }
      ],
      "stateMutability": "view",
      "type": "function"
    },
    {
      "inputs": [
        {
          "internalType": "address",
          "name": "token",
          "type": "address"
        },
        {
          "internalType": "uint8",
          "name": "typePath",
          "type": "uint8"
        }
      ],
      "name": "getPath",
      "outputs": [
        {
          "internalType": "address[]",
          "name": "",
          "type": "address[]"
        }
      ],
      "stateMutability": "view",
      "type": "function"
    },
    {
      "inputs": [
        {
          "internalType": "bytes32",
          "name": "role",
          "type": "bytes32"
        }
      ],
      "name": "getRoleAdmin",
      "outputs": [
        {
          "internalType": "bytes32",
          "name": "",
          "type": "bytes32"
        }
      ],
      "stateMutability": "view",
      "type": "function"
    },
    {
      "inputs": [
        {
          "internalType": "bytes32",
          "name": "role",
          "type": "bytes32"
        },
        {
          "internalType": "address",
          "name": "account",
          "type": "address"
        }
      ],
      "name": "grantRole",
      "outputs": [],
      "stateMutability": "nonpayable",
      "type": "function"
    },
    {
      "inputs": [
        {
          "internalType": "bytes32",
          "name": "role",
          "type": "bytes32"
        },
        {
          "internalType": "address",
          "name": "account",
          "type": "address"
        }
      ],
      "name": "hasRole",
      "outputs": [
        {
          "internalType": "bool",
          "name": "",
          "type": "bool"
        }
      ],
      "stateMutability": "view",
      "type": "function"
    },
    {
      "inputs": [],
      "name": "pause",
      "outputs": [],
      "stateMutability": "nonpayable",
      "type": "function"
    },
    {
      "inputs": [],
      "name": "paused",
      "outputs": [
        {
          "internalType": "bool",
          "name": "",
          "type": "bool"
        }
      ],
      "stateMutability": "view",
      "type": "function"
    },
    {
      "inputs": [
        {
          "internalType": "address",
          "name": "tokenAddress",
          "type": "address"
        },
        {
          "internalType": "address",
          "name": "to",
          "type": "address"
        },
        {
          "internalType": "uint256",
          "name": "amount",
          "type": "uint256"
        }
      ],
      "name": "recoverERC20",
      "outputs": [],
      "stateMutability": "nonpayable",
      "type": "function"
    },
    {
      "inputs": [
        {
          "internalType": "bytes32",
          "name": "role",
          "type": "bytes32"
        },
        {
          "internalType": "address",
          "name": "account",
          "type": "address"
        }
      ],
      "name": "renounceRole",
      "outputs": [],
      "stateMutability": "nonpayable",
      "type": "function"
    },
    {
      "inputs": [
        {
          "internalType": "bytes32",
          "name": "role",
          "type": "bytes32"
        },
        {
          "internalType": "address",
          "name": "account",
          "type": "address"
        }
      ],
      "name": "revokeRole",
      "outputs": [],
      "stateMutability": "nonpayable",
      "type": "function"
    },
    {
      "inputs": [
        {
          "internalType": "address",
          "name": "token",
          "type": "address"
        },
        {
          "internalType": "uint8",
          "name": "_type",
          "type": "uint8"
        }
      ],
      "name": "revokeToken",
      "outputs": [],
      "stateMutability": "nonpayable",
      "type": "function"
    },
    {
      "inputs": [],
      "name": "rewardToken",
      "outputs": [
        {
          "internalType": "contract IERC20",
          "name": "",
          "type": "address"
        }
      ],
      "stateMutability": "view",
      "type": "function"
    },
    {
      "inputs": [],
      "name": "sendToFeeDistributor",
      "outputs": [],
      "stateMutability": "nonpayable",
      "type": "function"
    },
    {
      "inputs": [
        {
          "internalType": "address",
          "name": "_feeDistributor",
          "type": "address"
        }
      ],
      "name": "setFeeDistributor",
      "outputs": [],
      "stateMutability": "nonpayable",
      "type": "function"
    },
    {
      "inputs": [
        {
          "internalType": "address",
          "name": "",
          "type": "address"
        },
        {
          "internalType": "uint256",
          "name": "",
          "type": "uint256"
        }
      ],
      "name": "sushiswapPaths",
      "outputs": [
        {
          "internalType": "address",
          "name": "",
          "type": "address"
        }
      ],
      "stateMutability": "view",
      "type": "function"
    },
    {
      "inputs": [],
      "name": "sushiswapRouter",
      "outputs": [
        {
          "internalType": "contract IUniswapV2Router",
          "name": "",
          "type": "address"
        }
      ],
      "stateMutability": "view",
      "type": "function"
    },
    {
      "inputs": [
        {
          "internalType": "address",
          "name": "",
          "type": "address"
        },
        {
          "internalType": "uint256",
          "name": "",
          "type": "uint256"
        }
      ],
      "name": "uniswapPaths",
      "outputs": [
        {
          "internalType": "address",
          "name": "",
          "type": "address"
        }
      ],
      "stateMutability": "view",
      "type": "function"
    },
    {
      "inputs": [],
      "name": "uniswapV2Router",
      "outputs": [
        {
          "internalType": "contract IUniswapV2Router",
          "name": "",
          "type": "address"
        }
      ],
      "stateMutability": "view",
      "type": "function"
    },
    {
      "inputs": [],
      "name": "unpause",
      "outputs": [],
      "stateMutability": "nonpayable",
      "type": "function"
    }
  ],
  "bytecode": "0x60e06040523480156200001157600080fd5b50604051620039a4380380620039a48339810160408190526200003491620008a4565b6001805460ff1916905586868484846001600160a01b038416158015906200006457506001600160a01b03831615155b80156200007957506001600160a01b03821615155b620000af5760405162461bcd60e51b81526020600482015260016024820152600360fc1b60448201526064015b60405180910390fd5b60018054610100600160a81b0319166101006001600160a01b038781169190910291909117909155606086901b6001600160601b031916608052620001069086168560001962000331602090811b620019d817901c565b60008151116200013f5760405162461bcd60e51b815260206004820152600360248201526231303160e81b6044820152606401620000a6565b60005b8151811015620002035760006001600160a01b03168282815181106200016c576200016c62000ae3565b60200260200101516001600160a01b03161415620001b15760405162461bcd60e51b81526020600482015260016024820152600360fc1b6044820152606401620000a6565b620001ee60008051602062003984833981519152838381518110620001da57620001da62000ae3565b60200260200101516200049060201b60201c565b80620001fa8162000ab9565b91505062000142565b506200021f600080516020620039648339815191528462000490565b6200023a600080516020620039448339815191528362000490565b620002556000805160206200394483398151915280620004a0565b6200027f6000805160206200398483398151915260008051602062003944833981519152620004a0565b620002a96000805160206200396483398151915260008051602062003984833981519152620004a0565b620002b3620004f4565b50505050506001600160a01b03851615801590620002d957506001600160a01b03841615155b6200030b5760405162461bcd60e51b81526020600482015260016024820152600360fc1b6044820152606401620000a6565b5050506001600160601b0319606091821b811660c05291901b1660a0525062000b0f9050565b801580620003bf5750604051636eb1769f60e11b81523060048201526001600160a01b03838116602483015284169063dd62ed3e9060440160206040518083038186803b1580156200038257600080fd5b505afa15801562000397573d6000803e3d6000fd5b505050506040513d601f19601f82011682018060405250810190620003bd919062000a19565b155b620004335760405162461bcd60e51b815260206004820152603660248201527f5361666545524332303a20617070726f76652066726f6d206e6f6e2d7a65726f60448201527f20746f206e6f6e2d7a65726f20616c6c6f77616e6365000000000000000000006064820152608401620000a6565b604080516001600160a01b038416602482015260448082018490528251808303909101815260649091019091526020810180516001600160e01b0390811663095ea7b360e01b179091526200048b9185916200057d16565b505050565b6200049c82826200065b565b5050565b600082815260208190526040902060010154819060405184907fbd79b86ffe0ab8e8776151514217cd7cacd52c909f66475c3af44e129f0b00ff90600090a460009182526020829052604090912060010155565b60015460ff16156200053c5760405162461bcd60e51b815260206004820152601060248201526f14185d5cd8589b194e881c185d5cd95960821b6044820152606401620000a6565b6001805460ff1916811790556040805133815290517f62e78cea01bee320cd4e420270b5ea74000d11b0c9f74754ebdbfc544b05a2589181900360200190a1565b6000620005d9826040518060400160405280602081526020017f5361666545524332303a206c6f772d6c6576656c2063616c6c206661696c6564815250856001600160a01b0316620006fb60201b62001be7179092919060201c565b8051909150156200048b5780806020019051810190620005fa9190620009f5565b6200048b5760405162461bcd60e51b815260206004820152602a60248201527f5361666545524332303a204552433230206f7065726174696f6e20646964206e6044820152691bdd081cdd58d8d9595960b21b6064820152608401620000a6565b6000828152602081815260408083206001600160a01b038516845290915290205460ff166200049c576000828152602081815260408083206001600160a01b03851684529091529020805460ff19166001179055620006b73390565b6001600160a01b0316816001600160a01b0316837f2f8788117e7eff1d82e926ec794901d17c78024a50270940304540a733656f0d60405160405180910390a45050565b60606200070c848460008562000716565b90505b9392505050565b606082471015620007795760405162461bcd60e51b815260206004820152602660248201527f416464726573733a20696e73756666696369656e742062616c616e636520666f6044820152651c8818d85b1b60d21b6064820152608401620000a6565b843b620007c95760405162461bcd60e51b815260206004820152601d60248201527f416464726573733a2063616c6c20746f206e6f6e2d636f6e74726163740000006044820152606401620000a6565b600080866001600160a01b03168587604051620007e7919062000a33565b60006040518083038185875af1925050503d806000811462000826576040519150601f19603f3d011682016040523d82523d6000602084013e6200082b565b606091505b5090925090506200083e82828662000849565b979650505050505050565b606083156200085a5750816200070f565b8251156200086b5782518084602001fd5b8160405162461bcd60e51b8152600401620000a6919062000a51565b80516001600160a01b03811681146200089f57600080fd5b919050565b600080600080600080600060e0888a031215620008c057600080fd5b620008cb8862000887565b96506020620008dc818a0162000887565b9650620008ec60408a0162000887565b9550620008fc60608a0162000887565b94506200090c60808a0162000887565b93506200091c60a08a0162000887565b60c08a01519093506001600160401b03808211156200093a57600080fd5b818b0191508b601f8301126200094f57600080fd5b81518181111562000964576200096462000af9565b8060051b604051601f19603f830116810181811085821117156200098c576200098c62000af9565b806040525080935082815285810193508585018f87848801011115620009b157600080fd5b600095505b83861015620009df57620009ca8162000887565b855260019590950194938601938601620009b6565b5080965050505050505092959891949750929550565b60006020828403121562000a0857600080fd5b815180151581146200070f57600080fd5b60006020828403121562000a2c57600080fd5b5051919050565b6000825162000a4781846020870162000a86565b9190910192915050565b602081526000825180602084015262000a7281604085016020870162000a86565b601f01601f19169190910160400192915050565b60005b8381101562000aa357818101518382015260200162000a89565b8381111562000ab3576000848401525b50505050565b600060001982141562000adc57634e487b7160e01b600052601160045260246000fd5b5060010190565b634e487b7160e01b600052603260045260246000fd5b634e487b7160e01b600052604160045260246000fd5b60805160601c60a05160601c60c05160601c612d9a62000baa60003960008181610442015281816105c10152818161072201528181610cfc015281816112e3015261161701526000818161021c01528181610642015281816106e001528181610dc3015281816112c101526116bf0152600081816104690152818161087801528181610b9b0152818161177501526118e30152612d9a6000f3fe608060405234801561001057600080fd5b50600436106101ae5760003560e01c80637a3226ec116100ee578063a217fddf11610097578063ccfc2e8d11610071578063ccfc2e8d14610417578063d547741f1461042a578063e9240c2d1461043d578063f7c618c11461046457600080fd5b8063a217fddf146103d5578063adce2058146103dd578063ccc57490146103f057600080fd5b806389afcb44116100c857806389afcb441461036b5780638ea673861461037e57806391d148541461039157600080fd5b80637a3226ec146103295780637d44446b146103505780638456cb591461036357600080fd5b80632f2ff15d1161015b5780633f4ba83a116101355780633f4ba83a146102d75780635c975abb146102df5780636be33682146102f65780636f61d1da1461031657600080fd5b80632f2ff15d146102a957806333baecb2146102bc57806336568abe146102c457600080fd5b80631d07cb971161018c5780631d07cb971461023e578063248a9ca31461025157806324ea54f41461028257600080fd5b80630d43e8ad146101b35780631171bda9146102025780631694505e14610217575b600080fd5b6001546101d890610100900473ffffffffffffffffffffffffffffffffffffffff1681565b60405173ffffffffffffffffffffffffffffffffffffffff90911681526020015b60405180910390f35b6102156102103660046126fe565b61048b565b005b6101d87f000000000000000000000000000000000000000000000000000000000000000081565b61021561024c366004612873565b610544565b61027461025f36600461295b565b60009081526020819052604090206001015490565b6040519081526020016101f9565b6102747f55435dd261a4b9b3364963f7738a7a662ad9c84396d64be3365284bb7f0a504181565b6102156102b7366004612974565b61079b565b6102156107c6565b6102156102d2366004612974565b6108e5565b610215610972565b60015460ff165b60405190151581526020016101f9565b610309610304366004612873565b6109a8565b6040516101f99190612a9e565b61021561032436600461273a565b610ace565b6102747f8429d542926e6695b59ac6fbdcd9b37e8b1aeb757afab06ab60b1bb5878c3b4981565b6101d861035e366004612801565b610e97565b610215610edc565b6102156103793660046126e3565b610f0f565b6101d861038c366004612801565b611040565b6102e661039f366004612974565b60009182526020828152604080842073ffffffffffffffffffffffffffffffffffffffff93909316845291905290205460ff1690565b610274600081565b6102156103eb36600461282b565b61105c565b6102747f7935bd0ae54bc31f548c14dba4d37c5c64b3f8ca900cb468fb8abd54d5894f5581565b6102156104253660046126e3565b6117ea565b610215610438366004612974565b6119b2565b6101d87f000000000000000000000000000000000000000000000000000000000000000081565b6101d87f000000000000000000000000000000000000000000000000000000000000000081565b7f7935bd0ae54bc31f548c14dba4d37c5c64b3f8ca900cb468fb8abd54d5894f556104b68133611c00565b6104d773ffffffffffffffffffffffffffffffffffffffff85168484611cd0565b8273ffffffffffffffffffffffffffffffffffffffff168473ffffffffffffffffffffffffffffffffffffffff167ffff3b3844276f57024e0b42afec1a37f75db36511e43819a4f2a63ab7862b6488460405161053691815260200190565b60405180910390a350505050565b7f55435dd261a4b9b3364963f7738a7a662ad9c84396d64be3365284bb7f0a504161056f8133611c00565b60ff82166105ec5773ffffffffffffffffffffffffffffffffffffffff831660009081526003602052604081206105a5916125ec565b6105e773ffffffffffffffffffffffffffffffffffffffff84167f000000000000000000000000000000000000000000000000000000000000000060006119d8565b610748565b8160ff16600114156106685773ffffffffffffffffffffffffffffffffffffffff83166000908152600260205260408120610626916125ec565b6105e773ffffffffffffffffffffffffffffffffffffffff84167f000000000000000000000000000000000000000000000000000000000000000060006119d8565b73ffffffffffffffffffffffffffffffffffffffff83166000908152600360205260408120610696916125ec565b73ffffffffffffffffffffffffffffffffffffffff831660009081526002602052604081206106c4916125ec565b61070673ffffffffffffffffffffffffffffffffffffffff84167f000000000000000000000000000000000000000000000000000000000000000060006119d8565b61074873ffffffffffffffffffffffffffffffffffffffff84167f000000000000000000000000000000000000000000000000000000000000000060006119d8565b60405160ff8316815273ffffffffffffffffffffffffffffffffffffffff8416907f94cd3fce61cf31c8a5ee4269157e54e99b6dedddf95b927512d18aaa19c62d5c9060200160405180910390a2505050565b6000828152602081905260409020600101546107b78133611c00565b6107c18383611d26565b505050565b60015460ff1615610838576040517f08c379a000000000000000000000000000000000000000000000000000000000815260206004820152601060248201527f5061757361626c653a207061757365640000000000000000000000000000000060448201526064015b60405180910390fd5b6001546040517f89afcb4400000000000000000000000000000000000000000000000000000000815273ffffffffffffffffffffffffffffffffffffffff7f000000000000000000000000000000000000000000000000000000000000000081166004830152610100909204909116906389afcb4490602401600060405180830381600087803b1580156108cb57600080fd5b505af11580156108df573d6000803e3d6000fd5b50505050565b73ffffffffffffffffffffffffffffffffffffffff81163314610964576040517f08c379a000000000000000000000000000000000000000000000000000000000815260206004820152600260248201527f3731000000000000000000000000000000000000000000000000000000000000604482015260640161082f565b61096e8282611e16565b5050565b7f55435dd261a4b9b3364963f7738a7a662ad9c84396d64be3365284bb7f0a504161099d8133611c00565b6109a5611ecd565b50565b606060ff8216610a405773ffffffffffffffffffffffffffffffffffffffff831660009081526003602090815260409182902080548351818402810184019094528084529091830182828015610a3457602002820191906000526020600020905b815473ffffffffffffffffffffffffffffffffffffffff168152600190910190602001808311610a09575b50505050509050610ac8565b73ffffffffffffffffffffffffffffffffffffffff831660009081526002602090815260409182902080548351818402810184019094528084529091830182828015610a345760200282019190600052602060002090815473ffffffffffffffffffffffffffffffffffffffff168152600190910190602001808311610a0957505050505090505b92915050565b7f55435dd261a4b9b3364963f7738a7a662ad9c84396d64be3365284bb7f0a5041610af98133611c00565b73ffffffffffffffffffffffffffffffffffffffff8416610b76576040517f08c379a000000000000000000000000000000000000000000000000000000000815260206004820152600160248201527f3000000000000000000000000000000000000000000000000000000000000000604482015260640161082f565b825160028110801590610bf7575073ffffffffffffffffffffffffffffffffffffffff7f00000000000000000000000000000000000000000000000000000000000000001684610bc7600184612c51565b81518110610bd757610bd7612cf8565b602002602001015173ffffffffffffffffffffffffffffffffffffffff16145b8015610c4857508473ffffffffffffffffffffffffffffffffffffffff1684600081518110610c2857610c28612cf8565b602002602001015173ffffffffffffffffffffffffffffffffffffffff16145b610cae576040517f08c379a000000000000000000000000000000000000000000000000000000000815260206004820152600360248201527f3131310000000000000000000000000000000000000000000000000000000000604482015260640161082f565b60ff8316610d7d5773ffffffffffffffffffffffffffffffffffffffff8516600090815260036020526040902054610d4157610d4173ffffffffffffffffffffffffffffffffffffffff86167f00000000000000000000000000000000000000000000000000000000000000007fffffffffffffffffffffffffffffffffffffffffffffffffffffffffffffffff6119d8565b73ffffffffffffffffffffffffffffffffffffffff851660009081526003602090815260409091208551610d779287019061260a565b50610e40565b73ffffffffffffffffffffffffffffffffffffffff8516600090815260026020526040902054610e0857610e0873ffffffffffffffffffffffffffffffffffffffff86167f00000000000000000000000000000000000000000000000000000000000000007fffffffffffffffffffffffffffffffffffffffffffffffffffffffffffffffff6119d8565b73ffffffffffffffffffffffffffffffffffffffff851660009081526002602090815260409091208551610e3e9287019061260a565b505b8473ffffffffffffffffffffffffffffffffffffffff167f473a276f7caa6d220014152aa95eaa859595db2121b3d58c25b8808319e5a3158585604051610e88929190612ab1565b60405180910390a25050505050565b60036020528160005260406000208181548110610eb357600080fd5b60009182526020909120015473ffffffffffffffffffffffffffffffffffffffff169150829050565b7f55435dd261a4b9b3364963f7738a7a662ad9c84396d64be3365284bb7f0a5041610f078133611c00565b6109a5611fae565b60015460ff1615610f7c576040517f08c379a000000000000000000000000000000000000000000000000000000000815260206004820152601060248201527f5061757361626c653a2070617573656400000000000000000000000000000000604482015260640161082f565b6040517f70a0823100000000000000000000000000000000000000000000000000000000815233600482018190526109a591309073ffffffffffffffffffffffffffffffffffffffff8516906370a082319060240160206040518083038186803b158015610fe957600080fd5b505afa158015610ffd573d6000803e3d6000fd5b505050506040513d601f19601f820116820180604052508101906110219190612997565b73ffffffffffffffffffffffffffffffffffffffff851692919061206c565b60026020528160005260406000208181548110610eb357600080fd5b60015460ff16156110c9576040517f08c379a000000000000000000000000000000000000000000000000000000000815260206004820152601060248201527f5061757361626c653a2070617573656400000000000000000000000000000000604482015260640161082f565b7f8429d542926e6695b59ac6fbdcd9b37e8b1aeb757afab06ab60b1bb5878c3b496110f48133611c00565b73ffffffffffffffffffffffffffffffffffffffff851660009081526003602090815260408083208054825181850281018501909352808352919290919083018282801561117857602002820191906000526020600020905b815473ffffffffffffffffffffffffffffffffffffffff16815260019091019060200180831161114d575b5050505073ffffffffffffffffffffffffffffffffffffffff88166000908152600260209081526040808320805482518185028101850190935280835295965092949093509083018282801561120457602002820191906000526020600020905b815473ffffffffffffffffffffffffffffffffffffffff1681526001909101906020018083116111d9575b5050505050905060008251118061121c575060008151115b611282576040517f08c379a000000000000000000000000000000000000000000000000000000000815260206004820152600260248201527f3230000000000000000000000000000000000000000000000000000000000000604482015260640161082f565b60008251118015611294575060008151115b156115d3576040517fd06ca61f0000000000000000000000000000000000000000000000000000000081527f0000000000000000000000000000000000000000000000000000000000000000907f00000000000000000000000000000000000000000000000000000000000000009060009073ffffffffffffffffffffffffffffffffffffffff84169063d06ca61f90611334908c908890600401612b27565b60006040518083038186803b15801561134c57600080fd5b505afa158015611360573d6000803e3d6000fd5b505050506040513d6000823e601f3d9081017fffffffffffffffffffffffffffffffffffffffffffffffffffffffffffffffe01682016040526113a691908101906128a6565b905060008273ffffffffffffffffffffffffffffffffffffffff1663d06ca61f8b886040518363ffffffff1660e01b81526004016113e5929190612b27565b60006040518083038186803b1580156113fd57600080fd5b505afa158015611411573d6000803e3d6000fd5b505050506040513d6000823e601f3d9081017fffffffffffffffffffffffffffffffffffffffffffffffffffffffffffffffe016820160405261145791908101906128a6565b905080600182516114689190612c51565b8151811061147857611478612cf8565b6020026020010151826001845161148f9190612c51565b8151811061149f5761149f612cf8565b60200260200101511061153d576040517f38ed173900000000000000000000000000000000000000000000000000000000815273ffffffffffffffffffffffffffffffffffffffff8516906338ed173990611506908d908d908a9030904290600401612b40565b600060405180830381600087803b15801561152057600080fd5b505af1158015611534573d6000803e3d6000fd5b505050506115ca565b6040517f38ed173900000000000000000000000000000000000000000000000000000000815273ffffffffffffffffffffffffffffffffffffffff8416906338ed173990611597908d908d908b9030904290600401612b40565b600060405180830381600087803b1580156115b157600080fd5b505af11580156115c5573d6000803e3d6000fd5b505050505b5050505061172f565b815115611682576040517f38ed173900000000000000000000000000000000000000000000000000000000815273ffffffffffffffffffffffffffffffffffffffff7f000000000000000000000000000000000000000000000000000000000000000016906338ed1739906116549089908990879030904290600401612b40565b600060405180830381600087803b15801561166e57600080fd5b505af11580156115ca573d6000803e3d6000fd5b6040517f38ed173900000000000000000000000000000000000000000000000000000000815273ffffffffffffffffffffffffffffffffffffffff7f000000000000000000000000000000000000000000000000000000000000000016906338ed1739906116fc9089908990869030904290600401612b40565b600060405180830381600087803b15801561171657600080fd5b505af115801561172a573d6000803e3d6000fd5b505050505b83156117e1576001546040517f89afcb4400000000000000000000000000000000000000000000000000000000815273ffffffffffffffffffffffffffffffffffffffff7f000000000000000000000000000000000000000000000000000000000000000081166004830152610100909204909116906389afcb4490602401600060405180830381600087803b1580156117c857600080fd5b505af11580156117dc573d6000803e3d6000fd5b505050505b50505050505050565b7f7935bd0ae54bc31f548c14dba4d37c5c64b3f8ca900cb468fb8abd54d5894f556118158133611c00565b73ffffffffffffffffffffffffffffffffffffffff8216611892576040517f08c379a000000000000000000000000000000000000000000000000000000000815260206004820152600160248201527f3000000000000000000000000000000000000000000000000000000000000000604482015260640161082f565b6001805473ffffffffffffffffffffffffffffffffffffffff8481166101009081027fffffffffffffffffffffff0000000000000000000000000000000000000000ff8416179093559190048116907f000000000000000000000000000000000000000000000000000000000000000090611930908216857fffffffffffffffffffffffffffffffffffffffffffffffffffffffffffffffff6119d8565b61195273ffffffffffffffffffffffffffffffffffffffff82168360006119d8565b8173ffffffffffffffffffffffffffffffffffffffff168473ffffffffffffffffffffffffffffffffffffffff167fbb470d12faa974cbae56bc3c345446451b4d504aa13806836f3df6d032fa9a9160405160405180910390a350505050565b6000828152602081905260409020600101546119ce8133611c00565b6107c18383611e16565b801580611a8757506040517fdd62ed3e00000000000000000000000000000000000000000000000000000000815230600482015273ffffffffffffffffffffffffffffffffffffffff838116602483015284169063dd62ed3e9060440160206040518083038186803b158015611a4d57600080fd5b505afa158015611a61573d6000803e3d6000fd5b505050506040513d601f19601f82011682018060405250810190611a859190612997565b155b611b13576040517f08c379a000000000000000000000000000000000000000000000000000000000815260206004820152603660248201527f5361666545524332303a20617070726f76652066726f6d206e6f6e2d7a65726f60448201527f20746f206e6f6e2d7a65726f20616c6c6f77616e636500000000000000000000606482015260840161082f565b60405173ffffffffffffffffffffffffffffffffffffffff83166024820152604481018290526107c19084907f095ea7b300000000000000000000000000000000000000000000000000000000906064015b604080517fffffffffffffffffffffffffffffffffffffffffffffffffffffffffffffffe08184030181529190526020810180517bffffffffffffffffffffffffffffffffffffffffffffffffffffffff167fffffffff00000000000000000000000000000000000000000000000000000000909316929092179091526120ca565b6060611bf684846000856121d6565b90505b9392505050565b60008281526020818152604080832073ffffffffffffffffffffffffffffffffffffffff8516845290915290205460ff1661096e57611c568173ffffffffffffffffffffffffffffffffffffffff166014612356565b611c61836020612356565b604051602001611c72929190612a1d565b604080517fffffffffffffffffffffffffffffffffffffffffffffffffffffffffffffffe0818403018152908290527f08c379a000000000000000000000000000000000000000000000000000000000825261082f91600401612ad6565b60405173ffffffffffffffffffffffffffffffffffffffff83166024820152604481018290526107c19084907fa9059cbb0000000000000000000000000000000000000000000000000000000090606401611b65565b60008281526020818152604080832073ffffffffffffffffffffffffffffffffffffffff8516845290915290205460ff1661096e5760008281526020818152604080832073ffffffffffffffffffffffffffffffffffffffff85168452909152902080547fffffffffffffffffffffffffffffffffffffffffffffffffffffffffffffff00166001179055611db83390565b73ffffffffffffffffffffffffffffffffffffffff168173ffffffffffffffffffffffffffffffffffffffff16837f2f8788117e7eff1d82e926ec794901d17c78024a50270940304540a733656f0d60405160405180910390a45050565b60008281526020818152604080832073ffffffffffffffffffffffffffffffffffffffff8516845290915290205460ff161561096e5760008281526020818152604080832073ffffffffffffffffffffffffffffffffffffffff8516808552925280832080547fffffffffffffffffffffffffffffffffffffffffffffffffffffffffffffff0016905551339285917ff6391f5c32d9c69d2a47ea670b442974b53935d1edc7fd64eb21e047a839171b9190a45050565b60015460ff16611f39576040517f08c379a000000000000000000000000000000000000000000000000000000000815260206004820152601460248201527f5061757361626c653a206e6f7420706175736564000000000000000000000000604482015260640161082f565b600180547fffffffffffffffffffffffffffffffffffffffffffffffffffffffffffffff001690557f5db9ee0a495bf2e6ff9c91a7834c1ba4fdd244a5e8aa4e537bd38aeae4b073aa335b60405173ffffffffffffffffffffffffffffffffffffffff909116815260200160405180910390a1565b60015460ff161561201b576040517f08c379a000000000000000000000000000000000000000000000000000000000815260206004820152601060248201527f5061757361626c653a2070617573656400000000000000000000000000000000604482015260640161082f565b600180547fffffffffffffffffffffffffffffffffffffffffffffffffffffffffffffff0016811790557f62e78cea01bee320cd4e420270b5ea74000d11b0c9f74754ebdbfc544b05a25833611f84565b60405173ffffffffffffffffffffffffffffffffffffffff808516602483015283166044820152606481018290526108df9085907f23b872dd0000000000000000000000000000000000000000000000000000000090608401611b65565b600061212c826040518060400160405280602081526020017f5361666545524332303a206c6f772d6c6576656c2063616c6c206661696c65648152508573ffffffffffffffffffffffffffffffffffffffff16611be79092919063ffffffff16565b8051909150156107c1578080602001905181019061214a919061293e565b6107c1576040517f08c379a000000000000000000000000000000000000000000000000000000000815260206004820152602a60248201527f5361666545524332303a204552433230206f7065726174696f6e20646964206e60448201527f6f74207375636365656400000000000000000000000000000000000000000000606482015260840161082f565b606082471015612268576040517f08c379a000000000000000000000000000000000000000000000000000000000815260206004820152602660248201527f416464726573733a20696e73756666696369656e742062616c616e636520666f60448201527f722063616c6c0000000000000000000000000000000000000000000000000000606482015260840161082f565b843b6122d0576040517f08c379a000000000000000000000000000000000000000000000000000000000815260206004820152601d60248201527f416464726573733a2063616c6c20746f206e6f6e2d636f6e7472616374000000604482015260640161082f565b6000808673ffffffffffffffffffffffffffffffffffffffff1685876040516122f99190612a01565b60006040518083038185875af1925050503d8060008114612336576040519150601f19603f3d011682016040523d82523d6000602084013e61233b565b606091505b509150915061234b828286612599565b979650505050505050565b60606000612365836002612c14565b612370906002612bfc565b67ffffffffffffffff81111561238857612388612d27565b6040519080825280601f01601f1916602001820160405280156123b2576020820181803683370190505b5090507f3000000000000000000000000000000000000000000000000000000000000000816000815181106123e9576123e9612cf8565b60200101907effffffffffffffffffffffffffffffffffffffffffffffffffffffffffffff1916908160001a9053507f78000000000000000000000000000000000000000000000000000000000000008160018151811061244c5761244c612cf8565b60200101907effffffffffffffffffffffffffffffffffffffffffffffffffffffffffffff1916908160001a9053506000612488846002612c14565b612493906001612bfc565b90505b6001811115612530577f303132333435363738396162636465660000000000000000000000000000000085600f16601081106124d4576124d4612cf8565b1a60f81b8282815181106124ea576124ea612cf8565b60200101907effffffffffffffffffffffffffffffffffffffffffffffffffffffffffffff1916908160001a90535060049490941c9361252981612c94565b9050612496565b508315611bf9576040517f08c379a000000000000000000000000000000000000000000000000000000000815260206004820181905260248201527f537472696e67733a20686578206c656e67746820696e73756666696369656e74604482015260640161082f565b606083156125a8575081611bf9565b8251156125b85782518084602001fd5b816040517f08c379a000000000000000000000000000000000000000000000000000000000815260040161082f9190612ad6565b50805460008255906000526020600020908101906109a59190612694565b828054828255906000526020600020908101928215612684579160200282015b8281111561268457825182547fffffffffffffffffffffffff00000000000000000000000000000000000000001673ffffffffffffffffffffffffffffffffffffffff90911617825560209092019160019091019061262a565b50612690929150612694565b5090565b5b808211156126905760008155600101612695565b803573ffffffffffffffffffffffffffffffffffffffff811681146126cd57600080fd5b919050565b803560ff811681146126cd57600080fd5b6000602082840312156126f557600080fd5b611bf9826126a9565b60008060006060848603121561271357600080fd5b61271c846126a9565b925061272a602085016126a9565b9150604084013590509250925092565b60008060006060848603121561274f57600080fd5b612758846126a9565b925060208085013567ffffffffffffffff81111561277557600080fd5b8501601f8101871361278657600080fd5b803561279961279482612bd8565b612b89565b8082825284820191508484018a868560051b87010111156127b957600080fd5b600094505b838510156127e3576127cf816126a9565b8352600194909401939185019185016127be565b5080965050505050506127f8604085016126d2565b90509250925092565b6000806040838503121561281457600080fd5b61281d836126a9565b946020939093013593505050565b6000806000806080858703121561284157600080fd5b61284a856126a9565b93506020850135925060408501359150606085013561286881612d56565b939692955090935050565b6000806040838503121561288657600080fd5b61288f836126a9565b915061289d602084016126d2565b90509250929050565b600060208083850312156128b957600080fd5b825167ffffffffffffffff8111156128d057600080fd5b8301601f810185136128e157600080fd5b80516128ef61279482612bd8565b80828252848201915084840188868560051b870101111561290f57600080fd5b600094505b83851015612932578051835260019490940193918501918501612914565b50979650505050505050565b60006020828403121561295057600080fd5b8151611bf981612d56565b60006020828403121561296d57600080fd5b5035919050565b6000806040838503121561298757600080fd5b8235915061289d602084016126a9565b6000602082840312156129a957600080fd5b5051919050565b600081518084526020808501945080840160005b838110156129f657815173ffffffffffffffffffffffffffffffffffffffff16875295820195908201906001016129c4565b509495945050505050565b60008251612a13818460208701612c68565b9190910192915050565b7f416363657373436f6e74726f6c3a206163636f756e7420000000000000000000815260008351612a55816017850160208801612c68565b7f206973206d697373696e6720726f6c65200000000000000000000000000000006017918401918201528351612a92816028840160208801612c68565b01602801949350505050565b602081526000611bf960208301846129b0565b604081526000612ac460408301856129b0565b905060ff831660208301529392505050565b6020815260008251806020840152612af5816040850160208701612c68565b601f017fffffffffffffffffffffffffffffffffffffffffffffffffffffffffffffffe0169190910160400192915050565b828152604060208201526000611bf660408301846129b0565b85815284602082015260a060408201526000612b5f60a08301866129b0565b73ffffffffffffffffffffffffffffffffffffffff94909416606083015250608001529392505050565b604051601f82017fffffffffffffffffffffffffffffffffffffffffffffffffffffffffffffffe016810167ffffffffffffffff81118282101715612bd057612bd0612d27565b604052919050565b600067ffffffffffffffff821115612bf257612bf2612d27565b5060051b60200190565b60008219821115612c0f57612c0f612cc9565b500190565b6000817fffffffffffffffffffffffffffffffffffffffffffffffffffffffffffffffff0483118215151615612c4c57612c4c612cc9565b500290565b600082821015612c6357612c63612cc9565b500390565b60005b83811015612c83578181015183820152602001612c6b565b838111156108df5750506000910152565b600081612ca357612ca3612cc9565b507fffffffffffffffffffffffffffffffffffffffffffffffffffffffffffffffff0190565b7f4e487b7100000000000000000000000000000000000000000000000000000000600052601160045260246000fd5b7f4e487b7100000000000000000000000000000000000000000000000000000000600052603260045260246000fd5b7f4e487b7100000000000000000000000000000000000000000000000000000000600052604160045260246000fd5b80151581146109a557600080fdfea26469706673582212202e90e40c464c00e72d42a9580dfa563323ec7dbd98eacffeab3ba7982d6f1c8864736f6c634300080700337935bd0ae54bc31f548c14dba4d37c5c64b3f8ca900cb468fb8abd54d5894f558429d542926e6695b59ac6fbdcd9b37e8b1aeb757afab06ab60b1bb5878c3b4955435dd261a4b9b3364963f7738a7a662ad9c84396d64be3365284bb7f0a5041",
  "linkReferences": {},
  "deployedLinkReferences": {}
}