{
  "_format": "hh-sol-artifact-1",
  "contractName": "Mock1Inch",
  "sourceName": "contracts/mock/Mock1Inch.sol",
  "abi": [
    {
      "inputs": [
        {
          "internalType": "contract IERC20Metadata",
          "name": "_tokenA",
          "type": "address"
        },
        {
          "internalType": "contract IERC20Metadata",
          "name": "_tokenB",
          "type": "address"
        }
      ],
      "stateMutability": "nonpayable",
      "type": "constructor"
    },
    {
      "inputs": [],
      "name": "decimalsA",
      "outputs": [
        {
          "internalType": "uint256",
          "name": "",
          "type": "uint256"
        }
      ],
      "stateMutability": "view",
      "type": "function"
    },
    {
      "inputs": [],
      "name": "decimalsB",
      "outputs": [
        {
          "internalType": "uint256",
          "name": "",
          "type": "uint256"
        }
      ],
      "stateMutability": "view",
      "type": "function"
    },
    {
      "inputs": [],
      "name": "exchangeRate",
      "outputs": [
        {
          "internalType": "uint256",
          "name": "",
          "type": "uint256"
        }
      ],
      "stateMutability": "view",
      "type": "function"
    },
    {
      "inputs": [],
      "name": "revertingSwap",
      "outputs": [],
      "stateMutability": "payable",
      "type": "function"
    },
    {
      "inputs": [
        {
          "internalType": "contract IAggregationExecutor",
          "name": "caller",
          "type": "address"
        },
        {
          "components": [
            {
              "internalType": "contract IERC20",
              "name": "srcToken",
              "type": "address"
            },
            {
              "internalType": "contract IERC20",
              "name": "dstToken",
              "type": "address"
            },
            {
              "internalType": "address payable",
              "name": "srcReceiver",
              "type": "address"
            },
            {
              "internalType": "address payable",
              "name": "dstReceiver",
              "type": "address"
            },
            {
              "internalType": "uint256",
              "name": "amount",
              "type": "uint256"
            },
            {
              "internalType": "uint256",
              "name": "minReturnAmount",
              "type": "uint256"
            },
            {
              "internalType": "uint256",
              "name": "flags",
              "type": "uint256"
            },
            {
              "internalType": "bytes",
              "name": "permit",
              "type": "bytes"
            }
          ],
          "internalType": "struct SwapDescription",
          "name": "desc",
          "type": "tuple"
        },
        {
          "internalType": "bytes",
          "name": "data",
          "type": "bytes"
        }
      ],
      "name": "swap",
      "outputs": [
        {
          "internalType": "uint256",
          "name": "returnAmount",
          "type": "uint256"
        },
        {
          "internalType": "uint256",
          "name": "spentAmount",
          "type": "uint256"
        },
        {
          "internalType": "uint256",
          "name": "gasLeft",
          "type": "uint256"
        }
      ],
      "stateMutability": "payable",
      "type": "function"
    },
    {
      "inputs": [],
      "name": "tokenA",
      "outputs": [
        {
          "internalType": "contract IERC20Metadata",
          "name": "",
          "type": "address"
        }
      ],
      "stateMutability": "view",
      "type": "function"
    },
    {
      "inputs": [],
      "name": "tokenB",
      "outputs": [
        {
          "internalType": "contract IERC20Metadata",
          "name": "",
          "type": "address"
        }
      ],
      "stateMutability": "view",
      "type": "function"
    },
    {
      "inputs": [],
      "name": "unsupportedSwap",
      "outputs": [
        {
          "internalType": "address",
          "name": "returnAmount",
          "type": "address"
        }
      ],
      "stateMutability": "payable",
      "type": "function"
    },
    {
      "inputs": [
        {
          "internalType": "uint256",
          "name": "newExchangeRate",
          "type": "uint256"
        }
      ],
      "name": "updateExchangeRate",
      "outputs": [],
      "stateMutability": "nonpayable",
      "type": "function"
    }
  ],
  "bytecode": "0x6080604052670de0b6b3a764000060005534801561001c57600080fd5b5060405161098b38038061098b83398101604081905261003b916101f8565b600180546001600160a01b038085166001600160a01b0319928316811790935560028054918516919092161790556040805163313ce56760e01b8152905163313ce56791600480820192602092909190829003018186803b15801561009f57600080fd5b505afa1580156100b3573d6000803e3d6000fd5b505050506040513d601f19601f820116820180604052508101906100d7919061022b565b60ff16600381905550806001600160a01b031663313ce5676040518163ffffffff1660e01b815260040160206040518083038186803b15801561011957600080fd5b505afa15801561012d573d6000803e3d6000fd5b505050506040513d601f19601f82011682018060405250810190610151919061022b565b60ff166004556002546001600160a01b03166340c10f19306101776103e8600019610255565b6040516001600160e01b031960e085901b1681526001600160a01b0390921660048301526024820152604401600060405180830381600087803b1580156101bd57600080fd5b505af11580156101d1573d6000803e3d6000fd5b505050505050610277565b80516001600160a01b03811681146101f357600080fd5b919050565b6000806040838503121561020b57600080fd5b610214836101dc565b9150610222602084016101dc565b90509250929050565b60006020828403121561023d57600080fd5b815160ff8116811461024e57600080fd5b9392505050565b60008261027257634e487b7160e01b600052601260045260246000fd5b500490565b610705806102866000396000f3fe6080604052600436106100965760003560e01c80635f64b55b116100695780637de159521161004e5780637de159521461019d578063b9e205ae146101a3578063db4bfa30146101c557600080fd5b80635f64b55b146101425780637c0252001461016f57600080fd5b80630fc63d101461009b5780633ba0b9a9146100f257806350894e9f1461011657806357cbf16c1461012c575b600080fd5b3480156100a757600080fd5b506001546100c89073ffffffffffffffffffffffffffffffffffffffff1681565b60405173ffffffffffffffffffffffffffffffffffffffff90911681526020015b60405180910390f35b3480156100fe57600080fd5b5061010860005481565b6040519081526020016100e9565b34801561012257600080fd5b5061010860035481565b34801561013857600080fd5b5061010860045481565b34801561014e57600080fd5b506002546100c89073ffffffffffffffffffffffffffffffffffffffff1681565b61018261017d366004610420565b6101cd565b604080519384526020840192909252908201526060016100e9565b306100c8565b3480156101af57600080fd5b506101c36101be3660046104e6565b600055565b005b6101c3610391565b6001546040517f23b872dd000000000000000000000000000000000000000000000000000000008152336004820152306024820152608085013560448201526000918291829173ffffffffffffffffffffffffffffffffffffffff16906323b872dd90606401602060405180830381600087803b15801561024d57600080fd5b505af1158015610261573d6000803e3d6000fd5b505050506040513d601f19601f8201168201806040525081019061028591906103f7565b5060035461029490600a61059b565b6004546102a290600a61059b565b670de0b6b3a764000060005489608001356102bd9190610663565b6102c791906104ff565b6102d19190610663565b6102db91906104ff565b6002546040517fa9059cbb0000000000000000000000000000000000000000000000000000000081523360048201526024810183905291945073ffffffffffffffffffffffffffffffffffffffff169063a9059cbb90604401602060405180830381600087803b15801561034e57600080fd5b505af1158015610362573d6000803e3d6000fd5b505050506040513d601f19601f8201168201806040525081019061038691906103f7565b509450945094915050565b6040517f08c379a000000000000000000000000000000000000000000000000000000000815260206004820152600a60248201527f77726f6e67207377617000000000000000000000000000000000000000000000604482015260640160405180910390fd5b60006020828403121561040957600080fd5b8151801515811461041957600080fd5b9392505050565b6000806000806060858703121561043657600080fd5b843573ffffffffffffffffffffffffffffffffffffffff8116811461045a57600080fd5b9350602085013567ffffffffffffffff8082111561047757600080fd5b90860190610100828903121561048c57600080fd5b909350604086013590808211156104a257600080fd5b818701915087601f8301126104b657600080fd5b8135818111156104c557600080fd5b8860208285010111156104d757600080fd5b95989497505060200194505050565b6000602082840312156104f857600080fd5b5035919050565b600082610535577f4e487b7100000000000000000000000000000000000000000000000000000000600052601260045260246000fd5b500490565b600181815b8085111561059357817fffffffffffffffffffffffffffffffffffffffffffffffffffffffffffffffff04821115610579576105796106a0565b8085161561058657918102915b93841c939080029061053f565b509250929050565b600061041983836000826105b15750600161065d565b816105be5750600061065d565b81600181146105d457600281146105de576105fa565b600191505061065d565b60ff8411156105ef576105ef6106a0565b50506001821b61065d565b5060208310610133831016604e8410600b841016171561061d575081810a61065d565b610627838361053a565b807fffffffffffffffffffffffffffffffffffffffffffffffffffffffffffffffff04821115610659576106596106a0565b0290505b92915050565b6000817fffffffffffffffffffffffffffffffffffffffffffffffffffffffffffffffff048311821515161561069b5761069b6106a0565b500290565b7f4e487b7100000000000000000000000000000000000000000000000000000000600052601160045260246000fdfea2646970667358221220de022efb27d142316f705886ac43f7db3ba814ee4a353ea98f436ecba01c8a4d64736f6c63430008070033",
  "linkReferences": {},
  "deployedLinkReferences": {}
}