{
  "_format": "hh-sol-artifact-1",
  "contractName": "OracleMathWrapper",
  "sourceName": "contracts/sigp/OracleMathWrapper.sol",
  "abi": [
    {
      "inputs": [
        {
          "internalType": "int24",
          "name": "tick",
          "type": "int24"
        },
        {
          "internalType": "uint256",
          "name": "baseAmount",
          "type": "uint256"
        },
        {
          "internalType": "uint256",
          "name": "multiply",
          "type": "uint256"
        }
      ],
      "name": "getQuoteAtTick",
      "outputs": [
        {
          "internalType": "uint256",
          "name": "",
          "type": "uint256"
        }
      ],
      "stateMutability": "pure",
      "type": "function"
    },
    {
      "inputs": [
        {
          "internalType": "int24",
          "name": "tick",
          "type": "int24"
        }
      ],
      "name": "getRatioAtTick",
      "outputs": [
        {
          "internalType": "uint256",
          "name": "",
          "type": "uint256"
        }
      ],
      "stateMutability": "pure",
      "type": "function"
    }
  ],
  "bytecode": "0x608060405234801561001057600080fd5b506108cf806100206000396000f3fe608060405234801561001057600080fd5b50600436106100365760003560e01c80633d4299181461003b57806381e60ab214610060575b600080fd5b61004e610049366004610720565b610073565b60405190815260200160405180910390f35b61004e61006e36600461073b565b610084565b600061007e8261009b565b92915050565b6000610091848484610527565b90505b9392505050565b60008060008360020b126100b2578260020b6100bf565b8260020b6100bf90610802565b9050620d89e8811115610132576040517f08c379a000000000000000000000000000000000000000000000000000000000815260206004820152600160248201527f5400000000000000000000000000000000000000000000000000000000000000604482015260640160405180910390fd5b60006001821661015357700100000000000000000000000000000000610165565b6ffff97272373d413259a46990580e213a5b70ffffffffffffffffffffffffffffffffff16905060028216156101a457608061019f826ffff2e50f5f656932ef12357cf3c7fdcc61079a565b901c90505b60048216156101ce5760806101c9826fffe5caca7e10e4e61c3624eaa0941cd061079a565b901c90505b60088216156101f85760806101f3826fffcb9843d60f6159c9db58835c92664461079a565b901c90505b601082161561022257608061021d826fff973b41fa98c081472e6896dfb254c061079a565b901c90505b602082161561024c576080610247826fff2ea16466c96a3843ec78b326b5286161079a565b901c90505b6040821615610276576080610271826ffe5dee046a99a2a811c461f1969c305361079a565b901c90505b60808216156102a057608061029b826ffcbe86c7900a88aedcffc83b479aa3a461079a565b901c90505b6101008216156102cb5760806102c6826ff987a7253ac413176f2b074cf7815e5461079a565b901c90505b6102008216156102f65760806102f1826ff3392b0822b70005940c7a398e4b70f361079a565b901c90505b61040082161561032157608061031c826fe7159475a2c29b7443b29c7fa6e889d961079a565b901c90505b61080082161561034c576080610347826fd097f3bdfd2022b8845ad8f792aa582561079a565b901c90505b611000821615610377576080610372826fa9f746462d870fdf8a65dc1f90e061e561079a565b901c90505b6120008216156103a257608061039d826f70d869a156d2a1b890bb3df62baf32f761079a565b901c90505b6140008216156103cd5760806103c8826f31be135f97d08fd981231505542fcfa661079a565b901c90505b6180008216156103f85760806103f3826f09aa508b5b7a84e1c677de54f3e99bc961079a565b901c90505b6201000082161561042357608061041e826e5d6af8dedb81196699c329225ee60461079a565b901c90505b6202000082161561044d576080610448826d2216e584f5fa1ea926041bedfe9861079a565b901c90505b62040000821615610475576080610470826b048a170391f7dc42444e8fa261079a565b901c90505b620800008216156104985760806104938266149b34ee7ac26261079a565b901c90505b60008460020b13156104d1576104ce817fffffffffffffffffffffffffffffffffffffffffffffffffffffffffffffffff610786565b90505b60006104e668200000000000000000836107ee565b156104f25760016104f5565b60005b6105069060ff16604584901c61076e565b9050603b61051c82670de0b6b3a764000061079a565b901c95945050505050565b6000806105338561009b565b90508260011461055557610550670de0b6b3a76400008583610571565b610568565b6105688185670de0b6b3a7640000610571565b95945050505050565b600080807fffffffffffffffffffffffffffffffffffffffffffffffffffffffffffffffff85870985870292508281108382030391505080600014156105c957600084116105be57600080fd5b508290049050610094565b8084116105d557600080fd5b60008486880980840393811190920391905060006105f58619600161076e565b8616958690049593849004936000819003046001019050610616818461079a565b90931792600061062787600361079a565b6002189050610636818861079a565b6106419060026107d7565b61064b908261079a565b9050610657818861079a565b6106629060026107d7565b61066c908261079a565b9050610678818861079a565b6106839060026107d7565b61068d908261079a565b9050610699818861079a565b6106a49060026107d7565b6106ae908261079a565b90506106ba818861079a565b6106c59060026107d7565b6106cf908261079a565b90506106db818861079a565b6106e69060026107d7565b6106f0908261079a565b90506106fc818661079a565b9998505050505050505050565b8035600281900b811461071b57600080fd5b919050565b60006020828403121561073257600080fd5b61009482610709565b60008060006060848603121561075057600080fd5b61075984610709565b95602085013595506040909401359392505050565b600082198211156107815761078161083b565b500190565b6000826107955761079561086a565b500490565b6000817fffffffffffffffffffffffffffffffffffffffffffffffffffffffffffffffff04831182151516156107d2576107d261083b565b500290565b6000828210156107e9576107e961083b565b500390565b6000826107fd576107fd61086a565b500690565b60007f80000000000000000000000000000000000000000000000000000000000000008214156108345761083461083b565b5060000390565b7f4e487b7100000000000000000000000000000000000000000000000000000000600052601160045260246000fd5b7f4e487b7100000000000000000000000000000000000000000000000000000000600052601260045260246000fdfea2646970667358221220f9bd06f58a031ba328af34f1e222bf256cec326da5728e2a279a7617a78b300164736f6c63430008070033",
  "linkReferences": {},
  "deployedLinkReferences": {}
}