{
  "_format": "hh-sol-artifact-1",
  "contractName": "MockUpgradeSanToken",
  "sourceName": "contracts/mock/MockSanToken/MockUpgradeSanToken.sol",
  "abi": [
    {
      "anonymous": false,
      "inputs": [
        {
          "indexed": true,
          "internalType": "address",
          "name": "owner",
          "type": "address"
        },
        {
          "indexed": true,
          "internalType": "address",
          "name": "spender",
          "type": "address"
        },
        {
          "indexed": false,
          "internalType": "uint256",
          "name": "value",
          "type": "uint256"
        }
      ],
      "name": "Approval",
      "type": "event"
    },
    {
      "anonymous": false,
      "inputs": [
        {
          "indexed": true,
          "internalType": "address",
          "name": "from",
          "type": "address"
        },
        {
          "indexed": true,
          "internalType": "address",
          "name": "to",
          "type": "address"
        },
        {
          "indexed": false,
          "internalType": "uint256",
          "name": "value",
          "type": "uint256"
        }
      ],
      "name": "Transfer",
      "type": "event"
    },
    {
      "inputs": [],
      "name": "DOMAIN_SEPARATOR",
      "outputs": [
        {
          "internalType": "bytes32",
          "name": "",
          "type": "bytes32"
        }
      ],
      "stateMutability": "view",
      "type": "function"
    },
    {
      "inputs": [],
      "name": "a",
      "outputs": [
        {
          "internalType": "uint256",
          "name": "",
          "type": "uint256"
        }
      ],
      "stateMutability": "view",
      "type": "function"
    },
    {
      "inputs": [
        {
          "internalType": "address",
          "name": "owner",
          "type": "address"
        },
        {
          "internalType": "address",
          "name": "spender",
          "type": "address"
        }
      ],
      "name": "allowance",
      "outputs": [
        {
          "internalType": "uint256",
          "name": "",
          "type": "uint256"
        }
      ],
      "stateMutability": "view",
      "type": "function"
    },
    {
      "inputs": [
        {
          "internalType": "address",
          "name": "spender",
          "type": "address"
        },
        {
          "internalType": "uint256",
          "name": "amount",
          "type": "uint256"
        }
      ],
      "name": "approve",
      "outputs": [
        {
          "internalType": "bool",
          "name": "",
          "type": "bool"
        }
      ],
      "stateMutability": "nonpayable",
      "type": "function"
    },
    {
      "inputs": [],
      "name": "b",
      "outputs": [
        {
          "internalType": "uint256",
          "name": "",
          "type": "uint256"
        }
      ],
      "stateMutability": "view",
      "type": "function"
    },
    {
      "inputs": [
        {
          "internalType": "address",
          "name": "account",
          "type": "address"
        }
      ],
      "name": "balanceOf",
      "outputs": [
        {
          "internalType": "uint256",
          "name": "",
          "type": "uint256"
        }
      ],
      "stateMutability": "view",
      "type": "function"
    },
    {
      "inputs": [
        {
          "internalType": "uint256",
          "name": "amount",
          "type": "uint256"
        },
        {
          "internalType": "address",
          "name": "burner",
          "type": "address"
        },
        {
          "internalType": "address",
          "name": "sender",
          "type": "address"
        }
      ],
      "name": "burnFrom",
      "outputs": [],
      "stateMutability": "nonpayable",
      "type": "function"
    },
    {
      "inputs": [
        {
          "internalType": "uint256",
          "name": "amount",
          "type": "uint256"
        }
      ],
      "name": "burnNoRedeem",
      "outputs": [],
      "stateMutability": "nonpayable",
      "type": "function"
    },
    {
      "inputs": [
        {
          "internalType": "uint256",
          "name": "amount",
          "type": "uint256"
        },
        {
          "internalType": "address",
          "name": "burner",
          "type": "address"
        }
      ],
      "name": "burnSelf",
      "outputs": [],
      "stateMutability": "nonpayable",
      "type": "function"
    },
    {
      "inputs": [],
      "name": "c",
      "outputs": [
        {
          "internalType": "address",
          "name": "",
          "type": "address"
        }
      ],
      "stateMutability": "view",
      "type": "function"
    },
    {
      "inputs": [],
      "name": "d",
      "outputs": [
        {
          "internalType": "address",
          "name": "",
          "type": "address"
        }
      ],
      "stateMutability": "view",
      "type": "function"
    },
    {
      "inputs": [],
      "name": "decimal",
      "outputs": [
        {
          "internalType": "uint8",
          "name": "",
          "type": "uint8"
        }
      ],
      "stateMutability": "view",
      "type": "function"
    },
    {
      "inputs": [],
      "name": "decimals",
      "outputs": [
        {
          "internalType": "uint8",
          "name": "",
          "type": "uint8"
        }
      ],
      "stateMutability": "view",
      "type": "function"
    },
    {
      "inputs": [
        {
          "internalType": "address",
          "name": "spender",
          "type": "address"
        },
        {
          "internalType": "uint256",
          "name": "subtractedValue",
          "type": "uint256"
        }
      ],
      "name": "decreaseAllowance",
      "outputs": [
        {
          "internalType": "bool",
          "name": "",
          "type": "bool"
        }
      ],
      "stateMutability": "nonpayable",
      "type": "function"
    },
    {
      "inputs": [],
      "name": "e",
      "outputs": [
        {
          "internalType": "uint256",
          "name": "",
          "type": "uint256"
        }
      ],
      "stateMutability": "view",
      "type": "function"
    },
    {
      "inputs": [],
      "name": "f",
      "outputs": [
        {
          "internalType": "uint256",
          "name": "",
          "type": "uint256"
        }
      ],
      "stateMutability": "view",
      "type": "function"
    },
    {
      "inputs": [
        {
          "internalType": "address",
          "name": "spender",
          "type": "address"
        },
        {
          "internalType": "uint256",
          "name": "addedValue",
          "type": "uint256"
        }
      ],
      "name": "increaseAllowance",
      "outputs": [
        {
          "internalType": "bool",
          "name": "",
          "type": "bool"
        }
      ],
      "stateMutability": "nonpayable",
      "type": "function"
    },
    {
      "inputs": [
        {
          "internalType": "string",
          "name": "name_",
          "type": "string"
        },
        {
          "internalType": "string",
          "name": "symbol_",
          "type": "string"
        },
        {
          "internalType": "address",
          "name": "_poolManager",
          "type": "address"
        }
      ],
      "name": "initialize",
      "outputs": [],
      "stateMutability": "nonpayable",
      "type": "function"
    },
    {
      "inputs": [
        {
          "internalType": "address",
          "name": "account",
          "type": "address"
        },
        {
          "internalType": "uint256",
          "name": "amount",
          "type": "uint256"
        },
        {
          "internalType": "uint256",
          "name": "randomParam",
          "type": "uint256"
        }
      ],
      "name": "mint",
      "outputs": [
        {
          "internalType": "uint256",
          "name": "",
          "type": "uint256"
        }
      ],
      "stateMutability": "nonpayable",
      "type": "function"
    },
    {
      "inputs": [],
      "name": "name",
      "outputs": [
        {
          "internalType": "string",
          "name": "",
          "type": "string"
        }
      ],
      "stateMutability": "view",
      "type": "function"
    },
    {
      "inputs": [
        {
          "internalType": "address",
          "name": "owner",
          "type": "address"
        }
      ],
      "name": "nonces",
      "outputs": [
        {
          "internalType": "uint256",
          "name": "",
          "type": "uint256"
        }
      ],
      "stateMutability": "view",
      "type": "function"
    },
    {
      "inputs": [
        {
          "internalType": "address",
          "name": "owner",
          "type": "address"
        },
        {
          "internalType": "address",
          "name": "spender",
          "type": "address"
        },
        {
          "internalType": "uint256",
          "name": "value",
          "type": "uint256"
        },
        {
          "internalType": "uint256",
          "name": "deadline",
          "type": "uint256"
        },
        {
          "internalType": "uint8",
          "name": "v",
          "type": "uint8"
        },
        {
          "internalType": "bytes32",
          "name": "r",
          "type": "bytes32"
        },
        {
          "internalType": "bytes32",
          "name": "s",
          "type": "bytes32"
        }
      ],
      "name": "permit",
      "outputs": [],
      "stateMutability": "nonpayable",
      "type": "function"
    },
    {
      "inputs": [],
      "name": "poolManager",
      "outputs": [
        {
          "internalType": "address",
          "name": "",
          "type": "address"
        }
      ],
      "stateMutability": "view",
      "type": "function"
    },
    {
      "inputs": [],
      "name": "stableMaster",
      "outputs": [
        {
          "internalType": "address",
          "name": "",
          "type": "address"
        }
      ],
      "stateMutability": "view",
      "type": "function"
    },
    {
      "inputs": [],
      "name": "symbol",
      "outputs": [
        {
          "internalType": "string",
          "name": "",
          "type": "string"
        }
      ],
      "stateMutability": "view",
      "type": "function"
    },
    {
      "inputs": [],
      "name": "totalSupply",
      "outputs": [
        {
          "internalType": "uint256",
          "name": "",
          "type": "uint256"
        }
      ],
      "stateMutability": "view",
      "type": "function"
    },
    {
      "inputs": [
        {
          "internalType": "address",
          "name": "recipient",
          "type": "address"
        },
        {
          "internalType": "uint256",
          "name": "amount",
          "type": "uint256"
        }
      ],
      "name": "transfer",
      "outputs": [
        {
          "internalType": "bool",
          "name": "",
          "type": "bool"
        }
      ],
      "stateMutability": "nonpayable",
      "type": "function"
    },
    {
      "inputs": [
        {
          "internalType": "address",
          "name": "sender",
          "type": "address"
        },
        {
          "internalType": "address",
          "name": "recipient",
          "type": "address"
        },
        {
          "internalType": "uint256",
          "name": "amount",
          "type": "uint256"
        }
      ],
      "name": "transferFrom",
      "outputs": [
        {
          "internalType": "bool",
          "name": "",
          "type": "bool"
        }
      ],
      "stateMutability": "nonpayable",
      "type": "function"
    },
    {
      "inputs": [],
      "name": "var10",
      "outputs": [
        {
          "internalType": "address",
          "name": "",
          "type": "address"
        }
      ],
      "stateMutability": "view",
      "type": "function"
    },
    {
      "inputs": [],
      "name": "var11",
      "outputs": [
        {
          "internalType": "uint256",
          "name": "",
          "type": "uint256"
        }
      ],
      "stateMutability": "view",
      "type": "function"
    },
    {
      "inputs": [],
      "name": "var12",
      "outputs": [
        {
          "internalType": "uint256",
          "name": "",
          "type": "uint256"
        }
      ],
      "stateMutability": "view",
      "type": "function"
    },
    {
      "inputs": [],
      "name": "var7",
      "outputs": [
        {
          "internalType": "uint256",
          "name": "",
          "type": "uint256"
        }
      ],
      "stateMutability": "view",
      "type": "function"
    },
    {
      "inputs": [],
      "name": "var8",
      "outputs": [
        {
          "internalType": "uint256",
          "name": "",
          "type": "uint256"
        }
      ],
      "stateMutability": "view",
      "type": "function"
    },
    {
      "inputs": [],
      "name": "var9",
      "outputs": [
        {
          "internalType": "address",
          "name": "",
          "type": "address"
        }
      ],
      "stateMutability": "view",
      "type": "function"
    }
  ],
  "bytecode": "0x608060405234801561001057600080fd5b50612884806100206000396000f3fe608060405234801561001057600080fd5b50600436106102265760003560e01c80636ac5dc461161012a578063a457c2d7116100bd578063c3da42b81161008c578063dc4c90d311610071578063dc4c90d3146104ca578063dd62ed3e146104ea578063ffae15ba1461053057600080fd5b8063c3da42b814610497578063d505accf146104b757600080fd5b8063a457c2d714610448578063a9059cbb1461045b578063b6a422bd1461046e578063b6d3af231461048e57600080fd5b80638a054ac2116100f95780638a054ac2146103f7578063947f05661461041757806395d89b41146104205780639684ba301461042857600080fd5b80636ac5dc461461035757806370a08231146103a157806376809ce3146103d75780637ecebe00146103e457600080fd5b806326121ff0116101bd5780633644e5151161018c5780634d92b94b116101715780634d92b94b146103325780634df7e3d0146103455780634e321d921461034e57600080fd5b80633644e51514610317578063395093511461031f57600080fd5b806326121ff0146102cf5780632b471d8e146102d8578063313ce567146102eb578063350ebe041461030457600080fd5b8063156e29f6116101f9578063156e29f61461029857806318160ddd146102ab5780631d41930b146102b357806323b872dd146102bc57600080fd5b806306fdde031461022b578063077f224a14610249578063095ea7b31461025e5780630dbe671f14610281575b600080fd5b610233610539565b60405161024091906126a0565b60405180910390f35b61025c610257366004612596565b6105cb565b005b61027161026c366004612535565b610948565b6040519015158152602001610240565b61028a60d45481565b604051908152602001610240565b61028a6102a6366004612561565b61095e565b60355461028a565b61028a60d35481565b6102716102ca366004612483565b610971565b61028a60d95481565b61025c6102e6366004612627565b610a57565b60cc5460ff165b60405160ff9091168152602001610240565b61025c61031236600461264c565b610aeb565b61028a610c2c565b61027161032d366004612535565b610c3b565b61025c61034036600461260e565b610c7f565b61028a60d55481565b61028a60ce5481565b60cc5461037c90610100900473ffffffffffffffffffffffffffffffffffffffff1681565b60405173ffffffffffffffffffffffffffffffffffffffff9091168152602001610240565b61028a6103af366004612409565b73ffffffffffffffffffffffffffffffffffffffff1660009081526033602052604090205490565b60cc546102f29060ff1681565b61028a6103f2366004612409565b610c8c565b60d75461037c9073ffffffffffffffffffffffffffffffffffffffff1681565b61028a60cf5481565b610233610cb9565b60d15461037c9073ffffffffffffffffffffffffffffffffffffffff1681565b610271610456366004612535565b610cc8565b610271610469366004612535565b610da0565b60d05461037c9073ffffffffffffffffffffffffffffffffffffffff1681565b61028a60d25481565b60d65461037c9073ffffffffffffffffffffffffffffffffffffffff1681565b61025c6104c53660046124c4565b610dad565b60cd5461037c9073ffffffffffffffffffffffffffffffffffffffff1681565b61028a6104f836600461244a565b73ffffffffffffffffffffffffffffffffffffffff918216600090815260346020908152604080832093909416825291909152205490565b61028a60d85481565b60606036805461054890612742565b80601f016020809104026020016040519081016040528092919081815260200182805461057490612742565b80156105c15780601f10610596576101008083540402835291602001916105c1565b820191906000526020600020905b8154815290600101906020018083116105a457829003601f168201915b5050505050905090565b600054610100900460ff16806105e4575060005460ff16155b610675576040517f08c379a000000000000000000000000000000000000000000000000000000000815260206004820152602e60248201527f496e697469616c697a61626c653a20636f6e747261637420697320616c72656160448201527f647920696e697469616c697a656400000000000000000000000000000000000060648201526084015b60405180910390fd5b600054610100900460ff161580156106b457600080547fffffffffffffffffffffffffffffffffffffffffffffffffffffffffffff0000166101011790555b6106bd84610f4e565b6106c784846110b4565b60cd80547fffffffffffffffffffffffff00000000000000000000000000000000000000001673ffffffffffffffffffffffffffffffffffffffff8416908117909155604080517f6ac5dc460000000000000000000000000000000000000000000000000000000081529051636ac5dc4691600480820192602092909190829003018186803b15801561075957600080fd5b505afa15801561076d573d6000803e3d6000fd5b505050506040513d601f19601f82011682018060405250810190610791919061242d565b60cc80547fffffffffffffffffffffff0000000000000000000000000000000000000000ff1661010073ffffffffffffffffffffffffffffffffffffffff9384160217905560cd54604080517ffc0c546a0000000000000000000000000000000000000000000000000000000081529051919092169163fc0c546a916004808301926020929190829003018186803b15801561082c57600080fd5b505afa158015610840573d6000803e3d6000fd5b505050506040513d601f19601f82011682018060405250810190610864919061242d565b73ffffffffffffffffffffffffffffffffffffffff1663313ce5676040518163ffffffff1660e01b815260040160206040518083038186803b1580156108a957600080fd5b505afa1580156108bd573d6000803e3d6000fd5b505050506040513d601f19601f820116820180604052508101906108e19190612683565b60cc80547fffffffffffffffffffffffffffffffffffffffffffffffffffffffffffffff001660ff92909216919091179055801561094257600080547fffffffffffffffffffffffffffffffffffffffffffffffffffffffffffff00ff1690555b50505050565b60006109553384846111de565b50600192915050565b600061096a8484611391565b5092915050565b600061097e8484846114b1565b73ffffffffffffffffffffffffffffffffffffffff8416600090815260346020908152604080832033845290915290205482811015610a3f576040517f08c379a000000000000000000000000000000000000000000000000000000000815260206004820152602860248201527f45524332303a207472616e7366657220616d6f756e742065786365656473206160448201527f6c6c6f77616e6365000000000000000000000000000000000000000000000000606482015260840161066c565b610a4c85338584036111de565b506001949350505050565b60cc54610100900473ffffffffffffffffffffffffffffffffffffffff163314610add576040517f08c379a000000000000000000000000000000000000000000000000000000000815260206004820152600160248201527f3100000000000000000000000000000000000000000000000000000000000000604482015260640161066c565b610ae78183611764565b5050565b60cc54610100900473ffffffffffffffffffffffffffffffffffffffff163314610b71576040517f08c379a000000000000000000000000000000000000000000000000000000000815260206004820152600160248201527f3100000000000000000000000000000000000000000000000000000000000000604482015260640161066c565b73ffffffffffffffffffffffffffffffffffffffff82811660009081526034602090815260408083209385168352929052205483811015610c0e576040517f08c379a000000000000000000000000000000000000000000000000000000000815260206004820152600260248201527f3233000000000000000000000000000000000000000000000000000000000000604482015260640161066c565b610c228383610c1d878561272b565b6111de565b6109428385611764565b6000610c36611951565b905090565b33600081815260346020908152604080832073ffffffffffffffffffffffffffffffffffffffff871684529091528120549091610955918590610c1d908690612713565b610c893382611764565b50565b73ffffffffffffffffffffffffffffffffffffffff81166000908152609960205260408120545b92915050565b60606037805461054890612742565b33600090815260346020908152604080832073ffffffffffffffffffffffffffffffffffffffff8616845290915281205482811015610d89576040517f08c379a000000000000000000000000000000000000000000000000000000000815260206004820152602560248201527f45524332303a2064656372656173656420616c6c6f77616e63652062656c6f7760448201527f207a65726f000000000000000000000000000000000000000000000000000000606482015260840161066c565b610d9633858584036111de565b5060019392505050565b60006109553384846114b1565b83421115610e17576040517f08c379a000000000000000000000000000000000000000000000000000000000815260206004820152601d60248201527f45524332305065726d69743a206578706972656420646561646c696e65000000604482015260640161066c565b6000609a54888888610e288c6119cc565b60408051602081019690965273ffffffffffffffffffffffffffffffffffffffff94851690860152929091166060840152608083015260a082015260c0810186905260e0016040516020818303038152906040528051906020012090506000610e9082611a01565b90506000610ea082878787611a6a565b90508973ffffffffffffffffffffffffffffffffffffffff168173ffffffffffffffffffffffffffffffffffffffff1614610f37576040517f08c379a000000000000000000000000000000000000000000000000000000000815260206004820152601e60248201527f45524332305065726d69743a20696e76616c6964207369676e61747572650000604482015260640161066c565b610f428a8a8a6111de565b50505050505050505050565b600054610100900460ff1680610f67575060005460ff16155b610ff3576040517f08c379a000000000000000000000000000000000000000000000000000000000815260206004820152602e60248201527f496e697469616c697a61626c653a20636f6e747261637420697320616c72656160448201527f647920696e697469616c697a6564000000000000000000000000000000000000606482015260840161066c565b600054610100900460ff1615801561103257600080547fffffffffffffffffffffffffffffffffffffffffffffffffffffffffffff0000166101011790555b61103a611a92565b611079826040518060400160405280600181526020017f3100000000000000000000000000000000000000000000000000000000000000815250611ba7565b61108282611cdb565b8015610ae757600080547fffffffffffffffffffffffffffffffffffffffffffffffffffffffffffff00ff1690555050565b600054610100900460ff16806110cd575060005460ff16155b611159576040517f08c379a000000000000000000000000000000000000000000000000000000000815260206004820152602e60248201527f496e697469616c697a61626c653a20636f6e747261637420697320616c72656160448201527f647920696e697469616c697a6564000000000000000000000000000000000000606482015260840161066c565b600054610100900460ff1615801561119857600080547fffffffffffffffffffffffffffffffffffffffffffffffffffffffffffff0000166101011790555b6111a0611a92565b6111aa8383611e15565b80156111d957600080547fffffffffffffffffffffffffffffffffffffffffffffffffffffffffffff00ff1690555b505050565b73ffffffffffffffffffffffffffffffffffffffff8316611280576040517f08c379a0000000000000000000000000000000000000000000000000000000008152602060048201526024808201527f45524332303a20617070726f76652066726f6d20746865207a65726f2061646460448201527f7265737300000000000000000000000000000000000000000000000000000000606482015260840161066c565b73ffffffffffffffffffffffffffffffffffffffff8216611323576040517f08c379a000000000000000000000000000000000000000000000000000000000815260206004820152602260248201527f45524332303a20617070726f766520746f20746865207a65726f20616464726560448201527f7373000000000000000000000000000000000000000000000000000000000000606482015260840161066c565b73ffffffffffffffffffffffffffffffffffffffff83811660008181526034602090815260408083209487168084529482529182902085905590518481527f8c5be1e5ebec7d5bd14f71427d1e84f3dd0314c0f7b2291e5b200ac8c7c3b925910160405180910390a3505050565b73ffffffffffffffffffffffffffffffffffffffff821661140e576040517f08c379a000000000000000000000000000000000000000000000000000000000815260206004820152601f60248201527f45524332303a206d696e7420746f20746865207a65726f206164647265737300604482015260640161066c565b80603560008282546114209190612713565b909155505073ffffffffffffffffffffffffffffffffffffffff82166000908152603360205260408120805483929061145a908490612713565b909155505060405181815273ffffffffffffffffffffffffffffffffffffffff8316906000907fddf252ad1be2c89b69c2b068fc378daa952ba7f163c4a11628f55a4df523b3ef9060200160405180910390a35050565b73ffffffffffffffffffffffffffffffffffffffff8316611554576040517f08c379a000000000000000000000000000000000000000000000000000000000815260206004820152602560248201527f45524332303a207472616e736665722066726f6d20746865207a65726f20616460448201527f6472657373000000000000000000000000000000000000000000000000000000606482015260840161066c565b73ffffffffffffffffffffffffffffffffffffffff82166115f7576040517f08c379a000000000000000000000000000000000000000000000000000000000815260206004820152602360248201527f45524332303a207472616e7366657220746f20746865207a65726f206164647260448201527f6573730000000000000000000000000000000000000000000000000000000000606482015260840161066c565b73ffffffffffffffffffffffffffffffffffffffff8316600090815260336020526040902054818110156116ad576040517f08c379a000000000000000000000000000000000000000000000000000000000815260206004820152602660248201527f45524332303a207472616e7366657220616d6f756e742065786365656473206260448201527f616c616e63650000000000000000000000000000000000000000000000000000606482015260840161066c565b73ffffffffffffffffffffffffffffffffffffffff8085166000908152603360205260408082208585039055918516815290812080548492906116f1908490612713565b925050819055508273ffffffffffffffffffffffffffffffffffffffff168473ffffffffffffffffffffffffffffffffffffffff167fddf252ad1be2c89b69c2b068fc378daa952ba7f163c4a11628f55a4df523b3ef8460405161175791815260200190565b60405180910390a3610942565b73ffffffffffffffffffffffffffffffffffffffff8216611807576040517f08c379a000000000000000000000000000000000000000000000000000000000815260206004820152602160248201527f45524332303a206275726e2066726f6d20746865207a65726f2061646472657360448201527f7300000000000000000000000000000000000000000000000000000000000000606482015260840161066c565b73ffffffffffffffffffffffffffffffffffffffff8216600090815260336020526040902054818110156118bd576040517f08c379a000000000000000000000000000000000000000000000000000000000815260206004820152602260248201527f45524332303a206275726e20616d6f756e7420657863656564732062616c616e60448201527f6365000000000000000000000000000000000000000000000000000000000000606482015260840161066c565b73ffffffffffffffffffffffffffffffffffffffff831660009081526033602052604081208383039055603580548492906118f990849061272b565b909155505060405182815260009073ffffffffffffffffffffffffffffffffffffffff8516907fddf252ad1be2c89b69c2b068fc378daa952ba7f163c4a11628f55a4df523b3ef9060200160405180910390a3505050565b6000610c367f8b73c3c69bb8fe3d512ecc4cf759cc79239f7b179b0ffacaa9a75d522b39400f61198060655490565b6066546040805160208101859052908101839052606081018290524660808201523060a082015260009060c0016040516020818303038152906040528051906020012090509392505050565b73ffffffffffffffffffffffffffffffffffffffff811660009081526099602052604090208054600181018255905b50919050565b6000610cb3611a0e611951565b836040517f19010000000000000000000000000000000000000000000000000000000000006020820152602281018390526042810182905260009060620160405160208183030381529060405280519060200120905092915050565b6000806000611a7b87878787611f54565b91509150611a888161206c565b5095945050505050565b600054610100900460ff1680611aab575060005460ff16155b611b37576040517f08c379a000000000000000000000000000000000000000000000000000000000815260206004820152602e60248201527f496e697469616c697a61626c653a20636f6e747261637420697320616c72656160448201527f647920696e697469616c697a6564000000000000000000000000000000000000606482015260840161066c565b600054610100900460ff16158015611b7657600080547fffffffffffffffffffffffffffffffffffffffffffffffffffffffffffff0000166101011790555b8015610c8957600080547fffffffffffffffffffffffffffffffffffffffffffffffffffffffffffff00ff16905550565b600054610100900460ff1680611bc0575060005460ff16155b611c4c576040517f08c379a000000000000000000000000000000000000000000000000000000000815260206004820152602e60248201527f496e697469616c697a61626c653a20636f6e747261637420697320616c72656160448201527f647920696e697469616c697a6564000000000000000000000000000000000000606482015260840161066c565b600054610100900460ff16158015611c8b57600080547fffffffffffffffffffffffffffffffffffffffffffffffffffffffffffff0000166101011790555b825160208085019190912083519184019190912060659190915560665580156111d957600080547fffffffffffffffffffffffffffffffffffffffffffffffffffffffffffff00ff169055505050565b600054610100900460ff1680611cf4575060005460ff16155b611d80576040517f08c379a000000000000000000000000000000000000000000000000000000000815260206004820152602e60248201527f496e697469616c697a61626c653a20636f6e747261637420697320616c72656160448201527f647920696e697469616c697a6564000000000000000000000000000000000000606482015260840161066c565b600054610100900460ff16158015611dbf57600080547fffffffffffffffffffffffffffffffffffffffffffffffffffffffffffff0000166101011790555b7f6e71edae12b1b97f4d1f60370fef10105fa2faae0126114a169c64845d6126c9609a558015610ae757600080547fffffffffffffffffffffffffffffffffffffffffffffffffffffffffffff00ff1690555050565b600054610100900460ff1680611e2e575060005460ff16155b611eba576040517f08c379a000000000000000000000000000000000000000000000000000000000815260206004820152602e60248201527f496e697469616c697a61626c653a20636f6e747261637420697320616c72656160448201527f647920696e697469616c697a6564000000000000000000000000000000000000606482015260840161066c565b600054610100900460ff16158015611ef957600080547fffffffffffffffffffffffffffffffffffffffffffffffffffffffffffff0000166101011790555b8251611f0c9060369060208601906122c5565b508151611f209060379060208501906122c5565b5080156111d957600080547fffffffffffffffffffffffffffffffffffffffffffffffffffffffffffff00ff169055505050565b6000807f7fffffffffffffffffffffffffffffff5d576e7357a4501ddfe92f46681b20a0831115611f8b5750600090506003612063565b8460ff16601b14158015611fa357508460ff16601c14155b15611fb45750600090506004612063565b6040805160008082526020820180845289905260ff881692820192909252606081018690526080810185905260019060a0016020604051602081039080840390855afa158015612008573d6000803e3d6000fd5b50506040517fffffffffffffffffffffffffffffffffffffffffffffffffffffffffffffffe0015191505073ffffffffffffffffffffffffffffffffffffffff811661205c57600060019250925050612063565b9150600090505b94509492505050565b6000816004811115612080576120806127bf565b14156120895750565b600181600481111561209d5761209d6127bf565b1415612105576040517f08c379a000000000000000000000000000000000000000000000000000000000815260206004820152601860248201527f45434453413a20696e76616c6964207369676e61747572650000000000000000604482015260640161066c565b6002816004811115612119576121196127bf565b1415612181576040517f08c379a000000000000000000000000000000000000000000000000000000000815260206004820152601f60248201527f45434453413a20696e76616c6964207369676e6174757265206c656e67746800604482015260640161066c565b6003816004811115612195576121956127bf565b1415612223576040517f08c379a000000000000000000000000000000000000000000000000000000000815260206004820152602260248201527f45434453413a20696e76616c6964207369676e6174757265202773272076616c60448201527f7565000000000000000000000000000000000000000000000000000000000000606482015260840161066c565b6004816004811115612237576122376127bf565b1415610c89576040517f08c379a000000000000000000000000000000000000000000000000000000000815260206004820152602260248201527f45434453413a20696e76616c6964207369676e6174757265202776272076616c60448201527f7565000000000000000000000000000000000000000000000000000000000000606482015260840161066c565b8280546122d190612742565b90600052602060002090601f0160209004810192826122f35760008555612339565b82601f1061230c57805160ff1916838001178555612339565b82800160010185558215612339579182015b8281111561233957825182559160200191906001019061231e565b50612345929150612349565b5090565b5b80821115612345576000815560010161234a565b600082601f83011261236f57600080fd5b813567ffffffffffffffff8082111561238a5761238a6127ee565b604051601f83017fffffffffffffffffffffffffffffffffffffffffffffffffffffffffffffffe0908116603f011681019082821181831017156123d0576123d06127ee565b816040528381528660208588010111156123e957600080fd5b836020870160208301376000602085830101528094505050505092915050565b60006020828403121561241b57600080fd5b81356124268161281d565b9392505050565b60006020828403121561243f57600080fd5b81516124268161281d565b6000806040838503121561245d57600080fd5b82356124688161281d565b915060208301356124788161281d565b809150509250929050565b60008060006060848603121561249857600080fd5b83356124a38161281d565b925060208401356124b38161281d565b929592945050506040919091013590565b600080600080600080600060e0888a0312156124df57600080fd5b87356124ea8161281d565b965060208801356124fa8161281d565b9550604088013594506060880135935060808801356125188161283f565b9699959850939692959460a0840135945060c09093013592915050565b6000806040838503121561254857600080fd5b82356125538161281d565b946020939093013593505050565b60008060006060848603121561257657600080fd5b83356125818161281d565b95602085013595506040909401359392505050565b6000806000606084860312156125ab57600080fd5b833567ffffffffffffffff808211156125c357600080fd5b6125cf8783880161235e565b945060208601359150808211156125e557600080fd5b506125f28682870161235e565b92505060408401356126038161281d565b809150509250925092565b60006020828403121561262057600080fd5b5035919050565b6000806040838503121561263a57600080fd5b8235915060208301356124788161281d565b60008060006060848603121561266157600080fd5b8335925060208401356126738161281d565b915060408401356126038161281d565b60006020828403121561269557600080fd5b81516124268161283f565b600060208083528351808285015260005b818110156126cd578581018301518582016040015282016126b1565b818111156126df576000604083870101525b50601f017fffffffffffffffffffffffffffffffffffffffffffffffffffffffffffffffe016929092016040019392505050565b6000821982111561272657612726612790565b500190565b60008282101561273d5761273d612790565b500390565b600181811c9082168061275657607f821691505b602082108114156119fb577f4e487b7100000000000000000000000000000000000000000000000000000000600052602260045260246000fd5b7f4e487b7100000000000000000000000000000000000000000000000000000000600052601160045260246000fd5b7f4e487b7100000000000000000000000000000000000000000000000000000000600052602160045260246000fd5b7f4e487b7100000000000000000000000000000000000000000000000000000000600052604160045260246000fd5b73ffffffffffffffffffffffffffffffffffffffff81168114610c8957600080fd5b60ff81168114610c8957600080fdfea26469706673582212206e3854a8d3c43dbb3b7411d7010035073f3171014b5b8fa87765b262d7f6107464736f6c63430008070033",
  "linkReferences": {},
  "deployedLinkReferences": {}
}