{
  "_format": "hh-sol-artifact-1",
  "contractName": "MockCore",
  "sourceName": "contracts/mock/MockCore.sol",
  "abi": [
    {
      "inputs": [
        {
          "internalType": "address",
          "name": "_governor",
          "type": "address"
        },
        {
          "internalType": "address",
          "name": "_guardian",
          "type": "address"
        },
        {
          "internalType": "address[]",
          "name": "stableMasterList",
          "type": "address[]"
        }
      ],
      "stateMutability": "nonpayable",
      "type": "constructor"
    },
    {
      "anonymous": false,
      "inputs": [
        {
          "indexed": true,
          "internalType": "address",
          "name": "newCore",
          "type": "address"
        }
      ],
      "name": "CoreChanged",
      "type": "event"
    },
    {
      "anonymous": false,
      "inputs": [
        {
          "indexed": true,
          "internalType": "address",
          "name": "governor",
          "type": "address"
        }
      ],
      "name": "GovernorRoleGranted",
      "type": "event"
    },
    {
      "anonymous": false,
      "inputs": [
        {
          "indexed": true,
          "internalType": "address",
          "name": "governor",
          "type": "address"
        }
      ],
      "name": "GovernorRoleRevoked",
      "type": "event"
    },
    {
      "anonymous": false,
      "inputs": [
        {
          "indexed": true,
          "internalType": "address",
          "name": "oldGuardian",
          "type": "address"
        },
        {
          "indexed": true,
          "internalType": "address",
          "name": "newGuardian",
          "type": "address"
        }
      ],
      "name": "GuardianRoleChanged",
      "type": "event"
    },
    {
      "anonymous": false,
      "inputs": [
        {
          "indexed": true,
          "internalType": "address",
          "name": "_stableMaster",
          "type": "address"
        },
        {
          "indexed": true,
          "internalType": "address",
          "name": "_agToken",
          "type": "address"
        }
      ],
      "name": "StableMasterDeployed",
      "type": "event"
    },
    {
      "anonymous": false,
      "inputs": [
        {
          "indexed": true,
          "internalType": "address",
          "name": "_stableMaster",
          "type": "address"
        }
      ],
      "name": "StableMasterRevoked",
      "type": "event"
    },
    {
      "inputs": [
        {
          "internalType": "address",
          "name": "_governor",
          "type": "address"
        }
      ],
      "name": "addGovernor",
      "outputs": [],
      "stateMutability": "nonpayable",
      "type": "function"
    },
    {
      "inputs": [
        {
          "internalType": "address",
          "name": "agToken",
          "type": "address"
        }
      ],
      "name": "deployStableMaster",
      "outputs": [],
      "stateMutability": "nonpayable",
      "type": "function"
    },
    {
      "inputs": [
        {
          "internalType": "address",
          "name": "",
          "type": "address"
        }
      ],
      "name": "deployedStableMasterMap",
      "outputs": [
        {
          "internalType": "bool",
          "name": "",
          "type": "bool"
        }
      ],
      "stateMutability": "view",
      "type": "function"
    },
    {
      "inputs": [],
      "name": "governorList",
      "outputs": [
        {
          "internalType": "address[]",
          "name": "",
          "type": "address[]"
        }
      ],
      "stateMutability": "view",
      "type": "function"
    },
    {
      "inputs": [
        {
          "internalType": "address",
          "name": "",
          "type": "address"
        }
      ],
      "name": "governorMap",
      "outputs": [
        {
          "internalType": "bool",
          "name": "",
          "type": "bool"
        }
      ],
      "stateMutability": "view",
      "type": "function"
    },
    {
      "inputs": [],
      "name": "guardian",
      "outputs": [
        {
          "internalType": "address",
          "name": "",
          "type": "address"
        }
      ],
      "stateMutability": "view",
      "type": "function"
    },
    {
      "inputs": [
        {
          "internalType": "address",
          "name": "_governor",
          "type": "address"
        }
      ],
      "name": "removeGovernor",
      "outputs": [],
      "stateMutability": "nonpayable",
      "type": "function"
    },
    {
      "inputs": [],
      "name": "revokeGuardian",
      "outputs": [],
      "stateMutability": "nonpayable",
      "type": "function"
    },
    {
      "inputs": [
        {
          "internalType": "address",
          "name": "stableMaster",
          "type": "address"
        }
      ],
      "name": "revokeStableMaster",
      "outputs": [],
      "stateMutability": "nonpayable",
      "type": "function"
    },
    {
      "inputs": [
        {
          "internalType": "contract ICore",
          "name": "newCore",
          "type": "address"
        }
      ],
      "name": "setCore",
      "outputs": [],
      "stateMutability": "nonpayable",
      "type": "function"
    },
    {
      "inputs": [
        {
          "internalType": "address",
          "name": "_newGuardian",
          "type": "address"
        }
      ],
      "name": "setGuardian",
      "outputs": [],
      "stateMutability": "nonpayable",
      "type": "function"
    },
    {
      "inputs": [],
      "name": "stablecoinList",
      "outputs": [
        {
          "internalType": "address[]",
          "name": "",
          "type": "address[]"
        }
      ],
      "stateMutability": "view",
      "type": "function"
    }
  ],
  "bytecode": "0x60806040523480156200001157600080fd5b506040516200243c3803806200243c83398101604081905262000034916200024b565b6001600160a01b038216158015906200005557506001600160a01b03831615155b6200008b5760405162461bcd60e51b81526020600482015260016024820152600360fc1b60448201526064015b60405180910390fd5b826001600160a01b0316826001600160a01b03161415620000d45760405162461bcd60e51b8152602060048201526002602482015261333960f01b604482015260640162000082565b6004805460018181019092557f8a35acfbc15ff81a39ae7d344fd709f28e8600b4aa8c65c6b64bfe7fe36bd19b0180546001600160a01b038087166001600160a01b0319928316811790935560028054918716919092161790556000908152602081905260408120805460ff19169092179091555b8151811015620001ba5760038282815181106200016a576200016a62000376565b60209081029190910181015182546001810184556000938452919092200180546001600160a01b0319166001600160a01b0390921691909117905580620001b1816200034c565b91505062000149565b506040516001600160a01b038416907f2386e153a9c192d61a939b6f27bd9462592d94dd5c438ce7a7d833a5d04c64e990600090a26040516001600160a01b038316906000907f37e32bed1d2d58ea58967d6af777c41290d30558fdc37252b6c7a9bac2b579e5908290a3505050620003a2565b80516001600160a01b03811681146200024657600080fd5b919050565b6000806000606084860312156200026157600080fd5b6200026c846200022e565b925060206200027d8186016200022e565b60408601519093506001600160401b03808211156200029b57600080fd5b818701915087601f830112620002b057600080fd5b815181811115620002c557620002c56200038c565b8060051b604051601f19603f83011681018181108582111715620002ed57620002ed6200038c565b604052828152858101935084860182860187018c10156200030d57600080fd5b600095505b838610156200033b5762000326816200022e565b85526001959095019493860193860162000312565b508096505050505050509250925092565b60006000198214156200036f57634e487b7160e01b600052601160045260246000fd5b5060010190565b634e487b7160e01b600052603260045260246000fd5b634e487b7160e01b600052604160045260246000fd5b61208a80620003b26000396000f3fe608060405234801561001057600080fd5b50600436106100d35760003560e01c80638a0dac4a11610081578063b13380341161005b578063b1338034146101ee578063b44be095146101f6578063eecdac88146101fe57600080fd5b80638a0dac4a146101b357806391b38582146101c6578063a6d7fe2d146101d957600080fd5b8063452a9320116100b2578063452a932014610138578063800096301461017d57806385ebdc271461019057600080fd5b8062a254d2146100d8578063134ce3b0146100ed5780633c4a25d014610125575b600080fd5b6100eb6100e6366004611d15565b610211565b005b6101106100fb366004611d15565b60016020526000908152604090205460ff1681565b60405190151581526020015b60405180910390f35b6100eb610133366004611d15565b610595565b6002546101589073ffffffffffffffffffffffffffffffffffffffff1681565b60405173ffffffffffffffffffffffffffffffffffffffff909116815260200161011c565b6100eb61018b366004611d15565b6107ec565b61011061019e366004611d15565b60006020819052908152604090205460ff1681565b6100eb6101c1366004611d15565b610eaf565b6100eb6101d4366004611d15565b61124a565b6101e16115be565b60405161011c9190611e40565b6101e161162d565b6100eb61169a565b6100eb61020c366004611d15565b61187d565b3360009081526020819052604090205460ff1661028f576040517f08c379a000000000000000000000000000000000000000000000000000000000815260206004820152600160248201527f310000000000000000000000000000000000000000000000000000000000000060448201526064015b60405180910390fd5b60035460018110156102fd576040517f08c379a000000000000000000000000000000000000000000000000000000000815260206004820152600260248201527f34350000000000000000000000000000000000000000000000000000000000006044820152606401610286565b6000805b61030c600184611f23565b81101561041d578373ffffffffffffffffffffffffffffffffffffffff166003828154811061033d5761033d611fd1565b60009182526020909120015473ffffffffffffffffffffffffffffffffffffffff16141561040b576001915060036103758385611f23565b8154811061038557610385611fd1565b6000918252602090912001546003805473ffffffffffffffffffffffffffffffffffffffff90921691839081106103be576103be611fd1565b9060005260206000200160006101000a81548173ffffffffffffffffffffffffffffffffffffffff021916908373ffffffffffffffffffffffffffffffffffffffff16021790555061041d565b8061041581611f3a565b915050610301565b508060011480610480575073ffffffffffffffffffffffffffffffffffffffff8316600361044c600185611f23565b8154811061045c5761045c611fd1565b60009182526020909120015473ffffffffffffffffffffffffffffffffffffffff16145b6104e6576040517f08c379a000000000000000000000000000000000000000000000000000000000815260206004820152600260248201527f34350000000000000000000000000000000000000000000000000000000000006044820152606401610286565b60038054806104f7576104f7611fa2565b60008281526020812082017fffffffffffffffffffffffffffffffffffffffffffffffffffffffffffffffff90810180547fffffffffffffffffffffffff000000000000000000000000000000000000000016905590910190915560405173ffffffffffffffffffffffffffffffffffffffff8516917f37dc4c063dd9531956283bafb4cd913962d4307a872d182d23773d41ecca6a9991a2505050565b3360009081526020819052604090205460ff1661060e576040517f08c379a000000000000000000000000000000000000000000000000000000000815260206004820152600160248201527f31000000000000000000000000000000000000000000000000000000000000006044820152606401610286565b8073ffffffffffffffffffffffffffffffffffffffff811661068c576040517f08c379a000000000000000000000000000000000000000000000000000000000815260206004820152600160248201527f30000000000000000000000000000000000000000000000000000000000000006044820152606401610286565b73ffffffffffffffffffffffffffffffffffffffff821660009081526020819052604090205460ff161561071c576040517f08c379a000000000000000000000000000000000000000000000000000000000815260206004820152600260248201527f34360000000000000000000000000000000000000000000000000000000000006044820152606401610286565b73ffffffffffffffffffffffffffffffffffffffff821660008181526020819052604080822080547fffffffffffffffffffffffffffffffffffffffffffffffffffffffffffffff0016600190811790915560048054918201815583527f8a35acfbc15ff81a39ae7d344fd709f28e8600b4aa8c65c6b64bfe7fe36bd19b0180547fffffffffffffffffffffffff00000000000000000000000000000000000000001684179055517f2386e153a9c192d61a939b6f27bd9462592d94dd5c438ce7a7d833a5d04c64e99190a25050565b3360009081526020819052604090205460ff16610865576040517f08c379a000000000000000000000000000000000000000000000000000000000815260206004820152600160248201527f31000000000000000000000000000000000000000000000000000000000000006044820152606401610286565b8073ffffffffffffffffffffffffffffffffffffffff81166108e3576040517f08c379a000000000000000000000000000000000000000000000000000000000815260206004820152600160248201527f30000000000000000000000000000000000000000000000000000000000000006044820152606401610286565b3073ffffffffffffffffffffffffffffffffffffffff83161415610963576040517f08c379a000000000000000000000000000000000000000000000000000000000815260206004820152600260248201527f34300000000000000000000000000000000000000000000000000000000000006044820152606401610286565b8173ffffffffffffffffffffffffffffffffffffffff1663452a93206040518163ffffffff1660e01b815260040160206040518083038186803b1580156109a957600080fd5b505afa1580156109bd573d6000803e3d6000fd5b505050506040513d601f19601f820116820180604052508101906109e19190611d39565b60025473ffffffffffffffffffffffffffffffffffffffff908116911614610a65576040517f08c379a000000000000000000000000000000000000000000000000000000000815260206004820152600260248201527f34310000000000000000000000000000000000000000000000000000000000006044820152606401610286565b6000600480549050905060008373ffffffffffffffffffffffffffffffffffffffff1663a6d7fe2d6040518163ffffffff1660e01b815260040160006040518083038186803b158015610ab757600080fd5b505afa158015610acb573d6000803e3d6000fd5b505050506040513d6000823e601f3d9081017fffffffffffffffffffffffffffffffffffffffffffffffffffffffffffffffe0168201604052610b119190810190611d56565b90506000600380549050905060008573ffffffffffffffffffffffffffffffffffffffff1663b13380346040518163ffffffff1660e01b815260040160006040518083038186803b158015610b6557600080fd5b505afa158015610b79573d6000803e3d6000fd5b505050506040513d6000823e601f3d9081017fffffffffffffffffffffffffffffffffffffffffffffffffffffffffffffffe0168201604052610bbf9190810190611d56565b9050825184148015610bd15750805182145b610c37576040517f08c379a000000000000000000000000000000000000000000000000000000000815260206004820152600260248201527f34320000000000000000000000000000000000000000000000000000000000006044820152606401610286565b6000805b85811015610cab57600080868381518110610c5857610c58611fd1565b60209081029190910181015173ffffffffffffffffffffffffffffffffffffffff1682528101919091526040016000205460ff16610c995760019150610cab565b80610ca381611f3a565b915050610c3b565b5060005b83811015610d3c57828181518110610cc957610cc9611fd1565b602002602001015173ffffffffffffffffffffffffffffffffffffffff1660038281548110610cfa57610cfa611fd1565b60009182526020909120015473ffffffffffffffffffffffffffffffffffffffff1614610d2a5760019150610d3c565b80610d3481611f3a565b915050610caf565b508015610da5576040517f08c379a000000000000000000000000000000000000000000000000000000000815260206004820152600260248201527f34330000000000000000000000000000000000000000000000000000000000006044820152606401610286565b60005b83811015610e645760038181548110610dc357610dc3611fd1565b6000918252602090912001546040517f8000963000000000000000000000000000000000000000000000000000000000815273ffffffffffffffffffffffffffffffffffffffff8a8116600483015290911690638000963090602401600060405180830381600087803b158015610e3957600080fd5b505af1158015610e4d573d6000803e3d6000fd5b505050508080610e5c90611f3a565b915050610da8565b5060405173ffffffffffffffffffffffffffffffffffffffff8816907f09ea1a5c9c765f3dcca5237033980edb16f8f7e0c59cac416e39c8dbbfdcec6990600090a250505050505050565b3360009081526020819052604090205460ff1680610ee4575060025473ffffffffffffffffffffffffffffffffffffffff1633145b610f4a576040517f08c379a000000000000000000000000000000000000000000000000000000000815260206004820152600160248201527f31000000000000000000000000000000000000000000000000000000000000006044820152606401610286565b8073ffffffffffffffffffffffffffffffffffffffff8116610fc8576040517f08c379a000000000000000000000000000000000000000000000000000000000815260206004820152600160248201527f30000000000000000000000000000000000000000000000000000000000000006044820152606401610286565b73ffffffffffffffffffffffffffffffffffffffff821660009081526020819052604090205460ff1615611058576040517f08c379a000000000000000000000000000000000000000000000000000000000815260206004820152600260248201527f33390000000000000000000000000000000000000000000000000000000000006044820152606401610286565b60025473ffffffffffffffffffffffffffffffffffffffff838116911614156110dd576040517f08c379a000000000000000000000000000000000000000000000000000000000815260206004820152600260248201527f34390000000000000000000000000000000000000000000000000000000000006044820152606401610286565b6002805473ffffffffffffffffffffffffffffffffffffffff8481167fffffffffffffffffffffffff00000000000000000000000000000000000000008316179092551660005b6003548110156111ea576003818154811061114157611141611fd1565b6000918252602090912001546040517f33c509d100000000000000000000000000000000000000000000000000000000815273ffffffffffffffffffffffffffffffffffffffff86811660048301528481166024830152909116906333c509d190604401600060405180830381600087803b1580156111bf57600080fd5b505af11580156111d3573d6000803e3d6000fd5b5050505080806111e290611f3a565b915050611124565b508273ffffffffffffffffffffffffffffffffffffffff168173ffffffffffffffffffffffffffffffffffffffff167f37e32bed1d2d58ea58967d6af777c41290d30558fdc37252b6c7a9bac2b579e560405160405180910390a3505050565b3360009081526020819052604090205460ff166112c3576040517f08c379a000000000000000000000000000000000000000000000000000000000815260206004820152600160248201527f31000000000000000000000000000000000000000000000000000000000000006044820152606401610286565b8073ffffffffffffffffffffffffffffffffffffffff8116611341576040517f08c379a000000000000000000000000000000000000000000000000000000000815260206004820152600160248201527f30000000000000000000000000000000000000000000000000000000000000006044820152606401610286565b60008273ffffffffffffffffffffffffffffffffffffffff16636ac5dc466040518163ffffffff1660e01b815260040160206040518083038186803b15801561138957600080fd5b505afa15801561139d573d6000803e3d6000fd5b505050506040513d601f19601f820116820180604052508101906113c19190611d39565b73ffffffffffffffffffffffffffffffffffffffff811660009081526001602052604090205490915060ff1615611454576040517f08c379a000000000000000000000000000000000000000000000000000000000815260206004820152600260248201527f34340000000000000000000000000000000000000000000000000000000000006044820152606401610286565b6003805460018082019092557fc2575a0e9e593c00f959f8c92f12db2869c3395a3b0502d05e2516446f71f85b0180547fffffffffffffffffffffffff00000000000000000000000000000000000000001673ffffffffffffffffffffffffffffffffffffffff8481169182179092556000818152602084905260409081902080547fffffffffffffffffffffffffffffffffffffffffffffffffffffffffffffff001690941790935560025492517f050f53fe000000000000000000000000000000000000000000000000000000008152909263050f53fe92611542926004929091169088908301611e9a565b600060405180830381600087803b15801561155c57600080fd5b505af1158015611570573d6000803e3d6000fd5b505060405173ffffffffffffffffffffffffffffffffffffffff8087169350841691507fd6bbae6828feaab30ea370a21419ad38cea8e47e4d9b12dced9a0791a130bf8b90600090a3505050565b6060600480548060200260200160405190810160405280929190818152602001828054801561162357602002820191906000526020600020905b815473ffffffffffffffffffffffffffffffffffffffff1681526001909101906020018083116115f8575b5050505050905090565b606060038054806020026020016040519081016040528092919081815260200182805480156116235760200282019190600052602060002090815473ffffffffffffffffffffffffffffffffffffffff1681526001909101906020018083116115f8575050505050905090565b3360009081526020819052604090205460ff16806116cf575060025473ffffffffffffffffffffffffffffffffffffffff1633145b611735576040517f08c379a000000000000000000000000000000000000000000000000000000000815260206004820152600160248201527f31000000000000000000000000000000000000000000000000000000000000006044820152606401610286565b600280547fffffffffffffffffffffffff0000000000000000000000000000000000000000811690915573ffffffffffffffffffffffffffffffffffffffff1660005b600354811015611836576003818154811061179557611795611fd1565b6000918252602090912001546040517faf648c3d00000000000000000000000000000000000000000000000000000000815273ffffffffffffffffffffffffffffffffffffffff84811660048301529091169063af648c3d90602401600060405180830381600087803b15801561180b57600080fd5b505af115801561181f573d6000803e3d6000fd5b50505050808061182e90611f3a565b915050611778565b5060405160009073ffffffffffffffffffffffffffffffffffffffff8316907f37e32bed1d2d58ea58967d6af777c41290d30558fdc37252b6c7a9bac2b579e5908390a350565b3360009081526020819052604090205460ff166118f6576040517f08c379a000000000000000000000000000000000000000000000000000000000815260206004820152600160248201527f31000000000000000000000000000000000000000000000000000000000000006044820152606401610286565b60045460018111611963576040517f08c379a000000000000000000000000000000000000000000000000000000000815260206004820152600260248201527f34370000000000000000000000000000000000000000000000000000000000006044820152606401610286565b6000805b611972600184611f23565b811015611a83578373ffffffffffffffffffffffffffffffffffffffff16600482815481106119a3576119a3611fd1565b60009182526020909120015473ffffffffffffffffffffffffffffffffffffffff161415611a71576001915060046119db8385611f23565b815481106119eb576119eb611fd1565b6000918252602090912001546004805473ffffffffffffffffffffffffffffffffffffffff9092169183908110611a2457611a24611fd1565b9060005260206000200160006101000a81548173ffffffffffffffffffffffffffffffffffffffff021916908373ffffffffffffffffffffffffffffffffffffffff160217905550611a83565b80611a7b81611f3a565b915050611967565b508060011480611ae6575073ffffffffffffffffffffffffffffffffffffffff83166004611ab2600185611f23565b81548110611ac257611ac2611fd1565b60009182526020909120015473ffffffffffffffffffffffffffffffffffffffff16145b611b4c576040517f08c379a000000000000000000000000000000000000000000000000000000000815260206004820152600260248201527f34380000000000000000000000000000000000000000000000000000000000006044820152606401610286565b6004805480611b5d57611b5d611fa2565b6000828152602080822083017fffffffffffffffffffffffffffffffffffffffffffffffffffffffffffffffff90810180547fffffffffffffffffffffffff000000000000000000000000000000000000000016905590920190925573ffffffffffffffffffffffffffffffffffffffff851682528190526040812080547fffffffffffffffffffffffffffffffffffffffffffffffffffffffffffffff001690555b600354811015611cbe5760038181548110611c1d57611c1d611fd1565b6000918252602090912001546040517feecdac8800000000000000000000000000000000000000000000000000000000815273ffffffffffffffffffffffffffffffffffffffff86811660048301529091169063eecdac8890602401600060405180830381600087803b158015611c9357600080fd5b505af1158015611ca7573d6000803e3d6000fd5b505050508080611cb690611f3a565b915050611c00565b5060405173ffffffffffffffffffffffffffffffffffffffff8416907ff7a594030415b54bfad82c88c970190258667dc73b28e19d277dbd28291c9b7e90600090a2505050565b8051611d108161202f565b919050565b600060208284031215611d2757600080fd5b8135611d328161202f565b9392505050565b600060208284031215611d4b57600080fd5b8151611d328161202f565b60006020808385031215611d6957600080fd5b825167ffffffffffffffff80821115611d8157600080fd5b818501915085601f830112611d9557600080fd5b815181811115611da757611da7612000565b8060051b6040517fffffffffffffffffffffffffffffffffffffffffffffffffffffffffffffffe0603f83011681018181108582111715611dea57611dea612000565b604052828152858101935084860182860187018a1015611e0957600080fd5b600095505b83861015611e3357611e1f81611d05565b855260019590950194938601938601611e0e565b5098975050505050505050565b6020808252825182820181905260009190848201906040850190845b81811015611e8e57835173ffffffffffffffffffffffffffffffffffffffff1683529284019291840191600101611e5c565b50909695505050505050565b6000606082016060835280865480835260808501915087600052602092508260002060005b82811015611ef157815473ffffffffffffffffffffffffffffffffffffffff1684529284019260019182019101611ebf565b50505073ffffffffffffffffffffffffffffffffffffffff958616918401919091529290931660409091015292915050565b600082821015611f3557611f35611f73565b500390565b60007fffffffffffffffffffffffffffffffffffffffffffffffffffffffffffffffff821415611f6c57611f6c611f73565b5060010190565b7f4e487b7100000000000000000000000000000000000000000000000000000000600052601160045260246000fd5b7f4e487b7100000000000000000000000000000000000000000000000000000000600052603160045260246000fd5b7f4e487b7100000000000000000000000000000000000000000000000000000000600052603260045260246000fd5b7f4e487b7100000000000000000000000000000000000000000000000000000000600052604160045260246000fd5b73ffffffffffffffffffffffffffffffffffffffff8116811461205157600080fd5b5056fea264697066735822122033cd7468d1181cadcb3487466ba4ceeb5ab580558cb902bba80071eee58c139264736f6c63430008070033",
  "linkReferences": {},
  "deployedLinkReferences": {}
}