{
  "_format": "hh-sol-artifact-1",
  "contractName": "MockGovernor",
  "sourceName": "contracts/mock/MockGovernor.sol",
  "abi": [
    {
      "anonymous": false,
      "inputs": [
        {
          "indexed": false,
          "internalType": "uint256",
          "name": "proposalId",
          "type": "uint256"
        }
      ],
      "name": "ProposalCanceled",
      "type": "event"
    },
    {
      "anonymous": false,
      "inputs": [
        {
          "indexed": false,
          "internalType": "uint256",
          "name": "proposalId",
          "type": "uint256"
        },
        {
          "indexed": false,
          "internalType": "address",
          "name": "proposer",
          "type": "address"
        },
        {
          "indexed": false,
          "internalType": "address[]",
          "name": "targets",
          "type": "address[]"
        },
        {
          "indexed": false,
          "internalType": "uint256[]",
          "name": "values",
          "type": "uint256[]"
        },
        {
          "indexed": false,
          "internalType": "string[]",
          "name": "signatures",
          "type": "string[]"
        },
        {
          "indexed": false,
          "internalType": "bytes[]",
          "name": "calldatas",
          "type": "bytes[]"
        },
        {
          "indexed": false,
          "internalType": "uint256",
          "name": "startBlock",
          "type": "uint256"
        },
        {
          "indexed": false,
          "internalType": "uint256",
          "name": "endBlock",
          "type": "uint256"
        },
        {
          "indexed": false,
          "internalType": "string",
          "name": "description",
          "type": "string"
        }
      ],
      "name": "ProposalCreated",
      "type": "event"
    },
    {
      "anonymous": false,
      "inputs": [
        {
          "indexed": false,
          "internalType": "uint256",
          "name": "proposalId",
          "type": "uint256"
        }
      ],
      "name": "ProposalExecuted",
      "type": "event"
    },
    {
      "anonymous": false,
      "inputs": [
        {
          "indexed": false,
          "internalType": "uint256",
          "name": "proposalId",
          "type": "uint256"
        },
        {
          "indexed": false,
          "internalType": "uint256",
          "name": "eta",
          "type": "uint256"
        }
      ],
      "name": "ProposalQueued",
      "type": "event"
    },
    {
      "anonymous": false,
      "inputs": [
        {
          "indexed": false,
          "internalType": "uint256",
          "name": "oldProposalThreshold",
          "type": "uint256"
        },
        {
          "indexed": false,
          "internalType": "uint256",
          "name": "newProposalThreshold",
          "type": "uint256"
        }
      ],
      "name": "ProposalThresholdUpdated",
      "type": "event"
    },
    {
      "anonymous": false,
      "inputs": [
        {
          "indexed": false,
          "internalType": "uint256",
          "name": "oldQuorum",
          "type": "uint256"
        },
        {
          "indexed": false,
          "internalType": "uint256",
          "name": "newQuorum",
          "type": "uint256"
        }
      ],
      "name": "QuorumUpdated",
      "type": "event"
    },
    {
      "anonymous": false,
      "inputs": [
        {
          "indexed": false,
          "internalType": "address",
          "name": "oldTimelock",
          "type": "address"
        },
        {
          "indexed": false,
          "internalType": "address",
          "name": "newTimelock",
          "type": "address"
        }
      ],
      "name": "TimelockChange",
      "type": "event"
    },
    {
      "anonymous": false,
      "inputs": [
        {
          "indexed": true,
          "internalType": "address",
          "name": "voter",
          "type": "address"
        },
        {
          "indexed": false,
          "internalType": "uint256",
          "name": "proposalId",
          "type": "uint256"
        },
        {
          "indexed": false,
          "internalType": "uint8",
          "name": "support",
          "type": "uint8"
        },
        {
          "indexed": false,
          "internalType": "uint256",
          "name": "weight",
          "type": "uint256"
        },
        {
          "indexed": false,
          "internalType": "string",
          "name": "reason",
          "type": "string"
        }
      ],
      "name": "VoteCast",
      "type": "event"
    },
    {
      "anonymous": false,
      "inputs": [
        {
          "indexed": false,
          "internalType": "uint256",
          "name": "oldVotingDelay",
          "type": "uint256"
        },
        {
          "indexed": false,
          "internalType": "uint256",
          "name": "newVotingDelay",
          "type": "uint256"
        }
      ],
      "name": "VotingDelayUpdated",
      "type": "event"
    },
    {
      "anonymous": false,
      "inputs": [
        {
          "indexed": false,
          "internalType": "uint256",
          "name": "oldVotingPeriod",
          "type": "uint256"
        },
        {
          "indexed": false,
          "internalType": "uint256",
          "name": "newVotingPeriod",
          "type": "uint256"
        }
      ],
      "name": "VotingPeriodUpdated",
      "type": "event"
    },
    {
      "inputs": [],
      "name": "BALLOT_TYPEHASH",
      "outputs": [
        {
          "internalType": "bytes32",
          "name": "",
          "type": "bytes32"
        }
      ],
      "stateMutability": "view",
      "type": "function"
    },
    {
      "inputs": [],
      "name": "COUNTING_MODE",
      "outputs": [
        {
          "internalType": "string",
          "name": "",
          "type": "string"
        }
      ],
      "stateMutability": "pure",
      "type": "function"
    },
    {
      "inputs": [
        {
          "internalType": "uint256",
          "name": "proposalId",
          "type": "uint256"
        },
        {
          "internalType": "uint8",
          "name": "support",
          "type": "uint8"
        }
      ],
      "name": "castVote",
      "outputs": [
        {
          "internalType": "uint256",
          "name": "",
          "type": "uint256"
        }
      ],
      "stateMutability": "nonpayable",
      "type": "function"
    },
    {
      "inputs": [
        {
          "internalType": "uint256",
          "name": "proposalId",
          "type": "uint256"
        },
        {
          "internalType": "uint8",
          "name": "support",
          "type": "uint8"
        },
        {
          "internalType": "uint8",
          "name": "v",
          "type": "uint8"
        },
        {
          "internalType": "bytes32",
          "name": "r",
          "type": "bytes32"
        },
        {
          "internalType": "bytes32",
          "name": "s",
          "type": "bytes32"
        }
      ],
      "name": "castVoteBySig",
      "outputs": [
        {
          "internalType": "uint256",
          "name": "",
          "type": "uint256"
        }
      ],
      "stateMutability": "nonpayable",
      "type": "function"
    },
    {
      "inputs": [
        {
          "internalType": "uint256",
          "name": "proposalId",
          "type": "uint256"
        },
        {
          "internalType": "uint8",
          "name": "support",
          "type": "uint8"
        },
        {
          "internalType": "string",
          "name": "reason",
          "type": "string"
        }
      ],
      "name": "castVoteWithReason",
      "outputs": [
        {
          "internalType": "uint256",
          "name": "",
          "type": "uint256"
        }
      ],
      "stateMutability": "nonpayable",
      "type": "function"
    },
    {
      "inputs": [
        {
          "internalType": "address[]",
          "name": "targets",
          "type": "address[]"
        },
        {
          "internalType": "uint256[]",
          "name": "values",
          "type": "uint256[]"
        },
        {
          "internalType": "bytes[]",
          "name": "calldatas",
          "type": "bytes[]"
        },
        {
          "internalType": "bytes32",
          "name": "descriptionHash",
          "type": "bytes32"
        }
      ],
      "name": "execute",
      "outputs": [
        {
          "internalType": "uint256",
          "name": "",
          "type": "uint256"
        }
      ],
      "stateMutability": "payable",
      "type": "function"
    },
    {
      "inputs": [
        {
          "internalType": "address",
          "name": "account",
          "type": "address"
        },
        {
          "internalType": "uint256",
          "name": "blockNumber",
          "type": "uint256"
        }
      ],
      "name": "getVotes",
      "outputs": [
        {
          "internalType": "uint256",
          "name": "",
          "type": "uint256"
        }
      ],
      "stateMutability": "view",
      "type": "function"
    },
    {
      "inputs": [
        {
          "internalType": "uint256",
          "name": "proposalId",
          "type": "uint256"
        },
        {
          "internalType": "address",
          "name": "account",
          "type": "address"
        }
      ],
      "name": "hasVoted",
      "outputs": [
        {
          "internalType": "bool",
          "name": "",
          "type": "bool"
        }
      ],
      "stateMutability": "view",
      "type": "function"
    },
    {
      "inputs": [
        {
          "internalType": "address[]",
          "name": "targets",
          "type": "address[]"
        },
        {
          "internalType": "uint256[]",
          "name": "values",
          "type": "uint256[]"
        },
        {
          "internalType": "bytes[]",
          "name": "calldatas",
          "type": "bytes[]"
        },
        {
          "internalType": "bytes32",
          "name": "descriptionHash",
          "type": "bytes32"
        }
      ],
      "name": "hashProposal",
      "outputs": [
        {
          "internalType": "uint256",
          "name": "",
          "type": "uint256"
        }
      ],
      "stateMutability": "pure",
      "type": "function"
    },
    {
      "inputs": [
        {
          "internalType": "contract ERC20VotesUpgradeable",
          "name": "_token",
          "type": "address"
        },
        {
          "internalType": "contract TimelockControllerUpgradeable",
          "name": "_timelock",
          "type": "address"
        }
      ],
      "name": "initialize",
      "outputs": [],
      "stateMutability": "nonpayable",
      "type": "function"
    },
    {
      "inputs": [],
      "name": "name",
      "outputs": [
        {
          "internalType": "string",
          "name": "",
          "type": "string"
        }
      ],
      "stateMutability": "view",
      "type": "function"
    },
    {
      "inputs": [
        {
          "internalType": "uint256",
          "name": "proposalId",
          "type": "uint256"
        }
      ],
      "name": "proposalDeadline",
      "outputs": [
        {
          "internalType": "uint256",
          "name": "",
          "type": "uint256"
        }
      ],
      "stateMutability": "view",
      "type": "function"
    },
    {
      "inputs": [
        {
          "internalType": "uint256",
          "name": "proposalId",
          "type": "uint256"
        }
      ],
      "name": "proposalEta",
      "outputs": [
        {
          "internalType": "uint256",
          "name": "",
          "type": "uint256"
        }
      ],
      "stateMutability": "view",
      "type": "function"
    },
    {
      "inputs": [
        {
          "internalType": "uint256",
          "name": "proposalId",
          "type": "uint256"
        }
      ],
      "name": "proposalSnapshot",
      "outputs": [
        {
          "internalType": "uint256",
          "name": "",
          "type": "uint256"
        }
      ],
      "stateMutability": "view",
      "type": "function"
    },
    {
      "inputs": [],
      "name": "proposalThreshold",
      "outputs": [
        {
          "internalType": "uint256",
          "name": "",
          "type": "uint256"
        }
      ],
      "stateMutability": "view",
      "type": "function"
    },
    {
      "inputs": [
        {
          "internalType": "uint256",
          "name": "proposalId",
          "type": "uint256"
        }
      ],
      "name": "proposalVotes",
      "outputs": [
        {
          "internalType": "uint256",
          "name": "againstVotes",
          "type": "uint256"
        },
        {
          "internalType": "uint256",
          "name": "forVotes",
          "type": "uint256"
        },
        {
          "internalType": "uint256",
          "name": "abstainVotes",
          "type": "uint256"
        }
      ],
      "stateMutability": "view",
      "type": "function"
    },
    {
      "inputs": [
        {
          "internalType": "address[]",
          "name": "targets",
          "type": "address[]"
        },
        {
          "internalType": "uint256[]",
          "name": "values",
          "type": "uint256[]"
        },
        {
          "internalType": "bytes[]",
          "name": "calldatas",
          "type": "bytes[]"
        },
        {
          "internalType": "string",
          "name": "description",
          "type": "string"
        }
      ],
      "name": "propose",
      "outputs": [
        {
          "internalType": "uint256",
          "name": "",
          "type": "uint256"
        }
      ],
      "stateMutability": "nonpayable",
      "type": "function"
    },
    {
      "inputs": [
        {
          "internalType": "address[]",
          "name": "targets",
          "type": "address[]"
        },
        {
          "internalType": "uint256[]",
          "name": "values",
          "type": "uint256[]"
        },
        {
          "internalType": "bytes[]",
          "name": "calldatas",
          "type": "bytes[]"
        },
        {
          "internalType": "bytes32",
          "name": "descriptionHash",
          "type": "bytes32"
        }
      ],
      "name": "queue",
      "outputs": [
        {
          "internalType": "uint256",
          "name": "",
          "type": "uint256"
        }
      ],
      "stateMutability": "nonpayable",
      "type": "function"
    },
    {
      "inputs": [
        {
          "internalType": "uint256",
          "name": "blockNumber",
          "type": "uint256"
        }
      ],
      "name": "quorum",
      "outputs": [
        {
          "internalType": "uint256",
          "name": "",
          "type": "uint256"
        }
      ],
      "stateMutability": "view",
      "type": "function"
    },
    {
      "inputs": [
        {
          "internalType": "uint256",
          "name": "newProposalThreshold",
          "type": "uint256"
        }
      ],
      "name": "setProposalThreshold",
      "outputs": [],
      "stateMutability": "nonpayable",
      "type": "function"
    },
    {
      "inputs": [
        {
          "internalType": "uint256",
          "name": "newQuorum",
          "type": "uint256"
        }
      ],
      "name": "setQuorum",
      "outputs": [],
      "stateMutability": "nonpayable",
      "type": "function"
    },
    {
      "inputs": [
        {
          "internalType": "uint256",
          "name": "newVotingDelay",
          "type": "uint256"
        }
      ],
      "name": "setVotingDelay",
      "outputs": [],
      "stateMutability": "nonpayable",
      "type": "function"
    },
    {
      "inputs": [
        {
          "internalType": "uint256",
          "name": "newVotingPeriod",
          "type": "uint256"
        }
      ],
      "name": "setVotingPeriod",
      "outputs": [],
      "stateMutability": "nonpayable",
      "type": "function"
    },
    {
      "inputs": [
        {
          "internalType": "uint256",
          "name": "proposalId",
          "type": "uint256"
        }
      ],
      "name": "state",
      "outputs": [
        {
          "internalType": "enum IGovernorUpgradeable.ProposalState",
          "name": "",
          "type": "uint8"
        }
      ],
      "stateMutability": "view",
      "type": "function"
    },
    {
      "inputs": [
        {
          "internalType": "bytes4",
          "name": "interfaceId",
          "type": "bytes4"
        }
      ],
      "name": "supportsInterface",
      "outputs": [
        {
          "internalType": "bool",
          "name": "",
          "type": "bool"
        }
      ],
      "stateMutability": "view",
      "type": "function"
    },
    {
      "inputs": [],
      "name": "timelock",
      "outputs": [
        {
          "internalType": "address",
          "name": "",
          "type": "address"
        }
      ],
      "stateMutability": "view",
      "type": "function"
    },
    {
      "inputs": [],
      "name": "token",
      "outputs": [
        {
          "internalType": "contract ERC20VotesUpgradeable",
          "name": "",
          "type": "address"
        }
      ],
      "stateMutability": "view",
      "type": "function"
    },
    {
      "inputs": [
        {
          "internalType": "contract TimelockControllerUpgradeable",
          "name": "newTimelock",
          "type": "address"
        }
      ],
      "name": "updateTimelock",
      "outputs": [],
      "stateMutability": "nonpayable",
      "type": "function"
    },
    {
      "inputs": [],
      "name": "version",
      "outputs": [
        {
          "internalType": "string",
          "name": "",
          "type": "string"
        }
      ],
      "stateMutability": "view",
      "type": "function"
    },
    {
      "inputs": [],
      "name": "votingDelay",
      "outputs": [
        {
          "internalType": "uint256",
          "name": "",
          "type": "uint256"
        }
      ],
      "stateMutability": "view",
      "type": "function"
    },
    {
      "inputs": [],
      "name": "votingPeriod",
      "outputs": [
        {
          "internalType": "uint256",
          "name": "",
          "type": "uint256"
        }
      ],
      "stateMutability": "view",
      "type": "function"
    }
  ],
  "bytecode": "0x608060405234801561001057600080fd5b50613e29806100206000396000f3fe6080604052600436106101d85760003560e01c80637b3c71d311610102578063d33219b411610095578063eb9019d411610064578063eb9019d41461063d578063ece40cc11461065d578063f8ce560a1461067d578063fc0c546a1461069d57600080fd5b8063d33219b414610556578063dd4e2ba5146105a3578063deaaa7cc146105e9578063ea0217cf1461061d57600080fd5b8063b58131b0116100d1578063b58131b0146104e0578063c01f9e37146104f6578063c1ba4e5914610516578063c59057e41461053657600080fd5b80637b3c71d3146104605780637d5e81e214610480578063a890c910146104a0578063ab58fb8e146104c057600080fd5b80633bccf4fd1161017a578063544ffc9c11610149578063544ffc9c1461038457806354fd4d50146103da578063567813881461042057806370b0f6601461044057600080fd5b80633bccf4fd146102bd5780633e4f49e6146102dd578063438596321461030a578063485cc9551461036257600080fd5b8063160cbed7116101b6578063160cbed7146102545780632656227d146102745780632d63f693146102875780633932abb1146102a757600080fd5b806301ffc9a7146101dd57806302a251a31461021257806306fdde0314610232575b600080fd5b3480156101e957600080fd5b506101fd6101f8366004613686565b6106cb565b60405190151581526020015b60405180910390f35b34801561021e57600080fd5b506101f9545b604051908152602001610209565b34801561023e57600080fd5b506102476106dc565b6040516102099190613ad0565b34801561026057600080fd5b5061022461026f3660046134fa565b61076e565b6102246102823660046134fa565b610a77565b34801561029357600080fd5b506102246102a236600461371e565b610bdd565b3480156102b357600080fd5b506101f854610224565b3480156102c957600080fd5b506102246102d836600461380f565b610c16565b3480156102e957600080fd5b506102fd6102f836600461371e565b610caa565b6040516102099190613a8f565b34801561031657600080fd5b506101fd610325366004613737565b60008281526101616020908152604080832073ffffffffffffffffffffffffffffffffffffffff8516845260030190915290205460ff1692915050565b34801561036e57600080fd5b5061038261037d3660046136c8565b610cb5565b005b34801561039057600080fd5b506103bf61039f36600461371e565b600090815261016160205260409020805460018201546002909201549092565b60408051938452602084019290925290820152606001610209565b3480156103e657600080fd5b5060408051808201909152600181527f31000000000000000000000000000000000000000000000000000000000000006020820152610247565b34801561042c57600080fd5b5061022461043b36600461375c565b610e59565b34801561044c57600080fd5b5061038261045b36600461371e565b610e82565b34801561046c57600080fd5b5061022461047b366004613788565b610f65565b34801561048c57600080fd5b5061022461049b36600461358a565b610fb7565b3480156104ac57600080fd5b506103826104bb366004613701565b610fce565b3480156104cc57600080fd5b506102246104db36600461371e565b611076565b3480156104ec57600080fd5b506101fb54610224565b34801561050257600080fd5b5061022461051136600461371e565b611148565b34801561052257600080fd5b5061038261053136600461371e565b611178565b34801561054257600080fd5b506102246105513660046134fa565b611253565b34801561056257600080fd5b506101c65473ffffffffffffffffffffffffffffffffffffffff165b60405173ffffffffffffffffffffffffffffffffffffffff9091168152602001610209565b3480156105af57600080fd5b506040805180820190915260208082527f737570706f72743d627261766f2671756f72756d3d666f722c6162737461696e90820152610247565b3480156105f557600080fd5b506102247f150214d74d59b7d1e90c73fc22ef3d991dd0a76b046543d4d80ab92d2a50328f81565b34801561062957600080fd5b5061038261063836600461371e565b6112ab565b34801561064957600080fd5b506102246106583660046134ce565b611386565b34801561066957600080fd5b5061038261067836600461371e565b611392565b34801561068957600080fd5b5061022461069836600461371e565b61146d565b3480156106a957600080fd5b506101935461057e9073ffffffffffffffffffffffffffffffffffffffff1681565b60006106d6826114e1565b92915050565b606060fd80546106eb90613cf6565b80601f016020809104026020016040519081016040528092919081815260200182805461071790613cf6565b80156107645780601f1061073957610100808354040283529160200191610764565b820191906000526020600020905b81548152906001019060200180831161074757829003601f168201915b5050505050905090565b60008061077d86868686611253565b9050600461078a82610caa565b600781111561079b5761079b613d73565b1461082d576040517f08c379a000000000000000000000000000000000000000000000000000000000815260206004820152602160248201527f476f7665726e6f723a2070726f706f73616c206e6f742073756363657373667560448201527f6c0000000000000000000000000000000000000000000000000000000000000060648201526084015b60405180910390fd5b6101c654604080517ff27a0c92000000000000000000000000000000000000000000000000000000008152905160009273ffffffffffffffffffffffffffffffffffffffff169163f27a0c92916004808301926020929190829003018186803b15801561089957600080fd5b505afa1580156108ad573d6000803e3d6000fd5b505050506040513d601f19601f820116820180604052508101906108d1919061366d565b6101c6546040517fb1c5f42700000000000000000000000000000000000000000000000000000000815291925073ffffffffffffffffffffffffffffffffffffffff169063b1c5f42790610932908a908a908a906000908b906004016139e9565b60206040518083038186803b15801561094a57600080fd5b505afa15801561095e573d6000803e3d6000fd5b505050506040513d601f19601f82011682018060405250810190610982919061366d565b60008381526101c76020526040808220929092556101c65491517f8f2a0bb000000000000000000000000000000000000000000000000000000000815273ffffffffffffffffffffffffffffffffffffffff90921691638f2a0bb0916109f5918b918b918b91908b908990600401613a37565b600060405180830381600087803b158015610a0f57600080fd5b505af1158015610a23573d6000803e3d6000fd5b505050507f9a2e42fd6722813d69113e7d0079d3d940171428df7373df9c7f7617cfda2892828242610a559190613c9b565b6040805192835260208301919091520160405180910390a15095945050505050565b600080610a8686868686611253565b90506000610a9382610caa565b90506004816007811115610aa957610aa9613d73565b1480610ac657506005816007811115610ac457610ac4613d73565b145b610b52576040517f08c379a000000000000000000000000000000000000000000000000000000000815260206004820152602160248201527f476f7665726e6f723a2070726f706f73616c206e6f742073756363657373667560448201527f6c000000000000000000000000000000000000000000000000000000000000006064820152608401610824565b600082815260fe60205260409081902060020180547fffffffffffffffffffffffffffffffffffffffffffffffffffffffffffffff00166001179055517f712ae1383f79ac853f8d882153778e0260ef8f03b504e2866e0593e04d2b291f90610bbe9084815260200190565b60405180910390a1610bd38288888888611537565b5095945050505050565b600081815260fe6020908152604080832081519283019091525467ffffffffffffffff16908190525b67ffffffffffffffff1692915050565b604080517f150214d74d59b7d1e90c73fc22ef3d991dd0a76b046543d4d80ab92d2a50328f602082015290810186905260ff851660608201526000908190610c8290610c7a906080016040516020818303038152906040528051906020012061154b565b8686866115b4565b9050610c9f878288604051806020016040528060008152506115d2565b979650505050505050565b60006106d68261171e565b600054610100900460ff1680610cce575060005460ff16155b610d5a576040517f08c379a000000000000000000000000000000000000000000000000000000000815260206004820152602e60248201527f496e697469616c697a61626c653a20636f6e747261637420697320616c72656160448201527f647920696e697469616c697a65640000000000000000000000000000000000006064820152608401610824565b600054610100900460ff16158015610d9957600080547fffffffffffffffffffffffffffffffffffffffffffffffffffffffffffff0000166101011790555b610dd76040518060400160405280600e81526020017f416e676c6520476f7665726e6f72000000000000000000000000000000000000815250611823565b610ddf61199e565b610de761199e565b610df083611ad3565b610df982611bd8565b60026101f88190556101f9556a14adf4b7320334b90000006101fa556a02116545850052128000006101fb558015610e5457600080547fffffffffffffffffffffffffffffffffffffffffffffffffffffffffffff00ff1690555b505050565b600080339050610e7a848285604051806020016040528060008152506115d2565b949350505050565b610e8a611ce5565b73ffffffffffffffffffffffffffffffffffffffff163373ffffffffffffffffffffffffffffffffffffffff1614610f1e576040517f08c379a000000000000000000000000000000000000000000000000000000000815260206004820152601860248201527f476f7665726e6f723a206f6e6c79476f7665726e616e636500000000000000006044820152606401610824565b6101f880549082905560408051828152602081018490527f16569b50c8812bb18e4b5c46b0fee4a9acbb3a9dca1e1badce427e8d75b5652d91015b60405180910390a15050565b600080339050610fad86828787878080601f0160208091040260200160405190810160405280939291908181526020018383808284376000920191909152506115d292505050565b9695505050505050565b6000610fc585858585611d0c565b95945050505050565b610fd6611ce5565b73ffffffffffffffffffffffffffffffffffffffff163373ffffffffffffffffffffffffffffffffffffffff161461106a576040517f08c379a000000000000000000000000000000000000000000000000000000000815260206004820152601860248201527f476f7665726e6f723a206f6e6c79476f7665726e616e636500000000000000006044820152606401610824565b61107381611de7565b50565b6101c65460008281526101c760205260408082205490517fd45c443500000000000000000000000000000000000000000000000000000000815260048101919091529091829173ffffffffffffffffffffffffffffffffffffffff9091169063d45c44359060240160206040518083038186803b1580156110f657600080fd5b505afa15801561110a573d6000803e3d6000fd5b505050506040513d601f19601f8201168201806040525081019061112e919061366d565b90508060011461113e5780611141565b60005b9392505050565b600081815260fe6020908152604080832081519283019091526001015467ffffffffffffffff1690819052610c06565b611180611ce5565b73ffffffffffffffffffffffffffffffffffffffff163373ffffffffffffffffffffffffffffffffffffffff1614611214576040517f08c379a000000000000000000000000000000000000000000000000000000000815260206004820152601860248201527f476f7665726e6f723a206f6e6c79476f7665726e616e636500000000000000006044820152606401610824565b6101fa80549082905560408051828152602081018490527f6784e9bcb845caaa98267d7b0918f97d3d17f7cb35a05b52010f7eb587a0acb09101610f59565b60008484848460405160200161126c949392919061399e565b604080517fffffffffffffffffffffffffffffffffffffffffffffffffffffffffffffffe0818403018152919052805160209091012095945050505050565b6112b3611ce5565b73ffffffffffffffffffffffffffffffffffffffff163373ffffffffffffffffffffffffffffffffffffffff1614611347576040517f08c379a000000000000000000000000000000000000000000000000000000000815260206004820152601860248201527f476f7665726e6f723a206f6e6c79476f7665726e616e636500000000000000006044820152606401610824565b6101f980549082905560408051828152602081018490527fffc708f072ca56e3d45ef0cb288b96cb9378f5f63e1646868bfbc9c38f4263a19101610f59565b60006111418383611e84565b61139a611ce5565b73ffffffffffffffffffffffffffffffffffffffff163373ffffffffffffffffffffffffffffffffffffffff161461142e576040517f08c379a000000000000000000000000000000000000000000000000000000000815260206004820152601860248201527f476f7665726e6f723a206f6e6c79476f7665726e616e636500000000000000006044820152606401610824565b6101fb80549082905560408051828152602081018490527fe92242fc3efcad407a677132b517977331a6e5b65abab69fd757cc02e99c9c4e9101610f59565b60004382106114d8576040517f08c379a000000000000000000000000000000000000000000000000000000000815260206004820152601f60248201527f4552433230566f7465733a20626c6f636b206e6f7420796574206d696e6564006044820152606401610824565b50506101fa5490565b60007fffffffff0000000000000000000000000000000000000000000000000000000082167f6e665ced0000000000000000000000000000000000000000000000000000000014806106d657506106d682611f30565b6115448585858585611fc7565b5050505050565b60006106d6611558612062565b836040517f19010000000000000000000000000000000000000000000000000000000000006020820152602281018390526042810182905260009060620160405160208183030381529060405280519060200120905092915050565b60008060006115c5878787876120dd565b91509150610bd3816121f5565b600084815260fe6020526040812060016115eb87610caa565b60078111156115fc576115fc613d73565b14611689576040517f08c379a000000000000000000000000000000000000000000000000000000000815260206004820152602360248201527f476f7665726e6f723a20766f7465206e6f742063757272656e746c792061637460448201527f69766500000000000000000000000000000000000000000000000000000000006064820152608401610824565b6040805160208101909152815467ffffffffffffffff16908190526000906116b2908790611386565b90506116c08787878461244e565b8573ffffffffffffffffffffffffffffffffffffffff167fb8e138887d0aa13bab447e82de9d5c1777041ecd21ca36ba824ff1e6c07ddda48887848860405161170c9493929190613c00565b60405180910390a29695505050505050565b60008061172a83612658565b9050600481600781111561174057611740613d73565b1461174b5792915050565b60008381526101c7602052604090205480611767575092915050565b6101c6546040517f2ab0f5290000000000000000000000000000000000000000000000000000000081526004810183905273ffffffffffffffffffffffffffffffffffffffff90911690632ab0f5299060240160206040518083038186803b1580156117d257600080fd5b505afa1580156117e6573d6000803e3d6000fd5b505050506040513d601f19601f8201168201806040525081019061180a919061364b565b15611819575060079392505050565b5060059392505050565b600054610100900460ff168061183c575060005460ff16155b6118c8576040517f08c379a000000000000000000000000000000000000000000000000000000000815260206004820152602e60248201527f496e697469616c697a61626c653a20636f6e747261637420697320616c72656160448201527f647920696e697469616c697a65640000000000000000000000000000000000006064820152608401610824565b600054610100900460ff1615801561190757600080547fffffffffffffffffffffffffffffffffffffffffffffffffffffffffffff0000166101011790555b61190f6127d9565b6119176127d9565b61195a8261195560408051808201909152600181527f3100000000000000000000000000000000000000000000000000000000000000602082015290565b6128ed565b6119626127d9565b61196b82612a21565b801561199a57600080547fffffffffffffffffffffffffffffffffffffffffffffffffffffffffffff00ff1690555b5050565b600054610100900460ff16806119b7575060005460ff16155b611a43576040517f08c379a000000000000000000000000000000000000000000000000000000000815260206004820152602e60248201527f496e697469616c697a61626c653a20636f6e747261637420697320616c72656160448201527f647920696e697469616c697a65640000000000000000000000000000000000006064820152608401610824565b600054610100900460ff16158015611a8257600080547fffffffffffffffffffffffffffffffffffffffffffffffffffffffffffff0000166101011790555b611a8a6127d9565b611a926127d9565b611a9a6127d9565b611aa26127d9565b801561107357600080547fffffffffffffffffffffffffffffffffffffffffffffffffffffffffffff00ff16905550565b600054610100900460ff1680611aec575060005460ff16155b611b78576040517f08c379a000000000000000000000000000000000000000000000000000000000815260206004820152602e60248201527f496e697469616c697a61626c653a20636f6e747261637420697320616c72656160448201527f647920696e697469616c697a65640000000000000000000000000000000000006064820152608401610824565b600054610100900460ff16158015611bb757600080547fffffffffffffffffffffffffffffffffffffffffffffffffffffffffffff0000166101011790555b611bbf6127d9565b611bc76127d9565b611bcf6127d9565b61196b82612b4b565b600054610100900460ff1680611bf1575060005460ff16155b611c7d576040517f08c379a000000000000000000000000000000000000000000000000000000000815260206004820152602e60248201527f496e697469616c697a61626c653a20636f6e747261637420697320616c72656160448201527f647920696e697469616c697a65640000000000000000000000000000000000006064820152608401610824565b600054610100900460ff16158015611cbc57600080547fffffffffffffffffffffffffffffffffffffffffffffffffffffffffffff0000166101011790555b611cc46127d9565b611ccc6127d9565b611cd46127d9565b611cdc6127d9565b61196b82612ca2565b6000611d076101c65473ffffffffffffffffffffffffffffffffffffffff1690565b905090565b6000611d186101fb5490565b611d2733610658600143613cdf565b1015611ddb576040517f08c379a000000000000000000000000000000000000000000000000000000000815260206004820152604360248201527f476f7665726e6f72436f6d7061746962696c697479427261766f3a2070726f7060448201527f6f73657220766f7465732062656c6f772070726f706f73616c2074687265736860648201527f6f6c640000000000000000000000000000000000000000000000000000000000608482015260a401610824565b610fc585858585612d8f565b6101c6546040805173ffffffffffffffffffffffffffffffffffffffff928316815291831660208301527f08f74ea46ef7894f65eabfb5e6e695de773a000b47c529ab559178069b226401910160405180910390a16101c680547fffffffffffffffffffffffff00000000000000000000000000000000000000001673ffffffffffffffffffffffffffffffffffffffff92909216919091179055565b610193546040517f3a46b1a800000000000000000000000000000000000000000000000000000000815273ffffffffffffffffffffffffffffffffffffffff8481166004830152602482018490526000921690633a46b1a89060440160206040518083038186803b158015611ef857600080fd5b505afa158015611f0c573d6000803e3d6000fd5b505050506040513d601f19601f82011682018060405250810190611141919061366d565b60007fffffffff0000000000000000000000000000000000000000000000000000000082167fbf26d8970000000000000000000000000000000000000000000000000000000014806106d657507f01ffc9a7000000000000000000000000000000000000000000000000000000007fffffffff000000000000000000000000000000000000000000000000000000008316146106d6565b6101c6546040517fe38335e500000000000000000000000000000000000000000000000000000000815273ffffffffffffffffffffffffffffffffffffffff9091169063e38335e59034906120299088908890889060009089906004016139e9565b6000604051808303818588803b15801561204257600080fd5b505af1158015612056573d6000803e3d6000fd5b50505050505050505050565b6000611d077f8b73c3c69bb8fe3d512ecc4cf759cc79239f7b179b0ffacaa9a75d522b39400f61209160655490565b6066546040805160208101859052908101839052606081018290524660808201523060a082015260009060c0016040516020818303038152906040528051906020012090509392505050565b6000807f7fffffffffffffffffffffffffffffff5d576e7357a4501ddfe92f46681b20a083111561211457506000905060036121ec565b8460ff16601b1415801561212c57508460ff16601c14155b1561213d57506000905060046121ec565b6040805160008082526020820180845289905260ff881692820192909252606081018690526080810185905260019060a0016020604051602081039080840390855afa158015612191573d6000803e3d6000fd5b50506040517fffffffffffffffffffffffffffffffffffffffffffffffffffffffffffffffe0015191505073ffffffffffffffffffffffffffffffffffffffff81166121e5576000600192509250506121ec565b9150600090505b94509492505050565b600081600481111561220957612209613d73565b14156122125750565b600181600481111561222657612226613d73565b141561228e576040517f08c379a000000000000000000000000000000000000000000000000000000000815260206004820152601860248201527f45434453413a20696e76616c6964207369676e617475726500000000000000006044820152606401610824565b60028160048111156122a2576122a2613d73565b141561230a576040517f08c379a000000000000000000000000000000000000000000000000000000000815260206004820152601f60248201527f45434453413a20696e76616c6964207369676e6174757265206c656e677468006044820152606401610824565b600381600481111561231e5761231e613d73565b14156123ac576040517f08c379a000000000000000000000000000000000000000000000000000000000815260206004820152602260248201527f45434453413a20696e76616c6964207369676e6174757265202773272076616c60448201527f75650000000000000000000000000000000000000000000000000000000000006064820152608401610824565b60048160048111156123c0576123c0613d73565b1415611073576040517f08c379a000000000000000000000000000000000000000000000000000000000815260206004820152602260248201527f45434453413a20696e76616c6964207369676e6174757265202776272076616c60448201527f75650000000000000000000000000000000000000000000000000000000000006064820152608401610824565b60008481526101616020908152604080832073ffffffffffffffffffffffffffffffffffffffff87168452600381019092529091205460ff1615612514576040517f08c379a000000000000000000000000000000000000000000000000000000000815260206004820152602760248201527f476f7665726e6f72566f74696e6753696d706c653a20766f746520616c72656160448201527f64792063617374000000000000000000000000000000000000000000000000006064820152608401610824565b73ffffffffffffffffffffffffffffffffffffffff84166000908152600382016020526040812080547fffffffffffffffffffffffffffffffffffffffffffffffffffffffffffffff0016600117905560ff168360ff16141561259057818160000160008282546125859190613c9b565b909155506115449050565b60ff8316600114156125b057818160010160008282546125859190613c9b565b60ff8316600214156125d057818160020160008282546125859190613c9b565b6040517f08c379a000000000000000000000000000000000000000000000000000000000815260206004820152603560248201527f476f7665726e6f72566f74696e6753696d706c653a20696e76616c696420766160448201527f6c756520666f7220656e756d20566f74655479706500000000000000000000006064820152608401610824565b600081815260fe60209081526040808320815160a081018352815467ffffffffffffffff9081166080830190815282528351808601855260018401549091168152938101939093526002015460ff8082161580159385019390935261010090910416151560608301526126ce5750600792915050565b8060600151156126e15750600292915050565b8051514367ffffffffffffffff90911611156127005750600092915050565b6020810151514367ffffffffffffffff90911611156127225750600192915050565b61272f8160200151613138565b156127715761273d83613169565b801561275d57506000838152610161602052604090208054600190910154115b612768576003611141565b60049392505050565b6040517f08c379a000000000000000000000000000000000000000000000000000000000815260206004820152601d60248201527f476f7665726e6f723a20756e6b6e6f776e2070726f706f73616c2069640000006044820152606401610824565b50919050565b600054610100900460ff16806127f2575060005460ff16155b61287e576040517f08c379a000000000000000000000000000000000000000000000000000000000815260206004820152602e60248201527f496e697469616c697a61626c653a20636f6e747261637420697320616c72656160448201527f647920696e697469616c697a65640000000000000000000000000000000000006064820152608401610824565b600054610100900460ff16158015611aa257600080547fffffffffffffffffffffffffffffffffffffffffffffffffffffffffffff000016610101179055801561107357600080547fffffffffffffffffffffffffffffffffffffffffffffffffffffffffffff00ff16905550565b600054610100900460ff1680612906575060005460ff16155b612992576040517f08c379a000000000000000000000000000000000000000000000000000000000815260206004820152602e60248201527f496e697469616c697a61626c653a20636f6e747261637420697320616c72656160448201527f647920696e697469616c697a65640000000000000000000000000000000000006064820152608401610824565b600054610100900460ff161580156129d157600080547fffffffffffffffffffffffffffffffffffffffffffffffffffffffffffff0000166101011790555b82516020808501919091208351918401919091206065919091556066558015610e5457600080547fffffffffffffffffffffffffffffffffffffffffffffffffffffffffffff00ff169055505050565b600054610100900460ff1680612a3a575060005460ff16155b612ac6576040517f08c379a000000000000000000000000000000000000000000000000000000000815260206004820152602e60248201527f496e697469616c697a61626c653a20636f6e747261637420697320616c72656160448201527f647920696e697469616c697a65640000000000000000000000000000000000006064820152608401610824565b600054610100900460ff16158015612b0557600080547fffffffffffffffffffffffffffffffffffffffffffffffffffffffffffff0000166101011790555b8151612b189060fd90602085019061323f565b50801561199a57600080547fffffffffffffffffffffffffffffffffffffffffffffffffffffffffffff00ff1690555050565b600054610100900460ff1680612b64575060005460ff16155b612bf0576040517f08c379a000000000000000000000000000000000000000000000000000000000815260206004820152602e60248201527f496e697469616c697a61626c653a20636f6e747261637420697320616c72656160448201527f647920696e697469616c697a65640000000000000000000000000000000000006064820152608401610824565b600054610100900460ff16158015612c2f57600080547fffffffffffffffffffffffffffffffffffffffffffffffffffffffffffff0000166101011790555b61019380547fffffffffffffffffffffffff00000000000000000000000000000000000000001673ffffffffffffffffffffffffffffffffffffffff8416179055801561199a57600080547fffffffffffffffffffffffffffffffffffffffffffffffffffffffffffff00ff1690555050565b600054610100900460ff1680612cbb575060005460ff16155b612d47576040517f08c379a000000000000000000000000000000000000000000000000000000000815260206004820152602e60248201527f496e697469616c697a61626c653a20636f6e747261637420697320616c72656160448201527f647920696e697469616c697a65640000000000000000000000000000000000006064820152608401610824565b600054610100900460ff16158015612d8657600080547fffffffffffffffffffffffffffffffffffffffffffffffffffffffffffff0000166101011790555b61196b82611de7565b600080612da58686868680519060200120611253565b90508451865114612e38576040517f08c379a000000000000000000000000000000000000000000000000000000000815260206004820152602160248201527f476f7665726e6f723a20696e76616c69642070726f706f73616c206c656e677460448201527f68000000000000000000000000000000000000000000000000000000000000006064820152608401610824565b8351865114612ec9576040517f08c379a000000000000000000000000000000000000000000000000000000000815260206004820152602160248201527f476f7665726e6f723a20696e76616c69642070726f706f73616c206c656e677460448201527f68000000000000000000000000000000000000000000000000000000000000006064820152608401610824565b6000865111612f34576040517f08c379a000000000000000000000000000000000000000000000000000000000815260206004820152601860248201527f476f7665726e6f723a20656d7074792070726f706f73616c00000000000000006044820152606401610824565b600081815260fe60209081526040918290208251918201909252815467ffffffffffffffff169081905215612feb576040517f08c379a000000000000000000000000000000000000000000000000000000000815260206004820152602160248201527f476f7665726e6f723a2070726f706f73616c20616c726561647920657869737460448201527f73000000000000000000000000000000000000000000000000000000000000006064820152608401610824565b6000612fff612ffa6101f85490565b6131a1565b613008436131a1565b6130129190613cb3565b90506000613023612ffa6101f95490565b61302d9083613cb3565b83547fffffffffffffffffffffffffffffffffffffffffffffffff00000000000000001667ffffffffffffffff841617845590506001830180547fffffffffffffffffffffffffffffffffffffffffffffffff00000000000000001667ffffffffffffffff83161790557f7d84a6263ae0d98d3329bd7b46bb4e8d6f98cd35a7adb45c274c8b7fd5ebd5e084338b8b8d5167ffffffffffffffff8111156130d6576130d6613da2565b60405190808252806020026020018201604052801561310957816020015b60608152602001906001900390816130f45790505b508c88888e60405161312399989796959493929190613ae3565b60405180910390a15091979650505050505050565b600061314e825167ffffffffffffffff16151590565b80156106d6575050514367ffffffffffffffff909116111590565b6000818152610161602052604081206002810154600182015461318c9190613c9b565b61319861069885610bdd565b11159392505050565b600067ffffffffffffffff82111561323b576040517f08c379a000000000000000000000000000000000000000000000000000000000815260206004820152602660248201527f53616665436173743a2076616c756520646f65736e27742066697420696e203660448201527f34206269747300000000000000000000000000000000000000000000000000006064820152608401610824565b5090565b82805461324b90613cf6565b90600052602060002090601f01602090048101928261326d57600085556132b3565b82601f1061328657805160ff19168380011785556132b3565b828001600101855582156132b3579182015b828111156132b3578251825591602001919060010190613298565b5061323b9291505b8082111561323b57600081556001016132bb565b600067ffffffffffffffff8311156132e9576132e9613da2565b61331a60207fffffffffffffffffffffffffffffffffffffffffffffffffffffffffffffffe0601f86011601613c28565b905082815283838301111561332e57600080fd5b828260208301376000602084830101529392505050565b600082601f83011261335657600080fd5b8135602061336b61336683613c77565b613c28565b80838252828201915082860187848660051b890101111561338b57600080fd5b60005b858110156133b35781356133a181613dd1565b8452928401929084019060010161338e565b5090979650505050505050565b600082601f8301126133d157600080fd5b813560206133e161336683613c77565b80838252828201915082860187848660051b890101111561340157600080fd5b60005b858110156133b357813567ffffffffffffffff81111561342357600080fd5b8801603f81018a1361343457600080fd5b6134458a87830135604084016132cf565b8552509284019290840190600101613404565b600082601f83011261346957600080fd5b8135602061347961336683613c77565b80838252828201915082860187848660051b890101111561349957600080fd5b60005b858110156133b35781358452928401929084019060010161349c565b803560ff811681146134c957600080fd5b919050565b600080604083850312156134e157600080fd5b82356134ec81613dd1565b946020939093013593505050565b6000806000806080858703121561351057600080fd5b843567ffffffffffffffff8082111561352857600080fd5b61353488838901613345565b9550602087013591508082111561354a57600080fd5b61355688838901613458565b9450604087013591508082111561356c57600080fd5b50613579878288016133c0565b949793965093946060013593505050565b600080600080608085870312156135a057600080fd5b843567ffffffffffffffff808211156135b857600080fd5b6135c488838901613345565b955060208701359150808211156135da57600080fd5b6135e688838901613458565b945060408701359150808211156135fc57600080fd5b613608888389016133c0565b9350606087013591508082111561361e57600080fd5b508501601f8101871361363057600080fd5b61363f878235602084016132cf565b91505092959194509250565b60006020828403121561365d57600080fd5b8151801515811461114157600080fd5b60006020828403121561367f57600080fd5b5051919050565b60006020828403121561369857600080fd5b81357fffffffff000000000000000000000000000000000000000000000000000000008116811461114157600080fd5b600080604083850312156136db57600080fd5b82356136e681613dd1565b915060208301356136f681613dd1565b809150509250929050565b60006020828403121561371357600080fd5b813561114181613dd1565b60006020828403121561373057600080fd5b5035919050565b6000806040838503121561374a57600080fd5b8235915060208301356136f681613dd1565b6000806040838503121561376f57600080fd5b8235915061377f602084016134b8565b90509250929050565b6000806000806060858703121561379e57600080fd5b843593506137ae602086016134b8565b9250604085013567ffffffffffffffff808211156137cb57600080fd5b818701915087601f8301126137df57600080fd5b8135818111156137ee57600080fd5b88602082850101111561380057600080fd5b95989497505060200194505050565b600080600080600060a0868803121561382757600080fd5b85359450613837602087016134b8565b9350613845604087016134b8565b94979396509394606081013594506080013592915050565b600081518084526020808501945080840160005b838110156138a357815173ffffffffffffffffffffffffffffffffffffffff1687529582019590820190600101613871565b509495945050505050565b600081518084526020808501808196508360051b8101915082860160005b858110156138f65782840389526138e4848351613933565b988501989350908401906001016138cc565b5091979650505050505050565b600081518084526020808501945080840160005b838110156138a357815187529582019590820190600101613917565b6000815180845260005b818110156139595760208185018101518683018201520161393d565b8181111561396b576000602083870101525b50601f017fffffffffffffffffffffffffffffffffffffffffffffffffffffffffffffffe0169290920160200192915050565b6080815260006139b1608083018761385d565b82810360208401526139c38187613903565b905082810360408401526139d781866138ae565b91505082606083015295945050505050565b60a0815260006139fc60a083018861385d565b8281036020840152613a0e8188613903565b90508281036040840152613a2281876138ae565b60608401959095525050608001529392505050565b60c081526000613a4a60c083018961385d565b8281036020840152613a5c8189613903565b90508281036040840152613a7081886138ae565b60608401969096525050608081019290925260a0909101529392505050565b6020810160088310613aca577f4e487b7100000000000000000000000000000000000000000000000000000000600052602160045260246000fd5b91905290565b6020815260006111416020830184613933565b60006101208b8352602073ffffffffffffffffffffffffffffffffffffffff8c1681850152816040850152613b1a8285018c61385d565b91508382036060850152613b2e828b613903565b915083820360808501528189518084528284019150828160051b850101838c0160005b83811015613b9d577fffffffffffffffffffffffffffffffffffffffffffffffffffffffffffffffe0878403018552613b8b838351613933565b94860194925090850190600101613b51565b505086810360a0880152613bb1818c6138ae565b945050505050613bcd60c084018767ffffffffffffffff169052565b67ffffffffffffffff851660e0840152828103610100840152613bf08185613933565b9c9b505050505050505050505050565b84815260ff84166020820152826040820152608060608201526000610fad6080830184613933565b604051601f82017fffffffffffffffffffffffffffffffffffffffffffffffffffffffffffffffe016810167ffffffffffffffff81118282101715613c6f57613c6f613da2565b604052919050565b600067ffffffffffffffff821115613c9157613c91613da2565b5060051b60200190565b60008219821115613cae57613cae613d44565b500190565b600067ffffffffffffffff808316818516808303821115613cd657613cd6613d44565b01949350505050565b600082821015613cf157613cf1613d44565b500390565b600181811c90821680613d0a57607f821691505b602082108114156127d3577f4e487b7100000000000000000000000000000000000000000000000000000000600052602260045260246000fd5b7f4e487b7100000000000000000000000000000000000000000000000000000000600052601160045260246000fd5b7f4e487b7100000000000000000000000000000000000000000000000000000000600052602160045260246000fd5b7f4e487b7100000000000000000000000000000000000000000000000000000000600052604160045260246000fd5b73ffffffffffffffffffffffffffffffffffffffff8116811461107357600080fdfea26469706673582212204826baba7d279d4667f10d87b22af88e50f8df9f6b64ae5610e3b75a0a7894a964736f6c63430008070033",
  "linkReferences": {},
  "deployedLinkReferences": {}
}