{
  "_format": "hh-sol-artifact-1",
  "contractName": "GenericAave",
  "sourceName": "contracts/genericLender/GenericAave.sol",
  "abi": [
    {
      "inputs": [
        {
          "internalType": "address",
          "name": "_strategy",
          "type": "address"
        },
        {
          "internalType": "string",
          "name": "name",
          "type": "string"
        },
        {
          "internalType": "contract IUniswapV3Router",
          "name": "_uniswapV3Router",
          "type": "address"
        },
        {
          "internalType": "contract IUniswapV2Router",
          "name": "_uniswapV2Router",
          "type": "address"
        },
        {
          "components": [
            {
              "internalType": "contract IAToken",
              "name": "aToken",
              "type": "address"
            },
            {
              "internalType": "contract IProtocolDataProvider",
              "name": "protocolDataProvider",
              "type": "address"
            },
            {
              "internalType": "contract IStakedAave",
              "name": "stkAave",
              "type": "address"
            },
            {
              "internalType": "address",
              "name": "aave",
              "type": "address"
            }
          ],
          "internalType": "struct AaveReferences",
          "name": "aaveReferences",
          "type": "tuple"
        },
        {
          "internalType": "bool",
          "name": "_isIncentivised",
          "type": "bool"
        },
        {
          "internalType": "bytes",
          "name": "_path",
          "type": "bytes"
        },
        {
          "internalType": "address[]",
          "name": "governorList",
          "type": "address[]"
        },
        {
          "internalType": "address",
          "name": "guardian",
          "type": "address"
        }
      ],
      "stateMutability": "nonpayable",
      "type": "constructor"
    },
    {
      "anonymous": false,
      "inputs": [
        {
          "indexed": false,
          "internalType": "uint16",
          "name": "customReferral",
          "type": "uint16"
        }
      ],
      "name": "CustomReferralUpdated",
      "type": "event"
    },
    {
      "anonymous": false,
      "inputs": [
        {
          "indexed": false,
          "internalType": "bool",
          "name": "_isIncentivised",
          "type": "bool"
        }
      ],
      "name": "IncentivisedUpdated",
      "type": "event"
    },
    {
      "anonymous": false,
      "inputs": [
        {
          "indexed": false,
          "internalType": "bytes",
          "name": "_path",
          "type": "bytes"
        }
      ],
      "name": "PathUpdated",
      "type": "event"
    },
    {
      "anonymous": false,
      "inputs": [
        {
          "indexed": true,
          "internalType": "bytes32",
          "name": "role",
          "type": "bytes32"
        },
        {
          "indexed": true,
          "internalType": "bytes32",
          "name": "previousAdminRole",
          "type": "bytes32"
        },
        {
          "indexed": true,
          "internalType": "bytes32",
          "name": "newAdminRole",
          "type": "bytes32"
        }
      ],
      "name": "RoleAdminChanged",
      "type": "event"
    },
    {
      "anonymous": false,
      "inputs": [
        {
          "indexed": true,
          "internalType": "bytes32",
          "name": "role",
          "type": "bytes32"
        },
        {
          "indexed": true,
          "internalType": "address",
          "name": "account",
          "type": "address"
        },
        {
          "indexed": true,
          "internalType": "address",
          "name": "sender",
          "type": "address"
        }
      ],
      "name": "RoleGranted",
      "type": "event"
    },
    {
      "anonymous": false,
      "inputs": [
        {
          "indexed": true,
          "internalType": "bytes32",
          "name": "role",
          "type": "bytes32"
        },
        {
          "indexed": true,
          "internalType": "address",
          "name": "account",
          "type": "address"
        },
        {
          "indexed": true,
          "internalType": "address",
          "name": "sender",
          "type": "address"
        }
      ],
      "name": "RoleRevoked",
      "type": "event"
    },
    {
      "inputs": [],
      "name": "DEFAULT_ADMIN_ROLE",
      "outputs": [
        {
          "internalType": "bytes32",
          "name": "",
          "type": "bytes32"
        }
      ],
      "stateMutability": "view",
      "type": "function"
    },
    {
      "inputs": [],
      "name": "GUARDIAN_ROLE",
      "outputs": [
        {
          "internalType": "bytes32",
          "name": "",
          "type": "bytes32"
        }
      ],
      "stateMutability": "view",
      "type": "function"
    },
    {
      "inputs": [],
      "name": "STRATEGY_ROLE",
      "outputs": [
        {
          "internalType": "bytes32",
          "name": "",
          "type": "bytes32"
        }
      ],
      "stateMutability": "view",
      "type": "function"
    },
    {
      "inputs": [],
      "name": "WETH",
      "outputs": [
        {
          "internalType": "address",
          "name": "",
          "type": "address"
        }
      ],
      "stateMutability": "view",
      "type": "function"
    },
    {
      "inputs": [],
      "name": "aToken",
      "outputs": [
        {
          "internalType": "contract IAToken",
          "name": "",
          "type": "address"
        }
      ],
      "stateMutability": "view",
      "type": "function"
    },
    {
      "inputs": [],
      "name": "aave",
      "outputs": [
        {
          "internalType": "address",
          "name": "",
          "type": "address"
        }
      ],
      "stateMutability": "view",
      "type": "function"
    },
    {
      "inputs": [],
      "name": "apr",
      "outputs": [
        {
          "internalType": "uint256",
          "name": "",
          "type": "uint256"
        }
      ],
      "stateMutability": "view",
      "type": "function"
    },
    {
      "inputs": [
        {
          "internalType": "uint256",
          "name": "extraAmount",
          "type": "uint256"
        }
      ],
      "name": "aprAfterDeposit",
      "outputs": [
        {
          "internalType": "uint256",
          "name": "",
          "type": "uint256"
        }
      ],
      "stateMutability": "view",
      "type": "function"
    },
    {
      "inputs": [],
      "name": "deposit",
      "outputs": [],
      "stateMutability": "nonpayable",
      "type": "function"
    },
    {
      "inputs": [
        {
          "internalType": "uint256",
          "name": "amount",
          "type": "uint256"
        }
      ],
      "name": "emergencyWithdraw",
      "outputs": [],
      "stateMutability": "nonpayable",
      "type": "function"
    },
    {
      "inputs": [
        {
          "internalType": "bytes32",
          "name": "role",
          "type": "bytes32"
        }
      ],
      "name": "getRoleAdmin",
      "outputs": [
        {
          "internalType": "bytes32",
          "name": "",
          "type": "bytes32"
        }
      ],
      "stateMutability": "view",
      "type": "function"
    },
    {
      "inputs": [
        {
          "internalType": "bytes32",
          "name": "role",
          "type": "bytes32"
        },
        {
          "internalType": "address",
          "name": "account",
          "type": "address"
        }
      ],
      "name": "grantRole",
      "outputs": [],
      "stateMutability": "nonpayable",
      "type": "function"
    },
    {
      "inputs": [],
      "name": "harvest",
      "outputs": [],
      "stateMutability": "nonpayable",
      "type": "function"
    },
    {
      "inputs": [],
      "name": "harvestTrigger",
      "outputs": [
        {
          "internalType": "bool",
          "name": "",
          "type": "bool"
        }
      ],
      "stateMutability": "view",
      "type": "function"
    },
    {
      "inputs": [],
      "name": "hasAssets",
      "outputs": [
        {
          "internalType": "bool",
          "name": "",
          "type": "bool"
        }
      ],
      "stateMutability": "view",
      "type": "function"
    },
    {
      "inputs": [
        {
          "internalType": "bytes32",
          "name": "role",
          "type": "bytes32"
        },
        {
          "internalType": "address",
          "name": "account",
          "type": "address"
        }
      ],
      "name": "hasRole",
      "outputs": [
        {
          "internalType": "bool",
          "name": "",
          "type": "bool"
        }
      ],
      "stateMutability": "view",
      "type": "function"
    },
    {
      "inputs": [],
      "name": "isIncentivised",
      "outputs": [
        {
          "internalType": "bool",
          "name": "",
          "type": "bool"
        }
      ],
      "stateMutability": "view",
      "type": "function"
    },
    {
      "inputs": [],
      "name": "lenderName",
      "outputs": [
        {
          "internalType": "string",
          "name": "",
          "type": "string"
        }
      ],
      "stateMutability": "view",
      "type": "function"
    },
    {
      "inputs": [],
      "name": "nav",
      "outputs": [
        {
          "internalType": "uint256",
          "name": "",
          "type": "uint256"
        }
      ],
      "stateMutability": "view",
      "type": "function"
    },
    {
      "inputs": [],
      "name": "path",
      "outputs": [
        {
          "internalType": "bytes",
          "name": "",
          "type": "bytes"
        }
      ],
      "stateMutability": "view",
      "type": "function"
    },
    {
      "inputs": [],
      "name": "poolManager",
      "outputs": [
        {
          "internalType": "contract IPoolManager",
          "name": "",
          "type": "address"
        }
      ],
      "stateMutability": "view",
      "type": "function"
    },
    {
      "inputs": [],
      "name": "protocolDataProvider",
      "outputs": [
        {
          "internalType": "contract IProtocolDataProvider",
          "name": "",
          "type": "address"
        }
      ],
      "stateMutability": "view",
      "type": "function"
    },
    {
      "inputs": [
        {
          "internalType": "bytes32",
          "name": "role",
          "type": "bytes32"
        },
        {
          "internalType": "address",
          "name": "account",
          "type": "address"
        }
      ],
      "name": "renounceRole",
      "outputs": [],
      "stateMutability": "nonpayable",
      "type": "function"
    },
    {
      "inputs": [
        {
          "internalType": "bytes32",
          "name": "role",
          "type": "bytes32"
        },
        {
          "internalType": "address",
          "name": "account",
          "type": "address"
        }
      ],
      "name": "revokeRole",
      "outputs": [],
      "stateMutability": "nonpayable",
      "type": "function"
    },
    {
      "inputs": [
        {
          "internalType": "bool",
          "name": "_isIncentivised",
          "type": "bool"
        }
      ],
      "name": "setIsIncentivised",
      "outputs": [],
      "stateMutability": "nonpayable",
      "type": "function"
    },
    {
      "inputs": [
        {
          "internalType": "bytes",
          "name": "_path",
          "type": "bytes"
        }
      ],
      "name": "setPath",
      "outputs": [],
      "stateMutability": "nonpayable",
      "type": "function"
    },
    {
      "inputs": [
        {
          "internalType": "uint16",
          "name": "__customReferral",
          "type": "uint16"
        }
      ],
      "name": "setReferralCode",
      "outputs": [],
      "stateMutability": "nonpayable",
      "type": "function"
    },
    {
      "inputs": [],
      "name": "startCooldown",
      "outputs": [],
      "stateMutability": "nonpayable",
      "type": "function"
    },
    {
      "inputs": [],
      "name": "stkAave",
      "outputs": [
        {
          "internalType": "contract IStakedAave",
          "name": "",
          "type": "address"
        }
      ],
      "stateMutability": "view",
      "type": "function"
    },
    {
      "inputs": [],
      "name": "strategy",
      "outputs": [
        {
          "internalType": "address",
          "name": "",
          "type": "address"
        }
      ],
      "stateMutability": "view",
      "type": "function"
    },
    {
      "inputs": [
        {
          "internalType": "address",
          "name": "_token",
          "type": "address"
        },
        {
          "internalType": "address",
          "name": "to",
          "type": "address"
        }
      ],
      "name": "sweep",
      "outputs": [],
      "stateMutability": "nonpayable",
      "type": "function"
    },
    {
      "inputs": [],
      "name": "underlyingBalanceStored",
      "outputs": [
        {
          "internalType": "uint256",
          "name": "balance",
          "type": "uint256"
        }
      ],
      "stateMutability": "view",
      "type": "function"
    },
    {
      "inputs": [],
      "name": "uniswapV2Router",
      "outputs": [
        {
          "internalType": "contract IUniswapV2Router",
          "name": "",
          "type": "address"
        }
      ],
      "stateMutability": "view",
      "type": "function"
    },
    {
      "inputs": [],
      "name": "uniswapV3Router",
      "outputs": [
        {
          "internalType": "contract IUniswapV3Router",
          "name": "",
          "type": "address"
        }
      ],
      "stateMutability": "view",
      "type": "function"
    },
    {
      "inputs": [],
      "name": "want",
      "outputs": [
        {
          "internalType": "contract IERC20",
          "name": "",
          "type": "address"
        }
      ],
      "stateMutability": "view",
      "type": "function"
    },
    {
      "inputs": [],
      "name": "weightedApr",
      "outputs": [
        {
          "internalType": "uint256",
          "name": "",
          "type": "uint256"
        }
      ],
      "stateMutability": "view",
      "type": "function"
    },
    {
      "inputs": [
        {
          "internalType": "uint256",
          "name": "amount",
          "type": "uint256"
        }
      ],
      "name": "withdraw",
      "outputs": [
        {
          "internalType": "uint256",
          "name": "",
          "type": "uint256"
        }
      ],
      "stateMutability": "nonpayable",
      "type": "function"
    },
    {
      "inputs": [],
      "name": "withdrawAll",
      "outputs": [
        {
          "internalType": "bool",
          "name": "",
          "type": "bool"
        }
      ],
      "stateMutability": "nonpayable",
      "type": "function"
    }
  ],
  "bytecode": "0x6101406040523480156200001257600080fd5b5060405162005cbe38038062005cbe833981016040819052620000359162000eb7565b600380546001600160a01b0319166001600160a01b038b169081179091556040805163dc4c90d360e01b815290518b928b92869286929163dc4c90d3916004808301926020929190829003018186803b1580156200009257600080fd5b505afa158015620000a7573d6000803e3d6000fd5b505050506040513d601f19601f82011682018060405250810190620000cd919062000e97565b600280546001600160a01b0319166001600160a01b0392909216918217905560408051637e062a3560e11b8152905163fc0c546a91600480820192602092909190829003018186803b1580156200012357600080fd5b505afa15801562000138573d6000803e3d6000fd5b505050506040513d601f19601f820116820180604052508101906200015e919062000e97565b600480546001600160a01b0319166001600160a01b039290921691909117905582516200019390600190602086019062000ba6565b50600254620001bc9060008051602062005c9e833981519152906001600160a01b0316620006d9565b60005b82518110156200021b576200020660008051602062005c9e833981519152848381518110620001f257620001f26200124a565b6020026020010151620006d960201b60201c565b80620002128162001220565b915050620001bf565b506200023760008051602062005c9e83398151915282620006d9565b6200025260008051602062005c7e83398151915285620006d9565b6200027c60008051602062005c9e83398151915260008051602062005c7e833981519152620006e9565b620002a660008051602062005c7e83398151915260008051602062005c9e833981519152620006e9565b600454620002cd906001600160a01b0316856000196200073d602090811b62001c9317901c565b505050506001600160a01b03861615801590620002f257506001600160a01b03871615155b80156200030b575060408501516001600160a01b031615155b620003415760405162461bcd60e51b81526020600482015260016024820152600360fc1b60448201526064015b60405180910390fd5b831580620003da575060006001600160a01b031685600001516001600160a01b03166375d264136040518163ffffffff1660e01b815260040160206040518083038186803b1580156200039357600080fd5b505afa158015620003a8573d6000803e3d6000fd5b505050506040513d601f19601f82011682018060405250810190620003ce919062000e97565b6001600160a01b031614155b620004425760405162461bcd60e51b815260206004820152603160248201527f61546f6b656e20646f6573206e6f74206861766520696e63656e7469766573206044820152700636f6e74726f6c6c65722073657420757607c1b606482015260840162000338565b606087811b6001600160601b03199081166101005287821b8116610120528651821b8116608052602080880151831b821660a0526040880151831b821660c0528783015190921b1660e0526006805460ff19168615151790558351620004af916005919086019062000ba6565b50600085602001516001600160a01b0316630542975c6040518163ffffffff1660e01b815260040160206040518083038186803b158015620004f057600080fd5b505afa15801562000505573d6000803e3d6000fd5b505050506040513d601f19601f820116820180604052508101906200052b919062000e97565b6001600160a01b0316630261bf8b6040518163ffffffff1660e01b815260040160206040518083038186803b1580156200056457600080fd5b505afa15801562000579573d6000803e3d6000fd5b505050506040513d601f19601f820116820180604052508101906200059f919062000e97565b8651600480546040516335ea6a7560e01b81526001600160a01b0391821692810192909252929350908216918316906335ea6a75906024016101806040518083038186803b158015620005f157600080fd5b505afa15801562000606573d6000803e3d6000fd5b505050506040513d601f19601f820116820180604052508101906200062c919062000fdc565b60e001516001600160a01b031614620006775760405162461bcd60e51b815260206004820152600c60248201526b3bb937b7339030aa37b5b2b760a11b604482015260640162000338565b6004546200069e906001600160a01b0316826000196200073d602090811b62001c9317901c565b620006c98860001988606001516001600160a01b03166200073d60201b62001c93179092919060201c565b505050505050505050506200128f565b620006e582826200089c565b5050565b600082815260208190526040902060010154819060405184907fbd79b86ffe0ab8e8776151514217cd7cacd52c909f66475c3af44e129f0b00ff90600090a460009182526020829052604090912060010155565b801580620007cb5750604051636eb1769f60e11b81523060048201526001600160a01b03838116602483015284169063dd62ed3e9060440160206040518083038186803b1580156200078e57600080fd5b505afa158015620007a3573d6000803e3d6000fd5b505050506040513d601f19601f82011682018060405250810190620007c99190620010e4565b155b6200083f5760405162461bcd60e51b815260206004820152603660248201527f5361666545524332303a20617070726f76652066726f6d206e6f6e2d7a65726f60448201527f20746f206e6f6e2d7a65726f20616c6c6f77616e636500000000000000000000606482015260840162000338565b604080516001600160a01b038416602482015260448082018490528251808303909101815260649091019091526020810180516001600160e01b0390811663095ea7b360e01b17909152620008979185916200093c16565b505050565b6000828152602081815260408083206001600160a01b038516845290915290205460ff16620006e5576000828152602081815260408083206001600160a01b03851684529091529020805460ff19166001179055620008f83390565b6001600160a01b0316816001600160a01b0316837f2f8788117e7eff1d82e926ec794901d17c78024a50270940304540a733656f0d60405160405180910390a45050565b600062000998826040518060400160405280602081526020017f5361666545524332303a206c6f772d6c6576656c2063616c6c206661696c6564815250856001600160a01b031662000a1a60201b62001ea2179092919060201c565b805190915015620008975780806020019051810190620009b9919062000fbe565b620008975760405162461bcd60e51b815260206004820152602a60248201527f5361666545524332303a204552433230206f7065726174696f6e20646964206e6044820152691bdd081cdd58d8d9595960b21b606482015260840162000338565b606062000a2b848460008562000a35565b90505b9392505050565b60608247101562000a985760405162461bcd60e51b815260206004820152602660248201527f416464726573733a20696e73756666696369656e742062616c616e636520666f6044820152651c8818d85b1b60d21b606482015260840162000338565b843b62000ae85760405162461bcd60e51b815260206004820152601d60248201527f416464726573733a2063616c6c20746f206e6f6e2d636f6e7472616374000000604482015260640162000338565b600080866001600160a01b0316858760405162000b069190620010fe565b60006040518083038185875af1925050503d806000811462000b45576040519150601f19603f3d011682016040523d82523d6000602084013e62000b4a565b606091505b50909250905062000b5d82828662000b68565b979650505050505050565b6060831562000b7957508162000a2e565b82511562000b8a5782518084602001fd5b8160405162461bcd60e51b81526004016200033891906200111c565b82805462000bb490620011e3565b90600052602060002090601f01602090048101928262000bd8576000855562000c23565b82601f1062000bf357805160ff191683800117855562000c23565b8280016001018555821562000c23579182015b8281111562000c2357825182559160200191906001019062000c06565b5062000c3192915062000c35565b5090565b5b8082111562000c31576000815560010162000c36565b805162000c598162001276565b919050565b600082601f83011262000c7057600080fd5b815160206001600160401b0382111562000c8e5762000c8e62001260565b8160051b62000c9f8282016200117d565b83815282810190868401838801850189101562000cbb57600080fd5b600093505b8584101562000ceb57805162000cd68162001276565b83526001939093019291840191840162000cc0565b50979650505050505050565b8051801515811462000c5957600080fd5b600082601f83011262000d1a57600080fd5b81516001600160401b0381111562000d365762000d3662001260565b62000d4b601f8201601f19166020016200117d565b81815284602083860101111562000d6157600080fd5b62000d74826020830160208701620011b0565b949350505050565b60006080828403121562000d8f57600080fd5b604051608081016001600160401b038111828210171562000db45762000db462001260565b8060405250809150825162000dc98162001276565b8152602083015162000ddb8162001276565b6020820152604083015162000df08162001276565b6040820152606083015162000e058162001276565b6060919091015292915050565b60006020828403121562000e2557600080fd5b604051602081016001600160401b038111828210171562000e4a5762000e4a62001260565b6040529151825250919050565b80516001600160801b038116811462000c5957600080fd5b805164ffffffffff8116811462000c5957600080fd5b805160ff8116811462000c5957600080fd5b60006020828403121562000eaa57600080fd5b815162000a2e8162001276565b60008060008060008060008060006101808a8c03121562000ed757600080fd5b62000ee28a62000c4c565b60208b01519099506001600160401b038082111562000f0057600080fd5b62000f0e8d838e0162000d08565b995062000f1e60408d0162000c4c565b985062000f2e60608d0162000c4c565b975062000f3f8d60808e0162000d7c565b965062000f506101008d0162000cf7565b95506101208c015191508082111562000f6857600080fd5b62000f768d838e0162000d08565b94506101408c015191508082111562000f8e57600080fd5b5062000f9d8c828d0162000c5e565b92505062000faf6101608b0162000c4c565b90509295985092959850929598565b60006020828403121562000fd157600080fd5b62000a2e8262000cf7565b6000610180828403121562000ff057600080fd5b62000ffa62001151565b62001006848462000e12565b8152620010166020840162000e57565b6020820152620010296040840162000e57565b60408201526200103c6060840162000e57565b60608201526200104f6080840162000e57565b60808201526200106260a0840162000e57565b60a08201526200107560c0840162000e6f565b60c08201526200108860e0840162000c4c565b60e08201526101006200109d81850162000c4c565b90820152610120620010b184820162000c4c565b90820152610140620010c584820162000c4c565b90820152610160620010d984820162000e85565b908201529392505050565b600060208284031215620010f757600080fd5b5051919050565b6000825162001112818460208701620011b0565b9190910192915050565b60208152600082518060208401526200113d816040850160208701620011b0565b601f01601f19169190910160400192915050565b60405161018081016001600160401b038111828210171562001177576200117762001260565b60405290565b604051601f8201601f191681016001600160401b0381118282101715620011a857620011a862001260565b604052919050565b60005b83811015620011cd578181015183820152602001620011b3565b83811115620011dd576000848401525b50505050565b600181811c90821680620011f857607f821691505b602082108114156200121a57634e487b7160e01b600052602260045260246000fd5b50919050565b60006000198214156200124357634e487b7160e01b600052601160045260246000fd5b5060010190565b634e487b7160e01b600052603260045260246000fd5b634e487b7160e01b600052604160045260246000fd5b6001600160a01b03811681146200128c57600080fd5b50565b60805160601c60a05160601c60c05160601c60e05160601c6101005160601c6101205160601c6148ad620013d1600039600081816102ca0152613a2d01526000818161038001528181612e7d01528181612f6501528181612fc7015261300e0152600081816104cf01528181610d9401528181612ea701528181612f4301528181612fa50152818161380e01526138e001526000818161044301528181610c2501528181610cf1015281816110db01528181611172015281816114b401528181612c1a01528181612caf0152612d510152600081816104140152818161076a0152818161085401528181611fe8015261215201526000818161055201528181610f0a015281816114070152818161157b015281816119920152818161235f0152818161256f015281816127280152818161337c01526134ca01526148ad6000f3fe608060405234801561001057600080fd5b50600436106102925760003560e01c8063680ff45811610160578063a8c62e76116100d8578063d0e30db01161008c578063dc4c90d311610071578063dc4c90d3146105f5578063f381e07d14610615578063fa43b69c1461062857600080fd5b8063d0e30db0146105da578063d547741f146105e257600080fd5b8063b8dc491b116100bd578063b8dc491b146105b7578063c1590cd7146105ca578063c6afba3c146105d257600080fd5b8063a8c62e761461057c578063ad5c46481461059c57600080fd5b80638b2021761161012f5780639987a78a116101145780639987a78a14610545578063a0c1f15e1461054d578063a217fddf1461057457600080fd5b80638b202176146104f957806391d148541461050157600080fd5b8063680ff458146104af5780637c4a3910146104b7578063819faf7b146104ca578063853828b6146104f157600080fd5b806332b790211161020e578063476062a4116101c257806357ded9c9116101a757806357ded9c914610478578063580b7c2e146104805780635be9b2d3146104a757600080fd5b8063476062a41461043e5780635312ea8e1461046557600080fd5b80633dc06356116101f35780633dc06356146103fa5780633f843bce1461040f5780634641257d1461043657600080fd5b806332b79021146103ca57806336568abe146103e757600080fd5b8063248a9ca3116102655780632c76d7a61161024a5780632c76d7a61461037b5780632e1a7d4d146103a25780632f2ff15d146103b557600080fd5b8063248a9ca31461033157806324ea54f41461035457600080fd5b8063116ac4a314610297578063149a4ae4146102b25780631694505e146102c55780631f1fcd5114610311575b600080fd5b61029f61063b565b6040519081526020015b60405180910390f35b61029f6102c0366004614003565b610660565b6102ec7f000000000000000000000000000000000000000000000000000000000000000081565b60405173ffffffffffffffffffffffffffffffffffffffff90911681526020016102a9565b6004546102ec9073ffffffffffffffffffffffffffffffffffffffff1681565b61029f61033f366004614003565b60009081526020819052604090206001015490565b61029f7f55435dd261a4b9b3364963f7738a7a662ad9c84396d64be3365284bb7f0a504181565b6102ec7f000000000000000000000000000000000000000000000000000000000000000081565b61029f6103b0366004614003565b6109fc565b6103c86103c336600461401c565b610a3b565b005b6006546103d79060ff1681565b60405190151581526020016102a9565b6103c86103f536600461401c565b610a66565b610402610af8565b6040516102a9919061451d565b6102ec7f000000000000000000000000000000000000000000000000000000000000000081565b6103c8610b86565b6102ec7f000000000000000000000000000000000000000000000000000000000000000081565b6103c8610473366004614003565b6111f8565b61029f6113b0565b61029f7f928286c473ded01ff8bf61a1986f14a0579066072fa8261442d9fea514d93a4c81565b6103d76113bf565b6103c8611487565b6103c86104c5366004613fc9565b61152e565b6102ec7f000000000000000000000000000000000000000000000000000000000000000081565b6103d7611723565b610402611774565b6103d761050f36600461401c565b60009182526020828152604080842073ffffffffffffffffffffffffffffffffffffffff93909316845291905290205460ff1690565b6103d7611781565b6102ec7f000000000000000000000000000000000000000000000000000000000000000081565b61029f600081565b6003546102ec9073ffffffffffffffffffffffffffffffffffffffff1681565b6102ec73c02aaa39b223fe8d0a0e5c4f27ead9083c756cc281565b6103c86105c5366004613ee3565b61178b565b61029f611957565b61029f611961565b6103c8611a21565b6103c86105f036600461401c565b611afe565b6002546102ec9073ffffffffffffffffffffffffffffffffffffffff1681565b6103c8610623366004614041565b611b24565b6103c86106363660046141e1565b611b92565b600080610646611ebb565b9050610650612098565b61065a908261467b565b91505090565b60008061066b61214e565b600480546040517f35ea6a7500000000000000000000000000000000000000000000000000000000815273ffffffffffffffffffffffffffffffffffffffff9182169281019290925291909116906335ea6a75906024016101806040518083038186803b1580156106db57600080fd5b505afa1580156106ef573d6000803e3d6000fd5b505050506040513d601f19601f8201168201806040525081019061071391906140f4565b600480546040517f35ea6a7500000000000000000000000000000000000000000000000000000000815273ffffffffffffffffffffffffffffffffffffffff918216928101929092529192506000918291829182917f0000000000000000000000000000000000000000000000000000000000000000909116906335ea6a75906024016101406040518083038186803b1580156107af57600080fd5b505afa1580156107c3573d6000803e3d6000fd5b505050506040513d601f19601f820116820180604052508101906107e791906142f3565b5050509650505050935093509350600087856108039190614628565b600480546040517f3e15014100000000000000000000000000000000000000000000000000000000815273ffffffffffffffffffffffffffffffffffffffff918216928101929092529192506000917f00000000000000000000000000000000000000000000000000000000000000001690633e150141906024016101406040518083038186803b15801561089757600080fd5b505afa1580156108ab573d6000803e3d6000fd5b505050506040513d601f19601f820116820180604052508101906108cf919061424c565b505050506101408d0151600480546040517f9584df2800000000000000000000000000000000000000000000000000000000815273ffffffffffffffffffffffffffffffffffffffff91821692810192909252602482018b9052604482018e9052606482018d9052608482018c905260a482018590529398506000975092169450639584df2893505060c401905060606040518083038186803b15801561097557600080fd5b505afa158015610989573d6000803e3d6000fd5b505050506040513d601f19601f820116820180604052508101906109ad919061421e565b5050905060006109d28688866109c39190614628565b6109cd9190614628565b61226b565b9050806109e3633b9aca0084614640565b6109ed9190614628565b9b9a5050505050505050505050565b60007f928286c473ded01ff8bf61a1986f14a0579066072fa8261442d9fea514d93a4c610a298133612457565b610a3283612527565b91505b50919050565b600082815260208190526040902060010154610a578133612457565b610a618383612a2f565b505050565b73ffffffffffffffffffffffffffffffffffffffff81163314610aea576040517f08c379a000000000000000000000000000000000000000000000000000000000815260206004820152600260248201527f373100000000000000000000000000000000000000000000000000000000000060448201526064015b60405180910390fd5b610af48282612b1f565b5050565b60058054610b0590614730565b80601f0160208091040260200160405190810160405280929190818152602001828054610b3190614730565b8015610b7e5780601f10610b5357610100808354040283529160200191610b7e565b820191906000526020600020905b815481529060010190602001808311610b6157829003601f168201915b505050505081565b610b8e612bd6565b610bf4576040517f08c379a000000000000000000000000000000000000000000000000000000000815260206004820152601660248201527f636f6e646974696f6e7320617265206e6f74206d6574000000000000000000006044820152606401610ae1565b6040517f70a082310000000000000000000000000000000000000000000000000000000081523060048201526000907f000000000000000000000000000000000000000000000000000000000000000073ffffffffffffffffffffffffffffffffffffffff16906370a082319060240160206040518083038186803b158015610c7c57600080fd5b505afa158015610c90573d6000803e3d6000fd5b505050506040513d601f19601f82011682018060405250810190610cb49190614205565b90508015610d63576040517f1e9a6950000000000000000000000000000000000000000000000000000000008152306004820152602481018290527f000000000000000000000000000000000000000000000000000000000000000073ffffffffffffffffffffffffffffffffffffffff1690631e9a695090604401600060405180830381600087803b158015610d4a57600080fd5b505af1158015610d5e573d6000803e3d6000fd5b505050505b6040517f70a082310000000000000000000000000000000000000000000000000000000081523060048201526000907f000000000000000000000000000000000000000000000000000000000000000073ffffffffffffffffffffffffffffffffffffffff16906370a082319060240160206040518083038186803b158015610deb57600080fd5b505afa158015610dff573d6000803e3d6000fd5b505050506040513d601f19601f82011682018060405250810190610e239190614205565b9050610e2e81612e32565b600480546040517f70a08231000000000000000000000000000000000000000000000000000000008152309281019290925260009173ffffffffffffffffffffffffffffffffffffffff909116906370a082319060240160206040518083038186803b158015610e9d57600080fd5b505afa158015610eb1573d6000803e3d6000fd5b505050506040513d601f19601f82011682018060405250810190610ed59190614205565b90508015610ee657610ee68161317e565b604080516001808252818301909252600091602080830190803683370190505090507f000000000000000000000000000000000000000000000000000000000000000081600081518110610f3c57610f3c6147e6565b602002602001019073ffffffffffffffffffffffffffffffffffffffff16908173ffffffffffffffffffffffffffffffffffffffff16815250506000610f8061336c565b73ffffffffffffffffffffffffffffffffffffffff16638b599f2683306040518363ffffffff1660e01b8152600401610fba9291906144a6565b60206040518083038186803b158015610fd257600080fd5b505afa158015610fe6573d6000803e3d6000fd5b505050506040513d601f19601f8201168201806040525081019061100a9190614205565b905080156110aa5761101a61336c565b73ffffffffffffffffffffffffffffffffffffffff16633111e7b38383306040518463ffffffff1660e01b8152600401611056939291906144de565b602060405180830381600087803b15801561107057600080fd5b505af1158015611084573d6000803e3d6000fd5b505050506040513d601f19601f820116820180604052508101906110a89190614205565b505b6040517f70a082310000000000000000000000000000000000000000000000000000000081523060048201526000907f000000000000000000000000000000000000000000000000000000000000000073ffffffffffffffffffffffffffffffffffffffff16906370a082319060240160206040518083038186803b15801561113257600080fd5b505afa158015611146573d6000803e3d6000fd5b505050506040513d601f19601f8201168201806040525081019061116a9190614205565b11156111f1577f000000000000000000000000000000000000000000000000000000000000000073ffffffffffffffffffffffffffffffffffffffff1663787a08a66040518163ffffffff1660e01b8152600401600060405180830381600087803b1580156111d857600080fd5b505af11580156111ec573d6000803e3d6000fd5b505050505b5050505050565b7f55435dd261a4b9b3364963f7738a7a662ad9c84396d64be3365284bb7f0a50416112238133612457565b61122b61214e565b600480546040517f69328dec00000000000000000000000000000000000000000000000000000000815273ffffffffffffffffffffffffffffffffffffffff918216928101929092526024820185905230604483015291909116906369328dec90606401602060405180830381600087803b1580156112a957600080fd5b505af11580156112bd573d6000803e3d6000fd5b505050506040513d601f19601f820116820180604052508101906112e19190614205565b50600254600480546040517f70a082310000000000000000000000000000000000000000000000000000000081523092810192909252610af49273ffffffffffffffffffffffffffffffffffffffff908116929116906370a082319060240160206040518083038186803b15801561135857600080fd5b505afa15801561136c573d6000803e3d6000fd5b505050506040513d601f19601f820116820180604052508101906113909190614205565b60045473ffffffffffffffffffffffffffffffffffffffff1691906133e6565b60006113ba611ebb565b905090565b6040517f70a08231000000000000000000000000000000000000000000000000000000008152306004820152600090819073ffffffffffffffffffffffffffffffffffffffff7f000000000000000000000000000000000000000000000000000000000000000016906370a082319060240160206040518083038186803b15801561144957600080fd5b505afa15801561145d573d6000803e3d6000fd5b505050506040513d601f19601f820116820180604052508101906114819190614205565b11905090565b7f55435dd261a4b9b3364963f7738a7a662ad9c84396d64be3365284bb7f0a50416114b28133612457565b7f000000000000000000000000000000000000000000000000000000000000000073ffffffffffffffffffffffffffffffffffffffff1663787a08a66040518163ffffffff1660e01b8152600401600060405180830381600087803b15801561151a57600080fd5b505af11580156111f1573d6000803e3d6000fd5b7f55435dd261a4b9b3364963f7738a7a662ad9c84396d64be3365284bb7f0a50416115598133612457565b8115806116305750600073ffffffffffffffffffffffffffffffffffffffff167f000000000000000000000000000000000000000000000000000000000000000073ffffffffffffffffffffffffffffffffffffffff166375d264136040518163ffffffff1660e01b815260040160206040518083038186803b1580156115df57600080fd5b505afa1580156115f3573d6000803e3d6000fd5b505050506040513d601f19601f820116820180604052508101906116179190613ec6565b73ffffffffffffffffffffffffffffffffffffffff1614155b6116bc576040517f08c379a000000000000000000000000000000000000000000000000000000000815260206004820152603160248201527f61546f6b656e20646f6573206e6f74206861766520696e63656e74697665732060448201527f636f6e74726f6c6c6572207365742075700000000000000000000000000000006064820152608401610ae1565b600680547fffffffffffffffffffffffffffffffffffffffffffffffffffffffffffffff00168315159081179091556040519081527f386aceaaf6d0b965d82537d261a6e7fe3fe971d929521ebc9b14db514ab5529a906020015b60405180910390a15050565b60007f928286c473ded01ff8bf61a1986f14a0579066072fa8261442d9fea514d93a4c6117508133612457565b600061175a612098565b9050600061176782612527565b91909110159250505b5090565b60018054610b0590614730565b60006113ba612bd6565b7f55435dd261a4b9b3364963f7738a7a662ad9c84396d64be3365284bb7f0a50416117b68133612457565b60006117c061343c565b905060005b815181101561188f578181815181106117e0576117e06147e6565b602002602001015173ffffffffffffffffffffffffffffffffffffffff168573ffffffffffffffffffffffffffffffffffffffff16141561187d576040517f08c379a000000000000000000000000000000000000000000000000000000000815260206004820152600260248201527f39330000000000000000000000000000000000000000000000000000000000006044820152606401610ae1565b806118878161477e565b9150506117c5565b506040517f70a0823100000000000000000000000000000000000000000000000000000000815230600482015261195190849073ffffffffffffffffffffffffffffffffffffffff8716906370a082319060240160206040518083038186803b1580156118fb57600080fd5b505afa15801561190f573d6000803e3d6000fd5b505050506040513d601f19601f820116820180604052508101906119339190614205565b73ffffffffffffffffffffffffffffffffffffffff871691906133e6565b50505050565b60006113ba612098565b6040517f70a082310000000000000000000000000000000000000000000000000000000081523060048201526000907f000000000000000000000000000000000000000000000000000000000000000073ffffffffffffffffffffffffffffffffffffffff16906370a082319060240160206040518083038186803b1580156119e957600080fd5b505afa1580156119fd573d6000803e3d6000fd5b505050506040513d601f19601f820116820180604052508101906113ba9190614205565b7f928286c473ded01ff8bf61a1986f14a0579066072fa8261442d9fea514d93a4c611a4c8133612457565b600480546040517f70a08231000000000000000000000000000000000000000000000000000000008152309281019290925260009173ffffffffffffffffffffffffffffffffffffffff909116906370a082319060240160206040518083038186803b158015611abb57600080fd5b505afa158015611acf573d6000803e3d6000fd5b505050506040513d601f19601f82011682018060405250810190611af39190614205565b9050610af48161317e565b600082815260208190526040902060010154611b1a8133612457565b610a618383612b1f565b7f55435dd261a4b9b3364963f7738a7a662ad9c84396d64be3365284bb7f0a5041611b4f8133612457565b8151611b62906005906020850190613d9e565b507fa0ddd263f8966deaa9209d36ecf63770a4baf7f627d164775a94f808930cd04882604051611717919061451d565b7f55435dd261a4b9b3364963f7738a7a662ad9c84396d64be3365284bb7f0a5041611bbd8133612457565b61ffff8216611c28576040517f08c379a000000000000000000000000000000000000000000000000000000000815260206004820152601560248201527f696e76616c696420726566657272616c20636f646500000000000000000000006044820152606401610ae1565b600680547fffffffffffffffffffffffffffffffffffffffffffffffffffffffffff0000ff1661010061ffff8581168202929092179283905560405192041681527fa9d34997172c99abc4b0099d134695742c98b8f5c6083bd8dc16203ecb04016190602001611717565b801580611d4257506040517fdd62ed3e00000000000000000000000000000000000000000000000000000000815230600482015273ffffffffffffffffffffffffffffffffffffffff838116602483015284169063dd62ed3e9060440160206040518083038186803b158015611d0857600080fd5b505afa158015611d1c573d6000803e3d6000fd5b505050506040513d601f19601f82011682018060405250810190611d409190614205565b155b611dce576040517f08c379a000000000000000000000000000000000000000000000000000000000815260206004820152603660248201527f5361666545524332303a20617070726f76652066726f6d206e6f6e2d7a65726f60448201527f20746f206e6f6e2d7a65726f20616c6c6f77616e6365000000000000000000006064820152608401610ae1565b60405173ffffffffffffffffffffffffffffffffffffffff8316602482015260448101829052610a619084907f095ea7b300000000000000000000000000000000000000000000000000000000906064015b604080517fffffffffffffffffffffffffffffffffffffffffffffffffffffffffffffffe08184030181529190526020810180517bffffffffffffffffffffffffffffffffffffffffffffffffffffffff167fffffffff0000000000000000000000000000000000000000000000000000000090931692909217909152613526565b6060611eb18484600085613632565b90505b9392505050565b600080633b9aca00611ecb61214e565b600480546040517f35ea6a7500000000000000000000000000000000000000000000000000000000815273ffffffffffffffffffffffffffffffffffffffff9182169281019290925291909116906335ea6a75906024016101806040518083038186803b158015611f3b57600080fd5b505afa158015611f4f573d6000803e3d6000fd5b505050506040513d601f19601f82011682018060405250810190611f7391906140f4565b606001516fffffffffffffffffffffffffffffffff16611f939190614640565b600480546040517f35ea6a7500000000000000000000000000000000000000000000000000000000815273ffffffffffffffffffffffffffffffffffffffff91821692810192909252919250600091829182917f000000000000000000000000000000000000000000000000000000000000000016906335ea6a75906024016101406040518083038186803b15801561202b57600080fd5b505afa15801561203f573d6000803e3d6000fd5b505050506040513d601f19601f8201168201806040525081019061206391906142f3565b5050505050505092509250925060006120828284866109c39190614628565b905061208e8186614628565b9550505050505090565b60006120a2611961565b600480546040517f70a08231000000000000000000000000000000000000000000000000000000008152309281019290925273ffffffffffffffffffffffffffffffffffffffff16906370a082319060240160206040518083038186803b15801561210c57600080fd5b505afa158015612120573d6000803e3d6000fd5b505050506040513d601f19601f820116820180604052508101906121449190614205565b6113ba9190614628565b60007f000000000000000000000000000000000000000000000000000000000000000073ffffffffffffffffffffffffffffffffffffffff16630542975c6040518163ffffffff1660e01b815260040160206040518083038186803b1580156121b657600080fd5b505afa1580156121ca573d6000803e3d6000fd5b505050506040513d601f19601f820116820180604052508101906121ee9190613ec6565b73ffffffffffffffffffffffffffffffffffffffff16630261bf8b6040518163ffffffff1660e01b815260040160206040518083038186803b15801561223357600080fd5b505afa158015612247573d6000803e3d6000fd5b505050506040513d601f19601f820116820180604052508101906113ba9190613ec6565b60008061227661336c565b60065490915060ff16801561230757508073ffffffffffffffffffffffffffffffffffffffff1663cc69afec6040518163ffffffff1660e01b815260040160206040518083038186803b1580156122cc57600080fd5b505afa1580156122e0573d6000803e3d6000fd5b505050506040513d601f19601f820116820180604052508101906123049190614205565b42105b80156123135750600083115b1561244e57600061232261336c565b6040517f1652e7b700000000000000000000000000000000000000000000000000000000815273ffffffffffffffffffffffffffffffffffffffff7f0000000000000000000000000000000000000000000000000000000000000000811660048301529190911690631652e7b79060240160606040518083038186803b1580156123ab57600080fd5b505afa1580156123bf573d6000803e3d6000fd5b505050506040513d601f19601f820116820180604052508101906123e3919061421e565b50915050801561244c5760006123f8826137b2565b905060008561240b6301e133808461467b565b61241d90670de0b6b3a764000061467b565b6124279190614640565b90506127106124388261251c61467b565b6124429190614640565b9695505050505050565b505b50600092915050565b60008281526020818152604080832073ffffffffffffffffffffffffffffffffffffffff8516845290915290205460ff16610af4576124ad8173ffffffffffffffffffffffffffffffffffffffff166014613b08565b6124b8836020613b08565b6040516020016124c9929190614425565b604080517fffffffffffffffffffffffffffffffffffffffffffffffffffffffffffffffe0818403018152908290527f08c379a0000000000000000000000000000000000000000000000000000000008252610ae19160040161451d565b6040517f70a08231000000000000000000000000000000000000000000000000000000008152306004820152600090819073ffffffffffffffffffffffffffffffffffffffff7f000000000000000000000000000000000000000000000000000000000000000016906370a082319060240160206040518083038186803b1580156125b157600080fd5b505afa1580156125c5573d6000803e3d6000fd5b505050506040513d601f19601f820116820180604052508101906125e99190614205565b600480546040517f70a08231000000000000000000000000000000000000000000000000000000008152309281019290925291925060009173ffffffffffffffffffffffffffffffffffffffff16906370a082319060240160206040518083038186803b15801561265957600080fd5b505afa15801561266d573d6000803e3d6000fd5b505050506040513d601f19601f820116820180604052508101906126919190614205565b9050600061269f8284614628565b9050808511156126ad578094505b8482106126e7576003546004546126de9173ffffffffffffffffffffffffffffffffffffffff9182169116876133e6565b50929392505050565b600480546040517f70a0823100000000000000000000000000000000000000000000000000000000815273ffffffffffffffffffffffffffffffffffffffff7f0000000000000000000000000000000000000000000000000000000000000000811693820193909352600092909116906370a082319060240160206040518083038186803b15801561277857600080fd5b505afa15801561278c573d6000803e3d6000fd5b505050506040513d601f19601f820116820180604052508101906127b09190614205565b905060018111156129565760006127c784886146b8565b9050818111612894576127d861214e565b600480546040517f69328dec00000000000000000000000000000000000000000000000000000000815273ffffffffffffffffffffffffffffffffffffffff918216928101929092526024820184905230604483015291909116906369328dec90606401602060405180830381600087803b15801561285657600080fd5b505af115801561286a573d6000803e3d6000fd5b505050506040513d601f19601f8201168201806040525081019061288e9190614205565b50612954565b61289c61214e565b600480546040517f69328dec00000000000000000000000000000000000000000000000000000000815273ffffffffffffffffffffffffffffffffffffffff918216928101929092526024820185905230604483015291909116906369328dec90606401602060405180830381600087803b15801561291a57600080fd5b505af115801561292e573d6000803e3d6000fd5b505050506040513d601f19601f820116820180604052508101906129529190614205565b505b505b600480546040517f70a08231000000000000000000000000000000000000000000000000000000008152309281019290925273ffffffffffffffffffffffffffffffffffffffff16906370a082319060240160206040518083038186803b1580156129c057600080fd5b505afa1580156129d4573d6000803e3d6000fd5b505050506040513d601f19601f820116820180604052508101906129f89190614205565b600354600454919450612a259173ffffffffffffffffffffffffffffffffffffffff9081169116856133e6565b5090949350505050565b60008281526020818152604080832073ffffffffffffffffffffffffffffffffffffffff8516845290915290205460ff16610af45760008281526020818152604080832073ffffffffffffffffffffffffffffffffffffffff85168452909152902080547fffffffffffffffffffffffffffffffffffffffffffffffffffffffffffffff00166001179055612ac13390565b73ffffffffffffffffffffffffffffffffffffffff168173ffffffffffffffffffffffffffffffffffffffff16837f2f8788117e7eff1d82e926ec794901d17c78024a50270940304540a733656f0d60405160405180910390a45050565b60008281526020818152604080832073ffffffffffffffffffffffffffffffffffffffff8516845290915290205460ff1615610af45760008281526020818152604080832073ffffffffffffffffffffffffffffffffffffffff8516808552925280832080547fffffffffffffffffffffffffffffffffffffffffffffffffffffffffffffff0016905551339285917ff6391f5c32d9c69d2a47ea670b442974b53935d1edc7fd64eb21e047a839171b9190a45050565b60065460009060ff16612be95750600090565b6040517f091030c30000000000000000000000000000000000000000000000000000000081523060048201526000907f000000000000000000000000000000000000000000000000000000000000000073ffffffffffffffffffffffffffffffffffffffff169063091030c39060240160206040518083038186803b158015612c7157600080fd5b505afa158015612c85573d6000803e3d6000fd5b505050506040513d601f19601f82011682018060405250810190612ca99190614205565b905060007f000000000000000000000000000000000000000000000000000000000000000073ffffffffffffffffffffffffffffffffffffffff166372b49d636040518163ffffffff1660e01b815260040160206040518083038186803b158015612d1357600080fd5b505afa158015612d27573d6000803e3d6000fd5b505050506040513d601f19601f82011682018060405250810190612d4b9190614205565b905060007f000000000000000000000000000000000000000000000000000000000000000073ffffffffffffffffffffffffffffffffffffffff1663359c4a966040518163ffffffff1660e01b815260040160206040518083038186803b158015612db557600080fd5b505afa158015612dc9573d6000803e3d6000fd5b505050506040513d601f19601f82011682018060405250810190612ded9190614205565b9050612df98284614628565b4210612e28578082612e0b85426146b8565b612e159190614628565b111580612e20575082155b935050505090565b6000935050505090565b80612e3a5750565b6040517fdd62ed3e00000000000000000000000000000000000000000000000000000000815230600482015273ffffffffffffffffffffffffffffffffffffffff7f00000000000000000000000000000000000000000000000000000000000000008116602483015282917f00000000000000000000000000000000000000000000000000000000000000009091169063dd62ed3e9060440160206040518083038186803b158015612eeb57600080fd5b505afa158015612eff573d6000803e3d6000fd5b505050506040513d601f19601f82011682018060405250810190612f239190614205565b101561300c57612f8b73ffffffffffffffffffffffffffffffffffffffff7f0000000000000000000000000000000000000000000000000000000000000000167f00000000000000000000000000000000000000000000000000000000000000006000611c93565b61300c73ffffffffffffffffffffffffffffffffffffffff7f0000000000000000000000000000000000000000000000000000000000000000167f00000000000000000000000000000000000000000000000000000000000000007fffffffffffffffffffffffffffffffffffffffffffffffffffffffffffffffff611c93565b7f000000000000000000000000000000000000000000000000000000000000000073ffffffffffffffffffffffffffffffffffffffff1663c04b8d596040518060a001604052806005805461306090614730565b80601f016020809104026020016040519081016040528092919081815260200182805461308c90614730565b80156130d95780601f106130ae576101008083540402835291602001916130d9565b820191906000526020600020905b8154815290600101906020018083116130bc57829003601f168201915b505050505081526020013073ffffffffffffffffffffffffffffffffffffffff16815260200142815260200184815260200160008152506040518263ffffffff1660e01b815260040161312c9190614530565b602060405180830381600087803b15801561314657600080fd5b505af115801561315a573d6000803e3d6000fd5b505050506040513d601f19601f82011682018060405250810190610af49190614205565b600061318861214e565b600480546040517fdd62ed3e000000000000000000000000000000000000000000000000000000008152309281019290925273ffffffffffffffffffffffffffffffffffffffff80841660248401529293508492169063dd62ed3e9060440160206040518083038186803b1580156131ff57600080fd5b505afa158015613213573d6000803e3d6000fd5b505050506040513d601f19601f820116820180604052508101906132379190614205565b10156132a6576004546132629073ffffffffffffffffffffffffffffffffffffffff16826000611c93565b6004546132a69073ffffffffffffffffffffffffffffffffffffffff16827fffffffffffffffffffffffffffffffffffffffffffffffffffffffffffffffff611c93565b600654600090610100900461ffff1680156132c3578091506132c8565b60b391505b600480546040517fe8eda9df00000000000000000000000000000000000000000000000000000000815273ffffffffffffffffffffffffffffffffffffffff918216928101929092526024820186905230604483015261ffff8416606483015284169063e8eda9df90608401600060405180830381600087803b15801561334e57600080fd5b505af1158015613362573d6000803e3d6000fd5b5050505050505050565b60065460009060ff16156133e0577f000000000000000000000000000000000000000000000000000000000000000073ffffffffffffffffffffffffffffffffffffffff166375d264136040518163ffffffff1660e01b815260040160206040518083038186803b15801561223357600080fd5b50600090565b60405173ffffffffffffffffffffffffffffffffffffffff8316602482015260448101829052610a619084907fa9059cbb0000000000000000000000000000000000000000000000000000000090606401611e20565b604080516002808252606080830184529260009291906020830190803683375050600454825192935073ffffffffffffffffffffffffffffffffffffffff169183915060009061348e5761348e6147e6565b602002602001019073ffffffffffffffffffffffffffffffffffffffff16908173ffffffffffffffffffffffffffffffffffffffff16815250507f0000000000000000000000000000000000000000000000000000000000000000816001815181106134fc576134fc6147e6565b73ffffffffffffffffffffffffffffffffffffffff90921660209283029190910190910152919050565b6000613588826040518060400160405280602081526020017f5361666545524332303a206c6f772d6c6576656c2063616c6c206661696c65648152508573ffffffffffffffffffffffffffffffffffffffff16611ea29092919063ffffffff16565b805190915015610a6157808060200190518101906135a69190613fe6565b610a61576040517f08c379a000000000000000000000000000000000000000000000000000000000815260206004820152602a60248201527f5361666545524332303a204552433230206f7065726174696f6e20646964206e60448201527f6f742073756363656564000000000000000000000000000000000000000000006064820152608401610ae1565b6060824710156136c4576040517f08c379a000000000000000000000000000000000000000000000000000000000815260206004820152602660248201527f416464726573733a20696e73756666696369656e742062616c616e636520666f60448201527f722063616c6c00000000000000000000000000000000000000000000000000006064820152608401610ae1565b843b61372c576040517f08c379a000000000000000000000000000000000000000000000000000000000815260206004820152601d60248201527f416464726573733a2063616c6c20746f206e6f6e2d636f6e74726163740000006044820152606401610ae1565b6000808673ffffffffffffffffffffffffffffffffffffffff1685876040516137559190614409565b60006040518083038185875af1925050503d8060008114613792576040519150601f19603f3d011682016040523d82523d6000602084013e613797565b606091505b50915091506137a7828286613d4b565b979650505050505050565b60045460009060609073ffffffffffffffffffffffffffffffffffffffff1673c02aaa39b223fe8d0a0e5c4f27ead9083c756cc214156138bd5760408051600280825260608201835290916020830190803683370190505090507f000000000000000000000000000000000000000000000000000000000000000081600081518110613840576138406147e6565b73ffffffffffffffffffffffffffffffffffffffff928316602091820292909201015260045482519116908290600190811061387e5761387e6147e6565b602002602001019073ffffffffffffffffffffffffffffffffffffffff16908173ffffffffffffffffffffffffffffffffffffffff16815250506139ed565b6040805160038082526080820190925290602082016060803683370190505090507f000000000000000000000000000000000000000000000000000000000000000081600081518110613912576139126147e6565b602002602001019073ffffffffffffffffffffffffffffffffffffffff16908173ffffffffffffffffffffffffffffffffffffffff168152505073c02aaa39b223fe8d0a0e5c4f27ead9083c756cc281600181518110613974576139746147e6565b73ffffffffffffffffffffffffffffffffffffffff92831660209182029290920101526004548251911690829060029081106139b2576139b26147e6565b602002602001019073ffffffffffffffffffffffffffffffffffffffff16908173ffffffffffffffffffffffffffffffffffffffff16815250505b6040517fd06ca61f00000000000000000000000000000000000000000000000000000000815260009073ffffffffffffffffffffffffffffffffffffffff7f0000000000000000000000000000000000000000000000000000000000000000169063d06ca61f90613a649087908690600401614596565b60006040518083038186803b158015613a7c57600080fd5b505afa158015613a90573d6000803e3d6000fd5b505050506040513d6000823e601f3d9081017fffffffffffffffffffffffffffffffffffffffffffffffffffffffffffffffe0168201604052613ad69190810190613f1c565b90508060018251613ae791906146b8565b81518110613af757613af76147e6565b602002602001015192505050919050565b60606000613b1783600261467b565b613b22906002614628565b67ffffffffffffffff811115613b3a57613b3a614815565b6040519080825280601f01601f191660200182016040528015613b64576020820181803683370190505b5090507f300000000000000000000000000000000000000000000000000000000000000081600081518110613b9b57613b9b6147e6565b60200101907effffffffffffffffffffffffffffffffffffffffffffffffffffffffffffff1916908160001a9053507f780000000000000000000000000000000000000000000000000000000000000081600181518110613bfe57613bfe6147e6565b60200101907effffffffffffffffffffffffffffffffffffffffffffffffffffffffffffff1916908160001a9053506000613c3a84600261467b565b613c45906001614628565b90505b6001811115613ce2577f303132333435363738396162636465660000000000000000000000000000000085600f1660108110613c8657613c866147e6565b1a60f81b828281518110613c9c57613c9c6147e6565b60200101907effffffffffffffffffffffffffffffffffffffffffffffffffffffffffffff1916908160001a90535060049490941c93613cdb816146fb565b9050613c48565b508315611eb4576040517f08c379a000000000000000000000000000000000000000000000000000000000815260206004820181905260248201527f537472696e67733a20686578206c656e67746820696e73756666696369656e746044820152606401610ae1565b60608315613d5a575081611eb4565b825115613d6a5782518084602001fd5b816040517f08c379a0000000000000000000000000000000000000000000000000000000008152600401610ae1919061451d565b828054613daa90614730565b90600052602060002090601f016020900481019282613dcc5760008555613e12565b82601f10613de557805160ff1916838001178555613e12565b82800160010185558215613e12579182015b82811115613e12578251825591602001919060010190613df7565b506117709291505b808211156117705760008155600101613e1a565b8051613e3981614844565b919050565b600060208284031215613e5057600080fd5b6040516020810181811067ffffffffffffffff82111715613e7357613e73614815565b6040529151825250919050565b80516fffffffffffffffffffffffffffffffff81168114613e3957600080fd5b805164ffffffffff81168114613e3957600080fd5b805160ff81168114613e3957600080fd5b600060208284031215613ed857600080fd5b8151611eb481614844565b60008060408385031215613ef657600080fd5b8235613f0181614844565b91506020830135613f1181614844565b809150509250929050565b60006020808385031215613f2f57600080fd5b825167ffffffffffffffff80821115613f4757600080fd5b818501915085601f830112613f5b57600080fd5b815181811115613f6d57613f6d614815565b8060051b9150613f7e8483016145d9565b8181528481019084860184860187018a1015613f9957600080fd5b600095505b83861015613fbc578051835260019590950194918601918601613f9e565b5098975050505050505050565b600060208284031215613fdb57600080fd5b8135611eb481614869565b600060208284031215613ff857600080fd5b8151611eb481614869565b60006020828403121561401557600080fd5b5035919050565b6000806040838503121561402f57600080fd5b823591506020830135613f1181614844565b6000602080838503121561405457600080fd5b823567ffffffffffffffff8082111561406c57600080fd5b818501915085601f83011261408057600080fd5b81358181111561409257614092614815565b6140c2847fffffffffffffffffffffffffffffffffffffffffffffffffffffffffffffffe0601f840116016145d9565b915080825286848285010111156140d857600080fd5b8084840185840137600090820190930192909252509392505050565b6000610180828403121561410757600080fd5b61410f6145af565b6141198484613e3e565b815261412760208401613e80565b602082015261413860408401613e80565b604082015261414960608401613e80565b606082015261415a60808401613e80565b608082015261416b60a08401613e80565b60a082015261417c60c08401613ea0565b60c082015261418d60e08401613e2e565b60e08201526101006141a0818501613e2e565b908201526101206141b2848201613e2e565b908201526101406141c4848201613e2e565b908201526101606141d6848201613eb5565b908201529392505050565b6000602082840312156141f357600080fd5b813561ffff81168114611eb457600080fd5b60006020828403121561421757600080fd5b5051919050565b60008060006060848603121561423357600080fd5b8351925060208401519150604084015190509250925092565b6000806000806000806000806000806101408b8d03121561426c57600080fd5b8a51995060208b0151985060408b0151975060608b0151965060808b0151955060a08b015161429a81614869565b60c08c01519095506142ab81614869565b60e08c01519094506142bc81614869565b6101008c01519093506142ce81614869565b6101208c01519092506142e081614869565b809150509295989b9194979a5092959850565b6000806000806000806000806000806101408b8d03121561431357600080fd5b8a51995060208b0151985060408b0151975060608b0151965060808b0151955060a08b0151945060c08b0151935060e08b015192506101008b0151915061435d6101208c01613ea0565b90509295989b9194979a5092959850565b600081518084526020808501945080840160005b838110156143b457815173ffffffffffffffffffffffffffffffffffffffff1687529582019590820190600101614382565b509495945050505050565b600081518084526143d78160208601602086016146cf565b601f017fffffffffffffffffffffffffffffffffffffffffffffffffffffffffffffffe0169290920160200192915050565b6000825161441b8184602087016146cf565b9190910192915050565b7f416363657373436f6e74726f6c3a206163636f756e742000000000000000000081526000835161445d8160178501602088016146cf565b7f206973206d697373696e6720726f6c6520000000000000000000000000000000601791840191820152835161449a8160288401602088016146cf565b01602801949350505050565b6040815260006144b9604083018561436e565b905073ffffffffffffffffffffffffffffffffffffffff831660208301529392505050565b6060815260006144f1606083018661436e565b905083602083015273ffffffffffffffffffffffffffffffffffffffff83166040830152949350505050565b602081526000611eb460208301846143bf565b602081526000825160a0602084015261454c60c08401826143bf565b905073ffffffffffffffffffffffffffffffffffffffff60208501511660408401526040840151606084015260608401516080840152608084015160a08401528091505092915050565b828152604060208201526000611eb1604083018461436e565b604051610180810167ffffffffffffffff811182821017156145d3576145d3614815565b60405290565b604051601f82017fffffffffffffffffffffffffffffffffffffffffffffffffffffffffffffffe016810167ffffffffffffffff8111828210171561462057614620614815565b604052919050565b6000821982111561463b5761463b6147b7565b500190565b600082614676577f4e487b7100000000000000000000000000000000000000000000000000000000600052601260045260246000fd5b500490565b6000817fffffffffffffffffffffffffffffffffffffffffffffffffffffffffffffffff04831182151516156146b3576146b36147b7565b500290565b6000828210156146ca576146ca6147b7565b500390565b60005b838110156146ea5781810151838201526020016146d2565b838111156119515750506000910152565b60008161470a5761470a6147b7565b507fffffffffffffffffffffffffffffffffffffffffffffffffffffffffffffffff0190565b600181811c9082168061474457607f821691505b60208210811415610a35577f4e487b7100000000000000000000000000000000000000000000000000000000600052602260045260246000fd5b60007fffffffffffffffffffffffffffffffffffffffffffffffffffffffffffffffff8214156147b0576147b06147b7565b5060010190565b7f4e487b7100000000000000000000000000000000000000000000000000000000600052601160045260246000fd5b7f4e487b7100000000000000000000000000000000000000000000000000000000600052603260045260246000fd5b7f4e487b7100000000000000000000000000000000000000000000000000000000600052604160045260246000fd5b73ffffffffffffffffffffffffffffffffffffffff8116811461486657600080fd5b50565b801515811461486657600080fdfea26469706673582212200e8fe88bdc9adf3ea899b46ce28e536b0b13f62f00e6a1c45bc4b2cfe42bf0e664736f6c63430008070033928286c473ded01ff8bf61a1986f14a0579066072fa8261442d9fea514d93a4c55435dd261a4b9b3364963f7738a7a662ad9c84396d64be3365284bb7f0a5041",
  "linkReferences": {},
  "deployedLinkReferences": {}
}