{
  "_format": "hh-sol-artifact-1",
  "contractName": "MockUniswapV3Router",
  "sourceName": "contracts/mock/MockUniswapV3Router.sol",
  "abi": [
    {
      "inputs": [
        {
          "internalType": "contract IERC20Metadata",
          "name": "_tokenA",
          "type": "address"
        },
        {
          "internalType": "contract IERC20Metadata",
          "name": "_tokenB",
          "type": "address"
        }
      ],
      "stateMutability": "nonpayable",
      "type": "constructor"
    },
    {
      "inputs": [],
      "name": "decimalsA",
      "outputs": [
        {
          "internalType": "uint256",
          "name": "",
          "type": "uint256"
        }
      ],
      "stateMutability": "view",
      "type": "function"
    },
    {
      "inputs": [],
      "name": "decimalsB",
      "outputs": [
        {
          "internalType": "uint256",
          "name": "",
          "type": "uint256"
        }
      ],
      "stateMutability": "view",
      "type": "function"
    },
    {
      "inputs": [
        {
          "components": [
            {
              "internalType": "bytes",
              "name": "path",
              "type": "bytes"
            },
            {
              "internalType": "address",
              "name": "recipient",
              "type": "address"
            },
            {
              "internalType": "uint256",
              "name": "deadline",
              "type": "uint256"
            },
            {
              "internalType": "uint256",
              "name": "amountIn",
              "type": "uint256"
            },
            {
              "internalType": "uint256",
              "name": "amountOutMinimum",
              "type": "uint256"
            }
          ],
          "internalType": "struct ExactInputParams",
          "name": "params",
          "type": "tuple"
        }
      ],
      "name": "exactInput",
      "outputs": [
        {
          "internalType": "uint256",
          "name": "amountOut",
          "type": "uint256"
        }
      ],
      "stateMutability": "payable",
      "type": "function"
    },
    {
      "inputs": [],
      "name": "exchangeRate",
      "outputs": [
        {
          "internalType": "uint256",
          "name": "",
          "type": "uint256"
        }
      ],
      "stateMutability": "view",
      "type": "function"
    },
    {
      "inputs": [],
      "name": "tokenA",
      "outputs": [
        {
          "internalType": "contract IERC20Metadata",
          "name": "",
          "type": "address"
        }
      ],
      "stateMutability": "view",
      "type": "function"
    },
    {
      "inputs": [],
      "name": "tokenB",
      "outputs": [
        {
          "internalType": "contract IERC20Metadata",
          "name": "",
          "type": "address"
        }
      ],
      "stateMutability": "view",
      "type": "function"
    },
    {
      "inputs": [
        {
          "internalType": "uint256",
          "name": "newExchangeRate",
          "type": "uint256"
        }
      ],
      "name": "updateExchangeRate",
      "outputs": [],
      "stateMutability": "nonpayable",
      "type": "function"
    }
  ],
  "bytecode": "0x6080604052670de0b6b3a764000060005534801561001c57600080fd5b5060405161083d38038061083d83398101604081905261003b916101f8565b600180546001600160a01b038085166001600160a01b0319928316811790935560028054918516919092161790556040805163313ce56760e01b8152905163313ce56791600480820192602092909190829003018186803b15801561009f57600080fd5b505afa1580156100b3573d6000803e3d6000fd5b505050506040513d601f19601f820116820180604052508101906100d7919061022b565b60ff16600381905550806001600160a01b031663313ce5676040518163ffffffff1660e01b815260040160206040518083038186803b15801561011957600080fd5b505afa15801561012d573d6000803e3d6000fd5b505050506040513d601f19601f82011682018060405250810190610151919061022b565b60ff166004556002546001600160a01b03166340c10f19306101776103e8600019610255565b6040516001600160e01b031960e085901b1681526001600160a01b0390921660048301526024820152604401600060405180830381600087803b1580156101bd57600080fd5b505af11580156101d1573d6000803e3d6000fd5b505050505050610277565b80516001600160a01b03811681146101f357600080fd5b919050565b6000806040838503121561020b57600080fd5b610214836101dc565b9150610222602084016101dc565b90509250929050565b60006020828403121561023d57600080fd5b815160ff8116811461024e57600080fd5b9392505050565b60008261027257634e487b7160e01b600052601260045260246000fd5b500490565b6105b7806102866000396000f3fe6080604052600436106100705760003560e01c806357cbf16c1161004e57806357cbf16c146101065780635f64b55b1461011c578063b9e205ae14610149578063c04b8d591461016b57600080fd5b80630fc63d10146100755780633ba0b9a9146100cc57806350894e9f146100f0575b600080fd5b34801561008157600080fd5b506001546100a29073ffffffffffffffffffffffffffffffffffffffff1681565b60405173ffffffffffffffffffffffffffffffffffffffff90911681526020015b60405180910390f35b3480156100d857600080fd5b506100e260005481565b6040519081526020016100c3565b3480156100fc57600080fd5b506100e260035481565b34801561011257600080fd5b506100e260045481565b34801561012857600080fd5b506002546100a29073ffffffffffffffffffffffffffffffffffffffff1681565b34801561015557600080fd5b50610169610164366004610398565b600055565b005b6100e261017936600461035d565b6001546040517f23b872dd0000000000000000000000000000000000000000000000000000000081523360048201523060248201526060830135604482015260009173ffffffffffffffffffffffffffffffffffffffff16906323b872dd90606401602060405180830381600087803b1580156101f557600080fd5b505af1158015610209573d6000803e3d6000fd5b505050506040513d601f19601f8201168201806040525081019061022d9190610334565b5060035461023c90600a61044d565b60045461024a90600a61044d565b670de0b6b3a764000060005485606001356102659190610515565b61026f91906103b1565b6102799190610515565b61028391906103b1565b6002546040517fa9059cbb0000000000000000000000000000000000000000000000000000000081523360048201526024810183905291925073ffffffffffffffffffffffffffffffffffffffff169063a9059cbb90604401602060405180830381600087803b1580156102f657600080fd5b505af115801561030a573d6000803e3d6000fd5b505050506040513d601f19601f8201168201806040525081019061032e9190610334565b50919050565b60006020828403121561034657600080fd5b8151801515811461035657600080fd5b9392505050565b60006020828403121561036f57600080fd5b813567ffffffffffffffff81111561038657600080fd5b820160a0818503121561035657600080fd5b6000602082840312156103aa57600080fd5b5035919050565b6000826103e7577f4e487b7100000000000000000000000000000000000000000000000000000000600052601260045260246000fd5b500490565b600181815b8085111561044557817fffffffffffffffffffffffffffffffffffffffffffffffffffffffffffffffff0482111561042b5761042b610552565b8085161561043857918102915b93841c93908002906103f1565b509250929050565b600061035683836000826104635750600161050f565b816104705750600061050f565b81600181146104865760028114610490576104ac565b600191505061050f565b60ff8411156104a1576104a1610552565b50506001821b61050f565b5060208310610133831016604e8410600b84101617156104cf575081810a61050f565b6104d983836103ec565b807fffffffffffffffffffffffffffffffffffffffffffffffffffffffffffffffff0482111561050b5761050b610552565b0290505b92915050565b6000817fffffffffffffffffffffffffffffffffffffffffffffffffffffffffffffffff048311821515161561054d5761054d610552565b500290565b7f4e487b7100000000000000000000000000000000000000000000000000000000600052601160045260246000fdfea2646970667358221220774065b1e917874614e638a7b3c9bc7af793e4fab774725373334e0eae0f7e2864736f6c63430008070033",
  "linkReferences": {},
  "deployedLinkReferences": {}
}