{
  "_format": "hh-sol-artifact-1",
  "contractName": "Core",
  "sourceName": "contracts/core/Core.sol",
  "abi": [
    {
      "inputs": [
        {
          "internalType": "address",
          "name": "_governor",
          "type": "address"
        },
        {
          "internalType": "address",
          "name": "_guardian",
          "type": "address"
        }
      ],
      "stateMutability": "nonpayable",
      "type": "constructor"
    },
    {
      "anonymous": false,
      "inputs": [
        {
          "indexed": true,
          "internalType": "address",
          "name": "newCore",
          "type": "address"
        }
      ],
      "name": "CoreChanged",
      "type": "event"
    },
    {
      "anonymous": false,
      "inputs": [
        {
          "indexed": true,
          "internalType": "address",
          "name": "governor",
          "type": "address"
        }
      ],
      "name": "GovernorRoleGranted",
      "type": "event"
    },
    {
      "anonymous": false,
      "inputs": [
        {
          "indexed": true,
          "internalType": "address",
          "name": "governor",
          "type": "address"
        }
      ],
      "name": "GovernorRoleRevoked",
      "type": "event"
    },
    {
      "anonymous": false,
      "inputs": [
        {
          "indexed": true,
          "internalType": "address",
          "name": "oldGuardian",
          "type": "address"
        },
        {
          "indexed": true,
          "internalType": "address",
          "name": "newGuardian",
          "type": "address"
        }
      ],
      "name": "GuardianRoleChanged",
      "type": "event"
    },
    {
      "anonymous": false,
      "inputs": [
        {
          "indexed": true,
          "internalType": "address",
          "name": "_stableMaster",
          "type": "address"
        },
        {
          "indexed": true,
          "internalType": "address",
          "name": "_agToken",
          "type": "address"
        }
      ],
      "name": "StableMasterDeployed",
      "type": "event"
    },
    {
      "anonymous": false,
      "inputs": [
        {
          "indexed": true,
          "internalType": "address",
          "name": "_stableMaster",
          "type": "address"
        }
      ],
      "name": "StableMasterRevoked",
      "type": "event"
    },
    {
      "inputs": [
        {
          "internalType": "address",
          "name": "_governor",
          "type": "address"
        }
      ],
      "name": "addGovernor",
      "outputs": [],
      "stateMutability": "nonpayable",
      "type": "function"
    },
    {
      "inputs": [
        {
          "internalType": "address",
          "name": "agToken",
          "type": "address"
        }
      ],
      "name": "deployStableMaster",
      "outputs": [],
      "stateMutability": "nonpayable",
      "type": "function"
    },
    {
      "inputs": [
        {
          "internalType": "address",
          "name": "",
          "type": "address"
        }
      ],
      "name": "deployedStableMasterMap",
      "outputs": [
        {
          "internalType": "bool",
          "name": "",
          "type": "bool"
        }
      ],
      "stateMutability": "view",
      "type": "function"
    },
    {
      "inputs": [],
      "name": "governorList",
      "outputs": [
        {
          "internalType": "address[]",
          "name": "",
          "type": "address[]"
        }
      ],
      "stateMutability": "view",
      "type": "function"
    },
    {
      "inputs": [
        {
          "internalType": "address",
          "name": "",
          "type": "address"
        }
      ],
      "name": "governorMap",
      "outputs": [
        {
          "internalType": "bool",
          "name": "",
          "type": "bool"
        }
      ],
      "stateMutability": "view",
      "type": "function"
    },
    {
      "inputs": [],
      "name": "guardian",
      "outputs": [
        {
          "internalType": "address",
          "name": "",
          "type": "address"
        }
      ],
      "stateMutability": "view",
      "type": "function"
    },
    {
      "inputs": [
        {
          "internalType": "address",
          "name": "_governor",
          "type": "address"
        }
      ],
      "name": "removeGovernor",
      "outputs": [],
      "stateMutability": "nonpayable",
      "type": "function"
    },
    {
      "inputs": [],
      "name": "revokeGuardian",
      "outputs": [],
      "stateMutability": "nonpayable",
      "type": "function"
    },
    {
      "inputs": [
        {
          "internalType": "address",
          "name": "stableMaster",
          "type": "address"
        }
      ],
      "name": "revokeStableMaster",
      "outputs": [],
      "stateMutability": "nonpayable",
      "type": "function"
    },
    {
      "inputs": [
        {
          "internalType": "contract ICore",
          "name": "newCore",
          "type": "address"
        }
      ],
      "name": "setCore",
      "outputs": [],
      "stateMutability": "nonpayable",
      "type": "function"
    },
    {
      "inputs": [
        {
          "internalType": "address",
          "name": "_newGuardian",
          "type": "address"
        }
      ],
      "name": "setGuardian",
      "outputs": [],
      "stateMutability": "nonpayable",
      "type": "function"
    },
    {
      "inputs": [],
      "name": "stablecoinList",
      "outputs": [
        {
          "internalType": "address[]",
          "name": "",
          "type": "address[]"
        }
      ],
      "stateMutability": "view",
      "type": "function"
    }
  ],
  "bytecode": "0x60806040523480156200001157600080fd5b506040516200237a3803806200237a8339810160408190526200003491620001cb565b6001600160a01b038116158015906200005557506001600160a01b03821615155b6200008b5760405162461bcd60e51b81526020600482015260016024820152600360fc1b60448201526064015b60405180910390fd5b816001600160a01b0316816001600160a01b03161415620000d45760405162461bcd60e51b8152602060048201526002602482015261333960f01b604482015260640162000082565b6004805460018181019092557f8a35acfbc15ff81a39ae7d344fd709f28e8600b4aa8c65c6b64bfe7fe36bd19b0180546001600160a01b038086166001600160a01b031992831681179093556002805491861691909216179055600081815260208190526040808220805460ff1916909417909355915190917f2386e153a9c192d61a939b6f27bd9462592d94dd5c438ce7a7d833a5d04c64e991a26040516001600160a01b038216906000907f37e32bed1d2d58ea58967d6af777c41290d30558fdc37252b6c7a9bac2b579e5908290a3505062000203565b80516001600160a01b0381168114620001c657600080fd5b919050565b60008060408385031215620001df57600080fd5b620001ea83620001ae565b9150620001fa60208401620001ae565b90509250929050565b61216780620002136000396000f3fe608060405234801561001057600080fd5b50600436106100d35760003560e01c80638a0dac4a11610081578063b13380341161005b578063b1338034146101ee578063b44be095146101f6578063eecdac88146101fe57600080fd5b80638a0dac4a146101b357806391b38582146101c6578063a6d7fe2d146101d957600080fd5b8063452a9320116100b2578063452a932014610138578063800096301461017d57806385ebdc271461019057600080fd5b8062a254d2146100d8578063134ce3b0146100ed5780633c4a25d014610125575b600080fd5b6100eb6100e6366004611df2565b610211565b005b6101106100fb366004611df2565b60016020526000908152604090205460ff1681565b60405190151581526020015b60405180910390f35b6100eb610133366004611df2565b610595565b6002546101589073ffffffffffffffffffffffffffffffffffffffff1681565b60405173ffffffffffffffffffffffffffffffffffffffff909116815260200161011c565b6100eb61018b366004611df2565b6108c9565b61011061019e366004611df2565b60006020819052908152604090205460ff1681565b6100eb6101c1366004611df2565b610f8c565b6100eb6101d4366004611df2565b611327565b6101e161169b565b60405161011c9190611f1d565b6101e161170a565b6100eb611777565b6100eb61020c366004611df2565b61195a565b3360009081526020819052604090205460ff1661028f576040517f08c379a000000000000000000000000000000000000000000000000000000000815260206004820152600160248201527f310000000000000000000000000000000000000000000000000000000000000060448201526064015b60405180910390fd5b60035460018110156102fd576040517f08c379a000000000000000000000000000000000000000000000000000000000815260206004820152600260248201527f34350000000000000000000000000000000000000000000000000000000000006044820152606401610286565b6000805b61030c600184612000565b81101561041d578373ffffffffffffffffffffffffffffffffffffffff166003828154811061033d5761033d6120ae565b60009182526020909120015473ffffffffffffffffffffffffffffffffffffffff16141561040b576001915060036103758385612000565b81548110610385576103856120ae565b6000918252602090912001546003805473ffffffffffffffffffffffffffffffffffffffff90921691839081106103be576103be6120ae565b9060005260206000200160006101000a81548173ffffffffffffffffffffffffffffffffffffffff021916908373ffffffffffffffffffffffffffffffffffffffff16021790555061041d565b8061041581612017565b915050610301565b508060011480610480575073ffffffffffffffffffffffffffffffffffffffff8316600361044c600185612000565b8154811061045c5761045c6120ae565b60009182526020909120015473ffffffffffffffffffffffffffffffffffffffff16145b6104e6576040517f08c379a000000000000000000000000000000000000000000000000000000000815260206004820152600260248201527f34350000000000000000000000000000000000000000000000000000000000006044820152606401610286565b60038054806104f7576104f761207f565b60008281526020812082017fffffffffffffffffffffffffffffffffffffffffffffffffffffffffffffffff90810180547fffffffffffffffffffffffff000000000000000000000000000000000000000016905590910190915560405173ffffffffffffffffffffffffffffffffffffffff8516917f37dc4c063dd9531956283bafb4cd913962d4307a872d182d23773d41ecca6a9991a2505050565b3360009081526020819052604090205460ff1661060e576040517f08c379a000000000000000000000000000000000000000000000000000000000815260206004820152600160248201527f31000000000000000000000000000000000000000000000000000000000000006044820152606401610286565b8073ffffffffffffffffffffffffffffffffffffffff811661068c576040517f08c379a000000000000000000000000000000000000000000000000000000000815260206004820152600160248201527f30000000000000000000000000000000000000000000000000000000000000006044820152606401610286565b73ffffffffffffffffffffffffffffffffffffffff821660009081526020819052604090205460ff161561071c576040517f08c379a000000000000000000000000000000000000000000000000000000000815260206004820152600260248201527f34360000000000000000000000000000000000000000000000000000000000006044820152606401610286565b73ffffffffffffffffffffffffffffffffffffffff8216600081815260208190526040812080547fffffffffffffffffffffffffffffffffffffffffffffffffffffffffffffff0016600190811790915560048054918201815582527f8a35acfbc15ff81a39ae7d344fd709f28e8600b4aa8c65c6b64bfe7fe36bd19b0180547fffffffffffffffffffffffff0000000000000000000000000000000000000000169092179091555b60035481101561088357600381815481106107e2576107e26120ae565b6000918252602090912001546040517f3c4a25d000000000000000000000000000000000000000000000000000000000815273ffffffffffffffffffffffffffffffffffffffff858116600483015290911690633c4a25d090602401600060405180830381600087803b15801561085857600080fd5b505af115801561086c573d6000803e3d6000fd5b50505050808061087b90612017565b9150506107c5565b5060405173ffffffffffffffffffffffffffffffffffffffff8316907f2386e153a9c192d61a939b6f27bd9462592d94dd5c438ce7a7d833a5d04c64e990600090a25050565b3360009081526020819052604090205460ff16610942576040517f08c379a000000000000000000000000000000000000000000000000000000000815260206004820152600160248201527f31000000000000000000000000000000000000000000000000000000000000006044820152606401610286565b8073ffffffffffffffffffffffffffffffffffffffff81166109c0576040517f08c379a000000000000000000000000000000000000000000000000000000000815260206004820152600160248201527f30000000000000000000000000000000000000000000000000000000000000006044820152606401610286565b3073ffffffffffffffffffffffffffffffffffffffff83161415610a40576040517f08c379a000000000000000000000000000000000000000000000000000000000815260206004820152600260248201527f34300000000000000000000000000000000000000000000000000000000000006044820152606401610286565b8173ffffffffffffffffffffffffffffffffffffffff1663452a93206040518163ffffffff1660e01b815260040160206040518083038186803b158015610a8657600080fd5b505afa158015610a9a573d6000803e3d6000fd5b505050506040513d601f19601f82011682018060405250810190610abe9190611e16565b60025473ffffffffffffffffffffffffffffffffffffffff908116911614610b42576040517f08c379a000000000000000000000000000000000000000000000000000000000815260206004820152600260248201527f34310000000000000000000000000000000000000000000000000000000000006044820152606401610286565b6000600480549050905060008373ffffffffffffffffffffffffffffffffffffffff1663a6d7fe2d6040518163ffffffff1660e01b815260040160006040518083038186803b158015610b9457600080fd5b505afa158015610ba8573d6000803e3d6000fd5b505050506040513d6000823e601f3d9081017fffffffffffffffffffffffffffffffffffffffffffffffffffffffffffffffe0168201604052610bee9190810190611e33565b90506000600380549050905060008573ffffffffffffffffffffffffffffffffffffffff1663b13380346040518163ffffffff1660e01b815260040160006040518083038186803b158015610c4257600080fd5b505afa158015610c56573d6000803e3d6000fd5b505050506040513d6000823e601f3d9081017fffffffffffffffffffffffffffffffffffffffffffffffffffffffffffffffe0168201604052610c9c9190810190611e33565b9050825184148015610cae5750805182145b610d14576040517f08c379a000000000000000000000000000000000000000000000000000000000815260206004820152600260248201527f34320000000000000000000000000000000000000000000000000000000000006044820152606401610286565b6000805b85811015610d8857600080868381518110610d3557610d356120ae565b60209081029190910181015173ffffffffffffffffffffffffffffffffffffffff1682528101919091526040016000205460ff16610d765760019150610d88565b80610d8081612017565b915050610d18565b5060005b83811015610e1957828181518110610da657610da66120ae565b602002602001015173ffffffffffffffffffffffffffffffffffffffff1660038281548110610dd757610dd76120ae565b60009182526020909120015473ffffffffffffffffffffffffffffffffffffffff1614610e075760019150610e19565b80610e1181612017565b915050610d8c565b508015610e82576040517f08c379a000000000000000000000000000000000000000000000000000000000815260206004820152600260248201527f34330000000000000000000000000000000000000000000000000000000000006044820152606401610286565b60005b83811015610f415760038181548110610ea057610ea06120ae565b6000918252602090912001546040517f8000963000000000000000000000000000000000000000000000000000000000815273ffffffffffffffffffffffffffffffffffffffff8a8116600483015290911690638000963090602401600060405180830381600087803b158015610f1657600080fd5b505af1158015610f2a573d6000803e3d6000fd5b505050508080610f3990612017565b915050610e85565b5060405173ffffffffffffffffffffffffffffffffffffffff8816907f09ea1a5c9c765f3dcca5237033980edb16f8f7e0c59cac416e39c8dbbfdcec6990600090a250505050505050565b3360009081526020819052604090205460ff1680610fc1575060025473ffffffffffffffffffffffffffffffffffffffff1633145b611027576040517f08c379a000000000000000000000000000000000000000000000000000000000815260206004820152600160248201527f31000000000000000000000000000000000000000000000000000000000000006044820152606401610286565b8073ffffffffffffffffffffffffffffffffffffffff81166110a5576040517f08c379a000000000000000000000000000000000000000000000000000000000815260206004820152600160248201527f30000000000000000000000000000000000000000000000000000000000000006044820152606401610286565b73ffffffffffffffffffffffffffffffffffffffff821660009081526020819052604090205460ff1615611135576040517f08c379a000000000000000000000000000000000000000000000000000000000815260206004820152600260248201527f33390000000000000000000000000000000000000000000000000000000000006044820152606401610286565b60025473ffffffffffffffffffffffffffffffffffffffff838116911614156111ba576040517f08c379a000000000000000000000000000000000000000000000000000000000815260206004820152600260248201527f34390000000000000000000000000000000000000000000000000000000000006044820152606401610286565b6002805473ffffffffffffffffffffffffffffffffffffffff8481167fffffffffffffffffffffffff00000000000000000000000000000000000000008316179092551660005b6003548110156112c7576003818154811061121e5761121e6120ae565b6000918252602090912001546040517f33c509d100000000000000000000000000000000000000000000000000000000815273ffffffffffffffffffffffffffffffffffffffff86811660048301528481166024830152909116906333c509d190604401600060405180830381600087803b15801561129c57600080fd5b505af11580156112b0573d6000803e3d6000fd5b5050505080806112bf90612017565b915050611201565b508273ffffffffffffffffffffffffffffffffffffffff168173ffffffffffffffffffffffffffffffffffffffff167f37e32bed1d2d58ea58967d6af777c41290d30558fdc37252b6c7a9bac2b579e560405160405180910390a3505050565b3360009081526020819052604090205460ff166113a0576040517f08c379a000000000000000000000000000000000000000000000000000000000815260206004820152600160248201527f31000000000000000000000000000000000000000000000000000000000000006044820152606401610286565b8073ffffffffffffffffffffffffffffffffffffffff811661141e576040517f08c379a000000000000000000000000000000000000000000000000000000000815260206004820152600160248201527f30000000000000000000000000000000000000000000000000000000000000006044820152606401610286565b60008273ffffffffffffffffffffffffffffffffffffffff16636ac5dc466040518163ffffffff1660e01b815260040160206040518083038186803b15801561146657600080fd5b505afa15801561147a573d6000803e3d6000fd5b505050506040513d601f19601f8201168201806040525081019061149e9190611e16565b73ffffffffffffffffffffffffffffffffffffffff811660009081526001602052604090205490915060ff1615611531576040517f08c379a000000000000000000000000000000000000000000000000000000000815260206004820152600260248201527f34340000000000000000000000000000000000000000000000000000000000006044820152606401610286565b6003805460018082019092557fc2575a0e9e593c00f959f8c92f12db2869c3395a3b0502d05e2516446f71f85b0180547fffffffffffffffffffffffff00000000000000000000000000000000000000001673ffffffffffffffffffffffffffffffffffffffff8481169182179092556000818152602084905260409081902080547fffffffffffffffffffffffffffffffffffffffffffffffffffffffffffffff001690941790935560025492517f050f53fe000000000000000000000000000000000000000000000000000000008152909263050f53fe9261161f926004929091169088908301611f77565b600060405180830381600087803b15801561163957600080fd5b505af115801561164d573d6000803e3d6000fd5b505060405173ffffffffffffffffffffffffffffffffffffffff8087169350841691507fd6bbae6828feaab30ea370a21419ad38cea8e47e4d9b12dced9a0791a130bf8b90600090a3505050565b6060600480548060200260200160405190810160405280929190818152602001828054801561170057602002820191906000526020600020905b815473ffffffffffffffffffffffffffffffffffffffff1681526001909101906020018083116116d5575b5050505050905090565b606060038054806020026020016040519081016040528092919081815260200182805480156117005760200282019190600052602060002090815473ffffffffffffffffffffffffffffffffffffffff1681526001909101906020018083116116d5575050505050905090565b3360009081526020819052604090205460ff16806117ac575060025473ffffffffffffffffffffffffffffffffffffffff1633145b611812576040517f08c379a000000000000000000000000000000000000000000000000000000000815260206004820152600160248201527f31000000000000000000000000000000000000000000000000000000000000006044820152606401610286565b600280547fffffffffffffffffffffffff0000000000000000000000000000000000000000811690915573ffffffffffffffffffffffffffffffffffffffff1660005b6003548110156119135760038181548110611872576118726120ae565b6000918252602090912001546040517faf648c3d00000000000000000000000000000000000000000000000000000000815273ffffffffffffffffffffffffffffffffffffffff84811660048301529091169063af648c3d90602401600060405180830381600087803b1580156118e857600080fd5b505af11580156118fc573d6000803e3d6000fd5b50505050808061190b90612017565b915050611855565b5060405160009073ffffffffffffffffffffffffffffffffffffffff8316907f37e32bed1d2d58ea58967d6af777c41290d30558fdc37252b6c7a9bac2b579e5908390a350565b3360009081526020819052604090205460ff166119d3576040517f08c379a000000000000000000000000000000000000000000000000000000000815260206004820152600160248201527f31000000000000000000000000000000000000000000000000000000000000006044820152606401610286565b60045460018111611a40576040517f08c379a000000000000000000000000000000000000000000000000000000000815260206004820152600260248201527f34370000000000000000000000000000000000000000000000000000000000006044820152606401610286565b6000805b611a4f600184612000565b811015611b60578373ffffffffffffffffffffffffffffffffffffffff1660048281548110611a8057611a806120ae565b60009182526020909120015473ffffffffffffffffffffffffffffffffffffffff161415611b4e57600191506004611ab88385612000565b81548110611ac857611ac86120ae565b6000918252602090912001546004805473ffffffffffffffffffffffffffffffffffffffff9092169183908110611b0157611b016120ae565b9060005260206000200160006101000a81548173ffffffffffffffffffffffffffffffffffffffff021916908373ffffffffffffffffffffffffffffffffffffffff160217905550611b60565b80611b5881612017565b915050611a44565b508060011480611bc3575073ffffffffffffffffffffffffffffffffffffffff83166004611b8f600185612000565b81548110611b9f57611b9f6120ae565b60009182526020909120015473ffffffffffffffffffffffffffffffffffffffff16145b611c29576040517f08c379a000000000000000000000000000000000000000000000000000000000815260206004820152600260248201527f34380000000000000000000000000000000000000000000000000000000000006044820152606401610286565b6004805480611c3a57611c3a61207f565b6000828152602080822083017fffffffffffffffffffffffffffffffffffffffffffffffffffffffffffffffff90810180547fffffffffffffffffffffffff000000000000000000000000000000000000000016905590920190925573ffffffffffffffffffffffffffffffffffffffff851682528190526040812080547fffffffffffffffffffffffffffffffffffffffffffffffffffffffffffffff001690555b600354811015611d9b5760038181548110611cfa57611cfa6120ae565b6000918252602090912001546040517feecdac8800000000000000000000000000000000000000000000000000000000815273ffffffffffffffffffffffffffffffffffffffff86811660048301529091169063eecdac8890602401600060405180830381600087803b158015611d7057600080fd5b505af1158015611d84573d6000803e3d6000fd5b505050508080611d9390612017565b915050611cdd565b5060405173ffffffffffffffffffffffffffffffffffffffff8416907ff7a594030415b54bfad82c88c970190258667dc73b28e19d277dbd28291c9b7e90600090a2505050565b8051611ded8161210c565b919050565b600060208284031215611e0457600080fd5b8135611e0f8161210c565b9392505050565b600060208284031215611e2857600080fd5b8151611e0f8161210c565b60006020808385031215611e4657600080fd5b825167ffffffffffffffff80821115611e5e57600080fd5b818501915085601f830112611e7257600080fd5b815181811115611e8457611e846120dd565b8060051b6040517fffffffffffffffffffffffffffffffffffffffffffffffffffffffffffffffe0603f83011681018181108582111715611ec757611ec76120dd565b604052828152858101935084860182860187018a1015611ee657600080fd5b600095505b83861015611f1057611efc81611de2565b855260019590950194938601938601611eeb565b5098975050505050505050565b6020808252825182820181905260009190848201906040850190845b81811015611f6b57835173ffffffffffffffffffffffffffffffffffffffff1683529284019291840191600101611f39565b50909695505050505050565b6000606082016060835280865480835260808501915087600052602092508260002060005b82811015611fce57815473ffffffffffffffffffffffffffffffffffffffff1684529284019260019182019101611f9c565b50505073ffffffffffffffffffffffffffffffffffffffff958616918401919091529290931660409091015292915050565b60008282101561201257612012612050565b500390565b60007fffffffffffffffffffffffffffffffffffffffffffffffffffffffffffffffff82141561204957612049612050565b5060010190565b7f4e487b7100000000000000000000000000000000000000000000000000000000600052601160045260246000fd5b7f4e487b7100000000000000000000000000000000000000000000000000000000600052603160045260246000fd5b7f4e487b7100000000000000000000000000000000000000000000000000000000600052603260045260246000fd5b7f4e487b7100000000000000000000000000000000000000000000000000000000600052604160045260246000fd5b73ffffffffffffffffffffffffffffffffffffffff8116811461212e57600080fd5b5056fea2646970667358221220297d9422ed7f4a3ca5533c7c1d05ae6d459c03c7dff97d0b6f814f3036a8469964736f6c63430008070033",
  "linkReferences": {},
  "deployedLinkReferences": {}
}