{
  "_format": "hh-sol-artifact-1",
  "contractName": "MockChainlinkOracleNullRoundData",
  "sourceName": "contracts/mock/MockChainlinkOracleNullRoundData.sol",
  "abi": [
    {
      "inputs": [],
      "stateMutability": "nonpayable",
      "type": "constructor"
    },
    {
      "inputs": [],
      "name": "decimals",
      "outputs": [
        {
          "internalType": "uint8",
          "name": "",
          "type": "uint8"
        }
      ],
      "stateMutability": "view",
      "type": "function"
    },
    {
      "inputs": [],
      "name": "desc",
      "outputs": [
        {
          "internalType": "string",
          "name": "",
          "type": "string"
        }
      ],
      "stateMutability": "view",
      "type": "function"
    },
    {
      "inputs": [],
      "name": "description",
      "outputs": [
        {
          "internalType": "string",
          "name": "",
          "type": "string"
        }
      ],
      "stateMutability": "view",
      "type": "function"
    },
    {
      "inputs": [
        {
          "internalType": "uint256",
          "name": "",
          "type": "uint256"
        }
      ],
      "name": "entries",
      "outputs": [
        {
          "internalType": "uint80",
          "name": "roundId",
          "type": "uint80"
        },
        {
          "internalType": "int256",
          "name": "answer",
          "type": "int256"
        },
        {
          "internalType": "uint256",
          "name": "startedAt",
          "type": "uint256"
        },
        {
          "internalType": "uint256",
          "name": "updatedAt",
          "type": "uint256"
        },
        {
          "internalType": "uint80",
          "name": "answeredInRound",
          "type": "uint80"
        }
      ],
      "stateMutability": "view",
      "type": "function"
    },
    {
      "inputs": [
        {
          "internalType": "uint80",
          "name": "_roundId",
          "type": "uint80"
        }
      ],
      "name": "getRoundData",
      "outputs": [
        {
          "internalType": "uint80",
          "name": "",
          "type": "uint80"
        },
        {
          "internalType": "int256",
          "name": "",
          "type": "int256"
        },
        {
          "internalType": "uint256",
          "name": "",
          "type": "uint256"
        },
        {
          "internalType": "uint256",
          "name": "",
          "type": "uint256"
        },
        {
          "internalType": "uint80",
          "name": "",
          "type": "uint80"
        }
      ],
      "stateMutability": "view",
      "type": "function"
    },
    {
      "inputs": [],
      "name": "keyDecimals",
      "outputs": [
        {
          "internalType": "uint8",
          "name": "",
          "type": "uint8"
        }
      ],
      "stateMutability": "view",
      "type": "function"
    },
    {
      "inputs": [],
      "name": "latestRoundData",
      "outputs": [
        {
          "internalType": "uint80",
          "name": "",
          "type": "uint80"
        },
        {
          "internalType": "int256",
          "name": "",
          "type": "int256"
        },
        {
          "internalType": "uint256",
          "name": "",
          "type": "uint256"
        },
        {
          "internalType": "uint256",
          "name": "",
          "type": "uint256"
        },
        {
          "internalType": "uint80",
          "name": "",
          "type": "uint80"
        }
      ],
      "stateMutability": "view",
      "type": "function"
    },
    {
      "inputs": [],
      "name": "latestRoundDataShouldRevert",
      "outputs": [
        {
          "internalType": "bool",
          "name": "",
          "type": "bool"
        }
      ],
      "stateMutability": "view",
      "type": "function"
    },
    {
      "inputs": [],
      "name": "roundId",
      "outputs": [
        {
          "internalType": "uint80",
          "name": "",
          "type": "uint80"
        }
      ],
      "stateMutability": "view",
      "type": "function"
    },
    {
      "inputs": [
        {
          "internalType": "uint8",
          "name": "_decimals",
          "type": "uint8"
        }
      ],
      "name": "setDecimals",
      "outputs": [],
      "stateMutability": "nonpayable",
      "type": "function"
    },
    {
      "inputs": [
        {
          "internalType": "string",
          "name": "_desc",
          "type": "string"
        }
      ],
      "name": "setDescritpion",
      "outputs": [],
      "stateMutability": "nonpayable",
      "type": "function"
    },
    {
      "inputs": [
        {
          "internalType": "int256",
          "name": "answer",
          "type": "int256"
        },
        {
          "internalType": "uint256",
          "name": "timestamp",
          "type": "uint256"
        }
      ],
      "name": "setLatestAnswer",
      "outputs": [],
      "stateMutability": "nonpayable",
      "type": "function"
    },
    {
      "inputs": [
        {
          "internalType": "int256",
          "name": "answer",
          "type": "int256"
        },
        {
          "internalType": "uint256",
          "name": "timestamp",
          "type": "uint256"
        },
        {
          "internalType": "uint80",
          "name": "_roundId",
          "type": "uint80"
        }
      ],
      "name": "setLatestAnswerWithRound",
      "outputs": [],
      "stateMutability": "nonpayable",
      "type": "function"
    },
    {
      "inputs": [
        {
          "internalType": "bool",
          "name": "_shouldRevert",
          "type": "bool"
        }
      ],
      "name": "setLatestRoundDataShouldRevert",
      "outputs": [],
      "stateMutability": "nonpayable",
      "type": "function"
    },
    {
      "inputs": [],
      "name": "version",
      "outputs": [
        {
          "internalType": "uint256",
          "name": "",
          "type": "uint256"
        }
      ],
      "stateMutability": "view",
      "type": "function"
    }
  ],
  "bytecode": "0x6080604052600080546001600160581b031916905534801561002057600080fd5b50610ab0806100306000396000f3fe608060405234801561001057600080fd5b50600436106100f55760003560e01c80637a1395aa11610097578063b19cafe111610066578063b19cafe114610325578063b30906d414610364578063e9c58f85146103b0578063feaf968c146103c357600080fd5b80637a1395aa146101a35780637b28d483146101f35780638cd221c9146102aa5780639a6fc8f5146102db57600080fd5b806354fd4d50116100d357806354fd4d501461016257806355f150f11461017157806360d199d2146101865780637284e4161461019b57600080fd5b80632c746cae146100fa5780632f1b9a0c1461012c578063313ce56714610149575b600080fd5b600054610115906a0100000000000000000000900460ff1681565b60405160ff90911681526020015b60405180910390f35b6002546101399060ff1681565b6040519015158152602001610123565b6000546a0100000000000000000000900460ff16610115565b60405160008152602001610123565b6101796103ce565b6040516101239190610933565b61019961019436600461080d565b61045c565b005b610179610473565b6101996101b13660046108f5565b6000805460ff9092166a0100000000000000000000027fffffffffffffffffffffffffffffffffffffffffff00ffffffffffffffffffff909216919091179055565b6101996102013660046107d8565b600080547fffffffffffffffffffffffffffffffffffffffffffff0000000000000000000090811669ffffffffffffffffffff93841690811783556040805160a0810182528281526020808201988952818301888152606083019889526080830185815294875260019182905292909520905181548516908716178155965193870193909355915160028601559251600385015551600490930180549092169216919091179055565b6000546102c09069ffffffffffffffffffff1681565b60405169ffffffffffffffffffff9091168152602001610123565b6102ee6102e9366004610918565b610505565b6040805169ffffffffffffffffffff968716815260208101959095528401929092526060830152909116608082015260a001610123565b61019961033336600461078d565b600280547fffffffffffffffffffffffffffffffffffffffffffffffffffffffffffffff0016911515919091179055565b6102ee6103723660046108dc565b60016020819052600091825260409091208054918101546002820154600383015460049093015469ffffffffffffffffffff94851694929391921685565b6101996103be3660046107b6565b6105fc565b6000808080806102ee565b600380546103db906109a6565b80601f0160208091040260200160405190810160405280929190818152602001828054610407906109a6565b80156104545780601f1061042957610100808354040283529160200191610454565b820191906000526020600020905b81548152906001019060200180831161043757829003601f168201915b505050505081565b805161046f9060039060208401906106d5565b5050565b606060038054610482906109a6565b80601f01602080910402602001604051908101604052809291908181526020018280546104ae906109a6565b80156104fb5780601f106104d0576101008083540402835291602001916104fb565b820191906000526020600020905b8154815290600101906020018083116104de57829003601f168201915b5050505050905090565b69ffffffffffffffffffff8082166000908152600160208181526040808420815160a08101835281548716815293810154928401929092526002820154908301526003810154606083018190526004909101549093166080820152909182918291829182916105d4576040517f08c379a000000000000000000000000000000000000000000000000000000000815260206004820152600f60248201527f4e6f20646174612070726573656e740000000000000000000000000000000000604482015260640160405180910390fd5b8051602082015160408301516060840151608090940151929a91995097509195509350915050565b6000805469ffffffffffffffffffff169080610617836109fa565b82546101009290920a69ffffffffffffffffffff8181021990931691831602179091556040805160a0810182526000805484168083526020808401988952838501888152606085019889526080850183815292845260019182905294909220925183547fffffffffffffffffffffffffffffffffffffffffffff000000000000000000009081169187169190911784559751918301919091559151600282015593516003850155516004909301805490941692169190911790915550565b8280546106e1906109a6565b90600052602060002090601f0160209004810192826107035760008555610749565b82601f1061071c57805160ff1916838001178555610749565b82800160010185558215610749579182015b8281111561074957825182559160200191906001019061072e565b50610755929150610759565b5090565b5b80821115610755576000815560010161075a565b803569ffffffffffffffffffff8116811461078857600080fd5b919050565b60006020828403121561079f57600080fd5b813580151581146107af57600080fd5b9392505050565b600080604083850312156107c957600080fd5b50508035926020909101359150565b6000806000606084860312156107ed57600080fd5b83359250602084013591506108046040850161076e565b90509250925092565b60006020828403121561081f57600080fd5b813567ffffffffffffffff8082111561083757600080fd5b818401915084601f83011261084b57600080fd5b81358181111561085d5761085d610a4b565b604051601f82017fffffffffffffffffffffffffffffffffffffffffffffffffffffffffffffffe0908116603f011681019083821181831017156108a3576108a3610a4b565b816040528281528760208487010111156108bc57600080fd5b826020860160208301376000928101602001929092525095945050505050565b6000602082840312156108ee57600080fd5b5035919050565b60006020828403121561090757600080fd5b813560ff811681146107af57600080fd5b60006020828403121561092a57600080fd5b6107af8261076e565b600060208083528351808285015260005b8181101561096057858101830151858201604001528201610944565b81811115610972576000604083870101525b50601f017fffffffffffffffffffffffffffffffffffffffffffffffffffffffffffffffe016929092016040019392505050565b600181811c908216806109ba57607f821691505b602082108114156109f4577f4e487b7100000000000000000000000000000000000000000000000000000000600052602260045260246000fd5b50919050565b600069ffffffffffffffffffff80831681811415610a41577f4e487b7100000000000000000000000000000000000000000000000000000000600052601160045260246000fd5b6001019392505050565b7f4e487b7100000000000000000000000000000000000000000000000000000000600052604160045260246000fdfea26469706673582212205aa955e86674b808a91201460b93894a481208af2c1fbe6b5fee8ff87fee204564736f6c63430008070033",
  "linkReferences": {},
  "deployedLinkReferences": {}
}