{
  "_format": "hh-sol-artifact-1",
  "contractName": "MockComptroller",
  "sourceName": "contracts/mock/MockComptroller.sol",
  "abi": [
    {
      "inputs": [
        {
          "internalType": "uint256",
          "name": "_price",
          "type": "uint256"
        }
      ],
      "stateMutability": "nonpayable",
      "type": "constructor"
    },
    {
      "inputs": [
        {
          "internalType": "address[]",
          "name": "",
          "type": "address[]"
        },
        {
          "internalType": "contract CTokenI[]",
          "name": "",
          "type": "address[]"
        },
        {
          "internalType": "bool",
          "name": "",
          "type": "bool"
        },
        {
          "internalType": "bool",
          "name": "",
          "type": "bool"
        }
      ],
      "name": "claimComp",
      "outputs": [],
      "stateMutability": "nonpayable",
      "type": "function"
    },
    {
      "inputs": [
        {
          "internalType": "address",
          "name": "",
          "type": "address"
        }
      ],
      "name": "compSupplySpeeds",
      "outputs": [
        {
          "internalType": "uint256",
          "name": "",
          "type": "uint256"
        }
      ],
      "stateMutability": "view",
      "type": "function"
    },
    {
      "inputs": [],
      "name": "price",
      "outputs": [
        {
          "internalType": "uint256",
          "name": "",
          "type": "uint256"
        }
      ],
      "stateMutability": "view",
      "type": "function"
    },
    {
      "inputs": [
        {
          "internalType": "uint256",
          "name": "_price",
          "type": "uint256"
        }
      ],
      "name": "setPrice",
      "outputs": [],
      "stateMutability": "nonpayable",
      "type": "function"
    }
  ],
  "bytecode": "0x608060405234801561001057600080fd5b506040516103bd3803806103bd83398101604081905261002f91610037565b600055610050565b60006020828403121561004957600080fd5b5051919050565b61035e8061005f6000396000f3fe608060405234801561001057600080fd5b506004361061004c5760003560e01c80636810dfa6146100515780636aa875b51461006757806391b7f5ed1461008e578063a035b1fe146100a1575b600080fd5b61006561005f36600461015e565b50505050565b005b61007c61007536600461013a565b5060005490565b60405190815260200160405180910390f35b61006561009c366004610248565b600055565b61007c60005481565b600082601f8301126100bb57600080fd5b813560206100d06100cb836102b0565b610261565b80838252828201915082860187848660051b89010111156100f057600080fd5b60005b8581101561011857813561010681610303565b845292840192908401906001016100f3565b5090979650505050505050565b8035801515811461013557600080fd5b919050565b60006020828403121561014c57600080fd5b813561015781610303565b9392505050565b6000806000806080858703121561017457600080fd5b843567ffffffffffffffff8082111561018c57600080fd5b818701915087601f8301126101a057600080fd5b813560206101b06100cb836102b0565b8083825282820191508286018c848660051b89010111156101d057600080fd5b600096505b848710156101fc5780356101e881610303565b8352600196909601959183019183016101d5565b509850508801359250508082111561021357600080fd5b50610220878288016100aa565b93505061022f60408601610125565b915061023d60608601610125565b905092959194509250565b60006020828403121561025a57600080fd5b5035919050565b604051601f82017fffffffffffffffffffffffffffffffffffffffffffffffffffffffffffffffe016810167ffffffffffffffff811182821017156102a8576102a86102d4565b604052919050565b600067ffffffffffffffff8211156102ca576102ca6102d4565b5060051b60200190565b7f4e487b7100000000000000000000000000000000000000000000000000000000600052604160045260246000fd5b73ffffffffffffffffffffffffffffffffffffffff8116811461032557600080fd5b5056fea2646970667358221220af3c0447beac75ddd3f7057c411824ce1a243222dea442241909043d0e34146e64736f6c63430008070033",
  "linkReferences": {},
  "deployedLinkReferences": {}
}