{
  "_format": "hh-sol-artifact-1",
  "contractName": "MockUniswapV2Router",
  "sourceName": "contracts/mock/MockUniswapV2Router.sol",
  "abi": [
    {
      "inputs": [
        {
          "internalType": "uint256",
          "name": "_price",
          "type": "uint256"
        }
      ],
      "stateMutability": "nonpayable",
      "type": "constructor"
    },
    {
      "inputs": [
        {
          "internalType": "uint256",
          "name": "amountIn",
          "type": "uint256"
        },
        {
          "internalType": "address[]",
          "name": "",
          "type": "address[]"
        }
      ],
      "name": "getAmountsOut",
      "outputs": [
        {
          "internalType": "uint256[]",
          "name": "",
          "type": "uint256[]"
        }
      ],
      "stateMutability": "view",
      "type": "function"
    },
    {
      "inputs": [],
      "name": "price",
      "outputs": [
        {
          "internalType": "uint256",
          "name": "",
          "type": "uint256"
        }
      ],
      "stateMutability": "view",
      "type": "function"
    },
    {
      "inputs": [
        {
          "internalType": "uint256",
          "name": "_price",
          "type": "uint256"
        }
      ],
      "name": "setPrice",
      "outputs": [],
      "stateMutability": "nonpayable",
      "type": "function"
    },
    {
      "inputs": [
        {
          "internalType": "uint256",
          "name": "swapAmount",
          "type": "uint256"
        },
        {
          "internalType": "uint256",
          "name": "minAmount",
          "type": "uint256"
        },
        {
          "internalType": "address[]",
          "name": "path",
          "type": "address[]"
        },
        {
          "internalType": "address",
          "name": "",
          "type": "address"
        },
        {
          "internalType": "uint256",
          "name": "",
          "type": "uint256"
        }
      ],
      "name": "swapExactTokensForTokens",
      "outputs": [],
      "stateMutability": "nonpayable",
      "type": "function"
    }
  ],
  "bytecode": "0x608060405234801561001057600080fd5b50604051610a1f380380610a1f83398101604081905261002f91610037565b600055610050565b60006020828403121561004957600080fd5b5051919050565b6109c08061005f6000396000f3fe608060405234801561001057600080fd5b506004361061004c5760003560e01c806338ed17391461005157806391b7f5ed14610066578063a035b1fe14610079578063d06ca61f14610095575b600080fd5b61006461005f36600461078b565b6100b5565b005b610064610074366004610726565b600055565b61008260005481565b6040519081526020015b60405180910390f35b6100a86100a336600461073f565b6101e5565b60405161008c9190610817565b610101333088878760008181106100ce576100ce61095b565b90506020020160208101906100e391906106e9565b73ffffffffffffffffffffffffffffffffffffffff16929190610241565b846000548761011091906108ac565b101561017d576040517f08c379a000000000000000000000000000000000000000000000000000000000815260206004820152600260248201527f313500000000000000000000000000000000000000000000000000000000000060448201526064015b60405180910390fd5b6101dd336000548861018f91906108ac565b868661019c6001826108e9565b8181106101ab576101ab61095b565b90506020020160208101906101c091906106e9565b73ffffffffffffffffffffffffffffffffffffffff169190610323565b505050505050565b60408051600180825281830190925260609160009190602080830190803683370190505090508460005461021991906108ac565b8160008151811061022c5761022c61095b565b602090810291909101015290505b9392505050565b60405173ffffffffffffffffffffffffffffffffffffffff8085166024830152831660448201526064810182905261031d9085907f23b872dd00000000000000000000000000000000000000000000000000000000906084015b604080517fffffffffffffffffffffffffffffffffffffffffffffffffffffffffffffffe08184030181529190526020810180517bffffffffffffffffffffffffffffffffffffffffffffffffffffffff167fffffffff000000000000000000000000000000000000000000000000000000009093169290921790915261037e565b50505050565b60405173ffffffffffffffffffffffffffffffffffffffff83166024820152604481018290526103799084907fa9059cbb000000000000000000000000000000000000000000000000000000009060640161029b565b505050565b60006103e0826040518060400160405280602081526020017f5361666545524332303a206c6f772d6c6576656c2063616c6c206661696c65648152508573ffffffffffffffffffffffffffffffffffffffff1661048a9092919063ffffffff16565b80519091501561037957808060200190518101906103fe9190610704565b610379576040517f08c379a000000000000000000000000000000000000000000000000000000000815260206004820152602a60248201527f5361666545524332303a204552433230206f7065726174696f6e20646964206e60448201527f6f742073756363656564000000000000000000000000000000000000000000006064820152608401610174565b606061049984846000856104a1565b949350505050565b606082471015610533576040517f08c379a000000000000000000000000000000000000000000000000000000000815260206004820152602660248201527f416464726573733a20696e73756666696369656e742062616c616e636520666f60448201527f722063616c6c00000000000000000000000000000000000000000000000000006064820152608401610174565b843b61059b576040517f08c379a000000000000000000000000000000000000000000000000000000000815260206004820152601d60248201527f416464726573733a2063616c6c20746f206e6f6e2d636f6e74726163740000006044820152606401610174565b6000808673ffffffffffffffffffffffffffffffffffffffff1685876040516105c491906107fb565b60006040518083038185875af1925050503d8060008114610601576040519150601f19603f3d011682016040523d82523d6000602084013e610606565b606091505b5091509150610616828286610621565b979650505050505050565b6060831561063057508161023a565b8251156106405782518084602001fd5b816040517f08c379a0000000000000000000000000000000000000000000000000000000008152600401610174919061085b565b803573ffffffffffffffffffffffffffffffffffffffff8116811461069857600080fd5b919050565b60008083601f8401126106af57600080fd5b50813567ffffffffffffffff8111156106c757600080fd5b6020830191508360208260051b85010111156106e257600080fd5b9250929050565b6000602082840312156106fb57600080fd5b61023a82610674565b60006020828403121561071657600080fd5b8151801515811461023a57600080fd5b60006020828403121561073857600080fd5b5035919050565b60008060006040848603121561075457600080fd5b83359250602084013567ffffffffffffffff81111561077257600080fd5b61077e8682870161069d565b9497909650939450505050565b60008060008060008060a087890312156107a457600080fd5b8635955060208701359450604087013567ffffffffffffffff8111156107c957600080fd5b6107d589828a0161069d565b90955093506107e8905060608801610674565b9150608087013590509295509295509295565b6000825161080d818460208701610900565b9190910192915050565b6020808252825182820181905260009190848201906040850190845b8181101561084f57835183529284019291840191600101610833565b50909695505050505050565b602081526000825180602084015261087a816040850160208701610900565b601f017fffffffffffffffffffffffffffffffffffffffffffffffffffffffffffffffe0169190910160400192915050565b6000817fffffffffffffffffffffffffffffffffffffffffffffffffffffffffffffffff04831182151516156108e4576108e461092c565b500290565b6000828210156108fb576108fb61092c565b500390565b60005b8381101561091b578181015183820152602001610903565b8381111561031d5750506000910152565b7f4e487b7100000000000000000000000000000000000000000000000000000000600052601160045260246000fd5b7f4e487b7100000000000000000000000000000000000000000000000000000000600052603260045260246000fdfea2646970667358221220454c1546678636daedcf62d081a0bf7ec8e2e35217e7955482b66eead3d0045a64736f6c63430008070033",
  "linkReferences": {},
  "deployedLinkReferences": {}
}