{
  "_format": "hh-sol-artifact-1",
  "contractName": "PausableMapUpgradeableWrapper",
  "sourceName": "contracts/sigp/PausableMapUpgradeableWrapper.sol",
  "abi": [
    {
      "anonymous": false,
      "inputs": [
        {
          "indexed": false,
          "internalType": "bytes32",
          "name": "name",
          "type": "bytes32"
        }
      ],
      "name": "Paused",
      "type": "event"
    },
    {
      "anonymous": false,
      "inputs": [
        {
          "indexed": false,
          "internalType": "bytes32",
          "name": "name",
          "type": "bytes32"
        }
      ],
      "name": "Unpaused",
      "type": "event"
    },
    {
      "inputs": [
        {
          "internalType": "bytes32",
          "name": "name",
          "type": "bytes32"
        }
      ],
      "name": "pause",
      "outputs": [],
      "stateMutability": "nonpayable",
      "type": "function"
    },
    {
      "inputs": [
        {
          "internalType": "bytes32",
          "name": "",
          "type": "bytes32"
        }
      ],
      "name": "paused",
      "outputs": [
        {
          "internalType": "bool",
          "name": "",
          "type": "bool"
        }
      ],
      "stateMutability": "view",
      "type": "function"
    },
    {
      "inputs": [
        {
          "internalType": "bytes32",
          "name": "name",
          "type": "bytes32"
        }
      ],
      "name": "unpause",
      "outputs": [],
      "stateMutability": "nonpayable",
      "type": "function"
    }
  ],
  "bytecode": "0x608060405234801561001057600080fd5b506102d2806100206000396000f3fe608060405234801561001057600080fd5b50600436106100415760003560e01c80632f4dae9f146100465780639e9e46661461005b578063ed56531a14610092575b600080fd5b610059610054366004610283565b6100a5565b005b61007e610069366004610283565b60006020819052908152604090205460ff1681565b604051901515815260200160405180910390f35b6100596100a0366004610283565b6100b1565b6100ae816100ba565b50565b6100ae816101a1565b60008181526020819052604090205460ff16610137576040517f08c379a000000000000000000000000000000000000000000000000000000000815260206004820152600260248201527f313900000000000000000000000000000000000000000000000000000000000060448201526064015b60405180910390fd5b6000818152602081815260409182902080547fffffffffffffffffffffffffffffffffffffffffffffffffffffffffffffff0016905590518281527fd05bfc2250abb0f8fd265a54c53a24359c5484af63cad2e4ce87c78ab751395a91015b60405180910390a150565b60008181526020819052604090205460ff161561021a576040517f08c379a000000000000000000000000000000000000000000000000000000000815260206004820152600260248201527f3138000000000000000000000000000000000000000000000000000000000000604482015260640161012e565b6000818152602081905260409081902080547fffffffffffffffffffffffffffffffffffffffffffffffffffffffffffffff00166001179055517f0cb09dc71d57eeec2046f6854976717e4874a3cf2d6ddeddde337e5b6de6ba31906101969083815260200190565b60006020828403121561029557600080fd5b503591905056fea2646970667358221220fab0435feba71861a6b6fb053676fcc78749ed79fb752663f4f09fccafe51c0364736f6c63430008070033",
  "linkReferences": {},
  "deployedLinkReferences": {}
}