{
  "_format": "hh-sol-artifact-1",
  "contractName": "SanToken",
  "sourceName": "contracts/sanToken/SanToken.sol",
  "abi": [
    {
      "anonymous": false,
      "inputs": [
        {
          "indexed": true,
          "internalType": "address",
          "name": "owner",
          "type": "address"
        },
        {
          "indexed": true,
          "internalType": "address",
          "name": "spender",
          "type": "address"
        },
        {
          "indexed": false,
          "internalType": "uint256",
          "name": "value",
          "type": "uint256"
        }
      ],
      "name": "Approval",
      "type": "event"
    },
    {
      "anonymous": false,
      "inputs": [
        {
          "indexed": true,
          "internalType": "address",
          "name": "from",
          "type": "address"
        },
        {
          "indexed": true,
          "internalType": "address",
          "name": "to",
          "type": "address"
        },
        {
          "indexed": false,
          "internalType": "uint256",
          "name": "value",
          "type": "uint256"
        }
      ],
      "name": "Transfer",
      "type": "event"
    },
    {
      "inputs": [],
      "name": "DOMAIN_SEPARATOR",
      "outputs": [
        {
          "internalType": "bytes32",
          "name": "",
          "type": "bytes32"
        }
      ],
      "stateMutability": "view",
      "type": "function"
    },
    {
      "inputs": [
        {
          "internalType": "address",
          "name": "owner",
          "type": "address"
        },
        {
          "internalType": "address",
          "name": "spender",
          "type": "address"
        }
      ],
      "name": "allowance",
      "outputs": [
        {
          "internalType": "uint256",
          "name": "",
          "type": "uint256"
        }
      ],
      "stateMutability": "view",
      "type": "function"
    },
    {
      "inputs": [
        {
          "internalType": "address",
          "name": "spender",
          "type": "address"
        },
        {
          "internalType": "uint256",
          "name": "amount",
          "type": "uint256"
        }
      ],
      "name": "approve",
      "outputs": [
        {
          "internalType": "bool",
          "name": "",
          "type": "bool"
        }
      ],
      "stateMutability": "nonpayable",
      "type": "function"
    },
    {
      "inputs": [
        {
          "internalType": "address",
          "name": "account",
          "type": "address"
        }
      ],
      "name": "balanceOf",
      "outputs": [
        {
          "internalType": "uint256",
          "name": "",
          "type": "uint256"
        }
      ],
      "stateMutability": "view",
      "type": "function"
    },
    {
      "inputs": [
        {
          "internalType": "uint256",
          "name": "amount",
          "type": "uint256"
        },
        {
          "internalType": "address",
          "name": "burner",
          "type": "address"
        },
        {
          "internalType": "address",
          "name": "sender",
          "type": "address"
        }
      ],
      "name": "burnFrom",
      "outputs": [],
      "stateMutability": "nonpayable",
      "type": "function"
    },
    {
      "inputs": [
        {
          "internalType": "uint256",
          "name": "amount",
          "type": "uint256"
        }
      ],
      "name": "burnNoRedeem",
      "outputs": [],
      "stateMutability": "nonpayable",
      "type": "function"
    },
    {
      "inputs": [
        {
          "internalType": "uint256",
          "name": "amount",
          "type": "uint256"
        },
        {
          "internalType": "address",
          "name": "burner",
          "type": "address"
        }
      ],
      "name": "burnSelf",
      "outputs": [],
      "stateMutability": "nonpayable",
      "type": "function"
    },
    {
      "inputs": [],
      "name": "decimal",
      "outputs": [
        {
          "internalType": "uint8",
          "name": "",
          "type": "uint8"
        }
      ],
      "stateMutability": "view",
      "type": "function"
    },
    {
      "inputs": [],
      "name": "decimals",
      "outputs": [
        {
          "internalType": "uint8",
          "name": "",
          "type": "uint8"
        }
      ],
      "stateMutability": "view",
      "type": "function"
    },
    {
      "inputs": [
        {
          "internalType": "address",
          "name": "spender",
          "type": "address"
        },
        {
          "internalType": "uint256",
          "name": "subtractedValue",
          "type": "uint256"
        }
      ],
      "name": "decreaseAllowance",
      "outputs": [
        {
          "internalType": "bool",
          "name": "",
          "type": "bool"
        }
      ],
      "stateMutability": "nonpayable",
      "type": "function"
    },
    {
      "inputs": [
        {
          "internalType": "address",
          "name": "spender",
          "type": "address"
        },
        {
          "internalType": "uint256",
          "name": "addedValue",
          "type": "uint256"
        }
      ],
      "name": "increaseAllowance",
      "outputs": [
        {
          "internalType": "bool",
          "name": "",
          "type": "bool"
        }
      ],
      "stateMutability": "nonpayable",
      "type": "function"
    },
    {
      "inputs": [
        {
          "internalType": "string",
          "name": "name_",
          "type": "string"
        },
        {
          "internalType": "string",
          "name": "symbol_",
          "type": "string"
        },
        {
          "internalType": "address",
          "name": "_poolManager",
          "type": "address"
        }
      ],
      "name": "initialize",
      "outputs": [],
      "stateMutability": "nonpayable",
      "type": "function"
    },
    {
      "inputs": [
        {
          "internalType": "address",
          "name": "account",
          "type": "address"
        },
        {
          "internalType": "uint256",
          "name": "amount",
          "type": "uint256"
        }
      ],
      "name": "mint",
      "outputs": [],
      "stateMutability": "nonpayable",
      "type": "function"
    },
    {
      "inputs": [],
      "name": "name",
      "outputs": [
        {
          "internalType": "string",
          "name": "",
          "type": "string"
        }
      ],
      "stateMutability": "view",
      "type": "function"
    },
    {
      "inputs": [
        {
          "internalType": "address",
          "name": "owner",
          "type": "address"
        }
      ],
      "name": "nonces",
      "outputs": [
        {
          "internalType": "uint256",
          "name": "",
          "type": "uint256"
        }
      ],
      "stateMutability": "view",
      "type": "function"
    },
    {
      "inputs": [
        {
          "internalType": "address",
          "name": "owner",
          "type": "address"
        },
        {
          "internalType": "address",
          "name": "spender",
          "type": "address"
        },
        {
          "internalType": "uint256",
          "name": "value",
          "type": "uint256"
        },
        {
          "internalType": "uint256",
          "name": "deadline",
          "type": "uint256"
        },
        {
          "internalType": "uint8",
          "name": "v",
          "type": "uint8"
        },
        {
          "internalType": "bytes32",
          "name": "r",
          "type": "bytes32"
        },
        {
          "internalType": "bytes32",
          "name": "s",
          "type": "bytes32"
        }
      ],
      "name": "permit",
      "outputs": [],
      "stateMutability": "nonpayable",
      "type": "function"
    },
    {
      "inputs": [],
      "name": "poolManager",
      "outputs": [
        {
          "internalType": "address",
          "name": "",
          "type": "address"
        }
      ],
      "stateMutability": "view",
      "type": "function"
    },
    {
      "inputs": [],
      "name": "stableMaster",
      "outputs": [
        {
          "internalType": "address",
          "name": "",
          "type": "address"
        }
      ],
      "stateMutability": "view",
      "type": "function"
    },
    {
      "inputs": [],
      "name": "symbol",
      "outputs": [
        {
          "internalType": "string",
          "name": "",
          "type": "string"
        }
      ],
      "stateMutability": "view",
      "type": "function"
    },
    {
      "inputs": [],
      "name": "totalSupply",
      "outputs": [
        {
          "internalType": "uint256",
          "name": "",
          "type": "uint256"
        }
      ],
      "stateMutability": "view",
      "type": "function"
    },
    {
      "inputs": [
        {
          "internalType": "address",
          "name": "recipient",
          "type": "address"
        },
        {
          "internalType": "uint256",
          "name": "amount",
          "type": "uint256"
        }
      ],
      "name": "transfer",
      "outputs": [
        {
          "internalType": "bool",
          "name": "",
          "type": "bool"
        }
      ],
      "stateMutability": "nonpayable",
      "type": "function"
    },
    {
      "inputs": [
        {
          "internalType": "address",
          "name": "sender",
          "type": "address"
        },
        {
          "internalType": "address",
          "name": "recipient",
          "type": "address"
        },
        {
          "internalType": "uint256",
          "name": "amount",
          "type": "uint256"
        }
      ],
      "name": "transferFrom",
      "outputs": [
        {
          "internalType": "bool",
          "name": "",
          "type": "bool"
        }
      ],
      "stateMutability": "nonpayable",
      "type": "function"
    }
  ],
  "bytecode": "0x608060405234801561001057600080fd5b5061275c806100206000396000f3fe608060405234801561001057600080fd5b50600436106101825760003560e01c80634d92b94b116100d857806395d89b411161008c578063d505accf11610066578063d505accf14610350578063dc4c90d314610363578063dd62ed3e1461038357600080fd5b806395d89b4114610322578063a457c2d71461032a578063a9059cbb1461033d57600080fd5b806370a08231116100bd57806370a08231146102cc57806376809ce3146103025780637ecebe001461030f57600080fd5b80634d92b94b1461026f5780636ac5dc461461028257600080fd5b80632b471d8e1161013a5780633644e515116101145780633644e51514610241578063395093511461024957806340c10f191461025c57600080fd5b80632b471d8e14610202578063313ce56714610215578063350ebe041461022e57600080fd5b8063095ea7b31161016b578063095ea7b3146101ba57806318160ddd146101dd57806323b872dd146101ef57600080fd5b806306fdde0314610187578063077f224a146101a5575b600080fd5b61018f6103c9565b60405161019c9190612578565b60405180910390f35b6101b86101b336600461246e565b61045b565b005b6101cd6101c8366004612442565b6107d8565b604051901515815260200161019c565b6035545b60405190815260200161019c565b6101cd6101fd366004612390565b6107ee565b6101b86102103660046124ff565b6108d4565b60cc5460ff165b60405160ff909116815260200161019c565b6101b861023c366004612524565b610968565b6101e1610aa9565b6101cd610257366004612442565b610ab8565b6101b861026a366004612442565b610afc565b6101b861027d3660046124e6565b610b8c565b60cc546102a790610100900473ffffffffffffffffffffffffffffffffffffffff1681565b60405173ffffffffffffffffffffffffffffffffffffffff909116815260200161019c565b6101e16102da366004612316565b73ffffffffffffffffffffffffffffffffffffffff1660009081526033602052604090205490565b60cc5461021c9060ff1681565b6101e161031d366004612316565b610b99565b61018f610bc6565b6101cd610338366004612442565b610bd5565b6101cd61034b366004612442565b610cad565b6101b861035e3660046123d1565b610cba565b60cd546102a79073ffffffffffffffffffffffffffffffffffffffff1681565b6101e1610391366004612357565b73ffffffffffffffffffffffffffffffffffffffff918216600090815260346020908152604080832093909416825291909152205490565b6060603680546103d89061261a565b80601f01602080910402602001604051908101604052809291908181526020018280546104049061261a565b80156104515780601f1061042657610100808354040283529160200191610451565b820191906000526020600020905b81548152906001019060200180831161043457829003601f168201915b5050505050905090565b600054610100900460ff1680610474575060005460ff16155b610505576040517f08c379a000000000000000000000000000000000000000000000000000000000815260206004820152602e60248201527f496e697469616c697a61626c653a20636f6e747261637420697320616c72656160448201527f647920696e697469616c697a656400000000000000000000000000000000000060648201526084015b60405180910390fd5b600054610100900460ff1615801561054457600080547fffffffffffffffffffffffffffffffffffffffffffffffffffffffffffff0000166101011790555b61054d84610e5b565b6105578484610fc1565b60cd80547fffffffffffffffffffffffff00000000000000000000000000000000000000001673ffffffffffffffffffffffffffffffffffffffff8416908117909155604080517f6ac5dc460000000000000000000000000000000000000000000000000000000081529051636ac5dc4691600480820192602092909190829003018186803b1580156105e957600080fd5b505afa1580156105fd573d6000803e3d6000fd5b505050506040513d601f19601f82011682018060405250810190610621919061233a565b60cc80547fffffffffffffffffffffff0000000000000000000000000000000000000000ff1661010073ffffffffffffffffffffffffffffffffffffffff9384160217905560cd54604080517ffc0c546a0000000000000000000000000000000000000000000000000000000081529051919092169163fc0c546a916004808301926020929190829003018186803b1580156106bc57600080fd5b505afa1580156106d0573d6000803e3d6000fd5b505050506040513d601f19601f820116820180604052508101906106f4919061233a565b73ffffffffffffffffffffffffffffffffffffffff1663313ce5676040518163ffffffff1660e01b815260040160206040518083038186803b15801561073957600080fd5b505afa15801561074d573d6000803e3d6000fd5b505050506040513d601f19601f82011682018060405250810190610771919061255b565b60cc80547fffffffffffffffffffffffffffffffffffffffffffffffffffffffffffffff001660ff9290921691909117905580156107d257600080547fffffffffffffffffffffffffffffffffffffffffffffffffffffffffffff00ff1690555b50505050565b60006107e53384846110eb565b50600192915050565b60006107fb84848461129e565b73ffffffffffffffffffffffffffffffffffffffff84166000908152603460209081526040808320338452909152902054828110156108bc576040517f08c379a000000000000000000000000000000000000000000000000000000000815260206004820152602860248201527f45524332303a207472616e7366657220616d6f756e742065786365656473206160448201527f6c6c6f77616e636500000000000000000000000000000000000000000000000060648201526084016104fc565b6108c985338584036110eb565b506001949350505050565b60cc54610100900473ffffffffffffffffffffffffffffffffffffffff16331461095a576040517f08c379a000000000000000000000000000000000000000000000000000000000815260206004820152600160248201527f310000000000000000000000000000000000000000000000000000000000000060448201526064016104fc565b6109648183611551565b5050565b60cc54610100900473ffffffffffffffffffffffffffffffffffffffff1633146109ee576040517f08c379a000000000000000000000000000000000000000000000000000000000815260206004820152600160248201527f310000000000000000000000000000000000000000000000000000000000000060448201526064016104fc565b73ffffffffffffffffffffffffffffffffffffffff82811660009081526034602090815260408083209385168352929052205483811015610a8b576040517f08c379a000000000000000000000000000000000000000000000000000000000815260206004820152600260248201527f323300000000000000000000000000000000000000000000000000000000000060448201526064016104fc565b610a9f8383610a9a8785612603565b6110eb565b6107d28385611551565b6000610ab361173e565b905090565b33600081815260346020908152604080832073ffffffffffffffffffffffffffffffffffffffff8716845290915281205490916107e5918590610a9a9086906125eb565b60cc54610100900473ffffffffffffffffffffffffffffffffffffffff163314610b82576040517f08c379a000000000000000000000000000000000000000000000000000000000815260206004820152600160248201527f310000000000000000000000000000000000000000000000000000000000000060448201526064016104fc565b61096482826117b9565b610b963382611551565b50565b73ffffffffffffffffffffffffffffffffffffffff81166000908152609960205260408120545b92915050565b6060603780546103d89061261a565b33600090815260346020908152604080832073ffffffffffffffffffffffffffffffffffffffff8616845290915281205482811015610c96576040517f08c379a000000000000000000000000000000000000000000000000000000000815260206004820152602560248201527f45524332303a2064656372656173656420616c6c6f77616e63652062656c6f7760448201527f207a65726f00000000000000000000000000000000000000000000000000000060648201526084016104fc565b610ca333858584036110eb565b5060019392505050565b60006107e533848461129e565b83421115610d24576040517f08c379a000000000000000000000000000000000000000000000000000000000815260206004820152601d60248201527f45524332305065726d69743a206578706972656420646561646c696e6500000060448201526064016104fc565b6000609a54888888610d358c6118d9565b60408051602081019690965273ffffffffffffffffffffffffffffffffffffffff94851690860152929091166060840152608083015260a082015260c0810186905260e0016040516020818303038152906040528051906020012090506000610d9d8261190e565b90506000610dad82878787611977565b90508973ffffffffffffffffffffffffffffffffffffffff168173ffffffffffffffffffffffffffffffffffffffff1614610e44576040517f08c379a000000000000000000000000000000000000000000000000000000000815260206004820152601e60248201527f45524332305065726d69743a20696e76616c6964207369676e6174757265000060448201526064016104fc565b610e4f8a8a8a6110eb565b50505050505050505050565b600054610100900460ff1680610e74575060005460ff16155b610f00576040517f08c379a000000000000000000000000000000000000000000000000000000000815260206004820152602e60248201527f496e697469616c697a61626c653a20636f6e747261637420697320616c72656160448201527f647920696e697469616c697a656400000000000000000000000000000000000060648201526084016104fc565b600054610100900460ff16158015610f3f57600080547fffffffffffffffffffffffffffffffffffffffffffffffffffffffffffff0000166101011790555b610f4761199f565b610f86826040518060400160405280600181526020017f3100000000000000000000000000000000000000000000000000000000000000815250611ab4565b610f8f82611be8565b801561096457600080547fffffffffffffffffffffffffffffffffffffffffffffffffffffffffffff00ff1690555050565b600054610100900460ff1680610fda575060005460ff16155b611066576040517f08c379a000000000000000000000000000000000000000000000000000000000815260206004820152602e60248201527f496e697469616c697a61626c653a20636f6e747261637420697320616c72656160448201527f647920696e697469616c697a656400000000000000000000000000000000000060648201526084016104fc565b600054610100900460ff161580156110a557600080547fffffffffffffffffffffffffffffffffffffffffffffffffffffffffffff0000166101011790555b6110ad61199f565b6110b78383611d22565b80156110e657600080547fffffffffffffffffffffffffffffffffffffffffffffffffffffffffffff00ff1690555b505050565b73ffffffffffffffffffffffffffffffffffffffff831661118d576040517f08c379a0000000000000000000000000000000000000000000000000000000008152602060048201526024808201527f45524332303a20617070726f76652066726f6d20746865207a65726f2061646460448201527f726573730000000000000000000000000000000000000000000000000000000060648201526084016104fc565b73ffffffffffffffffffffffffffffffffffffffff8216611230576040517f08c379a000000000000000000000000000000000000000000000000000000000815260206004820152602260248201527f45524332303a20617070726f766520746f20746865207a65726f20616464726560448201527f737300000000000000000000000000000000000000000000000000000000000060648201526084016104fc565b73ffffffffffffffffffffffffffffffffffffffff83811660008181526034602090815260408083209487168084529482529182902085905590518481527f8c5be1e5ebec7d5bd14f71427d1e84f3dd0314c0f7b2291e5b200ac8c7c3b925910160405180910390a3505050565b73ffffffffffffffffffffffffffffffffffffffff8316611341576040517f08c379a000000000000000000000000000000000000000000000000000000000815260206004820152602560248201527f45524332303a207472616e736665722066726f6d20746865207a65726f20616460448201527f647265737300000000000000000000000000000000000000000000000000000060648201526084016104fc565b73ffffffffffffffffffffffffffffffffffffffff82166113e4576040517f08c379a000000000000000000000000000000000000000000000000000000000815260206004820152602360248201527f45524332303a207472616e7366657220746f20746865207a65726f206164647260448201527f657373000000000000000000000000000000000000000000000000000000000060648201526084016104fc565b73ffffffffffffffffffffffffffffffffffffffff83166000908152603360205260409020548181101561149a576040517f08c379a000000000000000000000000000000000000000000000000000000000815260206004820152602660248201527f45524332303a207472616e7366657220616d6f756e742065786365656473206260448201527f616c616e6365000000000000000000000000000000000000000000000000000060648201526084016104fc565b73ffffffffffffffffffffffffffffffffffffffff8085166000908152603360205260408082208585039055918516815290812080548492906114de9084906125eb565b925050819055508273ffffffffffffffffffffffffffffffffffffffff168473ffffffffffffffffffffffffffffffffffffffff167fddf252ad1be2c89b69c2b068fc378daa952ba7f163c4a11628f55a4df523b3ef8460405161154491815260200190565b60405180910390a36107d2565b73ffffffffffffffffffffffffffffffffffffffff82166115f4576040517f08c379a000000000000000000000000000000000000000000000000000000000815260206004820152602160248201527f45524332303a206275726e2066726f6d20746865207a65726f2061646472657360448201527f730000000000000000000000000000000000000000000000000000000000000060648201526084016104fc565b73ffffffffffffffffffffffffffffffffffffffff8216600090815260336020526040902054818110156116aa576040517f08c379a000000000000000000000000000000000000000000000000000000000815260206004820152602260248201527f45524332303a206275726e20616d6f756e7420657863656564732062616c616e60448201527f636500000000000000000000000000000000000000000000000000000000000060648201526084016104fc565b73ffffffffffffffffffffffffffffffffffffffff831660009081526033602052604081208383039055603580548492906116e6908490612603565b909155505060405182815260009073ffffffffffffffffffffffffffffffffffffffff8516907fddf252ad1be2c89b69c2b068fc378daa952ba7f163c4a11628f55a4df523b3ef9060200160405180910390a3505050565b6000610ab37f8b73c3c69bb8fe3d512ecc4cf759cc79239f7b179b0ffacaa9a75d522b39400f61176d60655490565b6066546040805160208101859052908101839052606081018290524660808201523060a082015260009060c0016040516020818303038152906040528051906020012090509392505050565b73ffffffffffffffffffffffffffffffffffffffff8216611836576040517f08c379a000000000000000000000000000000000000000000000000000000000815260206004820152601f60248201527f45524332303a206d696e7420746f20746865207a65726f20616464726573730060448201526064016104fc565b806035600082825461184891906125eb565b909155505073ffffffffffffffffffffffffffffffffffffffff8216600090815260336020526040812080548392906118829084906125eb565b909155505060405181815273ffffffffffffffffffffffffffffffffffffffff8316906000907fddf252ad1be2c89b69c2b068fc378daa952ba7f163c4a11628f55a4df523b3ef9060200160405180910390a35050565b73ffffffffffffffffffffffffffffffffffffffff811660009081526099602052604090208054600181018255905b50919050565b6000610bc061191b61173e565b836040517f19010000000000000000000000000000000000000000000000000000000000006020820152602281018390526042810182905260009060620160405160208183030381529060405280519060200120905092915050565b600080600061198887878787611e61565b9150915061199581611f79565b5095945050505050565b600054610100900460ff16806119b8575060005460ff16155b611a44576040517f08c379a000000000000000000000000000000000000000000000000000000000815260206004820152602e60248201527f496e697469616c697a61626c653a20636f6e747261637420697320616c72656160448201527f647920696e697469616c697a656400000000000000000000000000000000000060648201526084016104fc565b600054610100900460ff16158015611a8357600080547fffffffffffffffffffffffffffffffffffffffffffffffffffffffffffff0000166101011790555b8015610b9657600080547fffffffffffffffffffffffffffffffffffffffffffffffffffffffffffff00ff16905550565b600054610100900460ff1680611acd575060005460ff16155b611b59576040517f08c379a000000000000000000000000000000000000000000000000000000000815260206004820152602e60248201527f496e697469616c697a61626c653a20636f6e747261637420697320616c72656160448201527f647920696e697469616c697a656400000000000000000000000000000000000060648201526084016104fc565b600054610100900460ff16158015611b9857600080547fffffffffffffffffffffffffffffffffffffffffffffffffffffffffffff0000166101011790555b825160208085019190912083519184019190912060659190915560665580156110e657600080547fffffffffffffffffffffffffffffffffffffffffffffffffffffffffffff00ff169055505050565b600054610100900460ff1680611c01575060005460ff16155b611c8d576040517f08c379a000000000000000000000000000000000000000000000000000000000815260206004820152602e60248201527f496e697469616c697a61626c653a20636f6e747261637420697320616c72656160448201527f647920696e697469616c697a656400000000000000000000000000000000000060648201526084016104fc565b600054610100900460ff16158015611ccc57600080547fffffffffffffffffffffffffffffffffffffffffffffffffffffffffffff0000166101011790555b7f6e71edae12b1b97f4d1f60370fef10105fa2faae0126114a169c64845d6126c9609a55801561096457600080547fffffffffffffffffffffffffffffffffffffffffffffffffffffffffffff00ff1690555050565b600054610100900460ff1680611d3b575060005460ff16155b611dc7576040517f08c379a000000000000000000000000000000000000000000000000000000000815260206004820152602e60248201527f496e697469616c697a61626c653a20636f6e747261637420697320616c72656160448201527f647920696e697469616c697a656400000000000000000000000000000000000060648201526084016104fc565b600054610100900460ff16158015611e0657600080547fffffffffffffffffffffffffffffffffffffffffffffffffffffffffffff0000166101011790555b8251611e199060369060208601906121d2565b508151611e2d9060379060208501906121d2565b5080156110e657600080547fffffffffffffffffffffffffffffffffffffffffffffffffffffffffffff00ff169055505050565b6000807f7fffffffffffffffffffffffffffffff5d576e7357a4501ddfe92f46681b20a0831115611e985750600090506003611f70565b8460ff16601b14158015611eb057508460ff16601c14155b15611ec15750600090506004611f70565b6040805160008082526020820180845289905260ff881692820192909252606081018690526080810185905260019060a0016020604051602081039080840390855afa158015611f15573d6000803e3d6000fd5b50506040517fffffffffffffffffffffffffffffffffffffffffffffffffffffffffffffffe0015191505073ffffffffffffffffffffffffffffffffffffffff8116611f6957600060019250925050611f70565b9150600090505b94509492505050565b6000816004811115611f8d57611f8d612697565b1415611f965750565b6001816004811115611faa57611faa612697565b1415612012576040517f08c379a000000000000000000000000000000000000000000000000000000000815260206004820152601860248201527f45434453413a20696e76616c6964207369676e6174757265000000000000000060448201526064016104fc565b600281600481111561202657612026612697565b141561208e576040517f08c379a000000000000000000000000000000000000000000000000000000000815260206004820152601f60248201527f45434453413a20696e76616c6964207369676e6174757265206c656e6774680060448201526064016104fc565b60038160048111156120a2576120a2612697565b1415612130576040517f08c379a000000000000000000000000000000000000000000000000000000000815260206004820152602260248201527f45434453413a20696e76616c6964207369676e6174757265202773272076616c60448201527f756500000000000000000000000000000000000000000000000000000000000060648201526084016104fc565b600481600481111561214457612144612697565b1415610b96576040517f08c379a000000000000000000000000000000000000000000000000000000000815260206004820152602260248201527f45434453413a20696e76616c6964207369676e6174757265202776272076616c60448201527f756500000000000000000000000000000000000000000000000000000000000060648201526084016104fc565b8280546121de9061261a565b90600052602060002090601f0160209004810192826122005760008555612246565b82601f1061221957805160ff1916838001178555612246565b82800160010185558215612246579182015b8281111561224657825182559160200191906001019061222b565b50612252929150612256565b5090565b5b808211156122525760008155600101612257565b600082601f83011261227c57600080fd5b813567ffffffffffffffff80821115612297576122976126c6565b604051601f83017fffffffffffffffffffffffffffffffffffffffffffffffffffffffffffffffe0908116603f011681019082821181831017156122dd576122dd6126c6565b816040528381528660208588010111156122f657600080fd5b836020870160208301376000602085830101528094505050505092915050565b60006020828403121561232857600080fd5b8135612333816126f5565b9392505050565b60006020828403121561234c57600080fd5b8151612333816126f5565b6000806040838503121561236a57600080fd5b8235612375816126f5565b91506020830135612385816126f5565b809150509250929050565b6000806000606084860312156123a557600080fd5b83356123b0816126f5565b925060208401356123c0816126f5565b929592945050506040919091013590565b600080600080600080600060e0888a0312156123ec57600080fd5b87356123f7816126f5565b96506020880135612407816126f5565b95506040880135945060608801359350608088013561242581612717565b9699959850939692959460a0840135945060c09093013592915050565b6000806040838503121561245557600080fd5b8235612460816126f5565b946020939093013593505050565b60008060006060848603121561248357600080fd5b833567ffffffffffffffff8082111561249b57600080fd5b6124a78783880161226b565b945060208601359150808211156124bd57600080fd5b506124ca8682870161226b565b92505060408401356124db816126f5565b809150509250925092565b6000602082840312156124f857600080fd5b5035919050565b6000806040838503121561251257600080fd5b823591506020830135612385816126f5565b60008060006060848603121561253957600080fd5b83359250602084013561254b816126f5565b915060408401356124db816126f5565b60006020828403121561256d57600080fd5b815161233381612717565b600060208083528351808285015260005b818110156125a557858101830151858201604001528201612589565b818111156125b7576000604083870101525b50601f017fffffffffffffffffffffffffffffffffffffffffffffffffffffffffffffffe016929092016040019392505050565b600082198211156125fe576125fe612668565b500190565b60008282101561261557612615612668565b500390565b600181811c9082168061262e57607f821691505b60208210811415611908577f4e487b7100000000000000000000000000000000000000000000000000000000600052602260045260246000fd5b7f4e487b7100000000000000000000000000000000000000000000000000000000600052601160045260246000fd5b7f4e487b7100000000000000000000000000000000000000000000000000000000600052602160045260246000fd5b7f4e487b7100000000000000000000000000000000000000000000000000000000600052604160045260246000fd5b73ffffffffffffffffffffffffffffffffffffffff81168114610b9657600080fd5b60ff81168114610b9657600080fdfea2646970667358221220457ec35ddbaf4e0b2d21dcb89d035fa076b52f6e6b905b9eadb2461c53fd68e764736f6c63430008070033",
  "linkReferences": {},
  "deployedLinkReferences": {}
}