{
  "_format": "hh-sol-artifact-1",
  "contractName": "OrchestratorOwnable",
  "sourceName": "contracts/orchestrator/OrchestratorOwnable.sol",
  "abi": [
    {
      "inputs": [
        {
          "internalType": "address",
          "name": "_owner",
          "type": "address"
        }
      ],
      "stateMutability": "nonpayable",
      "type": "constructor"
    },
    {
      "inputs": [
        {
          "internalType": "contract IStableMaster",
          "name": "stableMaster",
          "type": "address"
        },
        {
          "internalType": "contract IPoolManager",
          "name": "poolManager",
          "type": "address"
        },
        {
          "internalType": "contract IPerpetualManager",
          "name": "perpetualManager",
          "type": "address"
        },
        {
          "internalType": "contract IFeeManager",
          "name": "feeManager",
          "type": "address"
        },
        {
          "components": [
            {
              "internalType": "uint64[]",
              "name": "xFeeMint",
              "type": "uint64[]"
            },
            {
              "internalType": "uint64[]",
              "name": "yFeeMint",
              "type": "uint64[]"
            },
            {
              "internalType": "uint64[]",
              "name": "xFeeBurn",
              "type": "uint64[]"
            },
            {
              "internalType": "uint64[]",
              "name": "yFeeBurn",
              "type": "uint64[]"
            },
            {
              "internalType": "uint64[]",
              "name": "xHAFeesDeposit",
              "type": "uint64[]"
            },
            {
              "internalType": "uint64[]",
              "name": "yHAFeesDeposit",
              "type": "uint64[]"
            },
            {
              "internalType": "uint64[]",
              "name": "xHAFeesWithdraw",
              "type": "uint64[]"
            },
            {
              "internalType": "uint64[]",
              "name": "yHAFeesWithdraw",
              "type": "uint64[]"
            },
            {
              "internalType": "uint256[]",
              "name": "xSlippageFee",
              "type": "uint256[]"
            },
            {
              "internalType": "uint64[]",
              "name": "ySlippageFee",
              "type": "uint64[]"
            },
            {
              "internalType": "uint256[]",
              "name": "xSlippage",
              "type": "uint256[]"
            },
            {
              "internalType": "uint64[]",
              "name": "ySlippage",
              "type": "uint64[]"
            },
            {
              "internalType": "uint256[]",
              "name": "xBonusMalusMint",
              "type": "uint256[]"
            },
            {
              "internalType": "uint64[]",
              "name": "yBonusMalusMint",
              "type": "uint64[]"
            },
            {
              "internalType": "uint256[]",
              "name": "xBonusMalusBurn",
              "type": "uint256[]"
            },
            {
              "internalType": "uint64[]",
              "name": "yBonusMalusBurn",
              "type": "uint64[]"
            },
            {
              "internalType": "uint64[]",
              "name": "xKeeperFeesClosing",
              "type": "uint64[]"
            },
            {
              "internalType": "uint64[]",
              "name": "yKeeperFeesClosing",
              "type": "uint64[]"
            },
            {
              "internalType": "uint64",
              "name": "haFeeDeposit",
              "type": "uint64"
            },
            {
              "internalType": "uint64",
              "name": "haFeeWithdraw",
              "type": "uint64"
            },
            {
              "internalType": "uint256",
              "name": "capOnStableMinted",
              "type": "uint256"
            },
            {
              "internalType": "uint256",
              "name": "maxInterestsDistributed",
              "type": "uint256"
            },
            {
              "internalType": "uint64",
              "name": "feesForSLPs",
              "type": "uint64"
            },
            {
              "internalType": "uint64",
              "name": "interestsForSLPs",
              "type": "uint64"
            },
            {
              "internalType": "uint64",
              "name": "targetHAHedge",
              "type": "uint64"
            },
            {
              "internalType": "uint64",
              "name": "limitHAHedge",
              "type": "uint64"
            },
            {
              "internalType": "uint64",
              "name": "maxLeverage",
              "type": "uint64"
            },
            {
              "internalType": "uint64",
              "name": "maintenanceMargin",
              "type": "uint64"
            },
            {
              "internalType": "uint64",
              "name": "lockTime",
              "type": "uint64"
            },
            {
              "internalType": "uint64",
              "name": "keeperFeesLiquidationRatio",
              "type": "uint64"
            },
            {
              "internalType": "uint256",
              "name": "keeperFeesLiquidationCap",
              "type": "uint256"
            },
            {
              "internalType": "uint256",
              "name": "keeperFeesClosingCap",
              "type": "uint256"
            }
          ],
          "internalType": "struct PoolParameters",
          "name": "p",
          "type": "tuple"
        }
      ],
      "name": "initCollateral",
      "outputs": [],
      "stateMutability": "nonpayable",
      "type": "function"
    },
    {
      "inputs": [],
      "name": "owner",
      "outputs": [
        {
          "internalType": "address",
          "name": "",
          "type": "address"
        }
      ],
      "stateMutability": "view",
      "type": "function"
    },
    {
      "inputs": [
        {
          "internalType": "address",
          "name": "_newOwner",
          "type": "address"
        }
      ],
      "name": "setOwner",
      "outputs": [],
      "stateMutability": "nonpayable",
      "type": "function"
    }
  ],
  "bytecode": "0x608060405234801561001057600080fd5b5060405161168238038061168283398101604081905261002f91610054565b600080546001600160a01b0319166001600160a01b0392909216919091179055610084565b60006020828403121561006657600080fd5b81516001600160a01b038116811461007d57600080fd5b9392505050565b6115ef806100936000396000f3fe608060405234801561001057600080fd5b50600436106100415760003560e01c806313af4035146100465780638da5cb5b1461005b578063d15c35d5146100a4575b600080fd5b610059610054366004610f32565b6100b7565b005b60005461007b9073ffffffffffffffffffffffffffffffffffffffff1681565b60405173ffffffffffffffffffffffffffffffffffffffff909116815260200160405180910390f35b6100596100b2366004610f56565b610184565b60005473ffffffffffffffffffffffffffffffffffffffff16331461013d576040517f08c379a000000000000000000000000000000000000000000000000000000000815260206004820152600260248201527f373900000000000000000000000000000000000000000000000000000000000060448201526064015b60405180910390fd5b600080547fffffffffffffffffffffffff00000000000000000000000000000000000000001673ffffffffffffffffffffffffffffffffffffffff92909216919091179055565b60005473ffffffffffffffffffffffffffffffffffffffff163314610205576040517f08c379a000000000000000000000000000000000000000000000000000000000815260206004820152600260248201527f37390000000000000000000000000000000000000000000000000000000000006044820152606401610134565b805160208201516040517fbe8c31ff00000000000000000000000000000000000000000000000000000000815273ffffffffffffffffffffffffffffffffffffffff88169263be8c31ff926102639289929190600190600401611472565b600060405180830381600087803b15801561027d57600080fd5b505af1158015610291573d6000803e3d6000fd5b505050508473ffffffffffffffffffffffffffffffffffffffff1663be8c31ff858360400151846060015160006040518563ffffffff1660e01b81526004016102dd9493929190611472565b600060405180830381600087803b1580156102f757600080fd5b505af115801561030b573d6000803e3d6000fd5b50505050608081015160a08201516040517f8211477a00000000000000000000000000000000000000000000000000000000815273ffffffffffffffffffffffffffffffffffffffff861692638211477a9261036c9260019060040161145f565b600060405180830381600087803b15801561038657600080fd5b505af115801561039a573d6000803e3d6000fd5b5050505060c081015160e08201516040517f8211477a00000000000000000000000000000000000000000000000000000000815273ffffffffffffffffffffffffffffffffffffffff861692638211477a926103fb9260009060040161145f565b600060405180830381600087803b15801561041557600080fd5b505af1158015610429573d6000803e3d6000fd5b505050506101008101516101208201516040517f4e6b13f100000000000000000000000000000000000000000000000000000000815273ffffffffffffffffffffffffffffffffffffffff851692634e6b13f19261048c926000906004016113f8565b600060405180830381600087803b1580156104a657600080fd5b505af11580156104ba573d6000803e3d6000fd5b505050506101808101516101a08201516040517f4e6b13f100000000000000000000000000000000000000000000000000000000815273ffffffffffffffffffffffffffffffffffffffff851692634e6b13f19261051d926001906004016113f8565b600060405180830381600087803b15801561053757600080fd5b505af115801561054b573d6000803e3d6000fd5b505050506101c08101516101e08201516040517f4e6b13f100000000000000000000000000000000000000000000000000000000815273ffffffffffffffffffffffffffffffffffffffff851692634e6b13f1926105ae926002906004016113f8565b600060405180830381600087803b1580156105c857600080fd5b505af11580156105dc573d6000803e3d6000fd5b505050506101408101516101608201516040517f4e6b13f100000000000000000000000000000000000000000000000000000000815273ffffffffffffffffffffffffffffffffffffffff851692634e6b13f19261063f926003906004016113f8565b600060405180830381600087803b15801561065957600080fd5b505af115801561066d573d6000803e3d6000fd5b505050506102408101516102608201516040517f232c28c400000000000000000000000000000000000000000000000000000000815267ffffffffffffffff92831660048201529116602482015273ffffffffffffffffffffffffffffffffffffffff83169063232c28c490604401600060405180830381600087803b1580156106f657600080fd5b505af115801561070a573d6000803e3d6000fd5b505050506102808101516102a08201516040517f5a3c10f10000000000000000000000000000000000000000000000000000000081526004810192909252602482015273ffffffffffffffffffffffffffffffffffffffff8581166044830152861690635a3c10f190606401600060405180830381600087803b15801561079057600080fd5b505af11580156107a4573d6000803e3d6000fd5b505050506102c08101516102e08201516040517fec5b1bee00000000000000000000000000000000000000000000000000000000815267ffffffffffffffff92831660048201529116602482015273ffffffffffffffffffffffffffffffffffffffff858116604483015286169063ec5b1bee90606401600060405180830381600087803b15801561083557600080fd5b505af1158015610849573d6000803e3d6000fd5b505050506103008101516103208201516040517f515dc48000000000000000000000000000000000000000000000000000000000815267ffffffffffffffff92831660048201529116602482015273ffffffffffffffffffffffffffffffffffffffff84169063515dc48090604401600060405180830381600087803b1580156108d257600080fd5b505af11580156108e6573d6000803e3d6000fd5b505050506103408101516103608201516040517ff5d011c500000000000000000000000000000000000000000000000000000000815267ffffffffffffffff92831660048201529116602482015273ffffffffffffffffffffffffffffffffffffffff84169063f5d011c590604401600060405180830381600087803b15801561096f57600080fd5b505af1158015610983573d6000803e3d6000fd5b505050506103808101516040517f3675441500000000000000000000000000000000000000000000000000000000815267ffffffffffffffff909116600482015273ffffffffffffffffffffffffffffffffffffffff841690633675441590602401600060405180830381600087803b1580156109ff57600080fd5b505af1158015610a13573d6000803e3d6000fd5b505050506103a08101516040517fb3b1cb2700000000000000000000000000000000000000000000000000000000815267ffffffffffffffff909116600482015273ffffffffffffffffffffffffffffffffffffffff84169063b3b1cb2790602401600060405180830381600087803b158015610a8f57600080fd5b505af1158015610aa3573d6000803e3d6000fd5b505050506103c08101516103e08201516040517f47c12e010000000000000000000000000000000000000000000000000000000081526004810192909252602482015273ffffffffffffffffffffffffffffffffffffffff8416906347c12e0190604401600060405180830381600087803b158015610b2157600080fd5b505af1158015610b35573d6000803e3d6000fd5b505050506102008101516102208201516040517f367f21b400000000000000000000000000000000000000000000000000000000815273ffffffffffffffffffffffffffffffffffffffff86169263367f21b492610b9592600401611431565b600060405180830381600087803b158015610baf57600080fd5b505af1158015610bc3573d6000803e3d6000fd5b505050508173ffffffffffffffffffffffffffffffffffffffff166320be420a6040518163ffffffff1660e01b8152600401600060405180830381600087803b158015610c0f57600080fd5b505af1158015610c23573d6000803e3d6000fd5b505050508173ffffffffffffffffffffffffffffffffffffffff16635da3e6f56040518163ffffffff1660e01b8152600401600060405180830381600087803b158015610c6f57600080fd5b505af1158015610c83573d6000803e3d6000fd5b50506040517f59de68660000000000000000000000000000000000000000000000000000000081527ffb286912c6eadba541f23a3bb3e83373ab139b6e65d84e2a473c186efc2b4642600482015273ffffffffffffffffffffffffffffffffffffffff8781166024830152881692506359de68669150604401600060405180830381600087803b158015610d1657600080fd5b505af1158015610d2a573d6000803e3d6000fd5b50506040517f59de68660000000000000000000000000000000000000000000000000000000081527fe0136b3661826a483734248681e4f59ae66bc6065ceb43fdd469ecb22c21d745600482015273ffffffffffffffffffffffffffffffffffffffff8781166024830152881692506359de68669150604401600060405180830381600087803b158015610dbd57600080fd5b505af1158015610dd1573d6000803e3d6000fd5b505050508273ffffffffffffffffffffffffffffffffffffffff16633f4ba83a6040518163ffffffff1660e01b8152600401600060405180830381600087803b158015610e1d57600080fd5b505af1158015610e31573d6000803e3d6000fd5b505050505050505050565b600082601f830112610e4d57600080fd5b81356020610e62610e5d83611541565b6114f2565b80838252828201915082860187848660051b8901011115610e8257600080fd5b60005b85811015610ea157813584529284019290840190600101610e85565b5090979650505050505050565b600082601f830112610ebf57600080fd5b81356020610ecf610e5d83611541565b80838252828201915082860187848660051b8901011115610eef57600080fd5b60005b85811015610ea157610f0382610f15565b84529284019290840190600101610ef2565b803567ffffffffffffffff81168114610f2d57600080fd5b919050565b600060208284031215610f4457600080fd5b8135610f4f81611594565b9392505050565b600080600080600060a08688031215610f6e57600080fd5b8535610f7981611594565b94506020860135610f8981611594565b93506040860135610f9981611594565b92506060860135610fa981611594565b9150608086013567ffffffffffffffff80821115610fc657600080fd5b90870190610400828a031215610fdb57600080fd5b610fe36114c8565b823582811115610ff257600080fd5b610ffe8b828601610eae565b82525060208301358281111561101357600080fd5b61101f8b828601610eae565b60208301525060408301358281111561103757600080fd5b6110438b828601610eae565b60408301525060608301358281111561105b57600080fd5b6110678b828601610eae565b60608301525060808301358281111561107f57600080fd5b61108b8b828601610eae565b60808301525060a0830135828111156110a357600080fd5b6110af8b828601610eae565b60a08301525060c0830135828111156110c757600080fd5b6110d38b828601610eae565b60c08301525060e0830135828111156110eb57600080fd5b6110f78b828601610eae565b60e083015250610100808401358381111561111157600080fd5b61111d8c828701610e3c565b828401525050610120808401358381111561113757600080fd5b6111438c828701610eae565b828401525050610140808401358381111561115d57600080fd5b6111698c828701610e3c565b828401525050610160808401358381111561118357600080fd5b61118f8c828701610eae565b82840152505061018080840135838111156111a957600080fd5b6111b58c828701610e3c565b8284015250506101a080840135838111156111cf57600080fd5b6111db8c828701610eae565b8284015250506101c080840135838111156111f557600080fd5b6112018c828701610e3c565b8284015250506101e0808401358381111561121b57600080fd5b6112278c828701610eae565b828401525050610200808401358381111561124157600080fd5b61124d8c828701610eae565b828401525050610220808401358381111561126757600080fd5b6112738c828701610eae565b8284015250506102409150611289828401610f15565b82820152610260915061129d828401610f15565b9181019190915261028082810135908201526102a080830135908201526102c0906112c9828401610f15565b828201526102e091506112dd828401610f15565b8282015261030091506112f1828401610f15565b828201526103209150611305828401610f15565b828201526103409150611319828401610f15565b82820152610360915061132d828401610f15565b828201526103809150611341828401610f15565b828201526103a09150611355828401610f15565b828201526103c0915081830135828201526103e0915081830135828201528093505050509295509295909350565b600081518084526020808501945080840160005b838110156113b357815187529582019590820190600101611397565b509495945050505050565b600081518084526020808501945080840160005b838110156113b357815167ffffffffffffffff16875295820195908201906001016113d2565b60608152600061140b6060830186611383565b828103602084015261141d81866113be565b91505060ff83166040830152949350505050565b60408152600061144460408301856113be565b828103602084015261145681856113be565b95945050505050565b60608152600061140b60608301866113be565b73ffffffffffffffffffffffffffffffffffffffff851681526080602082015260006114a160808301866113be565b82810360408401526114b381866113be565b91505060ff8316606083015295945050505050565b604051610400810167ffffffffffffffff811182821017156114ec576114ec611565565b60405290565b604051601f82017fffffffffffffffffffffffffffffffffffffffffffffffffffffffffffffffe016810167ffffffffffffffff8111828210171561153957611539611565565b604052919050565b600067ffffffffffffffff82111561155b5761155b611565565b5060051b60200190565b7f4e487b7100000000000000000000000000000000000000000000000000000000600052604160045260246000fd5b73ffffffffffffffffffffffffffffffffffffffff811681146115b657600080fd5b5056fea2646970667358221220ef7253f5383f8ea57e4eb0dcc03a290cfdb237ef423ca34189cad964bb8ecdf464736f6c63430008070033",
  "linkReferences": {},
  "deployedLinkReferences": {}
}