{
  "_format": "hh-sol-artifact-1",
  "contractName": "PoolManagerStorageV1",
  "sourceName": "contracts/poolManager/PoolManagerStorageV1.sol",
  "abi": [
    {
      "anonymous": false,
      "inputs": [
        {
          "indexed": false,
          "internalType": "uint256",
          "name": "amountDistributed",
          "type": "uint256"
        }
      ],
      "name": "FeesDistributed",
      "type": "event"
    },
    {
      "anonymous": false,
      "inputs": [
        {
          "indexed": false,
          "internalType": "uint64",
          "name": "_interestsForSurplus",
          "type": "uint64"
        }
      ],
      "name": "InterestsForSurplusUpdated",
      "type": "event"
    },
    {
      "anonymous": false,
      "inputs": [
        {
          "indexed": true,
          "internalType": "address",
          "name": "token",
          "type": "address"
        },
        {
          "indexed": true,
          "internalType": "address",
          "name": "to",
          "type": "address"
        },
        {
          "indexed": false,
          "internalType": "uint256",
          "name": "amount",
          "type": "uint256"
        }
      ],
      "name": "Recovered",
      "type": "event"
    },
    {
      "anonymous": false,
      "inputs": [
        {
          "indexed": true,
          "internalType": "address",
          "name": "strategy",
          "type": "address"
        },
        {
          "indexed": false,
          "internalType": "uint256",
          "name": "debtRatio",
          "type": "uint256"
        }
      ],
      "name": "StrategyAdded",
      "type": "event"
    },
    {
      "anonymous": false,
      "inputs": [
        {
          "indexed": true,
          "internalType": "address",
          "name": "strategy",
          "type": "address"
        },
        {
          "indexed": false,
          "internalType": "uint256",
          "name": "gain",
          "type": "uint256"
        },
        {
          "indexed": false,
          "internalType": "uint256",
          "name": "loss",
          "type": "uint256"
        },
        {
          "indexed": false,
          "internalType": "uint256",
          "name": "debtPayment",
          "type": "uint256"
        },
        {
          "indexed": false,
          "internalType": "uint256",
          "name": "totalDebt",
          "type": "uint256"
        }
      ],
      "name": "StrategyReported",
      "type": "event"
    },
    {
      "anonymous": false,
      "inputs": [
        {
          "indexed": true,
          "internalType": "address",
          "name": "strategy",
          "type": "address"
        }
      ],
      "name": "StrategyRevoked",
      "type": "event"
    },
    {
      "anonymous": false,
      "inputs": [
        {
          "indexed": true,
          "internalType": "address",
          "name": "newSurplusConverter",
          "type": "address"
        },
        {
          "indexed": true,
          "internalType": "address",
          "name": "oldSurplusConverter",
          "type": "address"
        }
      ],
      "name": "SurplusConverterUpdated",
      "type": "event"
    },
    {
      "inputs": [],
      "name": "BASE_PARAMS",
      "outputs": [
        {
          "internalType": "uint256",
          "name": "",
          "type": "uint256"
        }
      ],
      "stateMutability": "view",
      "type": "function"
    },
    {
      "inputs": [],
      "name": "BASE_TOKENS",
      "outputs": [
        {
          "internalType": "uint256",
          "name": "",
          "type": "uint256"
        }
      ],
      "stateMutability": "view",
      "type": "function"
    },
    {
      "inputs": [],
      "name": "debtRatio",
      "outputs": [
        {
          "internalType": "uint256",
          "name": "",
          "type": "uint256"
        }
      ],
      "stateMutability": "view",
      "type": "function"
    },
    {
      "inputs": [],
      "name": "feeManager",
      "outputs": [
        {
          "internalType": "contract IFeeManager",
          "name": "",
          "type": "address"
        }
      ],
      "stateMutability": "view",
      "type": "function"
    },
    {
      "inputs": [],
      "name": "perpetualManager",
      "outputs": [
        {
          "internalType": "contract IPerpetualManager",
          "name": "",
          "type": "address"
        }
      ],
      "stateMutability": "view",
      "type": "function"
    },
    {
      "inputs": [],
      "name": "stableMaster",
      "outputs": [
        {
          "internalType": "contract IStableMaster",
          "name": "",
          "type": "address"
        }
      ],
      "stateMutability": "view",
      "type": "function"
    },
    {
      "inputs": [
        {
          "internalType": "address",
          "name": "",
          "type": "address"
        }
      ],
      "name": "strategies",
      "outputs": [
        {
          "internalType": "uint256",
          "name": "lastReport",
          "type": "uint256"
        },
        {
          "internalType": "uint256",
          "name": "totalStrategyDebt",
          "type": "uint256"
        },
        {
          "internalType": "uint256",
          "name": "debtRatio",
          "type": "uint256"
        }
      ],
      "stateMutability": "view",
      "type": "function"
    },
    {
      "inputs": [
        {
          "internalType": "uint256",
          "name": "",
          "type": "uint256"
        }
      ],
      "name": "strategyList",
      "outputs": [
        {
          "internalType": "address",
          "name": "",
          "type": "address"
        }
      ],
      "stateMutability": "view",
      "type": "function"
    },
    {
      "inputs": [],
      "name": "token",
      "outputs": [
        {
          "internalType": "contract IERC20",
          "name": "",
          "type": "address"
        }
      ],
      "stateMutability": "view",
      "type": "function"
    },
    {
      "inputs": [],
      "name": "totalDebt",
      "outputs": [
        {
          "internalType": "uint256",
          "name": "",
          "type": "uint256"
        }
      ],
      "stateMutability": "view",
      "type": "function"
    }
  ],
  "bytecode": "0x608060405234801561001057600080fd5b506102c7806100206000396000f3fe608060405234801561001057600080fd5b50600436106100be5760003560e01c8063cea55f5711610076578063df1b8bd31161005b578063df1b8bd3146101cc578063fc0c546a146101db578063fc7b9c18146101fb57600080fd5b8063cea55f57146101a3578063d0fb0203146101ac57600080fd5b80636ac5dc46116100a75780636ac5dc46146101575780639f48118f14610177578063a267526b1461019057600080fd5b806339ebf823146100c35780635d34082b14610112575b600080fd5b6100f26100d136600461023b565b60066020526000908152604090208054600182015460029092015490919083565b604080519384526020840192909252908201526060015b60405180910390f35b6001546101329073ffffffffffffffffffffffffffffffffffffffff1681565b60405173ffffffffffffffffffffffffffffffffffffffff9091168152602001610109565b6002546101329073ffffffffffffffffffffffffffffffffffffffff1681565b610182633b9aca0081565b604051908152602001610109565b61013261019e366004610278565b610204565b61018260055481565b6003546101329073ffffffffffffffffffffffffffffffffffffffff1681565b610182670de0b6b3a764000081565b6000546101329073ffffffffffffffffffffffffffffffffffffffff1681565b61018260045481565b6007818154811061021457600080fd5b60009182526020909120015473ffffffffffffffffffffffffffffffffffffffff16905081565b60006020828403121561024d57600080fd5b813573ffffffffffffffffffffffffffffffffffffffff8116811461027157600080fd5b9392505050565b60006020828403121561028a57600080fd5b503591905056fea2646970667358221220e9f83b015271db99fd835eb4f64800a179f607ff55091f030016a33c13dad84864736f6c63430008070033",
  "linkReferences": {},
  "deployedLinkReferences": {}
}