{
  "_format": "hh-sol-artifact-1",
  "contractName": "MockChainlinkOracle",
  "sourceName": "contracts/mock/MockChainlinkOracle.sol",
  "abi": [
    {
      "inputs": [],
      "stateMutability": "nonpayable",
      "type": "constructor"
    },
    {
      "inputs": [],
      "name": "decimals",
      "outputs": [
        {
          "internalType": "uint8",
          "name": "",
          "type": "uint8"
        }
      ],
      "stateMutability": "view",
      "type": "function"
    },
    {
      "inputs": [],
      "name": "desc",
      "outputs": [
        {
          "internalType": "string",
          "name": "",
          "type": "string"
        }
      ],
      "stateMutability": "view",
      "type": "function"
    },
    {
      "inputs": [],
      "name": "description",
      "outputs": [
        {
          "internalType": "string",
          "name": "",
          "type": "string"
        }
      ],
      "stateMutability": "view",
      "type": "function"
    },
    {
      "inputs": [
        {
          "internalType": "uint256",
          "name": "",
          "type": "uint256"
        }
      ],
      "name": "entries",
      "outputs": [
        {
          "internalType": "uint80",
          "name": "roundId",
          "type": "uint80"
        },
        {
          "internalType": "int256",
          "name": "answer",
          "type": "int256"
        },
        {
          "internalType": "uint256",
          "name": "startedAt",
          "type": "uint256"
        },
        {
          "internalType": "uint256",
          "name": "updatedAt",
          "type": "uint256"
        },
        {
          "internalType": "uint80",
          "name": "answeredInRound",
          "type": "uint80"
        }
      ],
      "stateMutability": "view",
      "type": "function"
    },
    {
      "inputs": [
        {
          "internalType": "uint80",
          "name": "_roundId",
          "type": "uint80"
        }
      ],
      "name": "getRoundData",
      "outputs": [
        {
          "internalType": "uint80",
          "name": "",
          "type": "uint80"
        },
        {
          "internalType": "int256",
          "name": "",
          "type": "int256"
        },
        {
          "internalType": "uint256",
          "name": "",
          "type": "uint256"
        },
        {
          "internalType": "uint256",
          "name": "",
          "type": "uint256"
        },
        {
          "internalType": "uint80",
          "name": "",
          "type": "uint80"
        }
      ],
      "stateMutability": "view",
      "type": "function"
    },
    {
      "inputs": [],
      "name": "keyDecimals",
      "outputs": [
        {
          "internalType": "uint8",
          "name": "",
          "type": "uint8"
        }
      ],
      "stateMutability": "view",
      "type": "function"
    },
    {
      "inputs": [],
      "name": "latestRoundData",
      "outputs": [
        {
          "internalType": "uint80",
          "name": "",
          "type": "uint80"
        },
        {
          "internalType": "int256",
          "name": "",
          "type": "int256"
        },
        {
          "internalType": "uint256",
          "name": "",
          "type": "uint256"
        },
        {
          "internalType": "uint256",
          "name": "",
          "type": "uint256"
        },
        {
          "internalType": "uint80",
          "name": "",
          "type": "uint80"
        }
      ],
      "stateMutability": "view",
      "type": "function"
    },
    {
      "inputs": [],
      "name": "latestRoundDataShouldRevert",
      "outputs": [
        {
          "internalType": "bool",
          "name": "",
          "type": "bool"
        }
      ],
      "stateMutability": "view",
      "type": "function"
    },
    {
      "inputs": [],
      "name": "roundId",
      "outputs": [
        {
          "internalType": "uint80",
          "name": "",
          "type": "uint80"
        }
      ],
      "stateMutability": "view",
      "type": "function"
    },
    {
      "inputs": [
        {
          "internalType": "uint8",
          "name": "_decimals",
          "type": "uint8"
        }
      ],
      "name": "setDecimals",
      "outputs": [],
      "stateMutability": "nonpayable",
      "type": "function"
    },
    {
      "inputs": [
        {
          "internalType": "string",
          "name": "_desc",
          "type": "string"
        }
      ],
      "name": "setDescritpion",
      "outputs": [],
      "stateMutability": "nonpayable",
      "type": "function"
    },
    {
      "inputs": [
        {
          "internalType": "int256",
          "name": "answer",
          "type": "int256"
        },
        {
          "internalType": "uint256",
          "name": "timestamp",
          "type": "uint256"
        }
      ],
      "name": "setLatestAnswer",
      "outputs": [],
      "stateMutability": "nonpayable",
      "type": "function"
    },
    {
      "inputs": [
        {
          "internalType": "int256",
          "name": "answer",
          "type": "int256"
        },
        {
          "internalType": "uint256",
          "name": "timestamp",
          "type": "uint256"
        }
      ],
      "name": "setLatestAnswerRevert",
      "outputs": [],
      "stateMutability": "nonpayable",
      "type": "function"
    },
    {
      "inputs": [
        {
          "internalType": "int256",
          "name": "answer",
          "type": "int256"
        },
        {
          "internalType": "uint256",
          "name": "timestamp",
          "type": "uint256"
        },
        {
          "internalType": "uint80",
          "name": "_roundId",
          "type": "uint80"
        }
      ],
      "name": "setLatestAnswerWithRound",
      "outputs": [],
      "stateMutability": "nonpayable",
      "type": "function"
    },
    {
      "inputs": [
        {
          "internalType": "bool",
          "name": "_shouldRevert",
          "type": "bool"
        }
      ],
      "name": "setLatestRoundDataShouldRevert",
      "outputs": [],
      "stateMutability": "nonpayable",
      "type": "function"
    },
    {
      "inputs": [],
      "name": "version",
      "outputs": [
        {
          "internalType": "uint256",
          "name": "",
          "type": "uint256"
        }
      ],
      "stateMutability": "view",
      "type": "function"
    }
  ],
  "bytecode": "0x6080604052600080546001600160581b031916905534801561002057600080fd5b50610ca8806100306000396000f3fe608060405234801561001057600080fd5b50600436106101005760003560e01c80637b28d48311610097578063b19cafe111610066578063b19cafe114610343578063b30906d414610382578063e9c58f85146103ce578063feaf968c146103e157600080fd5b80637b28d483146101fe57806381197a1c146102b55780638cd221c9146102c85780639a6fc8f5146102f957600080fd5b806355f150f1116100d357806355f150f11461017c57806360d199d2146101915780637284e416146101a65780637a1395aa146101ae57600080fd5b80632c746cae146101055780632f1b9a0c14610137578063313ce5671461015457806354fd4d501461016d575b600080fd5b600054610120906a0100000000000000000000900460ff1681565b60405160ff90911681526020015b60405180910390f35b6002546101449060ff1681565b604051901515815260200161012e565b6000546a0100000000000000000000900460ff16610120565b6040516000815260200161012e565b6101846103e9565b60405161012e9190610af8565b6101a461019f3660046109d2565b610477565b005b61018461048e565b6101a46101bc366004610aba565b6000805460ff9092166a0100000000000000000000027fffffffffffffffffffffffffffffffffffffffffff00ffffffffffffffffffff909216919091179055565b6101a461020c36600461099d565b600080547fffffffffffffffffffffffffffffffffffffffffffff0000000000000000000090811669ffffffffffffffffffff93841690811783556040805160a0810182528281526020808201988952818301888152606083019889526080830185815294875260019182905292909520905181548516908716178155965193870193909355915160028601559251600385015551600490930180549092169216919091179055565b6101a46102c336600461097b565b610520565b6000546102de9069ffffffffffffffffffff1681565b60405169ffffffffffffffffffff909116815260200161012e565b61030c610307366004610add565b610628565b6040805169ffffffffffffffffffff968716815260208101959095528401929092526060830152909116608082015260a00161012e565b6101a4610351366004610952565b600280547fffffffffffffffffffffffffffffffffffffffffffffffffffffffffffffff0016911515919091179055565b61030c610390366004610aa1565b60016020819052600091825260409091208054918101546002820154600383015460049093015469ffffffffffffffffffff94851694929391921685565b6101a46103dc36600461097b565b610720565b61030c6107f9565b600380546103f690610b96565b80601f016020809104026020016040519081016040528092919081815260200182805461042290610b96565b801561046f5780601f106104445761010080835404028352916020019161046f565b820191906000526020600020905b81548152906001019060200180831161045257829003601f168201915b505050505081565b805161048a90600390602084019061089a565b5050565b60606003805461049d90610b96565b80601f01602080910402602001604051908101604052809291908181526020018280546104c990610b96565b80156105165780601f106104eb57610100808354040283529160200191610516565b820191906000526020600020905b8154815290600101906020018083116104f957829003601f168201915b5050505050905090565b6000805469ffffffffffffffffffff16908061053b83610bea565b82546101009290920a69ffffffffffffffffffff8181021990931691831602179091556040805160a0810182526000549092168083526020830186905290820184905260608201849052909150608082019061059990600190610b6b565b69ffffffffffffffffffff908116909152600080548216815260016020818152604092839020855181549086167fffffffffffffffffffffffffffffffffffffffffffff00000000000000000000918216178255918601519281019290925591840151600282015560608401516003820155608090930151600490930180549390921692169190911790555050565b69ffffffffffffffffffff8082166000908152600160208181526040808420815160a08101835281548716815293810154928401929092526002820154908301526003810154606083018190526004909101549093166080820152909182918291829182916106f8576040517f08c379a000000000000000000000000000000000000000000000000000000000815260206004820152600f60248201527f4e6f20646174612070726573656e74000000000000000000000000000000000060448201526064015b60405180910390fd5b8051602082015160408301516060840151608090940151929a91995097509195509350915050565b6000805469ffffffffffffffffffff16908061073b83610bea565b82546101009290920a69ffffffffffffffffffff8181021990931691831602179091556040805160a0810182526000805484168083526020808401988952838501888152606085019889526080850183815292845260019182905294909220925183547fffffffffffffffffffffffffffffffffffffffffffff000000000000000000009081169187169190911784559751918301919091559151600282015593516003850155516004909301805490941692169190911790915550565b600254600090819081908190819060ff1615610871576040517f08c379a000000000000000000000000000000000000000000000000000000000815260206004820152601860248201527f6c6174657374526f756e6444617461207265766572746564000000000000000060448201526064016106ef565b6000546108899069ffffffffffffffffffff16610628565b945094509450945094509091929394565b8280546108a690610b96565b90600052602060002090601f0160209004810192826108c8576000855561090e565b82601f106108e157805160ff191683800117855561090e565b8280016001018555821561090e579182015b8281111561090e5782518255916020019190600101906108f3565b5061091a92915061091e565b5090565b5b8082111561091a576000815560010161091f565b803569ffffffffffffffffffff8116811461094d57600080fd5b919050565b60006020828403121561096457600080fd5b8135801515811461097457600080fd5b9392505050565b6000806040838503121561098e57600080fd5b50508035926020909101359150565b6000806000606084860312156109b257600080fd5b83359250602084013591506109c960408501610933565b90509250925092565b6000602082840312156109e457600080fd5b813567ffffffffffffffff808211156109fc57600080fd5b818401915084601f830112610a1057600080fd5b813581811115610a2257610a22610c43565b604051601f82017fffffffffffffffffffffffffffffffffffffffffffffffffffffffffffffffe0908116603f01168101908382118183101715610a6857610a68610c43565b81604052828152876020848701011115610a8157600080fd5b826020860160208301376000928101602001929092525095945050505050565b600060208284031215610ab357600080fd5b5035919050565b600060208284031215610acc57600080fd5b813560ff8116811461097457600080fd5b600060208284031215610aef57600080fd5b61097482610933565b600060208083528351808285015260005b81811015610b2557858101830151858201604001528201610b09565b81811115610b37576000604083870101525b50601f017fffffffffffffffffffffffffffffffffffffffffffffffffffffffffffffffe016929092016040019392505050565b600069ffffffffffffffffffff83811690831681811015610b8e57610b8e610c14565b039392505050565b600181811c90821680610baa57607f821691505b60208210811415610be4577f4e487b7100000000000000000000000000000000000000000000000000000000600052602260045260246000fd5b50919050565b600069ffffffffffffffffffff80831681811415610c0a57610c0a610c14565b6001019392505050565b7f4e487b7100000000000000000000000000000000000000000000000000000000600052601160045260246000fd5b7f4e487b7100000000000000000000000000000000000000000000000000000000600052604160045260246000fdfea26469706673582212201eb90be4de77df4993d97ed3d7a41450945925736053ed949bb4ae0e06d3f94264736f6c63430008070033",
  "linkReferences": {},
  "deployedLinkReferences": {}
}