{
  "_format": "hh-sol-artifact-1",
  "contractName": "MockOracleMath",
  "sourceName": "contracts/mock/MockOracleMath.sol",
  "abi": [
    {
      "inputs": [
        {
          "internalType": "contract IUniswapV3Pool",
          "name": "pool",
          "type": "address"
        },
        {
          "internalType": "uint32",
          "name": "period",
          "type": "uint32"
        }
      ],
      "name": "_consult",
      "outputs": [
        {
          "internalType": "int24",
          "name": "timeWeightedAverageTick",
          "type": "int24"
        }
      ],
      "stateMutability": "view",
      "type": "function"
    },
    {
      "inputs": [
        {
          "internalType": "int24",
          "name": "tick",
          "type": "int24"
        },
        {
          "internalType": "uint256",
          "name": "baseAmount",
          "type": "uint256"
        },
        {
          "internalType": "uint256",
          "name": "multiply",
          "type": "uint256"
        }
      ],
      "name": "_getQuoteAtTick",
      "outputs": [
        {
          "internalType": "uint256",
          "name": "quoteAmount",
          "type": "uint256"
        }
      ],
      "stateMutability": "view",
      "type": "function"
    }
  ],
  "bytecode": "0x608060405234801561001057600080fd5b50610ee0806100206000396000f3fe608060405234801561001057600080fd5b50600436106100365760003560e01c806393a8ae841461003b578063ec1b759e14610066575b600080fd5b61004e610049366004610a37565b610087565b60405160029190910b81526020015b60405180910390f35b610079610074366004610a79565b610274565b60405190815260200161005d565b6040805160028082526060820183526000928392919060208301908036833701905050905082816000815181106100c0576100c0610e27565b602002602001019063ffffffff16908163ffffffff16815250506000816001815181106100ef576100ef610e27565b63ffffffff909216602092830291909101909101526040517f883bdbfd00000000000000000000000000000000000000000000000000000000815260009073ffffffffffffffffffffffffffffffffffffffff86169063883bdbfd90610159908590600401610ab4565b60006040518083038186803b15801561017157600080fd5b505afa158015610185573d6000803e3d6000fd5b505050506040513d6000823e601f3d9081017fffffffffffffffffffffffffffffffffffffffffffffffffffffffffffffffe01682016040526101cb9190810190610965565b5090506000816000815181106101e3576101e3610e27565b6020026020010151826001815181106101fe576101fe610e27565b60200260200101516102109190610c4e565b905060008560030b121561022657610226610d9a565b610234600386900b82610b89565b935060008160060b1280156102585750610252600386900b82610d2b565b60060b15155b1561026b578361026781610ccd565b9450505b50505092915050565b600080610280856102be565b9050826001146102a25761029d670de0b6b3a76400008583610750565b6102b5565b6102b58185670de0b6b3a7640000610750565b95945050505050565b60008060008360020b126102d5578260020b6102e2565b8260020b6102e290610d61565b9050620d89e8811115610355576040517f08c379a000000000000000000000000000000000000000000000000000000000815260206004820152600160248201527f5400000000000000000000000000000000000000000000000000000000000000604482015260640160405180910390fd5b60006001821661037657700100000000000000000000000000000000610388565b6ffff97272373d413259a46990580e213a5b70ffffffffffffffffffffffffffffffffff16905060028216156103c75760806103c2826ffff2e50f5f656932ef12357cf3c7fdcc610c11565b901c90505b60048216156103f15760806103ec826fffe5caca7e10e4e61c3624eaa0941cd0610c11565b901c90505b600882161561041b576080610416826fffcb9843d60f6159c9db58835c926644610c11565b901c90505b6010821615610445576080610440826fff973b41fa98c081472e6896dfb254c0610c11565b901c90505b602082161561046f57608061046a826fff2ea16466c96a3843ec78b326b52861610c11565b901c90505b6040821615610499576080610494826ffe5dee046a99a2a811c461f1969c3053610c11565b901c90505b60808216156104c35760806104be826ffcbe86c7900a88aedcffc83b479aa3a4610c11565b901c90505b6101008216156104ee5760806104e9826ff987a7253ac413176f2b074cf7815e54610c11565b901c90505b610200821615610519576080610514826ff3392b0822b70005940c7a398e4b70f3610c11565b901c90505b61040082161561054457608061053f826fe7159475a2c29b7443b29c7fa6e889d9610c11565b901c90505b61080082161561056f57608061056a826fd097f3bdfd2022b8845ad8f792aa5825610c11565b901c90505b61100082161561059a576080610595826fa9f746462d870fdf8a65dc1f90e061e5610c11565b901c90505b6120008216156105c55760806105c0826f70d869a156d2a1b890bb3df62baf32f7610c11565b901c90505b6140008216156105f05760806105eb826f31be135f97d08fd981231505542fcfa6610c11565b901c90505b61800082161561061b576080610616826f09aa508b5b7a84e1c677de54f3e99bc9610c11565b901c90505b62010000821615610646576080610641826e5d6af8dedb81196699c329225ee604610c11565b901c90505b6202000082161561067057608061066b826d2216e584f5fa1ea926041bedfe98610c11565b901c90505b62040000821615610698576080610693826b048a170391f7dc42444e8fa2610c11565b901c90505b620800008216156106bb5760806106b68266149b34ee7ac262610c11565b901c90505b60008460020b13156106f4576106f1817fffffffffffffffffffffffffffffffffffffffffffffffffffffffffffffffff610bfd565b90505b60006107096820000000000000000083610d4d565b15610715576001610718565b60005b6107299060ff16604584901c610b71565b905067080000000000000061074682670de0b6b3a7640000610c11565b6102b59190610bfd565b600080807fffffffffffffffffffffffffffffffffffffffffffffffffffffffffffffffff85870985870292508281108382030391505080600014156107a8576000841161079d57600080fd5b5082900490506108e3565b8084116107b457600080fd5b60008486880980840393811190920391905060006107d486196001610b71565b86169586900495938490049360008190030460010190506107f58184610c11565b909317926000610806876003610c11565b60021890506108158188610c11565b610820906002610cb6565b61082a9082610c11565b90506108368188610c11565b610841906002610cb6565b61084b9082610c11565b90506108578188610c11565b610862906002610cb6565b61086c9082610c11565b90506108788188610c11565b610883906002610cb6565b61088d9082610c11565b90506108998188610c11565b6108a4906002610cb6565b6108ae9082610c11565b90506108ba8188610c11565b6108c5906002610cb6565b6108cf9082610c11565b90506108db8186610c11565b955050505050505b9392505050565b600082601f8301126108fb57600080fd5b8151602061091061090b83610b4d565b610afe565b80838252828201915082860187848660051b890101111561093057600080fd5b60005b8581101561095857815161094681610e85565b84529284019290840190600101610933565b5090979650505050505050565b6000806040838503121561097857600080fd5b825167ffffffffffffffff8082111561099057600080fd5b818501915085601f8301126109a457600080fd5b815160206109b461090b83610b4d565b8083825282820191508286018a848660051b89010111156109d457600080fd5b600096505b84871015610a065780518060060b81146109f257600080fd5b8352600196909601959183019183016109d9565b5091880151919650909350505080821115610a2057600080fd5b50610a2d858286016108ea565b9150509250929050565b60008060408385031215610a4a57600080fd5b8235610a5581610e85565b9150602083013563ffffffff81168114610a6e57600080fd5b809150509250929050565b600080600060608486031215610a8e57600080fd5b83358060020b8114610a9f57600080fd5b95602085013595506040909401359392505050565b6020808252825182820181905260009190848201906040850190845b81811015610af257835163ffffffff1683529284019291840191600101610ad0565b50909695505050505050565b604051601f82017fffffffffffffffffffffffffffffffffffffffffffffffffffffffffffffffe016810167ffffffffffffffff81118282101715610b4557610b45610e56565b604052919050565b600067ffffffffffffffff821115610b6757610b67610e56565b5060051b60200190565b60008219821115610b8457610b84610dc9565b500190565b60008160060b8360060b80610ba057610ba0610df8565b7fffffffffffffffffffffffffffffffffffffffffffffffffffffffffffffffff81147fffffffffffffffffffffffffffffffffffffffffffffffffff8000000000000083141615610bf457610bf4610dc9565b90059392505050565b600082610c0c57610c0c610df8565b500490565b6000817fffffffffffffffffffffffffffffffffffffffffffffffffffffffffffffffff0483118215151615610c4957610c49610dc9565b500290565b60008160060b8360060b60008112817fffffffffffffffffffffffffffffffffffffffffffffffffff8000000000000001831281151615610c9157610c91610dc9565b81667fffffffffffff018313811615610cac57610cac610dc9565b5090039392505050565b600082821015610cc857610cc8610dc9565b500390565b60008160020b7fffffffffffffffffffffffffffffffffffffffffffffffffffffffffff800000811415610d0357610d03610dc9565b7fffffffffffffffffffffffffffffffffffffffffffffffffffffffffffffffff0192915050565b60008260060b80610d3e57610d3e610df8565b808360060b0791505092915050565b600082610d5c57610d5c610df8565b500690565b60007f8000000000000000000000000000000000000000000000000000000000000000821415610d9357610d93610dc9565b5060000390565b7f4e487b7100000000000000000000000000000000000000000000000000000000600052600160045260246000fd5b7f4e487b7100000000000000000000000000000000000000000000000000000000600052601160045260246000fd5b7f4e487b7100000000000000000000000000000000000000000000000000000000600052601260045260246000fd5b7f4e487b7100000000000000000000000000000000000000000000000000000000600052603260045260246000fd5b7f4e487b7100000000000000000000000000000000000000000000000000000000600052604160045260246000fd5b73ffffffffffffffffffffffffffffffffffffffff81168114610ea757600080fd5b5056fea2646970667358221220c5db738355fcba55d2e598600aa2d3b4d4bfa6e7b7bd531148fc187a760696bc64736f6c63430008070033",
  "linkReferences": {},
  "deployedLinkReferences": {}
}