{
  "_format": "hh-sol-artifact-1",
  "contractName": "OracleChainlinkMulti",
  "sourceName": "contracts/oracle/OracleChainlinkMulti.sol",
  "abi": [
    {
      "inputs": [
        {
          "internalType": "address[]",
          "name": "_circuitChainlink",
          "type": "address[]"
        },
        {
          "internalType": "uint8[]",
          "name": "_circuitChainIsMultiplied",
          "type": "uint8[]"
        },
        {
          "internalType": "uint256",
          "name": "_inBase",
          "type": "uint256"
        },
        {
          "internalType": "uint32",
          "name": "stalePeriod",
          "type": "uint32"
        },
        {
          "internalType": "address[]",
          "name": "guardians",
          "type": "address[]"
        },
        {
          "internalType": "bytes32",
          "name": "_description",
          "type": "bytes32"
        }
      ],
      "stateMutability": "nonpayable",
      "type": "constructor"
    },
    {
      "anonymous": false,
      "inputs": [
        {
          "indexed": true,
          "internalType": "bytes32",
          "name": "role",
          "type": "bytes32"
        },
        {
          "indexed": true,
          "internalType": "bytes32",
          "name": "previousAdminRole",
          "type": "bytes32"
        },
        {
          "indexed": true,
          "internalType": "bytes32",
          "name": "newAdminRole",
          "type": "bytes32"
        }
      ],
      "name": "RoleAdminChanged",
      "type": "event"
    },
    {
      "anonymous": false,
      "inputs": [
        {
          "indexed": true,
          "internalType": "bytes32",
          "name": "role",
          "type": "bytes32"
        },
        {
          "indexed": true,
          "internalType": "address",
          "name": "account",
          "type": "address"
        },
        {
          "indexed": true,
          "internalType": "address",
          "name": "sender",
          "type": "address"
        }
      ],
      "name": "RoleGranted",
      "type": "event"
    },
    {
      "anonymous": false,
      "inputs": [
        {
          "indexed": true,
          "internalType": "bytes32",
          "name": "role",
          "type": "bytes32"
        },
        {
          "indexed": true,
          "internalType": "address",
          "name": "account",
          "type": "address"
        },
        {
          "indexed": true,
          "internalType": "address",
          "name": "sender",
          "type": "address"
        }
      ],
      "name": "RoleRevoked",
      "type": "event"
    },
    {
      "inputs": [],
      "name": "BASE",
      "outputs": [
        {
          "internalType": "uint256",
          "name": "",
          "type": "uint256"
        }
      ],
      "stateMutability": "view",
      "type": "function"
    },
    {
      "inputs": [],
      "name": "DEFAULT_ADMIN_ROLE",
      "outputs": [
        {
          "internalType": "bytes32",
          "name": "",
          "type": "bytes32"
        }
      ],
      "stateMutability": "view",
      "type": "function"
    },
    {
      "inputs": [],
      "name": "GUARDIAN_ROLE_CHAINLINK",
      "outputs": [
        {
          "internalType": "bytes32",
          "name": "",
          "type": "bytes32"
        }
      ],
      "stateMutability": "view",
      "type": "function"
    },
    {
      "inputs": [
        {
          "internalType": "uint256",
          "name": "",
          "type": "uint256"
        }
      ],
      "name": "chainlinkDecimals",
      "outputs": [
        {
          "internalType": "uint8",
          "name": "",
          "type": "uint8"
        }
      ],
      "stateMutability": "view",
      "type": "function"
    },
    {
      "inputs": [
        {
          "internalType": "uint32",
          "name": "_stalePeriod",
          "type": "uint32"
        }
      ],
      "name": "changeStalePeriod",
      "outputs": [],
      "stateMutability": "nonpayable",
      "type": "function"
    },
    {
      "inputs": [
        {
          "internalType": "uint256",
          "name": "",
          "type": "uint256"
        }
      ],
      "name": "circuitChainIsMultiplied",
      "outputs": [
        {
          "internalType": "uint8",
          "name": "",
          "type": "uint8"
        }
      ],
      "stateMutability": "view",
      "type": "function"
    },
    {
      "inputs": [
        {
          "internalType": "uint256",
          "name": "",
          "type": "uint256"
        }
      ],
      "name": "circuitChainlink",
      "outputs": [
        {
          "internalType": "contract AggregatorV3Interface",
          "name": "",
          "type": "address"
        }
      ],
      "stateMutability": "view",
      "type": "function"
    },
    {
      "inputs": [],
      "name": "description",
      "outputs": [
        {
          "internalType": "bytes32",
          "name": "",
          "type": "bytes32"
        }
      ],
      "stateMutability": "view",
      "type": "function"
    },
    {
      "inputs": [
        {
          "internalType": "bytes32",
          "name": "role",
          "type": "bytes32"
        }
      ],
      "name": "getRoleAdmin",
      "outputs": [
        {
          "internalType": "bytes32",
          "name": "",
          "type": "bytes32"
        }
      ],
      "stateMutability": "view",
      "type": "function"
    },
    {
      "inputs": [
        {
          "internalType": "bytes32",
          "name": "role",
          "type": "bytes32"
        },
        {
          "internalType": "address",
          "name": "account",
          "type": "address"
        }
      ],
      "name": "grantRole",
      "outputs": [],
      "stateMutability": "nonpayable",
      "type": "function"
    },
    {
      "inputs": [
        {
          "internalType": "bytes32",
          "name": "role",
          "type": "bytes32"
        },
        {
          "internalType": "address",
          "name": "account",
          "type": "address"
        }
      ],
      "name": "hasRole",
      "outputs": [
        {
          "internalType": "bool",
          "name": "",
          "type": "bool"
        }
      ],
      "stateMutability": "view",
      "type": "function"
    },
    {
      "inputs": [],
      "name": "inBase",
      "outputs": [
        {
          "internalType": "uint256",
          "name": "",
          "type": "uint256"
        }
      ],
      "stateMutability": "view",
      "type": "function"
    },
    {
      "inputs": [],
      "name": "read",
      "outputs": [
        {
          "internalType": "uint256",
          "name": "rate",
          "type": "uint256"
        }
      ],
      "stateMutability": "view",
      "type": "function"
    },
    {
      "inputs": [],
      "name": "readAll",
      "outputs": [
        {
          "internalType": "uint256",
          "name": "",
          "type": "uint256"
        },
        {
          "internalType": "uint256",
          "name": "",
          "type": "uint256"
        }
      ],
      "stateMutability": "view",
      "type": "function"
    },
    {
      "inputs": [],
      "name": "readLower",
      "outputs": [
        {
          "internalType": "uint256",
          "name": "rate",
          "type": "uint256"
        }
      ],
      "stateMutability": "view",
      "type": "function"
    },
    {
      "inputs": [
        {
          "internalType": "uint256",
          "name": "quoteAmount",
          "type": "uint256"
        }
      ],
      "name": "readQuote",
      "outputs": [
        {
          "internalType": "uint256",
          "name": "",
          "type": "uint256"
        }
      ],
      "stateMutability": "view",
      "type": "function"
    },
    {
      "inputs": [
        {
          "internalType": "uint256",
          "name": "quoteAmount",
          "type": "uint256"
        }
      ],
      "name": "readQuoteLower",
      "outputs": [
        {
          "internalType": "uint256",
          "name": "",
          "type": "uint256"
        }
      ],
      "stateMutability": "view",
      "type": "function"
    },
    {
      "inputs": [],
      "name": "readUpper",
      "outputs": [
        {
          "internalType": "uint256",
          "name": "rate",
          "type": "uint256"
        }
      ],
      "stateMutability": "view",
      "type": "function"
    },
    {
      "inputs": [
        {
          "internalType": "bytes32",
          "name": "role",
          "type": "bytes32"
        },
        {
          "internalType": "address",
          "name": "account",
          "type": "address"
        }
      ],
      "name": "renounceRole",
      "outputs": [],
      "stateMutability": "nonpayable",
      "type": "function"
    },
    {
      "inputs": [
        {
          "internalType": "bytes32",
          "name": "role",
          "type": "bytes32"
        },
        {
          "internalType": "address",
          "name": "account",
          "type": "address"
        }
      ],
      "name": "revokeRole",
      "outputs": [],
      "stateMutability": "nonpayable",
      "type": "function"
    },
    {
      "inputs": [],
      "name": "stalePeriod",
      "outputs": [
        {
          "internalType": "uint32",
          "name": "",
          "type": "uint32"
        }
      ],
      "stateMutability": "view",
      "type": "function"
    }
  ],
  "bytecode": "0x60806040523480156200001157600080fd5b5060405162001a4938038062001a498339810160408190526200003491620005d5565b85858484600084519050600081116200007a5760405162461bcd60e51b815260206004820152600360248201526218981b60e91b60448201526064015b60405180910390fd5b83518114620000b25760405162461bcd60e51b81526020600482015260036024820152620c4c0d60ea1b604482015260640162000071565b6000825111620000eb5760405162461bcd60e51b815260206004820152600360248201526231303160e81b604482015260640162000071565b60005b8251811015620001af5760006001600160a01b03168382815181106200011857620001186200079e565b60200260200101516001600160a01b031614156200015d5760405162461bcd60e51b81526020600482015260016024820152600360fc1b604482015260640162000071565b6200019a60008051602062001a298339815191528483815181106200018657620001866200079e565b60200260200101516200034c60201b60201c565b80620001a68162000774565b915050620000ee565b50620001cb60008051602062001a29833981519152806200035c565b60005b8181101562000307576000868281518110620001ee57620001ee6200079e565b6020908102919091018101516004805460018101825560008290527f8a35acfbc15ff81a39ae7d344fd709f28e8600b4aa8c65c6b64bfe7fe36bd19b0180546001600160a01b0319166001600160a01b0384169081179091556040805163313ce56760e01b81529051939550600694919363313ce567938281019392829003018186803b1580156200027f57600080fd5b505afa15801562000294573d6000803e3d6000fd5b505050506040513d601f19601f82011682018060405250810190620002ba9190620006f6565b81546001810183556000928352602092839020928104909201805460ff928316601f9094166101000a93840292909302199092161790555080620002fe8162000774565b915050620001ce565b506003805463ffffffff191663ffffffff851617905583516200033290600590602087019062000454565b505050600096909655505060015550620007ca9350505050565b620003588282620003b0565b5050565b600082815260026020526040902060010154819060405184907fbd79b86ffe0ab8e8776151514217cd7cacd52c909f66475c3af44e129f0b00ff90600090a460009182526002602052604090912060010155565b60008281526002602090815260408083206001600160a01b038516845290915290205460ff16620003585760008281526002602090815260408083206001600160a01b03851684529091529020805460ff19166001179055620004103390565b6001600160a01b0316816001600160a01b0316837f2f8788117e7eff1d82e926ec794901d17c78024a50270940304540a733656f0d60405160405180910390a45050565b82805482825590600052602060002090601f01602090048101928215620004ef5791602002820160005b83821115620004be57835183826101000a81548160ff021916908360ff16021790555092602001926001016020816000010492830192600103026200047e565b8015620004ed5782816101000a81549060ff0219169055600101602081600001049283019260010302620004be565b505b50620004fd92915062000501565b5090565b5b80821115620004fd576000815560010162000502565b600082601f8301126200052a57600080fd5b81516020620005436200053d836200074e565b6200071b565b80838252828201915082860187848660051b89010111156200056457600080fd5b6000805b868110156200059b5782516001600160a01b038116811462000588578283fd5b8552938501939185019160010162000568565b509198975050505050505050565b805163ffffffff81168114620005be57600080fd5b919050565b805160ff81168114620005be57600080fd5b60008060008060008060c08789031215620005ef57600080fd5b86516001600160401b03808211156200060757600080fd5b620006158a838b0162000518565b97506020915081890151818111156200062d57600080fd5b8901601f81018b136200063f57600080fd5b8051620006506200053d826200074e565b8082825285820191508584018e878560051b87010111156200067157600080fd5b600094505b838510156200069f576200068a81620005c3565b83526001949094019391860191860162000676565b50809a505050505060408901519550620006bc60608a01620005a9565b94506080890151915080821115620006d357600080fd5b50620006e289828a0162000518565b92505060a087015190509295509295509295565b6000602082840312156200070957600080fd5b6200071482620005c3565b9392505050565b604051601f8201601f191681016001600160401b0381118282101715620007465762000746620007b4565b604052919050565b60006001600160401b038211156200076a576200076a620007b4565b5060051b60200190565b60006000198214156200079757634e487b7160e01b600052601160045260246000fd5b5060010190565b634e487b7160e01b600052603260045260246000fd5b634e487b7160e01b600052604160045260246000fd5b61124f80620007da6000396000f3fe608060405234801561001057600080fd5b50600436106101775760003560e01c80637284e416116100d8578063a217fddf1161008c578063d547741f11610066578063d547741f14610361578063dbda63de14610374578063ec342ad01461038757600080fd5b8063a217fddf146102fc578063a5b36a3614610304578063cf330c261461032957600080fd5b806392611e33116100bd57806392611e33146102c65780639aefb5c3146102ce5780639e0a8500146102d757600080fd5b80637284e4161461026757806391d148541461027057600080fd5b806336568abe1161012f578063442133bd11610114578063442133bd1461024457806357de26a41461024c578063630914d11461025457600080fd5b806336568abe1461021457806341f654f71461022757600080fd5b8063248a9ca311610160578063248a9ca3146101c95780632f2ff15d146101ec5780633593ba7b1461020157600080fd5b80630942d09a1461017c578063240fd5ab146101b6575b600080fd5b6101a37f55435dd261a4b9b3364963f7738a7a662ad9c84396d64be3365284bb7f0a504181565b6040519081526020015b60405180910390f35b6101a36101c4366004610d76565b610396565b6101a36101d7366004610d76565b60009081526002602052604090206001015490565b6101ff6101fa366004610d8f565b6103a7565b005b6101a361020f366004610d76565b6103d2565b6101ff610222366004610d8f565b6103e6565b61022f610478565b604080519283526020830191909152016101ad565b6101a361048e565b6101a361049b565b6101ff610262366004610dd8565b6104b4565b6101a360015481565b6102b661027e366004610d8f565b600091825260026020908152604080842073ffffffffffffffffffffffffffffffffffffffff93909316845291905290205460ff1690565b60405190151581526020016101ad565b6101a3610517565b6101a360005481565b6102ea6102e5366004610d76565b610524565b60405160ff90911681526020016101ad565b6101a3600081565b6003546103149063ffffffff1681565b60405163ffffffff90911681526020016101ad565b61033c610337366004610d76565b610558565b60405173ffffffffffffffffffffffffffffffffffffffff90911681526020016101ad565b6101ff61036f366004610d8f565b61058f565b6102ea610382366004610d76565b6105b5565b6101a3670de0b6b3a764000081565b60006103a1826105c5565b92915050565b6000828152600260205260409020600101546103c381336105f7565b6103cd83836106c9565b505050565b6000806103de836107bd565b509392505050565b73ffffffffffffffffffffffffffffffffffffffff8116331461046a576040517f08c379a000000000000000000000000000000000000000000000000000000000815260206004820152600260248201527f373100000000000000000000000000000000000000000000000000000000000060448201526064015b60405180910390fd5b61047482826107d5565b5050565b6000806104866000546107bd565b915091509091565b60006103a16000546107bd565b60006104ae670de0b6b3a7640000610890565b50919050565b7f55435dd261a4b9b3364963f7738a7a662ad9c84396d64be3365284bb7f0a50416104df81336105f7565b50600380547fffffffffffffffffffffffffffffffffffffffffffffffffffffffff000000001663ffffffff92909216919091179055565b60006104ae6000546107bd565b6005818154811061053457600080fd5b9060005260206000209060209182820401919006915054906101000a900460ff1681565b6004818154811061056857600080fd5b60009182526020909120015473ffffffffffffffffffffffffffffffffffffffff16905081565b6000828152600260205260409020600101546105ab81336105f7565b6103cd83836107d5565b6006818154811061053457600080fd5b600080546105db670de0b6b3a76400008461109a565b6105e59190610f38565b91506105f082610890565b5092915050565b600082815260026020908152604080832073ffffffffffffffffffffffffffffffffffffffff8516845290915290205460ff166104745761064f8173ffffffffffffffffffffffffffffffffffffffff166014610965565b61065a836020610965565b60405160200161066b929190610e4e565b604080517fffffffffffffffffffffffffffffffffffffffffffffffffffffffffffffffe0818403018152908290527f08c379a000000000000000000000000000000000000000000000000000000000825261046191600401610ecf565b600082815260026020908152604080832073ffffffffffffffffffffffffffffffffffffffff8516845290915290205460ff1661047457600082815260026020908152604080832073ffffffffffffffffffffffffffffffffffffffff85168452909152902080547fffffffffffffffffffffffffffffffffffffffffffffffffffffffffffffff0016600117905561075f3390565b73ffffffffffffffffffffffffffffffffffffffff168173ffffffffffffffffffffffffffffffffffffffff16837f2f8788117e7eff1d82e926ec794901d17c78024a50270940304540a733656f0d60405160405180910390a45050565b60008060006107cb846105c5565b9485945092505050565b600082815260026020908152604080832073ffffffffffffffffffffffffffffffffffffffff8516845290915290205460ff161561047457600082815260026020908152604080832073ffffffffffffffffffffffffffffffffffffffff8516808552925280832080547fffffffffffffffffffffffffffffffffffffffffffffffffffffffffffffff0016905551339285917ff6391f5c32d9c69d2a47ea670b442974b53935d1edc7fd64eb21e047a839171b9190a45050565b60008080805b60045481101561095d5761094685600483815481106108b7576108b76111bb565b6000918252602090912001546005805473ffffffffffffffffffffffffffffffffffffffff90921691859081106108f0576108f06111bb565b90600052602060002090602091828204019190069054906101000a900460ff1660068581548110610923576109236111bb565b60009182526020808320908204015460ff601f9092166101000a90041690610baf565b90955091508061095581611153565b915050610896565b509293915050565b6060600061097483600261109a565b61097f906002610f20565b67ffffffffffffffff811115610997576109976111ea565b6040519080825280601f01601f1916602001820160405280156109c1576020820181803683370190505b5090507f3000000000000000000000000000000000000000000000000000000000000000816000815181106109f8576109f86111bb565b60200101907effffffffffffffffffffffffffffffffffffffffffffffffffffffffffffff1916908160001a9053507f780000000000000000000000000000000000000000000000000000000000000081600181518110610a5b57610a5b6111bb565b60200101907effffffffffffffffffffffffffffffffffffffffffffffffffffffffffffff1916908160001a9053506000610a9784600261109a565b610aa2906001610f20565b90505b6001811115610b3f577f303132333435363738396162636465660000000000000000000000000000000085600f1660108110610ae357610ae36111bb565b1a60f81b828281518110610af957610af96111bb565b60200101907effffffffffffffffffffffffffffffffffffffffffffffffffffffffffffff1916908160001a90535060049490941c93610b388161111e565b9050610aa5565b508315610ba8576040517f08c379a000000000000000000000000000000000000000000000000000000000815260206004820181905260248201527f537472696e67733a20686578206c656e67746820696e73756666696369656e746044820152606401610461565b9392505050565b60008082610cf6576000806000808973ffffffffffffffffffffffffffffffffffffffff1663feaf968c6040518163ffffffff1660e01b815260040160a06040518083038186803b158015610c0357600080fd5b505afa158015610c17573d6000803e3d6000fd5b505050506040513d601f19601f82011682018060405250810190610c3b9190610dfe565b945094505093509350600083138015610c6c57508069ffffffffffffffffffff168469ffffffffffffffffffff1611155b8015610c89575060035463ffffffff16610c8683426110d7565b11155b610cef576040517f08c379a000000000000000000000000000000000000000000000000000000000815260206004820152600360248201527f31303000000000000000000000000000000000000000000000000000000000006044820152606401610461565b5090945050505b8460ff1660011415610d2857610d0d84600a610fd4565b610d17848961109a565b610d219190610f38565b9650610d4b565b82610d3485600a610fd4565b610d3e908961109a565b610d489190610f38565b96505b50949590945092505050565b805169ffffffffffffffffffff81168114610d7157600080fd5b919050565b600060208284031215610d8857600080fd5b5035919050565b60008060408385031215610da257600080fd5b82359150602083013573ffffffffffffffffffffffffffffffffffffffff81168114610dcd57600080fd5b809150509250929050565b600060208284031215610dea57600080fd5b813563ffffffff81168114610ba857600080fd5b600080600080600060a08688031215610e1657600080fd5b610e1f86610d57565b9450602086015193506040860151925060608601519150610e4260808701610d57565b90509295509295909350565b7f416363657373436f6e74726f6c3a206163636f756e7420000000000000000000815260008351610e868160178501602088016110ee565b7f206973206d697373696e6720726f6c65200000000000000000000000000000006017918401918201528351610ec38160288401602088016110ee565b01602801949350505050565b6020815260008251806020840152610eee8160408501602087016110ee565b601f017fffffffffffffffffffffffffffffffffffffffffffffffffffffffffffffffe0169190910160400192915050565b60008219821115610f3357610f3361118c565b500190565b600082610f6e577f4e487b7100000000000000000000000000000000000000000000000000000000600052601260045260246000fd5b500490565b600181815b80851115610fcc57817fffffffffffffffffffffffffffffffffffffffffffffffffffffffffffffffff04821115610fb257610fb261118c565b80851615610fbf57918102915b93841c9390800290610f78565b509250929050565b6000610ba88383600082610fea575060016103a1565b81610ff7575060006103a1565b816001811461100d576002811461101757611033565b60019150506103a1565b60ff8411156110285761102861118c565b50506001821b6103a1565b5060208310610133831016604e8410600b8410161715611056575081810a6103a1565b6110608383610f73565b807fffffffffffffffffffffffffffffffffffffffffffffffffffffffffffffffff048211156110925761109261118c565b029392505050565b6000817fffffffffffffffffffffffffffffffffffffffffffffffffffffffffffffffff04831182151516156110d2576110d261118c565b500290565b6000828210156110e9576110e961118c565b500390565b60005b838110156111095781810151838201526020016110f1565b83811115611118576000848401525b50505050565b60008161112d5761112d61118c565b507fffffffffffffffffffffffffffffffffffffffffffffffffffffffffffffffff0190565b60007fffffffffffffffffffffffffffffffffffffffffffffffffffffffffffffffff8214156111855761118561118c565b5060010190565b7f4e487b7100000000000000000000000000000000000000000000000000000000600052601160045260246000fd5b7f4e487b7100000000000000000000000000000000000000000000000000000000600052603260045260246000fd5b7f4e487b7100000000000000000000000000000000000000000000000000000000600052604160045260246000fdfea264697066735822122004690c83b714e20f4d57dc16285015c773b9da88fde51343cddafcf9aedc465564736f6c6343000807003355435dd261a4b9b3364963f7738a7a662ad9c84396d64be3365284bb7f0a5041",
  "linkReferences": {},
  "deployedLinkReferences": {}
}