{
  "_format": "hh-sol-artifact-1",
  "contractName": "StableMasterStorage",
  "sourceName": "contracts/stableMaster/StableMasterStorage.sol",
  "abi": [
    {
      "anonymous": false,
      "inputs": [
        {
          "indexed": true,
          "internalType": "address",
          "name": "_poolManager",
          "type": "address"
        },
        {
          "indexed": false,
          "internalType": "uint256",
          "name": "amount",
          "type": "uint256"
        },
        {
          "indexed": false,
          "internalType": "uint256",
          "name": "redeemInC",
          "type": "uint256"
        }
      ],
      "name": "BurntStablecoins",
      "type": "event"
    },
    {
      "anonymous": false,
      "inputs": [
        {
          "indexed": true,
          "internalType": "address",
          "name": "_poolManager",
          "type": "address"
        },
        {
          "indexed": false,
          "internalType": "uint256",
          "name": "_capOnStableMinted",
          "type": "uint256"
        },
        {
          "indexed": false,
          "internalType": "uint256",
          "name": "_maxInterestsDistributed",
          "type": "uint256"
        }
      ],
      "name": "CapOnStableAndMaxInterestsUpdated",
      "type": "event"
    },
    {
      "anonymous": false,
      "inputs": [
        {
          "indexed": true,
          "internalType": "address",
          "name": "_poolManager",
          "type": "address"
        },
        {
          "indexed": true,
          "internalType": "address",
          "name": "_perpetualManager",
          "type": "address"
        },
        {
          "indexed": true,
          "internalType": "address",
          "name": "_sanToken",
          "type": "address"
        },
        {
          "indexed": false,
          "internalType": "address",
          "name": "_oracle",
          "type": "address"
        }
      ],
      "name": "CollateralDeployed",
      "type": "event"
    },
    {
      "anonymous": false,
      "inputs": [
        {
          "indexed": true,
          "internalType": "address",
          "name": "_poolManager",
          "type": "address"
        }
      ],
      "name": "CollateralRevoked",
      "type": "event"
    },
    {
      "anonymous": false,
      "inputs": [
        {
          "indexed": true,
          "internalType": "address",
          "name": "_poolManager",
          "type": "address"
        },
        {
          "indexed": false,
          "internalType": "uint64[]",
          "name": "_xFee",
          "type": "uint64[]"
        },
        {
          "indexed": false,
          "internalType": "uint64[]",
          "name": "_yFee",
          "type": "uint64[]"
        },
        {
          "indexed": false,
          "internalType": "uint8",
          "name": "_type",
          "type": "uint8"
        }
      ],
      "name": "FeeArrayUpdated",
      "type": "event"
    },
    {
      "anonymous": false,
      "inputs": [
        {
          "indexed": true,
          "internalType": "address",
          "name": "_poolManager",
          "type": "address"
        },
        {
          "indexed": true,
          "internalType": "address",
          "name": "newFeeManager",
          "type": "address"
        }
      ],
      "name": "FeeManagerUpdated",
      "type": "event"
    },
    {
      "anonymous": false,
      "inputs": [
        {
          "indexed": true,
          "internalType": "address",
          "name": "_poolManager",
          "type": "address"
        },
        {
          "indexed": false,
          "internalType": "uint256",
          "name": "amount",
          "type": "uint256"
        },
        {
          "indexed": false,
          "internalType": "uint256",
          "name": "amountForUserInStable",
          "type": "uint256"
        }
      ],
      "name": "MintedStablecoins",
      "type": "event"
    },
    {
      "anonymous": false,
      "inputs": [
        {
          "indexed": true,
          "internalType": "address",
          "name": "_poolManager",
          "type": "address"
        },
        {
          "indexed": true,
          "internalType": "address",
          "name": "_oracle",
          "type": "address"
        }
      ],
      "name": "OracleUpdated",
      "type": "event"
    },
    {
      "anonymous": false,
      "inputs": [
        {
          "indexed": true,
          "internalType": "address",
          "name": "_poolManager",
          "type": "address"
        },
        {
          "indexed": false,
          "internalType": "uint64",
          "name": "_feesForSLPs",
          "type": "uint64"
        },
        {
          "indexed": false,
          "internalType": "uint64",
          "name": "_interestsForSLPs",
          "type": "uint64"
        }
      ],
      "name": "SLPsIncentivesUpdated",
      "type": "event"
    },
    {
      "anonymous": false,
      "inputs": [
        {
          "indexed": true,
          "internalType": "address",
          "name": "_token",
          "type": "address"
        },
        {
          "indexed": false,
          "internalType": "uint256",
          "name": "_newSanRate",
          "type": "uint256"
        }
      ],
      "name": "SanRateUpdated",
      "type": "event"
    },
    {
      "anonymous": false,
      "inputs": [
        {
          "indexed": true,
          "internalType": "address",
          "name": "_poolManager",
          "type": "address"
        },
        {
          "indexed": false,
          "internalType": "uint256",
          "name": "_stocksUsers",
          "type": "uint256"
        }
      ],
      "name": "StocksUsersUpdated",
      "type": "event"
    },
    {
      "inputs": [],
      "name": "BASE_PARAMS",
      "outputs": [
        {
          "internalType": "uint256",
          "name": "",
          "type": "uint256"
        }
      ],
      "stateMutability": "view",
      "type": "function"
    },
    {
      "inputs": [],
      "name": "BASE_TOKENS",
      "outputs": [
        {
          "internalType": "uint256",
          "name": "",
          "type": "uint256"
        }
      ],
      "stateMutability": "view",
      "type": "function"
    },
    {
      "inputs": [],
      "name": "agToken",
      "outputs": [
        {
          "internalType": "contract IAgToken",
          "name": "",
          "type": "address"
        }
      ],
      "stateMutability": "view",
      "type": "function"
    },
    {
      "inputs": [
        {
          "internalType": "contract IPoolManager",
          "name": "",
          "type": "address"
        }
      ],
      "name": "collateralMap",
      "outputs": [
        {
          "internalType": "contract IERC20",
          "name": "token",
          "type": "address"
        },
        {
          "internalType": "contract ISanToken",
          "name": "sanToken",
          "type": "address"
        },
        {
          "internalType": "contract IPerpetualManager",
          "name": "perpetualManager",
          "type": "address"
        },
        {
          "internalType": "contract IOracle",
          "name": "oracle",
          "type": "address"
        },
        {
          "internalType": "uint256",
          "name": "stocksUsers",
          "type": "uint256"
        },
        {
          "internalType": "uint256",
          "name": "sanRate",
          "type": "uint256"
        },
        {
          "internalType": "uint256",
          "name": "collatBase",
          "type": "uint256"
        },
        {
          "components": [
            {
              "internalType": "uint256",
              "name": "lastBlockUpdated",
              "type": "uint256"
            },
            {
              "internalType": "uint256",
              "name": "lockedInterests",
              "type": "uint256"
            },
            {
              "internalType": "uint256",
              "name": "maxInterestsDistributed",
              "type": "uint256"
            },
            {
              "internalType": "uint256",
              "name": "feesAside",
              "type": "uint256"
            },
            {
              "internalType": "uint64",
              "name": "slippageFee",
              "type": "uint64"
            },
            {
              "internalType": "uint64",
              "name": "feesForSLPs",
              "type": "uint64"
            },
            {
              "internalType": "uint64",
              "name": "slippage",
              "type": "uint64"
            },
            {
              "internalType": "uint64",
              "name": "interestsForSLPs",
              "type": "uint64"
            }
          ],
          "internalType": "struct SLPData",
          "name": "slpData",
          "type": "tuple"
        },
        {
          "components": [
            {
              "internalType": "uint64[]",
              "name": "xFeeMint",
              "type": "uint64[]"
            },
            {
              "internalType": "uint64[]",
              "name": "yFeeMint",
              "type": "uint64[]"
            },
            {
              "internalType": "uint64[]",
              "name": "xFeeBurn",
              "type": "uint64[]"
            },
            {
              "internalType": "uint64[]",
              "name": "yFeeBurn",
              "type": "uint64[]"
            },
            {
              "internalType": "uint64",
              "name": "targetHAHedge",
              "type": "uint64"
            },
            {
              "internalType": "uint64",
              "name": "bonusMalusMint",
              "type": "uint64"
            },
            {
              "internalType": "uint64",
              "name": "bonusMalusBurn",
              "type": "uint64"
            },
            {
              "internalType": "uint256",
              "name": "capOnStableMinted",
              "type": "uint256"
            }
          ],
          "internalType": "struct MintBurnData",
          "name": "feeData",
          "type": "tuple"
        }
      ],
      "stateMutability": "view",
      "type": "function"
    }
  ],
  "bytecode": "0x608060405234801561001057600080fd5b506106d4806100206000396000f3fe608060405234801561001057600080fd5b506004361061004c5760003560e01c80639f48118f14610051578063ba8b72231461006f578063df1b8bd314610097578063ee565a63146100a6575b600080fd5b61005c633b9aca0081565b6040519081526020015b60405180910390f35b61008261007d366004610468565b6100eb565b604051610066999897969594939291906105b9565b61005c670de0b6b3a764000081565b6001546100c69073ffffffffffffffffffffffffffffffffffffffff1681565b60405173ffffffffffffffffffffffffffffffffffffffff9091168152602001610066565b60006020818152918152604090819020805460018201546002830154600384015460048501546005860154600687015488516101008082018b5260078a0154825260088a0154828d015260098a0154828c0152600a8a01546060830152600b8a015467ffffffffffffffff8082166080850152680100000000000000008204811660a08501527001000000000000000000000000000000008204811660c085015278010000000000000000000000000000000000000000000000009091041660e08301528a51600c8b0180549d8e028201610120908101909d529181018d815273ffffffffffffffffffffffffffffffffffffffff9a8b169d998b169c988b169b9a909716999598949793969295949093919284929091849184018282801561026757602002820191906000526020600020906000905b82829054906101000a900467ffffffffffffffff1667ffffffffffffffff16815260200190600801906020826007010492830192600103820291508084116102225790505b50505050508152602001600182018054806020026020016040519081016040528092919081815260200182805480156102f357602002820191906000526020600020906000905b82829054906101000a900467ffffffffffffffff1667ffffffffffffffff16815260200190600801906020826007010492830192600103820291508084116102ae5790505b505050505081526020016002820180548060200260200160405190810160405280929190818152602001828054801561037f57602002820191906000526020600020906000905b82829054906101000a900467ffffffffffffffff1667ffffffffffffffff168152602001906008019060208260070104928301926001038202915080841161033a5790505b505050505081526020016003820180548060200260200160405190810160405280929190818152602001828054801561040b57602002820191906000526020600020906000905b82829054906101000a900467ffffffffffffffff1667ffffffffffffffff16815260200190600801906020826007010492830192600103820291508084116103c65790505b5050509183525050600482015467ffffffffffffffff808216602084015268010000000000000000820481166040840152700100000000000000000000000000000000909104166060820152600590910154608090910152905089565b60006020828403121561047a57600080fd5b813573ffffffffffffffffffffffffffffffffffffffff8116811461049e57600080fd5b9392505050565b600081518084526020808501945080840160005b838110156104df57815167ffffffffffffffff16875295820195908201906001016104b9565b509495945050505050565b60006101008251818552610500828601826104a5565b9150506020830151848203602086015261051a82826104a5565b9150506040830151848203604086015261053482826104a5565b9150506060830151848203606086015261054e82826104a5565b915050608083015161056c608086018267ffffffffffffffff169052565b5060a083015161058860a086018267ffffffffffffffff169052565b5060c08301516105a460c086018267ffffffffffffffff169052565b5060e083015160e08501528091505092915050565b600061020073ffffffffffffffffffffffffffffffffffffffff808d168452808c166020850152808b166040850152808a166060850152508760808401528660a08401528560c0840152845160e0840152602085015161010084015260408501516101208401526060850151610140840152608085015167ffffffffffffffff8082166101608601528060a0880151166101808601528060c0880151166101a0860152505060e085015161067a6101c085018267ffffffffffffffff169052565b50806101e084015261068e818401856104ea565b9c9b50505050505050505050505056fea264697066735822122002163d2e3c366554584b18e49b2c31cc23e5cb2d89e5bd635f264f052541e20a64736f6c63430008070033",
  "linkReferences": {},
  "deployedLinkReferences": {}
}