{
  "_format": "hh-sol-artifact-1",
  "contractName": "MockFeeDistributor",
  "sourceName": "contracts/mock/MockFeeDistributor.sol",
  "abi": [
    {
      "inputs": [],
      "stateMutability": "nonpayable",
      "type": "constructor"
    },
    {
      "inputs": [
        {
          "internalType": "address",
          "name": "token",
          "type": "address"
        }
      ],
      "name": "burn",
      "outputs": [],
      "stateMutability": "nonpayable",
      "type": "function"
    }
  ],
  "bytecode": "0x608060405234801561001057600080fd5b506105e9806100206000396000f3fe608060405234801561001057600080fd5b506004361061002b5760003560e01c806389afcb4414610030575b600080fd5b61004361003e3660046104a9565b610045565b005b6040517f70a08231000000000000000000000000000000000000000000000000000000008152336004820181905261010991309073ffffffffffffffffffffffffffffffffffffffff8516906370a082319060240160206040518083038186803b1580156100b257600080fd5b505afa1580156100c6573d6000803e3d6000fd5b505050506040513d601f19601f820116820180604052508101906100ea9190610501565b73ffffffffffffffffffffffffffffffffffffffff851692919061010c565b50565b6040805173ffffffffffffffffffffffffffffffffffffffff85811660248301528416604482015260648082018490528251808303909101815260849091019091526020810180517bffffffffffffffffffffffffffffffffffffffffffffffffffffffff167f23b872dd000000000000000000000000000000000000000000000000000000001790526101a19085906101a7565b50505050565b6000610209826040518060400160405280602081526020017f5361666545524332303a206c6f772d6c6576656c2063616c6c206661696c65648152508573ffffffffffffffffffffffffffffffffffffffff166102bd9092919063ffffffff16565b8051909150156102b8578080602001905181019061022791906104df565b6102b8576040517f08c379a000000000000000000000000000000000000000000000000000000000815260206004820152602a60248201527f5361666545524332303a204552433230206f7065726174696f6e20646964206e60448201527f6f7420737563636565640000000000000000000000000000000000000000000060648201526084015b60405180910390fd5b505050565b60606102cc84846000856102d6565b90505b9392505050565b606082471015610368576040517f08c379a000000000000000000000000000000000000000000000000000000000815260206004820152602660248201527f416464726573733a20696e73756666696369656e742062616c616e636520666f60448201527f722063616c6c000000000000000000000000000000000000000000000000000060648201526084016102af565b843b6103d0576040517f08c379a000000000000000000000000000000000000000000000000000000000815260206004820152601d60248201527f416464726573733a2063616c6c20746f206e6f6e2d636f6e747261637400000060448201526064016102af565b6000808673ffffffffffffffffffffffffffffffffffffffff1685876040516103f9919061051a565b60006040518083038185875af1925050503d8060008114610436576040519150601f19603f3d011682016040523d82523d6000602084013e61043b565b606091505b509150915061044b828286610456565b979650505050505050565b606083156104655750816102cf565b8251156104755782518084602001fd5b816040517f08c379a00000000000000000000000000000000000000000000000000000000081526004016102af9190610536565b6000602082840312156104bb57600080fd5b813573ffffffffffffffffffffffffffffffffffffffff811681146102cf57600080fd5b6000602082840312156104f157600080fd5b815180151581146102cf57600080fd5b60006020828403121561051357600080fd5b5051919050565b6000825161052c818460208701610587565b9190910192915050565b6020815260008251806020840152610555816040850160208701610587565b601f017fffffffffffffffffffffffffffffffffffffffffffffffffffffffffffffffe0169190910160400192915050565b60005b838110156105a257818101518382015260200161058a565b838111156101a1575050600091015256fea264697066735822122050a4dd07a0d3ca8a9847f0a9e72e403e00361e27c9b0f3f38440d796cdd7e14364736f6c63430008070033",
  "linkReferences": {},
  "deployedLinkReferences": {}
}