{
  "_format": "hh-sol-artifact-1",
  "contractName": "MockCurveStETHETH",
  "sourceName": "contracts/mock/MockCurveStETHETH.sol",
  "abi": [
    {
      "inputs": [
        {
          "internalType": "address",
          "name": "_stETH",
          "type": "address"
        }
      ],
      "stateMutability": "nonpayable",
      "type": "constructor"
    },
    {
      "inputs": [],
      "name": "dy",
      "outputs": [
        {
          "internalType": "uint256",
          "name": "",
          "type": "uint256"
        }
      ],
      "stateMutability": "view",
      "type": "function"
    },
    {
      "inputs": [
        {
          "internalType": "int128",
          "name": "from",
          "type": "int128"
        },
        {
          "internalType": "int128",
          "name": "to",
          "type": "int128"
        },
        {
          "internalType": "uint256",
          "name": "_from_amount",
          "type": "uint256"
        },
        {
          "internalType": "uint256",
          "name": "_min_to_amount",
          "type": "uint256"
        }
      ],
      "name": "exchange",
      "outputs": [],
      "stateMutability": "payable",
      "type": "function"
    },
    {
      "inputs": [
        {
          "internalType": "int128",
          "name": "from",
          "type": "int128"
        },
        {
          "internalType": "int128",
          "name": "to",
          "type": "int128"
        },
        {
          "internalType": "uint256",
          "name": "_from_amount",
          "type": "uint256"
        }
      ],
      "name": "get_dy",
      "outputs": [
        {
          "internalType": "uint256",
          "name": "",
          "type": "uint256"
        }
      ],
      "stateMutability": "view",
      "type": "function"
    },
    {
      "inputs": [
        {
          "internalType": "uint256",
          "name": "_dy",
          "type": "uint256"
        }
      ],
      "name": "setDy",
      "outputs": [],
      "stateMutability": "nonpayable",
      "type": "function"
    },
    {
      "inputs": [],
      "name": "stETH",
      "outputs": [
        {
          "internalType": "address",
          "name": "",
          "type": "address"
        }
      ],
      "stateMutability": "view",
      "type": "function"
    },
    {
      "stateMutability": "payable",
      "type": "receive"
    }
  ],
  "bytecode": "0x608060405234801561001057600080fd5b5060405161064638038061064683398101604081905261002f91610060565b600080546001600160a01b0319166001600160a01b0392909216919091179055670de0b6b3a7640000600155610090565b60006020828403121561007257600080fd5b81516001600160a01b038116811461008957600080fd5b9392505050565b6105a78061009f6000396000f3fe60806040526004361061005e5760003560e01c80633df02124116100435780633df02124146100b55780635e0d443f146100c8578063c1fe3e48146100e857600080fd5b80632988b6e41461006a5780632a7b2ecb1461008c57600080fd5b3661006557005b600080fd5b34801561007657600080fd5b5061008a6100853660046104b9565b600155565b005b34801561009857600080fd5b506100a260015481565b6040519081526020015b60405180910390f35b61008a6100c3366004610477565b61013a565b3480156100d457600080fd5b506100a26100e336600461043b565b6103d0565b3480156100f457600080fd5b506000546101159073ffffffffffffffffffffffffffffffffffffffff1681565b60405173ffffffffffffffffffffffffffffffffffffffff90911681526020016100ac565b83600f0b6000148015610150575082600f0b6001145b156102435760005460015473ffffffffffffffffffffffffffffffffffffffff9091169063a9059cbb903390670de0b6b3a764000090610190903461050d565b61019a91906104d2565b6040517fffffffff0000000000000000000000000000000000000000000000000000000060e085901b16815273ffffffffffffffffffffffffffffffffffffffff90921660048301526024820152604401602060405180830381600087803b15801561020557600080fd5b505af1158015610219573d6000803e3d6000fd5b505050506040513d601f19601f8201168201806040525081019061023d9190610412565b506103ca565b6000546040517f23b872dd0000000000000000000000000000000000000000000000000000000081523360048201523060248201526044810184905273ffffffffffffffffffffffffffffffffffffffff909116906323b872dd90606401602060405180830381600087803b1580156102bb57600080fd5b505af11580156102cf573d6000803e3d6000fd5b505050506040513d601f19601f820116820180604052508101906102f39190610412565b50600154600090339061030e85670de0b6b3a764000061050d565b61031891906104d2565b604051600081818185875af1925050503d8060008114610354576040519150601f19603f3d011682016040523d82523d6000602084013e610359565b606091505b50509050806103c8576040517f08c379a000000000000000000000000000000000000000000000000000000000815260206004820152601460248201527f4661696c656420746f2073656e64204574686572000000000000000000000000604482015260640160405180910390fd5b505b50505050565b6000670de0b6b3a7640000600154836103e9919061050d565b6103f391906104d2565b949350505050565b8035600f81900b811461040d57600080fd5b919050565b60006020828403121561042457600080fd5b8151801515811461043457600080fd5b9392505050565b60008060006060848603121561045057600080fd5b610459846103fb565b9250610467602085016103fb565b9150604084013590509250925092565b6000806000806080858703121561048d57600080fd5b610496856103fb565b93506104a4602086016103fb565b93969395505050506040820135916060013590565b6000602082840312156104cb57600080fd5b5035919050565b600082610508577f4e487b7100000000000000000000000000000000000000000000000000000000600052601260045260246000fd5b500490565b6000817fffffffffffffffffffffffffffffffffffffffffffffffffffffffffffffffff048311821515161561056c577f4e487b7100000000000000000000000000000000000000000000000000000000600052601160045260246000fd5b50029056fea264697066735822122079e01a8650e716f344123bbeb93c7839e868b93ab85b8f5f7292b91864e9349d64736f6c63430008070033",
  "linkReferences": {},
  "deployedLinkReferences": {}
}