{
  "_format": "hh-sol-artifact-1",
  "contractName": "Orchestrator",
  "sourceName": "contracts/orchestrator/Orchestrator.sol",
  "abi": [
    {
      "inputs": [],
      "stateMutability": "nonpayable",
      "type": "constructor"
    },
    {
      "inputs": [
        {
          "internalType": "contract IStableMaster",
          "name": "stableMaster",
          "type": "address"
        },
        {
          "internalType": "contract IPoolManager",
          "name": "poolManager",
          "type": "address"
        },
        {
          "internalType": "contract IPerpetualManager",
          "name": "perpetualManager",
          "type": "address"
        },
        {
          "internalType": "contract IFeeManager",
          "name": "feeManager",
          "type": "address"
        },
        {
          "components": [
            {
              "internalType": "uint64[]",
              "name": "xFeeMint",
              "type": "uint64[]"
            },
            {
              "internalType": "uint64[]",
              "name": "yFeeMint",
              "type": "uint64[]"
            },
            {
              "internalType": "uint64[]",
              "name": "xFeeBurn",
              "type": "uint64[]"
            },
            {
              "internalType": "uint64[]",
              "name": "yFeeBurn",
              "type": "uint64[]"
            },
            {
              "internalType": "uint64[]",
              "name": "xHAFeesDeposit",
              "type": "uint64[]"
            },
            {
              "internalType": "uint64[]",
              "name": "yHAFeesDeposit",
              "type": "uint64[]"
            },
            {
              "internalType": "uint64[]",
              "name": "xHAFeesWithdraw",
              "type": "uint64[]"
            },
            {
              "internalType": "uint64[]",
              "name": "yHAFeesWithdraw",
              "type": "uint64[]"
            },
            {
              "internalType": "uint256[]",
              "name": "xSlippageFee",
              "type": "uint256[]"
            },
            {
              "internalType": "uint64[]",
              "name": "ySlippageFee",
              "type": "uint64[]"
            },
            {
              "internalType": "uint256[]",
              "name": "xSlippage",
              "type": "uint256[]"
            },
            {
              "internalType": "uint64[]",
              "name": "ySlippage",
              "type": "uint64[]"
            },
            {
              "internalType": "uint256[]",
              "name": "xBonusMalusMint",
              "type": "uint256[]"
            },
            {
              "internalType": "uint64[]",
              "name": "yBonusMalusMint",
              "type": "uint64[]"
            },
            {
              "internalType": "uint256[]",
              "name": "xBonusMalusBurn",
              "type": "uint256[]"
            },
            {
              "internalType": "uint64[]",
              "name": "yBonusMalusBurn",
              "type": "uint64[]"
            },
            {
              "internalType": "uint64[]",
              "name": "xKeeperFeesClosing",
              "type": "uint64[]"
            },
            {
              "internalType": "uint64[]",
              "name": "yKeeperFeesClosing",
              "type": "uint64[]"
            },
            {
              "internalType": "uint64",
              "name": "haFeeDeposit",
              "type": "uint64"
            },
            {
              "internalType": "uint64",
              "name": "haFeeWithdraw",
              "type": "uint64"
            },
            {
              "internalType": "uint256",
              "name": "capOnStableMinted",
              "type": "uint256"
            },
            {
              "internalType": "uint256",
              "name": "maxInterestsDistributed",
              "type": "uint256"
            },
            {
              "internalType": "uint64",
              "name": "feesForSLPs",
              "type": "uint64"
            },
            {
              "internalType": "uint64",
              "name": "interestsForSLPs",
              "type": "uint64"
            },
            {
              "internalType": "uint64",
              "name": "targetHAHedge",
              "type": "uint64"
            },
            {
              "internalType": "uint64",
              "name": "limitHAHedge",
              "type": "uint64"
            },
            {
              "internalType": "uint64",
              "name": "maxLeverage",
              "type": "uint64"
            },
            {
              "internalType": "uint64",
              "name": "maintenanceMargin",
              "type": "uint64"
            },
            {
              "internalType": "uint64",
              "name": "lockTime",
              "type": "uint64"
            },
            {
              "internalType": "uint64",
              "name": "keeperFeesLiquidationRatio",
              "type": "uint64"
            },
            {
              "internalType": "uint256",
              "name": "keeperFeesLiquidationCap",
              "type": "uint256"
            },
            {
              "internalType": "uint256",
              "name": "keeperFeesClosingCap",
              "type": "uint256"
            }
          ],
          "internalType": "struct PoolParameters",
          "name": "p",
          "type": "tuple"
        }
      ],
      "name": "initCollateral",
      "outputs": [],
      "stateMutability": "nonpayable",
      "type": "function"
    },
    {
      "inputs": [],
      "name": "owner",
      "outputs": [
        {
          "internalType": "address",
          "name": "",
          "type": "address"
        }
      ],
      "stateMutability": "view",
      "type": "function"
    }
  ],
  "bytecode": "0x608060405234801561001057600080fd5b50600080546001600160a01b031916331790556114e4806100326000396000f3fe608060405234801561001057600080fd5b50600436106100365760003560e01c80638da5cb5b1461003b578063d15c35d514610084575b600080fd5b60005461005b9073ffffffffffffffffffffffffffffffffffffffff1681565b60405173ffffffffffffffffffffffffffffffffffffffff909116815260200160405180910390f35b610097610092366004610e4b565b610099565b005b60005473ffffffffffffffffffffffffffffffffffffffff16331461011e576040517f08c379a000000000000000000000000000000000000000000000000000000000815260206004820152600260248201527f3739000000000000000000000000000000000000000000000000000000000000604482015260640160405180910390fd5b805160208201516040517fbe8c31ff00000000000000000000000000000000000000000000000000000000815273ffffffffffffffffffffffffffffffffffffffff88169263be8c31ff9261017c9289929190600190600401611367565b600060405180830381600087803b15801561019657600080fd5b505af11580156101aa573d6000803e3d6000fd5b505050508473ffffffffffffffffffffffffffffffffffffffff1663be8c31ff858360400151846060015160006040518563ffffffff1660e01b81526004016101f69493929190611367565b600060405180830381600087803b15801561021057600080fd5b505af1158015610224573d6000803e3d6000fd5b50505050608081015160a08201516040517f8211477a00000000000000000000000000000000000000000000000000000000815273ffffffffffffffffffffffffffffffffffffffff861692638211477a9261028592600190600401611354565b600060405180830381600087803b15801561029f57600080fd5b505af11580156102b3573d6000803e3d6000fd5b5050505060c081015160e08201516040517f8211477a00000000000000000000000000000000000000000000000000000000815273ffffffffffffffffffffffffffffffffffffffff861692638211477a9261031492600090600401611354565b600060405180830381600087803b15801561032e57600080fd5b505af1158015610342573d6000803e3d6000fd5b505050506101008101516101208201516040517f4e6b13f100000000000000000000000000000000000000000000000000000000815273ffffffffffffffffffffffffffffffffffffffff851692634e6b13f1926103a5926000906004016112ed565b600060405180830381600087803b1580156103bf57600080fd5b505af11580156103d3573d6000803e3d6000fd5b505050506101808101516101a08201516040517f4e6b13f100000000000000000000000000000000000000000000000000000000815273ffffffffffffffffffffffffffffffffffffffff851692634e6b13f192610436926001906004016112ed565b600060405180830381600087803b15801561045057600080fd5b505af1158015610464573d6000803e3d6000fd5b505050506101c08101516101e08201516040517f4e6b13f100000000000000000000000000000000000000000000000000000000815273ffffffffffffffffffffffffffffffffffffffff851692634e6b13f1926104c7926002906004016112ed565b600060405180830381600087803b1580156104e157600080fd5b505af11580156104f5573d6000803e3d6000fd5b505050506101408101516101608201516040517f4e6b13f100000000000000000000000000000000000000000000000000000000815273ffffffffffffffffffffffffffffffffffffffff851692634e6b13f192610558926003906004016112ed565b600060405180830381600087803b15801561057257600080fd5b505af1158015610586573d6000803e3d6000fd5b505050506102408101516102608201516040517f232c28c400000000000000000000000000000000000000000000000000000000815267ffffffffffffffff92831660048201529116602482015273ffffffffffffffffffffffffffffffffffffffff83169063232c28c490604401600060405180830381600087803b15801561060f57600080fd5b505af1158015610623573d6000803e3d6000fd5b505050506102808101516102a08201516040517f5a3c10f10000000000000000000000000000000000000000000000000000000081526004810192909252602482015273ffffffffffffffffffffffffffffffffffffffff8581166044830152861690635a3c10f190606401600060405180830381600087803b1580156106a957600080fd5b505af11580156106bd573d6000803e3d6000fd5b505050506102c08101516102e08201516040517fec5b1bee00000000000000000000000000000000000000000000000000000000815267ffffffffffffffff92831660048201529116602482015273ffffffffffffffffffffffffffffffffffffffff858116604483015286169063ec5b1bee90606401600060405180830381600087803b15801561074e57600080fd5b505af1158015610762573d6000803e3d6000fd5b505050506103008101516103208201516040517f515dc48000000000000000000000000000000000000000000000000000000000815267ffffffffffffffff92831660048201529116602482015273ffffffffffffffffffffffffffffffffffffffff84169063515dc48090604401600060405180830381600087803b1580156107eb57600080fd5b505af11580156107ff573d6000803e3d6000fd5b505050506103408101516103608201516040517ff5d011c500000000000000000000000000000000000000000000000000000000815267ffffffffffffffff92831660048201529116602482015273ffffffffffffffffffffffffffffffffffffffff84169063f5d011c590604401600060405180830381600087803b15801561088857600080fd5b505af115801561089c573d6000803e3d6000fd5b505050506103808101516040517f3675441500000000000000000000000000000000000000000000000000000000815267ffffffffffffffff909116600482015273ffffffffffffffffffffffffffffffffffffffff841690633675441590602401600060405180830381600087803b15801561091857600080fd5b505af115801561092c573d6000803e3d6000fd5b505050506103a08101516040517fb3b1cb2700000000000000000000000000000000000000000000000000000000815267ffffffffffffffff909116600482015273ffffffffffffffffffffffffffffffffffffffff84169063b3b1cb2790602401600060405180830381600087803b1580156109a857600080fd5b505af11580156109bc573d6000803e3d6000fd5b505050506103c08101516103e08201516040517f47c12e010000000000000000000000000000000000000000000000000000000081526004810192909252602482015273ffffffffffffffffffffffffffffffffffffffff8416906347c12e0190604401600060405180830381600087803b158015610a3a57600080fd5b505af1158015610a4e573d6000803e3d6000fd5b505050506102008101516102208201516040517f367f21b400000000000000000000000000000000000000000000000000000000815273ffffffffffffffffffffffffffffffffffffffff86169263367f21b492610aae92600401611326565b600060405180830381600087803b158015610ac857600080fd5b505af1158015610adc573d6000803e3d6000fd5b505050508173ffffffffffffffffffffffffffffffffffffffff166320be420a6040518163ffffffff1660e01b8152600401600060405180830381600087803b158015610b2857600080fd5b505af1158015610b3c573d6000803e3d6000fd5b505050508173ffffffffffffffffffffffffffffffffffffffff16635da3e6f56040518163ffffffff1660e01b8152600401600060405180830381600087803b158015610b8857600080fd5b505af1158015610b9c573d6000803e3d6000fd5b50506040517f59de68660000000000000000000000000000000000000000000000000000000081527ffb286912c6eadba541f23a3bb3e83373ab139b6e65d84e2a473c186efc2b4642600482015273ffffffffffffffffffffffffffffffffffffffff8781166024830152881692506359de68669150604401600060405180830381600087803b158015610c2f57600080fd5b505af1158015610c43573d6000803e3d6000fd5b50506040517f59de68660000000000000000000000000000000000000000000000000000000081527fe0136b3661826a483734248681e4f59ae66bc6065ceb43fdd469ecb22c21d745600482015273ffffffffffffffffffffffffffffffffffffffff8781166024830152881692506359de68669150604401600060405180830381600087803b158015610cd657600080fd5b505af1158015610cea573d6000803e3d6000fd5b505050508273ffffffffffffffffffffffffffffffffffffffff16633f4ba83a6040518163ffffffff1660e01b8152600401600060405180830381600087803b158015610d3657600080fd5b505af1158015610d4a573d6000803e3d6000fd5b505050505050505050565b600082601f830112610d6657600080fd5b81356020610d7b610d7683611436565b6113e7565b80838252828201915082860187848660051b8901011115610d9b57600080fd5b60005b85811015610dba57813584529284019290840190600101610d9e565b5090979650505050505050565b600082601f830112610dd857600080fd5b81356020610de8610d7683611436565b80838252828201915082860187848660051b8901011115610e0857600080fd5b60005b85811015610dba57610e1c82610e2e565b84529284019290840190600101610e0b565b803567ffffffffffffffff81168114610e4657600080fd5b919050565b600080600080600060a08688031215610e6357600080fd5b8535610e6e81611489565b94506020860135610e7e81611489565b93506040860135610e8e81611489565b92506060860135610e9e81611489565b9150608086013567ffffffffffffffff80821115610ebb57600080fd5b90870190610400828a031215610ed057600080fd5b610ed86113bd565b823582811115610ee757600080fd5b610ef38b828601610dc7565b825250602083013582811115610f0857600080fd5b610f148b828601610dc7565b602083015250604083013582811115610f2c57600080fd5b610f388b828601610dc7565b604083015250606083013582811115610f5057600080fd5b610f5c8b828601610dc7565b606083015250608083013582811115610f7457600080fd5b610f808b828601610dc7565b60808301525060a083013582811115610f9857600080fd5b610fa48b828601610dc7565b60a08301525060c083013582811115610fbc57600080fd5b610fc88b828601610dc7565b60c08301525060e083013582811115610fe057600080fd5b610fec8b828601610dc7565b60e083015250610100808401358381111561100657600080fd5b6110128c828701610d55565b828401525050610120808401358381111561102c57600080fd5b6110388c828701610dc7565b828401525050610140808401358381111561105257600080fd5b61105e8c828701610d55565b828401525050610160808401358381111561107857600080fd5b6110848c828701610dc7565b828401525050610180808401358381111561109e57600080fd5b6110aa8c828701610d55565b8284015250506101a080840135838111156110c457600080fd5b6110d08c828701610dc7565b8284015250506101c080840135838111156110ea57600080fd5b6110f68c828701610d55565b8284015250506101e0808401358381111561111057600080fd5b61111c8c828701610dc7565b828401525050610200808401358381111561113657600080fd5b6111428c828701610dc7565b828401525050610220808401358381111561115c57600080fd5b6111688c828701610dc7565b828401525050610240915061117e828401610e2e565b828201526102609150611192828401610e2e565b9181019190915261028082810135908201526102a080830135908201526102c0906111be828401610e2e565b828201526102e091506111d2828401610e2e565b8282015261030091506111e6828401610e2e565b8282015261032091506111fa828401610e2e565b82820152610340915061120e828401610e2e565b828201526103609150611222828401610e2e565b828201526103809150611236828401610e2e565b828201526103a0915061124a828401610e2e565b828201526103c0915081830135828201526103e0915081830135828201528093505050509295509295909350565b600081518084526020808501945080840160005b838110156112a85781518752958201959082019060010161128c565b509495945050505050565b600081518084526020808501945080840160005b838110156112a857815167ffffffffffffffff16875295820195908201906001016112c7565b6060815260006113006060830186611278565b828103602084015261131281866112b3565b91505060ff83166040830152949350505050565b60408152600061133960408301856112b3565b828103602084015261134b81856112b3565b95945050505050565b60608152600061130060608301866112b3565b73ffffffffffffffffffffffffffffffffffffffff8516815260806020820152600061139660808301866112b3565b82810360408401526113a881866112b3565b91505060ff8316606083015295945050505050565b604051610400810167ffffffffffffffff811182821017156113e1576113e161145a565b60405290565b604051601f82017fffffffffffffffffffffffffffffffffffffffffffffffffffffffffffffffe016810167ffffffffffffffff8111828210171561142e5761142e61145a565b604052919050565b600067ffffffffffffffff8211156114505761145061145a565b5060051b60200190565b7f4e487b7100000000000000000000000000000000000000000000000000000000600052604160045260246000fd5b73ffffffffffffffffffffffffffffffffffffffff811681146114ab57600080fd5b5056fea2646970667358221220a44ee1ca1130371913373a9b84861aafbd674784978bcf4aa1d2a6cfb73dfcc164736f6c63430008070033",
  "linkReferences": {},
  "deployedLinkReferences": {}
}