{
  "_format": "hh-sol-artifact-1",
  "contractName": "MockMiddlemanPolygonPredicate",
  "sourceName": "contracts/mock/MockAngleMiddleman.sol",
  "abi": [
    {
      "anonymous": false,
      "inputs": [
        {
          "indexed": true,
          "internalType": "address",
          "name": "depositor",
          "type": "address"
        },
        {
          "indexed": true,
          "internalType": "address",
          "name": "depositReceiver",
          "type": "address"
        },
        {
          "indexed": true,
          "internalType": "address",
          "name": "rootToken",
          "type": "address"
        },
        {
          "indexed": false,
          "internalType": "uint256",
          "name": "amount",
          "type": "uint256"
        }
      ],
      "name": "LockedERC20",
      "type": "event"
    },
    {
      "inputs": [
        {
          "internalType": "address",
          "name": "depositor",
          "type": "address"
        },
        {
          "internalType": "address",
          "name": "depositReceiver",
          "type": "address"
        },
        {
          "internalType": "address",
          "name": "rootToken",
          "type": "address"
        },
        {
          "internalType": "bytes",
          "name": "depositData",
          "type": "bytes"
        }
      ],
      "name": "lockTokens",
      "outputs": [],
      "stateMutability": "nonpayable",
      "type": "function"
    }
  ],
  "bytecode": "0x608060405234801561001057600080fd5b506102cf806100206000396000f3fe608060405234801561001057600080fd5b506004361061002b5760003560e01c8063e375b64e14610030575b600080fd5b61004361003e3660046101b5565b610045565b005b600061005382840184610280565b6040517f23b872dd00000000000000000000000000000000000000000000000000000000815273ffffffffffffffffffffffffffffffffffffffff888116600483015230602483015260448201839052919250908516906323b872dd90606401602060405180830381600087803b1580156100cd57600080fd5b505af11580156100e1573d6000803e3d6000fd5b505050506040513d601f19601f820116820180604052508101906101059190610257565b508373ffffffffffffffffffffffffffffffffffffffff168573ffffffffffffffffffffffffffffffffffffffff168773ffffffffffffffffffffffffffffffffffffffff167f9b217a401a5ddf7c4d474074aff9958a18d48690d77cc2151c4706aa7348b4018460405161017c91815260200190565b60405180910390a4505050505050565b803573ffffffffffffffffffffffffffffffffffffffff811681146101b057600080fd5b919050565b6000806000806000608086880312156101cd57600080fd5b6101d68661018c565b94506101e46020870161018c565b93506101f26040870161018c565b9250606086013567ffffffffffffffff8082111561020f57600080fd5b818801915088601f83011261022357600080fd5b81358181111561023257600080fd5b89602082850101111561024457600080fd5b9699959850939650602001949392505050565b60006020828403121561026957600080fd5b8151801515811461027957600080fd5b9392505050565b60006020828403121561029257600080fd5b503591905056fea2646970667358221220e3cad6d71e6beaab30a913f4221ca778579bc8e0fb1daf5edbd7d35716a0177664736f6c63430008070033",
  "linkReferences": {},
  "deployedLinkReferences": {}
}