{
  "_format": "hh-sol-artifact-1",
  "contractName": "OracleChainlinkSingle",
  "sourceName": "contracts/oracle/OracleChainlinkSingle.sol",
  "abi": [
    {
      "inputs": [
        {
          "internalType": "address",
          "name": "_poolChainlink",
          "type": "address"
        },
        {
          "internalType": "uint8",
          "name": "_isChainlinkMultiplied",
          "type": "uint8"
        },
        {
          "internalType": "uint256",
          "name": "_inBase",
          "type": "uint256"
        },
        {
          "internalType": "uint32",
          "name": "stalePeriod",
          "type": "uint32"
        },
        {
          "internalType": "address[]",
          "name": "guardians",
          "type": "address[]"
        },
        {
          "internalType": "bytes32",
          "name": "_description",
          "type": "bytes32"
        }
      ],
      "stateMutability": "nonpayable",
      "type": "constructor"
    },
    {
      "anonymous": false,
      "inputs": [
        {
          "indexed": true,
          "internalType": "bytes32",
          "name": "role",
          "type": "bytes32"
        },
        {
          "indexed": true,
          "internalType": "bytes32",
          "name": "previousAdminRole",
          "type": "bytes32"
        },
        {
          "indexed": true,
          "internalType": "bytes32",
          "name": "newAdminRole",
          "type": "bytes32"
        }
      ],
      "name": "RoleAdminChanged",
      "type": "event"
    },
    {
      "anonymous": false,
      "inputs": [
        {
          "indexed": true,
          "internalType": "bytes32",
          "name": "role",
          "type": "bytes32"
        },
        {
          "indexed": true,
          "internalType": "address",
          "name": "account",
          "type": "address"
        },
        {
          "indexed": true,
          "internalType": "address",
          "name": "sender",
          "type": "address"
        }
      ],
      "name": "RoleGranted",
      "type": "event"
    },
    {
      "anonymous": false,
      "inputs": [
        {
          "indexed": true,
          "internalType": "bytes32",
          "name": "role",
          "type": "bytes32"
        },
        {
          "indexed": true,
          "internalType": "address",
          "name": "account",
          "type": "address"
        },
        {
          "indexed": true,
          "internalType": "address",
          "name": "sender",
          "type": "address"
        }
      ],
      "name": "RoleRevoked",
      "type": "event"
    },
    {
      "inputs": [],
      "name": "BASE",
      "outputs": [
        {
          "internalType": "uint256",
          "name": "",
          "type": "uint256"
        }
      ],
      "stateMutability": "view",
      "type": "function"
    },
    {
      "inputs": [],
      "name": "DEFAULT_ADMIN_ROLE",
      "outputs": [
        {
          "internalType": "bytes32",
          "name": "",
          "type": "bytes32"
        }
      ],
      "stateMutability": "view",
      "type": "function"
    },
    {
      "inputs": [],
      "name": "GUARDIAN_ROLE_CHAINLINK",
      "outputs": [
        {
          "internalType": "bytes32",
          "name": "",
          "type": "bytes32"
        }
      ],
      "stateMutability": "view",
      "type": "function"
    },
    {
      "inputs": [],
      "name": "chainlinkDecimals",
      "outputs": [
        {
          "internalType": "uint8",
          "name": "",
          "type": "uint8"
        }
      ],
      "stateMutability": "view",
      "type": "function"
    },
    {
      "inputs": [
        {
          "internalType": "uint32",
          "name": "_stalePeriod",
          "type": "uint32"
        }
      ],
      "name": "changeStalePeriod",
      "outputs": [],
      "stateMutability": "nonpayable",
      "type": "function"
    },
    {
      "inputs": [],
      "name": "description",
      "outputs": [
        {
          "internalType": "bytes32",
          "name": "",
          "type": "bytes32"
        }
      ],
      "stateMutability": "view",
      "type": "function"
    },
    {
      "inputs": [
        {
          "internalType": "bytes32",
          "name": "role",
          "type": "bytes32"
        }
      ],
      "name": "getRoleAdmin",
      "outputs": [
        {
          "internalType": "bytes32",
          "name": "",
          "type": "bytes32"
        }
      ],
      "stateMutability": "view",
      "type": "function"
    },
    {
      "inputs": [
        {
          "internalType": "bytes32",
          "name": "role",
          "type": "bytes32"
        },
        {
          "internalType": "address",
          "name": "account",
          "type": "address"
        }
      ],
      "name": "grantRole",
      "outputs": [],
      "stateMutability": "nonpayable",
      "type": "function"
    },
    {
      "inputs": [
        {
          "internalType": "bytes32",
          "name": "role",
          "type": "bytes32"
        },
        {
          "internalType": "address",
          "name": "account",
          "type": "address"
        }
      ],
      "name": "hasRole",
      "outputs": [
        {
          "internalType": "bool",
          "name": "",
          "type": "bool"
        }
      ],
      "stateMutability": "view",
      "type": "function"
    },
    {
      "inputs": [],
      "name": "inBase",
      "outputs": [
        {
          "internalType": "uint256",
          "name": "",
          "type": "uint256"
        }
      ],
      "stateMutability": "view",
      "type": "function"
    },
    {
      "inputs": [],
      "name": "isChainlinkMultiplied",
      "outputs": [
        {
          "internalType": "uint8",
          "name": "",
          "type": "uint8"
        }
      ],
      "stateMutability": "view",
      "type": "function"
    },
    {
      "inputs": [],
      "name": "poolChainlink",
      "outputs": [
        {
          "internalType": "contract AggregatorV3Interface",
          "name": "",
          "type": "address"
        }
      ],
      "stateMutability": "view",
      "type": "function"
    },
    {
      "inputs": [],
      "name": "read",
      "outputs": [
        {
          "internalType": "uint256",
          "name": "rate",
          "type": "uint256"
        }
      ],
      "stateMutability": "view",
      "type": "function"
    },
    {
      "inputs": [],
      "name": "readAll",
      "outputs": [
        {
          "internalType": "uint256",
          "name": "",
          "type": "uint256"
        },
        {
          "internalType": "uint256",
          "name": "",
          "type": "uint256"
        }
      ],
      "stateMutability": "view",
      "type": "function"
    },
    {
      "inputs": [],
      "name": "readLower",
      "outputs": [
        {
          "internalType": "uint256",
          "name": "rate",
          "type": "uint256"
        }
      ],
      "stateMutability": "view",
      "type": "function"
    },
    {
      "inputs": [
        {
          "internalType": "uint256",
          "name": "quoteAmount",
          "type": "uint256"
        }
      ],
      "name": "readQuote",
      "outputs": [
        {
          "internalType": "uint256",
          "name": "",
          "type": "uint256"
        }
      ],
      "stateMutability": "view",
      "type": "function"
    },
    {
      "inputs": [
        {
          "internalType": "uint256",
          "name": "quoteAmount",
          "type": "uint256"
        }
      ],
      "name": "readQuoteLower",
      "outputs": [
        {
          "internalType": "uint256",
          "name": "",
          "type": "uint256"
        }
      ],
      "stateMutability": "view",
      "type": "function"
    },
    {
      "inputs": [],
      "name": "readUpper",
      "outputs": [
        {
          "internalType": "uint256",
          "name": "rate",
          "type": "uint256"
        }
      ],
      "stateMutability": "view",
      "type": "function"
    },
    {
      "inputs": [
        {
          "internalType": "bytes32",
          "name": "role",
          "type": "bytes32"
        },
        {
          "internalType": "address",
          "name": "account",
          "type": "address"
        }
      ],
      "name": "renounceRole",
      "outputs": [],
      "stateMutability": "nonpayable",
      "type": "function"
    },
    {
      "inputs": [
        {
          "internalType": "bytes32",
          "name": "role",
          "type": "bytes32"
        },
        {
          "internalType": "address",
          "name": "account",
          "type": "address"
        }
      ],
      "name": "revokeRole",
      "outputs": [],
      "stateMutability": "nonpayable",
      "type": "function"
    },
    {
      "inputs": [],
      "name": "stalePeriod",
      "outputs": [
        {
          "internalType": "uint32",
          "name": "",
          "type": "uint32"
        }
      ],
      "stateMutability": "view",
      "type": "function"
    }
  ],
  "bytecode": "0x60e06040523480156200001157600080fd5b5060405162001741380380620017418339810160408190526200003491620003a9565b858584846001600160a01b0384166200007a5760405162461bcd60e51b815260206004820152600360248201526231303560e81b60448201526064015b60405180910390fd5b836001600160a01b03166080816001600160a01b031660601b81525050836001600160a01b031663313ce5676040518163ffffffff1660e01b815260040160206040518083038186803b158015620000d157600080fd5b505afa158015620000e6573d6000803e3d6000fd5b505050506040513d601f19601f820116820180604052508101906200010c9190620004d9565b60f81b6001600160f81b03191660c0528051620001525760405162461bcd60e51b815260206004820152600360248201526231303160e81b604482015260640162000071565b60005b8151811015620002165760006001600160a01b03168282815181106200017f576200017f62000528565b60200260200101516001600160a01b03161415620001c45760405162461bcd60e51b81526020600482015260016024820152600360fc1b604482015260640162000071565b6200020160008051602062001721833981519152838381518110620001ed57620001ed62000528565b60200260200101516200027260201b60201c565b806200020d81620004fe565b91505062000155565b5062000232600080516020620017218339815191528062000282565b506003805463ffffffff191663ffffffff9290921691909117905560f81b6001600160f81b03191660a05250600093909355505060015550620005549050565b6200027e8282620002d6565b5050565b600082815260026020526040902060010154819060405184907fbd79b86ffe0ab8e8776151514217cd7cacd52c909f66475c3af44e129f0b00ff90600090a460009182526002602052604090912060010155565b60008281526002602090815260408083206001600160a01b038516845290915290205460ff166200027e5760008281526002602090815260408083206001600160a01b03851684529091529020805460ff19166001179055620003363390565b6001600160a01b0316816001600160a01b0316837f2f8788117e7eff1d82e926ec794901d17c78024a50270940304540a733656f0d60405160405180910390a45050565b80516001600160a01b03811681146200039257600080fd5b919050565b805160ff811681146200039257600080fd5b60008060008060008060c08789031215620003c357600080fd5b620003ce876200037a565b95506020620003df81890162000397565b955060408801519450606088015163ffffffff811681146200040057600080fd5b60808901519094506001600160401b03808211156200041e57600080fd5b818a0191508a601f8301126200043357600080fd5b8151818111156200044857620004486200053e565b8060051b604051601f19603f830116810181811085821117156200047057620004706200053e565b604052828152858101935084860182860187018f10156200049057600080fd5b600095505b83861015620004be57620004a9816200037a565b85526001959095019493860193860162000495565b5080975050505050505060a087015190509295509295509295565b600060208284031215620004ec57600080fd5b620004f78262000397565b9392505050565b60006000198214156200052157634e487b7160e01b600052601160045260246000fd5b5060010190565b634e487b7160e01b600052603260045260246000fd5b634e487b7160e01b600052604160045260246000fd5b60805160601c60a05160f81c60c05160f81c61117f620005a2600039600081816102d6015261089c0152600081816101bb015261087b0152600081816101f4015261085a015261117f6000f3fe608060405234801561001057600080fd5b50600436106101775760003560e01c806351e64373116100d857806392611e331161008c578063a5b36a3611610066578063a5b36a361461038b578063d547741f146103b0578063ec342ad0146103c357600080fd5b806392611e33146103725780639aefb5c31461037a578063a217fddf1461038357600080fd5b8063630914d1116100bd578063630914d1146103005780637284e4161461031357806391d148541461031c57600080fd5b806351e64373146102d157806357de26a4146102f857600080fd5b80632f2ff15d1161012f57806336568abe1161011457806336568abe1461029957806341f654f7146102ac578063442133bd146102c957600080fd5b80632f2ff15d146102715780633593ba7b1461028657600080fd5b8063210d5a2911610160578063210d5a29146101ef578063240fd5ab1461023b578063248a9ca31461024e57600080fd5b80630942d09a1461017c5780631d1ff675146101b6575b600080fd5b6101a37f55435dd261a4b9b3364963f7738a7a662ad9c84396d64be3365284bb7f0a504181565b6040519081526020015b60405180910390f35b6101dd7f000000000000000000000000000000000000000000000000000000000000000081565b60405160ff90911681526020016101ad565b6102167f000000000000000000000000000000000000000000000000000000000000000081565b60405173ffffffffffffffffffffffffffffffffffffffff90911681526020016101ad565b6101a3610249366004610cdf565b6103d2565b6101a361025c366004610cdf565b60009081526002602052604090206001015490565b61028461027f366004610cf8565b6103e3565b005b6101a3610294366004610cdf565b61040e565b6102846102a7366004610cf8565b610422565b6102b46104b4565b604080519283526020830191909152016101ad565b6101a36104ca565b6101dd7f000000000000000000000000000000000000000000000000000000000000000081565b6101a36104d7565b61028461030e366004610d41565b6104f0565b6101a360015481565b61036261032a366004610cf8565b600091825260026020908152604080842073ffffffffffffffffffffffffffffffffffffffff93909316845291905290205460ff1690565b60405190151581526020016101ad565b6101a3610553565b6101a360005481565b6101a3600081565b60035461039b9063ffffffff1681565b60405163ffffffff90911681526020016101ad565b6102846103be366004610cf8565b610560565b6101a3670de0b6b3a764000081565b60006103dd82610586565b92915050565b6000828152600260205260409020600101546103ff81336105b8565b610409838361068a565b505050565b60008061041a8361077e565b509392505050565b73ffffffffffffffffffffffffffffffffffffffff811633146104a6576040517f08c379a000000000000000000000000000000000000000000000000000000000815260206004820152600260248201527f373100000000000000000000000000000000000000000000000000000000000060448201526064015b60405180910390fd5b6104b08282610796565b5050565b6000806104c260005461077e565b915091509091565b60006103dd60005461077e565b60006104ea670de0b6b3a7640000610851565b50919050565b7f55435dd261a4b9b3364963f7738a7a662ad9c84396d64be3365284bb7f0a504161051b81336105b8565b50600380547fffffffffffffffffffffffffffffffffffffffffffffffffffffffff000000001663ffffffff92909216919091179055565b60006104ea60005461077e565b60008281526002602052604090206001015461057c81336105b8565b6104098383610796565b6000805461059c670de0b6b3a764000084611003565b6105a69190610ea1565b91506105b182610851565b5092915050565b600082815260026020908152604080832073ffffffffffffffffffffffffffffffffffffffff8516845290915290205460ff166104b0576106108173ffffffffffffffffffffffffffffffffffffffff1660146108ce565b61061b8360206108ce565b60405160200161062c929190610db7565b604080517fffffffffffffffffffffffffffffffffffffffffffffffffffffffffffffffe0818403018152908290527f08c379a000000000000000000000000000000000000000000000000000000000825261049d91600401610e38565b600082815260026020908152604080832073ffffffffffffffffffffffffffffffffffffffff8516845290915290205460ff166104b057600082815260026020908152604080832073ffffffffffffffffffffffffffffffffffffffff85168452909152902080547fffffffffffffffffffffffffffffffffffffffffffffffffffffffffffffff001660011790556107203390565b73ffffffffffffffffffffffffffffffffffffffff168173ffffffffffffffffffffffffffffffffffffffff16837f2f8788117e7eff1d82e926ec794901d17c78024a50270940304540a733656f0d60405160405180910390a45050565b600080600061078c84610586565b9485945092505050565b600082815260026020908152604080832073ffffffffffffffffffffffffffffffffffffffff8516845290915290205460ff16156104b057600082815260026020908152604080832073ffffffffffffffffffffffffffffffffffffffff8516808552925280832080547fffffffffffffffffffffffffffffffffffffffffffffffffffffffffffffff0016905551339285917ff6391f5c32d9c69d2a47ea670b442974b53935d1edc7fd64eb21e047a839171b9190a45050565b6000806108c5837f00000000000000000000000000000000000000000000000000000000000000007f00000000000000000000000000000000000000000000000000000000000000007f000000000000000000000000000000000000000000000000000000000000000060ff166000610b18565b91509150915091565b606060006108dd836002611003565b6108e8906002610e89565b67ffffffffffffffff8111156109005761090061111a565b6040519080825280601f01601f19166020018201604052801561092a576020820181803683370190505b5090507f300000000000000000000000000000000000000000000000000000000000000081600081518110610961576109616110eb565b60200101907effffffffffffffffffffffffffffffffffffffffffffffffffffffffffffff1916908160001a9053507f7800000000000000000000000000000000000000000000000000000000000000816001815181106109c4576109c46110eb565b60200101907effffffffffffffffffffffffffffffffffffffffffffffffffffffffffffff1916908160001a9053506000610a00846002611003565b610a0b906001610e89565b90505b6001811115610aa8577f303132333435363738396162636465660000000000000000000000000000000085600f1660108110610a4c57610a4c6110eb565b1a60f81b828281518110610a6257610a626110eb565b60200101907effffffffffffffffffffffffffffffffffffffffffffffffffffffffffffff1916908160001a90535060049490941c93610aa181611087565b9050610a0e565b508315610b11576040517f08c379a000000000000000000000000000000000000000000000000000000000815260206004820181905260248201527f537472696e67733a20686578206c656e67746820696e73756666696369656e74604482015260640161049d565b9392505050565b60008082610c5f576000806000808973ffffffffffffffffffffffffffffffffffffffff1663feaf968c6040518163ffffffff1660e01b815260040160a06040518083038186803b158015610b6c57600080fd5b505afa158015610b80573d6000803e3d6000fd5b505050506040513d601f19601f82011682018060405250810190610ba49190610d67565b945094505093509350600083138015610bd557508069ffffffffffffffffffff168469ffffffffffffffffffff1611155b8015610bf2575060035463ffffffff16610bef8342611040565b11155b610c58576040517f08c379a000000000000000000000000000000000000000000000000000000000815260206004820152600360248201527f3130300000000000000000000000000000000000000000000000000000000000604482015260640161049d565b5090945050505b8460ff1660011415610c9157610c7684600a610f3d565b610c808489611003565b610c8a9190610ea1565b9650610cb4565b82610c9d85600a610f3d565b610ca79089611003565b610cb19190610ea1565b96505b50949590945092505050565b805169ffffffffffffffffffff81168114610cda57600080fd5b919050565b600060208284031215610cf157600080fd5b5035919050565b60008060408385031215610d0b57600080fd5b82359150602083013573ffffffffffffffffffffffffffffffffffffffff81168114610d3657600080fd5b809150509250929050565b600060208284031215610d5357600080fd5b813563ffffffff81168114610b1157600080fd5b600080600080600060a08688031215610d7f57600080fd5b610d8886610cc0565b9450602086015193506040860151925060608601519150610dab60808701610cc0565b90509295509295909350565b7f416363657373436f6e74726f6c3a206163636f756e7420000000000000000000815260008351610def816017850160208801611057565b7f206973206d697373696e6720726f6c65200000000000000000000000000000006017918401918201528351610e2c816028840160208801611057565b01602801949350505050565b6020815260008251806020840152610e57816040850160208701611057565b601f017fffffffffffffffffffffffffffffffffffffffffffffffffffffffffffffffe0169190910160400192915050565b60008219821115610e9c57610e9c6110bc565b500190565b600082610ed7577f4e487b7100000000000000000000000000000000000000000000000000000000600052601260045260246000fd5b500490565b600181815b80851115610f3557817fffffffffffffffffffffffffffffffffffffffffffffffffffffffffffffffff04821115610f1b57610f1b6110bc565b80851615610f2857918102915b93841c9390800290610ee1565b509250929050565b6000610b118383600082610f53575060016103dd565b81610f60575060006103dd565b8160018114610f765760028114610f8057610f9c565b60019150506103dd565b60ff841115610f9157610f916110bc565b50506001821b6103dd565b5060208310610133831016604e8410600b8410161715610fbf575081810a6103dd565b610fc98383610edc565b807fffffffffffffffffffffffffffffffffffffffffffffffffffffffffffffffff04821115610ffb57610ffb6110bc565b029392505050565b6000817fffffffffffffffffffffffffffffffffffffffffffffffffffffffffffffffff048311821515161561103b5761103b6110bc565b500290565b600082821015611052576110526110bc565b500390565b60005b8381101561107257818101518382015260200161105a565b83811115611081576000848401525b50505050565b600081611096576110966110bc565b507fffffffffffffffffffffffffffffffffffffffffffffffffffffffffffffffff0190565b7f4e487b7100000000000000000000000000000000000000000000000000000000600052601160045260246000fd5b7f4e487b7100000000000000000000000000000000000000000000000000000000600052603260045260246000fd5b7f4e487b7100000000000000000000000000000000000000000000000000000000600052604160045260246000fdfea2646970667358221220da17a5a1dc793a92374f1193994aabe7306aa377c30125d988162a503b92c10864736f6c6343000807003355435dd261a4b9b3364963f7738a7a662ad9c84396d64be3365284bb7f0a5041",
  "linkReferences": {},
  "deployedLinkReferences": {}
}