{
  "_format": "hh-sol-artifact-1",
  "contractName": "OracleMulti",
  "sourceName": "contracts/oracle/OracleMulti.sol",
  "abi": [
    {
      "inputs": [
        {
          "internalType": "address[]",
          "name": "addressInAndOutUni",
          "type": "address[]"
        },
        {
          "internalType": "contract IUniswapV3Pool[]",
          "name": "_circuitUniswap",
          "type": "address[]"
        },
        {
          "internalType": "uint8[]",
          "name": "_circuitUniIsMultiplied",
          "type": "uint8[]"
        },
        {
          "internalType": "uint32",
          "name": "_twapPeriod",
          "type": "uint32"
        },
        {
          "internalType": "uint16",
          "name": "observationLength",
          "type": "uint16"
        },
        {
          "internalType": "uint8",
          "name": "_uniFinalCurrency",
          "type": "uint8"
        },
        {
          "internalType": "address[]",
          "name": "_circuitChainlink",
          "type": "address[]"
        },
        {
          "internalType": "uint8[]",
          "name": "_circuitChainIsMultiplied",
          "type": "uint8[]"
        },
        {
          "internalType": "uint32",
          "name": "stalePeriod",
          "type": "uint32"
        },
        {
          "internalType": "address[]",
          "name": "guardians",
          "type": "address[]"
        },
        {
          "internalType": "bytes32",
          "name": "_description",
          "type": "bytes32"
        }
      ],
      "stateMutability": "nonpayable",
      "type": "constructor"
    },
    {
      "anonymous": false,
      "inputs": [
        {
          "indexed": true,
          "internalType": "bytes32",
          "name": "role",
          "type": "bytes32"
        },
        {
          "indexed": true,
          "internalType": "bytes32",
          "name": "previousAdminRole",
          "type": "bytes32"
        },
        {
          "indexed": true,
          "internalType": "bytes32",
          "name": "newAdminRole",
          "type": "bytes32"
        }
      ],
      "name": "RoleAdminChanged",
      "type": "event"
    },
    {
      "anonymous": false,
      "inputs": [
        {
          "indexed": true,
          "internalType": "bytes32",
          "name": "role",
          "type": "bytes32"
        },
        {
          "indexed": true,
          "internalType": "address",
          "name": "account",
          "type": "address"
        },
        {
          "indexed": true,
          "internalType": "address",
          "name": "sender",
          "type": "address"
        }
      ],
      "name": "RoleGranted",
      "type": "event"
    },
    {
      "anonymous": false,
      "inputs": [
        {
          "indexed": true,
          "internalType": "bytes32",
          "name": "role",
          "type": "bytes32"
        },
        {
          "indexed": true,
          "internalType": "address",
          "name": "account",
          "type": "address"
        },
        {
          "indexed": true,
          "internalType": "address",
          "name": "sender",
          "type": "address"
        }
      ],
      "name": "RoleRevoked",
      "type": "event"
    },
    {
      "inputs": [],
      "name": "BASE",
      "outputs": [
        {
          "internalType": "uint256",
          "name": "",
          "type": "uint256"
        }
      ],
      "stateMutability": "view",
      "type": "function"
    },
    {
      "inputs": [],
      "name": "DEFAULT_ADMIN_ROLE",
      "outputs": [
        {
          "internalType": "bytes32",
          "name": "",
          "type": "bytes32"
        }
      ],
      "stateMutability": "view",
      "type": "function"
    },
    {
      "inputs": [],
      "name": "GUARDIAN_ROLE_CHAINLINK",
      "outputs": [
        {
          "internalType": "bytes32",
          "name": "",
          "type": "bytes32"
        }
      ],
      "stateMutability": "view",
      "type": "function"
    },
    {
      "inputs": [],
      "name": "GUARDIAN_ROLE_UNISWAP",
      "outputs": [
        {
          "internalType": "bytes32",
          "name": "",
          "type": "bytes32"
        }
      ],
      "stateMutability": "view",
      "type": "function"
    },
    {
      "inputs": [
        {
          "internalType": "uint256",
          "name": "",
          "type": "uint256"
        }
      ],
      "name": "chainlinkDecimals",
      "outputs": [
        {
          "internalType": "uint8",
          "name": "",
          "type": "uint8"
        }
      ],
      "stateMutability": "view",
      "type": "function"
    },
    {
      "inputs": [
        {
          "internalType": "uint32",
          "name": "_stalePeriod",
          "type": "uint32"
        }
      ],
      "name": "changeStalePeriod",
      "outputs": [],
      "stateMutability": "nonpayable",
      "type": "function"
    },
    {
      "inputs": [
        {
          "internalType": "uint32",
          "name": "_twapPeriod",
          "type": "uint32"
        }
      ],
      "name": "changeTwapPeriod",
      "outputs": [],
      "stateMutability": "nonpayable",
      "type": "function"
    },
    {
      "inputs": [
        {
          "internalType": "uint256",
          "name": "",
          "type": "uint256"
        }
      ],
      "name": "circuitChainIsMultiplied",
      "outputs": [
        {
          "internalType": "uint8",
          "name": "",
          "type": "uint8"
        }
      ],
      "stateMutability": "view",
      "type": "function"
    },
    {
      "inputs": [
        {
          "internalType": "uint256",
          "name": "",
          "type": "uint256"
        }
      ],
      "name": "circuitChainlink",
      "outputs": [
        {
          "internalType": "contract AggregatorV3Interface",
          "name": "",
          "type": "address"
        }
      ],
      "stateMutability": "view",
      "type": "function"
    },
    {
      "inputs": [
        {
          "internalType": "uint256",
          "name": "",
          "type": "uint256"
        }
      ],
      "name": "circuitUniIsMultiplied",
      "outputs": [
        {
          "internalType": "uint8",
          "name": "",
          "type": "uint8"
        }
      ],
      "stateMutability": "view",
      "type": "function"
    },
    {
      "inputs": [
        {
          "internalType": "uint256",
          "name": "",
          "type": "uint256"
        }
      ],
      "name": "circuitUniswap",
      "outputs": [
        {
          "internalType": "contract IUniswapV3Pool",
          "name": "",
          "type": "address"
        }
      ],
      "stateMutability": "view",
      "type": "function"
    },
    {
      "inputs": [],
      "name": "description",
      "outputs": [
        {
          "internalType": "bytes32",
          "name": "",
          "type": "bytes32"
        }
      ],
      "stateMutability": "view",
      "type": "function"
    },
    {
      "inputs": [
        {
          "internalType": "bytes32",
          "name": "role",
          "type": "bytes32"
        }
      ],
      "name": "getRoleAdmin",
      "outputs": [
        {
          "internalType": "bytes32",
          "name": "",
          "type": "bytes32"
        }
      ],
      "stateMutability": "view",
      "type": "function"
    },
    {
      "inputs": [
        {
          "internalType": "bytes32",
          "name": "role",
          "type": "bytes32"
        },
        {
          "internalType": "address",
          "name": "account",
          "type": "address"
        }
      ],
      "name": "grantRole",
      "outputs": [],
      "stateMutability": "nonpayable",
      "type": "function"
    },
    {
      "inputs": [
        {
          "internalType": "bytes32",
          "name": "role",
          "type": "bytes32"
        },
        {
          "internalType": "address",
          "name": "account",
          "type": "address"
        }
      ],
      "name": "hasRole",
      "outputs": [
        {
          "internalType": "bool",
          "name": "",
          "type": "bool"
        }
      ],
      "stateMutability": "view",
      "type": "function"
    },
    {
      "inputs": [],
      "name": "inBase",
      "outputs": [
        {
          "internalType": "uint256",
          "name": "",
          "type": "uint256"
        }
      ],
      "stateMutability": "view",
      "type": "function"
    },
    {
      "inputs": [
        {
          "internalType": "uint16",
          "name": "newLengthStored",
          "type": "uint16"
        }
      ],
      "name": "increaseTWAPStore",
      "outputs": [],
      "stateMutability": "nonpayable",
      "type": "function"
    },
    {
      "inputs": [],
      "name": "outBase",
      "outputs": [
        {
          "internalType": "uint256",
          "name": "",
          "type": "uint256"
        }
      ],
      "stateMutability": "view",
      "type": "function"
    },
    {
      "inputs": [],
      "name": "read",
      "outputs": [
        {
          "internalType": "uint256",
          "name": "",
          "type": "uint256"
        }
      ],
      "stateMutability": "view",
      "type": "function"
    },
    {
      "inputs": [],
      "name": "readAll",
      "outputs": [
        {
          "internalType": "uint256",
          "name": "",
          "type": "uint256"
        },
        {
          "internalType": "uint256",
          "name": "",
          "type": "uint256"
        }
      ],
      "stateMutability": "view",
      "type": "function"
    },
    {
      "inputs": [],
      "name": "readLower",
      "outputs": [
        {
          "internalType": "uint256",
          "name": "rate",
          "type": "uint256"
        }
      ],
      "stateMutability": "view",
      "type": "function"
    },
    {
      "inputs": [
        {
          "internalType": "uint256",
          "name": "quoteAmount",
          "type": "uint256"
        }
      ],
      "name": "readQuote",
      "outputs": [
        {
          "internalType": "uint256",
          "name": "",
          "type": "uint256"
        }
      ],
      "stateMutability": "view",
      "type": "function"
    },
    {
      "inputs": [
        {
          "internalType": "uint256",
          "name": "quoteAmount",
          "type": "uint256"
        }
      ],
      "name": "readQuoteLower",
      "outputs": [
        {
          "internalType": "uint256",
          "name": "",
          "type": "uint256"
        }
      ],
      "stateMutability": "view",
      "type": "function"
    },
    {
      "inputs": [],
      "name": "readUpper",
      "outputs": [
        {
          "internalType": "uint256",
          "name": "rate",
          "type": "uint256"
        }
      ],
      "stateMutability": "view",
      "type": "function"
    },
    {
      "inputs": [
        {
          "internalType": "bytes32",
          "name": "role",
          "type": "bytes32"
        },
        {
          "internalType": "address",
          "name": "account",
          "type": "address"
        }
      ],
      "name": "renounceRole",
      "outputs": [],
      "stateMutability": "nonpayable",
      "type": "function"
    },
    {
      "inputs": [
        {
          "internalType": "bytes32",
          "name": "role",
          "type": "bytes32"
        },
        {
          "internalType": "address",
          "name": "account",
          "type": "address"
        }
      ],
      "name": "revokeRole",
      "outputs": [],
      "stateMutability": "nonpayable",
      "type": "function"
    },
    {
      "inputs": [],
      "name": "stalePeriod",
      "outputs": [
        {
          "internalType": "uint32",
          "name": "",
          "type": "uint32"
        }
      ],
      "stateMutability": "view",
      "type": "function"
    },
    {
      "inputs": [],
      "name": "twapPeriod",
      "outputs": [
        {
          "internalType": "uint32",
          "name": "",
          "type": "uint32"
        }
      ],
      "stateMutability": "view",
      "type": "function"
    },
    {
      "inputs": [],
      "name": "uniFinalCurrency",
      "outputs": [
        {
          "internalType": "uint8",
          "name": "",
          "type": "uint8"
        }
      ],
      "stateMutability": "view",
      "type": "function"
    }
  ],
  "bytecode": "0x60c06040523480156200001157600080fd5b506040516200333a3803806200333a833981016040819052620000349162000b82565b898989898589898989600084519050600081116200007f5760405162461bcd60e51b815260206004820152600360248201526218981b60e91b60448201526064015b60405180910390fd5b83518114620000b75760405162461bcd60e51b81526020600482015260036024820152620c4c0d60ea1b604482015260640162000076565b6000825111620000f05760405162461bcd60e51b815260206004820152600360248201526231303160e81b604482015260640162000076565b60005b8251811015620001b45760006001600160a01b03168382815181106200011d576200011d62000ec0565b60200260200101516001600160a01b03161415620001625760405162461bcd60e51b81526020600482015260016024820152600360fc1b604482015260640162000076565b6200019f6000805160206200331a8339815191528483815181106200018b576200018b62000ec0565b6020026020010151620007a560201b60201c565b80620001ab8162000e8c565b915050620000f3565b50620001d06000805160206200331a83398151915280620007b5565b60005b818110156200030c576000868281518110620001f357620001f362000ec0565b6020908102919091018101516004805460018101825560008290527f8a35acfbc15ff81a39ae7d344fd709f28e8600b4aa8c65c6b64bfe7fe36bd19b0180546001600160a01b0319166001600160a01b0384169081179091556040805163313ce56760e01b81529051939550600694919363313ce567938281019392829003018186803b1580156200028457600080fd5b505afa15801562000299573d6000803e3d6000fd5b505050506040513d601f19601f82011682018060405250810190620002bf919062000d06565b81546001810183556000928352602092839020928104909201805460ff928316601f9094166101000a93840292909302199092161790555080620003038162000e8c565b915050620001d3565b506003805463ffffffff191663ffffffff8516179055835162000337906005906020870190620008c0565b5050505050506000815111620003765760405162461bcd60e51b815260206004820152600360248201526231303160e81b604482015260640162000076565b60005b8151811015620004265760006001600160a01b0316828281518110620003a357620003a362000ec0565b60200260200101516001600160a01b03161415620003e85760405162461bcd60e51b81526020600482015260016024820152600360fc1b604482015260640162000076565b620004116000805160206200331a8339815191528383815181106200018b576200018b62000ec0565b806200041d8162000e8c565b91505062000379565b50620004426000805160206200331a83398151915280620007b5565b60008360030b136200047d5760405162461bcd60e51b815260206004820152600360248201526218981960e91b604482015260640162000076565b845180620004b45760405162461bcd60e51b815260206004820152600360248201526231303360e81b604482015260640162000076565b84518114620004ec5760405162461bcd60e51b81526020600482015260036024820152620c4c0d60ea1b604482015260640162000076565b6007805463ffffffff191663ffffffff86161790558551620005169060089060208901906200096d565b5084516200052c906009906020880190620008c0565b5060005b81811015620005d157600881815481106200054f576200054f62000ec0565b6000918252602090912001546040516332148f6760e01b815261ffff861660048201526001600160a01b03909116906332148f6790602401600060405180830381600087803b158015620005a257600080fd5b505af1158015620005b7573d6000803e3d6000fd5b505050508080620005c89062000e8c565b91505062000530565b505050505050508a51600214620006115760405162461bcd60e51b815260206004820152600360248201526231303760e81b604482015260640162000076565b60008b60008151811062000629576200062962000ec0565b6020026020010151905060008c6001815181106200064b576200064b62000ec0565b60200260200101519050816001600160a01b031663313ce5676040518163ffffffff1660e01b815260040160206040518083038186803b1580156200068f57600080fd5b505afa158015620006a4573d6000803e3d6000fd5b505050506040513d601f19601f82011682018060405250810190620006ca919062000d06565b620006d790600a62000dcd565b600081905550806001600160a01b031663313ce5676040518163ffffffff1660e01b815260040160206040518083038186803b1580156200071757600080fd5b505afa1580156200072c573d6000803e3d6000fd5b505050506040513d601f19601f8201168201806040525081019062000752919062000d06565b6200075f90600a62000dcd565b60a052505060f89590951b7fff00000000000000000000000000000000000000000000000000000000000000166080525050506001919091555062000f05945050505050565b620007b1828262000809565b5050565b600082815260026020526040902060010154819060405184907fbd79b86ffe0ab8e8776151514217cd7cacd52c909f66475c3af44e129f0b00ff90600090a460009182526002602052604090912060010155565b62000815828262000893565b620007b15760008281526002602090815260408083206001600160a01b03851684529091529020805460ff191660011790556200084f3390565b6001600160a01b0316816001600160a01b0316837f2f8788117e7eff1d82e926ec794901d17c78024a50270940304540a733656f0d60405160405180910390a45050565b60008281526002602090815260408083206001600160a01b038516845290915290205460ff165b92915050565b82805482825590600052602060002090601f016020900481019282156200095b5791602002820160005b838211156200092a57835183826101000a81548160ff021916908360ff1602179055509260200192600101602081600001049283019260010302620008ea565b8015620009595782816101000a81549060ff02191690556001016020816000010492830192600103026200092a565b505b5062000969929150620009c5565b5090565b8280548282559060005260206000209081019282156200095b579160200282015b828111156200095b57825182546001600160a01b0319166001600160a01b039091161782556020909201916001909101906200098e565b5b80821115620009695760008155600101620009c6565b600082601f830112620009ee57600080fd5b8151602062000a0762000a018362000d5e565b62000d2b565b80838252828201915082860187848660051b890101111562000a2857600080fd5b60005b8581101562000a5457815162000a418162000eec565b8452928401929084019060010162000a2b565b5090979650505050505050565b600082601f83011262000a7357600080fd5b8151602062000a8662000a018362000d5e565b80838252828201915082860187848660051b890101111562000aa757600080fd5b60005b8581101562000a5457815162000ac08162000eec565b8452928401929084019060010162000aaa565b600082601f83011262000ae557600080fd5b8151602062000af862000a018362000d5e565b80838252828201915082860187848660051b890101111562000b1957600080fd5b60005b8581101562000a545762000b308262000b70565b8452928401929084019060010162000b1c565b805161ffff8116811462000b5657600080fd5b919050565b805163ffffffff8116811462000b5657600080fd5b805160ff8116811462000b5657600080fd5b60008060008060008060008060008060006101608c8e03121562000ba557600080fd5b8b516001600160401b0381111562000bbc57600080fd5b62000bca8e828f01620009dc565b60208e0151909c5090506001600160401b0381111562000be957600080fd5b62000bf78e828f0162000a61565b60408e0151909b5090506001600160401b0381111562000c1657600080fd5b62000c248e828f0162000ad3565b99505062000c3560608d0162000b5b565b975062000c4560808d0162000b43565b965062000c5560a08d0162000b70565b60c08d01519096506001600160401b0381111562000c7257600080fd5b62000c808e828f01620009dc565b60e08e015190965090506001600160401b0381111562000c9f57600080fd5b62000cad8e828f0162000ad3565b94505062000cbf6101008d0162000b5b565b6101208d01519093506001600160401b0381111562000cdd57600080fd5b62000ceb8e828f01620009dc565b9250506101408c015190509295989b509295989b9093969950565b60006020828403121562000d1957600080fd5b62000d248262000b70565b9392505050565b604051601f8201601f191681016001600160401b038111828210171562000d565762000d5662000ed6565b604052919050565b60006001600160401b0382111562000d7a5762000d7a62000ed6565b5060051b60200190565b600181815b8085111562000dc557816000190482111562000da95762000da962000eaa565b8085161562000db757918102915b93841c939080029062000d89565b509250929050565b600062000d2460ff84168360008262000de957506001620008ba565b8162000df857506000620008ba565b816001811462000e11576002811462000e1c5762000e3c565b6001915050620008ba565b60ff84111562000e305762000e3062000eaa565b50506001821b620008ba565b5060208310610133831016604e8410600b841016171562000e61575081810a620008ba565b62000e6d838362000d84565b806000190482111562000e845762000e8462000eaa565b029392505050565b600060001982141562000ea35762000ea362000eaa565b5060010190565b634e487b7160e01b600052601160045260246000fd5b634e487b7160e01b600052603260045260246000fd5b634e487b7160e01b600052604160045260246000fd5b6001600160a01b038116811462000f0257600080fd5b50565b60805160f81c60a0516123d062000f4a60003960008181610213015281816108880152610ad6015260008181610466015281816108c90152610b4b01526123d06000f3fe608060405234801561001057600080fd5b50600436106101cf5760003560e01c806391d1485411610104578063b31dbb9f116100a2578063dbda63de11610071578063dbda63de1461043f578063ec342ad014610452578063ee32d64114610461578063f62073261461048857600080fd5b8063b31dbb9f146103ce578063cf330c26146103e1578063d547741f14610419578063d74febcb1461042c57600080fd5b80639e0a8500116100de5780639e0a85001461038e578063a217fddf146103a1578063a47b5a7c146101d4578063a5b36a36146103a957600080fd5b806391d148541461032757806392611e331461037d5780639aefb5c31461038557600080fd5b806336568abe1161017157806357de26a41161014b57806357de26a4146102f0578063630914d1146102f857806365cf10b61461030b5780637284e4161461031e57600080fd5b806336568abe146102b857806341f654f7146102cb578063442133bd146102e857600080fd5b8063248a9ca3116101ad578063248a9ca3146102485780632b271dde1461026b5780632f2ff15d146102905780633593ba7b146102a557600080fd5b80630942d09a146101d457806322834baa1461020e578063240fd5ab14610235575b600080fd5b6101fb7f55435dd261a4b9b3364963f7738a7a662ad9c84396d64be3365284bb7f0a504181565b6040519081526020015b60405180910390f35b6101fb7f000000000000000000000000000000000000000000000000000000000000000081565b6101fb610243366004611c59565b610498565b6101fb610256366004611c59565b60009081526002602052604090206001015490565b61027e610279366004611c59565b6104a9565b60405160ff9091168152602001610205565b6102a361029e366004611c72565b6104dd565b005b6101fb6102b3366004611c59565b610508565b6102a36102c6366004611c72565b61051c565b6102d36105ae565b60408051928352602083019190915201610205565b6101fb6105c4565b6101fb6105d1565b6102a3610306366004611cc6565b6105e3565b6102a3610319366004611ca2565b610646565b6101fb60015481565b61036d610335366004611c72565b600091825260026020908152604080842073ffffffffffffffffffffffffffffffffffffffff93909316845291905290205460ff1690565b6040519015158152602001610205565b6101fb610709565b6101fb60005481565b61027e61039c366004611c59565b61071c565b6101fb600081565b6003546103b99063ffffffff1681565b60405163ffffffff9091168152602001610205565b6102a36103dc366004611cc6565b61072c565b6103f46103ef366004611c59565b6107fc565b60405173ffffffffffffffffffffffffffffffffffffffff9091168152602001610205565b6102a3610427366004611c72565b610833565b6103f461043a366004611c59565b610859565b61027e61044d366004611c59565b610869565b6101fb670de0b6b3a764000081565b61027e7f000000000000000000000000000000000000000000000000000000000000000081565b6007546103b99063ffffffff1681565b60006104a382610879565b92915050565b600981815481106104b957600080fd5b9060005260206000209060209182820401919006915054906101000a900460ff1681565b6000828152600260205260409020600101546104f981336108fe565b61050383836109d0565b505050565b60008061051483610ac4565b509392505050565b73ffffffffffffffffffffffffffffffffffffffff811633146105a0576040517f08c379a000000000000000000000000000000000000000000000000000000000815260206004820152600260248201527f373100000000000000000000000000000000000000000000000000000000000060448201526064015b60405180910390fd5b6105aa8282610b99565b5050565b6000806105bc600054610ac4565b915091509091565b60006104a3600054610ac4565b60006105de600054610879565b905090565b7f55435dd261a4b9b3364963f7738a7a662ad9c84396d64be3365284bb7f0a504161060e81336108fe565b50600380547fffffffffffffffffffffffffffffffffffffffffffffffffffffffff000000001663ffffffff92909216919091179055565b60005b6008548110156105aa576008818154811061066657610666612317565b6000918252602090912001546040517f32148f6700000000000000000000000000000000000000000000000000000000815261ffff8416600482015273ffffffffffffffffffffffffffffffffffffffff909116906332148f6790602401600060405180830381600087803b1580156106de57600080fd5b505af11580156106f2573d6000803e3d6000fd5b50505050808061070190612211565b915050610649565b6000610716600054610ac4565b50919050565b600581815481106104b957600080fd5b7f55435dd261a4b9b3364963f7738a7a662ad9c84396d64be3365284bb7f0a504161075781336108fe565b60008260030b136107c4576040517f08c379a000000000000000000000000000000000000000000000000000000000815260206004820152600260248201527f39390000000000000000000000000000000000000000000000000000000000006044820152606401610597565b50600780547fffffffffffffffffffffffffffffffffffffffffffffffffffffffff000000001663ffffffff92909216919091179055565b6004818154811061080c57600080fd5b60009182526020909120015473ffffffffffffffffffffffffffffffffffffffff16905081565b60008281526002602052604090206001015461084f81336108fe565b6105038383610b99565b6008818154811061080c57600080fd5b600681815481106104b957600080fd5b600061088482610c54565b90507f00000000000000000000000000000000000000000000000000000000000000006108b9670de0b6b3a764000083612092565b6108c39190611f57565b905060ff7f000000000000000000000000000000000000000000000000000000000000000016156108f9576104a3600082610cf2565b919050565b600082815260026020908152604080832073ffffffffffffffffffffffffffffffffffffffff8516845290915290205460ff166105aa576109568173ffffffffffffffffffffffffffffffffffffffff166014610dba565b610961836020610dba565b604051602001610972929190611d3c565b604080517fffffffffffffffffffffffffffffffffffffffffffffffffffffffffffffffe0818403018152908290527f08c379a000000000000000000000000000000000000000000000000000000000825261059791600401611e07565b600082815260026020908152604080832073ffffffffffffffffffffffffffffffffffffffff8516845290915290205460ff166105aa57600082815260026020908152604080832073ffffffffffffffffffffffffffffffffffffffff85168452909152902080547fffffffffffffffffffffffffffffffffffffffffffffffffffffffffffffff00166001179055610a663390565b73ffffffffffffffffffffffffffffffffffffffff168173ffffffffffffffffffffffffffffffffffffffff16837f2f8788117e7eff1d82e926ec794901d17c78024a50270940304540a733656f0d60405160405180910390a45050565b6000806000610ad284610c54565b90507f0000000000000000000000000000000000000000000000000000000000000000610b07670de0b6b3a764000083612092565b610b119190611f57565b905060008054670de0b6b3a764000086610b2b9190612092565b610b359190611f57565b90506000610b4282611004565b909250905060ff7f00000000000000000000000000000000000000000000000000000000000000001615610b7d57610b7a8184610cf2565b92505b828211610b8e575094909350915050565b509094909350915050565b600082815260026020908152604080832073ffffffffffffffffffffffffffffffffffffffff8516845290915290205460ff16156105aa57600082815260026020908152604080832073ffffffffffffffffffffffffffffffffffffffff8516808552925280832080547fffffffffffffffffffffffffffffffffffffffffffffffffffffffffffffff0016905551339285917ff6391f5c32d9c69d2a47ea670b442974b53935d1edc7fd64eb21e047a839171b9190a45050565b6000805b600854811015610ceb57610cd78360088381548110610c7957610c79612317565b6000918252602090912001546009805473ffffffffffffffffffffffffffffffffffffffff9092169185908110610cb257610cb2612317565b90600052602060002090602091828204019190069054906101000a900460ff166110d9565b925080610ce381612211565b915050610c58565b5090919050565b6004546000908190610d0690600190612137565b9050610db18360048381548110610d1f57610d1f612317565b6000918252602090912001546005805473ffffffffffffffffffffffffffffffffffffffff9092169185908110610d5857610d58612317565b90600052602060002090602091828204019190069054906101000a900460ff1660068581548110610d8b57610d8b612317565b60009182526020918290209181049091015460ff601f9092166101000a900416886112e0565b50949350505050565b60606000610dc9836002612092565b610dd4906002611ecb565b67ffffffffffffffff811115610dec57610dec612346565b6040519080825280601f01601f191660200182016040528015610e16576020820181803683370190505b5090507f300000000000000000000000000000000000000000000000000000000000000081600081518110610e4d57610e4d612317565b60200101907effffffffffffffffffffffffffffffffffffffffffffffffffffffffffffff1916908160001a9053507f780000000000000000000000000000000000000000000000000000000000000081600181518110610eb057610eb0612317565b60200101907effffffffffffffffffffffffffffffffffffffffffffffffffffffffffffff1916908160001a9053506000610eec846002612092565b610ef7906001611ecb565b90505b6001811115610f94577f303132333435363738396162636465660000000000000000000000000000000085600f1660108110610f3857610f38612317565b1a60f81b828281518110610f4e57610f4e612317565b60200101907effffffffffffffffffffffffffffffffffffffffffffffffffffffffffffff1916908160001a90535060049490941c93610f8d816121dc565b9050610efa565b508315610ffd576040517f08c379a000000000000000000000000000000000000000000000000000000000815260206004820181905260248201527f537472696e67733a20686578206c656e67746820696e73756666696369656e746044820152606401610597565b9392505050565b60008080805b6004548110156110d1576110ba856004838154811061102b5761102b612317565b6000918252602090912001546005805473ffffffffffffffffffffffffffffffffffffffff909216918590811061106457611064612317565b90600052602060002090602091828204019190069054906101000a900460ff166006858154811061109757611097612317565b60009182526020808320908204015460ff601f9092166101000a900416906112e0565b9095509150806110c981612211565b91505061100a565b509293915050565b604080516002808252606082018352600092839291906020830190803683375050600754825192935063ffffffff169183915060009061111b5761111b612317565b602002602001019063ffffffff16908163ffffffff168152505060008160018151811061114a5761114a612317565b63ffffffff909216602092830291909101909101526040517f883bdbfd00000000000000000000000000000000000000000000000000000000815260009073ffffffffffffffffffffffffffffffffffffffff86169063883bdbfd906111b4908590600401611dbd565b60006040518083038186803b1580156111cc57600080fd5b505afa1580156111e0573d6000803e3d6000fd5b505050506040513d6000823e601f3d9081017fffffffffffffffffffffffffffffffffffffffffffffffffffffffffffffffe01682016040526112269190810190611b87565b50905060008160008151811061123e5761123e612317565b60200260200101518260018151811061125957611259612317565b602002602001015161126b91906120cf565b6007549091506000906112879063ffffffff1660030b83611ee3565b905060008260060b1280156112b357506007546112ad9063ffffffff1660030b8361224a565b60060b15155b156112c657806112c28161217e565b9150505b6112d481898860ff16611488565b98975050505050505050565b60008082611427576000806000808973ffffffffffffffffffffffffffffffffffffffff1663feaf968c6040518163ffffffff1660e01b815260040160a06040518083038186803b15801561133457600080fd5b505afa158015611348573d6000803e3d6000fd5b505050506040513d601f19601f8201168201806040525081019061136c9190611cec565b94509450509350935060008313801561139d57508069ffffffffffffffffffff168469ffffffffffffffffffff1611155b80156113ba575060035463ffffffff166113b78342612137565b11155b611420576040517f08c379a000000000000000000000000000000000000000000000000000000000815260206004820152600360248201527f31303000000000000000000000000000000000000000000000000000000000006044820152606401610597565b5090945050505b8460ff16600114156114595761143e84600a611fcc565b6114488489612092565b6114529190611f57565b965061147c565b8261146585600a611fcc565b61146f9089612092565b6114799190611f57565b96505b50949590945092505050565b600080611494856114d2565b9050826001146114b6576114b1670de0b6b3a7640000858361195a565b6114c9565b6114c98185670de0b6b3a764000061195a565b95945050505050565b60008060008360020b126114e9578260020b6114f6565b8260020b6114f690612280565b9050620d89e8811115611565576040517f08c379a000000000000000000000000000000000000000000000000000000000815260206004820152600160248201527f54000000000000000000000000000000000000000000000000000000000000006044820152606401610597565b60006001821661158657700100000000000000000000000000000000611598565b6ffff97272373d413259a46990580e213a5b70ffffffffffffffffffffffffffffffffff16905060028216156115d75760806115d2826ffff2e50f5f656932ef12357cf3c7fdcc612092565b901c90505b60048216156116015760806115fc826fffe5caca7e10e4e61c3624eaa0941cd0612092565b901c90505b600882161561162b576080611626826fffcb9843d60f6159c9db58835c926644612092565b901c90505b6010821615611655576080611650826fff973b41fa98c081472e6896dfb254c0612092565b901c90505b602082161561167f57608061167a826fff2ea16466c96a3843ec78b326b52861612092565b901c90505b60408216156116a95760806116a4826ffe5dee046a99a2a811c461f1969c3053612092565b901c90505b60808216156116d35760806116ce826ffcbe86c7900a88aedcffc83b479aa3a4612092565b901c90505b6101008216156116fe5760806116f9826ff987a7253ac413176f2b074cf7815e54612092565b901c90505b610200821615611729576080611724826ff3392b0822b70005940c7a398e4b70f3612092565b901c90505b61040082161561175457608061174f826fe7159475a2c29b7443b29c7fa6e889d9612092565b901c90505b61080082161561177f57608061177a826fd097f3bdfd2022b8845ad8f792aa5825612092565b901c90505b6110008216156117aa5760806117a5826fa9f746462d870fdf8a65dc1f90e061e5612092565b901c90505b6120008216156117d55760806117d0826f70d869a156d2a1b890bb3df62baf32f7612092565b901c90505b6140008216156118005760806117fb826f31be135f97d08fd981231505542fcfa6612092565b901c90505b61800082161561182b576080611826826f09aa508b5b7a84e1c677de54f3e99bc9612092565b901c90505b62010000821615611856576080611851826e5d6af8dedb81196699c329225ee604612092565b901c90505b6202000082161561188057608061187b826d2216e584f5fa1ea926041bedfe98612092565b901c90505b620400008216156118a85760806118a3826b048a170391f7dc42444e8fa2612092565b901c90505b620800008216156118cb5760806118c68266149b34ee7ac262612092565b901c90505b60008460020b131561190457611901817fffffffffffffffffffffffffffffffffffffffffffffffffffffffffffffffff611f57565b90505b6000611919682000000000000000008361226c565b15611925576001611928565b60005b6119399060ff16604584901c611ecb565b9050603b61194f82670de0b6b3a7640000612092565b901c95945050505050565b600080807fffffffffffffffffffffffffffffffffffffffffffffffffffffffffffffffff85870985870292508281108382030391505080600014156119b257600084116119a757600080fd5b508290049050610ffd565b8084116119be57600080fd5b60008486880980840393811190920391905060006119de86196001611ecb565b86169586900495938490049360008190030460010190506119ff8184612092565b909317926000611a10876003612092565b6002189050611a1f8188612092565b611a2a906002612137565b611a349082612092565b9050611a408188612092565b611a4b906002612137565b611a559082612092565b9050611a618188612092565b611a6c906002612137565b611a769082612092565b9050611a828188612092565b611a8d906002612137565b611a979082612092565b9050611aa38188612092565b611aae906002612137565b611ab89082612092565b9050611ac48188612092565b611acf906002612137565b611ad99082612092565b9050611ae58186612092565b9998505050505050505050565b600082601f830112611b0357600080fd5b81516020611b18611b1383611ea7565b611e58565b80838252828201915082860187848660051b8901011115611b3857600080fd5b60005b85811015611b60578151611b4e81612375565b84529284019290840190600101611b3b565b5090979650505050505050565b805169ffffffffffffffffffff811681146108f957600080fd5b60008060408385031215611b9a57600080fd5b825167ffffffffffffffff80821115611bb257600080fd5b818501915085601f830112611bc657600080fd5b81516020611bd6611b1383611ea7565b8083825282820191508286018a848660051b8901011115611bf657600080fd5b600096505b84871015611c285780518060060b8114611c1457600080fd5b835260019690960195918301918301611bfb565b5091880151919650909350505080821115611c4257600080fd5b50611c4f85828601611af2565b9150509250929050565b600060208284031215611c6b57600080fd5b5035919050565b60008060408385031215611c8557600080fd5b823591506020830135611c9781612375565b809150509250929050565b600060208284031215611cb457600080fd5b813561ffff81168114610ffd57600080fd5b600060208284031215611cd857600080fd5b813563ffffffff81168114610ffd57600080fd5b600080600080600060a08688031215611d0457600080fd5b611d0d86611b6d565b9450602086015193506040860151925060608601519150611d3060808701611b6d565b90509295509295909350565b7f416363657373436f6e74726f6c3a206163636f756e7420000000000000000000815260008351611d7481601785016020880161214e565b7f206973206d697373696e6720726f6c65200000000000000000000000000000006017918401918201528351611db181602884016020880161214e565b01602801949350505050565b6020808252825182820181905260009190848201906040850190845b81811015611dfb57835163ffffffff1683529284019291840191600101611dd9565b50909695505050505050565b6020815260008251806020840152611e2681604085016020870161214e565b601f017fffffffffffffffffffffffffffffffffffffffffffffffffffffffffffffffe0169190910160400192915050565b604051601f82017fffffffffffffffffffffffffffffffffffffffffffffffffffffffffffffffe016810167ffffffffffffffff81118282101715611e9f57611e9f612346565b604052919050565b600067ffffffffffffffff821115611ec157611ec1612346565b5060051b60200190565b60008219821115611ede57611ede6122b9565b500190565b60008160060b8360060b80611efa57611efa6122e8565b7fffffffffffffffffffffffffffffffffffffffffffffffffffffffffffffffff81147fffffffffffffffffffffffffffffffffffffffffffffffffff8000000000000083141615611f4e57611f4e6122b9565b90059392505050565b600082611f6657611f666122e8565b500490565b600181815b80851115611fc457817fffffffffffffffffffffffffffffffffffffffffffffffffffffffffffffffff04821115611faa57611faa6122b9565b80851615611fb757918102915b93841c9390800290611f70565b509250929050565b6000610ffd8383600082611fe2575060016104a3565b81611fef575060006104a3565b8160018114612005576002811461200f5761202b565b60019150506104a3565b60ff841115612020576120206122b9565b50506001821b6104a3565b5060208310610133831016604e8410600b841016171561204e575081810a6104a3565b6120588383611f6b565b807fffffffffffffffffffffffffffffffffffffffffffffffffffffffffffffffff0482111561208a5761208a6122b9565b029392505050565b6000817fffffffffffffffffffffffffffffffffffffffffffffffffffffffffffffffff04831182151516156120ca576120ca6122b9565b500290565b60008160060b8360060b60008112817fffffffffffffffffffffffffffffffffffffffffffffffffff8000000000000001831281151615612112576121126122b9565b81667fffffffffffff01831381161561212d5761212d6122b9565b5090039392505050565b600082821015612149576121496122b9565b500390565b60005b83811015612169578181015183820152602001612151565b83811115612178576000848401525b50505050565b60008160020b7fffffffffffffffffffffffffffffffffffffffffffffffffffffffffff8000008114156121b4576121b46122b9565b7fffffffffffffffffffffffffffffffffffffffffffffffffffffffffffffffff0192915050565b6000816121eb576121eb6122b9565b507fffffffffffffffffffffffffffffffffffffffffffffffffffffffffffffffff0190565b60007fffffffffffffffffffffffffffffffffffffffffffffffffffffffffffffffff821415612243576122436122b9565b5060010190565b60008260060b8061225d5761225d6122e8565b808360060b0791505092915050565b60008261227b5761227b6122e8565b500690565b60007f80000000000000000000000000000000000000000000000000000000000000008214156122b2576122b26122b9565b5060000390565b7f4e487b7100000000000000000000000000000000000000000000000000000000600052601160045260246000fd5b7f4e487b7100000000000000000000000000000000000000000000000000000000600052601260045260246000fd5b7f4e487b7100000000000000000000000000000000000000000000000000000000600052603260045260246000fd5b7f4e487b7100000000000000000000000000000000000000000000000000000000600052604160045260246000fd5b73ffffffffffffffffffffffffffffffffffffffff8116811461239757600080fd5b5056fea264697066735822122082b20ecd040d469c1be3905c0bd1a58ddd52e614b075435cf9b70fd521857aab64736f6c6343000807003355435dd261a4b9b3364963f7738a7a662ad9c84396d64be3365284bb7f0a5041",
  "linkReferences": {},
  "deployedLinkReferences": {}
}