{
  "_format": "hh-sol-artifact-1",
  "contractName": "BondingCurve",
  "sourceName": "contracts/bondingCurve/BondingCurve.sol",
  "abi": [
    {
      "inputs": [
        {
          "internalType": "address[]",
          "name": "governorList",
          "type": "address[]"
        },
        {
          "internalType": "address",
          "name": "guardian",
          "type": "address"
        },
        {
          "internalType": "uint256",
          "name": "_startPrice",
          "type": "uint256"
        },
        {
          "internalType": "contract IERC20",
          "name": "_soldToken",
          "type": "address"
        }
      ],
      "stateMutability": "nonpayable",
      "type": "constructor"
    },
    {
      "anonymous": false,
      "inputs": [
        {
          "indexed": false,
          "internalType": "uint256",
          "name": "_startPrice",
          "type": "uint256"
        },
        {
          "indexed": true,
          "internalType": "address",
          "name": "_soldToken",
          "type": "address"
        }
      ],
      "name": "BondingCurveInit",
      "type": "event"
    },
    {
      "anonymous": false,
      "inputs": [
        {
          "indexed": true,
          "internalType": "address",
          "name": "_agToken",
          "type": "address"
        },
        {
          "indexed": false,
          "internalType": "bool",
          "name": "_isReference",
          "type": "bool"
        },
        {
          "indexed": true,
          "internalType": "address",
          "name": "_oracle",
          "type": "address"
        }
      ],
      "name": "ModifiedStablecoin",
      "type": "event"
    },
    {
      "anonymous": false,
      "inputs": [
        {
          "indexed": false,
          "internalType": "address",
          "name": "account",
          "type": "address"
        }
      ],
      "name": "Paused",
      "type": "event"
    },
    {
      "anonymous": false,
      "inputs": [
        {
          "indexed": true,
          "internalType": "address",
          "name": "tokenAddress",
          "type": "address"
        },
        {
          "indexed": true,
          "internalType": "address",
          "name": "to",
          "type": "address"
        },
        {
          "indexed": false,
          "internalType": "uint256",
          "name": "amount",
          "type": "uint256"
        }
      ],
      "name": "Recovered",
      "type": "event"
    },
    {
      "anonymous": false,
      "inputs": [
        {
          "indexed": true,
          "internalType": "address",
          "name": "_agToken",
          "type": "address"
        }
      ],
      "name": "RevokedStablecoin",
      "type": "event"
    },
    {
      "anonymous": false,
      "inputs": [
        {
          "indexed": true,
          "internalType": "bytes32",
          "name": "role",
          "type": "bytes32"
        },
        {
          "indexed": true,
          "internalType": "bytes32",
          "name": "previousAdminRole",
          "type": "bytes32"
        },
        {
          "indexed": true,
          "internalType": "bytes32",
          "name": "newAdminRole",
          "type": "bytes32"
        }
      ],
      "name": "RoleAdminChanged",
      "type": "event"
    },
    {
      "anonymous": false,
      "inputs": [
        {
          "indexed": true,
          "internalType": "bytes32",
          "name": "role",
          "type": "bytes32"
        },
        {
          "indexed": true,
          "internalType": "address",
          "name": "account",
          "type": "address"
        },
        {
          "indexed": true,
          "internalType": "address",
          "name": "sender",
          "type": "address"
        }
      ],
      "name": "RoleGranted",
      "type": "event"
    },
    {
      "anonymous": false,
      "inputs": [
        {
          "indexed": true,
          "internalType": "bytes32",
          "name": "role",
          "type": "bytes32"
        },
        {
          "indexed": true,
          "internalType": "address",
          "name": "account",
          "type": "address"
        },
        {
          "indexed": true,
          "internalType": "address",
          "name": "sender",
          "type": "address"
        }
      ],
      "name": "RoleRevoked",
      "type": "event"
    },
    {
      "anonymous": false,
      "inputs": [
        {
          "indexed": false,
          "internalType": "uint256",
          "name": "_startPrice",
          "type": "uint256"
        }
      ],
      "name": "StartPriceUpdated",
      "type": "event"
    },
    {
      "anonymous": false,
      "inputs": [
        {
          "indexed": false,
          "internalType": "uint256",
          "name": "_quantityOfANGLESold",
          "type": "uint256"
        },
        {
          "indexed": true,
          "internalType": "address",
          "name": "_stableCoinUsed",
          "type": "address"
        },
        {
          "indexed": false,
          "internalType": "uint256",
          "name": "_amountToPayInAgToken",
          "type": "uint256"
        }
      ],
      "name": "TokenSale",
      "type": "event"
    },
    {
      "anonymous": false,
      "inputs": [
        {
          "indexed": false,
          "internalType": "uint256",
          "name": "_tokensToSell",
          "type": "uint256"
        }
      ],
      "name": "TokensToSellUpdated",
      "type": "event"
    },
    {
      "anonymous": false,
      "inputs": [
        {
          "indexed": false,
          "internalType": "address",
          "name": "account",
          "type": "address"
        }
      ],
      "name": "Unpaused",
      "type": "event"
    },
    {
      "inputs": [],
      "name": "BASE_TOKENS",
      "outputs": [
        {
          "internalType": "uint256",
          "name": "",
          "type": "uint256"
        }
      ],
      "stateMutability": "view",
      "type": "function"
    },
    {
      "inputs": [],
      "name": "DEFAULT_ADMIN_ROLE",
      "outputs": [
        {
          "internalType": "bytes32",
          "name": "",
          "type": "bytes32"
        }
      ],
      "stateMutability": "view",
      "type": "function"
    },
    {
      "inputs": [],
      "name": "GOVERNOR_ROLE",
      "outputs": [
        {
          "internalType": "bytes32",
          "name": "",
          "type": "bytes32"
        }
      ],
      "stateMutability": "view",
      "type": "function"
    },
    {
      "inputs": [],
      "name": "GUARDIAN_ROLE",
      "outputs": [
        {
          "internalType": "bytes32",
          "name": "",
          "type": "bytes32"
        }
      ],
      "stateMutability": "view",
      "type": "function"
    },
    {
      "inputs": [
        {
          "internalType": "contract IAgToken",
          "name": "_agToken",
          "type": "address"
        },
        {
          "internalType": "contract IOracle",
          "name": "_oracle",
          "type": "address"
        },
        {
          "internalType": "uint256",
          "name": "_isReference",
          "type": "uint256"
        }
      ],
      "name": "allowNewStablecoin",
      "outputs": [],
      "stateMutability": "nonpayable",
      "type": "function"
    },
    {
      "inputs": [
        {
          "internalType": "contract IAgToken",
          "name": "",
          "type": "address"
        }
      ],
      "name": "allowedStablecoins",
      "outputs": [
        {
          "internalType": "contract IOracle",
          "name": "",
          "type": "address"
        }
      ],
      "stateMutability": "view",
      "type": "function"
    },
    {
      "inputs": [
        {
          "internalType": "contract IAgToken",
          "name": "_agToken",
          "type": "address"
        },
        {
          "internalType": "uint256",
          "name": "targetSoldTokenQuantity",
          "type": "uint256"
        },
        {
          "internalType": "uint256",
          "name": "maxAmountToPayInAgToken",
          "type": "uint256"
        }
      ],
      "name": "buySoldToken",
      "outputs": [],
      "stateMutability": "nonpayable",
      "type": "function"
    },
    {
      "inputs": [
        {
          "internalType": "contract IAgToken",
          "name": "_agToken",
          "type": "address"
        },
        {
          "internalType": "contract IOracle",
          "name": "_oracle",
          "type": "address"
        }
      ],
      "name": "changeOracle",
      "outputs": [],
      "stateMutability": "nonpayable",
      "type": "function"
    },
    {
      "inputs": [
        {
          "internalType": "uint256",
          "name": "_startPrice",
          "type": "uint256"
        }
      ],
      "name": "changeStartPrice",
      "outputs": [],
      "stateMutability": "nonpayable",
      "type": "function"
    },
    {
      "inputs": [
        {
          "internalType": "uint256",
          "name": "_totalTokensToSell",
          "type": "uint256"
        }
      ],
      "name": "changeTokensToSell",
      "outputs": [],
      "stateMutability": "nonpayable",
      "type": "function"
    },
    {
      "inputs": [
        {
          "internalType": "uint256",
          "name": "targetQuantity",
          "type": "uint256"
        }
      ],
      "name": "computePriceFromQuantity",
      "outputs": [
        {
          "internalType": "uint256",
          "name": "",
          "type": "uint256"
        }
      ],
      "stateMutability": "view",
      "type": "function"
    },
    {
      "inputs": [],
      "name": "getCurrentPrice",
      "outputs": [
        {
          "internalType": "uint256",
          "name": "",
          "type": "uint256"
        }
      ],
      "stateMutability": "view",
      "type": "function"
    },
    {
      "inputs": [],
      "name": "getQuantityLeftToSell",
      "outputs": [
        {
          "internalType": "uint256",
          "name": "",
          "type": "uint256"
        }
      ],
      "stateMutability": "view",
      "type": "function"
    },
    {
      "inputs": [
        {
          "internalType": "bytes32",
          "name": "role",
          "type": "bytes32"
        }
      ],
      "name": "getRoleAdmin",
      "outputs": [
        {
          "internalType": "bytes32",
          "name": "",
          "type": "bytes32"
        }
      ],
      "stateMutability": "view",
      "type": "function"
    },
    {
      "inputs": [
        {
          "internalType": "bytes32",
          "name": "role",
          "type": "bytes32"
        },
        {
          "internalType": "address",
          "name": "account",
          "type": "address"
        }
      ],
      "name": "grantRole",
      "outputs": [],
      "stateMutability": "nonpayable",
      "type": "function"
    },
    {
      "inputs": [
        {
          "internalType": "bytes32",
          "name": "role",
          "type": "bytes32"
        },
        {
          "internalType": "address",
          "name": "account",
          "type": "address"
        }
      ],
      "name": "hasRole",
      "outputs": [
        {
          "internalType": "bool",
          "name": "",
          "type": "bool"
        }
      ],
      "stateMutability": "view",
      "type": "function"
    },
    {
      "inputs": [],
      "name": "pause",
      "outputs": [],
      "stateMutability": "nonpayable",
      "type": "function"
    },
    {
      "inputs": [],
      "name": "paused",
      "outputs": [
        {
          "internalType": "bool",
          "name": "",
          "type": "bool"
        }
      ],
      "stateMutability": "view",
      "type": "function"
    },
    {
      "inputs": [
        {
          "internalType": "address",
          "name": "tokenAddress",
          "type": "address"
        },
        {
          "internalType": "address",
          "name": "to",
          "type": "address"
        },
        {
          "internalType": "uint256",
          "name": "amountToRecover",
          "type": "uint256"
        }
      ],
      "name": "recoverERC20",
      "outputs": [],
      "stateMutability": "nonpayable",
      "type": "function"
    },
    {
      "inputs": [],
      "name": "referenceCoin",
      "outputs": [
        {
          "internalType": "address",
          "name": "",
          "type": "address"
        }
      ],
      "stateMutability": "view",
      "type": "function"
    },
    {
      "inputs": [
        {
          "internalType": "bytes32",
          "name": "role",
          "type": "bytes32"
        },
        {
          "internalType": "address",
          "name": "account",
          "type": "address"
        }
      ],
      "name": "renounceRole",
      "outputs": [],
      "stateMutability": "nonpayable",
      "type": "function"
    },
    {
      "inputs": [
        {
          "internalType": "bytes32",
          "name": "role",
          "type": "bytes32"
        },
        {
          "internalType": "address",
          "name": "account",
          "type": "address"
        }
      ],
      "name": "revokeRole",
      "outputs": [],
      "stateMutability": "nonpayable",
      "type": "function"
    },
    {
      "inputs": [
        {
          "internalType": "contract IAgToken",
          "name": "_agToken",
          "type": "address"
        }
      ],
      "name": "revokeStablecoin",
      "outputs": [],
      "stateMutability": "nonpayable",
      "type": "function"
    },
    {
      "inputs": [],
      "name": "soldToken",
      "outputs": [
        {
          "internalType": "contract IERC20",
          "name": "",
          "type": "address"
        }
      ],
      "stateMutability": "view",
      "type": "function"
    },
    {
      "inputs": [],
      "name": "startPrice",
      "outputs": [
        {
          "internalType": "uint256",
          "name": "",
          "type": "uint256"
        }
      ],
      "stateMutability": "view",
      "type": "function"
    },
    {
      "inputs": [],
      "name": "tokensSold",
      "outputs": [
        {
          "internalType": "uint256",
          "name": "",
          "type": "uint256"
        }
      ],
      "stateMutability": "view",
      "type": "function"
    },
    {
      "inputs": [],
      "name": "totalTokensToSell",
      "outputs": [
        {
          "internalType": "uint256",
          "name": "",
          "type": "uint256"
        }
      ],
      "stateMutability": "view",
      "type": "function"
    },
    {
      "inputs": [],
      "name": "unpause",
      "outputs": [],
      "stateMutability": "nonpayable",
      "type": "function"
    }
  ],
  "bytecode": "0x60a060405260018054610100600160a81b03191690553480156200002257600080fd5b5060405162002a9d38038062002a9d833981016040819052620000459162000374565b6001805460ff191690556001600160a01b038316158015906200007057506001600160a01b03811615155b620000a65760405162461bcd60e51b81526020600482015260016024820152600360fc1b60448201526064015b60405180910390fd5b60005b8451811015620001935760006001600160a01b0316858281518110620000d357620000d3620004a7565b60200260200101516001600160a01b03161415620001185760405162461bcd60e51b81526020600482015260016024820152600360fc1b60448201526064016200009d565b6200015560008051602062002a5d833981519152868381518110620001415762000141620004a7565b60200260200101516200025360201b60201c565b6200017e60008051602062002a7d833981519152868381518110620001415762000141620004a7565b806200018a816200047d565b915050620000a9565b50620001af60008051602062002a7d8339815191528462000253565b620001ca60008051602062002a5d8339815191528062000263565b620001f460008051602062002a7d83398151915260008051602062002a5d83398151915262000263565b6002829055606081901b6001600160601b0319166080526040518281526001600160a01b038216907fc8569e9b46c28277a3176ebc22b3148bb1988cc6a09679d00c7861123c95c2e79060200160405180910390a250505050620004d3565b6200025f8282620002b7565b5050565b600082815260208190526040902060010154819060405184907fbd79b86ffe0ab8e8776151514217cd7cacd52c909f66475c3af44e129f0b00ff90600090a460009182526020829052604090912060010155565b6000828152602081815260408083206001600160a01b038516845290915290205460ff166200025f576000828152602081815260408083206001600160a01b03851684529091529020805460ff19166001179055620003133390565b6001600160a01b0316816001600160a01b0316837f2f8788117e7eff1d82e926ec794901d17c78024a50270940304540a733656f0d60405160405180910390a45050565b80516001600160a01b03811681146200036f57600080fd5b919050565b600080600080608085870312156200038b57600080fd5b84516001600160401b0380821115620003a357600080fd5b818701915087601f830112620003b857600080fd5b8151602082821115620003cf57620003cf620004bd565b8160051b604051601f19603f83011681018181108682111715620003f757620003f7620004bd565b604052838152828101945085830182870184018d10156200041757600080fd5b600096505b848710156200044557620004308162000357565b8652600196909601959483019483016200041c565b50985062000457905089820162000357565b96505050505060408501519150620004726060860162000357565b905092959194509250565b6000600019821415620004a057634e487b7160e01b600052601160045260246000fd5b5060010190565b634e487b7160e01b600052603260045260246000fd5b634e487b7160e01b600052604160045260246000fd5b60805160601c61254f6200050e6000396000818161036b015281816104a10152818161052301528181610b4101526114d7015261254f6000f3fe608060405234801561001057600080fd5b50600436106101c45760003560e01c8063520ea50a116100f9578063ccc5749011610097578063df1b8bd311610071578063df1b8bd314610441578063eb91d37e14610450578063ec465c5f14610458578063f1a9af891461046b57600080fd5b8063ccc57490146103f4578063d11cd4c61461041b578063d547741f1461042e57600080fd5b80638456cb59116100d35780638456cb591461038d57806391d1485414610395578063a217fddf146103d9578063cb6c11f4146103e157600080fd5b8063520ea50a146103475780635c975abb1461034f5780636769d1f91461036657600080fd5b806336568abe116101665780633f4ba83a116101405780633f4ba83a146103105780634dc809ce1461031857806350292a231461032b578063518ab2a81461033e57600080fd5b806336568abe146102e15780633b04bad0146102f45780633ea9e46a146102fd57600080fd5b80632464ec5e116101a25780632464ec5e14610263578063248a9ca31461027657806324ea54f4146102a75780632f2ff15d146102ce57600080fd5b806303e7f2aa146101c95780631171bda9146102295780631b782e231461023e575b600080fd5b6101ff6101d73660046120ad565b60056020526000908152604090205473ffffffffffffffffffffffffffffffffffffffff1681565b60405173ffffffffffffffffffffffffffffffffffffffff90911681526020015b60405180910390f35b61023c610237366004612001565b610474565b005b6001546101ff90610100900473ffffffffffffffffffffffffffffffffffffffff1681565b61023c610271366004612064565b6105dd565b610299610284366004612064565b60009081526020819052604090206001015490565b604051908152602001610220565b6102997f55435dd261a4b9b3364963f7738a7a662ad9c84396d64be3365284bb7f0a504181565b61023c6102dc36600461207d565b610615565b61023c6102ef36600461207d565b610640565b61029960035481565b61023c61030b3660046120f8565b6106ce565b61023c610b70565b61023c6103263660046120ca565b610ba6565b610299610339366004612064565b610dc2565b61029960045481565b610299610dd3565b60015460ff165b6040519015158152602001610220565b6101ff7f000000000000000000000000000000000000000000000000000000000000000081565b61023c610de2565b6103566103a336600461207d565b60009182526020828152604080842073ffffffffffffffffffffffffffffffffffffffff93909316845291905290205460ff1690565b610299600081565b61023c6103ef3660046120ad565b610e15565b6102997f7935bd0ae54bc31f548c14dba4d37c5c64b3f8ca900cb468fb8abd54d5894f5581565b61023c610429366004612064565b610f0d565b61023c61043c36600461207d565b610fde565b610299670de0b6b3a764000081565b610299611004565b61023c610466366004612001565b61105a565b61029960025481565b7f7935bd0ae54bc31f548c14dba4d37c5c64b3f8ca900cb468fb8abd54d5894f5561049f8133611361565b7f000000000000000000000000000000000000000000000000000000000000000073ffffffffffffffffffffffffffffffffffffffff168473ffffffffffffffffffffffffffffffffffffffff16141561054f576105098260035461050491906123ee565b611431565b61054a73ffffffffffffffffffffffffffffffffffffffff7f0000000000000000000000000000000000000000000000000000000000000000168484611609565b610570565b61057073ffffffffffffffffffffffffffffffffffffffff85168484611609565b8273ffffffffffffffffffffffffffffffffffffffff168473ffffffffffffffffffffffffffffffffffffffff167ffff3b3844276f57024e0b42afec1a37f75db36511e43819a4f2a63ab7862b648846040516105cf91815260200190565b60405180910390a350505050565b7f7935bd0ae54bc31f548c14dba4d37c5c64b3f8ca900cb468fb8abd54d5894f556106088133611361565b61061182611431565b5050565b6000828152602081905260409020600101546106318133611361565b61063b8383611696565b505050565b73ffffffffffffffffffffffffffffffffffffffff811633146106c4576040517f08c379a000000000000000000000000000000000000000000000000000000000815260206004820152600260248201527f373100000000000000000000000000000000000000000000000000000000000060448201526064015b60405180910390fd5b6106118282611786565b60015460ff161561073b576040517f08c379a000000000000000000000000000000000000000000000000000000000815260206004820152601060248201527f5061757361626c653a207061757365640000000000000000000000000000000060448201526064016106bb565b73ffffffffffffffffffffffffffffffffffffffff8084166000908152600560205260409020548491161515806107b8575060015473ffffffffffffffffffffffffffffffffffffffff828116610100909204161480156107b85750600154610100900473ffffffffffffffffffffffffffffffffffffffff1615155b61081e576040517f08c379a000000000000000000000000000000000000000000000000000000000815260206004820152600260248201527f343500000000000000000000000000000000000000000000000000000000000060448201526064016106bb565b60008311610888576040517f08c379a000000000000000000000000000000000000000000000000000000000815260206004820152600160248201527f340000000000000000000000000000000000000000000000000000000000000060448201526064016106bb565b60006108938461183d565b60015490915060009073ffffffffffffffffffffffffffffffffffffffff8781166101009092041614156108c857508061099b565b73ffffffffffffffffffffffffffffffffffffffff80871660009081526005602090815260408083205481517f92611e33000000000000000000000000000000000000000000000000000000008152915194169384926392611e339260048082019391829003018186803b15801561093f57600080fd5b505afa158015610953573d6000803e3d6000fd5b505050506040513d601f19601f82011682018060405250810190610977919061212d565b90508061098c670de0b6b3a7640000866123b1565b610996919061224c565b925050505b6000811180156109ab5750838111155b610a11576040517f08c379a000000000000000000000000000000000000000000000000000000000815260206004820152600260248201527f353000000000000000000000000000000000000000000000000000000000000060448201526064016106bb565b6040517f23b872dd0000000000000000000000000000000000000000000000000000000081523360048201523060248201526044810182905273ffffffffffffffffffffffffffffffffffffffff8716906323b872dd90606401602060405180830381600087803b158015610a8557600080fd5b505af1158015610a99573d6000803e3d6000fd5b505050506040513d601f19601f82011682018060405250810190610abd9190612042565b50604080518681526020810183905273ffffffffffffffffffffffffffffffffffffffff8816917f79134966d7c610d101c6b75b982db4d6a4eec9495b086d03ffe8c5f928ebae40910160405180910390a28460046000828254610b219190612234565b90915550610b68905073ffffffffffffffffffffffffffffffffffffffff7f0000000000000000000000000000000000000000000000000000000000000000163387611609565b505050505050565b7f55435dd261a4b9b3364963f7738a7a662ad9c84396d64be3365284bb7f0a5041610b9b8133611361565b610ba3611917565b50565b7f7935bd0ae54bc31f548c14dba4d37c5c64b3f8ca900cb468fb8abd54d5894f55610bd18133611361565b73ffffffffffffffffffffffffffffffffffffffff808416600090815260056020526040902054849116151580610c4e575060015473ffffffffffffffffffffffffffffffffffffffff82811661010090920416148015610c4e5750600154610100900473ffffffffffffffffffffffffffffffffffffffff1615155b610cb4576040517f08c379a000000000000000000000000000000000000000000000000000000000815260206004820152600260248201527f343500000000000000000000000000000000000000000000000000000000000060448201526064016106bb565b73ffffffffffffffffffffffffffffffffffffffff8316610d31576040517f08c379a000000000000000000000000000000000000000000000000000000000815260206004820152600260248201527f353100000000000000000000000000000000000000000000000000000000000060448201526064016106bb565b73ffffffffffffffffffffffffffffffffffffffff84811660008181526005602090815260409182902080547fffffffffffffffffffffffff0000000000000000000000000000000000000000168886169081179091556001549251610100909304909416831482527f3dd7ab5b0999da86f2bfab3972db449784416f6ce1b28ec70d5f1c2c0909565391016105cf565b6000610dcd8261183d565b92915050565b6000610ddd6119f8565b905090565b7f55435dd261a4b9b3364963f7738a7a662ad9c84396d64be3365284bb7f0a5041610e0d8133611361565b610ba3611a0a565b7f55435dd261a4b9b3364963f7738a7a662ad9c84396d64be3365284bb7f0a5041610e408133611361565b60015473ffffffffffffffffffffffffffffffffffffffff838116610100909204161415610e9857600180547fffffffffffffffffffffff0000000000000000000000000000000000000000ff169055610e98611a0a565b73ffffffffffffffffffffffffffffffffffffffff821660008181526005602052604080822080547fffffffffffffffffffffffff0000000000000000000000000000000000000000169055517f5f5418c8b1a72404908f680e30ca8b5244da83e687e990ac9251532ab2caef9c9190a25050565b7f7935bd0ae54bc31f548c14dba4d37c5c64b3f8ca900cb468fb8abd54d5894f55610f388133611361565b60008211610fa2576040517f08c379a000000000000000000000000000000000000000000000000000000000815260206004820152600260248201527f353300000000000000000000000000000000000000000000000000000000000060448201526064016106bb565b60028290556040518281527f69ec4c3f6d62d7ac14f44d68e8994cc13cf8e2c0a46312c6c3664a8dc71ac62e9060200160405180910390a15050565b600082815260208190526040902060010154610ffa8133611361565b61063b8383611786565b600061100e6119f8565b6110185750600090565b600260045460035461102a91906123ee565b61103491906122e8565b600254600260035461104691906122e8565b61105091906123b1565b610ddd919061224c565b7f7935bd0ae54bc31f548c14dba4d37c5c64b3f8ca900cb468fb8abd54d5894f556110858133611361565b8115806110925750816001145b6110f8576040517f08c379a000000000000000000000000000000000000000000000000000000000815260206004820152600160248201527f390000000000000000000000000000000000000000000000000000000000000060448201526064016106bb565b73ffffffffffffffffffffffffffffffffffffffff8416611175576040517f08c379a000000000000000000000000000000000000000000000000000000000815260206004820152600260248201527f343000000000000000000000000000000000000000000000000000000000000060448201526064016106bb565b81158061119d5750600154610100900473ffffffffffffffffffffffffffffffffffffffff16155b611203576040517f08c379a000000000000000000000000000000000000000000000000000000000815260206004820152600260248201527f353200000000000000000000000000000000000000000000000000000000000060448201526064016106bb565b8160011480611227575073ffffffffffffffffffffffffffffffffffffffff831615155b61128d576040517f08c379a000000000000000000000000000000000000000000000000000000000815260206004820152600260248201527f353100000000000000000000000000000000000000000000000000000000000060448201526064016106bb565b81600114156112db57600180547fffffffffffffffffffffff0000000000000000000000000000000000000000ff1661010073ffffffffffffffffffffffffffffffffffffffff8716021790555b73ffffffffffffffffffffffffffffffffffffffff84811660008181526005602090815260409182902080547fffffffffffffffffffffffff000000000000000000000000000000000000000016948816948517905590516001861481527f3dd7ab5b0999da86f2bfab3972db449784416f6ce1b28ec70d5f1c2c0909565391016105cf565b60008281526020818152604080832073ffffffffffffffffffffffffffffffffffffffff8516845290915290205460ff16610611576113b78173ffffffffffffffffffffffffffffffffffffffff166014611ac8565b6113c2836020611ac8565b6040516020016113d3929190612162565b604080517fffffffffffffffffffffffffffffffffffffffffffffffffffffffffffffffe0818403018152908290527f08c379a00000000000000000000000000000000000000000000000000000000082526106bb916004016121e3565b600454811161149c576040517f08c379a000000000000000000000000000000000000000000000000000000000815260206004820152600260248201527f353400000000000000000000000000000000000000000000000000000000000060448201526064016106bb565b6004546114a990826123ee565b6040517f70a082310000000000000000000000000000000000000000000000000000000081523060048201527f000000000000000000000000000000000000000000000000000000000000000073ffffffffffffffffffffffffffffffffffffffff16906370a082319060240160206040518083038186803b15801561152e57600080fd5b505afa158015611542573d6000803e3d6000fd5b505050506040513d601f19601f82011682018060405250810190611566919061212d565b10156115ce576040517f08c379a000000000000000000000000000000000000000000000000000000000815260206004820152600260248201527f353600000000000000000000000000000000000000000000000000000000000060448201526064016106bb565b60038190556040518181527f4ea3e4adca75266c484c66087591e19dd073ae78d55d5d7b3734d12dee4b97ce9060200160405180910390a150565b6040805173ffffffffffffffffffffffffffffffffffffffff8416602482015260448082018490528251808303909101815260649091019091526020810180517bffffffffffffffffffffffffffffffffffffffffffffffffffffffff167fa9059cbb0000000000000000000000000000000000000000000000000000000017905261063b908490611d0b565b60008281526020818152604080832073ffffffffffffffffffffffffffffffffffffffff8516845290915290205460ff166106115760008281526020818152604080832073ffffffffffffffffffffffffffffffffffffffff85168452909152902080547fffffffffffffffffffffffffffffffffffffffffffffffffffffffffffffff001660011790556117283390565b73ffffffffffffffffffffffffffffffffffffffff168173ffffffffffffffffffffffffffffffffffffffff16837f2f8788117e7eff1d82e926ec794901d17c78024a50270940304540a733656f0d60405160405180910390a45050565b60008281526020818152604080832073ffffffffffffffffffffffffffffffffffffffff8516845290915290205460ff16156106115760008281526020818152604080832073ffffffffffffffffffffffffffffffffffffffff8516808552925280832080547fffffffffffffffffffffffffffffffffffffffffffffffffffffffffffffff0016905551339285917ff6391f5c32d9c69d2a47ea670b442974b53935d1edc7fd64eb21e047a839171b9190a45050565b6000806118486119f8565b90508083106118b3576040517f08c379a000000000000000000000000000000000000000000000000000000000815260206004820152600260248201527f353500000000000000000000000000000000000000000000000000000000000060448201526064016106bb565b8060026003546118c391906122e8565b6118cd919061224c565b9150670de0b6b3a7640000600254836118e691906123b1565b6118f0919061224c565b91506118fc83826123ee565b61190684846123b1565b611910919061224c565b9392505050565b60015460ff16611983576040517f08c379a000000000000000000000000000000000000000000000000000000000815260206004820152601460248201527f5061757361626c653a206e6f742070617573656400000000000000000000000060448201526064016106bb565b600180547fffffffffffffffffffffffffffffffffffffffffffffffffffffffffffffff001690557f5db9ee0a495bf2e6ff9c91a7834c1ba4fdd244a5e8aa4e537bd38aeae4b073aa335b60405173ffffffffffffffffffffffffffffffffffffffff909116815260200160405180910390a1565b6000600454600354610ddd91906123ee565b60015460ff1615611a77576040517f08c379a000000000000000000000000000000000000000000000000000000000815260206004820152601060248201527f5061757361626c653a207061757365640000000000000000000000000000000060448201526064016106bb565b600180547fffffffffffffffffffffffffffffffffffffffffffffffffffffffffffffff0016811790557f62e78cea01bee320cd4e420270b5ea74000d11b0c9f74754ebdbfc544b05a258336119ce565b60606000611ad78360026123b1565b611ae2906002612234565b67ffffffffffffffff811115611afa57611afa6124c8565b6040519080825280601f01601f191660200182016040528015611b24576020820181803683370190505b5090507f300000000000000000000000000000000000000000000000000000000000000081600081518110611b5b57611b5b612499565b60200101907effffffffffffffffffffffffffffffffffffffffffffffffffffffffffffff1916908160001a9053507f780000000000000000000000000000000000000000000000000000000000000081600181518110611bbe57611bbe612499565b60200101907effffffffffffffffffffffffffffffffffffffffffffffffffffffffffffff1916908160001a9053506000611bfa8460026123b1565b611c05906001612234565b90505b6001811115611ca2577f303132333435363738396162636465660000000000000000000000000000000085600f1660108110611c4657611c46612499565b1a60f81b828281518110611c5c57611c5c612499565b60200101907effffffffffffffffffffffffffffffffffffffffffffffffffffffffffffff1916908160001a90535060049490941c93611c9b81612435565b9050611c08565b508315611910576040517f08c379a000000000000000000000000000000000000000000000000000000000815260206004820181905260248201527f537472696e67733a20686578206c656e67746820696e73756666696369656e7460448201526064016106bb565b6000611d6d826040518060400160405280602081526020017f5361666545524332303a206c6f772d6c6576656c2063616c6c206661696c65648152508573ffffffffffffffffffffffffffffffffffffffff16611e179092919063ffffffff16565b80519091501561063b5780806020019051810190611d8b9190612042565b61063b576040517f08c379a000000000000000000000000000000000000000000000000000000000815260206004820152602a60248201527f5361666545524332303a204552433230206f7065726174696f6e20646964206e60448201527f6f7420737563636565640000000000000000000000000000000000000000000060648201526084016106bb565b6060611e268484600085611e2e565b949350505050565b606082471015611ec0576040517f08c379a000000000000000000000000000000000000000000000000000000000815260206004820152602660248201527f416464726573733a20696e73756666696369656e742062616c616e636520666f60448201527f722063616c6c000000000000000000000000000000000000000000000000000060648201526084016106bb565b843b611f28576040517f08c379a000000000000000000000000000000000000000000000000000000000815260206004820152601d60248201527f416464726573733a2063616c6c20746f206e6f6e2d636f6e747261637400000060448201526064016106bb565b6000808673ffffffffffffffffffffffffffffffffffffffff168587604051611f519190612146565b60006040518083038185875af1925050503d8060008114611f8e576040519150601f19603f3d011682016040523d82523d6000602084013e611f93565b606091505b5091509150611fa3828286611fae565b979650505050505050565b60608315611fbd575081611910565b825115611fcd5782518084602001fd5b816040517f08c379a00000000000000000000000000000000000000000000000000000000081526004016106bb91906121e3565b60008060006060848603121561201657600080fd5b8335612021816124f7565b92506020840135612031816124f7565b929592945050506040919091013590565b60006020828403121561205457600080fd5b8151801515811461191057600080fd5b60006020828403121561207657600080fd5b5035919050565b6000806040838503121561209057600080fd5b8235915060208301356120a2816124f7565b809150509250929050565b6000602082840312156120bf57600080fd5b8135611910816124f7565b600080604083850312156120dd57600080fd5b82356120e8816124f7565b915060208301356120a2816124f7565b60008060006060848603121561210d57600080fd5b8335612118816124f7565b95602085013595506040909401359392505050565b60006020828403121561213f57600080fd5b5051919050565b60008251612158818460208701612405565b9190910192915050565b7f416363657373436f6e74726f6c3a206163636f756e742000000000000000000081526000835161219a816017850160208801612405565b7f206973206d697373696e6720726f6c652000000000000000000000000000000060179184019182015283516121d7816028840160208801612405565b01602801949350505050565b6020815260008251806020840152612202816040850160208701612405565b601f017fffffffffffffffffffffffffffffffffffffffffffffffffffffffffffffffe0169190910160400192915050565b600082198211156122475761224761246a565b500190565b600082612282577f4e487b7100000000000000000000000000000000000000000000000000000000600052601260045260246000fd5b500490565b600181815b808511156122e057817fffffffffffffffffffffffffffffffffffffffffffffffffffffffffffffffff048211156122c6576122c661246a565b808516156122d357918102915b93841c939080029061228c565b509250929050565b600061191060ff84168360008261230157506001610dcd565b8161230e57506000610dcd565b8160018114612324576002811461232e5761234a565b6001915050610dcd565b60ff84111561233f5761233f61246a565b50506001821b610dcd565b5060208310610133831016604e8410600b841016171561236d575081810a610dcd565b6123778383612287565b807fffffffffffffffffffffffffffffffffffffffffffffffffffffffffffffffff048211156123a9576123a961246a565b029392505050565b6000817fffffffffffffffffffffffffffffffffffffffffffffffffffffffffffffffff04831182151516156123e9576123e961246a565b500290565b6000828210156124005761240061246a565b500390565b60005b83811015612420578181015183820152602001612408565b8381111561242f576000848401525b50505050565b6000816124445761244461246a565b507fffffffffffffffffffffffffffffffffffffffffffffffffffffffffffffffff0190565b7f4e487b7100000000000000000000000000000000000000000000000000000000600052601160045260246000fd5b7f4e487b7100000000000000000000000000000000000000000000000000000000600052603260045260246000fd5b7f4e487b7100000000000000000000000000000000000000000000000000000000600052604160045260246000fd5b73ffffffffffffffffffffffffffffffffffffffff81168114610ba357600080fdfea2646970667358221220c9123ade8e9ab6c8bb3c52a46489b08291d7c962dea9b09ec12cf9a8d96f984d64736f6c634300080700337935bd0ae54bc31f548c14dba4d37c5c64b3f8ca900cb468fb8abd54d5894f5555435dd261a4b9b3364963f7738a7a662ad9c84396d64be3365284bb7f0a5041",
  "linkReferences": {},
  "deployedLinkReferences": {}
}