{
  "address": "0x4f4fb1D5900f2bFE98E2d5EB481E2FB2Df154488",
  "abi": [
    {
      "inputs": [
        {
          "internalType": "address",
          "name": "account",
          "type": "address"
        },
        {
          "internalType": "address",
          "name": "minter_",
          "type": "address"
        }
      ],
      "stateMutability": "nonpayable",
      "type": "constructor"
    },
    {
      "anonymous": false,
      "inputs": [
        {
          "indexed": true,
          "internalType": "address",
          "name": "owner",
          "type": "address"
        },
        {
          "indexed": true,
          "internalType": "address",
          "name": "spender",
          "type": "address"
        },
        {
          "indexed": false,
          "internalType": "uint256",
          "name": "value",
          "type": "uint256"
        }
      ],
      "name": "Approval",
      "type": "event"
    },
    {
      "anonymous": false,
      "inputs": [
        {
          "indexed": true,
          "internalType": "address",
          "name": "delegator",
          "type": "address"
        },
        {
          "indexed": true,
          "internalType": "address",
          "name": "fromDelegate",
          "type": "address"
        },
        {
          "indexed": true,
          "internalType": "address",
          "name": "toDelegate",
          "type": "address"
        }
      ],
      "name": "DelegateChanged",
      "type": "event"
    },
    {
      "anonymous": false,
      "inputs": [
        {
          "indexed": true,
          "internalType": "address",
          "name": "delegate",
          "type": "address"
        },
        {
          "indexed": false,
          "internalType": "uint256",
          "name": "previousBalance",
          "type": "uint256"
        },
        {
          "indexed": false,
          "internalType": "uint256",
          "name": "newBalance",
          "type": "uint256"
        }
      ],
      "name": "DelegateVotesChanged",
      "type": "event"
    },
    {
      "anonymous": false,
      "inputs": [
        {
          "indexed": false,
          "internalType": "address",
          "name": "minter",
          "type": "address"
        },
        {
          "indexed": false,
          "internalType": "address",
          "name": "newMinter",
          "type": "address"
        }
      ],
      "name": "MinterChanged",
      "type": "event"
    },
    {
      "anonymous": false,
      "inputs": [
        {
          "indexed": true,
          "internalType": "address",
          "name": "from",
          "type": "address"
        },
        {
          "indexed": true,
          "internalType": "address",
          "name": "to",
          "type": "address"
        },
        {
          "indexed": false,
          "internalType": "uint256",
          "name": "value",
          "type": "uint256"
        }
      ],
      "name": "Transfer",
      "type": "event"
    },
    {
      "inputs": [],
      "name": "DOMAIN_SEPARATOR",
      "outputs": [
        {
          "internalType": "bytes32",
          "name": "",
          "type": "bytes32"
        }
      ],
      "stateMutability": "view",
      "type": "function"
    },
    {
      "inputs": [],
      "name": "MAX_MINT",
      "outputs": [
        {
          "internalType": "uint8",
          "name": "",
          "type": "uint8"
        }
      ],
      "stateMutability": "view",
      "type": "function"
    },
    {
      "inputs": [],
      "name": "MINIMUM_BETWEEN_MINTS",
      "outputs": [
        {
          "internalType": "uint32",
          "name": "",
          "type": "uint32"
        }
      ],
      "stateMutability": "view",
      "type": "function"
    },
    {
      "inputs": [
        {
          "internalType": "address",
          "name": "owner",
          "type": "address"
        },
        {
          "internalType": "address",
          "name": "spender",
          "type": "address"
        }
      ],
      "name": "allowance",
      "outputs": [
        {
          "internalType": "uint256",
          "name": "",
          "type": "uint256"
        }
      ],
      "stateMutability": "view",
      "type": "function"
    },
    {
      "inputs": [
        {
          "internalType": "address",
          "name": "spender",
          "type": "address"
        },
        {
          "internalType": "uint256",
          "name": "amount",
          "type": "uint256"
        }
      ],
      "name": "approve",
      "outputs": [
        {
          "internalType": "bool",
          "name": "",
          "type": "bool"
        }
      ],
      "stateMutability": "nonpayable",
      "type": "function"
    },
    {
      "inputs": [
        {
          "internalType": "address",
          "name": "account",
          "type": "address"
        }
      ],
      "name": "balanceOf",
      "outputs": [
        {
          "internalType": "uint256",
          "name": "",
          "type": "uint256"
        }
      ],
      "stateMutability": "view",
      "type": "function"
    },
    {
      "inputs": [
        {
          "internalType": "address",
          "name": "account",
          "type": "address"
        },
        {
          "internalType": "uint32",
          "name": "pos",
          "type": "uint32"
        }
      ],
      "name": "checkpoints",
      "outputs": [
        {
          "components": [
            {
              "internalType": "uint32",
              "name": "fromBlock",
              "type": "uint32"
            },
            {
              "internalType": "uint224",
              "name": "votes",
              "type": "uint224"
            }
          ],
          "internalType": "struct ERC20Votes.Checkpoint",
          "name": "",
          "type": "tuple"
        }
      ],
      "stateMutability": "view",
      "type": "function"
    },
    {
      "inputs": [],
      "name": "decimals",
      "outputs": [
        {
          "internalType": "uint8",
          "name": "",
          "type": "uint8"
        }
      ],
      "stateMutability": "view",
      "type": "function"
    },
    {
      "inputs": [
        {
          "internalType": "address",
          "name": "spender",
          "type": "address"
        },
        {
          "internalType": "uint256",
          "name": "subtractedValue",
          "type": "uint256"
        }
      ],
      "name": "decreaseAllowance",
      "outputs": [
        {
          "internalType": "bool",
          "name": "",
          "type": "bool"
        }
      ],
      "stateMutability": "nonpayable",
      "type": "function"
    },
    {
      "inputs": [
        {
          "internalType": "address",
          "name": "delegatee",
          "type": "address"
        }
      ],
      "name": "delegate",
      "outputs": [],
      "stateMutability": "nonpayable",
      "type": "function"
    },
    {
      "inputs": [
        {
          "internalType": "address",
          "name": "delegatee",
          "type": "address"
        },
        {
          "internalType": "uint256",
          "name": "nonce",
          "type": "uint256"
        },
        {
          "internalType": "uint256",
          "name": "expiry",
          "type": "uint256"
        },
        {
          "internalType": "uint8",
          "name": "v",
          "type": "uint8"
        },
        {
          "internalType": "bytes32",
          "name": "r",
          "type": "bytes32"
        },
        {
          "internalType": "bytes32",
          "name": "s",
          "type": "bytes32"
        }
      ],
      "name": "delegateBySig",
      "outputs": [],
      "stateMutability": "nonpayable",
      "type": "function"
    },
    {
      "inputs": [
        {
          "internalType": "address",
          "name": "account",
          "type": "address"
        }
      ],
      "name": "delegates",
      "outputs": [
        {
          "internalType": "address",
          "name": "",
          "type": "address"
        }
      ],
      "stateMutability": "view",
      "type": "function"
    },
    {
      "inputs": [
        {
          "internalType": "uint256",
          "name": "blockNumber",
          "type": "uint256"
        }
      ],
      "name": "getPastTotalSupply",
      "outputs": [
        {
          "internalType": "uint256",
          "name": "",
          "type": "uint256"
        }
      ],
      "stateMutability": "view",
      "type": "function"
    },
    {
      "inputs": [
        {
          "internalType": "address",
          "name": "account",
          "type": "address"
        },
        {
          "internalType": "uint256",
          "name": "blockNumber",
          "type": "uint256"
        }
      ],
      "name": "getPastVotes",
      "outputs": [
        {
          "internalType": "uint256",
          "name": "",
          "type": "uint256"
        }
      ],
      "stateMutability": "view",
      "type": "function"
    },
    {
      "inputs": [
        {
          "internalType": "address",
          "name": "account",
          "type": "address"
        }
      ],
      "name": "getVotes",
      "outputs": [
        {
          "internalType": "uint256",
          "name": "",
          "type": "uint256"
        }
      ],
      "stateMutability": "view",
      "type": "function"
    },
    {
      "inputs": [
        {
          "internalType": "address",
          "name": "spender",
          "type": "address"
        },
        {
          "internalType": "uint256",
          "name": "addedValue",
          "type": "uint256"
        }
      ],
      "name": "increaseAllowance",
      "outputs": [
        {
          "internalType": "bool",
          "name": "",
          "type": "bool"
        }
      ],
      "stateMutability": "nonpayable",
      "type": "function"
    },
    {
      "inputs": [
        {
          "internalType": "address",
          "name": "dst",
          "type": "address"
        },
        {
          "internalType": "uint256",
          "name": "amount",
          "type": "uint256"
        }
      ],
      "name": "mint",
      "outputs": [],
      "stateMutability": "nonpayable",
      "type": "function"
    },
    {
      "inputs": [],
      "name": "minter",
      "outputs": [
        {
          "internalType": "address",
          "name": "",
          "type": "address"
        }
      ],
      "stateMutability": "view",
      "type": "function"
    },
    {
      "inputs": [],
      "name": "mintingAllowedAfter",
      "outputs": [
        {
          "internalType": "uint256",
          "name": "",
          "type": "uint256"
        }
      ],
      "stateMutability": "view",
      "type": "function"
    },
    {
      "inputs": [],
      "name": "name",
      "outputs": [
        {
          "internalType": "string",
          "name": "",
          "type": "string"
        }
      ],
      "stateMutability": "view",
      "type": "function"
    },
    {
      "inputs": [
        {
          "internalType": "address",
          "name": "owner",
          "type": "address"
        }
      ],
      "name": "nonces",
      "outputs": [
        {
          "internalType": "uint256",
          "name": "",
          "type": "uint256"
        }
      ],
      "stateMutability": "view",
      "type": "function"
    },
    {
      "inputs": [
        {
          "internalType": "address",
          "name": "account",
          "type": "address"
        }
      ],
      "name": "numCheckpoints",
      "outputs": [
        {
          "internalType": "uint32",
          "name": "",
          "type": "uint32"
        }
      ],
      "stateMutability": "view",
      "type": "function"
    },
    {
      "inputs": [
        {
          "internalType": "address",
          "name": "owner",
          "type": "address"
        },
        {
          "internalType": "address",
          "name": "spender",
          "type": "address"
        },
        {
          "internalType": "uint256",
          "name": "value",
          "type": "uint256"
        },
        {
          "internalType": "uint256",
          "name": "deadline",
          "type": "uint256"
        },
        {
          "internalType": "uint8",
          "name": "v",
          "type": "uint8"
        },
        {
          "internalType": "bytes32",
          "name": "r",
          "type": "bytes32"
        },
        {
          "internalType": "bytes32",
          "name": "s",
          "type": "bytes32"
        }
      ],
      "name": "permit",
      "outputs": [],
      "stateMutability": "nonpayable",
      "type": "function"
    },
    {
      "inputs": [
        {
          "internalType": "address",
          "name": "minter_",
          "type": "address"
        }
      ],
      "name": "setMinter",
      "outputs": [],
      "stateMutability": "nonpayable",
      "type": "function"
    },
    {
      "inputs": [],
      "name": "symbol",
      "outputs": [
        {
          "internalType": "string",
          "name": "",
          "type": "string"
        }
      ],
      "stateMutability": "view",
      "type": "function"
    },
    {
      "inputs": [],
      "name": "totalSupply",
      "outputs": [
        {
          "internalType": "uint256",
          "name": "",
          "type": "uint256"
        }
      ],
      "stateMutability": "view",
      "type": "function"
    },
    {
      "inputs": [
        {
          "internalType": "address",
          "name": "recipient",
          "type": "address"
        },
        {
          "internalType": "uint256",
          "name": "amount",
          "type": "uint256"
        }
      ],
      "name": "transfer",
      "outputs": [
        {
          "internalType": "bool",
          "name": "",
          "type": "bool"
        }
      ],
      "stateMutability": "nonpayable",
      "type": "function"
    },
    {
      "inputs": [
        {
          "internalType": "address",
          "name": "sender",
          "type": "address"
        },
        {
          "internalType": "address",
          "name": "recipient",
          "type": "address"
        },
        {
          "internalType": "uint256",
          "name": "amount",
          "type": "uint256"
        }
      ],
      "name": "transferFrom",
      "outputs": [
        {
          "internalType": "bool",
          "name": "",
          "type": "bool"
        }
      ],
      "stateMutability": "nonpayable",
      "type": "function"
    }
  ],
  "transactionHash": "0x7adfbf1455292c757ed29120ebf05eba908899bbc8ac8e17ae92d556496e5a82",
  "args": [
    "0x8A97FBD532A5C1eD67fd67c11dD76013abAc840e",
    "0x8A97FBD532A5C1eD67fd67c11dD76013abAc840e"
  ],
  "solcInputHash": "f5b703f620df957f43c941891d87f163",
  "bytecode": "0x6101406040527f6e71edae12b1b97f4d1f60370fef10105fa2faae0126114a169c64845d6126c9610120523480156200003757600080fd5b50604051620031ca380380620031ca8339810160408190526200005a91620008fa565b60405180604001604052806005815260200164414e474c4560d81b81525080604051806040016040528060018152602001603160f81b81525060405180604001604052806005815260200164414e474c4560d81b81525060405180604001604052806005815260200164414e474c4560d81b8152508160039080519060200190620000e792919062000841565b508051620000fd90600490602084019062000841565b5050825160209384012082519284019290922060c083815260e08290524660a0818152604080517f8b73c3c69bb8fe3d512ecc4cf759cc79239f7b179b0ffacaa9a75d522b39400f818a018190528183019890985260608101959095526080808601939093523085830152805180860390920182529390920190925280519401939093209092526101005250506001600160a01b03821615801590620001ab57506001600160a01b03811615155b620001e15760405162461bcd60e51b81526020600482015260016024820152600360fc1b60448201526064015b60405180910390fd5b620001f9826b033b2e3c9fd0803ce80000006200025e565b600980546001600160a01b0319166001600160a01b038316908117909155604080516000815260208101929092527f3b0007eb941cf645526cbb3a4fdaecda9d28ce4843167d9263b536a1f1edc0f6910160405180910390a1505042600a55620009d0565b6200027582826200031160201b620011011760201c565b6001600160e01b0362000289620004048216565b1115620002f25760405162461bcd60e51b815260206004820152603060248201527f4552433230566f7465733a20746f74616c20737570706c79207269736b73206f60448201526f766572666c6f77696e6720766f74657360801b6064820152608401620001d8565b6200030b6008620012296200040a60201b17836200041f565b50505050565b6001600160a01b038216620003695760405162461bcd60e51b815260206004820152601f60248201527f45524332303a206d696e7420746f20746865207a65726f2061646472657373006044820152606401620001d8565b80600260008282546200037d919062000932565b90915550506001600160a01b03821660009081526020819052604081208054839290620003ac90849062000932565b90915550506040518181526001600160a01b038316906000907fddf252ad1be2c89b69c2b068fc378daa952ba7f163c4a11628f55a4df523b3ef9060200160405180910390a36200040060008383620005d6565b5050565b60025490565b600062000418828462000932565b9392505050565b8254600090819080156200047157856200043b6001836200094d565b815481106200044e576200044e620009ba565b60009182526020909120015464010000000090046001600160e01b031662000474565b60005b6001600160e01b031692506200048b83858760201c565b9150600081118015620004cf57504386620004a86001846200094d565b81548110620004bb57620004bb620009ba565b60009182526020909120015463ffffffff16145b156200054357620004eb826200062260201b620012351760201c565b86620004f96001846200094d565b815481106200050c576200050c620009ba565b9060005260206000200160000160046101000a8154816001600160e01b0302191690836001600160e01b03160217905550620005c8565b85604051806040016040528062000565436200069160201b620012e71760201c565b63ffffffff16815260200162000586856200062260201b620012351760201c565b6001600160e01b0390811690915282546001810184556000938452602093849020835194909301519091166401000000000263ffffffff909316929092179101555b50935093915050565b505050565b620005ee838383620005d160201b6200137d1760201c565b6001600160a01b03838116600090815260066020526040808220548584168352912054620005d192918216911683620006f8565b60006001600160e01b038211156200068d5760405162461bcd60e51b815260206004820152602760248201527f53616665436173743a2076616c756520646f65736e27742066697420696e20326044820152663234206269747360c81b6064820152608401620001d8565b5090565b600063ffffffff8211156200068d5760405162461bcd60e51b815260206004820152602660248201527f53616665436173743a2076616c756520646f65736e27742066697420696e203360448201526532206269747360d01b6064820152608401620001d8565b816001600160a01b0316836001600160a01b0316141580156200071b5750600081115b15620005d1576001600160a01b03831615620007a8576001600160a01b03831660009081526007602090815260408220829162000765919062000833901b6200138217856200041f565b91509150846001600160a01b0316600080516020620031aa83398151915283836040516200079d929190918252602082015260400190565b60405180910390a250505b6001600160a01b03821615620005d1576001600160a01b038216600090815260076020908152604082208291620007ec91906200040a901b6200122917856200041f565b91509150836001600160a01b0316600080516020620031aa833981519152838360405162000824929190918252602082015260400190565b60405180910390a25050505050565b60006200041882846200094d565b8280546200084f9062000967565b90600052602060002090601f016020900481019282620008735760008555620008be565b82601f106200088e57805160ff1916838001178555620008be565b82800160010185558215620008be579182015b82811115620008be578251825591602001919060010190620008a1565b506200068d9291505b808211156200068d5760008155600101620008c7565b80516001600160a01b0381168114620008f557600080fd5b919050565b600080604083850312156200090e57600080fd5b6200091983620008dd565b91506200092960208401620008dd565b90509250929050565b60008219821115620009485762000948620009a4565b500190565b600082821015620009625762000962620009a4565b500390565b600181811c908216806200097c57607f821691505b602082108114156200099e57634e487b7160e01b600052602260045260246000fd5b50919050565b634e487b7160e01b600052601160045260246000fd5b634e487b7160e01b600052603260045260246000fd5b60805160a05160c05160e051610100516101205161278a62000a206000396000610d7101526000611856015260006118a501526000611880015260006118040152600061182d015261278a6000f3fe608060405234801561001057600080fd5b50600436106101c45760003560e01c806370a08231116100f9578063c3cda52011610097578063e05185b711610071578063e05185b714610452578063f0292a031461045c578063f1127ed814610464578063fca3b5aa146104b657600080fd5b8063c3cda520146103e6578063d505accf146103f9578063dd62ed3e1461040c57600080fd5b806395d89b41116100d357806395d89b41146103a55780639ab24eb0146103ad578063a457c2d7146103c0578063a9059cbb146103d357600080fd5b806370a08231146103495780637ecebe001461037f5780638e539e8c1461039257600080fd5b80633644e5151161016657806340c10f191161014057806340c10f19146102c0578063587cde1e146102d55780635c19a95c1461030e5780636fcfff451461032157600080fd5b80633644e51514610292578063395093511461029a5780633a46b1a8146102ad57600080fd5b806318160ddd116101a257806318160ddd1461024f57806323b872dd1461026157806330b36cef14610274578063313ce5671461027d57600080fd5b806306fdde03146101c957806307546172146101e7578063095ea7b31461022c575b600080fd5b6101d16104c9565b6040516101de919061255f565b60405180910390f35b6009546102079073ffffffffffffffffffffffffffffffffffffffff1681565b60405173ffffffffffffffffffffffffffffffffffffffff90911681526020016101de565b61023f61023a366004612484565b61055b565b60405190151581526020016101de565b6002545b6040519081526020016101de565b61023f61026f3660046123de565b610571565b610253600a5481565b60125b60405160ff90911681526020016101de565b61025361065c565b61023f6102a8366004612484565b61066b565b6102536102bb366004612484565b6106b4565b6102d36102ce366004612484565b610755565b005b6102076102e3366004612390565b73ffffffffffffffffffffffffffffffffffffffff9081166000908152600660205260409020541690565b6102d361031c366004612390565b6108ea565b61033461032f366004612390565b6108f7565b60405163ffffffff90911681526020016101de565b610253610357366004612390565b73ffffffffffffffffffffffffffffffffffffffff1660009081526020819052604090205490565b61025361038d366004612390565b61092c565b6102536103a0366004612546565b610957565b6101d16109cd565b6102536103bb366004612390565b6109dc565b61023f6103ce366004612484565b610aa7565b61023f6103e1366004612484565b610b7f565b6102d36103f43660046124ae565b610b8c565b6102d361040736600461241a565b610d03565b61025361041a3660046123ab565b73ffffffffffffffffffffffffffffffffffffffff918216600090815260016020908152604080832093909416825291909152205490565b61033462278d0081565b610280600181565b610477610472366004612506565b610ec2565b60408051825163ffffffff1681526020928301517bffffffffffffffffffffffffffffffffffffffffffffffffffffffff1692810192909252016101de565b6102d36104c4366004612390565b610f68565b6060600380546104d890612679565b80601f016020809104026020016040519081016040528092919081815260200182805461050490612679565b80156105515780601f1061052657610100808354040283529160200191610551565b820191906000526020600020905b81548152906001019060200180831161053457829003601f168201915b5050505050905090565b600061056833848461138e565b50600192915050565b600061057e848484611541565b73ffffffffffffffffffffffffffffffffffffffff8416600090815260016020908152604080832033845290915290205482811015610644576040517f08c379a000000000000000000000000000000000000000000000000000000000815260206004820152602860248201527f45524332303a207472616e7366657220616d6f756e742065786365656473206160448201527f6c6c6f77616e636500000000000000000000000000000000000000000000000060648201526084015b60405180910390fd5b610651853385840361138e565b506001949350505050565b6000610666611800565b905090565b33600081815260016020908152604080832073ffffffffffffffffffffffffffffffffffffffff8716845290915281205490916105689185906106af9086906125d2565b61138e565b600043821061071f576040517f08c379a000000000000000000000000000000000000000000000000000000000815260206004820152601f60248201527f4552433230566f7465733a20626c6f636b206e6f7420796574206d696e656400604482015260640161063b565b73ffffffffffffffffffffffffffffffffffffffff8316600090815260076020526040902061074e90836118f3565b9392505050565b60095473ffffffffffffffffffffffffffffffffffffffff1633146107d6576040517f08c379a000000000000000000000000000000000000000000000000000000000815260206004820152600260248201527f3638000000000000000000000000000000000000000000000000000000000000604482015260640161063b565b600a54421015610842576040517f08c379a000000000000000000000000000000000000000000000000000000000815260206004820152600260248201527f3639000000000000000000000000000000000000000000000000000000000000604482015260640161063b565b6064600161084f60025490565b6108599190612625565b61086391906125ea565b8111156108cc576040517f08c379a000000000000000000000000000000000000000000000000000000000815260206004820152600260248201527f3730000000000000000000000000000000000000000000000000000000000000604482015260640161063b565b6108d962278d00426125d2565b600a556108e682826119da565b5050565b6108f43382611aa0565b50565b73ffffffffffffffffffffffffffffffffffffffff8116600090815260076020526040812054610926906112e7565b92915050565b73ffffffffffffffffffffffffffffffffffffffff8116600090815260056020526040812054610926565b60004382106109c2576040517f08c379a000000000000000000000000000000000000000000000000000000000815260206004820152601f60248201527f4552433230566f7465733a20626c6f636b206e6f7420796574206d696e656400604482015260640161063b565b6109266008836118f3565b6060600480546104d890612679565b73ffffffffffffffffffffffffffffffffffffffff81166000908152600760205260408120548015610a7f5773ffffffffffffffffffffffffffffffffffffffff83166000908152600760205260409020610a38600183612662565b81548110610a4857610a48612725565b60009182526020909120015464010000000090047bffffffffffffffffffffffffffffffffffffffffffffffffffffffff16610a82565b60005b7bffffffffffffffffffffffffffffffffffffffffffffffffffffffff169392505050565b33600090815260016020908152604080832073ffffffffffffffffffffffffffffffffffffffff8616845290915281205482811015610b68576040517f08c379a000000000000000000000000000000000000000000000000000000000815260206004820152602560248201527f45524332303a2064656372656173656420616c6c6f77616e63652062656c6f7760448201527f207a65726f000000000000000000000000000000000000000000000000000000606482015260840161063b565b610b75338585840361138e565b5060019392505050565b6000610568338484611541565b83421115610bf6576040517f08c379a000000000000000000000000000000000000000000000000000000000815260206004820152601d60248201527f4552433230566f7465733a207369676e61747572652065787069726564000000604482015260640161063b565b604080517fe48329057bfd03d55e49b547132e39cffd9c1820ad7b9d4c5307691425d15adf602082015273ffffffffffffffffffffffffffffffffffffffff8816918101919091526060810186905260808101859052600090610c7d90610c759060a00160405160208183030381529060405280519060200120611b3e565b858585611ba7565b9050610c8881611bcf565b8614610cf0576040517f08c379a000000000000000000000000000000000000000000000000000000000815260206004820152601960248201527f4552433230566f7465733a20696e76616c6964206e6f6e636500000000000000604482015260640161063b565b610cfa8188611aa0565b50505050505050565b83421115610d6d576040517f08c379a000000000000000000000000000000000000000000000000000000000815260206004820152601d60248201527f45524332305065726d69743a206578706972656420646561646c696e65000000604482015260640161063b565b60007f0000000000000000000000000000000000000000000000000000000000000000888888610d9c8c611bcf565b60408051602081019690965273ffffffffffffffffffffffffffffffffffffffff94851690860152929091166060840152608083015260a082015260c0810186905260e0016040516020818303038152906040528051906020012090506000610e0482611b3e565b90506000610e1482878787611ba7565b90508973ffffffffffffffffffffffffffffffffffffffff168173ffffffffffffffffffffffffffffffffffffffff1614610eab576040517f08c379a000000000000000000000000000000000000000000000000000000000815260206004820152601e60248201527f45524332305065726d69743a20696e76616c6964207369676e61747572650000604482015260640161063b565b610eb68a8a8a61138e565b50505050505050505050565b604080518082019091526000808252602082015273ffffffffffffffffffffffffffffffffffffffff83166000908152600760205260409020805463ffffffff8416908110610f1357610f13612725565b60009182526020918290206040805180820190915291015463ffffffff8116825264010000000090047bffffffffffffffffffffffffffffffffffffffffffffffffffffffff16918101919091529392505050565b60095473ffffffffffffffffffffffffffffffffffffffff163314610fe9576040517f08c379a000000000000000000000000000000000000000000000000000000000815260206004820152600260248201527f3637000000000000000000000000000000000000000000000000000000000000604482015260640161063b565b73ffffffffffffffffffffffffffffffffffffffff8116611066576040517f08c379a000000000000000000000000000000000000000000000000000000000815260206004820152600160248201527f3000000000000000000000000000000000000000000000000000000000000000604482015260640161063b565b6009546040805173ffffffffffffffffffffffffffffffffffffffff928316815291831660208301527f3b0007eb941cf645526cbb3a4fdaecda9d28ce4843167d9263b536a1f1edc0f6910160405180910390a1600980547fffffffffffffffffffffffff00000000000000000000000000000000000000001673ffffffffffffffffffffffffffffffffffffffff92909216919091179055565b73ffffffffffffffffffffffffffffffffffffffff821661117e576040517f08c379a000000000000000000000000000000000000000000000000000000000815260206004820152601f60248201527f45524332303a206d696e7420746f20746865207a65726f206164647265737300604482015260640161063b565b806002600082825461119091906125d2565b909155505073ffffffffffffffffffffffffffffffffffffffff8216600090815260208190526040812080548392906111ca9084906125d2565b909155505060405181815273ffffffffffffffffffffffffffffffffffffffff8316906000907fddf252ad1be2c89b69c2b068fc378daa952ba7f163c4a11628f55a4df523b3ef9060200160405180910390a36108e660008383611c04565b600061074e82846125d2565b60007bffffffffffffffffffffffffffffffffffffffffffffffffffffffff8211156112e3576040517f08c379a000000000000000000000000000000000000000000000000000000000815260206004820152602760248201527f53616665436173743a2076616c756520646f65736e27742066697420696e203260448201527f3234206269747300000000000000000000000000000000000000000000000000606482015260840161063b565b5090565b600063ffffffff8211156112e3576040517f08c379a000000000000000000000000000000000000000000000000000000000815260206004820152602660248201527f53616665436173743a2076616c756520646f65736e27742066697420696e203360448201527f3220626974730000000000000000000000000000000000000000000000000000606482015260840161063b565b505050565b600061074e8284612662565b73ffffffffffffffffffffffffffffffffffffffff8316611430576040517f08c379a0000000000000000000000000000000000000000000000000000000008152602060048201526024808201527f45524332303a20617070726f76652066726f6d20746865207a65726f2061646460448201527f7265737300000000000000000000000000000000000000000000000000000000606482015260840161063b565b73ffffffffffffffffffffffffffffffffffffffff82166114d3576040517f08c379a000000000000000000000000000000000000000000000000000000000815260206004820152602260248201527f45524332303a20617070726f766520746f20746865207a65726f20616464726560448201527f7373000000000000000000000000000000000000000000000000000000000000606482015260840161063b565b73ffffffffffffffffffffffffffffffffffffffff83811660008181526001602090815260408083209487168084529482529182902085905590518481527f8c5be1e5ebec7d5bd14f71427d1e84f3dd0314c0f7b2291e5b200ac8c7c3b925910160405180910390a3505050565b73ffffffffffffffffffffffffffffffffffffffff83166115e4576040517f08c379a000000000000000000000000000000000000000000000000000000000815260206004820152602560248201527f45524332303a207472616e736665722066726f6d20746865207a65726f20616460448201527f6472657373000000000000000000000000000000000000000000000000000000606482015260840161063b565b73ffffffffffffffffffffffffffffffffffffffff8216611687576040517f08c379a000000000000000000000000000000000000000000000000000000000815260206004820152602360248201527f45524332303a207472616e7366657220746f20746865207a65726f206164647260448201527f6573730000000000000000000000000000000000000000000000000000000000606482015260840161063b565b73ffffffffffffffffffffffffffffffffffffffff83166000908152602081905260409020548181101561173d576040517f08c379a000000000000000000000000000000000000000000000000000000000815260206004820152602660248201527f45524332303a207472616e7366657220616d6f756e742065786365656473206260448201527f616c616e63650000000000000000000000000000000000000000000000000000606482015260840161063b565b73ffffffffffffffffffffffffffffffffffffffff8085166000908152602081905260408082208585039055918516815290812080548492906117819084906125d2565b925050819055508273ffffffffffffffffffffffffffffffffffffffff168473ffffffffffffffffffffffffffffffffffffffff167fddf252ad1be2c89b69c2b068fc378daa952ba7f163c4a11628f55a4df523b3ef846040516117e791815260200190565b60405180910390a36117fa848484611c04565b50505050565b60007f000000000000000000000000000000000000000000000000000000000000000046141561184f57507f000000000000000000000000000000000000000000000000000000000000000090565b50604080517f00000000000000000000000000000000000000000000000000000000000000006020808301919091527f0000000000000000000000000000000000000000000000000000000000000000828401527f000000000000000000000000000000000000000000000000000000000000000060608301524660808301523060a0808401919091528351808403909101815260c0909201909252805191012090565b8154600090815b8181101561195757600061190e8284611c43565b90508486828154811061192357611923612725565b60009182526020909120015463ffffffff16111561194357809250611951565b61194e8160016125d2565b91505b506118fa565b81156119b05784611969600184612662565b8154811061197957611979612725565b60009182526020909120015464010000000090047bffffffffffffffffffffffffffffffffffffffffffffffffffffffff166119b3565b60005b7bffffffffffffffffffffffffffffffffffffffffffffffffffffffff1695945050505050565b6119e48282611101565b6002547bffffffffffffffffffffffffffffffffffffffffffffffffffffffff1015611a92576040517f08c379a000000000000000000000000000000000000000000000000000000000815260206004820152603060248201527f4552433230566f7465733a20746f74616c20737570706c79207269736b73206f60448201527f766572666c6f77696e6720766f74657300000000000000000000000000000000606482015260840161063b565b6117fa600861122983611c5e565b73ffffffffffffffffffffffffffffffffffffffff8281166000818152600660208181526040808420805485845282862054949093528787167fffffffffffffffffffffffff00000000000000000000000000000000000000008416811790915590519190951694919391928592917f3134e8a2e6d97e929a7e54011ea5485d7d196dd5f0ba4d4ef95803e8e3fc257f9190a46117fa828483611e40565b6000610926611b4b611800565b836040517f19010000000000000000000000000000000000000000000000000000000000006020820152602281018390526042810182905260009060620160405160208183030381529060405280519060200120905092915050565b6000806000611bb887878787611fe5565b91509150611bc5816120fd565b5095945050505050565b73ffffffffffffffffffffffffffffffffffffffff811660009081526005602052604090208054600181018255905b50919050565b73ffffffffffffffffffffffffffffffffffffffff83811660009081526006602052604080822054858416835291205461137d92918216911683611e40565b6000611c5260028484186125ea565b61074e908484166125d2565b825460009081908015611cbe5785611c77600183612662565b81548110611c8757611c87612725565b60009182526020909120015464010000000090047bffffffffffffffffffffffffffffffffffffffffffffffffffffffff16611cc1565b60005b7bffffffffffffffffffffffffffffffffffffffffffffffffffffffff169250611cef83858763ffffffff16565b9150600081118015611d2d57504386611d09600184612662565b81548110611d1957611d19612725565b60009182526020909120015463ffffffff16145b15611db757611d3b82611235565b86611d47600184612662565b81548110611d5757611d57612725565b9060005260206000200160000160046101000a8154817bffffffffffffffffffffffffffffffffffffffffffffffffffffffff02191690837bffffffffffffffffffffffffffffffffffffffffffffffffffffffff160217905550611e37565b856040518060400160405280611dcc436112e7565b63ffffffff168152602001611de085611235565b7bffffffffffffffffffffffffffffffffffffffffffffffffffffffff90811690915282546001810184556000938452602093849020835194909301519091166401000000000263ffffffff909316929092179101555b50935093915050565b8173ffffffffffffffffffffffffffffffffffffffff168373ffffffffffffffffffffffffffffffffffffffff1614158015611e7c5750600081115b1561137d5773ffffffffffffffffffffffffffffffffffffffff831615611f315773ffffffffffffffffffffffffffffffffffffffff831660009081526007602052604081208190611ed19061138285611c5e565b915091508473ffffffffffffffffffffffffffffffffffffffff167fdec2bacdd2f05b59de34da9b523dff8be42e5e38e818c82fdb0bae774387a7248383604051611f26929190918252602082015260400190565b60405180910390a250505b73ffffffffffffffffffffffffffffffffffffffff82161561137d5773ffffffffffffffffffffffffffffffffffffffff821660009081526007602052604081208190611f819061122985611c5e565b915091508373ffffffffffffffffffffffffffffffffffffffff167fdec2bacdd2f05b59de34da9b523dff8be42e5e38e818c82fdb0bae774387a7248383604051611fd6929190918252602082015260400190565b60405180910390a25050505050565b6000807f7fffffffffffffffffffffffffffffff5d576e7357a4501ddfe92f46681b20a083111561201c57506000905060036120f4565b8460ff16601b1415801561203457508460ff16601c14155b1561204557506000905060046120f4565b6040805160008082526020820180845289905260ff881692820192909252606081018690526080810185905260019060a0016020604051602081039080840390855afa158015612099573d6000803e3d6000fd5b50506040517fffffffffffffffffffffffffffffffffffffffffffffffffffffffffffffffe0015191505073ffffffffffffffffffffffffffffffffffffffff81166120ed576000600192509250506120f4565b9150600090505b94509492505050565b6000816004811115612111576121116126f6565b141561211a5750565b600181600481111561212e5761212e6126f6565b1415612196576040517f08c379a000000000000000000000000000000000000000000000000000000000815260206004820152601860248201527f45434453413a20696e76616c6964207369676e61747572650000000000000000604482015260640161063b565b60028160048111156121aa576121aa6126f6565b1415612212576040517f08c379a000000000000000000000000000000000000000000000000000000000815260206004820152601f60248201527f45434453413a20696e76616c6964207369676e6174757265206c656e67746800604482015260640161063b565b6003816004811115612226576122266126f6565b14156122b4576040517f08c379a000000000000000000000000000000000000000000000000000000000815260206004820152602260248201527f45434453413a20696e76616c6964207369676e6174757265202773272076616c60448201527f7565000000000000000000000000000000000000000000000000000000000000606482015260840161063b565b60048160048111156122c8576122c86126f6565b14156108f4576040517f08c379a000000000000000000000000000000000000000000000000000000000815260206004820152602260248201527f45434453413a20696e76616c6964207369676e6174757265202776272076616c60448201527f7565000000000000000000000000000000000000000000000000000000000000606482015260840161063b565b803573ffffffffffffffffffffffffffffffffffffffff8116811461237a57600080fd5b919050565b803560ff8116811461237a57600080fd5b6000602082840312156123a257600080fd5b61074e82612356565b600080604083850312156123be57600080fd5b6123c783612356565b91506123d560208401612356565b90509250929050565b6000806000606084860312156123f357600080fd5b6123fc84612356565b925061240a60208501612356565b9150604084013590509250925092565b600080600080600080600060e0888a03121561243557600080fd5b61243e88612356565b965061244c60208901612356565b955060408801359450606088013593506124686080890161237f565b925060a0880135915060c0880135905092959891949750929550565b6000806040838503121561249757600080fd5b6124a083612356565b946020939093013593505050565b60008060008060008060c087890312156124c757600080fd5b6124d087612356565b955060208701359450604087013593506124ec6060880161237f565b92506080870135915060a087013590509295509295509295565b6000806040838503121561251957600080fd5b61252283612356565b9150602083013563ffffffff8116811461253b57600080fd5b809150509250929050565b60006020828403121561255857600080fd5b5035919050565b600060208083528351808285015260005b8181101561258c57858101830151858201604001528201612570565b8181111561259e576000604083870101525b50601f017fffffffffffffffffffffffffffffffffffffffffffffffffffffffffffffffe016929092016040019392505050565b600082198211156125e5576125e56126c7565b500190565b600082612620577f4e487b7100000000000000000000000000000000000000000000000000000000600052601260045260246000fd5b500490565b6000817fffffffffffffffffffffffffffffffffffffffffffffffffffffffffffffffff048311821515161561265d5761265d6126c7565b500290565b600082821015612674576126746126c7565b500390565b600181811c9082168061268d57607f821691505b60208210811415611bfe577f4e487b7100000000000000000000000000000000000000000000000000000000600052602260045260246000fd5b7f4e487b7100000000000000000000000000000000000000000000000000000000600052601160045260246000fd5b7f4e487b7100000000000000000000000000000000000000000000000000000000600052602160045260246000fd5b7f4e487b7100000000000000000000000000000000000000000000000000000000600052603260045260246000fdfea26469706673582212201e107b15d31384981c5544d1b6e78fe8752e1798e5d205ae858f9e70c909710564736f6c63430008070033dec2bacdd2f05b59de34da9b523dff8be42e5e38e818c82fdb0bae774387a724",
  "devdoc": {
    "author": "Forked but improved from https://github.com/compound-finance/compound-protocol/tree/master/contracts/Governance by Angle Core Team",
    "kind": "dev",
    "methods": {
      "DOMAIN_SEPARATOR()": {
        "details": "See {IERC20Permit-DOMAIN_SEPARATOR}."
      },
      "allowance(address,address)": {
        "details": "See {IERC20-allowance}."
      },
      "approve(address,uint256)": {
        "details": "See {IERC20-approve}. Requirements: - `spender` cannot be the zero address."
      },
      "balanceOf(address)": {
        "details": "See {IERC20-balanceOf}."
      },
      "checkpoints(address,uint32)": {
        "details": "Get the `pos`-th checkpoint for `account`."
      },
      "constructor": {
        "params": {
          "account": "Initial account to grant all the tokens to",
          "minter_": "Account with minting ability"
        }
      },
      "decimals()": {
        "details": "Returns the number of decimals used to get its user representation. For example, if `decimals` equals `2`, a balance of `505` tokens should be displayed to a user as `5.05` (`505 / 10 ** 2`). Tokens usually opt for a value of 18, imitating the relationship between Ether and Wei. This is the value {ERC20} uses, unless this function is overridden; NOTE: This information is only used for _display_ purposes: it in no way affects any of the arithmetic of the contract, including {IERC20-balanceOf} and {IERC20-transfer}."
      },
      "decreaseAllowance(address,uint256)": {
        "details": "Atomically decreases the allowance granted to `spender` by the caller. This is an alternative to {approve} that can be used as a mitigation for problems described in {IERC20-approve}. Emits an {Approval} event indicating the updated allowance. Requirements: - `spender` cannot be the zero address. - `spender` must have allowance for the caller of at least `subtractedValue`."
      },
      "delegate(address)": {
        "details": "Delegate votes from the sender to `delegatee`."
      },
      "delegateBySig(address,uint256,uint256,uint8,bytes32,bytes32)": {
        "details": "Delegates votes from signer to `delegatee`"
      },
      "delegates(address)": {
        "details": "Get the address `account` is currently delegating to."
      },
      "getPastTotalSupply(uint256)": {
        "details": "Retrieve the `totalSupply` at the end of `blockNumber`. Note, this value is the sum of all balances. It is but NOT the sum of all the delegated votes! Requirements: - `blockNumber` must have been already mined"
      },
      "getPastVotes(address,uint256)": {
        "details": "Retrieve the number of votes for `account` at the end of `blockNumber`. Requirements: - `blockNumber` must have been already mined"
      },
      "getVotes(address)": {
        "details": "Gets the current votes balance for `account`"
      },
      "increaseAllowance(address,uint256)": {
        "details": "Atomically increases the allowance granted to `spender` by the caller. This is an alternative to {approve} that can be used as a mitigation for problems described in {IERC20-approve}. Emits an {Approval} event indicating the updated allowance. Requirements: - `spender` cannot be the zero address."
      },
      "mint(address,uint256)": {
        "params": {
          "amount": "Number of tokens to be minted",
          "dst": "Address of the destination account"
        }
      },
      "name()": {
        "details": "Returns the name of the token."
      },
      "nonces(address)": {
        "details": "See {IERC20Permit-nonces}."
      },
      "numCheckpoints(address)": {
        "details": "Get number of checkpoints for `account`."
      },
      "permit(address,address,uint256,uint256,uint8,bytes32,bytes32)": {
        "details": "See {IERC20Permit-permit}."
      },
      "setMinter(address)": {
        "params": {
          "minter_": "Address of the new minter"
        }
      },
      "symbol()": {
        "details": "Returns the symbol of the token, usually a shorter version of the name."
      },
      "totalSupply()": {
        "details": "See {IERC20-totalSupply}."
      },
      "transfer(address,uint256)": {
        "details": "See {IERC20-transfer}. Requirements: - `recipient` cannot be the zero address. - the caller must have a balance of at least `amount`."
      },
      "transferFrom(address,address,uint256)": {
        "details": "See {IERC20-transferFrom}. Emits an {Approval} event indicating the updated allowance. This is not required by the EIP. See the note at the beginning of {ERC20}. Requirements: - `sender` and `recipient` cannot be the zero address. - `sender` must have a balance of at least `amount`. - the caller must have allowance for ``sender``'s tokens of at least `amount`."
      }
    },
    "title": "ANGLE",
    "version": 1
  },
  "userdoc": {
    "events": {
      "MinterChanged(address,address)": {
        "notice": "An event that is emitted when the minter address is changed"
      }
    },
    "kind": "user",
    "methods": {
      "MAX_MINT()": {
        "notice": "Cap on the percentage of `totalSupply()` that can be minted at each mint"
      },
      "MINIMUM_BETWEEN_MINTS()": {
        "notice": "Minimum time between mints"
      },
      "constructor": {
        "notice": "Constructs a new ANGLE token"
      },
      "mint(address,uint256)": {
        "notice": "Mints new tokens"
      },
      "minter()": {
        "notice": "Address which may mint new tokens"
      },
      "mintingAllowedAfter()": {
        "notice": "The timestamp after which minting may occur"
      },
      "setMinter(address)": {
        "notice": "Changes the minter address"
      }
    },
    "notice": "Governance token of Angle's protocol",
    "version": 1
  },
  "storageLayout": {
    "storage": [
      {
        "astId": 8851,
        "contract": "contracts/dao/ANGLE.sol:ANGLE",
        "label": "_balances",
        "offset": 0,
        "slot": "0",
        "type": "t_mapping(t_address,t_uint256)"
      },
      {
        "astId": 8857,
        "contract": "contracts/dao/ANGLE.sol:ANGLE",
        "label": "_allowances",
        "offset": 0,
        "slot": "1",
        "type": "t_mapping(t_address,t_mapping(t_address,t_uint256))"
      },
      {
        "astId": 8859,
        "contract": "contracts/dao/ANGLE.sol:ANGLE",
        "label": "_totalSupply",
        "offset": 0,
        "slot": "2",
        "type": "t_uint256"
      },
      {
        "astId": 8861,
        "contract": "contracts/dao/ANGLE.sol:ANGLE",
        "label": "_name",
        "offset": 0,
        "slot": "3",
        "type": "t_string_storage"
      },
      {
        "astId": 8863,
        "contract": "contracts/dao/ANGLE.sol:ANGLE",
        "label": "_symbol",
        "offset": 0,
        "slot": "4",
        "type": "t_string_storage"
      },
      {
        "astId": 10153,
        "contract": "contracts/dao/ANGLE.sol:ANGLE",
        "label": "_nonces",
        "offset": 0,
        "slot": "5",
        "type": "t_mapping(t_address,t_struct(Counter)10884_storage)"
      },
      {
        "astId": 9482,
        "contract": "contracts/dao/ANGLE.sol:ANGLE",
        "label": "_delegates",
        "offset": 0,
        "slot": "6",
        "type": "t_mapping(t_address,t_address)"
      },
      {
        "astId": 9488,
        "contract": "contracts/dao/ANGLE.sol:ANGLE",
        "label": "_checkpoints",
        "offset": 0,
        "slot": "7",
        "type": "t_mapping(t_address,t_array(t_struct(Checkpoint)9473_storage)dyn_storage)"
      },
      {
        "astId": 9492,
        "contract": "contracts/dao/ANGLE.sol:ANGLE",
        "label": "_totalSupplyCheckpoints",
        "offset": 0,
        "slot": "8",
        "type": "t_array(t_struct(Checkpoint)9473_storage)dyn_storage"
      },
      {
        "astId": 15922,
        "contract": "contracts/dao/ANGLE.sol:ANGLE",
        "label": "minter",
        "offset": 0,
        "slot": "9",
        "type": "t_address"
      },
      {
        "astId": 15925,
        "contract": "contracts/dao/ANGLE.sol:ANGLE",
        "label": "mintingAllowedAfter",
        "offset": 0,
        "slot": "10",
        "type": "t_uint256"
      }
    ],
    "types": {
      "t_address": {
        "encoding": "inplace",
        "label": "address",
        "numberOfBytes": "20"
      },
      "t_array(t_struct(Checkpoint)9473_storage)dyn_storage": {
        "base": "t_struct(Checkpoint)9473_storage",
        "encoding": "dynamic_array",
        "label": "struct ERC20Votes.Checkpoint[]",
        "numberOfBytes": "32"
      },
      "t_mapping(t_address,t_address)": {
        "encoding": "mapping",
        "key": "t_address",
        "label": "mapping(address => address)",
        "numberOfBytes": "32",
        "value": "t_address"
      },
      "t_mapping(t_address,t_array(t_struct(Checkpoint)9473_storage)dyn_storage)": {
        "encoding": "mapping",
        "key": "t_address",
        "label": "mapping(address => struct ERC20Votes.Checkpoint[])",
        "numberOfBytes": "32",
        "value": "t_array(t_struct(Checkpoint)9473_storage)dyn_storage"
      },
      "t_mapping(t_address,t_mapping(t_address,t_uint256))": {
        "encoding": "mapping",
        "key": "t_address",
        "label": "mapping(address => mapping(address => uint256))",
        "numberOfBytes": "32",
        "value": "t_mapping(t_address,t_uint256)"
      },
      "t_mapping(t_address,t_struct(Counter)10884_storage)": {
        "encoding": "mapping",
        "key": "t_address",
        "label": "mapping(address => struct Counters.Counter)",
        "numberOfBytes": "32",
        "value": "t_struct(Counter)10884_storage"
      },
      "t_mapping(t_address,t_uint256)": {
        "encoding": "mapping",
        "key": "t_address",
        "label": "mapping(address => uint256)",
        "numberOfBytes": "32",
        "value": "t_uint256"
      },
      "t_string_storage": {
        "encoding": "bytes",
        "label": "string",
        "numberOfBytes": "32"
      },
      "t_struct(Checkpoint)9473_storage": {
        "encoding": "inplace",
        "label": "struct ERC20Votes.Checkpoint",
        "members": [
          {
            "astId": 9470,
            "contract": "contracts/dao/ANGLE.sol:ANGLE",
            "label": "fromBlock",
            "offset": 0,
            "slot": "0",
            "type": "t_uint32"
          },
          {
            "astId": 9472,
            "contract": "contracts/dao/ANGLE.sol:ANGLE",
            "label": "votes",
            "offset": 4,
            "slot": "0",
            "type": "t_uint224"
          }
        ],
        "numberOfBytes": "32"
      },
      "t_struct(Counter)10884_storage": {
        "encoding": "inplace",
        "label": "struct Counters.Counter",
        "members": [
          {
            "astId": 10883,
            "contract": "contracts/dao/ANGLE.sol:ANGLE",
            "label": "_value",
            "offset": 0,
            "slot": "0",
            "type": "t_uint256"
          }
        ],
        "numberOfBytes": "32"
      },
      "t_uint224": {
        "encoding": "inplace",
        "label": "uint224",
        "numberOfBytes": "28"
      },
      "t_uint256": {
        "encoding": "inplace",
        "label": "uint256",
        "numberOfBytes": "32"
      },
      "t_uint32": {
        "encoding": "inplace",
        "label": "uint32",
        "numberOfBytes": "4"
      }
    }
  }
}