{
  "address": "0x6CF9cb4Ce7830eFB4A27B5f9a0D4b649a741637C",
  "abi": [
    {
      "inputs": [],
      "stateMutability": "nonpayable",
      "type": "constructor"
    },
    {
      "anonymous": false,
      "inputs": [
        {
          "indexed": true,
          "internalType": "address",
          "name": "admin",
          "type": "address"
        },
        {
          "indexed": false,
          "internalType": "bool",
          "name": "setGovernor",
          "type": "bool"
        }
      ],
      "name": "AdminChanged",
      "type": "event"
    },
    {
      "anonymous": false,
      "inputs": [
        {
          "indexed": true,
          "internalType": "address",
          "name": "stableMaster",
          "type": "address"
        },
        {
          "indexed": true,
          "internalType": "address",
          "name": "poolManager",
          "type": "address"
        },
        {
          "indexed": true,
          "internalType": "address",
          "name": "liquidityGauge",
          "type": "address"
        }
      ],
      "name": "CollateralToggled",
      "type": "event"
    },
    {
      "anonymous": false,
      "inputs": [
        {
          "indexed": true,
          "internalType": "address",
          "name": "tokenAddress",
          "type": "address"
        },
        {
          "indexed": true,
          "internalType": "address",
          "name": "to",
          "type": "address"
        },
        {
          "indexed": false,
          "internalType": "uint256",
          "name": "amount",
          "type": "uint256"
        }
      ],
      "name": "Recovered",
      "type": "event"
    },
    {
      "anonymous": false,
      "inputs": [
        {
          "indexed": true,
          "internalType": "address",
          "name": "sanToken",
          "type": "address"
        },
        {
          "indexed": true,
          "internalType": "address",
          "name": "newLiquidityGauge",
          "type": "address"
        }
      ],
      "name": "SanTokenLiquidityGaugeUpdated",
      "type": "event"
    },
    {
      "anonymous": false,
      "inputs": [
        {
          "indexed": true,
          "internalType": "address",
          "name": "stableMaster",
          "type": "address"
        }
      ],
      "name": "StablecoinAdded",
      "type": "event"
    },
    {
      "anonymous": false,
      "inputs": [
        {
          "indexed": true,
          "internalType": "address",
          "name": "stableMaster",
          "type": "address"
        }
      ],
      "name": "StablecoinRemoved",
      "type": "event"
    },
    {
      "inputs": [],
      "name": "ANGLE",
      "outputs": [
        {
          "internalType": "contract IERC20",
          "name": "",
          "type": "address"
        }
      ],
      "stateMutability": "view",
      "type": "function"
    },
    {
      "inputs": [],
      "name": "BASE_PARAMS",
      "outputs": [
        {
          "internalType": "uint256",
          "name": "",
          "type": "uint256"
        }
      ],
      "stateMutability": "view",
      "type": "function"
    },
    {
      "inputs": [],
      "name": "VEANGLE",
      "outputs": [
        {
          "internalType": "contract IVeANGLE",
          "name": "",
          "type": "address"
        }
      ],
      "stateMutability": "view",
      "type": "function"
    },
    {
      "inputs": [],
      "name": "WETH9",
      "outputs": [
        {
          "internalType": "contract IWETH9",
          "name": "",
          "type": "address"
        }
      ],
      "stateMutability": "view",
      "type": "function"
    },
    {
      "inputs": [
        {
          "internalType": "contract IERC20[]",
          "name": "stablecoins",
          "type": "address[]"
        },
        {
          "internalType": "contract IPoolManager[]",
          "name": "poolManagers",
          "type": "address[]"
        },
        {
          "internalType": "contract ILiquidityGauge[]",
          "name": "liquidityGauges",
          "type": "address[]"
        }
      ],
      "name": "addPairs",
      "outputs": [],
      "stateMutability": "nonpayable",
      "type": "function"
    },
    {
      "inputs": [
        {
          "internalType": "contract IERC20",
          "name": "stablecoin",
          "type": "address"
        },
        {
          "internalType": "contract IStableMasterFront",
          "name": "stableMaster",
          "type": "address"
        }
      ],
      "name": "addStableMaster",
      "outputs": [],
      "stateMutability": "nonpayable",
      "type": "function"
    },
    {
      "inputs": [
        {
          "internalType": "uint256",
          "name": "margin",
          "type": "uint256"
        },
        {
          "internalType": "uint256",
          "name": "perpetualID",
          "type": "uint256"
        },
        {
          "internalType": "bool",
          "name": "addressProcessed",
          "type": "bool"
        },
        {
          "internalType": "address",
          "name": "stablecoinOrPerpetualManager",
          "type": "address"
        },
        {
          "internalType": "address",
          "name": "collateral",
          "type": "address"
        }
      ],
      "name": "addToPerpetual",
      "outputs": [],
      "stateMutability": "nonpayable",
      "type": "function"
    },
    {
      "inputs": [
        {
          "internalType": "contract IERC20[]",
          "name": "tokens",
          "type": "address[]"
        },
        {
          "internalType": "address[]",
          "name": "spenders",
          "type": "address[]"
        },
        {
          "internalType": "uint256[]",
          "name": "amounts",
          "type": "uint256[]"
        }
      ],
      "name": "changeAllowance",
      "outputs": [],
      "stateMutability": "nonpayable",
      "type": "function"
    },
    {
      "inputs": [
        {
          "internalType": "address",
          "name": "user",
          "type": "address"
        },
        {
          "internalType": "address[]",
          "name": "liquidityGauges",
          "type": "address[]"
        },
        {
          "internalType": "uint256[]",
          "name": "perpetualIDs",
          "type": "uint256[]"
        },
        {
          "internalType": "address[]",
          "name": "perpetualManagers",
          "type": "address[]"
        }
      ],
      "name": "claimRewards",
      "outputs": [],
      "stateMutability": "nonpayable",
      "type": "function"
    },
    {
      "inputs": [
        {
          "internalType": "address",
          "name": "gaugeUser",
          "type": "address"
        },
        {
          "internalType": "address[]",
          "name": "liquidityGauges",
          "type": "address[]"
        },
        {
          "internalType": "uint256[]",
          "name": "perpetualIDs",
          "type": "uint256[]"
        },
        {
          "internalType": "address[]",
          "name": "stablecoins",
          "type": "address[]"
        },
        {
          "internalType": "address[]",
          "name": "collaterals",
          "type": "address[]"
        }
      ],
      "name": "claimRewards",
      "outputs": [],
      "stateMutability": "nonpayable",
      "type": "function"
    },
    {
      "inputs": [
        {
          "internalType": "address",
          "name": "user",
          "type": "address"
        },
        {
          "internalType": "uint256",
          "name": "amount",
          "type": "uint256"
        },
        {
          "internalType": "address",
          "name": "stableMaster",
          "type": "address"
        },
        {
          "internalType": "address",
          "name": "collateral",
          "type": "address"
        },
        {
          "internalType": "contract IPoolManager",
          "name": "poolManager",
          "type": "address"
        },
        {
          "internalType": "contract ISanToken",
          "name": "sanToken",
          "type": "address"
        }
      ],
      "name": "deposit",
      "outputs": [],
      "stateMutability": "nonpayable",
      "type": "function"
    },
    {
      "inputs": [
        {
          "internalType": "address",
          "name": "user",
          "type": "address"
        },
        {
          "internalType": "uint256",
          "name": "amount",
          "type": "uint256"
        },
        {
          "internalType": "address",
          "name": "stablecoin",
          "type": "address"
        },
        {
          "internalType": "address",
          "name": "collateral",
          "type": "address"
        }
      ],
      "name": "deposit",
      "outputs": [],
      "stateMutability": "nonpayable",
      "type": "function"
    },
    {
      "inputs": [
        {
          "internalType": "address",
          "name": "user",
          "type": "address"
        },
        {
          "internalType": "uint256",
          "name": "amount",
          "type": "uint256"
        },
        {
          "internalType": "contract ILiquidityGauge",
          "name": "gauge",
          "type": "address"
        },
        {
          "internalType": "bool",
          "name": "shouldClaimRewards",
          "type": "bool"
        },
        {
          "internalType": "contract IERC20",
          "name": "token",
          "type": "address"
        }
      ],
      "name": "gaugeDeposit",
      "outputs": [],
      "stateMutability": "nonpayable",
      "type": "function"
    },
    {
      "inputs": [],
      "name": "governor",
      "outputs": [
        {
          "internalType": "address",
          "name": "",
          "type": "address"
        }
      ],
      "stateMutability": "view",
      "type": "function"
    },
    {
      "inputs": [],
      "name": "guardian",
      "outputs": [
        {
          "internalType": "address",
          "name": "",
          "type": "address"
        }
      ],
      "stateMutability": "view",
      "type": "function"
    },
    {
      "inputs": [
        {
          "internalType": "address",
          "name": "_governor",
          "type": "address"
        },
        {
          "internalType": "address",
          "name": "_guardian",
          "type": "address"
        },
        {
          "internalType": "contract IUniswapV3Router",
          "name": "_uniswapV3Router",
          "type": "address"
        },
        {
          "internalType": "address",
          "name": "_oneInch",
          "type": "address"
        },
        {
          "internalType": "contract IStableMasterFront",
          "name": "existingStableMaster",
          "type": "address"
        },
        {
          "internalType": "contract IPoolManager[]",
          "name": "existingPoolManagers",
          "type": "address[]"
        },
        {
          "internalType": "contract ILiquidityGauge[]",
          "name": "existingLiquidityGauges",
          "type": "address[]"
        }
      ],
      "name": "initialize",
      "outputs": [],
      "stateMutability": "nonpayable",
      "type": "function"
    },
    {
      "inputs": [
        {
          "internalType": "contract IStableMasterFront",
          "name": "",
          "type": "address"
        },
        {
          "internalType": "contract IERC20",
          "name": "",
          "type": "address"
        }
      ],
      "name": "mapPoolManagers",
      "outputs": [
        {
          "internalType": "contract IPoolManager",
          "name": "poolManager",
          "type": "address"
        },
        {
          "internalType": "contract IPerpetualManagerFrontWithClaim",
          "name": "perpetualManager",
          "type": "address"
        },
        {
          "internalType": "contract ISanToken",
          "name": "sanToken",
          "type": "address"
        },
        {
          "internalType": "contract ILiquidityGauge",
          "name": "gauge",
          "type": "address"
        }
      ],
      "stateMutability": "view",
      "type": "function"
    },
    {
      "inputs": [
        {
          "internalType": "contract IERC20",
          "name": "",
          "type": "address"
        }
      ],
      "name": "mapStableMasters",
      "outputs": [
        {
          "internalType": "contract IStableMasterFront",
          "name": "",
          "type": "address"
        }
      ],
      "stateMutability": "view",
      "type": "function"
    },
    {
      "inputs": [
        {
          "internalType": "address",
          "name": "user",
          "type": "address"
        },
        {
          "internalType": "uint256",
          "name": "amount",
          "type": "uint256"
        },
        {
          "internalType": "uint256",
          "name": "minStableAmount",
          "type": "uint256"
        },
        {
          "internalType": "address",
          "name": "stablecoin",
          "type": "address"
        },
        {
          "internalType": "address",
          "name": "collateral",
          "type": "address"
        }
      ],
      "name": "mint",
      "outputs": [],
      "stateMutability": "nonpayable",
      "type": "function"
    },
    {
      "inputs": [
        {
          "internalType": "address",
          "name": "user",
          "type": "address"
        },
        {
          "internalType": "uint256",
          "name": "amount",
          "type": "uint256"
        },
        {
          "internalType": "uint256",
          "name": "minStableAmount",
          "type": "uint256"
        },
        {
          "internalType": "address",
          "name": "stableMaster",
          "type": "address"
        },
        {
          "internalType": "address",
          "name": "collateral",
          "type": "address"
        },
        {
          "internalType": "address",
          "name": "poolManager",
          "type": "address"
        }
      ],
      "name": "mint",
      "outputs": [],
      "stateMutability": "nonpayable",
      "type": "function"
    },
    {
      "inputs": [
        {
          "components": [
            {
              "internalType": "address",
              "name": "token",
              "type": "address"
            },
            {
              "internalType": "address",
              "name": "owner",
              "type": "address"
            },
            {
              "internalType": "uint256",
              "name": "value",
              "type": "uint256"
            },
            {
              "internalType": "uint256",
              "name": "deadline",
              "type": "uint256"
            },
            {
              "internalType": "uint8",
              "name": "v",
              "type": "uint8"
            },
            {
              "internalType": "bytes32",
              "name": "r",
              "type": "bytes32"
            },
            {
              "internalType": "bytes32",
              "name": "s",
              "type": "bytes32"
            }
          ],
          "internalType": "struct AngleRouter.PermitType[]",
          "name": "paramsPermit",
          "type": "tuple[]"
        },
        {
          "components": [
            {
              "internalType": "contract IERC20",
              "name": "inToken",
              "type": "address"
            },
            {
              "internalType": "uint256",
              "name": "amountIn",
              "type": "uint256"
            }
          ],
          "internalType": "struct AngleRouter.TransferType[]",
          "name": "paramsTransfer",
          "type": "tuple[]"
        },
        {
          "components": [
            {
              "internalType": "contract IERC20",
              "name": "inToken",
              "type": "address"
            },
            {
              "internalType": "address",
              "name": "collateral",
              "type": "address"
            },
            {
              "internalType": "uint256",
              "name": "amountIn",
              "type": "uint256"
            },
            {
              "internalType": "uint256",
              "name": "minAmountOut",
              "type": "uint256"
            },
            {
              "internalType": "bytes",
              "name": "args",
              "type": "bytes"
            },
            {
              "internalType": "enum AngleRouter.SwapType",
              "name": "swapType",
              "type": "uint8"
            }
          ],
          "internalType": "struct AngleRouter.ParamsSwapType[]",
          "name": "paramsSwap",
          "type": "tuple[]"
        },
        {
          "internalType": "enum AngleRouter.ActionType[]",
          "name": "actions",
          "type": "uint8[]"
        },
        {
          "internalType": "bytes[]",
          "name": "datas",
          "type": "bytes[]"
        }
      ],
      "name": "mixer",
      "outputs": [],
      "stateMutability": "payable",
      "type": "function"
    },
    {
      "inputs": [],
      "name": "oneInch",
      "outputs": [
        {
          "internalType": "address",
          "name": "",
          "type": "address"
        }
      ],
      "stateMutability": "view",
      "type": "function"
    },
    {
      "inputs": [
        {
          "internalType": "contract IERC20",
          "name": "",
          "type": "address"
        }
      ],
      "name": "oneInchAllowedToken",
      "outputs": [
        {
          "internalType": "bool",
          "name": "",
          "type": "bool"
        }
      ],
      "stateMutability": "view",
      "type": "function"
    },
    {
      "inputs": [
        {
          "internalType": "address",
          "name": "owner",
          "type": "address"
        },
        {
          "internalType": "uint256",
          "name": "margin",
          "type": "uint256"
        },
        {
          "internalType": "uint256",
          "name": "amountCommitted",
          "type": "uint256"
        },
        {
          "internalType": "uint256",
          "name": "maxOracleRate",
          "type": "uint256"
        },
        {
          "internalType": "uint256",
          "name": "minNetMargin",
          "type": "uint256"
        },
        {
          "internalType": "bool",
          "name": "addressProcessed",
          "type": "bool"
        },
        {
          "internalType": "address",
          "name": "stablecoinOrPerpetualManager",
          "type": "address"
        },
        {
          "internalType": "address",
          "name": "collateral",
          "type": "address"
        }
      ],
      "name": "openPerpetual",
      "outputs": [],
      "stateMutability": "nonpayable",
      "type": "function"
    },
    {
      "inputs": [
        {
          "internalType": "address",
          "name": "tokenAddress",
          "type": "address"
        },
        {
          "internalType": "address",
          "name": "to",
          "type": "address"
        },
        {
          "internalType": "uint256",
          "name": "tokenAmount",
          "type": "uint256"
        }
      ],
      "name": "recoverERC20",
      "outputs": [],
      "stateMutability": "nonpayable",
      "type": "function"
    },
    {
      "inputs": [
        {
          "internalType": "contract IERC20[]",
          "name": "stablecoins",
          "type": "address[]"
        },
        {
          "internalType": "contract IERC20[]",
          "name": "collaterals",
          "type": "address[]"
        },
        {
          "internalType": "contract IStableMasterFront[]",
          "name": "stableMasters",
          "type": "address[]"
        }
      ],
      "name": "removePairs",
      "outputs": [],
      "stateMutability": "nonpayable",
      "type": "function"
    },
    {
      "inputs": [
        {
          "internalType": "contract IERC20",
          "name": "stablecoin",
          "type": "address"
        }
      ],
      "name": "removeStableMaster",
      "outputs": [],
      "stateMutability": "nonpayable",
      "type": "function"
    },
    {
      "inputs": [
        {
          "internalType": "address",
          "name": "admin",
          "type": "address"
        },
        {
          "internalType": "bool",
          "name": "setGovernor",
          "type": "bool"
        }
      ],
      "name": "setGovernorOrGuardian",
      "outputs": [],
      "stateMutability": "nonpayable",
      "type": "function"
    },
    {
      "inputs": [
        {
          "internalType": "contract IERC20[]",
          "name": "stablecoins",
          "type": "address[]"
        },
        {
          "internalType": "contract IERC20[]",
          "name": "collaterals",
          "type": "address[]"
        },
        {
          "internalType": "contract ILiquidityGauge[]",
          "name": "newLiquidityGauges",
          "type": "address[]"
        }
      ],
      "name": "setLiquidityGauges",
      "outputs": [],
      "stateMutability": "nonpayable",
      "type": "function"
    },
    {
      "inputs": [
        {
          "internalType": "contract IERC20",
          "name": "",
          "type": "address"
        }
      ],
      "name": "uniAllowedToken",
      "outputs": [
        {
          "internalType": "bool",
          "name": "",
          "type": "bool"
        }
      ],
      "stateMutability": "view",
      "type": "function"
    },
    {
      "inputs": [],
      "name": "uniswapV3Router",
      "outputs": [
        {
          "internalType": "contract IUniswapV3Router",
          "name": "",
          "type": "address"
        }
      ],
      "stateMutability": "view",
      "type": "function"
    },
    {
      "stateMutability": "payable",
      "type": "receive"
    }
  ],
  "transactionHash": "0xba2cb6e53d25ed16322c33c877477a380b2e4ba0df0200152c49b30457166968",
  "args": [],
  "solcInputHash": "ad256063daca250b25bd15b794037c19",
  "bytecode": "0x60806040523480156200001157600080fd5b50600054610100900460ff16806200002c575060005460ff16155b620000945760405162461bcd60e51b815260206004820152602e60248201527f496e697469616c697a61626c653a20636f6e747261637420697320616c72656160448201526d191e481a5b9a5d1a585b1a5e995960921b606482015260840160405180910390fd5b600054610100900460ff16158015620000b7576000805461ffff19166101011790555b8015620000ca576000805461ff00191690555b506154f980620000db6000396000f3fe60806040526004361061016c5760003560e01c8063045c08d5146101785780630c340a24146101ae5780630db3280f146101ce5780631171bda91461020e5780631fd66ede1461023057806322f2d586146102505780632c76d7a614610270578063313359b1146102905780633fbe4484146102b2578063452a9320146102d25780634aa4a4fc146102f25780634ba20f701461031a578063560a8b781461033a5780635cc6b2d4146103625780636fb8df05146103825780637c295dfa146103a25780639f48118f14610433578063a11a233d14610459578063aacdd99d14610479578063aad3bff014610499578063b044d1e0146104b9578063b8034424146104d9578063b82c4dc11461050f578063c6f1649f1461052f578063cef5cd0a1461054f578063d0772c2914610562578063d7d9e46f14610582578063e45e6f30146105a2578063e9cefc64146105c2578063f5a418bb146105e2578063f8a3a1111461061257600080fd5b3661017357005b600080fd5b34801561018457600080fd5b50603a54610198906001600160a01b031681565b6040516101a59190615074565b60405180910390f35b3480156101ba57600080fd5b50603754610198906001600160a01b031681565b3480156101da57600080fd5b506101fe6101e9366004614530565b60356020526000908152604090205460ff1681565b60405190151581526020016101a5565b34801561021a57600080fd5b5061022e610229366004614944565b610632565b005b34801561023c57600080fd5b5061022e61024b366004614be3565b6106e0565b34801561025c57600080fd5b5061022e61026b366004614cc0565b610734565b34801561027c57600080fd5b50603954610198906001600160a01b031681565b34801561029c57600080fd5b5061019860008051602061548483398151915281565b3480156102be57600080fd5b5061022e6102cd366004614876565b610b93565b3480156102de57600080fd5b50603854610198906001600160a01b031681565b3480156102fe57600080fd5b5061019873c778417e063141139fce010982780140aa0cd5ab81565b34801561032657600080fd5b5061022e6103353660046147f1565b610e81565b34801561034657600080fd5b5061019873b914c979af4392f69ea25a8b8b2c30a424a0a54181565b34801561036e57600080fd5b5061022e61037d366004614cc0565b610edd565b34801561038e57600080fd5b5061022e61039d366004614530565b61129d565b3480156103ae57600080fd5b506104006103bd366004614f6a565b603460209081526000928352604080842090915290825290208054600182015460028301546003909301546001600160a01b039283169391831692918216911684565b604080516001600160a01b03958616815293851660208501529184169183019190915290911660608201526080016101a5565b34801561043f57600080fd5b5061044b633b9aca0081565b6040519081526020016101a5565b34801561046557600080fd5b5061022e610474366004614ade565b611334565b34801561048557600080fd5b5061022e610494366004614cc0565b61146c565b3480156104a557600080fd5b5061022e6104b4366004614b6a565b61157c565b3480156104c557600080fd5b5061022e6104d4366004614c3d565b6115d7565b3480156104e557600080fd5b506101986104f4366004614530565b6033602052600090815260409020546001600160a01b031681565b34801561051b57600080fd5b5061022e61052a366004614cc0565b611625565b34801561053b57600080fd5b5061022e61054a366004614b17565b61171a565b61022e61055d366004614d59565b611774565b34801561056e57600080fd5b5061022e61057d366004614985565b612290565b34801561058e57600080fd5b5061022e61059d366004614c7e565b612316565b3480156105ae57600080fd5b5061022e6105bd366004614f6a565b612363565b3480156105ce57600080fd5b5061022e6105dd366004614ffb565b6124fa565b3480156105ee57600080fd5b506101fe6105fd366004614530565b60366020526000908152604090205460ff1681565b34801561061e57600080fd5b5061022e61062d366004614a1f565b612544565b6037546001600160a01b031633148061065557506038546001600160a01b031633145b61067a5760405162461bcd60e51b815260040161067190615122565b60405180910390fd5b61068e6001600160a01b038416838361257b565b816001600160a01b0316836001600160a01b03167ffff3b3844276f57024e0b42afec1a37f75db36511e43819a4f2a63ab7862b648836040516106d391815260200190565b60405180910390a3505050565b600260015414156107035760405162461bcd60e51b815260040161067190615178565b600260015561071d6001600160a01b0382163330876125d6565b61072985858585612614565b505060018055505050565b6037546001600160a01b031633148061075757506038546001600160a01b031633145b6107735760405162461bcd60e51b815260040161067190615122565b828514801561078157508085145b61079d5760405162461bcd60e51b8152600401610671906150e9565b60005b85811015610b8a576000603360008989858181106107c0576107c0615431565b90506020020160208101906107d59190614530565b6001600160a01b03908116825260208083019390935260409182016000908120549091168082526034909352908120919250908188888681811061081b5761081b615431565b90506020020160208101906108309190614530565b6001600160a01b03908116825260208201929092526040016000206003810154600282015491935082169190811690841615801590610878575082546001600160a01b031615155b6108945760405162461bcd60e51b8152600401610671906150ce565b8686868181106108a6576108a6615431565b90506020020160208101906108bb9190614530565b6003840180546001600160a01b0319166001600160a01b039283161790558216156109635760405163095ea7b360e01b81526001600160a01b0382169063095ea7b39061090f9085906000906004016150a2565b602060405180830381600087803b15801561092957600080fd5b505af115801561093d573d6000803e3d6000fd5b505050506040513d601f19601f820116820180604052508101906109619190614e11565b505b600087878781811061097757610977615431565b905060200201602081019061098c9190614530565b6001600160a01b031614610b0d57806001600160a01b03168787878181106109b6576109b6615431565b90506020020160208101906109cb9190614530565b6001600160a01b0316632dc7d74c6040518163ffffffff1660e01b8152600401602060405180830381600087803b158015610a0557600080fd5b505af1158015610a19573d6000803e3d6000fd5b505050506040513d601f19601f82011682018060405250810190610a3d919061454d565b6001600160a01b031614610a635760405162461bcd60e51b81526004016106719061515c565b806001600160a01b031663095ea7b3888888818110610a8457610a84615431565b9050602002016020810190610a999190614530565b6000196040518363ffffffff1660e01b8152600401610ab99291906150a2565b602060405180830381600087803b158015610ad357600080fd5b505af1158015610ae7573d6000803e3d6000fd5b505050506040513d601f19601f82011682018060405250810190610b0b9190614e11565b505b868686818110610b1f57610b1f615431565b9050602002016020810190610b349190614530565b6001600160a01b0316816001600160a01b03167f68bfc93bebf089f076e093803a9da9d10f6f78e2bde5f83b50b249ed5333442460405160405180910390a3505050508080610b82906153ea565b9150506107a0565b50505050505050565b600054610100900460ff1680610bac575060005460ff16155b610c0f5760405162461bcd60e51b815260206004820152602e60248201527f496e697469616c697a61626c653a20636f6e747261637420697320616c72656160448201526d191e481a5b9a5d1a585b1a5e995960921b6064820152608401610671565b600054610100900460ff16158015610c31576000805461ffff19166101011790555b6001600160a01b03881615801590610c5157506001600160a01b03871615155b8015610c6557506001600160a01b038a1615155b8015610c7957506001600160a01b03891615155b610c955760405162461bcd60e51b8152600401610671906150ce565b886001600160a01b03168a6001600160a01b03161415610cc75760405162461bcd60e51b815260040161067190615106565b838214610ce65760405162461bcd60e51b8152600401610671906150e9565b8560336000886001600160a01b031663ee565a636040518163ffffffff1660e01b815260040160206040518083038186803b158015610d2457600080fd5b505afa158015610d38573d6000803e3d6000fd5b505050506040513d601f19601f82011682018060405250810190610d5c919061454d565b6001600160a01b039081168252602082019290925260400160002080546001600160a01b03199081169383169390931790556037805483168d83161790556038805483168c83161790556039805483168b8316179055603a8054909216908916179055610dee60008051602061548483398151915273b914c979af4392f69ea25a8b8b2c30a424a0a541600019612684565b60005b84811015610e6257610e5087878784818110610e0f57610e0f615431565b9050602002016020810190610e249190614530565b868685818110610e3657610e36615431565b9050602002016020810190610e4b9190614530565b612796565b80610e5a816153ea565b915050610df1565b508015610e75576000805461ff00191690555b50505050505050505050565b60026001541415610ea45760405162461bcd60e51b815260040161067190615178565b6002600155610ebe6001600160a01b03821633308a6125d6565b610ece8888888888888888612a57565b50506001805550505050505050565b6037546001600160a01b0316331480610f0057506038546001600160a01b031633145b610f1c5760405162461bcd60e51b815260040161067190615122565b8285148015610f2a57508083145b610f465760405162461bcd60e51b8152600401610671906150e9565b610f4e613efd565b6000805b87811015611292576000858583818110610f6e57610f6e615431565b9050602002016020810190610f839190614530565b6001600160a01b03161415610ff157610fe8898983818110610fa757610fa7615431565b9050602002016020810190610fbc9190614530565b888884818110610fce57610fce615431565b9050602002016020810190610fe39190614530565b612b17565b935091506110b1565b84848281811061100357611003615431565b90506020020160208101906110189190614530565b6001600160a01b038116600090815260346020526040812091935088888481811061104557611045615431565b905060200201602081019061105a9190614530565b6001600160a01b039081168252602080830193909352604091820160002082516080810184528154831681526001820154831694810194909452600281015482169284019290925260039091015416606082015292505b6001600160a01b0382166000908152603460205260408120908888848181106110dc576110dc615431565b90506020020160208101906110f19190614530565b6001600160a01b03168152602081019190915260400160002080546001600160a01b03199081168255600182018054821690556002820180548216905560039091018054909116905561116c87878381811061114f5761114f615431565b90506020020160208101906111649190614530565b836000612bc9565b6111a287878381811061118157611181615431565b90506020020160208101906111969190614530565b84602001516000612bc9565b60608301516001600160a01b0316156112405782604001516001600160a01b031663095ea7b3846060015160006040518363ffffffff1660e01b81526004016111ec9291906150a2565b602060405180830381600087803b15801561120657600080fd5b505af115801561121a573d6000803e3d6000fd5b505050506040513d601f19601f8201168201806040525081019061123e9190614e11565b505b82606001516001600160a01b031683600001516001600160a01b0316836001600160a01b03166000805160206154a483398151915260405160405180910390a48061128a816153ea565b915050610f52565b505050505050505050565b6037546001600160a01b03163314806112c057506038546001600160a01b031633145b6112dc5760405162461bcd60e51b815260040161067190615122565b6001600160a01b0380821660009081526033602052604080822080546001600160a01b03198116909155905192169182917f3302a1b37f04242bb55603f5449e7ecd690a35eef08ba1353c48c20e2aae9cda91a25050565b6037546001600160a01b031633148061135757506038546001600160a01b031633145b6113735760405162461bcd60e51b815260040161067190615122565b6001600160a01b0382166113995760405162461bcd60e51b8152600401610671906150ce565b6038546001600160a01b038381169116148015906113c557506037546001600160a01b03838116911614155b6113e15760405162461bcd60e51b815260040161067190615106565b801561140757603780546001600160a01b0319166001600160a01b038416179055611423565b603880546001600160a01b0319166001600160a01b0384161790555b816001600160a01b03167f4526a942aaed9ea92b149506bb00ccf0f9267091de10444718cf9b09e05dc68082604051611460911515815260200190565b60405180910390a25050565b6037546001600160a01b031633148061148f57506038546001600160a01b031633145b6114ab5760405162461bcd60e51b815260040161067190615122565b82851480156114b957508085145b6114d55760405162461bcd60e51b8152600401610671906150e9565b60005b85811015610b8a576000603360008989858181106114f8576114f8615431565b905060200201602081019061150d9190614530565b6001600160a01b0390811682526020820192909252604001600020541690506115698187878581811061154257611542615431565b90506020020160208101906115579190614530565b868686818110610e3657610e36615431565b5080611574816153ea565b9150506114d8565b6002600154141561159f5760405162461bcd60e51b815260040161067190615178565b60026001556115b96001600160a01b0384163330886125d6565b6115c98686600187878787612c9f565b505060018055505050505050565b600260015414156115fa5760405162461bcd60e51b815260040161067190615178565b60026001556116146001600160a01b0382163330876125d6565b610729858585600086866000612ec8565b6037546001600160a01b031633148061164857506038546001600160a01b031633145b6116645760405162461bcd60e51b815260040161067190615122565b848314801561167257508481145b61168e5760405162461bcd60e51b8152600401610671906150e9565b60005b85811015610b8a576117088787838181106116ae576116ae615431565b90506020020160208101906116c39190614530565b8686848181106116d5576116d5615431565b90506020020160208101906116ea9190614530565b8585858181106116fc576116fc615431565b90506020020135612bc9565b80611712816153ea565b915050611691565b6002600154141561173d5760405162461bcd60e51b815260040161067190615178565b60026001556117576001600160a01b0382163330866125d6565b611768848460008585600080612c9f565b50506001805550505050565b600260015414156117975760405162461bcd60e51b815260040161067190615178565b600260015560005b8651811015611923578681815181106117ba576117ba615431565b6020026020010151600001516001600160a01b031663d505accf8883815181106117e6576117e6615431565b602002602001015160200151308a858151811061180557611805615431565b6020026020010151604001518b868151811061182357611823615431565b6020026020010151606001518c878151811061184157611841615431565b6020026020010151608001518d888151811061185f5761185f615431565b602002602001015160a001518e898151811061187d5761187d615431565b602090810291909101015160c001516040516001600160e01b031960e08a901b1681526001600160a01b0397881660048201529690951660248701526044860193909352606485019190915260ff16608484015260a483015260c482015260e401600060405180830381600087803b1580156118f857600080fd5b505af115801561190c573d6000803e3d6000fd5b50505050808061191b906153ea565b91505061179f565b5061192c613f24565b611934613f24565b60005b87518110156119f25761199a33308a848151811061195757611957615431565b6020026020010151602001518b858151811061197557611975615431565b6020026020010151600001516001600160a01b03166125d6909392919063ffffffff16565b6119e083838a84815181106119b1576119b1615431565b6020026020010151600001518b85815181106119cf576119cf615431565b602002602001015160200151612f6b565b806119ea816153ea565b915050611937565b5060005b8651811015611add576000611a9f888381518110611a1657611a16615431565b602002602001015160000151898481518110611a3457611a34615431565b6020026020010151604001518a8581518110611a5257611a52615431565b6020026020010151606001518b8681518110611a7057611a70615431565b602002602001015160a001518c8781518110611a8e57611a8e615431565b602002602001015160800151612ff6565b9050611aca84848a8581518110611ab857611ab8615431565b60200260200101516020015184612f6b565b5080611ad5816153ea565b9150506119f6565b5060005b8551811015612210576000868281518110611afe57611afe615431565b60200260200101516008811115611b1757611b1761541b565b1415611cf45760008060008060008060008b8b89818110611b3a57611b3a615431565b9050602002810190611b4c9190615226565b810190611b599190614649565b965096509650965096509650965060006000805160206154848339815191526001600160a01b03166370a08231896040518263ffffffff1660e01b8152600401611ba39190615074565b60206040518083038186803b158015611bbb57600080fd5b505afa158015611bcf573d6000803e3d6000fd5b505050506040513d601f19601f82011682018060405250810190611bf39190614f98565b9050611c03888787878787613132565b8615611ce7576040516370a0823160e01b81528190600080516020615484833981519152906370a0823190611c3c908c90600401615074565b60206040518083038186803b158015611c5457600080fd5b505afa158015611c68573d6000803e3d6000fd5b505050506040513d601f19601f82011682018060405250810190611c8c9190614f98565b611c9691906153a7565b9050633b9aca00611ca78883615388565b611cb19190615366565b9050611ccd6000805160206154848339815191523330846125d6565b611ce78b8b60008051602061548483398151915284612f6b565b50505050505050506121fe565b6001868281518110611d0857611d08615431565b60200260200101516008811115611d2157611d2161541b565b1415611d9b576000806000878785818110611d3e57611d3e615431565b9050602002810190611d509190615226565b810190611d5d919061456a565b925092509250600080611d71858585613300565b90925090506001600160a01b03811615611d9157611d9188888385612f6b565b50505050506121fe565b6008868281518110611daf57611daf615431565b60200260200101516008811115611dc857611dc861541b565b1415611e3357600080868684818110611de357611de3615431565b9050602002810190611df59190615226565b810190611e0291906145b5565b91509150611e20818686600080516020615484833981519152613425565b9050611e2c82826134ec565b50506121fe565b6002868281518110611e4757611e47615431565b60200260200101516008811115611e6057611e6061541b565b1415611ec3576000806000806000898987818110611e8057611e80615431565b9050602002810190611e929190615226565b810190611e9f91906145e1565b94509450945094509450611eb584898986613425565b9350611d9185858484612614565b6005868281518110611ed757611ed7615431565b60200260200101516008811115611ef057611ef061541b565b1415611f805760008060008060008060008b8b89818110611f1357611f13615431565b9050602002810190611f259190615226565b810190611f329190614720565b9650965096509650965096509650611f4c868b8b86613425565b9550611f5d87878787878787612c9f565b90965090508515611f7457611f748a8a8389612f6b565b505050505050506121fe565b6003868281518110611f9457611f94615431565b60200260200101516008811115611fad57611fad61541b565b1415612021576000806000806000898987818110611fcd57611fcd615431565b9050602002810190611fdf9190615226565b810190611fec9190614fb1565b9450945094509450945061200285898984613425565b94506120108585858561355b565b9095509150611d9188888488612f6b565b600486828151811061203557612035615431565b6020026020010151600881111561204e5761204e61541b565b14156120bb5760008060008060008060008b8b8981811061207157612071615431565b90506020028101906120839190615226565b81019061209091906147ad565b96509650965096509650965096506120aa868b8b85613425565b9550611f7487878787878787612ec8565b60068682815181106120cf576120cf615431565b602002602001015160088111156120e8576120e861541b565b1415612167576000806000806000806000808c8c8a81811061210c5761210c615431565b905060200281019061211e9190615226565b81019061212b91906147f1565b97509750975097509750975097509750612147878c8c84613425565b96506121598888888888888888612a57565b5050505050505050506121fe565b600786828151811061217b5761217b615431565b602002602001015160088111156121945761219461541b565b14156121fe5760008060008060008989878181106121b4576121b4615431565b90506020028101906121c69190615226565b8101906121d39190614ffb565b945094509450945094506121e985898984613425565b94506121f88585858585613784565b50505050505b80612208816153ea565b915050611ae1565b5060005b600a811015610ece5760008282600a811061223157612231615431565b6020020151111561227e5761227e338383600a811061225257612252615431565b60200201518584600a811061226957612269615431565b60200201516001600160a01b0316919061257b565b80612288816153ea565b915050612214565b600260015414156122b35760405162461bcd60e51b815260040161067190615178565b600260018190555061230c848484600186516001600160401b038111156122dc576122dc615447565b604051908082528060200260200182016040528015612305578160200160208202803683370190505b5086613132565b5050600180555050565b600260015414156123395760405162461bcd60e51b815260040161067190615178565b60026001556123536001600160a01b0383163330886125d6565b6117688686866001878787612ec8565b6037546001600160a01b031633148061238657506038546001600160a01b031633145b6123a25760405162461bcd60e51b815260040161067190615122565b6001600160a01b0382166123c85760405162461bcd60e51b8152600401610671906150ce565b6001600160a01b0382811660009081526033602052604090205416156124005760405162461bcd60e51b81526004016106719061513f565b816001600160a01b0316816001600160a01b031663ee565a636040518163ffffffff1660e01b8152600401602060405180830381600087803b15801561244557600080fd5b505af1158015612459573d6000803e3d6000fd5b505050506040513d601f19601f8201168201806040525081019061247d919061454d565b6001600160a01b0316146124a35760405162461bcd60e51b81526004016106719061515c565b6001600160a01b0382811660009081526033602052604080822080546001600160a01b0319169385169384179055517f3db297c09c19972ba6a701ff373ab97e21ff1e4992e863c7abe44e9b2fed08479190a25050565b6002600154141561251d5760405162461bcd60e51b815260040161067190615178565b60026001556125376001600160a01b0382163330886125d6565b6107298585858585613784565b600260015414156125675760405162461bcd60e51b815260040161067190615178565b600260015561072985858560008686613132565b6125d18363a9059cbb60e01b848460405160240161259a9291906150a2565b60408051601f198184030181529190526020810180516001600160e01b03166001600160e01b0319909316929092179091526137fb565b505050565b6040516001600160a01b038085166024830152831660448201526064810182905261260e9085906323b872dd60e01b9060840161259a565b50505050565b6040516383df674760e01b8152600481018490526001600160a01b03858116602483015282151560448301528316906383df674790606401600060405180830381600087803b15801561266657600080fd5b505af115801561267a573d6000803e3d6000fd5b5050505050505050565b80158061270c5750604051636eb1769f60e11b81526001600160a01b0384169063dd62ed3e906126ba9030908690600401615088565b60206040518083038186803b1580156126d257600080fd5b505afa1580156126e6573d6000803e3d6000fd5b505050506040513d601f19601f8201168201806040525081019061270a9190614f98565b155b6127775760405162461bcd60e51b815260206004820152603660248201527f5361666545524332303a20617070726f76652066726f6d206e6f6e2d7a65726f60448201527520746f206e6f6e2d7a65726f20616c6c6f77616e636560501b6064820152608401610671565b6125d18363095ea7b360e01b848460405160240161259a9291906150a2565b6000806000856001600160a01b031663ba8b7223866040518263ffffffff1660e01b81526004016127c79190615074565b60006040518083038186803b1580156127df57600080fd5b505afa1580156127f3573d6000803e3d6000fd5b505050506040513d6000823e601f3d908101601f1916820160405261281b9190810190614e2e565b5050506001600160a01b03808d166000908152603460209081526040808320848b16845290915290208054979a5095985093965093949092161592506128769150505760405162461bcd60e51b81526004016106719061513f565b80546001600160a01b038088166001600160a01b03199283161783556001830180548583169084161790556002830180548683169316929092179091558516156129fc57846001600160a01b0316632dc7d74c6040518163ffffffff1660e01b8152600401602060405180830381600087803b1580156128f557600080fd5b505af1158015612909573d6000803e3d6000fd5b505050506040513d601f19601f8201168201806040525081019061292d919061454d565b6001600160a01b0316836001600160a01b03161461295d5760405162461bcd60e51b81526004016106719061515c565b6003810180546001600160a01b0319166001600160a01b038781169190911790915560405163095ea7b360e01b81529084169063095ea7b3906129a8908890600019906004016150a2565b602060405180830381600087803b1580156129c257600080fd5b505af11580156129d6573d6000803e3d6000fd5b505050506040513d601f19601f820116820180604052508101906129fa9190614e11565b505b612a098488600019612bc9565b612a168483600019612bc9565b846001600160a01b0316866001600160a01b0316886001600160a01b03166000805160206154a483398151915260405160405180910390a450505050505050565b600083612a73576000612a6a8484612b17565b60200151945050505b60405163a62b2a3d60e01b81526001600160a01b038a81166004830152602482018a905260448201899052606482018890526084820187905284169063a62b2a3d9060a401602060405180830381600087803b158015612ad257600080fd5b505af1158015612ae6573d6000803e3d6000fd5b505050506040513d601f19601f82011682018060405250810190612b0a9190614f98565b9998505050505050505050565b6000612b21613efd565b50506001600160a01b038083166000908152603360209081526040808320548416808452603483528184208686168552835292819020815160808101835281548616815260018201548616938101939093526002810154851691830191909152600301549092166060830152908115801590612ba6575080516001600160a01b031615155b612bc25760405162461bcd60e51b8152600401610671906150ce565b9250929050565b604051636eb1769f60e11b81526000906001600160a01b0385169063dd62ed3e90612bfa9030908790600401615088565b60206040518083038186803b158015612c1257600080fd5b505afa158015612c26573d6000803e3d6000fd5b505050506040513d601f19601f82011682018060405250810190612c4a9190614f98565b905081811015612c7857612c7383612c6283856153a7565b6001600160a01b03871691906138cd565b61260e565b8181111561260e5761260e83612c8e84846153a7565b6001600160a01b0387169190613979565b60008060008715612cb1575085612cd4565b612cb9613efd565b612cc38888612b17565b805160409091015190975095509150505b6001600160a01b038a16301415612e55576040516370a0823160e01b81526001600160a01b038516906370a0823190612d11903090600401615074565b60206040518083038186803b158015612d2957600080fd5b505afa158015612d3d573d6000803e3d6000fd5b505050506040513d601f19601f82011682018060405250810190612d619190614f98565b604051630b8b4a6160e21b81529093506001600160a01b03821690632e2d298490612d94908c9030908a90600401615207565b600060405180830381600087803b158015612dae57600080fd5b505af1158015612dc2573d6000803e3d6000fd5b50506040516370a0823160e01b81528592506001600160a01b03871691506370a0823190612df4903090600401615074565b60206040518083038186803b158015612e0c57600080fd5b505afa158015612e20573d6000803e3d6000fd5b505050506040513d601f19601f82011682018060405250810190612e449190614f98565b612e4e91906153a7565b9250612eb8565b604051630b8b4a6160e21b81526001600160a01b03821690632e2d298490612e85908c908e908a90600401615207565b600060405180830381600087803b158015612e9f57600080fd5b505af1158015612eb3573d6000803e3d6000fd5b505050505b5082905097509795505050505050565b60008415612ed7575082612ef0565b612edf613efd565b612ee98585612b17565b5193509150505b6040516303a7722360e11b8152600481018890526001600160a01b03898116602483015283811660448301526064820188905282169063074ee44690608401600060405180830381600087803b158015612f4957600080fd5b505af1158015612f5d573d6000803e3d6000fd5b505050505050505050505050565b6000612f778584613a8b565b905060008582600a8110612f8d57612f8d615431565b60200201516001600160a01b03161415612fc857828582600a8110612fb457612fb4615431565b6001600160a01b0390921660209290920201525b818482600a8110612fdb57612fdb615431565b60200201818151612fec919061534e565b9052505050505050565b60006001600160a01b03861673c778417e063141139fce010982780140aa0cd5ab1480156130245750844710155b156130965773c778417e063141139fce010982780140aa0cd5ab6001600160a01b031663d0e30db0866040518263ffffffff1660e01b81526004016000604051808303818588803b15801561307857600080fd5b505af115801561308c573d6000803e3d6000fd5b50505050506130ab565b6130ab6001600160a01b0387163330886125d6565b60008360018111156130bf576130bf61541b565b14156130d8576130d186868685613b16565b9050613129565b60018360018111156130ec576130ec61541b565b14156130fd576130d1868584613c1b565b60405162461bcd60e51b81526020600482015260016024820152603360f81b6044820152606401610671565b95945050505050565b83518251148015613144575083518151145b6131605760405162461bcd60e51b8152600401610671906150e9565b60005b85518110156131f65785818151811061317e5761317e615431565b60200260200101516001600160a01b03166384e9bd7e886040518263ffffffff1660e01b81526004016131b19190615074565b600060405180830381600087803b1580156131cb57600080fd5b505af11580156131df573d6000803e3d6000fd5b5050505080806131ee906153ea565b915050613163565b5060005b8451811015610b8a576000841561322c5782828151811061321d5761321d615431565b60200260200101519050613273565b600061326a85848151811061324357613243615431565b602002602001015185858151811061325d5761325d615431565b6020026020010151612b17565b60200151925050505b806001600160a01b0316631c4b774b87848151811061329457613294615431565b60200260200101516040518263ffffffff1660e01b81526004016132ba91815260200190565b600060405180830381600087803b1580156132d457600080fd5b505af11580156132e8573d6000803e3d6000fd5b505050505080806132f8906153ea565b9150506131fa565b600080836001600160a01b0316631e83409a866040518263ffffffff1660e01b815260040161332f9190615074565b602060405180830381600087803b15801561334957600080fd5b505af115801561335d573d6000803e3d6000fd5b505050506040513d601f19601f820116820180604052508101906133819190614f98565b9150821561341857836001600160a01b031663fc0c546a6040518163ffffffff1660e01b8152600401602060405180830381600087803b1580156133c457600080fd5b505af11580156133d8573d6000803e3d6000fd5b505050506040513d601f19601f820116820180604052508101906133fc919061454d565b90506134136001600160a01b0382163330856125d6565b61341d565b600091505b935093915050565b6000806134328584613a8b565b905060008582600a811061344857613448615431565b60200201516001600160a01b031614156134895760405162461bcd60e51b8152602060048201526002602482015261333360f01b6044820152606401610671565b633b9aca008482600a81106134a0576134a0615431565b60200201516134af9088615388565b6134b99190615366565b9150818482600a81106134ce576134ce615431565b602002018181516134df91906153a7565b9052509095945050505050565b604051631d23139f60e11b815273b914c979af4392f69ea25a8b8b2c30a424a0a54190633a46273e9061352590859085906004016150a2565b600060405180830381600087803b15801561353f57600080fd5b505af1158015613553573d6000803e3d6000fd5b505050505050565b60008060008086156135e557859150849050806001600160a01b031663fc0c546a6040518163ffffffff1660e01b815260040160206040518083038186803b1580156135a657600080fd5b505afa1580156135ba573d6000803e3d6000fd5b505050506040513d601f19601f820116820180604052508101906135de919061454d565b94506135ff565b6135ed613efd565b6135f78787612b17565b519093509150505b6040516370a0823160e01b81526001600160a01b038616906370a082319061362b903090600401615074565b60206040518083038186803b15801561364357600080fd5b505afa158015613657573d6000803e3d6000fd5b505050506040513d601f19601f8201168201806040525081019061367b9190614f98565b60405163047c207560e31b8152600481018a9052306024820181905260448201526001600160a01b038381166064830152919550908316906323e103a890608401600060405180830381600087803b1580156136d657600080fd5b505af11580156136ea573d6000803e3d6000fd5b50506040516370a0823160e01b81528692506001600160a01b03881691506370a082319061371c903090600401615074565b60206040518083038186803b15801561373457600080fd5b505afa158015613748573d6000803e3d6000fd5b505050506040513d601f19601f8201168201806040525081019061376c9190614f98565b61377691906153a7565b989497509395505050505050565b8261379e5760006137958383612b17565b60200151935050505b6040516324d83b7960e01b815260048101859052602481018690526001600160a01b038316906324d83b7990604401600060405180830381600087803b1580156137e757600080fd5b505af1158015611292573d6000803e3d6000fd5b6000613850826040518060400160405280602081526020017f5361666545524332303a206c6f772d6c6576656c2063616c6c206661696c6564815250856001600160a01b0316613d469092919063ffffffff16565b8051909150156125d1578080602001905181019061386e9190614e11565b6125d15760405162461bcd60e51b815260206004820152602a60248201527f5361666545524332303a204552433230206f7065726174696f6e20646964206e6044820152691bdd081cdd58d8d9595960b21b6064820152608401610671565b600081846001600160a01b031663dd62ed3e30866040518363ffffffff1660e01b81526004016138fe929190615088565b60206040518083038186803b15801561391657600080fd5b505afa15801561392a573d6000803e3d6000fd5b505050506040513d601f19601f8201168201806040525081019061394e9190614f98565b613958919061534e565b905061260e8463095ea7b360e01b858460405160240161259a9291906150a2565b604051636eb1769f60e11b81526000906001600160a01b0385169063dd62ed3e906139aa9030908790600401615088565b60206040518083038186803b1580156139c257600080fd5b505afa1580156139d6573d6000803e3d6000fd5b505050506040513d601f19601f820116820180604052508101906139fa9190614f98565b905081811015613a5e5760405162461bcd60e51b815260206004820152602960248201527f5361666545524332303a2064656372656173656420616c6c6f77616e63652062604482015268656c6f77207a65726f60b81b6064820152608401610671565b60405182820390613a8490869063095ea7b360e01b9061259a90889086906024016150a2565b5050505050565b6000805b600a81108015613abf575060008482600a8110613aae57613aae615431565b60200201516001600160a01b031614155b15613b0d57826001600160a01b03168482600a8110613ae057613ae0615431565b60200201516001600160a01b03161415613afb579050613b10565b80613b05816153ea565b915050613a8f565b90505b92915050565b6001600160a01b03841660009081526035602052604081205460ff16613b7657603954613b52906001600160a01b0387811691166000196138cd565b6001600160a01b0385166000908152603560205260409020805460ff191660011790555b6039546040805160a08101825284815230602082015242818301526060810187905260808101869052905163c04b8d5960e01b81526001600160a01b039092169163c04b8d5991613bc9916004016151af565b602060405180830381600087803b158015613be357600080fd5b505af1158015613bf7573d6000803e3d6000fd5b505050506040513d601f19601f820116820180604052508101906131299190614f98565b6001600160a01b03831660009081526036602052604081205460ff16613c7b57603a54613c57906001600160a01b0386811691166000196138cd565b6001600160a01b0384166000908152603660205260409020805460ff191660011790555b603a5460405160009182916001600160a01b0390911690613c9d908690615058565b6000604051808303816000865af19150503d8060008114613cda576040519150601f19603f3d011682016040523d82523d6000602084013e613cdf565b606091505b509150915081613cf257613cf281613d5f565b80806020019051810190613d069190614f98565b925084831015613d3d5760405162461bcd60e51b8152602060048201526002602482015261313560f01b6044820152606401610671565b50509392505050565b6060613d558484600085613d9c565b90505b9392505050565b805115613d6e57805181602001fd5b60405162461bcd60e51b815260206004820152600360248201526231313760e81b6044820152606401610671565b606082471015613dfd5760405162461bcd60e51b815260206004820152602660248201527f416464726573733a20696e73756666696369656e742062616c616e636520666f6044820152651c8818d85b1b60d21b6064820152608401610671565b843b613e4b5760405162461bcd60e51b815260206004820152601d60248201527f416464726573733a2063616c6c20746f206e6f6e2d636f6e74726163740000006044820152606401610671565b600080866001600160a01b03168587604051613e679190615058565b60006040518083038185875af1925050503d8060008114613ea4576040519150601f19603f3d011682016040523d82523d6000602084013e613ea9565b606091505b5091509150613eb9828286613ec4565b979650505050505050565b60608315613ed3575081613d58565b825115613ee35782518084602001fd5b8160405162461bcd60e51b815260040161067191906150bb565b60408051608081018252600080825260208201819052918101829052606081019190915290565b604051806101400160405280600a906020820280368337509192915050565b8035613f4e8161545d565b919050565b60008083601f840112613f6557600080fd5b5081356001600160401b03811115613f7c57600080fd5b6020830191508360208260051b8501011115612bc257600080fd5b600082601f830112613fa857600080fd5b81356020613fbd613fb88361532b565b6152fb565b80838252828201915082860187848660051b8901011115613fdd57600080fd5b60005b85811015614005578135613ff38161545d565b84529284019290840190600101613fe0565b5090979650505050505050565b600082601f83011261402357600080fd5b81356020614033613fb88361532b565b80838252828201915082860187848660051b890101111561405357600080fd5b6000805b8681101561407f5782356009811061406d578283fd5b85529385019391850191600101614057565b509198975050505050505050565b600082601f83011261409e57600080fd5b813560206140ae613fb88361532b565b80838252828201915082860187848660051b89010111156140ce57600080fd5b60005b858110156140055781356001600160401b03808211156140f057600080fd5b90890190601f1960c0838d038201121561410957600080fd5b61411161526c565b8884013561411e8161545d565b815260408481013561412f8161545d565b828b01526060858101358284015260808601359083015260a08501358481111561415857600080fd5b8501603f81018f1361416957600080fd5b8a8101358581111561417d5761417d615447565b61418d8c86601f840116016152fb565b95508086528f838284010111156141a357600080fd5b808383018d88013760008c82880101525050508260808201526141c860c08501614413565b60a0820152875250505092840192908401906001016140d1565b600082601f8301126141f357600080fd5b81356020614203613fb88361532b565b8281528181019085830160e08086028801850189101561422257600080fd5b60005b8681101561407f5781838b03121561423c57600080fd5b614244615294565b833561424f8161545d565b81528387013561425e8161545d565b81880152604084810135908201526060808501359082015260808085013560ff8116811461428b57600080fd5b9082015260a0848101359082015260c0808501359082015285529385019391810191600101614225565b600082601f8301126142c657600080fd5b813560206142d6613fb88361532b565b80838252828201915082860187848660061b89010111156142f657600080fd5b6000805b8681101561407f57604080848c031215614312578283fd5b61431a6152b6565b84356143258161545d565b81528488013588820152865294860194909201916001016142fa565b600082601f83011261435257600080fd5b81356020614362613fb88361532b565b80838252828201915082860187848660051b890101111561438257600080fd5b60005b8581101561400557813584529284019290840190600101614385565b600082601f8301126143b257600080fd5b815160206143c2613fb88361532b565b80838252828201915082860187848660051b89010111156143e257600080fd5b60005b85811015614005576143f682614519565b845292840192908401906001016143e5565b8035613f4e81615475565b803560028110613f4e57600080fd5b6000610100828403121561443557600080fd5b61443d6152d8565b82519091506001600160401b038082111561445757600080fd5b614463858386016143a1565b8352602084015191508082111561447957600080fd5b614485858386016143a1565b6020840152604084015191508082111561449e57600080fd5b6144aa858386016143a1565b604084015260608401519150808211156144c357600080fd5b506144d0848285016143a1565b6060830152506144e260808301614519565b60808201526144f360a08301614519565b60a082015261450460c08301614519565b60c082015260e082015160e082015292915050565b80516001600160401b0381168114613f4e57600080fd5b60006020828403121561454257600080fd5b8135613b0d8161545d565b60006020828403121561455f57600080fd5b8151613b0d8161545d565b60008060006060848603121561457f57600080fd5b833561458a8161545d565b9250602084013561459a8161545d565b915060408401356145aa81615475565b809150509250925092565b600080604083850312156145c857600080fd5b82356145d38161545d565b946020939093013593505050565b600080600080600060a086880312156145f957600080fd5b85356146048161545d565b945060208601359350604086013561461b8161545d565b9250606086013561462b8161545d565b9150608086013561463b81615475565b809150509295509295909350565b600080600080600080600060e0888a03121561466457600080fd5b61466d88613f43565b96506020880135955060408801356001600160401b038082111561469057600080fd5b61469c8b838c01613f97565b965060608a01359150808211156146b257600080fd5b6146be8b838c01614341565b95506146cc60808b01614408565b945060a08a01359150808211156146e257600080fd5b6146ee8b838c01613f97565b935060c08a013591508082111561470457600080fd5b506147118a828b01613f97565b91505092959891949750929550565b600080600080600080600060e0888a03121561473b57600080fd5b87356147468161545d565b965060208801359550604088013561475d81615475565b9450606088013561476d8161545d565b9350608088013561477d8161545d565b925060a088013561478d8161545d565b915060c088013561479d8161545d565b8091505092959891949750929550565b600080600080600080600060e0888a0312156147c857600080fd5b87356147d38161545d565b96506020880135955060408801359450606088013561476d81615475565b600080600080600080600080610100898b03121561480e57600080fd5b88356148198161545d565b97506020890135965060408901359550606089013594506080890135935060a089013561484581615475565b925060c08901356148558161545d565b915060e08901356148658161545d565b809150509295985092959890939650565b600080600080600080600080600060e08a8c03121561489457600080fd5b893561489f8161545d565b985060208a01356148af8161545d565b975060408a01356148bf8161545d565b965060608a01356148cf8161545d565b955060808a01356148df8161545d565b945060a08a01356001600160401b03808211156148fb57600080fd5b6149078d838e01613f53565b909650945060c08c013591508082111561492057600080fd5b5061492d8c828d01613f53565b915080935050809150509295985092959850929598565b60008060006060848603121561495957600080fd5b83356149648161545d565b925060208401356149748161545d565b929592945050506040919091013590565b6000806000806080858703121561499b57600080fd5b84356149a68161545d565b935060208501356001600160401b03808211156149c257600080fd5b6149ce88838901613f97565b945060408701359150808211156149e457600080fd5b6149f088838901614341565b93506060870135915080821115614a0657600080fd5b50614a1387828801613f97565b91505092959194509250565b600080600080600060a08688031215614a3757600080fd5b8535614a428161545d565b945060208601356001600160401b0380821115614a5e57600080fd5b614a6a89838a01613f97565b95506040880135915080821115614a8057600080fd5b614a8c89838a01614341565b94506060880135915080821115614aa257600080fd5b614aae89838a01613f97565b93506080880135915080821115614ac457600080fd5b50614ad188828901613f97565b9150509295509295909350565b60008060408385031215614af157600080fd5b8235614afc8161545d565b91506020830135614b0c81615475565b809150509250929050565b60008060008060808587031215614b2d57600080fd5b8435614b388161545d565b9350602085013592506040850135614b4f8161545d565b91506060850135614b5f8161545d565b939692955090935050565b60008060008060008060c08789031215614b8357600080fd5b8635614b8e8161545d565b9550602087013594506040870135614ba58161545d565b93506060870135614bb58161545d565b92506080870135614bc58161545d565b915060a0870135614bd58161545d565b809150509295509295509295565b600080600080600060a08688031215614bfb57600080fd5b8535614c068161545d565b9450602086013593506040860135614c1d8161545d565b92506060860135614c2d81615475565b9150608086013561463b8161545d565b600080600080600060a08688031215614c5557600080fd5b8535614c608161545d565b945060208601359350604086013592506060860135614c2d8161545d565b60008060008060008060c08789031215614c9757600080fd5b8635614ca28161545d565b955060208701359450604087013593506060870135614bb58161545d565b60008060008060008060608789031215614cd957600080fd5b86356001600160401b0380821115614cf057600080fd5b614cfc8a838b01613f53565b90985096506020890135915080821115614d1557600080fd5b614d218a838b01613f53565b90965094506040890135915080821115614d3a57600080fd5b50614d4789828a01613f53565b979a9699509497509295939492505050565b60008060008060008060a08789031215614d7257600080fd5b86356001600160401b0380821115614d8957600080fd5b614d958a838b016141e2565b97506020890135915080821115614dab57600080fd5b614db78a838b016142b5565b96506040890135915080821115614dcd57600080fd5b614dd98a838b0161408d565b95506060890135915080821115614def57600080fd5b614dfb8a838b01614012565b94506080890135915080821115614d3a57600080fd5b600060208284031215614e2357600080fd5b8151613b0d81615475565b6000806000806000806000806000898b03610200811215614e4e57600080fd5b8a51614e598161545d565b60208c0151909a50614e6a8161545d565b60408c0151909950614e7b8161545d565b60608c0151909850614e8c8161545d565b8097505060808b0151955060a08b0151945060c08b015193506101008060df1983011215614eb957600080fd5b614ec16152d8565b60e08d01518152908c015160208201526101208c015160408201526101408c015160608201529050614ef66101608c01614519565b6080820152614f086101808c01614519565b60a0820152614f1a6101a08c01614519565b60c0820152614f2c6101c08c01614519565b60e08201526101e08b01519092506001600160401b03811115614f4e57600080fd5b614f5a8c828d01614422565b9150509295985092959850929598565b60008060408385031215614f7d57600080fd5b8235614f888161545d565b91506020830135614b0c8161545d565b600060208284031215614faa57600080fd5b5051919050565b600080600080600060a08688031215614fc957600080fd5b853594506020860135614fdb81615475565b93506040860135614feb8161545d565b92506060860135614c2d8161545d565b600080600080600060a0868803121561501357600080fd5b85359450602086013593506040860135614feb81615475565b600081518084526150448160208601602086016153be565b601f01601f19169290920160200192915050565b6000825161506a8184602087016153be565b9190910192915050565b6001600160a01b0391909116815260200190565b6001600160a01b0392831681529116602082015260400190565b6001600160a01b03929092168252602082015260400190565b602081526000613d58602083018461502c565b6020808252600190820152600360fc1b604082015260600190565b6020808252600390820152620c4c0d60ea1b604082015260600190565b602080825260029082015261343960f01b604082015260600190565b60208082526003908201526231313560e81b604082015260600190565b6020808252600390820152620c4c4d60ea1b604082015260600190565b602080825260029082015261032360f41b604082015260600190565b6020808252601f908201527f5265656e7472616e637947756172643a207265656e7472616e742063616c6c00604082015260600190565b602081526000825160a060208401526151cb60c084018261502c565b905060018060a01b0360208501511660408401526040840151606084015260608401516080840152608084015160a08401528091505092915050565b9283526001600160a01b03918216602084015216604082015260600190565b6000808335601e1984360301811261523d57600080fd5b8301803591506001600160401b0382111561525757600080fd5b602001915036819003821315612bc257600080fd5b60405160c081016001600160401b038111828210171561528e5761528e615447565b60405290565b60405160e081016001600160401b038111828210171561528e5761528e615447565b604080519081016001600160401b038111828210171561528e5761528e615447565b60405161010081016001600160401b038111828210171561528e5761528e615447565b604051601f8201601f191681016001600160401b038111828210171561532357615323615447565b604052919050565b60006001600160401b0382111561534457615344615447565b5060051b60200190565b6000821982111561536157615361615405565b500190565b60008261538357634e487b7160e01b600052601260045260246000fd5b500490565b60008160001904831182151516156153a2576153a2615405565b500290565b6000828210156153b9576153b9615405565b500390565b60005b838110156153d95781810151838201526020016153c1565b8381111561260e5750506000910152565b60006000198214156153fe576153fe615405565b5060010190565b634e487b7160e01b600052601160045260246000fd5b634e487b7160e01b600052602160045260246000fd5b634e487b7160e01b600052603260045260246000fd5b634e487b7160e01b600052604160045260246000fd5b6001600160a01b038116811461547257600080fd5b50565b801515811461547257600080fdfe000000000000000000000000348f985b6c031686f274401e98e135137f8a4f88b3c6ea40376b764923443dc6ded6f0af1b34f1109e2d22c4f499855d960eeeaea264697066735822122040aada3e6e2b31b9ce13ccd6f4c2a1cf7e4ee286aad9635daabaaf0ad2a9103c64736f6c63430008070033"
}