{
  "address": "0xA774868dE60f3a76e165ca100cF56C1B8C9fc2fb",
  "abi": [
    {
      "name": "CommitAdmin",
      "inputs": [
        {
          "name": "admin",
          "type": "address",
          "indexed": false
        }
      ],
      "anonymous": false,
      "type": "event"
    },
    {
      "name": "ApplyAdmin",
      "inputs": [
        {
          "name": "admin",
          "type": "address",
          "indexed": false
        }
      ],
      "anonymous": false,
      "type": "event"
    },
    {
      "name": "ToggleAllowCheckpointToken",
      "inputs": [
        {
          "name": "toggle_flag",
          "type": "bool",
          "indexed": false
        }
      ],
      "anonymous": false,
      "type": "event"
    },
    {
      "name": "CheckpointToken",
      "inputs": [
        {
          "name": "time",
          "type": "uint256",
          "indexed": false
        },
        {
          "name": "tokens",
          "type": "uint256",
          "indexed": false
        }
      ],
      "anonymous": false,
      "type": "event"
    },
    {
      "name": "Claimed",
      "inputs": [
        {
          "name": "recipient",
          "type": "address",
          "indexed": true
        },
        {
          "name": "amount",
          "type": "uint256",
          "indexed": false
        },
        {
          "name": "claim_epoch",
          "type": "uint256",
          "indexed": false
        },
        {
          "name": "max_epoch",
          "type": "uint256",
          "indexed": false
        }
      ],
      "anonymous": false,
      "type": "event"
    },
    {
      "stateMutability": "nonpayable",
      "type": "constructor",
      "inputs": [
        {
          "name": "_voting_escrow",
          "type": "address"
        },
        {
          "name": "_start_time",
          "type": "uint256"
        },
        {
          "name": "_token",
          "type": "address"
        },
        {
          "name": "_admin",
          "type": "address"
        },
        {
          "name": "_emergency_return",
          "type": "address"
        }
      ],
      "outputs": []
    },
    {
      "stateMutability": "nonpayable",
      "type": "function",
      "name": "checkpoint_token",
      "inputs": [],
      "outputs": []
    },
    {
      "stateMutability": "view",
      "type": "function",
      "name": "ve_for_at",
      "inputs": [
        {
          "name": "_user",
          "type": "address"
        },
        {
          "name": "_timestamp",
          "type": "uint256"
        }
      ],
      "outputs": [
        {
          "name": "",
          "type": "uint256"
        }
      ]
    },
    {
      "stateMutability": "nonpayable",
      "type": "function",
      "name": "checkpoint_total_supply",
      "inputs": [],
      "outputs": []
    },
    {
      "stateMutability": "nonpayable",
      "type": "function",
      "name": "claim",
      "inputs": [],
      "outputs": [
        {
          "name": "",
          "type": "uint256"
        }
      ]
    },
    {
      "stateMutability": "nonpayable",
      "type": "function",
      "name": "claim",
      "inputs": [
        {
          "name": "_addr",
          "type": "address"
        }
      ],
      "outputs": [
        {
          "name": "",
          "type": "uint256"
        }
      ]
    },
    {
      "stateMutability": "nonpayable",
      "type": "function",
      "name": "claim_many",
      "inputs": [
        {
          "name": "_receivers",
          "type": "address[20]"
        }
      ],
      "outputs": [
        {
          "name": "",
          "type": "bool"
        }
      ]
    },
    {
      "stateMutability": "nonpayable",
      "type": "function",
      "name": "burn",
      "inputs": [
        {
          "name": "_coin",
          "type": "address"
        }
      ],
      "outputs": [
        {
          "name": "",
          "type": "bool"
        }
      ]
    },
    {
      "stateMutability": "nonpayable",
      "type": "function",
      "name": "commit_admin",
      "inputs": [
        {
          "name": "_addr",
          "type": "address"
        }
      ],
      "outputs": []
    },
    {
      "stateMutability": "nonpayable",
      "type": "function",
      "name": "accept_admin",
      "inputs": [],
      "outputs": []
    },
    {
      "stateMutability": "nonpayable",
      "type": "function",
      "name": "toggle_allow_checkpoint_token",
      "inputs": [],
      "outputs": []
    },
    {
      "stateMutability": "nonpayable",
      "type": "function",
      "name": "kill_me",
      "inputs": [],
      "outputs": []
    },
    {
      "stateMutability": "nonpayable",
      "type": "function",
      "name": "recover_balance",
      "inputs": [
        {
          "name": "_coin",
          "type": "address"
        }
      ],
      "outputs": [
        {
          "name": "",
          "type": "bool"
        }
      ]
    },
    {
      "stateMutability": "view",
      "type": "function",
      "name": "start_time",
      "inputs": [],
      "outputs": [
        {
          "name": "",
          "type": "uint256"
        }
      ]
    },
    {
      "stateMutability": "view",
      "type": "function",
      "name": "time_cursor",
      "inputs": [],
      "outputs": [
        {
          "name": "",
          "type": "uint256"
        }
      ]
    },
    {
      "stateMutability": "view",
      "type": "function",
      "name": "time_cursor_of",
      "inputs": [
        {
          "name": "arg0",
          "type": "address"
        }
      ],
      "outputs": [
        {
          "name": "",
          "type": "uint256"
        }
      ]
    },
    {
      "stateMutability": "view",
      "type": "function",
      "name": "user_epoch_of",
      "inputs": [
        {
          "name": "arg0",
          "type": "address"
        }
      ],
      "outputs": [
        {
          "name": "",
          "type": "uint256"
        }
      ]
    },
    {
      "stateMutability": "view",
      "type": "function",
      "name": "last_token_time",
      "inputs": [],
      "outputs": [
        {
          "name": "",
          "type": "uint256"
        }
      ]
    },
    {
      "stateMutability": "view",
      "type": "function",
      "name": "tokens_per_week",
      "inputs": [
        {
          "name": "arg0",
          "type": "uint256"
        }
      ],
      "outputs": [
        {
          "name": "",
          "type": "uint256"
        }
      ]
    },
    {
      "stateMutability": "view",
      "type": "function",
      "name": "voting_escrow",
      "inputs": [],
      "outputs": [
        {
          "name": "",
          "type": "address"
        }
      ]
    },
    {
      "stateMutability": "view",
      "type": "function",
      "name": "token",
      "inputs": [],
      "outputs": [
        {
          "name": "",
          "type": "address"
        }
      ]
    },
    {
      "stateMutability": "view",
      "type": "function",
      "name": "total_received",
      "inputs": [],
      "outputs": [
        {
          "name": "",
          "type": "uint256"
        }
      ]
    },
    {
      "stateMutability": "view",
      "type": "function",
      "name": "token_last_balance",
      "inputs": [],
      "outputs": [
        {
          "name": "",
          "type": "uint256"
        }
      ]
    },
    {
      "stateMutability": "view",
      "type": "function",
      "name": "ve_supply",
      "inputs": [
        {
          "name": "arg0",
          "type": "uint256"
        }
      ],
      "outputs": [
        {
          "name": "",
          "type": "uint256"
        }
      ]
    },
    {
      "stateMutability": "view",
      "type": "function",
      "name": "admin",
      "inputs": [],
      "outputs": [
        {
          "name": "",
          "type": "address"
        }
      ]
    },
    {
      "stateMutability": "view",
      "type": "function",
      "name": "future_admin",
      "inputs": [],
      "outputs": [
        {
          "name": "",
          "type": "address"
        }
      ]
    },
    {
      "stateMutability": "view",
      "type": "function",
      "name": "can_checkpoint_token",
      "inputs": [],
      "outputs": [
        {
          "name": "",
          "type": "bool"
        }
      ]
    },
    {
      "stateMutability": "view",
      "type": "function",
      "name": "emergency_return",
      "inputs": [],
      "outputs": [
        {
          "name": "",
          "type": "address"
        }
      ]
    },
    {
      "stateMutability": "view",
      "type": "function",
      "name": "is_killed",
      "inputs": [],
      "outputs": [
        {
          "name": "",
          "type": "bool"
        }
      ]
    }
  ],
  "transactionHash": "0x77c518db8b0366afdc4174df4c00d8a205b9f0ece609f0934ec624e9a3af9ae9",
  "args": [
    "0xB914C979Af4392f69EA25A8b8b2C30a424A0A541",
    1646226774,
    "0xACeCe481c7EdE9D34d7587Bd93a867964DC8236C",
    "0x8A97FBD532A5C1eD67fd67c11dD76013abAc840e",
    "0x8A97FBD532A5C1eD67fd67c11dD76013abAc840e"
  ],
  "bytecode": "0x6020611ad76080396080518060a01c611ad25760e05260206040611ad7016080396080518060a01c611ad2576101005260206060611ad7016080396080518060a01c611ad2576101205260206080611ad7016080396080518060a01c611ad25761014052600060e05114611ad25760006101005114611ad25760006101205114611ad25760006101405114611ad25760206020611ad701608039608051610e1080820490509050610e10808202821582848304141715611ad25790509050610160526101605160015561016051600555610160516002556101005166038d7ea4c680075560e05166038d7ea4c68006556101205166071afd498d000a556101405166071afd498d000d55611aba56600436101561000d57610d4c565b60046000601c37600051346119a75763811a40fe81186100795766071afd498d000a54331861003d57600161006a565b66071afd498d000c5461005157600061006a565b6005546101f481818301106119a7578082019050905042115b156119a757610077610d52565b005b63ace296fb8118610207576004358060a01c6119a7576103005266038d7ea4c68006546103205263010ae7576103605261030051610380526020610360602461037c610320515afa6100d0573d600060003e3d6000fd5b601f3d11156119a75761036051610340526103205160e052610300516101005260243561012052610340516101405261010a610380611179565b61038051610360526328d09d4761040052610300516104205261036051610440526080610400604461041c610320515afa61014a573d600060003e3d6000fd5b607f3d11156119a75761040080518060801d81607f1d186119a7576103805260208101518060801d81607f1d186119a7576103a05260408101516103c05260608101516103e05250610380516103a0516024356103c0518082106119a7578082039050905080607f1c6119a7578082028060801d81607f1d186119a757905090508082038060801d81607f1d186119a7579050905060008082126101ee57816101f0565b805b90509050600081126119a757610400526020610400f35b63b21ed502811861021c5761021a6112aa565b005b634e71d92d811861023157336105c05261024c565b631e83409a81186103af576004358060a01c6119a7576105c0525b6000546119a757600160005566071afd498d000e546119a7576002544210610276576102766112aa565b6005546105e05266071afd498d000c546102915760006102ab565b6105e0516101f481818301106119a7578082019050905042115b156102be576102b8610d52565b426105e0525b6105e051610e1080820490509050610e108082028215828483041417156119a757905090506105e0526105c0516103005266038d7ea4c6800654610320526105e0516103405261030f6106206114b1565b61062051610600526000610600511461039b5766038d7ea4c68007546106205263a9059cbb610640526105c0516106605261060051610680526020610640604461065c6000610620515af1610369573d600060003e3d6000fd5b601f3d11156119a75761064051156119a75766038d7ea4c680098054610600518082106119a757808203905090508155505b610600516106205260206106206000600055f35b637b935a2381186106c4576004358060a01c6119a7576105c0526024358060a01c6119a7576105e0526044358060a01c6119a757610600526064358060a01c6119a757610620526084358060a01c6119a7576106405260a4358060a01c6119a7576106605260c4358060a01c6119a7576106805260e4358060a01c6119a7576106a052610104358060a01c6119a7576106c052610124358060a01c6119a7576106e052610144358060a01c6119a75761070052610164358060a01c6119a75761072052610184358060a01c6119a757610740526101a4358060a01c6119a757610760526101c4358060a01c6119a757610780526101e4358060a01c6119a7576107a052610204358060a01c6119a7576107c052610224358060a01c6119a7576107e052610244358060a01c6119a75761080052610264358060a01c6119a757610820526000546119a757600160005566071afd498d000e546119a757600254421061051c5761051c6112aa565b6005546108405266071afd498d000c54610537576000610551565b610840516101f481818301106119a7578082019050905042115b156105645761055e610d52565b42610840525b61084051610e1080820490509050610e108082028215828483041417156119a757905090506108405266038d7ea4c68006546108605266038d7ea4c68007546108805260006108a0526108e060006014818352015b60206108e051026105c001516108c0526108c0516105d657610685565b6108c05161030052610860516103205261084051610340526105f96109206114b1565b6109205161090052600061090051146106755763a9059cbb610920526108c0516109405261090051610960526020610920604461093c6000610880515af1610646573d600060003e3d6000fd5b601f3d11156119a75761092051156119a7576108a080516109005181818301106119a757808201905090508152505b81516001018083528114156105b9575b505060006108a051146106b25766038d7ea4c6800980546108a0518082106119a757808203905090508155505b60016108c05260206108c06000600055f35b6389afcb4481186107d6576004358060a01c6119a7576101e05266038d7ea4c68007546101e051186119a75766071afd498d000e546119a7576370a082316102205233610240526020610220602461023c6101e0515afa61072a573d600060003e3d6000fd5b601f3d11156119a7576102205161020052600061020051146107c9576323b872dd610220523361024052306102605261020051610280526020610220606461023c60006101e0515af1610782573d600060003e3d6000fd5b601f3d11156119a7576102205066071afd498d000c546107a35760006107bc565b6005546101f481818301106119a7578082019050905042115b156107c9576107c9610d52565b6001610220526020610220f35b63b1d3db758118610844576004358060a01c6119a75760e05266071afd498d000a5433186119a757600060e051146119a75760e05166071afd498d000b557f59a407284ae6e2986675fa1400d6498af928ed01f4fd2dd6be4a2a8b4fc35b3460e051610100526020610100a1005b63e1593b1381186108a05766071afd498d000b5460e05260e05133186119a75760e05166071afd498d000a557f756f845176805c8ebf249854e909627308157f63c96e470e44a9e8549ba6fb1e60e051610100526020610100a1005b632121bfc381186109035766071afd498d000a5433186119a75766071afd498d000c541560e05260e05166071afd498d000c557fdbe6ac1081ebd8e648718341126659456f4009fcadfe1c23f66f5e61522610b260e051610100526020610100a1005b63e369885381186109bb5766071afd498d000a5433186119a757600166071afd498d000e5566038d7ea4c680075460e05263a9059cbb6101405266071afd498d000d54610160526370a082316101005230610120526020610100602461011c60e0515afa610976573d600060003e3d6000fd5b601f3d11156119a75761010051610180526020610140604461015c600060e0515af16109a7573d600060003e3d6000fd5b601f3d11156119a75761014051156119a757005b63db2f5f798118610b36576004358060a01c6119a75760e05266071afd498d000a5433186119a75766038d7ea4c680075460e051146119a7576370a082316101205230610140526020610120602461013c60e0515afa610a20573d600060003e3d6000fd5b601f3d11156119a757610120516101005260006004610160527fa9059cbb00000000000000000000000000000000000000000000000000000000610180526101606004806020846101a00101826020850160045afa50508051820191505066071afd498d000d546020826101a0010152602081019050610100516020826101a0010152602081019050806101a0526101a0505060206102406101a0516101c0600060e0515af1610ad5573d600060003e3d6000fd5b61022060203d808211610ae85781610aea565b805b905090508152805160200180610120828460045afa9050505060006101205114610b2957610140516101205181816020036008021c90509050156119a7575b6001610160526020610160f35b63834ee4178118610b4d5760015460e052602060e0f35b63127dcbd38118610b645760025460e052602060e0f35b632a2a314b8118610b99576004358060a01c6119a75760e052600360e05160a052608052604060802054610100526020610100f35b63d5d46e888118610bce576004358060a01c6119a75760e052600460e05160a052608052604060802054610100526020610100f35b637f58e8f88118610be55760055460e052602060e0f35b63edf599978118610c1257600160043566038d7ea4c680008110156119a757026006015460e052602060e0f35b63dfe050318118610c2f5766038d7ea4c680065460e052602060e0f35b63fc0c546a8118610c4c5766038d7ea4c680075460e052602060e0f35b632f0c222e8118610c695766038d7ea4c680085460e052602060e0f35b6322b04bfc8118610c865766038d7ea4c680095460e052602060e0f35b63d4dafba88118610cb957600160043566038d7ea4c680008110156119a7570266038d7ea4c6800a015460e052602060e0f35b63f851a4408118610cd65766071afd498d000a5460e052602060e0f35b6317f7182a8118610cf35766071afd498d000b5460e052602060e0f35b63aeba47378118610d105766071afd498d000c5460e052602060e0f35b632c3f531e8118610d2d5766071afd498d000d5460e052602060e0f35b639c868ac08118610d4a5766071afd498d000e5460e052602060e0f35b505b60006000fd5b6370a082316101005230610120526020610100602461011c66038d7ea4c68007545afa610d84573d600060003e3d6000fd5b601f3d11156119a7576101005160e05260e05166038d7ea4c68009548082106119a757808203905090506101005260e05166038d7ea4c68009556005546101205242610120518082106119a75780820390509050610140524260055561012051610e1080820490509050610e108082028215828483041417156119a75790509050610160526000610180526101a060006014818352015b61016051610e1081818301106119a7578082019050905061018052610180514210610f07576101405115610e50576000610e5a565b6101205161018051145b610ed05760016101605166038d7ea4c680008110156119a7570260060180546101005161018051610120518082106119a757808203905090508082028215828483041417156119a75790509050610140518080156119a75782049050905081818301106119a75780820190509050815550610fc8565b60016101605166038d7ea4c680008110156119a7570260060180546101005181818301106119a75780820190509050815550610fc8565b6101405115610f17576000610f1e565b6101205142145b610f915760016101605166038d7ea4c680008110156119a7570260060180546101005142610120518082106119a757808203905090508082028215828483041417156119a75790509050610140518080156119a75782049050905081818301106119a75780820190509050815550610fe8565b60016101605166038d7ea4c680008110156119a7570260060180546101005181818301106119a75780820190509050815550610fe8565b610180516101205261018051610160528151600101808352811415610e1b575b50507fce749457b74e10f393f2c6b1ce4261b78791376db5a3f501477a809f03f500d6426101a052610100516101c05260406101a0a1565b60006101205263900cf0cf610160526020610160600461017c60e0515afa61104d573d600060003e3d6000fd5b601f3d11156119a757610160516101405261016060006080818352015b61014051610120511061107c5761116e565b610120516101405181818301106119a75780820190509050600281818301106119a757808201905090506002808204905090506101805263d1febfb96102205261018051610240526080610220602461023c60e0515afa6110e2573d600060003e3d6000fd5b607f3d11156119a75761022080518060801d81607f1d186119a7576101a05260208101518060801d81607f1d186119a7576101c05260408101516101e05260608101516102005250610100516101e0511115611155576101805160018082106119a757808203905090506101405261115e565b61018051610120525b815160010180835281141561106a575b505061012051815250565b60006101605261014051610180526101a060006080818352015b6101805161016051106111a55761129f565b610160516101805181818301106119a75780820190509050600281818301106119a757808201905090506002808204905090506101c0526328d09d476102605261010051610280526101c0516102a0526080610260604461027c60e0515afa611213573d600060003e3d6000fd5b607f3d11156119a75761026080518060801d81607f1d186119a7576101e05260208101518060801d81607f1d186119a757610200526040810151610220526060810151610240525061012051610220511115611286576101c05160018082106119a757808203905090506101805261128f565b6101c051610160525b8151600101808352811415611193575b505061016051815250565b66038d7ea4c68006546102c0526002546102e05242610e1080820490509050610e108082028215828483041417156119a757905090506103005263c2c4c5c1610320526102c0513b156119a75760006000600461033c60006102c0515af1611317573d600060003e3d6000fd5b61032060006014818352015b610300516102e051116114a6576102c05160e0526102e0516101005261134a610360611020565b610360516103405263d1febfb96103e052610340516104005260806103e060246103fc6102c0515afa611382573d600060003e3d6000fd5b607f3d11156119a7576103e080518060801d81607f1d186119a7576103605260208101518060801d81607f1d186119a7576103805260408101516103a05260608101516103c0525060006103e0526103a0516102e0511115611401576102e0516103a0518082106119a7578082039050905080607f1c6119a7576103e0525b61036051610380516103e0518082028060801d81607f1d186119a757905090508082038060801d81607f1d186119a7579050905060008082126114445781611446565b805b90509050600081126119a75760016102e05166038d7ea4c680008110156119a7570266038d7ea4c6800a015561147b566114a6565b6102e08051610e1081818301106119a757808201905090508152508151600101808352811415611323575b50506102e051600255565b6040366103603763010ae7576103c052610300516103e05260206103c060246103dc610320515afa6114e8573d600060003e3d6000fd5b601f3d11156119a7576103c0516103a0526001546103c0526103a0516115125760008152506119a5565b60036103005160a0526080526040608020546103e0526103e0511561154c5760046103005160a0526080526040608020546103605261157f565b6103205160e05261030051610100526103c051610120526103a05161014052611576610400611179565b61040051610360525b6103605161158e576001610360525b6328d09d4761048052610300516104a052610360516104c0526080610480604461049c610320515afa6115c6573d600060003e3d6000fd5b607f3d11156119a75761048080518060801d81607f1d186119a7576104005260208101518060801d81607f1d186119a75761042052604081015161044052606081015161046052506103e0516116635761044051610e1081818301106119a7578082019050905060018082106119a75780820390509050610e1080820490509050610e108082028215828483041417156119a757905090506103e0525b610340516103e0511061167a5760008152506119a5565b6103c0516103e0511015611691576103c0516103e0525b6080366104803761050060006032818352015b610340516103e051106116b6576118fd565b610440516103e05110156116cb5760006116d6565b6103a0516103605111155b611819576103e0516104c0518082106119a7578082039050905080607f1c6119a7576105205261048051610520516104a0518082028060801d81607f1d186119a757905090508082038060801d81607f1d186119a75790509050600080821261173f5781611741565b805b90509050600081126119a75761054052610540511561176157600061176b565b6103a05161036051115b15611775576118fd565b60006105405111156117f95761038080516105405160016103e05166038d7ea4c680008110156119a75702600601548082028215828483041417156119a7579050905060016103e05166038d7ea4c680008110156119a7570266038d7ea4c6800a01548080156119a75782049050905081818301106119a757808201905090508152505b6103e08051610e1081818301106119a757808201905090508152506118ed565b6103608051600181818301106119a757808201905090508152506104005161048052610420516104a052610440516104c052610460516104e0526103a05161036051116118e5576328d09d4761052052610300516105405261036051610560526080610520604461053c610320515afa611898573d600060003e3d6000fd5b607f3d11156119a75761052080518060801d81607f1d186119a7576104005260208101518060801d81607f1d186119a75761042052604081015161044052606081015161046052506118ed565b608036610400375b81516001018083528114156116a4575b50506103a0516103605160018082106119a757808203905090508082116119245781611926565b805b90509050610360526103605160046103005160a0526080526040608020556103e05160036103005160a052608052604060802055610300517f9cdcf2f7714cca3508c7f0110b04a90a80a3a8dd0e35de99689db74d28c5383e610380516105005261036051610520526103a051610540526060610500a2610380518152505b565b600080fd5b61010e611aba0361010e60003961010e611aba036000f35b600080fd"
}