{
  "address": "0xe89C8c9b69A171d8f630BC44115E564eC2955058",
  "abi": [
    {
      "name": "CommitOwnership",
      "inputs": [
        {
          "name": "admin",
          "type": "address",
          "indexed": false
        }
      ],
      "anonymous": false,
      "type": "event"
    },
    {
      "name": "ApplyOwnership",
      "inputs": [
        {
          "name": "admin",
          "type": "address",
          "indexed": false
        }
      ],
      "anonymous": false,
      "type": "event"
    },
    {
      "name": "AddType",
      "inputs": [
        {
          "name": "name",
          "type": "string",
          "indexed": false
        },
        {
          "name": "type_id",
          "type": "int128",
          "indexed": false
        }
      ],
      "anonymous": false,
      "type": "event"
    },
    {
      "name": "NewTypeWeight",
      "inputs": [
        {
          "name": "type_id",
          "type": "int128",
          "indexed": false
        },
        {
          "name": "time",
          "type": "uint256",
          "indexed": false
        },
        {
          "name": "weight",
          "type": "uint256",
          "indexed": false
        },
        {
          "name": "total_weight",
          "type": "uint256",
          "indexed": false
        }
      ],
      "anonymous": false,
      "type": "event"
    },
    {
      "name": "NewGaugeWeight",
      "inputs": [
        {
          "name": "gauge_address",
          "type": "address",
          "indexed": false
        },
        {
          "name": "time",
          "type": "uint256",
          "indexed": false
        },
        {
          "name": "weight",
          "type": "uint256",
          "indexed": false
        },
        {
          "name": "total_weight",
          "type": "uint256",
          "indexed": false
        }
      ],
      "anonymous": false,
      "type": "event"
    },
    {
      "name": "VoteForGauge",
      "inputs": [
        {
          "name": "time",
          "type": "uint256",
          "indexed": false
        },
        {
          "name": "user",
          "type": "address",
          "indexed": false
        },
        {
          "name": "gauge_addr",
          "type": "address",
          "indexed": false
        },
        {
          "name": "weight",
          "type": "uint256",
          "indexed": false
        }
      ],
      "anonymous": false,
      "type": "event"
    },
    {
      "name": "NewGauge",
      "inputs": [
        {
          "name": "addr",
          "type": "address",
          "indexed": false
        },
        {
          "name": "gauge_type",
          "type": "int128",
          "indexed": false
        },
        {
          "name": "weight",
          "type": "uint256",
          "indexed": false
        }
      ],
      "anonymous": false,
      "type": "event"
    },
    {
      "name": "KilledGauge",
      "inputs": [
        {
          "name": "addr",
          "type": "address",
          "indexed": false
        }
      ],
      "anonymous": false,
      "type": "event"
    },
    {
      "stateMutability": "nonpayable",
      "type": "constructor",
      "inputs": [
        {
          "name": "_token",
          "type": "address"
        },
        {
          "name": "_voting_escrow",
          "type": "address"
        },
        {
          "name": "_admin",
          "type": "address"
        }
      ],
      "outputs": []
    },
    {
      "stateMutability": "nonpayable",
      "type": "function",
      "name": "commit_transfer_ownership",
      "inputs": [
        {
          "name": "addr",
          "type": "address"
        }
      ],
      "outputs": []
    },
    {
      "stateMutability": "nonpayable",
      "type": "function",
      "name": "accept_transfer_ownership",
      "inputs": [],
      "outputs": []
    },
    {
      "stateMutability": "view",
      "type": "function",
      "name": "gauge_types",
      "inputs": [
        {
          "name": "_addr",
          "type": "address"
        }
      ],
      "outputs": [
        {
          "name": "",
          "type": "int128"
        }
      ]
    },
    {
      "stateMutability": "nonpayable",
      "type": "function",
      "name": "add_gauge",
      "inputs": [
        {
          "name": "addr",
          "type": "address"
        },
        {
          "name": "gauge_type",
          "type": "int128"
        }
      ],
      "outputs": []
    },
    {
      "stateMutability": "nonpayable",
      "type": "function",
      "name": "add_gauge",
      "inputs": [
        {
          "name": "addr",
          "type": "address"
        },
        {
          "name": "gauge_type",
          "type": "int128"
        },
        {
          "name": "weight",
          "type": "uint256"
        }
      ],
      "outputs": []
    },
    {
      "stateMutability": "nonpayable",
      "type": "function",
      "name": "checkpoint",
      "inputs": [],
      "outputs": []
    },
    {
      "stateMutability": "nonpayable",
      "type": "function",
      "name": "checkpoint_gauge",
      "inputs": [
        {
          "name": "addr",
          "type": "address"
        }
      ],
      "outputs": []
    },
    {
      "stateMutability": "view",
      "type": "function",
      "name": "gauge_relative_weight",
      "inputs": [
        {
          "name": "addr",
          "type": "address"
        }
      ],
      "outputs": [
        {
          "name": "",
          "type": "uint256"
        }
      ]
    },
    {
      "stateMutability": "view",
      "type": "function",
      "name": "gauge_relative_weight",
      "inputs": [
        {
          "name": "addr",
          "type": "address"
        },
        {
          "name": "time",
          "type": "uint256"
        }
      ],
      "outputs": [
        {
          "name": "",
          "type": "uint256"
        }
      ]
    },
    {
      "stateMutability": "nonpayable",
      "type": "function",
      "name": "gauge_relative_weight_write",
      "inputs": [
        {
          "name": "addr",
          "type": "address"
        }
      ],
      "outputs": [
        {
          "name": "",
          "type": "uint256"
        }
      ]
    },
    {
      "stateMutability": "nonpayable",
      "type": "function",
      "name": "gauge_relative_weight_write",
      "inputs": [
        {
          "name": "addr",
          "type": "address"
        },
        {
          "name": "time",
          "type": "uint256"
        }
      ],
      "outputs": [
        {
          "name": "",
          "type": "uint256"
        }
      ]
    },
    {
      "stateMutability": "nonpayable",
      "type": "function",
      "name": "add_type",
      "inputs": [
        {
          "name": "_name",
          "type": "string"
        }
      ],
      "outputs": []
    },
    {
      "stateMutability": "nonpayable",
      "type": "function",
      "name": "add_type",
      "inputs": [
        {
          "name": "_name",
          "type": "string"
        },
        {
          "name": "weight",
          "type": "uint256"
        }
      ],
      "outputs": []
    },
    {
      "stateMutability": "nonpayable",
      "type": "function",
      "name": "change_type_weight",
      "inputs": [
        {
          "name": "type_id",
          "type": "int128"
        },
        {
          "name": "weight",
          "type": "uint256"
        }
      ],
      "outputs": []
    },
    {
      "stateMutability": "nonpayable",
      "type": "function",
      "name": "change_gauge_weight",
      "inputs": [
        {
          "name": "addr",
          "type": "address"
        },
        {
          "name": "weight",
          "type": "uint256"
        }
      ],
      "outputs": []
    },
    {
      "stateMutability": "nonpayable",
      "type": "function",
      "name": "vote_for_gauge_weights",
      "inputs": [
        {
          "name": "_gauge_addr",
          "type": "address"
        },
        {
          "name": "_user_weight",
          "type": "uint256"
        }
      ],
      "outputs": []
    },
    {
      "stateMutability": "view",
      "type": "function",
      "name": "get_gauge_weight",
      "inputs": [
        {
          "name": "addr",
          "type": "address"
        }
      ],
      "outputs": [
        {
          "name": "",
          "type": "uint256"
        }
      ]
    },
    {
      "stateMutability": "view",
      "type": "function",
      "name": "get_type_weight",
      "inputs": [
        {
          "name": "type_id",
          "type": "int128"
        }
      ],
      "outputs": [
        {
          "name": "",
          "type": "uint256"
        }
      ]
    },
    {
      "stateMutability": "view",
      "type": "function",
      "name": "get_total_weight",
      "inputs": [],
      "outputs": [
        {
          "name": "",
          "type": "uint256"
        }
      ]
    },
    {
      "stateMutability": "view",
      "type": "function",
      "name": "get_weights_sum_per_type",
      "inputs": [
        {
          "name": "type_id",
          "type": "int128"
        }
      ],
      "outputs": [
        {
          "name": "",
          "type": "uint256"
        }
      ]
    },
    {
      "stateMutability": "view",
      "type": "function",
      "name": "admin",
      "inputs": [],
      "outputs": [
        {
          "name": "",
          "type": "address"
        }
      ]
    },
    {
      "stateMutability": "view",
      "type": "function",
      "name": "future_admin",
      "inputs": [],
      "outputs": [
        {
          "name": "",
          "type": "address"
        }
      ]
    },
    {
      "stateMutability": "view",
      "type": "function",
      "name": "token",
      "inputs": [],
      "outputs": [
        {
          "name": "",
          "type": "address"
        }
      ]
    },
    {
      "stateMutability": "view",
      "type": "function",
      "name": "voting_escrow",
      "inputs": [],
      "outputs": [
        {
          "name": "",
          "type": "address"
        }
      ]
    },
    {
      "stateMutability": "view",
      "type": "function",
      "name": "n_gauge_types",
      "inputs": [],
      "outputs": [
        {
          "name": "",
          "type": "int128"
        }
      ]
    },
    {
      "stateMutability": "view",
      "type": "function",
      "name": "n_gauges",
      "inputs": [],
      "outputs": [
        {
          "name": "",
          "type": "int128"
        }
      ]
    },
    {
      "stateMutability": "view",
      "type": "function",
      "name": "gauge_type_names",
      "inputs": [
        {
          "name": "arg0",
          "type": "int128"
        }
      ],
      "outputs": [
        {
          "name": "",
          "type": "string"
        }
      ]
    },
    {
      "stateMutability": "view",
      "type": "function",
      "name": "gauges",
      "inputs": [
        {
          "name": "arg0",
          "type": "uint256"
        }
      ],
      "outputs": [
        {
          "name": "",
          "type": "address"
        }
      ]
    },
    {
      "stateMutability": "view",
      "type": "function",
      "name": "vote_user_slopes",
      "inputs": [
        {
          "name": "arg0",
          "type": "address"
        },
        {
          "name": "arg1",
          "type": "address"
        }
      ],
      "outputs": [
        {
          "name": "slope",
          "type": "uint256"
        },
        {
          "name": "power",
          "type": "uint256"
        },
        {
          "name": "end",
          "type": "uint256"
        }
      ]
    },
    {
      "stateMutability": "view",
      "type": "function",
      "name": "vote_user_power",
      "inputs": [
        {
          "name": "arg0",
          "type": "address"
        }
      ],
      "outputs": [
        {
          "name": "",
          "type": "uint256"
        }
      ]
    },
    {
      "stateMutability": "view",
      "type": "function",
      "name": "last_user_vote",
      "inputs": [
        {
          "name": "arg0",
          "type": "address"
        },
        {
          "name": "arg1",
          "type": "address"
        }
      ],
      "outputs": [
        {
          "name": "",
          "type": "uint256"
        }
      ]
    },
    {
      "stateMutability": "view",
      "type": "function",
      "name": "points_weight",
      "inputs": [
        {
          "name": "arg0",
          "type": "address"
        },
        {
          "name": "arg1",
          "type": "uint256"
        }
      ],
      "outputs": [
        {
          "name": "bias",
          "type": "uint256"
        },
        {
          "name": "slope",
          "type": "uint256"
        }
      ]
    },
    {
      "stateMutability": "view",
      "type": "function",
      "name": "time_weight",
      "inputs": [
        {
          "name": "arg0",
          "type": "address"
        }
      ],
      "outputs": [
        {
          "name": "",
          "type": "uint256"
        }
      ]
    },
    {
      "stateMutability": "view",
      "type": "function",
      "name": "points_sum",
      "inputs": [
        {
          "name": "arg0",
          "type": "int128"
        },
        {
          "name": "arg1",
          "type": "uint256"
        }
      ],
      "outputs": [
        {
          "name": "bias",
          "type": "uint256"
        },
        {
          "name": "slope",
          "type": "uint256"
        }
      ]
    },
    {
      "stateMutability": "view",
      "type": "function",
      "name": "time_sum",
      "inputs": [
        {
          "name": "arg0",
          "type": "uint256"
        }
      ],
      "outputs": [
        {
          "name": "",
          "type": "uint256"
        }
      ]
    },
    {
      "stateMutability": "view",
      "type": "function",
      "name": "points_total",
      "inputs": [
        {
          "name": "arg0",
          "type": "uint256"
        }
      ],
      "outputs": [
        {
          "name": "",
          "type": "uint256"
        }
      ]
    },
    {
      "stateMutability": "view",
      "type": "function",
      "name": "time_total",
      "inputs": [],
      "outputs": [
        {
          "name": "",
          "type": "uint256"
        }
      ]
    },
    {
      "stateMutability": "view",
      "type": "function",
      "name": "points_type_weight",
      "inputs": [
        {
          "name": "arg0",
          "type": "int128"
        },
        {
          "name": "arg1",
          "type": "uint256"
        }
      ],
      "outputs": [
        {
          "name": "",
          "type": "uint256"
        }
      ]
    },
    {
      "stateMutability": "view",
      "type": "function",
      "name": "time_type_weight",
      "inputs": [
        {
          "name": "arg0",
          "type": "uint256"
        }
      ],
      "outputs": [
        {
          "name": "",
          "type": "uint256"
        }
      ]
    }
  ],
  "transactionHash": "0x5f12cc886f1de0804ae22378f866991f0daa3d503a852baf09149b51dce66a9b",
  "args": [
    "0x4f4fb1D5900f2bFE98E2d5EB481E2FB2Df154488",
    "0x453D35e2BB41c75F4D74a1dAE1c7Ab16a443d2f2",
    "0x8A97FBD532A5C1eD67fd67c11dD76013abAc840e"
  ],
  "bytecode": "0x606061276e61014039602061276e60c03960c05160a01c612769576020602061276e0160c03960c05160a01c612769576020604061276e0160c03960c05160a01c6127695760006101405118156127695760006101605118156127695760006101805118156127695761018051600055610140516002556101605160035542610e1080820490509050610e10808202821582848304141715612769578090509050905063773594115561275156600436101561000d57611879565b600035601c526000513461269f57636b441a408114156100865760043560a01c61269f5760005433141561269f576000600435181561269f576004356001557f2f56810a6bf40af059b96d3aea4db54081f378029a518390491093a7b67032e961014080808060043581525050602090509050610140a1005b63e5ea47b88114156100e657600154610140526101405133141561269f57610140516000557febee2d5739011062cb4f14113f3b36bf0ffe3da5c0568f64189d1012a11891056101608080806101405181525050602090509050610160a1005b633f9095b78114156101475760043560a01c61269f57633b9aca0760043560e05260c052604060c0205461014052600061014051181561269f5761014051600180820380607f1d8160801d141561269f578090509050905060005260206000f35b633a04f90081141561015e5760006101405261017f565b6318dfe92181141561017a57602060446101403760005061017f565b6104e4565b60043560a01c61269f5760243580607f1d8160801d141561269f578090505060005433141561269f576000602435126101be57600454602435126101c1565b60005b1561269f57633b9aca0760043560e05260c052604060c0205461269f576005546101605261016051600180820180607f1d8160801d141561269f5780905090509050600555600435600161016051633b9aca0081101561269f570260070155602435600180820180607f1d8160801d141561269f5780905090509050633b9aca0760043560e05260c052604060c0205542610e10818183011061269f5780820190509050610e1080820490509050610e1080820282158284830414171561269f5780905090509050610180526000610140511115610438576101405161016051610180516101a0516024356101c0526101c0516006580161187f565b610220526101a052610180526101605261014052610220516101a0526101405161016051610180516101a0516101c0516024356101e0526101e0516006580161199a565b610240526101c0526101a052610180526101605261014052610240516101c0526101405161016051610180516101a0516101c0516101e05160065801611b6f565b610200526101e0526101c0526101a052610180526101605261014052610200516101e052610140516101c051818183011061269f5780820190509050633b9aca0e60243560e05260c052604060c0206101805160e05260c052604060c02055610180516001602435633b9aca0081101561269f5702633b9aca1001556101e0516101a0516101405180820282158284830414171561269f5780905090509050818183011061269f578082019050905063773594106101805160e05260c052604060c020556101805163773594115561014051633b9aca0b60043560e05260c052604060c0206101805160e05260c052604060c020555b6001602435633b9aca0081101561269f5702633b9aca10015461047357610180516001602435633b9aca0081101561269f5702633b9aca1001555b61018051633b9aca0d60043560e05260c052604060c020557ffd55b3191f9c9dd92f4f134dd700e7d76f6a0c836a08687023d6d38f03ebd8776101a080808060043581525050602081019050808060243581525050602081019050808061014051815250506060905090506101a0a1005b63c2c4c5c18114156105035760065801611b6f565b6101405261014050005b63615e52378114156105485760043560a01c61269f57600435610140526101405160065801611dc7565b6101a0526101a05060065801611b6f565b6101405261014050005b636207d86681141561055e57426101405261057f565b63d3078c9481141561057a57602060246101403760005061057f565b6105c2565b60043560a01c61269f5761014051600435610160526101405161018052610180516101605160065801611f92565b6101e052610140526101e05160005260206000f35b6395cfcec38114156105d85742610140526105f9565b636472eee18114156105f45760206024610140376000506105f9565b610679565b60043560a01c61269f5761014051600435610160526101605160065801611dc7565b6101c052610140526101c0506101405160065801611b6f565b61016052610140526101605061014051600435610160526101405161018052610180516101605160065801611f92565b6101e052610140526101e05160005260206000f35b6326e56d5e8114156106905760006101c0526106b1565b6392d0d2328114156106ac57602060246101c0376000506106b1565b61085c565b6060600435600401610140376040600435600401351161269f5760005433141561269f576004546101e0526101408060066101e05160e05260c052604060c020602082510161012060006003818352015b8261012051602002111561071557610737565b61012051602002850151610120518501555b8151600101808352811415610702575b5050505050506101e051600180820180607f1d8160801d141561269f578090509050905060045560006101c051181561085a576101405161016051610180516101a0516101c0516101e0516101e051610200526101c051610220526102205161020051600658016120e2565b6101e0526101c0526101a0526101805261016052610140526000507f6fbe76157c712f16b5a3c44ed48baa04e3450bc3fab0c020e848aca72bbccc8461020080604080825280830180610140805160200180838284600060045af11561269f5750508051806020830101818260206001820306601f8201039050033682375050805160200160206001820306601f8201039050905090508101905060208201915081806101e0518152505080905090509050610200a15b005b63db1ca2608114156108ab5760043580607f1d8160801d141561269f578090505060005433141561269f5760043561014052602435610160526101605161014051600658016120e2565b600050005b63d4d2646e8114156108ef5760043560a01c61269f5760005433141561269f576004356101405260243561016052610160516101405160065801612334565b600050005b63d71363288114156112c85760043560a01c61269f576003546101405260206102006024637c74a17461018052336101a05261019c610140515afa1561269f57601f3d111561269f57600050610200516000811261269f57610160526020610220602463adc635896101a052336101c0526101bc610140515afa1561269f57601f3d111561269f5760005061022051610180526005546101a05242610e10818183011061269f5780820190509050610e1080820490509050610e1080820282158284830414171561269f57809050905090506101c0526101c0516101805111610a17576308c379a06101e0526020610200526020610220527f596f757220746f6b656e206c6f636b206578706972657320746f6f20736f6f6e610240526102205060646101fcfd5b600060243510610a2e576127106024351115610a31565b60005b610a7a576308c379a06101e052602061020052601e610220527f596f75207573656420616c6c20796f757220766f74696e6720706f7765720000610240526102205060646101fcfd5b633b9aca0a3360e05260c052604060c02060043560e05260c052604060c02054611518818183011061269f5780820190509050421015610af9576308c379a06101e0526020610200526014610220527f43616e6e6f7420766f746520736f206f6674656e000000000000000000000000610240526102205060646101fcfd5b633b9aca0760043560e05260c052604060c02054600180820380607f1d8160801d141561269f57809050905090506101e05260006101e0511215610b7c576308c379a061020052602061022052600f610240527f4761756765206e6f7420616464656400000000000000000000000000000000006102605261024050606461021cfd5b610200633b9aca083360e05260c052604060c02060043560e05260c052604060c02080548252600181015482602001526002810154826040015250506000610260526101c051610240511115610be757610240516101c05180821061269f5780820390509050610260525b610200516102605180820282158284830414171561269f5780905090509050610280526102a06101605160243580820282158284830414171561269f5780905090509050612710808204905090508152602435816020015261018051816040015250610180516101c05180821061269f5780820390509050610300526102a0516103005180820282158284830414171561269f578090509050905061032052633b9aca093360e05260c052604060c0205461034052610340516102c051818183011061269f57808201905090506102205180821061269f57808203905090506103405261034051633b9aca093360e05260c052604060c0205560006103405110610cf957612710610340511115610cfc565b60005b610d45576308c379a06103605260206103805260136103a0527f5573656420746f6f206d75636820706f776572000000000000000000000000006103c0526103a050606461037cfd5b610140610380525b61038051516020610380510161038052610380610380511015610d6f57610d4d565b6004356103a0526103a05160065801611dc7565b61040052610360610380525b610380515260206103805103610380526101406103805110610db057610d8f565b61040051610360526001633b9aca0b60043560e05260c052604060c0206101c05160e05260c052604060c0200154610380526101406103c0525b6103c0515160206103c051016103c0526103c06103c0511015610e0c57610dea565b6101e0516103e0526103e0516006580161199a565b610440526103a06103c0525b6103c0515260206103c051036103c0526101406103c05110610e4e57610e2d565b610440516103a0526001633b9aca0e6101e05160e05260c052604060c0206101c05160e05260c052604060c02001546103c0526103605161032051818183011061269f57808201905090506102805180821015610eab5780610ead565b815b905090506102805180821061269f5780820390509050633b9aca0b60043560e05260c052604060c0206101c05160e05260c052604060c020556103a05161032051818183011061269f57808201905090506102805180821015610f105780610f12565b815b905090506102805180821061269f5780820390509050633b9aca0e6101e05160e05260c052604060c0206101c05160e05260c052604060c020556101c05161024051111561103057610380516102a051818183011061269f57808201905090506102005180821015610f845780610f86565b815b905090506102005180821061269f57808203905090506001633b9aca0b60043560e05260c052604060c0206101c05160e05260c052604060c02001556103c0516102a051818183011061269f57808201905090506102005180821015610fec5780610fee565b815b905090506102005180821061269f57808203905090506001633b9aca0e6101e05160e05260c052604060c0206101c05160e05260c052604060c02001556110ae565b6001633b9aca0b60043560e05260c052604060c0206101c05160e05260c052604060c0200180546102a051818183011061269f57808201905090508155506001633b9aca0e6101e05160e05260c052604060c0206101c05160e05260c052604060c0200180546102a051818183011061269f57808201905090508155505b4261024051111561112d57633b9aca0c60043560e05260c052604060c0206102405160e05260c052604060c02080546102005180821061269f5780820390509050815550633b9aca0f6101e05160e05260c052604060c0206102405160e05260c052604060c02080546102005180821061269f57808203905090508155505b633b9aca0c60043560e05260c052604060c0206102e05160e05260c052604060c02080546102a051818183011061269f5780820190509050815550633b9aca0f6101e05160e05260c052604060c0206102e05160e05260c052604060c02080546102a051818183011061269f57808201905090508155506101406103e0525b6103e0515160206103e051016103e0526103e06103e05110156111ce576111ac565b60065801611b6f565b610400526103c06103e0525b6103e0515260206103e051036103e0526101406103e05110611204576111e3565b61040050633b9aca083360e05260c052604060c02060043560e05260c052604060c0206102a0805182558060200151600183015580604001516002830155505042633b9aca0a3360e05260c052604060c02060043560e05260c052604060c020557f45ca9a4c8d0119eb329e580d28fe689e484e1be230da8037ade9547d2d25cc916103e08080804281525050602081019050808033815250506020810190508080600435815250506020810190508080602435815250506080905090506103e0a1005b634e791a3a81141561131a5760043560a01c61269f57633b9aca0b60043560e05260c052604060c020633b9aca0d60043560e05260c052604060c0205460e05260c052604060c0205460005260206000f35b6372fdccfa81141561137c5760043580607f1d8160801d141561269f5780905050637735941260043560e05260c052604060c0206001600435633b9aca0081101561269f57026377359413015460e05260c052604060c0205460005260206000f35b636977ff928114156113a857637735941063773594115460e05260c052604060c0205460005260206000f35b636f214a6a81141561140a5760043580607f1d8160801d141561269f5780905050633b9aca0e60043560e05260c052604060c0206001600435633b9aca0081101561269f5702633b9aca10015460e05260c052604060c0205460005260206000f35b63f851a4408114156114225760005460005260206000f35b6317f7182a81141561143a5760015460005260206000f35b63fc0c546a8114156114525760025460005260206000f35b63dfe0503181141561146a5760035460005260206000f35b639fba03a18114156114825760045460005260206000f35b63e93841d081141561149a5760055460005260206000f35b63d958a8fc81141561155a5760043580607f1d8160801d141561269f5780905050600660043560e05260c052604060c02080610180602082540161012060006003818352015b826101205160200211156114f357611515565b61012051850154610120516020028501525b81516001018083528114156114e0575b50505050505061018051806101a001818260206001820306601f82010390500336823750506020610160526040610180510160206001820306601f8201039050610160f35b63b0539187811415611585576001600435633b9aca0081101561269f57026007015460005260206000f35b630f467f988114156116055760043560a01c61269f5760243560a01c61269f57633b9aca0860043560e05260c052604060c02060243560e05260c052604060c0206101408080808454815250506020810190508080600185015481525050602081019050808060028501548152505060609050905060c05260c051610140f35b63411e74b58114156116385760043560a01c61269f57633b9aca0960043560e05260c052604060c0205460005260206000f35b637e418fa08114156116835760043560a01c61269f5760243560a01c61269f57633b9aca0a60043560e05260c052604060c02060243560e05260c052604060c0205460005260206000f35b63edba52738114156116e85760043560a01c61269f57633b9aca0b60043560e05260c052604060c02060243560e05260c052604060c020610140808080845481525050602081019050808060018501548152505060409050905060c05260c051610140f35b63a4d7a25081141561171b5760043560a01c61269f57633b9aca0d60043560e05260c052604060c0205460005260206000f35b63a9b48c0181141561178b5760043580607f1d8160801d141561269f5780905050633b9aca0e60043560e05260c052604060c02060243560e05260c052604060c020610140808080845481525050602081019050808060018501548152505060409050905060c05260c051610140f35b635a5491588114156117b9576001600435633b9aca0081101561269f5702633b9aca10015460005260206000f35b631142916b8114156117e257637735941060043560e05260c052604060c0205460005260206000f35b63513872bd8114156117fd5763773594115460005260206000f35b63afd2bb498114156118495760043580607f1d8160801d141561269f5780905050637735941260043560e05260c052604060c02060243560e05260c052604060c0205460005260206000f35b6351ce6b59811415611877576001600435633b9aca0081101561269f57026377359413015460005260206000f35b505b60006000fd5b6101605261014052600161014051633b9aca0081101561269f57026377359413015461018052600061018051111561198a5763773594126101405160e05260c052604060c0206101805160e05260c052604060c020546101a0526101c060006101f4818352015b426101805111156118f657611974565b6101808051610e10818183011061269f57808201905090508152506101a05163773594126101405160e05260c052604060c0206101805160e05260c052604060c02055426101805111156119635761018051600161014051633b9aca0081101561269f5702637735941301555b5b81516001018083528114156118e6575b50506101a0516000526000516101605156611998565b600060005260005161016051565b005b6101605261014052600161014051633b9aca0081101561269f5702633b9aca100154610180526000610180511115611b5f576101a0633b9aca0e6101405160e05260c052604060c0206101805160e05260c052604060c020805482526001810154826020015250506101e060006101f4818352015b42610180511115611a1f57611b49565b6101808051610e10818183011061269f57808201905090508152506101c051610e1080820282158284830414171561269f578090509050905061020052610200516101a0511115611acb576101a080516102005180821061269f5780820390509050815250633b9aca0f6101405160e05260c052604060c0206101805160e05260c052604060c02054610220526101c080516102205180821061269f5780820390509050815250611ad8565b60006101a05260006101c0525b633b9aca0e6101405160e05260c052604060c0206101805160e05260c052604060c0206101a08051825580602001516001830155505042610180511115611b385761018051600161014051633b9aca0081101561269f5702633b9aca1001555b5b8151600101808352811415611a0f575b50506101a0516000526000516101605156611b6d565b600060005260005161016051565b005b61014052637735941154610160526004546101805242610160511115611ba9576101608051610e1080821061269f57808203905090508152505b63773594106101605160e05260c052604060c020546101a0526101c060006064818352015b610180516101c0511415611be157611c7c565b6101405161016051610180516101a0516101c0516101c0516101e0526101e0516006580161199a565b610240526101c0526101a052610180526101605261014052610240506101405161016051610180516101a0516101c0516101c0516101e0526101e0516006580161187f565b610240526101c0526101a052610180526101605261014052610240505b8151600101808352811415611bce575b50506101c060006101f4818352015b42610160511115611c9b57611db5565b6101608051610e10818183011061269f578082019050905081525060006101a0526101e060006064818352015b610180516101e0511415611cdb57611d73565b633b9aca0e6101e05160e05260c052604060c0206101605160e05260c052604060c020546102005263773594126101e05160e05260c052604060c0206101605160e05260c052604060c02054610220526101a08051610200516102205180820282158284830414171561269f5780905090509050818183011061269f57808201905090508152505b8151600101808352811415611cc8575b50506101a05163773594106101605160e05260c052604060c0205542610160511115611da457610160516377359411555b5b8151600101808352811415611c8b575b50506101a05160005260005161014051565b6101605261014052633b9aca0d6101405160e05260c052604060c02054610180526000610180511115611f82576101a0633b9aca0b6101405160e05260c052604060c0206101805160e05260c052604060c020805482526001810154826020015250506101e060006101f4818352015b42610180511115611e4757611f6c565b6101808051610e10818183011061269f57808201905090508152506101c051610e1080820282158284830414171561269f578090509050905061020052610200516101a0511115611ef3576101a080516102005180821061269f5780820390509050815250633b9aca0c6101405160e05260c052604060c0206101805160e05260c052604060c02054610220526101c080516102205180821061269f5780820390509050815250611f00565b60006101a05260006101c0525b633b9aca0b6101405160e05260c052604060c0206101805160e05260c052604060c0206101a08051825580602001516001830155505042610180511115611f5b5761018051633b9aca0d6101405160e05260c052604060c020555b5b8151600101808352811415611e37575b50506101a0516000526000516101605156611f90565b600060005260005161016051565b005b61018052610140526101605261016051610e1080820490509050610e1080820282158284830414171561269f57809050905090506101a05263773594106101a05160e05260c052604060c020546101c05260006101c05111156120d257633b9aca076101405160e05260c052604060c02054600180820380607f1d8160801d141561269f57809050905090506101e05263773594126101e05160e05260c052604060c0206101a05160e05260c052604060c0205461020052633b9aca0b6101405160e05260c052604060c0206101a05160e05260c052604060c0205461022052670de0b6b3a76400006102005180820282158284830414171561269f57809050905090506102205180820282158284830414171561269f57809050905090506101c05180801561269f5782049050905060005260005161018051566120e0565b600060005260005161018051565b005b6101805261014052610160526101405161016051610180516101a051610140516101c0526101c0516006580161187f565b610220526101a052610180526101605261014052610220516101a0526101405161016051610180516101a0516101c051610140516101e0526101e0516006580161199a565b610240526101c0526101a052610180526101605261014052610240516101c0526101405161016051610180516101a0516101c0516101e05160065801611b6f565b610200526101e0526101c0526101a052610180526101605261014052610200516101e05242610e10818183011061269f5780820190509050610e1080820490509050610e1080820282158284830414171561269f5780905090509050610200526101e0516101c0516101605180820282158284830414171561269f5780905090509050818183011061269f57808201905090506101c0516101a05180820282158284830414171561269f578090509050905080821061269f57808203905090506101e0526101e05163773594106102005160e05260c052604060c020556101605163773594126101405160e05260c052604060c0206102005160e05260c052604060c020556102005163773594115561020051600161014051633b9aca0081101561269f5702637735941301557e170bcdc909b6ac6e12d020fe8942256312cdcd555fb6d712899eba56d2f9016102208080806101405181525050602081019050808061020051815250506020810190508080610160518152505060208101905080806101e05181525050608090509050610220a161018051565b610180526101405261016052633b9aca076101405160e05260c052604060c02054600180820380607f1d8160801d141561269f57809050905090506101a0526101405161016051610180516101a0516101c051610140516101e0526101e05160065801611dc7565b610240526101c0526101a052610180526101605261014052610240516101c0526101405161016051610180516101a0516101c0516101e0516101a05161020052610200516006580161187f565b610260526101e0526101c0526101a052610180526101605261014052610260516101e0526101405161016051610180516101a0516101c0516101e051610200516101a05161022052610220516006580161199a565b61028052610200526101e0526101c0526101a05261018052610160526101405261028051610200526101405161016051610180516101a0516101c0516101e051610200516102205160065801611b6f565b6102405261022052610200526101e0526101c0526101a052610180526101605261014052610240516102205242610e10818183011061269f5780820190509050610e1080820490509050610e1080820282158284830414171561269f57809050905090506102405261016051633b9aca0b6101405160e05260c052604060c0206102405160e05260c052604060c0205561024051633b9aca0d6101405160e05260c052604060c020556102005161016051818183011061269f57808201905090506101c05180821061269f57808203905090506102605261026051633b9aca0e6101a05160e05260c052604060c0206102405160e05260c052604060c020556102405160016101a051633b9aca0081101561269f5702633b9aca10015561022051610260516101e05180820282158284830414171561269f5780905090509050818183011061269f5780820190509050610200516101e05180820282158284830414171561269f578090509050905080821061269f5780820390509050610220526102205163773594106102405160e05260c052604060c02055610240516377359411557f54c0cf3647e6cdb2fc0a7876e60ba77563fceedf2e06c01c597f8dccb9e6bd726102808080806101405181525050602081019050808042815250506020810190508080610160518152505060208101905080806102205181525050608090509050610280a161018051565b600080fd5b6100ad612751036100ad6000396100ad612751036000f35b600080fd"
}