{
  "address": "0x67E88BAAb05E08Bf50Cdd40939A46585407435b8",
  "abi": [
    {
      "inputs": [
        {
          "internalType": "address",
          "name": "_strategy",
          "type": "address"
        },
        {
          "internalType": "string",
          "name": "name",
          "type": "string"
        },
        {
          "internalType": "address",
          "name": "_uniswapRouter",
          "type": "address"
        },
        {
          "internalType": "address",
          "name": "_comp",
          "type": "address"
        },
        {
          "internalType": "bytes",
          "name": "_path",
          "type": "bytes"
        },
        {
          "internalType": "address",
          "name": "_cToken",
          "type": "address"
        },
        {
          "internalType": "address[]",
          "name": "governorList",
          "type": "address[]"
        },
        {
          "internalType": "address",
          "name": "guardian",
          "type": "address"
        }
      ],
      "stateMutability": "nonpayable",
      "type": "constructor"
    },
    {
      "anonymous": false,
      "inputs": [
        {
          "indexed": true,
          "internalType": "bytes32",
          "name": "role",
          "type": "bytes32"
        },
        {
          "indexed": true,
          "internalType": "bytes32",
          "name": "previousAdminRole",
          "type": "bytes32"
        },
        {
          "indexed": true,
          "internalType": "bytes32",
          "name": "newAdminRole",
          "type": "bytes32"
        }
      ],
      "name": "RoleAdminChanged",
      "type": "event"
    },
    {
      "anonymous": false,
      "inputs": [
        {
          "indexed": true,
          "internalType": "bytes32",
          "name": "role",
          "type": "bytes32"
        },
        {
          "indexed": true,
          "internalType": "address",
          "name": "account",
          "type": "address"
        },
        {
          "indexed": true,
          "internalType": "address",
          "name": "sender",
          "type": "address"
        }
      ],
      "name": "RoleGranted",
      "type": "event"
    },
    {
      "anonymous": false,
      "inputs": [
        {
          "indexed": true,
          "internalType": "bytes32",
          "name": "role",
          "type": "bytes32"
        },
        {
          "indexed": true,
          "internalType": "address",
          "name": "account",
          "type": "address"
        },
        {
          "indexed": true,
          "internalType": "address",
          "name": "sender",
          "type": "address"
        }
      ],
      "name": "RoleRevoked",
      "type": "event"
    },
    {
      "inputs": [],
      "name": "BLOCKS_PER_YEAR",
      "outputs": [
        {
          "internalType": "uint256",
          "name": "",
          "type": "uint256"
        }
      ],
      "stateMutability": "view",
      "type": "function"
    },
    {
      "inputs": [],
      "name": "DEFAULT_ADMIN_ROLE",
      "outputs": [
        {
          "internalType": "bytes32",
          "name": "",
          "type": "bytes32"
        }
      ],
      "stateMutability": "view",
      "type": "function"
    },
    {
      "inputs": [],
      "name": "GUARDIAN_ROLE",
      "outputs": [
        {
          "internalType": "bytes32",
          "name": "",
          "type": "bytes32"
        }
      ],
      "stateMutability": "view",
      "type": "function"
    },
    {
      "inputs": [],
      "name": "STRATEGY_ROLE",
      "outputs": [
        {
          "internalType": "bytes32",
          "name": "",
          "type": "bytes32"
        }
      ],
      "stateMutability": "view",
      "type": "function"
    },
    {
      "inputs": [],
      "name": "apr",
      "outputs": [
        {
          "internalType": "uint256",
          "name": "",
          "type": "uint256"
        }
      ],
      "stateMutability": "view",
      "type": "function"
    },
    {
      "inputs": [
        {
          "internalType": "uint256",
          "name": "amount",
          "type": "uint256"
        }
      ],
      "name": "aprAfterDeposit",
      "outputs": [
        {
          "internalType": "uint256",
          "name": "",
          "type": "uint256"
        }
      ],
      "stateMutability": "view",
      "type": "function"
    },
    {
      "inputs": [],
      "name": "cToken",
      "outputs": [
        {
          "internalType": "contract CErc20I",
          "name": "",
          "type": "address"
        }
      ],
      "stateMutability": "view",
      "type": "function"
    },
    {
      "inputs": [],
      "name": "comp",
      "outputs": [
        {
          "internalType": "address",
          "name": "",
          "type": "address"
        }
      ],
      "stateMutability": "view",
      "type": "function"
    },
    {
      "inputs": [],
      "name": "deposit",
      "outputs": [],
      "stateMutability": "nonpayable",
      "type": "function"
    },
    {
      "inputs": [
        {
          "internalType": "uint256",
          "name": "amount",
          "type": "uint256"
        }
      ],
      "name": "emergencyWithdraw",
      "outputs": [],
      "stateMutability": "nonpayable",
      "type": "function"
    },
    {
      "inputs": [
        {
          "internalType": "bytes32",
          "name": "role",
          "type": "bytes32"
        }
      ],
      "name": "getRoleAdmin",
      "outputs": [
        {
          "internalType": "bytes32",
          "name": "",
          "type": "bytes32"
        }
      ],
      "stateMutability": "view",
      "type": "function"
    },
    {
      "inputs": [
        {
          "internalType": "bytes32",
          "name": "role",
          "type": "bytes32"
        },
        {
          "internalType": "address",
          "name": "account",
          "type": "address"
        }
      ],
      "name": "grantRole",
      "outputs": [],
      "stateMutability": "nonpayable",
      "type": "function"
    },
    {
      "inputs": [],
      "name": "hasAssets",
      "outputs": [
        {
          "internalType": "bool",
          "name": "",
          "type": "bool"
        }
      ],
      "stateMutability": "view",
      "type": "function"
    },
    {
      "inputs": [
        {
          "internalType": "bytes32",
          "name": "role",
          "type": "bytes32"
        },
        {
          "internalType": "address",
          "name": "account",
          "type": "address"
        }
      ],
      "name": "hasRole",
      "outputs": [
        {
          "internalType": "bool",
          "name": "",
          "type": "bool"
        }
      ],
      "stateMutability": "view",
      "type": "function"
    },
    {
      "inputs": [],
      "name": "lenderName",
      "outputs": [
        {
          "internalType": "string",
          "name": "",
          "type": "string"
        }
      ],
      "stateMutability": "view",
      "type": "function"
    },
    {
      "inputs": [],
      "name": "minCompToSell",
      "outputs": [
        {
          "internalType": "uint256",
          "name": "",
          "type": "uint256"
        }
      ],
      "stateMutability": "view",
      "type": "function"
    },
    {
      "inputs": [],
      "name": "nav",
      "outputs": [
        {
          "internalType": "uint256",
          "name": "",
          "type": "uint256"
        }
      ],
      "stateMutability": "view",
      "type": "function"
    },
    {
      "inputs": [],
      "name": "path",
      "outputs": [
        {
          "internalType": "bytes",
          "name": "",
          "type": "bytes"
        }
      ],
      "stateMutability": "view",
      "type": "function"
    },
    {
      "inputs": [],
      "name": "poolManager",
      "outputs": [
        {
          "internalType": "contract IPoolManager",
          "name": "",
          "type": "address"
        }
      ],
      "stateMutability": "view",
      "type": "function"
    },
    {
      "inputs": [
        {
          "internalType": "bytes32",
          "name": "role",
          "type": "bytes32"
        },
        {
          "internalType": "address",
          "name": "account",
          "type": "address"
        }
      ],
      "name": "renounceRole",
      "outputs": [],
      "stateMutability": "nonpayable",
      "type": "function"
    },
    {
      "inputs": [
        {
          "internalType": "bytes32",
          "name": "role",
          "type": "bytes32"
        },
        {
          "internalType": "address",
          "name": "account",
          "type": "address"
        }
      ],
      "name": "revokeRole",
      "outputs": [],
      "stateMutability": "nonpayable",
      "type": "function"
    },
    {
      "inputs": [
        {
          "internalType": "bytes",
          "name": "_path",
          "type": "bytes"
        }
      ],
      "name": "setPath",
      "outputs": [],
      "stateMutability": "nonpayable",
      "type": "function"
    },
    {
      "inputs": [],
      "name": "strategy",
      "outputs": [
        {
          "internalType": "address",
          "name": "",
          "type": "address"
        }
      ],
      "stateMutability": "view",
      "type": "function"
    },
    {
      "inputs": [
        {
          "internalType": "address",
          "name": "_token",
          "type": "address"
        },
        {
          "internalType": "address",
          "name": "to",
          "type": "address"
        }
      ],
      "name": "sweep",
      "outputs": [],
      "stateMutability": "nonpayable",
      "type": "function"
    },
    {
      "inputs": [],
      "name": "underlyingBalanceStored",
      "outputs": [
        {
          "internalType": "uint256",
          "name": "balance",
          "type": "uint256"
        }
      ],
      "stateMutability": "view",
      "type": "function"
    },
    {
      "inputs": [],
      "name": "uniswapRouter",
      "outputs": [
        {
          "internalType": "address",
          "name": "",
          "type": "address"
        }
      ],
      "stateMutability": "view",
      "type": "function"
    },
    {
      "inputs": [],
      "name": "want",
      "outputs": [
        {
          "internalType": "contract IERC20",
          "name": "",
          "type": "address"
        }
      ],
      "stateMutability": "view",
      "type": "function"
    },
    {
      "inputs": [],
      "name": "weightedApr",
      "outputs": [
        {
          "internalType": "uint256",
          "name": "",
          "type": "uint256"
        }
      ],
      "stateMutability": "view",
      "type": "function"
    },
    {
      "inputs": [
        {
          "internalType": "uint256",
          "name": "amount",
          "type": "uint256"
        }
      ],
      "name": "withdraw",
      "outputs": [
        {
          "internalType": "uint256",
          "name": "",
          "type": "uint256"
        }
      ],
      "stateMutability": "nonpayable",
      "type": "function"
    },
    {
      "inputs": [],
      "name": "withdrawAll",
      "outputs": [
        {
          "internalType": "bool",
          "name": "",
          "type": "bool"
        }
      ],
      "stateMutability": "nonpayable",
      "type": "function"
    }
  ],
  "transactionHash": "0x6d80244aa1616902ea515a463e4ee26d9d81eacc20832fdf09176a4ab128067c",
  "args": [
    "0x9301C101AB75BD285Ef0ce40654e8663F593492c",
    "GenericCompoundRinkeby_EUR_WBTC",
    "0x8A97FBD532A5C1eD67fd67c11dD76013abAc840e",
    "0x4f4fb1D5900f2bFE98E2d5EB481E2FB2Df154488",
    "0x00",
    "0x0014f450b8ae7708593f4a46f8fa6e5d50620f96",
    [
      "0x8A97FBD532A5C1eD67fd67c11dD76013abAc840e"
    ],
    "0x3931C80BF7a911fcda8b684b23A433D124b59F06"
  ],
  "solcInputHash": "f5b703f620df957f43c941891d87f163",
  "bytecode": "0x60806040526706f05b59d3b200006009553480156200001d57600080fd5b506040516200376138038062003761833981016040819052620000409162000b6d565b600380546001600160a01b0319166001600160a01b038a169081179091556040805163dc4c90d360e01b815290518a928a92869286929163dc4c90d3916004808301926020929190829003018186803b1580156200009d57600080fd5b505afa158015620000b2573d6000803e3d6000fd5b505050506040513d601f19601f82011682018060405250810190620000d8919062000b4f565b600280546001600160a01b0319166001600160a01b0392909216918217905560408051637e062a3560e11b8152905163fc0c546a91600480820192602092909190829003018186803b1580156200012e57600080fd5b505afa15801562000143573d6000803e3d6000fd5b505050506040513d601f19601f8201168201806040525081019062000169919062000b4f565b600480546001600160a01b0319166001600160a01b039290921691909117905582516200019e90600190602086019062000981565b50600254620001c79060008051602062003741833981519152906001600160a01b0316620004b4565b60005b825181101562000226576200021160008051602062003741833981519152848381518110620001fd57620001fd62000dbb565b6020026020010151620004b460201b60201c565b806200021d8162000d91565b915050620001ca565b50620002426000805160206200374183398151915282620004b4565b6200025d6000805160206200372183398151915285620004b4565b620002876000805160206200374183398151915260008051602062003721833981519152620004c4565b620002b16000805160206200372183398151915260008051602062003741833981519152620004c4565b600454620002d8906001600160a01b03168560001962000518602090811b62000f5517901c565b505050506001600160a01b03851615801590620002fd57506001600160a01b03881615155b620003335760405162461bcd60e51b81526020600482015260016024820152600360fc1b60448201526064015b60405180910390fd5b600580546001600160a01b038089166001600160a01b031992831617909255600680549288169290911691909117905583516200037890600890602087019062000981565b50600780546001600160a01b0319166001600160a01b038581169182179092556004805460408051636f307dc360e01b815290519190941693636f307dc39281810192602092909190829003018186803b158015620003d657600080fd5b505afa158015620003eb573d6000803e3d6000fd5b505050506040513d601f19601f8201168201806040525081019062000411919062000b4f565b6001600160a01b031614620004585760405162461bcd60e51b815260206004820152600c60248201526b3bb937b7339031aa37b5b2b760a11b60448201526064016200032a565b6004546200047f906001600160a01b03168460001962000518602090811b62000f5517901c565b600654620004a6906001600160a01b03168760001962000518602090811b62000f5517901c565b505050505050505062000de7565b620004c0828262000677565b5050565b600082815260208190526040902060010154819060405184907fbd79b86ffe0ab8e8776151514217cd7cacd52c909f66475c3af44e129f0b00ff90600090a460009182526020829052604090912060010155565b801580620005a65750604051636eb1769f60e11b81523060048201526001600160a01b03838116602483015284169063dd62ed3e9060440160206040518083038186803b1580156200056957600080fd5b505afa1580156200057e573d6000803e3d6000fd5b505050506040513d601f19601f82011682018060405250810190620005a4919062000c81565b155b6200061a5760405162461bcd60e51b815260206004820152603660248201527f5361666545524332303a20617070726f76652066726f6d206e6f6e2d7a65726f60448201527f20746f206e6f6e2d7a65726f20616c6c6f77616e63650000000000000000000060648201526084016200032a565b604080516001600160a01b038416602482015260448082018490528251808303909101815260649091019091526020810180516001600160e01b0390811663095ea7b360e01b17909152620006729185916200071716565b505050565b6000828152602081815260408083206001600160a01b038516845290915290205460ff16620004c0576000828152602081815260408083206001600160a01b03851684529091529020805460ff19166001179055620006d33390565b6001600160a01b0316816001600160a01b0316837f2f8788117e7eff1d82e926ec794901d17c78024a50270940304540a733656f0d60405160405180910390a45050565b600062000773826040518060400160405280602081526020017f5361666545524332303a206c6f772d6c6576656c2063616c6c206661696c6564815250856001600160a01b0316620007f560201b62001164179092919060201c565b80519091501562000672578080602001905181019062000794919062000c5d565b620006725760405162461bcd60e51b815260206004820152602a60248201527f5361666545524332303a204552433230206f7065726174696f6e20646964206e6044820152691bdd081cdd58d8d9595960b21b60648201526084016200032a565b606062000806848460008562000810565b90505b9392505050565b606082471015620008735760405162461bcd60e51b815260206004820152602660248201527f416464726573733a20696e73756666696369656e742062616c616e636520666f6044820152651c8818d85b1b60d21b60648201526084016200032a565b843b620008c35760405162461bcd60e51b815260206004820152601d60248201527f416464726573733a2063616c6c20746f206e6f6e2d636f6e747261637400000060448201526064016200032a565b600080866001600160a01b03168587604051620008e1919062000c9b565b60006040518083038185875af1925050503d806000811462000920576040519150601f19603f3d011682016040523d82523d6000602084013e62000925565b606091505b5090925090506200093882828662000943565b979650505050505050565b606083156200095457508162000809565b825115620009655782518084602001fd5b8160405162461bcd60e51b81526004016200032a919062000cb9565b8280546200098f9062000d54565b90600052602060002090601f016020900481019282620009b35760008555620009fe565b82601f10620009ce57805160ff1916838001178555620009fe565b82800160010185558215620009fe579182015b82811115620009fe578251825591602001919060010190620009e1565b5062000a0c92915062000a10565b5090565b5b8082111562000a0c576000815560010162000a11565b80516001600160a01b038116811462000a3f57600080fd5b919050565b600082601f83011262000a5657600080fd5b815160206001600160401b0382111562000a745762000a7462000dd1565b8160051b62000a8582820162000cee565b83815282810190868401838801850189101562000aa157600080fd5b600093505b8584101562000acf5762000aba8162000a27565b83526001939093019291840191840162000aa6565b50979650505050505050565b600082601f83011262000aed57600080fd5b81516001600160401b0381111562000b095762000b0962000dd1565b62000b1e601f8201601f191660200162000cee565b81815284602083860101111562000b3457600080fd5b62000b4782602083016020870162000d21565b949350505050565b60006020828403121562000b6257600080fd5b620008098262000a27565b600080600080600080600080610100898b03121562000b8b57600080fd5b62000b968962000a27565b60208a01519098506001600160401b038082111562000bb457600080fd5b62000bc28c838d0162000adb565b985062000bd260408c0162000a27565b975062000be260608c0162000a27565b965060808b015191508082111562000bf957600080fd5b62000c078c838d0162000adb565b955062000c1760a08c0162000a27565b945060c08b015191508082111562000c2e57600080fd5b5062000c3d8b828c0162000a44565b92505062000c4e60e08a0162000a27565b90509295985092959890939650565b60006020828403121562000c7057600080fd5b815180151581146200080957600080fd5b60006020828403121562000c9457600080fd5b5051919050565b6000825162000caf81846020870162000d21565b9190910192915050565b602081526000825180602084015262000cda81604085016020870162000d21565b601f01601f19169190910160400192915050565b604051601f8201601f191681016001600160401b038111828210171562000d195762000d1962000dd1565b604052919050565b60005b8381101562000d3e57818101518382015260200162000d24565b8381111562000d4e576000848401525b50505050565b600181811c9082168062000d6957607f821691505b6020821081141562000d8b57634e487b7160e01b600052602260045260246000fd5b50919050565b600060001982141562000db457634e487b7160e01b600052601160045260246000fd5b5060010190565b634e487b7160e01b600052603260045260246000fd5b634e487b7160e01b600052604160045260246000fd5b61292a8062000df76000396000f3fe608060405234801561001057600080fd5b50600436106101da5760003560e01c806369e527da11610104578063b8dc491b116100a2578063d37db1d211610071578063d37db1d214610456578063d547741f14610460578063dc4c90d314610473578063f381e07d1461049357600080fd5b8063b8dc491b1461042b578063c1590cd71461043e578063c6afba3c14610446578063d0e30db01461044e57600080fd5b80638b202176116100de5780638b202176146103b757806391d14854146103bf578063a217fddf14610403578063a8c62e761461040b57600080fd5b806369e527da1461036f578063735de9f71461038f578063853828b6146103af57600080fd5b80632e1a7d4d1161017c5780635312ea8e1161014b5780635312ea8e1461031557806357ded9c914610328578063580b7c2e146103305780635be9b2d31461035757600080fd5b80632e1a7d4d146102c55780632f2ff15d146102d857806336568abe146102ed5780633dc063561461030057600080fd5b8063149a4ae4116101b8578063149a4ae4146102485780631f1fcd511461025b578063248a9ca31461027b57806324ea54f41461029e57600080fd5b806304324af8146101df578063109d0af8146101fb578063116ac4a314610240575b600080fd5b6101e860095481565b6040519081526020015b60405180910390f35b60065461021b9073ffffffffffffffffffffffffffffffffffffffff1681565b60405173ffffffffffffffffffffffffffffffffffffffff90911681526020016101f2565b6101e86104a6565b6101e8610256366004612454565b6104cb565b60045461021b9073ffffffffffffffffffffffffffffffffffffffff1681565b6101e8610289366004612454565b60009081526020819052604090206001015490565b6101e87f55435dd261a4b9b3364963f7738a7a662ad9c84396d64be3365284bb7f0a504181565b6101e86102d3366004612454565b6104db565b6102eb6102e636600461246d565b61051a565b005b6102eb6102fb36600461246d565b610545565b6103086105d7565b6040516101f2919061265f565b6102eb610323366004612454565b610665565b6101e8610803565b6101e87f928286c473ded01ff8bf61a1986f14a0579066072fa8261442d9fea514d93a4c81565b61035f610812565b60405190151581526020016101f2565b60075461021b9073ffffffffffffffffffffffffffffffffffffffff1681565b60055461021b9073ffffffffffffffffffffffffffffffffffffffff1681565b61035f61096c565b6103086109bd565b61035f6103cd36600461246d565b60009182526020828152604080842073ffffffffffffffffffffffffffffffffffffffff93909316845291905290205460ff1690565b6101e8600081565b60035461021b9073ffffffffffffffffffffffffffffffffffffffff1681565b6102eb6104393660046123ff565b6109ca565b6101e8610b96565b6101e8610ba0565b6102eb610d13565b6101e86223186081565b6102eb61046e36600461246d565b610ef1565b60025461021b9073ffffffffffffffffffffffffffffffffffffffff1681565b6102eb6104a1366004612490565b610f17565b6000806104b161117d565b90506104bb61122d565b6104c5908261272b565b91505090565b60006104d561117d565b92915050565b60007f928286c473ded01ff8bf61a1986f14a0579066072fa8261442d9fea514d93a4c61050881336112e3565b610511836113b3565b91505b50919050565b60008281526020819052604090206001015461053681336112e3565b6105408383611922565b505050565b73ffffffffffffffffffffffffffffffffffffffff811633146105c9576040517f08c379a000000000000000000000000000000000000000000000000000000000815260206004820152600260248201527f373100000000000000000000000000000000000000000000000000000000000060448201526064015b60405180910390fd5b6105d38282611a12565b5050565b600880546105e4906127e0565b80601f0160208091040260200160405190810160405280929190818152602001828054610610906127e0565b801561065d5780601f106106325761010080835404028352916020019161065d565b820191906000526020600020905b81548152906001019060200180831161064057829003601f168201915b505050505081565b7f55435dd261a4b9b3364963f7738a7a662ad9c84396d64be3365284bb7f0a504161069081336112e3565b6007546040517f852a12e30000000000000000000000000000000000000000000000000000000081526004810184905273ffffffffffffffffffffffffffffffffffffffff9091169063852a12e390602401602060405180830381600087803b1580156106fc57600080fd5b505af1158015610710573d6000803e3d6000fd5b505050506040513d601f19601f82011682018060405250810190610734919061255f565b50600254600480546040517f70a0823100000000000000000000000000000000000000000000000000000000815230928101929092526105d39273ffffffffffffffffffffffffffffffffffffffff908116929116906370a082319060240160206040518083038186803b1580156107ab57600080fd5b505afa1580156107bf573d6000803e3d6000fd5b505050506040513d601f19601f820116820180604052508101906107e3919061255f565b60045473ffffffffffffffffffffffffffffffffffffffff169190611ac9565b600061080d61117d565b905090565b6007546040517f70a08231000000000000000000000000000000000000000000000000000000008152306004820152600091829173ffffffffffffffffffffffffffffffffffffffff909116906370a082319060240160206040518083038186803b15801561088057600080fd5b505afa158015610894573d6000803e3d6000fd5b505050506040513d601f19601f820116820180604052508101906108b8919061255f565b118061080d5750600480546040517f70a08231000000000000000000000000000000000000000000000000000000008152309281019290925260009173ffffffffffffffffffffffffffffffffffffffff909116906370a082319060240160206040518083038186803b15801561092e57600080fd5b505afa158015610942573d6000803e3d6000fd5b505050506040513d601f19601f82011682018060405250810190610966919061255f565b11905090565b60007f928286c473ded01ff8bf61a1986f14a0579066072fa8261442d9fea514d93a4c61099981336112e3565b60006109a361122d565b905060006109b0826113b3565b91909110159250505b5090565b600180546105e4906127e0565b7f55435dd261a4b9b3364963f7738a7a662ad9c84396d64be3365284bb7f0a50416109f581336112e3565b60006109ff611b1f565b905060005b8151811015610ace57818181518110610a1f57610a1f612896565b602002602001015173ffffffffffffffffffffffffffffffffffffffff168573ffffffffffffffffffffffffffffffffffffffff161415610abc576040517f08c379a000000000000000000000000000000000000000000000000000000000815260206004820152600260248201527f393300000000000000000000000000000000000000000000000000000000000060448201526064016105c0565b80610ac68161282e565b915050610a04565b506040517f70a08231000000000000000000000000000000000000000000000000000000008152306004820152610b9090849073ffffffffffffffffffffffffffffffffffffffff8716906370a082319060240160206040518083038186803b158015610b3a57600080fd5b505afa158015610b4e573d6000803e3d6000fd5b505050506040513d601f19601f82011682018060405250810190610b72919061255f565b73ffffffffffffffffffffffffffffffffffffffff87169190611ac9565b50505050565b600061080d61122d565b6007546040517f70a08231000000000000000000000000000000000000000000000000000000008152306004820152600091829173ffffffffffffffffffffffffffffffffffffffff909116906370a082319060240160206040518083038186803b158015610c0e57600080fd5b505afa158015610c22573d6000803e3d6000fd5b505050506040513d601f19601f82011682018060405250810190610c46919061255f565b905080610c5557600091505090565b600754604080517f182df0f50000000000000000000000000000000000000000000000000000000081529051670de0b6b3a76400009273ffffffffffffffffffffffffffffffffffffffff169163182df0f5916004808301926020929190829003018186803b158015610cc757600080fd5b505afa158015610cdb573d6000803e3d6000fd5b505050506040513d601f19601f82011682018060405250810190610cff919061255f565b610d09908361272b565b6104c591906126f0565b7f928286c473ded01ff8bf61a1986f14a0579066072fa8261442d9fea514d93a4c610d3e81336112e3565b600480546040517f70a08231000000000000000000000000000000000000000000000000000000008152309281019290925260009173ffffffffffffffffffffffffffffffffffffffff909116906370a082319060240160206040518083038186803b158015610dad57600080fd5b505afa158015610dc1573d6000803e3d6000fd5b505050506040513d601f19601f82011682018060405250810190610de5919061255f565b6007546040517fa0712d680000000000000000000000000000000000000000000000000000000081526004810183905291925073ffffffffffffffffffffffffffffffffffffffff169063a0712d6890602401602060405180830381600087803b158015610e5257600080fd5b505af1158015610e66573d6000803e3d6000fd5b505050506040513d601f19601f82011682018060405250810190610e8a919061255f565b156105d3576040517f08c379a000000000000000000000000000000000000000000000000000000000815260206004820152600960248201527f6d696e74206661696c000000000000000000000000000000000000000000000060448201526064016105c0565b600082815260208190526040902060010154610f0d81336112e3565b6105408383611a12565b7f55435dd261a4b9b3364963f7738a7a662ad9c84396d64be3365284bb7f0a5041610f4281336112e3565b8151610540906008906020850190612346565b80158061100457506040517fdd62ed3e00000000000000000000000000000000000000000000000000000000815230600482015273ffffffffffffffffffffffffffffffffffffffff838116602483015284169063dd62ed3e9060440160206040518083038186803b158015610fca57600080fd5b505afa158015610fde573d6000803e3d6000fd5b505050506040513d601f19601f82011682018060405250810190611002919061255f565b155b611090576040517f08c379a000000000000000000000000000000000000000000000000000000000815260206004820152603660248201527f5361666545524332303a20617070726f76652066726f6d206e6f6e2d7a65726f60448201527f20746f206e6f6e2d7a65726f20616c6c6f77616e63650000000000000000000060648201526084016105c0565b60405173ffffffffffffffffffffffffffffffffffffffff83166024820152604481018290526105409084907f095ea7b300000000000000000000000000000000000000000000000000000000906064015b604080517fffffffffffffffffffffffffffffffffffffffffffffffffffffffffffffffe08184030181529190526020810180517bffffffffffffffffffffffffffffffffffffffffffffffffffffffff167fffffffff0000000000000000000000000000000000000000000000000000000090931692909217909152611c18565b60606111738484600085611d24565b90505b9392505050565b600062231860600760009054906101000a900473ffffffffffffffffffffffffffffffffffffffff1673ffffffffffffffffffffffffffffffffffffffff1663ae9d70b06040518163ffffffff1660e01b815260040160206040518083038186803b1580156111eb57600080fd5b505afa1580156111ff573d6000803e3d6000fd5b505050506040513d601f19601f82011682018060405250810190611223919061255f565b61080d919061272b565b6000611237610ba0565b600480546040517f70a08231000000000000000000000000000000000000000000000000000000008152309281019290925273ffffffffffffffffffffffffffffffffffffffff16906370a082319060240160206040518083038186803b1580156112a157600080fd5b505afa1580156112b5573d6000803e3d6000fd5b505050506040513d601f19601f820116820180604052508101906112d9919061255f565b61080d91906126d8565b60008281526020818152604080832073ffffffffffffffffffffffffffffffffffffffff8516845290915290205460ff166105d3576113398173ffffffffffffffffffffffffffffffffffffffff166014611ea4565b611344836020611ea4565b6040516020016113559291906125de565b604080517fffffffffffffffffffffffffffffffffffffffffffffffffffffffffffffffe0818403018152908290527f08c379a00000000000000000000000000000000000000000000000000000000082526105c09160040161265f565b6007546040517f3af9e669000000000000000000000000000000000000000000000000000000008152306004820152600091829173ffffffffffffffffffffffffffffffffffffffff90911690633af9e66990602401602060405180830381600087803b15801561142357600080fd5b505af1158015611437573d6000803e3d6000fd5b505050506040513d601f19601f8201168201806040525081019061145b919061255f565b600480546040517f70a08231000000000000000000000000000000000000000000000000000000008152309281019290925291925060009173ffffffffffffffffffffffffffffffffffffffff16906370a082319060240160206040518083038186803b1580156114cb57600080fd5b505afa1580156114df573d6000803e3d6000fd5b505050506040513d601f19601f82011682018060405250810190611503919061255f565b9050600061151182846126d8565b90508085111561151f578094505b848210611559576003546004546115509173ffffffffffffffffffffffffffffffffffffffff918216911687611ac9565b50929392505050565b600480546007546040517f70a0823100000000000000000000000000000000000000000000000000000000815273ffffffffffffffffffffffffffffffffffffffff918216938101939093526000929116906370a082319060240160206040518083038186803b1580156115cc57600080fd5b505afa1580156115e0573d6000803e3d6000fd5b505050506040513d601f19601f82011682018060405250810190611604919061255f565b9050600181111561184157600061161b8488612768565b9050818111611734576007546040517f852a12e30000000000000000000000000000000000000000000000000000000081526004810183905273ffffffffffffffffffffffffffffffffffffffff9091169063852a12e390602401602060405180830381600087803b15801561169057600080fd5b505af11580156116a4573d6000803e3d6000fd5b505050506040513d601f19601f820116820180604052508101906116c8919061255f565b1561172f576040517f08c379a000000000000000000000000000000000000000000000000000000000815260206004820152601560248201527f72656465656d556e6465726c79696e67206661696c000000000000000000000060448201526064016105c0565b61183f565b6007546040517f852a12e30000000000000000000000000000000000000000000000000000000081526004810184905273ffffffffffffffffffffffffffffffffffffffff9091169063852a12e390602401602060405180830381600087803b1580156117a057600080fd5b505af11580156117b4573d6000803e3d6000fd5b505050506040513d601f19601f820116820180604052508101906117d8919061255f565b1561183f576040517f08c379a000000000000000000000000000000000000000000000000000000000815260206004820152601560248201527f72656465656d556e6465726c79696e67206661696c000000000000000000000060448201526064016105c0565b505b6118496120e7565b600480546040517f70a08231000000000000000000000000000000000000000000000000000000008152309281019290925273ffffffffffffffffffffffffffffffffffffffff16906370a082319060240160206040518083038186803b1580156118b357600080fd5b505afa1580156118c7573d6000803e3d6000fd5b505050506040513d601f19601f820116820180604052508101906118eb919061255f565b6003546004549194506119189173ffffffffffffffffffffffffffffffffffffffff908116911685611ac9565b5090949350505050565b60008281526020818152604080832073ffffffffffffffffffffffffffffffffffffffff8516845290915290205460ff166105d35760008281526020818152604080832073ffffffffffffffffffffffffffffffffffffffff85168452909152902080547fffffffffffffffffffffffffffffffffffffffffffffffffffffffffffffff001660011790556119b43390565b73ffffffffffffffffffffffffffffffffffffffff168173ffffffffffffffffffffffffffffffffffffffff16837f2f8788117e7eff1d82e926ec794901d17c78024a50270940304540a733656f0d60405160405180910390a45050565b60008281526020818152604080832073ffffffffffffffffffffffffffffffffffffffff8516845290915290205460ff16156105d35760008281526020818152604080832073ffffffffffffffffffffffffffffffffffffffff8516808552925280832080547fffffffffffffffffffffffffffffffffffffffffffffffffffffffffffffff0016905551339285917ff6391f5c32d9c69d2a47ea670b442974b53935d1edc7fd64eb21e047a839171b9190a45050565b60405173ffffffffffffffffffffffffffffffffffffffff83166024820152604481018290526105409084907fa9059cbb00000000000000000000000000000000000000000000000000000000906064016110e2565b60408051600380825260808201909252606091600091906020820184803683375050600454825192935073ffffffffffffffffffffffffffffffffffffffff1691839150600090611b7257611b72612896565b73ffffffffffffffffffffffffffffffffffffffff9283166020918202929092010152600754825191169082906001908110611bb057611bb0612896565b73ffffffffffffffffffffffffffffffffffffffff9283166020918202929092010152600654825191169082906002908110611bee57611bee612896565b73ffffffffffffffffffffffffffffffffffffffff90921660209283029190910190910152919050565b6000611c7a826040518060400160405280602081526020017f5361666545524332303a206c6f772d6c6576656c2063616c6c206661696c65648152508573ffffffffffffffffffffffffffffffffffffffff166111649092919063ffffffff16565b8051909150156105405780806020019051810190611c989190612432565b610540576040517f08c379a000000000000000000000000000000000000000000000000000000000815260206004820152602a60248201527f5361666545524332303a204552433230206f7065726174696f6e20646964206e60448201527f6f7420737563636565640000000000000000000000000000000000000000000060648201526084016105c0565b606082471015611db6576040517f08c379a000000000000000000000000000000000000000000000000000000000815260206004820152602660248201527f416464726573733a20696e73756666696369656e742062616c616e636520666f60448201527f722063616c6c000000000000000000000000000000000000000000000000000060648201526084016105c0565b843b611e1e576040517f08c379a000000000000000000000000000000000000000000000000000000000815260206004820152601d60248201527f416464726573733a2063616c6c20746f206e6f6e2d636f6e747261637400000060448201526064016105c0565b6000808673ffffffffffffffffffffffffffffffffffffffff168587604051611e4791906125c2565b60006040518083038185875af1925050503d8060008114611e84576040519150601f19603f3d011682016040523d82523d6000602084013e611e89565b606091505b5091509150611e998282866122f3565b979650505050505050565b60606000611eb383600261272b565b611ebe9060026126d8565b67ffffffffffffffff811115611ed657611ed66128c5565b6040519080825280601f01601f191660200182016040528015611f00576020820181803683370190505b5090507f300000000000000000000000000000000000000000000000000000000000000081600081518110611f3757611f37612896565b60200101907effffffffffffffffffffffffffffffffffffffffffffffffffffffffffffff1916908160001a9053507f780000000000000000000000000000000000000000000000000000000000000081600181518110611f9a57611f9a612896565b60200101907effffffffffffffffffffffffffffffffffffffffffffffffffffffffffffff1916908160001a9053506000611fd684600261272b565b611fe19060016126d8565b90505b600181111561207e577f303132333435363738396162636465660000000000000000000000000000000085600f166010811061202257612022612896565b1a60f81b82828151811061203857612038612896565b60200101907effffffffffffffffffffffffffffffffffffffffffffffffffffffffffffff1916908160001a90535060049490941c93612077816127ab565b9050611fe4565b508315611176576040517f08c379a000000000000000000000000000000000000000000000000000000000815260206004820181905260248201527f537472696e67733a20686578206c656e67746820696e73756666696369656e7460448201526064016105c0565b6006546040517f70a0823100000000000000000000000000000000000000000000000000000000815230600482015260009173ffffffffffffffffffffffffffffffffffffffff16906370a082319060240160206040518083038186803b15801561215157600080fd5b505afa158015612165573d6000803e3d6000fd5b505050506040513d601f19601f82011682018060405250810190612189919061255f565b90506009548111156122f0576005546040805160a081019091526008805473ffffffffffffffffffffffffffffffffffffffff9093169263c04b8d59929182916121d2906127e0565b80601f01602080910402602001604051908101604052809291908181526020018280546121fe906127e0565b801561224b5780601f106122205761010080835404028352916020019161224b565b820191906000526020600020905b81548152906001019060200180831161222e57829003601f168201915b505050505081526020013073ffffffffffffffffffffffffffffffffffffffff16815260200142815260200184815260200160008152506040518263ffffffff1660e01b815260040161229e9190612672565b602060405180830381600087803b1580156122b857600080fd5b505af11580156122cc573d6000803e3d6000fd5b505050506040513d601f19601f820116820180604052508101906105d3919061255f565b50565b60608315612302575081611176565b8251156123125782518084602001fd5b816040517f08c379a00000000000000000000000000000000000000000000000000000000081526004016105c0919061265f565b828054612352906127e0565b90600052602060002090601f01602090048101928261237457600085556123ba565b82601f1061238d57805160ff19168380011785556123ba565b828001600101855582156123ba579182015b828111156123ba57825182559160200191906001019061239f565b506109b99291505b808211156109b957600081556001016123c2565b803573ffffffffffffffffffffffffffffffffffffffff811681146123fa57600080fd5b919050565b6000806040838503121561241257600080fd5b61241b836123d6565b9150612429602084016123d6565b90509250929050565b60006020828403121561244457600080fd5b8151801515811461117657600080fd5b60006020828403121561246657600080fd5b5035919050565b6000806040838503121561248057600080fd5b82359150612429602084016123d6565b6000602082840312156124a257600080fd5b813567ffffffffffffffff808211156124ba57600080fd5b818401915084601f8301126124ce57600080fd5b8135818111156124e0576124e06128c5565b604051601f82017fffffffffffffffffffffffffffffffffffffffffffffffffffffffffffffffe0908116603f01168101908382118183101715612526576125266128c5565b8160405282815287602084870101111561253f57600080fd5b826020860160208301376000928101602001929092525095945050505050565b60006020828403121561257157600080fd5b5051919050565b6000815180845261259081602086016020860161277f565b601f017fffffffffffffffffffffffffffffffffffffffffffffffffffffffffffffffe0169290920160200192915050565b600082516125d481846020870161277f565b9190910192915050565b7f416363657373436f6e74726f6c3a206163636f756e742000000000000000000081526000835161261681601785016020880161277f565b7f206973206d697373696e6720726f6c6520000000000000000000000000000000601791840191820152835161265381602884016020880161277f565b01602801949350505050565b6020815260006111766020830184612578565b602081526000825160a0602084015261268e60c0840182612578565b905073ffffffffffffffffffffffffffffffffffffffff60208501511660408401526040840151606084015260608401516080840152608084015160a08401528091505092915050565b600082198211156126eb576126eb612867565b500190565b600082612726577f4e487b7100000000000000000000000000000000000000000000000000000000600052601260045260246000fd5b500490565b6000817fffffffffffffffffffffffffffffffffffffffffffffffffffffffffffffffff048311821515161561276357612763612867565b500290565b60008282101561277a5761277a612867565b500390565b60005b8381101561279a578181015183820152602001612782565b83811115610b905750506000910152565b6000816127ba576127ba612867565b507fffffffffffffffffffffffffffffffffffffffffffffffffffffffffffffffff0190565b600181811c908216806127f457607f821691505b60208210811415610514577f4e487b7100000000000000000000000000000000000000000000000000000000600052602260045260246000fd5b60007fffffffffffffffffffffffffffffffffffffffffffffffffffffffffffffffff82141561286057612860612867565b5060010190565b7f4e487b7100000000000000000000000000000000000000000000000000000000600052601160045260246000fd5b7f4e487b7100000000000000000000000000000000000000000000000000000000600052603260045260246000fd5b7f4e487b7100000000000000000000000000000000000000000000000000000000600052604160045260246000fdfea26469706673582212203eb4d9cfa2e040a715a5242d5b3a2f5ecc15f057dee03355344fcb63312c0f1d64736f6c63430008070033928286c473ded01ff8bf61a1986f14a0579066072fa8261442d9fea514d93a4c55435dd261a4b9b3364963f7738a7a662ad9c84396d64be3365284bb7f0a5041",
  "devdoc": {
    "author": "Forked from https://github.com/Grandthrax/yearnv2/blob/master/contracts/GenericDyDx/GenericCompound.sol",
    "details": "This contract is the Rinkeby version of `GenericCompound`, it differs in the `apr` function",
    "kind": "dev",
    "methods": {
      "aprAfterDeposit(uint256)": {
        "params": {
          "amount": "The amount to add to the lending platform"
        }
      },
      "constructor": {
        "params": {
          "_cToken": "Address of the cToken",
          "_comp": "Address of the comp token",
          "_path": "Bytes to encode the swap from comp to want",
          "_strategy": "Reference to the strategy using this lender",
          "_uniswapRouter": "Uniswap router interface to swap reward tokens",
          "governorList": "List of addresses with governor privilege",
          "guardian": "Address of the guardian"
        }
      },
      "emergencyWithdraw(uint256)": {
        "details": "Does not check if any error occurs or the amount withdrawn",
        "params": {
          "amount": "Amount to withdraw"
        }
      },
      "getRoleAdmin(bytes32)": {
        "details": "Returns the admin role that controls `role`. See {grantRole} and {revokeRole}. To change a role's admin, use {_setRoleAdmin}."
      },
      "grantRole(bytes32,address)": {
        "details": "Grants `role` to `account`. If `account` had not been already granted `role`, emits a {RoleGranted} event. Requirements: - the caller must have ``role``'s admin role."
      },
      "hasRole(bytes32,address)": {
        "details": "Returns `true` if `account` has been granted `role`."
      },
      "renounceRole(bytes32,address)": {
        "details": "Revokes `role` from the calling account. Roles are often managed via {grantRole} and {revokeRole}: this function's purpose is to provide a mechanism for accounts to lose their privileges if they are compromised (such as when a trusted device is misplaced). If the calling account had been granted `role`, emits a {RoleRevoked} event. Requirements: - the caller must be `account`."
      },
      "revokeRole(bytes32,address)": {
        "details": "Revokes `role` from `account`. If `account` had been granted `role`, emits a {RoleRevoked} event. Requirements: - the caller must have ``role``'s admin role."
      },
      "setPath(bytes)": {
        "params": {
          "_path": "New path"
        }
      },
      "sweep(address,address)": {
        "details": "Implement `_protectedTokens()` to specify any additional tokens that should be protected from sweeping in addition to `want`.",
        "params": {
          "_token": "The token to transfer out of this poolManager.",
          "to": "Address to send the tokens to."
        }
      },
      "withdraw(uint256)": {
        "params": {
          "amount": "The amount the caller wants to withdraw"
        },
        "returns": {
          "_0": "The amounts actually withdrawn"
        }
      },
      "withdrawAll()": {
        "returns": {
          "_0": "Whether everything was withdrawn or not"
        }
      }
    },
    "title": "GenericCompound",
    "version": 1
  },
  "userdoc": {
    "kind": "user",
    "methods": {
      "apr()": {
        "notice": "Returns an estimation of the current Annual Percentage Rate"
      },
      "aprAfterDeposit(uint256)": {
        "notice": "Returns an estimation of the current Annual Percentage Rate after a new deposit"
      },
      "constructor": {
        "notice": "Constructor of the GenericLenderBase"
      },
      "deposit()": {
        "notice": "Deposits the current balance to the lending platform"
      },
      "emergencyWithdraw(uint256)": {
        "notice": "Withdraws as much as possible in case of emergency and sends it to the poolManager"
      },
      "hasAssets()": {
        "notice": "Check if any assets is currently managed by this contract"
      },
      "nav()": {
        "notice": "Helper function to get the current total of assets managed by the lender."
      },
      "poolManager()": {
        "notice": "Reference to the protocol's collateral poolManager"
      },
      "setPath(bytes)": {
        "notice": "Sets the path for the swap of COMP tokens"
      },
      "strategy()": {
        "notice": "Reference to the `Strategy`"
      },
      "sweep(address,address)": {
        "notice": "Removes tokens from this Strategy that are not the type of tokens managed by this Strategy. This may be used in case of accidentally sending the wrong kind of token to this Strategy. Tokens will be sent to `governance()`. This will fail if an attempt is made to sweep `want`, or any tokens that are protected by this Strategy. This may only be called by governance."
      },
      "underlyingBalanceStored()": {
        "notice": "Helper function the current balance of cTokens"
      },
      "want()": {
        "notice": "Reference to the token lent"
      },
      "weightedApr()": {
        "notice": "Returns an estimation of the current Annual Percentage Rate weighted by a factor"
      },
      "withdraw(uint256)": {
        "notice": "Withdraws a given amount from lender"
      },
      "withdrawAll()": {
        "notice": "Withdraws as much as possible"
      }
    },
    "notice": "A contract to lend any ERC20 to Compound",
    "version": 1
  },
  "storageLayout": {
    "storage": [
      {
        "astId": 16499,
        "contract": "contracts/genericLender/GenericCompoundRinkeby.sol:GenericCompoundRinkeby",
        "label": "_roles",
        "offset": 0,
        "slot": "0",
        "type": "t_mapping(t_bytes32,t_struct(RoleData)16494_storage)"
      },
      {
        "astId": 22001,
        "contract": "contracts/genericLender/GenericCompoundRinkeby.sol:GenericCompoundRinkeby",
        "label": "lenderName",
        "offset": 0,
        "slot": "1",
        "type": "t_string_storage"
      },
      {
        "astId": 22005,
        "contract": "contracts/genericLender/GenericCompoundRinkeby.sol:GenericCompoundRinkeby",
        "label": "poolManager",
        "offset": 0,
        "slot": "2",
        "type": "t_contract(IPoolManager)23066"
      },
      {
        "astId": 22009,
        "contract": "contracts/genericLender/GenericCompoundRinkeby.sol:GenericCompoundRinkeby",
        "label": "strategy",
        "offset": 0,
        "slot": "3",
        "type": "t_address"
      },
      {
        "astId": 22013,
        "contract": "contracts/genericLender/GenericCompoundRinkeby.sol:GenericCompoundRinkeby",
        "label": "want",
        "offset": 0,
        "slot": "4",
        "type": "t_contract(IERC20)9459"
      },
      {
        "astId": 20664,
        "contract": "contracts/genericLender/GenericCompoundRinkeby.sol:GenericCompoundRinkeby",
        "label": "uniswapRouter",
        "offset": 0,
        "slot": "5",
        "type": "t_address"
      },
      {
        "astId": 20666,
        "contract": "contracts/genericLender/GenericCompoundRinkeby.sol:GenericCompoundRinkeby",
        "label": "comp",
        "offset": 0,
        "slot": "6",
        "type": "t_address"
      },
      {
        "astId": 20669,
        "contract": "contracts/genericLender/GenericCompoundRinkeby.sol:GenericCompoundRinkeby",
        "label": "cToken",
        "offset": 0,
        "slot": "7",
        "type": "t_contract(CErc20I)24038"
      },
      {
        "astId": 20671,
        "contract": "contracts/genericLender/GenericCompoundRinkeby.sol:GenericCompoundRinkeby",
        "label": "path",
        "offset": 0,
        "slot": "8",
        "type": "t_bytes_storage"
      },
      {
        "astId": 20674,
        "contract": "contracts/genericLender/GenericCompoundRinkeby.sol:GenericCompoundRinkeby",
        "label": "minCompToSell",
        "offset": 0,
        "slot": "9",
        "type": "t_uint256"
      }
    ],
    "types": {
      "t_address": {
        "encoding": "inplace",
        "label": "address",
        "numberOfBytes": "20"
      },
      "t_bool": {
        "encoding": "inplace",
        "label": "bool",
        "numberOfBytes": "1"
      },
      "t_bytes32": {
        "encoding": "inplace",
        "label": "bytes32",
        "numberOfBytes": "32"
      },
      "t_bytes_storage": {
        "encoding": "bytes",
        "label": "bytes",
        "numberOfBytes": "32"
      },
      "t_contract(CErc20I)24038": {
        "encoding": "inplace",
        "label": "contract CErc20I",
        "numberOfBytes": "20"
      },
      "t_contract(IERC20)9459": {
        "encoding": "inplace",
        "label": "contract IERC20",
        "numberOfBytes": "20"
      },
      "t_contract(IPoolManager)23066": {
        "encoding": "inplace",
        "label": "contract IPoolManager",
        "numberOfBytes": "20"
      },
      "t_mapping(t_address,t_bool)": {
        "encoding": "mapping",
        "key": "t_address",
        "label": "mapping(address => bool)",
        "numberOfBytes": "32",
        "value": "t_bool"
      },
      "t_mapping(t_bytes32,t_struct(RoleData)16494_storage)": {
        "encoding": "mapping",
        "key": "t_bytes32",
        "label": "mapping(bytes32 => struct AccessControl.RoleData)",
        "numberOfBytes": "32",
        "value": "t_struct(RoleData)16494_storage"
      },
      "t_string_storage": {
        "encoding": "bytes",
        "label": "string",
        "numberOfBytes": "32"
      },
      "t_struct(RoleData)16494_storage": {
        "encoding": "inplace",
        "label": "struct AccessControl.RoleData",
        "members": [
          {
            "astId": 16491,
            "contract": "contracts/genericLender/GenericCompoundRinkeby.sol:GenericCompoundRinkeby",
            "label": "members",
            "offset": 0,
            "slot": "0",
            "type": "t_mapping(t_address,t_bool)"
          },
          {
            "astId": 16493,
            "contract": "contracts/genericLender/GenericCompoundRinkeby.sol:GenericCompoundRinkeby",
            "label": "adminRole",
            "offset": 0,
            "slot": "1",
            "type": "t_bytes32"
          }
        ],
        "numberOfBytes": "64"
      },
      "t_uint256": {
        "encoding": "inplace",
        "label": "uint256",
        "numberOfBytes": "32"
      }
    }
  }
}