{
  "address": "0xD49fa97fe1A56d42C8082fFaA56A9525cC8675ea",
  "abi": [
    {
      "inputs": [
        {
          "internalType": "address",
          "name": "_rewardToken",
          "type": "address"
        },
        {
          "internalType": "address",
          "name": "_feeDistributor",
          "type": "address"
        },
        {
          "internalType": "address",
          "name": "_stableMaster",
          "type": "address"
        },
        {
          "internalType": "address",
          "name": "whitelisted",
          "type": "address"
        },
        {
          "internalType": "address",
          "name": "governor",
          "type": "address"
        },
        {
          "internalType": "address[]",
          "name": "guardians",
          "type": "address[]"
        }
      ],
      "stateMutability": "nonpayable",
      "type": "constructor"
    },
    {
      "anonymous": false,
      "inputs": [
        {
          "indexed": true,
          "internalType": "address",
          "name": "newFeeDistributor",
          "type": "address"
        },
        {
          "indexed": true,
          "internalType": "address",
          "name": "oldFeeDistributor",
          "type": "address"
        }
      ],
      "name": "FeeDistributorUpdated",
      "type": "event"
    },
    {
      "anonymous": false,
      "inputs": [
        {
          "indexed": true,
          "internalType": "address",
          "name": "token",
          "type": "address"
        },
        {
          "indexed": false,
          "internalType": "bytes",
          "name": "newPath",
          "type": "bytes"
        },
        {
          "indexed": false,
          "internalType": "bytes",
          "name": "oldPath",
          "type": "bytes"
        }
      ],
      "name": "PathUpdated",
      "type": "event"
    },
    {
      "anonymous": false,
      "inputs": [
        {
          "indexed": false,
          "internalType": "address",
          "name": "account",
          "type": "address"
        }
      ],
      "name": "Paused",
      "type": "event"
    },
    {
      "anonymous": false,
      "inputs": [
        {
          "indexed": true,
          "internalType": "address",
          "name": "tokenAddress",
          "type": "address"
        },
        {
          "indexed": true,
          "internalType": "address",
          "name": "to",
          "type": "address"
        },
        {
          "indexed": false,
          "internalType": "uint256",
          "name": "amount",
          "type": "uint256"
        }
      ],
      "name": "Recovered",
      "type": "event"
    },
    {
      "anonymous": false,
      "inputs": [
        {
          "indexed": true,
          "internalType": "bytes32",
          "name": "role",
          "type": "bytes32"
        },
        {
          "indexed": true,
          "internalType": "bytes32",
          "name": "previousAdminRole",
          "type": "bytes32"
        },
        {
          "indexed": true,
          "internalType": "bytes32",
          "name": "newAdminRole",
          "type": "bytes32"
        }
      ],
      "name": "RoleAdminChanged",
      "type": "event"
    },
    {
      "anonymous": false,
      "inputs": [
        {
          "indexed": true,
          "internalType": "bytes32",
          "name": "role",
          "type": "bytes32"
        },
        {
          "indexed": true,
          "internalType": "address",
          "name": "account",
          "type": "address"
        },
        {
          "indexed": true,
          "internalType": "address",
          "name": "sender",
          "type": "address"
        }
      ],
      "name": "RoleGranted",
      "type": "event"
    },
    {
      "anonymous": false,
      "inputs": [
        {
          "indexed": true,
          "internalType": "bytes32",
          "name": "role",
          "type": "bytes32"
        },
        {
          "indexed": true,
          "internalType": "address",
          "name": "account",
          "type": "address"
        },
        {
          "indexed": true,
          "internalType": "address",
          "name": "sender",
          "type": "address"
        }
      ],
      "name": "RoleRevoked",
      "type": "event"
    },
    {
      "anonymous": false,
      "inputs": [
        {
          "indexed": true,
          "internalType": "address",
          "name": "token",
          "type": "address"
        }
      ],
      "name": "TokenRevoked",
      "type": "event"
    },
    {
      "anonymous": false,
      "inputs": [
        {
          "indexed": false,
          "internalType": "address",
          "name": "account",
          "type": "address"
        }
      ],
      "name": "Unpaused",
      "type": "event"
    },
    {
      "inputs": [],
      "name": "DEFAULT_ADMIN_ROLE",
      "outputs": [
        {
          "internalType": "bytes32",
          "name": "",
          "type": "bytes32"
        }
      ],
      "stateMutability": "view",
      "type": "function"
    },
    {
      "inputs": [],
      "name": "GOVERNOR_ROLE",
      "outputs": [
        {
          "internalType": "bytes32",
          "name": "",
          "type": "bytes32"
        }
      ],
      "stateMutability": "view",
      "type": "function"
    },
    {
      "inputs": [],
      "name": "GUARDIAN_ROLE",
      "outputs": [
        {
          "internalType": "bytes32",
          "name": "",
          "type": "bytes32"
        }
      ],
      "stateMutability": "view",
      "type": "function"
    },
    {
      "inputs": [],
      "name": "WHITELISTED_ROLE",
      "outputs": [
        {
          "internalType": "bytes32",
          "name": "",
          "type": "bytes32"
        }
      ],
      "stateMutability": "view",
      "type": "function"
    },
    {
      "inputs": [
        {
          "internalType": "address",
          "name": "token",
          "type": "address"
        }
      ],
      "name": "burn",
      "outputs": [],
      "stateMutability": "nonpayable",
      "type": "function"
    },
    {
      "inputs": [
        {
          "internalType": "address",
          "name": "token",
          "type": "address"
        },
        {
          "internalType": "uint256",
          "name": "amount",
          "type": "uint256"
        },
        {
          "internalType": "uint256",
          "name": "",
          "type": "uint256"
        },
        {
          "internalType": "bool",
          "name": "transfer",
          "type": "bool"
        }
      ],
      "name": "buyback",
      "outputs": [],
      "stateMutability": "nonpayable",
      "type": "function"
    },
    {
      "inputs": [],
      "name": "feeDistributor",
      "outputs": [
        {
          "internalType": "contract IFeeDistributor",
          "name": "",
          "type": "address"
        }
      ],
      "stateMutability": "view",
      "type": "function"
    },
    {
      "inputs": [
        {
          "internalType": "bytes32",
          "name": "role",
          "type": "bytes32"
        }
      ],
      "name": "getRoleAdmin",
      "outputs": [
        {
          "internalType": "bytes32",
          "name": "",
          "type": "bytes32"
        }
      ],
      "stateMutability": "view",
      "type": "function"
    },
    {
      "inputs": [
        {
          "internalType": "bytes32",
          "name": "role",
          "type": "bytes32"
        },
        {
          "internalType": "address",
          "name": "account",
          "type": "address"
        }
      ],
      "name": "grantRole",
      "outputs": [],
      "stateMutability": "nonpayable",
      "type": "function"
    },
    {
      "inputs": [
        {
          "internalType": "bytes32",
          "name": "role",
          "type": "bytes32"
        },
        {
          "internalType": "address",
          "name": "account",
          "type": "address"
        }
      ],
      "name": "hasRole",
      "outputs": [
        {
          "internalType": "bool",
          "name": "",
          "type": "bool"
        }
      ],
      "stateMutability": "view",
      "type": "function"
    },
    {
      "inputs": [],
      "name": "pause",
      "outputs": [],
      "stateMutability": "nonpayable",
      "type": "function"
    },
    {
      "inputs": [],
      "name": "paused",
      "outputs": [
        {
          "internalType": "bool",
          "name": "",
          "type": "bool"
        }
      ],
      "stateMutability": "view",
      "type": "function"
    },
    {
      "inputs": [],
      "name": "poolManager",
      "outputs": [
        {
          "internalType": "address",
          "name": "",
          "type": "address"
        }
      ],
      "stateMutability": "view",
      "type": "function"
    },
    {
      "inputs": [
        {
          "internalType": "address",
          "name": "tokenAddress",
          "type": "address"
        },
        {
          "internalType": "address",
          "name": "to",
          "type": "address"
        },
        {
          "internalType": "uint256",
          "name": "amount",
          "type": "uint256"
        }
      ],
      "name": "recoverERC20",
      "outputs": [],
      "stateMutability": "nonpayable",
      "type": "function"
    },
    {
      "inputs": [
        {
          "internalType": "bytes32",
          "name": "role",
          "type": "bytes32"
        },
        {
          "internalType": "address",
          "name": "account",
          "type": "address"
        }
      ],
      "name": "renounceRole",
      "outputs": [],
      "stateMutability": "nonpayable",
      "type": "function"
    },
    {
      "inputs": [
        {
          "internalType": "bytes32",
          "name": "role",
          "type": "bytes32"
        },
        {
          "internalType": "address",
          "name": "account",
          "type": "address"
        }
      ],
      "name": "revokeRole",
      "outputs": [],
      "stateMutability": "nonpayable",
      "type": "function"
    },
    {
      "inputs": [],
      "name": "rewardToken",
      "outputs": [
        {
          "internalType": "contract IERC20",
          "name": "",
          "type": "address"
        }
      ],
      "stateMutability": "view",
      "type": "function"
    },
    {
      "inputs": [],
      "name": "sendToFeeDistributor",
      "outputs": [],
      "stateMutability": "nonpayable",
      "type": "function"
    },
    {
      "inputs": [
        {
          "internalType": "address",
          "name": "_feeDistributor",
          "type": "address"
        }
      ],
      "name": "setFeeDistributor",
      "outputs": [],
      "stateMutability": "nonpayable",
      "type": "function"
    },
    {
      "inputs": [],
      "name": "stableMaster",
      "outputs": [
        {
          "internalType": "contract IStableMasterFront",
          "name": "",
          "type": "address"
        }
      ],
      "stateMutability": "view",
      "type": "function"
    },
    {
      "inputs": [],
      "name": "supportedToken",
      "outputs": [
        {
          "internalType": "address",
          "name": "",
          "type": "address"
        }
      ],
      "stateMutability": "view",
      "type": "function"
    },
    {
      "inputs": [],
      "name": "unpause",
      "outputs": [],
      "stateMutability": "nonpayable",
      "type": "function"
    }
  ],
  "transactionHash": "0xe552e89b9e5f5d168be37d83f5a5c81b796fc9a337641d5be9bad321901c4ba8",
  "args": [
    "0x550610839F32AbDab47190484B481F947609392b",
    "0x0aF9f44343a7984A8Aa7E1F46b7fcdc0aDaA2B6e",
    "0xA804060182977c3CcACee5ee46884192f553EbB4",
    "0x8A97FBD532A5C1eD67fd67c11dD76013abAc840e",
    "0x8A97FBD532A5C1eD67fd67c11dD76013abAc840e",
    [
      "0x8A97FBD532A5C1eD67fd67c11dD76013abAc840e",
      "0x3931C80BF7a911fcda8b684b23A433D124b59F06"
    ]
  ],
  "solcInputHash": "f5b703f620df957f43c941891d87f163",
  "bytecode": "0x6101006040523480156200001257600080fd5b50604051620029ea380380620029ea8339810160408190526200003591620009f6565b6001805460ff1916905585858484846001600160a01b038416158015906200006557506001600160a01b03831615155b80156200007a57506001600160a01b03821615155b620000b05760405162461bcd60e51b81526020600482015260016024820152600360fc1b60448201526064015b60405180910390fd5b60018054610100600160a81b0319166101006001600160a01b038781169190910291909117909155606086901b6001600160601b031916608052620001079086168560001962000465602090811b62000d0617901c565b6000815111620001405760405162461bcd60e51b815260206004820152600360248201526231303160e81b6044820152606401620000a7565b60005b8151811015620002045760006001600160a01b03168282815181106200016d576200016d62000c1c565b60200260200101516001600160a01b03161415620001b25760405162461bcd60e51b81526020600482015260016024820152600360fc1b6044820152606401620000a7565b620001ef600080516020620029ca833981519152838381518110620001db57620001db62000c1c565b6020026020010151620005c460201b60201c565b80620001fb8162000bf2565b91505062000143565b5062000220600080516020620029aa83398151915284620005c4565b6200023b6000805160206200298a83398151915283620005c4565b620002566000805160206200298a83398151915280620005d4565b62000280600080516020620029ca8339815191526000805160206200298a833981519152620005d4565b620002aa600080516020620029aa833981519152600080516020620029ca833981519152620005d4565b620002b462000628565b50505050506001600160a01b038416620002f55760405162461bcd60e51b81526020600482015260016024820152600360fc1b6044820152606401620000a7565b836001600160a01b031660a0816001600160a01b031660601b815250506000866001600160a01b031663dc4c90d36040518163ffffffff1660e01b815260040160206040518083038186803b1580156200034e57600080fd5b505afa15801562000363573d6000803e3d6000fd5b505050506040513d601f19601f82011682018060405250810190620003899190620009d8565b9050806001600160a01b031660c0816001600160a01b031660601b815250506000816001600160a01b031663fc0c546a6040518163ffffffff1660e01b815260040160206040518083038186803b158015620003e457600080fd5b505afa158015620003f9573d6000803e3d6000fd5b505050506040513d601f19601f820116820180604052508101906200041f9190620009d8565b606081901b6001600160601b03191660e0529050620004576001600160a01b0382168760001962000465602090811b62000d0617901c565b505050505050505062000c48565b801580620004f35750604051636eb1769f60e11b81523060048201526001600160a01b03838116602483015284169063dd62ed3e9060440160206040518083038186803b158015620004b657600080fd5b505afa158015620004cb573d6000803e3d6000fd5b505050506040513d601f19601f82011682018060405250810190620004f1919062000b52565b155b620005675760405162461bcd60e51b815260206004820152603660248201527f5361666545524332303a20617070726f76652066726f6d206e6f6e2d7a65726f60448201527f20746f206e6f6e2d7a65726f20616c6c6f77616e6365000000000000000000006064820152608401620000a7565b604080516001600160a01b038416602482015260448082018490528251808303909101815260649091019091526020810180516001600160e01b0390811663095ea7b360e01b17909152620005bf918591620006b116565b505050565b620005d082826200078f565b5050565b600082815260208190526040902060010154819060405184907fbd79b86ffe0ab8e8776151514217cd7cacd52c909f66475c3af44e129f0b00ff90600090a460009182526020829052604090912060010155565b60015460ff1615620006705760405162461bcd60e51b815260206004820152601060248201526f14185d5cd8589b194e881c185d5cd95960821b6044820152606401620000a7565b6001805460ff1916811790556040805133815290517f62e78cea01bee320cd4e420270b5ea74000d11b0c9f74754ebdbfc544b05a2589181900360200190a1565b60006200070d826040518060400160405280602081526020017f5361666545524332303a206c6f772d6c6576656c2063616c6c206661696c6564815250856001600160a01b03166200082f60201b62000f15179092919060201c565b805190915015620005bf57808060200190518101906200072e919062000b2e565b620005bf5760405162461bcd60e51b815260206004820152602a60248201527f5361666545524332303a204552433230206f7065726174696f6e20646964206e6044820152691bdd081cdd58d8d9595960b21b6064820152608401620000a7565b6000828152602081815260408083206001600160a01b038516845290915290205460ff16620005d0576000828152602081815260408083206001600160a01b03851684529091529020805460ff19166001179055620007eb3390565b6001600160a01b0316816001600160a01b0316837f2f8788117e7eff1d82e926ec794901d17c78024a50270940304540a733656f0d60405160405180910390a45050565b60606200084084846000856200084a565b90505b9392505050565b606082471015620008ad5760405162461bcd60e51b815260206004820152602660248201527f416464726573733a20696e73756666696369656e742062616c616e636520666f6044820152651c8818d85b1b60d21b6064820152608401620000a7565b843b620008fd5760405162461bcd60e51b815260206004820152601d60248201527f416464726573733a2063616c6c20746f206e6f6e2d636f6e74726163740000006044820152606401620000a7565b600080866001600160a01b031685876040516200091b919062000b6c565b60006040518083038185875af1925050503d80600081146200095a576040519150601f19603f3d011682016040523d82523d6000602084013e6200095f565b606091505b509092509050620009728282866200097d565b979650505050505050565b606083156200098e57508162000843565b8251156200099f5782518084602001fd5b8160405162461bcd60e51b8152600401620000a7919062000b8a565b80516001600160a01b0381168114620009d357600080fd5b919050565b600060208284031215620009eb57600080fd5b6200084382620009bb565b60008060008060008060c0878903121562000a1057600080fd5b62000a1b87620009bb565b9550602062000a2c818901620009bb565b955062000a3c60408901620009bb565b945062000a4c60608901620009bb565b935062000a5c60808901620009bb565b60a08901519093506001600160401b038082111562000a7a57600080fd5b818a0191508a601f83011262000a8f57600080fd5b81518181111562000aa45762000aa462000c32565b8060051b604051601f19603f8301168101818110858211171562000acc5762000acc62000c32565b604052828152858101935084860182860187018f101562000aec57600080fd5b600095505b8386101562000b1a5762000b0581620009bb565b85526001959095019493860193860162000af1565b508096505050505050509295509295509295565b60006020828403121562000b4157600080fd5b815180151581146200084357600080fd5b60006020828403121562000b6557600080fd5b5051919050565b6000825162000b8081846020870162000bbf565b9190910192915050565b602081526000825180602084015262000bab81604085016020870162000bbf565b601f01601f19169190910160400192915050565b60005b8381101562000bdc57818101518382015260200162000bc2565b8381111562000bec576000848401525b50505050565b600060001982141562000c1557634e487b7160e01b600052601160045260246000fd5b5060010190565b634e487b7160e01b600052603260045260246000fd5b634e487b7160e01b600052604160045260246000fd5b60805160601c60a05160601c60c05160601c60e05160601c611cd262000cb8600039600081816101db01526108de0152600081816103d101526109db0152600081816102bc0152610a030152600081816103f8015281816105b001528181610aa50152610c110152611cd26000f3fe608060405234801561001057600080fd5b50600436106101825760003560e01c80637a3226ec116100d8578063adce20581161008c578063d547741f11610066578063d547741f146103b9578063dc4c90d3146103cc578063f7c618c1146103f357600080fd5b8063adce20581461036c578063ccc574901461037f578063ccfc2e8d146103a657600080fd5b806389afcb44116100bd57806389afcb441461030d57806391d1485414610320578063a217fddf1461036457600080fd5b80637a3226ec146102de5780638456cb591461030557600080fd5b80632f2ff15d1161013a5780633f4ba83a116101145780633f4ba83a146102985780635c975abb146102a05780636ac5dc46146102b757600080fd5b80632f2ff15d1461026a57806333baecb21461027d57806336568abe1461028557600080fd5b80631171bda91161016b5780631171bda9146101fd578063248a9ca31461021257806324ea54f41461024357600080fd5b80630d43e8ad146101875780630ee0599c146101d6575b600080fd5b6001546101ac90610100900473ffffffffffffffffffffffffffffffffffffffff1681565b60405173ffffffffffffffffffffffffffffffffffffffff90911681526020015b60405180910390f35b6101ac7f000000000000000000000000000000000000000000000000000000000000000081565b61021061020b36600461195e565b61041a565b005b6102356102203660046119ff565b60009081526020819052604090206001015490565b6040519081526020016101cd565b6102357f55435dd261a4b9b3364963f7738a7a662ad9c84396d64be3365284bb7f0a504181565b610210610278366004611a18565b6104d3565b6102106104fe565b610210610293366004611a18565b61061d565b6102106106aa565b60015460ff165b60405190151581526020016101cd565b6101ac7f000000000000000000000000000000000000000000000000000000000000000081565b6102357f8429d542926e6695b59ac6fbdcd9b37e8b1aeb757afab06ab60b1bb5878c3b4981565b6102106106e0565b61021061031b366004611943565b610713565b6102a761032e366004611a18565b60009182526020828152604080842073ffffffffffffffffffffffffffffffffffffffff93909316845291905290205460ff1690565b610235600081565b61021061037a36600461199a565b610844565b6102357f7935bd0ae54bc31f548c14dba4d37c5c64b3f8ca900cb468fb8abd54d5894f5581565b6102106103b4366004611943565b610b18565b6102106103c7366004611a18565b610ce0565b6101ac7f000000000000000000000000000000000000000000000000000000000000000081565b6101ac7f000000000000000000000000000000000000000000000000000000000000000081565b7f7935bd0ae54bc31f548c14dba4d37c5c64b3f8ca900cb468fb8abd54d5894f556104458133610f2e565b61046673ffffffffffffffffffffffffffffffffffffffff85168484610ffe565b8273ffffffffffffffffffffffffffffffffffffffff168473ffffffffffffffffffffffffffffffffffffffff167ffff3b3844276f57024e0b42afec1a37f75db36511e43819a4f2a63ab7862b648846040516104c591815260200190565b60405180910390a350505050565b6000828152602081905260409020600101546104ef8133610f2e565b6104f98383611054565b505050565b60015460ff1615610570576040517f08c379a000000000000000000000000000000000000000000000000000000000815260206004820152601060248201527f5061757361626c653a207061757365640000000000000000000000000000000060448201526064015b60405180910390fd5b6001546040517f89afcb4400000000000000000000000000000000000000000000000000000000815273ffffffffffffffffffffffffffffffffffffffff7f000000000000000000000000000000000000000000000000000000000000000081166004830152610100909204909116906389afcb4490602401600060405180830381600087803b15801561060357600080fd5b505af1158015610617573d6000803e3d6000fd5b50505050565b73ffffffffffffffffffffffffffffffffffffffff8116331461069c576040517f08c379a000000000000000000000000000000000000000000000000000000000815260206004820152600260248201527f37310000000000000000000000000000000000000000000000000000000000006044820152606401610567565b6106a68282611144565b5050565b7f55435dd261a4b9b3364963f7738a7a662ad9c84396d64be3365284bb7f0a50416106d58133610f2e565b6106dd6111fb565b50565b7f55435dd261a4b9b3364963f7738a7a662ad9c84396d64be3365284bb7f0a504161070b8133610f2e565b6106dd6112dc565b60015460ff1615610780576040517f08c379a000000000000000000000000000000000000000000000000000000000815260206004820152601060248201527f5061757361626c653a20706175736564000000000000000000000000000000006044820152606401610567565b6040517f70a0823100000000000000000000000000000000000000000000000000000000815233600482018190526106dd91309073ffffffffffffffffffffffffffffffffffffffff8516906370a082319060240160206040518083038186803b1580156107ed57600080fd5b505afa158015610801573d6000803e3d6000fd5b505050506040513d601f19601f820116820180604052508101906108259190611a44565b73ffffffffffffffffffffffffffffffffffffffff851692919061139a565b60015460ff16156108b1576040517f08c379a000000000000000000000000000000000000000000000000000000000815260206004820152601060248201527f5061757361626c653a20706175736564000000000000000000000000000000006044820152606401610567565b7f8429d542926e6695b59ac6fbdcd9b37e8b1aeb757afab06ab60b1bb5878c3b496108dc8133610f2e565b7f000000000000000000000000000000000000000000000000000000000000000073ffffffffffffffffffffffffffffffffffffffff168573ffffffffffffffffffffffffffffffffffffffff1614610991576040517f08c379a000000000000000000000000000000000000000000000000000000000815260206004820152600260248201527f32300000000000000000000000000000000000000000000000000000000000006044820152606401610567565b6040517f2e2d29840000000000000000000000000000000000000000000000000000000081526004810185905230602482015273ffffffffffffffffffffffffffffffffffffffff7f0000000000000000000000000000000000000000000000000000000000000000811660448301527f00000000000000000000000000000000000000000000000000000000000000001690632e2d298490606401600060405180830381600087803b158015610a4757600080fd5b505af1158015610a5b573d6000803e3d6000fd5b505050508115610b11576001546040517f89afcb4400000000000000000000000000000000000000000000000000000000815273ffffffffffffffffffffffffffffffffffffffff7f000000000000000000000000000000000000000000000000000000000000000081166004830152610100909204909116906389afcb4490602401600060405180830381600087803b158015610af857600080fd5b505af1158015610b0c573d6000803e3d6000fd5b505050505b5050505050565b7f7935bd0ae54bc31f548c14dba4d37c5c64b3f8ca900cb468fb8abd54d5894f55610b438133610f2e565b73ffffffffffffffffffffffffffffffffffffffff8216610bc0576040517f08c379a000000000000000000000000000000000000000000000000000000000815260206004820152600160248201527f30000000000000000000000000000000000000000000000000000000000000006044820152606401610567565b6001805473ffffffffffffffffffffffffffffffffffffffff8481166101009081027fffffffffffffffffffffff0000000000000000000000000000000000000000ff8416179093559190048116907f000000000000000000000000000000000000000000000000000000000000000090610c5e908216857fffffffffffffffffffffffffffffffffffffffffffffffffffffffffffffffff610d06565b610c8073ffffffffffffffffffffffffffffffffffffffff8216836000610d06565b8173ffffffffffffffffffffffffffffffffffffffff168473ffffffffffffffffffffffffffffffffffffffff167fbb470d12faa974cbae56bc3c345446451b4d504aa13806836f3df6d032fa9a9160405160405180910390a350505050565b600082815260208190526040902060010154610cfc8133610f2e565b6104f98383611144565b801580610db557506040517fdd62ed3e00000000000000000000000000000000000000000000000000000000815230600482015273ffffffffffffffffffffffffffffffffffffffff838116602483015284169063dd62ed3e9060440160206040518083038186803b158015610d7b57600080fd5b505afa158015610d8f573d6000803e3d6000fd5b505050506040513d601f19601f82011682018060405250810190610db39190611a44565b155b610e41576040517f08c379a000000000000000000000000000000000000000000000000000000000815260206004820152603660248201527f5361666545524332303a20617070726f76652066726f6d206e6f6e2d7a65726f60448201527f20746f206e6f6e2d7a65726f20616c6c6f77616e6365000000000000000000006064820152608401610567565b60405173ffffffffffffffffffffffffffffffffffffffff83166024820152604481018290526104f99084907f095ea7b300000000000000000000000000000000000000000000000000000000906064015b604080517fffffffffffffffffffffffffffffffffffffffffffffffffffffffffffffffe08184030181529190526020810180517bffffffffffffffffffffffffffffffffffffffffffffffffffffffff167fffffffff00000000000000000000000000000000000000000000000000000000909316929092179091526113f8565b6060610f248484600085611504565b90505b9392505050565b60008281526020818152604080832073ffffffffffffffffffffffffffffffffffffffff8516845290915290205460ff166106a657610f848173ffffffffffffffffffffffffffffffffffffffff166014611684565b610f8f836020611684565b604051602001610fa0929190611a79565b604080517fffffffffffffffffffffffffffffffffffffffffffffffffffffffffffffffe0818403018152908290527f08c379a000000000000000000000000000000000000000000000000000000000825261056791600401611afa565b60405173ffffffffffffffffffffffffffffffffffffffff83166024820152604481018290526104f99084907fa9059cbb0000000000000000000000000000000000000000000000000000000090606401610e93565b60008281526020818152604080832073ffffffffffffffffffffffffffffffffffffffff8516845290915290205460ff166106a65760008281526020818152604080832073ffffffffffffffffffffffffffffffffffffffff85168452909152902080547fffffffffffffffffffffffffffffffffffffffffffffffffffffffffffffff001660011790556110e63390565b73ffffffffffffffffffffffffffffffffffffffff168173ffffffffffffffffffffffffffffffffffffffff16837f2f8788117e7eff1d82e926ec794901d17c78024a50270940304540a733656f0d60405160405180910390a45050565b60008281526020818152604080832073ffffffffffffffffffffffffffffffffffffffff8516845290915290205460ff16156106a65760008281526020818152604080832073ffffffffffffffffffffffffffffffffffffffff8516808552925280832080547fffffffffffffffffffffffffffffffffffffffffffffffffffffffffffffff0016905551339285917ff6391f5c32d9c69d2a47ea670b442974b53935d1edc7fd64eb21e047a839171b9190a45050565b60015460ff16611267576040517f08c379a000000000000000000000000000000000000000000000000000000000815260206004820152601460248201527f5061757361626c653a206e6f74207061757365640000000000000000000000006044820152606401610567565b600180547fffffffffffffffffffffffffffffffffffffffffffffffffffffffffffffff001690557f5db9ee0a495bf2e6ff9c91a7834c1ba4fdd244a5e8aa4e537bd38aeae4b073aa335b60405173ffffffffffffffffffffffffffffffffffffffff909116815260200160405180910390a1565b60015460ff1615611349576040517f08c379a000000000000000000000000000000000000000000000000000000000815260206004820152601060248201527f5061757361626c653a20706175736564000000000000000000000000000000006044820152606401610567565b600180547fffffffffffffffffffffffffffffffffffffffffffffffffffffffffffffff0016811790557f62e78cea01bee320cd4e420270b5ea74000d11b0c9f74754ebdbfc544b05a258336112b2565b60405173ffffffffffffffffffffffffffffffffffffffff808516602483015283166044820152606481018290526106179085907f23b872dd0000000000000000000000000000000000000000000000000000000090608401610e93565b600061145a826040518060400160405280602081526020017f5361666545524332303a206c6f772d6c6576656c2063616c6c206661696c65648152508573ffffffffffffffffffffffffffffffffffffffff16610f159092919063ffffffff16565b8051909150156104f9578080602001905181019061147891906119e2565b6104f9576040517f08c379a000000000000000000000000000000000000000000000000000000000815260206004820152602a60248201527f5361666545524332303a204552433230206f7065726174696f6e20646964206e60448201527f6f742073756363656564000000000000000000000000000000000000000000006064820152608401610567565b606082471015611596576040517f08c379a000000000000000000000000000000000000000000000000000000000815260206004820152602660248201527f416464726573733a20696e73756666696369656e742062616c616e636520666f60448201527f722063616c6c00000000000000000000000000000000000000000000000000006064820152608401610567565b843b6115fe576040517f08c379a000000000000000000000000000000000000000000000000000000000815260206004820152601d60248201527f416464726573733a2063616c6c20746f206e6f6e2d636f6e74726163740000006044820152606401610567565b6000808673ffffffffffffffffffffffffffffffffffffffff1685876040516116279190611a5d565b60006040518083038185875af1925050503d8060008114611664576040519150601f19603f3d011682016040523d82523d6000602084013e611669565b606091505b50915091506116798282866118c7565b979650505050505050565b60606000611693836002611b63565b61169e906002611b4b565b67ffffffffffffffff8111156116b6576116b6611c5f565b6040519080825280601f01601f1916602001820160405280156116e0576020820181803683370190505b5090507f30000000000000000000000000000000000000000000000000000000000000008160008151811061171757611717611c30565b60200101907effffffffffffffffffffffffffffffffffffffffffffffffffffffffffffff1916908160001a9053507f78000000000000000000000000000000000000000000000000000000000000008160018151811061177a5761177a611c30565b60200101907effffffffffffffffffffffffffffffffffffffffffffffffffffffffffffff1916908160001a90535060006117b6846002611b63565b6117c1906001611b4b565b90505b600181111561185e577f303132333435363738396162636465660000000000000000000000000000000085600f166010811061180257611802611c30565b1a60f81b82828151811061181857611818611c30565b60200101907effffffffffffffffffffffffffffffffffffffffffffffffffffffffffffff1916908160001a90535060049490941c9361185781611bcc565b90506117c4565b508315610f27576040517f08c379a000000000000000000000000000000000000000000000000000000000815260206004820181905260248201527f537472696e67733a20686578206c656e67746820696e73756666696369656e746044820152606401610567565b606083156118d6575081610f27565b8251156118e65782518084602001fd5b816040517f08c379a00000000000000000000000000000000000000000000000000000000081526004016105679190611afa565b803573ffffffffffffffffffffffffffffffffffffffff8116811461193e57600080fd5b919050565b60006020828403121561195557600080fd5b610f278261191a565b60008060006060848603121561197357600080fd5b61197c8461191a565b925061198a6020850161191a565b9150604084013590509250925092565b600080600080608085870312156119b057600080fd5b6119b98561191a565b9350602085013592506040850135915060608501356119d781611c8e565b939692955090935050565b6000602082840312156119f457600080fd5b8151610f2781611c8e565b600060208284031215611a1157600080fd5b5035919050565b60008060408385031215611a2b57600080fd5b82359150611a3b6020840161191a565b90509250929050565b600060208284031215611a5657600080fd5b5051919050565b60008251611a6f818460208701611ba0565b9190910192915050565b7f416363657373436f6e74726f6c3a206163636f756e7420000000000000000000815260008351611ab1816017850160208801611ba0565b7f206973206d697373696e6720726f6c65200000000000000000000000000000006017918401918201528351611aee816028840160208801611ba0565b01602801949350505050565b6020815260008251806020840152611b19816040850160208701611ba0565b601f017fffffffffffffffffffffffffffffffffffffffffffffffffffffffffffffffe0169190910160400192915050565b60008219821115611b5e57611b5e611c01565b500190565b6000817fffffffffffffffffffffffffffffffffffffffffffffffffffffffffffffffff0483118215151615611b9b57611b9b611c01565b500290565b60005b83811015611bbb578181015183820152602001611ba3565b838111156106175750506000910152565b600081611bdb57611bdb611c01565b507fffffffffffffffffffffffffffffffffffffffffffffffffffffffffffffffff0190565b7f4e487b7100000000000000000000000000000000000000000000000000000000600052601160045260246000fd5b7f4e487b7100000000000000000000000000000000000000000000000000000000600052603260045260246000fd5b7f4e487b7100000000000000000000000000000000000000000000000000000000600052604160045260246000fd5b80151581146106dd57600080fdfea264697066735822122091352a83ef8f015af8bd03f1514edc5376cadf8585eb2fc0d7c235c03789b14364736f6c634300080700337935bd0ae54bc31f548c14dba4d37c5c64b3f8ca900cb468fb8abd54d5894f558429d542926e6695b59ac6fbdcd9b37e8b1aeb757afab06ab60b1bb5878c3b4955435dd261a4b9b3364963f7738a7a662ad9c84396d64be3365284bb7f0a5041",
  "devdoc": {
    "author": "Angle Core Team",
    "details": "This contract gets sanTokens from a token of the Angle protocol",
    "kind": "dev",
    "methods": {
      "burn(address)": {
        "details": "This function is what allows for composability between different `SurplusConverter` contracts: a surplus converter having swapped tokens can send its output token to another surplus converter, responsible for doing another type of conversion, by calling this contract",
        "params": {
          "token": "Address of the token to pull"
        }
      },
      "buyback(address,uint256,uint256,bool)": {
        "details": "In this contract the `rewardToken` is a sanToken, so this function essentially deposits collateral in the Angle ProtocolThere is no need to put slippage protection here as there is no slippage for SLPs deposits in the Angle Protocol",
        "params": {
          "amount": "Amount of tokens to use for the buyback",
          "token": "Token to use for buybacks of `rewardToken`",
          "transfer": "Whether the function should transfer the bought back `rewardToken` directly to the `FeeDistributor` contract or to the associated `SurplusConverter` contract"
        }
      },
      "constructor": {
        "params": {
          "_feeDistributor": "Reference to the contract handling fee distribution",
          "_rewardToken": "Reward token that this contract tries to buy",
          "_stableMaster": "Reference to the `stableMaster` contract",
          "governor": "Governor of the protocol",
          "guardians": "List of guardians of the protocol",
          "whitelisted": "Reference to the first whitelisted address that will have the right"
        }
      },
      "getRoleAdmin(bytes32)": {
        "details": "Returns the admin role that controls `role`. See {grantRole} and {revokeRole}. To change a role's admin, use {_setRoleAdmin}."
      },
      "grantRole(bytes32,address)": {
        "details": "Grants `role` to `account`. If `account` had not been already granted `role`, emits a {RoleGranted} event. Requirements: - the caller must have ``role``'s admin role."
      },
      "hasRole(bytes32,address)": {
        "details": "Returns `true` if `account` has been granted `role`."
      },
      "pause()": {
        "details": "After calling this function, it is going to be impossible for whitelisted addresses to buyback reward tokens or to send the bought back tokens to the `FeeDistributor`"
      },
      "paused()": {
        "details": "Returns true if the contract is paused, and false otherwise."
      },
      "recoverERC20(address,address,uint256)": {
        "details": "Added to support recovering rewardToken in case of impossible buybacks and other tokens mistakenly sent to this contract",
        "params": {
          "amount": "Amount to transfer",
          "to": "Address to transfer to",
          "tokenAddress": "Address of the ERC20 token to withdraw"
        }
      },
      "renounceRole(bytes32,address)": {
        "details": "Revokes `role` from the calling account. Roles are often managed via {grantRole} and {revokeRole}: this function's purpose is to provide a mechanism for accounts to lose their privileges if they are compromised (such as when a trusted device is misplaced). If the calling account had been granted `role`, emits a {RoleRevoked} event. Requirements: - the caller must be `account`."
      },
      "revokeRole(bytes32,address)": {
        "details": "Revokes `role` from `account`. If `account` had been granted `role`, emits a {RoleRevoked} event. Requirements: - the caller must have ``role``'s admin role."
      },
      "sendToFeeDistributor()": {
        "details": "The reason for having this function rather than doing such transfers directly in the `buyback` function is that it can allow to batch transfers and thus optimizes for gas"
      },
      "setFeeDistributor(address)": {
        "details": "This function is a governor only function as it could technically be used to withdraw funds from the protocol",
        "params": {
          "_feeDistributor": "Reference to the new `FeeDistributor`"
        }
      }
    },
    "title": "SurplusConverterSanTokens",
    "version": 1
  },
  "userdoc": {
    "kind": "user",
    "methods": {
      "GOVERNOR_ROLE()": {
        "notice": "Role for governor of this contract"
      },
      "GUARDIAN_ROLE()": {
        "notice": "Role for guardians of this contract"
      },
      "WHITELISTED_ROLE()": {
        "notice": "Role for addresses allowed to redistribute the protocol's surplus"
      },
      "burn(address)": {
        "notice": "Pulls tokens from another `SurplusConverter` contract"
      },
      "buyback(address,uint256,uint256,bool)": {
        "notice": "Mints `rewardToken` from the protocol itself using the accumulated `token` and distributes the results of the swaps to the `FeeDistributor` or some other `SurplusConverter` contract"
      },
      "constructor": {
        "notice": "Constructor of the `SurplusConverterSanTokens`"
      },
      "feeDistributor()": {
        "notice": "Address responsible for distributing bought back reward tokens to veANGLE holders or for swapping the reward token of this contract to another token"
      },
      "pause()": {
        "notice": "Pauses the `buyback`, `sendToFeeDistributor` and `burn` methods"
      },
      "recoverERC20(address,address,uint256)": {
        "notice": "Withdraws ERC20 tokens that could accrue on this contract"
      },
      "rewardToken()": {
        "notice": "Reward Token obtained by this contract"
      },
      "sendToFeeDistributor()": {
        "notice": "This function transfers all the accumulated `rewardToken` to the `FeeDistributor` contract"
      },
      "setFeeDistributor(address)": {
        "notice": "Changes the reference to the `FeeDistributor` allowed to distribute rewards to veANGLE holders or to swap the reward token to another token"
      },
      "unpause()": {
        "notice": "Unpauses the `buyback` and `sendToFeeDistributor` methods"
      }
    },
    "notice": "A contract to swap tokens from the surplus of the protocol to a reward token (could be ANGLE tokens, or another type of token)",
    "version": 1
  },
  "storageLayout": {
    "storage": [
      {
        "astId": 16499,
        "contract": "contracts/surplus/SurplusConverterSanTokens.sol:SurplusConverterSanTokens",
        "label": "_roles",
        "offset": 0,
        "slot": "0",
        "type": "t_mapping(t_bytes32,t_struct(RoleData)16494_storage)"
      },
      {
        "astId": 8721,
        "contract": "contracts/surplus/SurplusConverterSanTokens.sol:SurplusConverterSanTokens",
        "label": "_paused",
        "offset": 0,
        "slot": "1",
        "type": "t_bool"
      },
      {
        "astId": 44577,
        "contract": "contracts/surplus/SurplusConverterSanTokens.sol:SurplusConverterSanTokens",
        "label": "feeDistributor",
        "offset": 1,
        "slot": "1",
        "type": "t_contract(IFeeDistributor)22472"
      }
    ],
    "types": {
      "t_address": {
        "encoding": "inplace",
        "label": "address",
        "numberOfBytes": "20"
      },
      "t_bool": {
        "encoding": "inplace",
        "label": "bool",
        "numberOfBytes": "1"
      },
      "t_bytes32": {
        "encoding": "inplace",
        "label": "bytes32",
        "numberOfBytes": "32"
      },
      "t_contract(IFeeDistributor)22472": {
        "encoding": "inplace",
        "label": "contract IFeeDistributor",
        "numberOfBytes": "20"
      },
      "t_mapping(t_address,t_bool)": {
        "encoding": "mapping",
        "key": "t_address",
        "label": "mapping(address => bool)",
        "numberOfBytes": "32",
        "value": "t_bool"
      },
      "t_mapping(t_bytes32,t_struct(RoleData)16494_storage)": {
        "encoding": "mapping",
        "key": "t_bytes32",
        "label": "mapping(bytes32 => struct AccessControl.RoleData)",
        "numberOfBytes": "32",
        "value": "t_struct(RoleData)16494_storage"
      },
      "t_struct(RoleData)16494_storage": {
        "encoding": "inplace",
        "label": "struct AccessControl.RoleData",
        "members": [
          {
            "astId": 16491,
            "contract": "contracts/surplus/SurplusConverterSanTokens.sol:SurplusConverterSanTokens",
            "label": "members",
            "offset": 0,
            "slot": "0",
            "type": "t_mapping(t_address,t_bool)"
          },
          {
            "astId": 16493,
            "contract": "contracts/surplus/SurplusConverterSanTokens.sol:SurplusConverterSanTokens",
            "label": "adminRole",
            "offset": 0,
            "slot": "1",
            "type": "t_bytes32"
          }
        ],
        "numberOfBytes": "64"
      }
    }
  }
}