{
  "address": "0xFFCbF22eA1236B5eD3690856814B6C1F04ADd220",
  "abi": [
    {
      "inputs": [
        {
          "internalType": "address",
          "name": "_rewardToken",
          "type": "address"
        },
        {
          "internalType": "address",
          "name": "_feeDistributor",
          "type": "address"
        },
        {
          "internalType": "address",
          "name": "_uniswapV3Router",
          "type": "address"
        },
        {
          "internalType": "address",
          "name": "whitelisted",
          "type": "address"
        },
        {
          "internalType": "address",
          "name": "governor",
          "type": "address"
        },
        {
          "internalType": "address[]",
          "name": "guardians",
          "type": "address[]"
        }
      ],
      "stateMutability": "nonpayable",
      "type": "constructor"
    },
    {
      "anonymous": false,
      "inputs": [
        {
          "indexed": true,
          "internalType": "address",
          "name": "newFeeDistributor",
          "type": "address"
        },
        {
          "indexed": true,
          "internalType": "address",
          "name": "oldFeeDistributor",
          "type": "address"
        }
      ],
      "name": "FeeDistributorUpdated",
      "type": "event"
    },
    {
      "anonymous": false,
      "inputs": [
        {
          "indexed": true,
          "internalType": "address",
          "name": "token",
          "type": "address"
        },
        {
          "indexed": false,
          "internalType": "bytes",
          "name": "newPath",
          "type": "bytes"
        },
        {
          "indexed": false,
          "internalType": "bytes",
          "name": "oldPath",
          "type": "bytes"
        }
      ],
      "name": "PathUpdated",
      "type": "event"
    },
    {
      "anonymous": false,
      "inputs": [
        {
          "indexed": false,
          "internalType": "address",
          "name": "account",
          "type": "address"
        }
      ],
      "name": "Paused",
      "type": "event"
    },
    {
      "anonymous": false,
      "inputs": [
        {
          "indexed": true,
          "internalType": "address",
          "name": "tokenAddress",
          "type": "address"
        },
        {
          "indexed": true,
          "internalType": "address",
          "name": "to",
          "type": "address"
        },
        {
          "indexed": false,
          "internalType": "uint256",
          "name": "amount",
          "type": "uint256"
        }
      ],
      "name": "Recovered",
      "type": "event"
    },
    {
      "anonymous": false,
      "inputs": [
        {
          "indexed": true,
          "internalType": "bytes32",
          "name": "role",
          "type": "bytes32"
        },
        {
          "indexed": true,
          "internalType": "bytes32",
          "name": "previousAdminRole",
          "type": "bytes32"
        },
        {
          "indexed": true,
          "internalType": "bytes32",
          "name": "newAdminRole",
          "type": "bytes32"
        }
      ],
      "name": "RoleAdminChanged",
      "type": "event"
    },
    {
      "anonymous": false,
      "inputs": [
        {
          "indexed": true,
          "internalType": "bytes32",
          "name": "role",
          "type": "bytes32"
        },
        {
          "indexed": true,
          "internalType": "address",
          "name": "account",
          "type": "address"
        },
        {
          "indexed": true,
          "internalType": "address",
          "name": "sender",
          "type": "address"
        }
      ],
      "name": "RoleGranted",
      "type": "event"
    },
    {
      "anonymous": false,
      "inputs": [
        {
          "indexed": true,
          "internalType": "bytes32",
          "name": "role",
          "type": "bytes32"
        },
        {
          "indexed": true,
          "internalType": "address",
          "name": "account",
          "type": "address"
        },
        {
          "indexed": true,
          "internalType": "address",
          "name": "sender",
          "type": "address"
        }
      ],
      "name": "RoleRevoked",
      "type": "event"
    },
    {
      "anonymous": false,
      "inputs": [
        {
          "indexed": true,
          "internalType": "address",
          "name": "token",
          "type": "address"
        }
      ],
      "name": "TokenRevoked",
      "type": "event"
    },
    {
      "anonymous": false,
      "inputs": [
        {
          "indexed": false,
          "internalType": "address",
          "name": "account",
          "type": "address"
        }
      ],
      "name": "Unpaused",
      "type": "event"
    },
    {
      "inputs": [],
      "name": "DEFAULT_ADMIN_ROLE",
      "outputs": [
        {
          "internalType": "bytes32",
          "name": "",
          "type": "bytes32"
        }
      ],
      "stateMutability": "view",
      "type": "function"
    },
    {
      "inputs": [],
      "name": "GOVERNOR_ROLE",
      "outputs": [
        {
          "internalType": "bytes32",
          "name": "",
          "type": "bytes32"
        }
      ],
      "stateMutability": "view",
      "type": "function"
    },
    {
      "inputs": [],
      "name": "GUARDIAN_ROLE",
      "outputs": [
        {
          "internalType": "bytes32",
          "name": "",
          "type": "bytes32"
        }
      ],
      "stateMutability": "view",
      "type": "function"
    },
    {
      "inputs": [],
      "name": "WHITELISTED_ROLE",
      "outputs": [
        {
          "internalType": "bytes32",
          "name": "",
          "type": "bytes32"
        }
      ],
      "stateMutability": "view",
      "type": "function"
    },
    {
      "inputs": [
        {
          "internalType": "address",
          "name": "token",
          "type": "address"
        },
        {
          "internalType": "address[]",
          "name": "pathAddresses",
          "type": "address[]"
        },
        {
          "internalType": "uint24[]",
          "name": "pathFees",
          "type": "uint24[]"
        }
      ],
      "name": "addToken",
      "outputs": [],
      "stateMutability": "nonpayable",
      "type": "function"
    },
    {
      "inputs": [
        {
          "internalType": "address",
          "name": "token",
          "type": "address"
        }
      ],
      "name": "burn",
      "outputs": [],
      "stateMutability": "nonpayable",
      "type": "function"
    },
    {
      "inputs": [
        {
          "internalType": "address",
          "name": "token",
          "type": "address"
        },
        {
          "internalType": "uint256",
          "name": "amount",
          "type": "uint256"
        },
        {
          "internalType": "uint256",
          "name": "minAmount",
          "type": "uint256"
        },
        {
          "internalType": "bool",
          "name": "transfer",
          "type": "bool"
        }
      ],
      "name": "buyback",
      "outputs": [],
      "stateMutability": "nonpayable",
      "type": "function"
    },
    {
      "inputs": [],
      "name": "feeDistributor",
      "outputs": [
        {
          "internalType": "contract IFeeDistributor",
          "name": "",
          "type": "address"
        }
      ],
      "stateMutability": "view",
      "type": "function"
    },
    {
      "inputs": [
        {
          "internalType": "bytes32",
          "name": "role",
          "type": "bytes32"
        }
      ],
      "name": "getRoleAdmin",
      "outputs": [
        {
          "internalType": "bytes32",
          "name": "",
          "type": "bytes32"
        }
      ],
      "stateMutability": "view",
      "type": "function"
    },
    {
      "inputs": [
        {
          "internalType": "bytes32",
          "name": "role",
          "type": "bytes32"
        },
        {
          "internalType": "address",
          "name": "account",
          "type": "address"
        }
      ],
      "name": "grantRole",
      "outputs": [],
      "stateMutability": "nonpayable",
      "type": "function"
    },
    {
      "inputs": [
        {
          "internalType": "bytes32",
          "name": "role",
          "type": "bytes32"
        },
        {
          "internalType": "address",
          "name": "account",
          "type": "address"
        }
      ],
      "name": "hasRole",
      "outputs": [
        {
          "internalType": "bool",
          "name": "",
          "type": "bool"
        }
      ],
      "stateMutability": "view",
      "type": "function"
    },
    {
      "inputs": [],
      "name": "pause",
      "outputs": [],
      "stateMutability": "nonpayable",
      "type": "function"
    },
    {
      "inputs": [],
      "name": "paused",
      "outputs": [
        {
          "internalType": "bool",
          "name": "",
          "type": "bool"
        }
      ],
      "stateMutability": "view",
      "type": "function"
    },
    {
      "inputs": [
        {
          "internalType": "address",
          "name": "tokenAddress",
          "type": "address"
        },
        {
          "internalType": "address",
          "name": "to",
          "type": "address"
        },
        {
          "internalType": "uint256",
          "name": "amount",
          "type": "uint256"
        }
      ],
      "name": "recoverERC20",
      "outputs": [],
      "stateMutability": "nonpayable",
      "type": "function"
    },
    {
      "inputs": [
        {
          "internalType": "bytes32",
          "name": "role",
          "type": "bytes32"
        },
        {
          "internalType": "address",
          "name": "account",
          "type": "address"
        }
      ],
      "name": "renounceRole",
      "outputs": [],
      "stateMutability": "nonpayable",
      "type": "function"
    },
    {
      "inputs": [
        {
          "internalType": "bytes32",
          "name": "role",
          "type": "bytes32"
        },
        {
          "internalType": "address",
          "name": "account",
          "type": "address"
        }
      ],
      "name": "revokeRole",
      "outputs": [],
      "stateMutability": "nonpayable",
      "type": "function"
    },
    {
      "inputs": [
        {
          "internalType": "address",
          "name": "token",
          "type": "address"
        }
      ],
      "name": "revokeToken",
      "outputs": [],
      "stateMutability": "nonpayable",
      "type": "function"
    },
    {
      "inputs": [],
      "name": "rewardToken",
      "outputs": [
        {
          "internalType": "contract IERC20",
          "name": "",
          "type": "address"
        }
      ],
      "stateMutability": "view",
      "type": "function"
    },
    {
      "inputs": [],
      "name": "sendToFeeDistributor",
      "outputs": [],
      "stateMutability": "nonpayable",
      "type": "function"
    },
    {
      "inputs": [
        {
          "internalType": "address",
          "name": "_feeDistributor",
          "type": "address"
        }
      ],
      "name": "setFeeDistributor",
      "outputs": [],
      "stateMutability": "nonpayable",
      "type": "function"
    },
    {
      "inputs": [
        {
          "internalType": "address",
          "name": "",
          "type": "address"
        }
      ],
      "name": "uniswapPaths",
      "outputs": [
        {
          "internalType": "bytes",
          "name": "",
          "type": "bytes"
        }
      ],
      "stateMutability": "view",
      "type": "function"
    },
    {
      "inputs": [],
      "name": "uniswapV3Router",
      "outputs": [
        {
          "internalType": "contract IUniswapV3Router",
          "name": "",
          "type": "address"
        }
      ],
      "stateMutability": "view",
      "type": "function"
    },
    {
      "inputs": [],
      "name": "unpause",
      "outputs": [],
      "stateMutability": "nonpayable",
      "type": "function"
    }
  ],
  "transactionHash": "0xf68f7c40f301c972c0ebf195909862e7cc5bc755ee2a672ef864f7a50c5195ef",
  "args": [
    "0x4DBCdF9B62e891a7cec5A2568C3F4FAF9E8Abe2b",
    "0xD49fa97fe1A56d42C8082fFaA56A9525cC8675ea",
    "0xE592427A0AEce92De3Edee1F18E0157C05861564",
    "0x8A97FBD532A5C1eD67fd67c11dD76013abAc840e",
    "0x8A97FBD532A5C1eD67fd67c11dD76013abAc840e",
    [
      "0x8A97FBD532A5C1eD67fd67c11dD76013abAc840e",
      "0x3931C80BF7a911fcda8b684b23A433D124b59F06"
    ]
  ],
  "solcInputHash": "f5b703f620df957f43c941891d87f163",
  "bytecode": "0x60c06040523480156200001157600080fd5b506040516200353b3803806200353b833981016040819052620000349162000883565b6001805460ff1916905585858484846001600160a01b038416158015906200006457506001600160a01b03831615155b80156200007957506001600160a01b03821615155b620000af5760405162461bcd60e51b81526020600482015260016024820152600360fc1b60448201526064015b60405180910390fd5b60018054610100600160a81b0319166101006001600160a01b038781169190910291909117909155606086901b6001600160601b031916608052620001069086168560001962000310602090811b6200153517901c565b60008151116200013f5760405162461bcd60e51b815260206004820152600360248201526231303160e81b6044820152606401620000a6565b60005b8151811015620002035760006001600160a01b03168282815181106200016c576200016c62000aa9565b60200260200101516001600160a01b03161415620001b15760405162461bcd60e51b81526020600482015260016024820152600360fc1b6044820152606401620000a6565b620001ee6000805160206200351b833981519152838381518110620001da57620001da62000aa9565b60200260200101516200046f60201b60201c565b80620001fa8162000a7f565b91505062000142565b506200021f600080516020620034fb833981519152846200046f565b6200023a600080516020620034db833981519152836200046f565b62000255600080516020620034db833981519152806200047f565b6200027f6000805160206200351b833981519152600080516020620034db8339815191526200047f565b620002a9600080516020620034fb8339815191526000805160206200351b8339815191526200047f565b620002b3620004d3565b50505050506001600160a01b038416620002f45760405162461bcd60e51b81526020600482015260016024820152600360fc1b6044820152606401620000a6565b50505060601b6001600160601b03191660a0525062000ad59050565b8015806200039e5750604051636eb1769f60e11b81523060048201526001600160a01b03838116602483015284169063dd62ed3e9060440160206040518083038186803b1580156200036157600080fd5b505afa15801562000376573d6000803e3d6000fd5b505050506040513d601f19601f820116820180604052508101906200039c9190620009df565b155b620004125760405162461bcd60e51b815260206004820152603660248201527f5361666545524332303a20617070726f76652066726f6d206e6f6e2d7a65726f60448201527f20746f206e6f6e2d7a65726f20616c6c6f77616e6365000000000000000000006064820152608401620000a6565b604080516001600160a01b038416602482015260448082018490528251808303909101815260649091019091526020810180516001600160e01b0390811663095ea7b360e01b179091526200046a9185916200055c16565b505050565b6200047b82826200063a565b5050565b600082815260208190526040902060010154819060405184907fbd79b86ffe0ab8e8776151514217cd7cacd52c909f66475c3af44e129f0b00ff90600090a460009182526020829052604090912060010155565b60015460ff16156200051b5760405162461bcd60e51b815260206004820152601060248201526f14185d5cd8589b194e881c185d5cd95960821b6044820152606401620000a6565b6001805460ff1916811790556040805133815290517f62e78cea01bee320cd4e420270b5ea74000d11b0c9f74754ebdbfc544b05a2589181900360200190a1565b6000620005b8826040518060400160405280602081526020017f5361666545524332303a206c6f772d6c6576656c2063616c6c206661696c6564815250856001600160a01b0316620006da60201b62001744179092919060201c565b8051909150156200046a5780806020019051810190620005d99190620009bb565b6200046a5760405162461bcd60e51b815260206004820152602a60248201527f5361666545524332303a204552433230206f7065726174696f6e20646964206e6044820152691bdd081cdd58d8d9595960b21b6064820152608401620000a6565b6000828152602081815260408083206001600160a01b038516845290915290205460ff166200047b576000828152602081815260408083206001600160a01b03851684529091529020805460ff19166001179055620006963390565b6001600160a01b0316816001600160a01b0316837f2f8788117e7eff1d82e926ec794901d17c78024a50270940304540a733656f0d60405160405180910390a45050565b6060620006eb8484600085620006f5565b90505b9392505050565b606082471015620007585760405162461bcd60e51b815260206004820152602660248201527f416464726573733a20696e73756666696369656e742062616c616e636520666f6044820152651c8818d85b1b60d21b6064820152608401620000a6565b843b620007a85760405162461bcd60e51b815260206004820152601d60248201527f416464726573733a2063616c6c20746f206e6f6e2d636f6e74726163740000006044820152606401620000a6565b600080866001600160a01b03168587604051620007c69190620009f9565b60006040518083038185875af1925050503d806000811462000805576040519150601f19603f3d011682016040523d82523d6000602084013e6200080a565b606091505b5090925090506200081d82828662000828565b979650505050505050565b6060831562000839575081620006ee565b8251156200084a5782518084602001fd5b8160405162461bcd60e51b8152600401620000a6919062000a17565b80516001600160a01b03811681146200087e57600080fd5b919050565b60008060008060008060c087890312156200089d57600080fd5b620008a88762000866565b95506020620008b981890162000866565b9550620008c96040890162000866565b9450620008d96060890162000866565b9350620008e96080890162000866565b60a08901519093506001600160401b03808211156200090757600080fd5b818a0191508a601f8301126200091c57600080fd5b81518181111562000931576200093162000abf565b8060051b604051601f19603f8301168101818110858211171562000959576200095962000abf565b604052828152858101935084860182860187018f10156200097957600080fd5b600095505b83861015620009a757620009928162000866565b8552600195909501949386019386016200097e565b508096505050505050509295509295509295565b600060208284031215620009ce57600080fd5b81518015158114620006ee57600080fd5b600060208284031215620009f257600080fd5b5051919050565b6000825162000a0d81846020870162000a4c565b9190910192915050565b602081526000825180602084015262000a3881604085016020870162000a4c565b601f01601f19169190910160400192915050565b60005b8381101562000a6957818101518382015260200162000a4f565b8381111562000a79576000848401525b50505050565b600060001982141562000aa257634e487b7160e01b600052601160045260246000fd5b5060010190565b634e487b7160e01b600052603260045260246000fd5b634e487b7160e01b600052604160045260246000fd5b60805160601c60a05160601c6129a962000b32600039600081816102530152818161095601528181610f1c01526112060152600081816103fb015281816105b301528181610b9d015281816112d3015261144001526129a96000f3fe608060405234801561001057600080fd5b506004361061018d5760003560e01c80637d6d9c63116100e3578063a3745c681161008c578063ccfc2e8d11610066578063ccfc2e8d146103d0578063d547741f146103e3578063f7c618c1146103f657600080fd5b8063a3745c6814610383578063adce205814610396578063ccc57490146103a957600080fd5b806391d14854116100bd57806391d1485414610324578063933f4eef14610368578063a217fddf1461037b57600080fd5b80637d6d9c63146102e95780638456cb591461030957806389afcb441461031157600080fd5b80632f2ff15d116101455780633f4ba83a1161011f5780633f4ba83a146102a35780635c975abb146102ab5780637a3226ec146102c257600080fd5b80632f2ff15d1461027557806333baecb21461028857806336568abe1461029057600080fd5b8063248a9ca311610176578063248a9ca3146101f657806324ea54f4146102275780632c76d7a61461024e57600080fd5b80630d43e8ad146101925780631171bda9146101e1575b600080fd5b6001546101b790610100900473ffffffffffffffffffffffffffffffffffffffff1681565b60405173ffffffffffffffffffffffffffffffffffffffff90911681526020015b60405180910390f35b6101f46101ef3660046122e4565b61041d565b005b61021961020436600461245e565b60009081526020819052604090206001015490565b6040519081526020016101d8565b6102197f55435dd261a4b9b3364963f7738a7a662ad9c84396d64be3365284bb7f0a504181565b6101b77f000000000000000000000000000000000000000000000000000000000000000081565b6101f4610283366004612477565b6104d6565b6101f4610501565b6101f461029e366004612477565b610620565b6101f46106ad565b60015460ff165b60405190151581526020016101d8565b6102197f8429d542926e6695b59ac6fbdcd9b37e8b1aeb757afab06ab60b1bb5878c3b4981565b6102fc6102f73660046122c9565b6106e3565b6040516101d89190612664565b6101f461077d565b6101f461031f3660046122c9565b6107b0565b6102b2610332366004612477565b60009182526020828152604080842073ffffffffffffffffffffffffffffffffffffffff93909316845291905290205460ff1690565b6101f46103763660046122c9565b6108e1565b610219600081565b6101f4610391366004612320565b6109c1565b6101f46103a43660046123f9565b610ff0565b6102197f7935bd0ae54bc31f548c14dba4d37c5c64b3f8ca900cb468fb8abd54d5894f5581565b6101f46103de3660046122c9565b611347565b6101f46103f1366004612477565b61150f565b6101b77f000000000000000000000000000000000000000000000000000000000000000081565b7f7935bd0ae54bc31f548c14dba4d37c5c64b3f8ca900cb468fb8abd54d5894f55610448813361175d565b61046973ffffffffffffffffffffffffffffffffffffffff8516848461182d565b8273ffffffffffffffffffffffffffffffffffffffff168473ffffffffffffffffffffffffffffffffffffffff167ffff3b3844276f57024e0b42afec1a37f75db36511e43819a4f2a63ab7862b648846040516104c891815260200190565b60405180910390a350505050565b6000828152602081905260409020600101546104f2813361175d565b6104fc8383611883565b505050565b60015460ff1615610573576040517f08c379a000000000000000000000000000000000000000000000000000000000815260206004820152601060248201527f5061757361626c653a207061757365640000000000000000000000000000000060448201526064015b60405180910390fd5b6001546040517f89afcb4400000000000000000000000000000000000000000000000000000000815273ffffffffffffffffffffffffffffffffffffffff7f000000000000000000000000000000000000000000000000000000000000000081166004830152610100909204909116906389afcb4490602401600060405180830381600087803b15801561060657600080fd5b505af115801561061a573d6000803e3d6000fd5b50505050565b73ffffffffffffffffffffffffffffffffffffffff8116331461069f576040517f08c379a000000000000000000000000000000000000000000000000000000000815260206004820152600260248201527f3731000000000000000000000000000000000000000000000000000000000000604482015260640161056a565b6106a98282611973565b5050565b7f55435dd261a4b9b3364963f7738a7a662ad9c84396d64be3365284bb7f0a50416106d8813361175d565b6106e0611a2a565b50565b600260205260009081526040902080546106fc9061284b565b80601f01602080910402602001604051908101604052809291908181526020018280546107289061284b565b80156107755780601f1061074a57610100808354040283529160200191610775565b820191906000526020600020905b81548152906001019060200180831161075857829003601f168201915b505050505081565b7f55435dd261a4b9b3364963f7738a7a662ad9c84396d64be3365284bb7f0a50416107a8813361175d565b6106e0611b0b565b60015460ff161561081d576040517f08c379a000000000000000000000000000000000000000000000000000000000815260206004820152601060248201527f5061757361626c653a2070617573656400000000000000000000000000000000604482015260640161056a565b6040517f70a0823100000000000000000000000000000000000000000000000000000000815233600482018190526106e091309073ffffffffffffffffffffffffffffffffffffffff8516906370a082319060240160206040518083038186803b15801561088a57600080fd5b505afa15801561089e573d6000803e3d6000fd5b505050506040513d601f19601f820116820180604052508101906108c291906124a3565b73ffffffffffffffffffffffffffffffffffffffff8516929190611bc9565b7f55435dd261a4b9b3364963f7738a7a662ad9c84396d64be3365284bb7f0a504161090c813361175d565b73ffffffffffffffffffffffffffffffffffffffff8216600090815260026020526040812061093a91612149565b61097c73ffffffffffffffffffffffffffffffffffffffff83167f00000000000000000000000000000000000000000000000000000000000000006000611535565b60405173ffffffffffffffffffffffffffffffffffffffff8316907f45f62f30e7b8439e0da7d8e560fe39d01238091ce9e789e3d12b514edf98acea90600090a25050565b7f55435dd261a4b9b3364963f7738a7a662ad9c84396d64be3365284bb7f0a50416109ec813361175d565b73ffffffffffffffffffffffffffffffffffffffff8416610a69576040517f08c379a000000000000000000000000000000000000000000000000000000000815260206004820152600160248201527f3000000000000000000000000000000000000000000000000000000000000000604482015260640161056a565b600283511015610ad5576040517f08c379a000000000000000000000000000000000000000000000000000000000815260206004820152600160248201527f3500000000000000000000000000000000000000000000000000000000000000604482015260640161056a565b8151610ae290600161277e565b835114610b4b576040517f08c379a000000000000000000000000000000000000000000000000000000000815260206004820152600360248201527f3130340000000000000000000000000000000000000000000000000000000000604482015260640161056a565b8373ffffffffffffffffffffffffffffffffffffffff1683600081518110610b7557610b75612907565b602002602001015173ffffffffffffffffffffffffffffffffffffffff16148015610c1157507f000000000000000000000000000000000000000000000000000000000000000073ffffffffffffffffffffffffffffffffffffffff168360018551610be191906127d3565b81518110610bf157610bf1612907565b602002602001015173ffffffffffffffffffffffffffffffffffffffff16145b610c77576040517f08c379a000000000000000000000000000000000000000000000000000000000815260206004820152600360248201527f3131310000000000000000000000000000000000000000000000000000000000604482015260640161056a565b606060005b8351811015610de657600073ffffffffffffffffffffffffffffffffffffffff16858281518110610caf57610caf612907565b602002602001015173ffffffffffffffffffffffffffffffffffffffff1614158015610d155750600085610ce483600161277e565b81518110610cf457610cf4612907565b602002602001015173ffffffffffffffffffffffffffffffffffffffff1614155b610d7b576040517f08c379a000000000000000000000000000000000000000000000000000000000815260206004820152600160248201527f3000000000000000000000000000000000000000000000000000000000000000604482015260640161056a565b81858281518110610d8e57610d8e612907565b6020026020010151858381518110610da857610da8612907565b6020026020010151604051602001610dc29392919061256c565b60405160208183030381529060405291508080610dde9061289f565b915050610c7c565b508084845181518110610dfb57610dfb612907565b6020026020010151604051602001610e14929190612522565b604080517fffffffffffffffffffffffffffffffffffffffffffffffffffffffffffffffe081840301815291815273ffffffffffffffffffffffffffffffffffffffff87166000908152600260205290812080549293509091610e769061284b565b80601f0160208091040260200160405190810160405280929190818152602001828054610ea29061284b565b8015610eef5780601f10610ec457610100808354040283529160200191610eef565b820191906000526020600020905b815481529060010190602001808311610ed257829003601f168201915b50505050509050805160001415610f6157610f6173ffffffffffffffffffffffffffffffffffffffff87167f00000000000000000000000000000000000000000000000000000000000000007fffffffffffffffffffffffffffffffffffffffffffffffffffffffffffffffff611535565b73ffffffffffffffffffffffffffffffffffffffff861660009081526002602090815260409091208351610f9792850190612183565b508573ffffffffffffffffffffffffffffffffffffffff167f4864804c0e4f81ecffca2a07977e5ba7a7ed64a6dab9cdce258d2ec9ab9fabeb8383604051610fe0929190612677565b60405180910390a2505050505050565b60015460ff161561105d576040517f08c379a000000000000000000000000000000000000000000000000000000000815260206004820152601060248201527f5061757361626c653a2070617573656400000000000000000000000000000000604482015260640161056a565b7f8429d542926e6695b59ac6fbdcd9b37e8b1aeb757afab06ab60b1bb5878c3b49611088813361175d565b73ffffffffffffffffffffffffffffffffffffffff8516600090815260026020526040812080546110b89061284b565b80601f01602080910402602001604051908101604052809291908181526020018280546110e49061284b565b80156111315780601f1061110657610100808354040283529160200191611131565b820191906000526020600020905b81548152906001019060200180831161111457829003601f168201915b505050505090508051600014156111a4576040517f08c379a000000000000000000000000000000000000000000000000000000000815260206004820152600360248201527f3131310000000000000000000000000000000000000000000000000000000000604482015260640161056a565b6040805160a0810182528281523060208201524281830152606081018790526080810186905290517fc04b8d5900000000000000000000000000000000000000000000000000000000815273ffffffffffffffffffffffffffffffffffffffff7f0000000000000000000000000000000000000000000000000000000000000000169163c04b8d599161123a91906004016126a5565b602060405180830381600087803b15801561125457600080fd5b505af1158015611268573d6000803e3d6000fd5b505050506040513d601f19601f8201168201806040525081019061128c91906124a3565b50821561133f576001546040517f89afcb4400000000000000000000000000000000000000000000000000000000815273ffffffffffffffffffffffffffffffffffffffff7f000000000000000000000000000000000000000000000000000000000000000081166004830152610100909204909116906389afcb4490602401600060405180830381600087803b15801561132657600080fd5b505af115801561133a573d6000803e3d6000fd5b505050505b505050505050565b7f7935bd0ae54bc31f548c14dba4d37c5c64b3f8ca900cb468fb8abd54d5894f55611372813361175d565b73ffffffffffffffffffffffffffffffffffffffff82166113ef576040517f08c379a000000000000000000000000000000000000000000000000000000000815260206004820152600160248201527f3000000000000000000000000000000000000000000000000000000000000000604482015260640161056a565b6001805473ffffffffffffffffffffffffffffffffffffffff8481166101009081027fffffffffffffffffffffff0000000000000000000000000000000000000000ff8416179093559190048116907f00000000000000000000000000000000000000000000000000000000000000009061148d908216857fffffffffffffffffffffffffffffffffffffffffffffffffffffffffffffffff611535565b6114af73ffffffffffffffffffffffffffffffffffffffff8216836000611535565b8173ffffffffffffffffffffffffffffffffffffffff168473ffffffffffffffffffffffffffffffffffffffff167fbb470d12faa974cbae56bc3c345446451b4d504aa13806836f3df6d032fa9a9160405160405180910390a350505050565b60008281526020819052604090206001015461152b813361175d565b6104fc8383611973565b8015806115e457506040517fdd62ed3e00000000000000000000000000000000000000000000000000000000815230600482015273ffffffffffffffffffffffffffffffffffffffff838116602483015284169063dd62ed3e9060440160206040518083038186803b1580156115aa57600080fd5b505afa1580156115be573d6000803e3d6000fd5b505050506040513d601f19601f820116820180604052508101906115e291906124a3565b155b611670576040517f08c379a000000000000000000000000000000000000000000000000000000000815260206004820152603660248201527f5361666545524332303a20617070726f76652066726f6d206e6f6e2d7a65726f60448201527f20746f206e6f6e2d7a65726f20616c6c6f77616e636500000000000000000000606482015260840161056a565b60405173ffffffffffffffffffffffffffffffffffffffff83166024820152604481018290526104fc9084907f095ea7b300000000000000000000000000000000000000000000000000000000906064015b604080517fffffffffffffffffffffffffffffffffffffffffffffffffffffffffffffffe08184030181529190526020810180517bffffffffffffffffffffffffffffffffffffffffffffffffffffffff167fffffffff0000000000000000000000000000000000000000000000000000000090931692909217909152611c27565b60606117538484600085611d33565b90505b9392505050565b60008281526020818152604080832073ffffffffffffffffffffffffffffffffffffffff8516845290915290205460ff166106a9576117b38173ffffffffffffffffffffffffffffffffffffffff166014611eb3565b6117be836020611eb3565b6040516020016117cf9291906125e3565b604080517fffffffffffffffffffffffffffffffffffffffffffffffffffffffffffffffe0818403018152908290527f08c379a000000000000000000000000000000000000000000000000000000000825261056a91600401612664565b60405173ffffffffffffffffffffffffffffffffffffffff83166024820152604481018290526104fc9084907fa9059cbb00000000000000000000000000000000000000000000000000000000906064016116c2565b60008281526020818152604080832073ffffffffffffffffffffffffffffffffffffffff8516845290915290205460ff166106a95760008281526020818152604080832073ffffffffffffffffffffffffffffffffffffffff85168452909152902080547fffffffffffffffffffffffffffffffffffffffffffffffffffffffffffffff001660011790556119153390565b73ffffffffffffffffffffffffffffffffffffffff168173ffffffffffffffffffffffffffffffffffffffff16837f2f8788117e7eff1d82e926ec794901d17c78024a50270940304540a733656f0d60405160405180910390a45050565b60008281526020818152604080832073ffffffffffffffffffffffffffffffffffffffff8516845290915290205460ff16156106a95760008281526020818152604080832073ffffffffffffffffffffffffffffffffffffffff8516808552925280832080547fffffffffffffffffffffffffffffffffffffffffffffffffffffffffffffff0016905551339285917ff6391f5c32d9c69d2a47ea670b442974b53935d1edc7fd64eb21e047a839171b9190a45050565b60015460ff16611a96576040517f08c379a000000000000000000000000000000000000000000000000000000000815260206004820152601460248201527f5061757361626c653a206e6f7420706175736564000000000000000000000000604482015260640161056a565b600180547fffffffffffffffffffffffffffffffffffffffffffffffffffffffffffffff001690557f5db9ee0a495bf2e6ff9c91a7834c1ba4fdd244a5e8aa4e537bd38aeae4b073aa335b60405173ffffffffffffffffffffffffffffffffffffffff909116815260200160405180910390a1565b60015460ff1615611b78576040517f08c379a000000000000000000000000000000000000000000000000000000000815260206004820152601060248201527f5061757361626c653a2070617573656400000000000000000000000000000000604482015260640161056a565b600180547fffffffffffffffffffffffffffffffffffffffffffffffffffffffffffffff0016811790557f62e78cea01bee320cd4e420270b5ea74000d11b0c9f74754ebdbfc544b05a25833611ae1565b60405173ffffffffffffffffffffffffffffffffffffffff8085166024830152831660448201526064810182905261061a9085907f23b872dd00000000000000000000000000000000000000000000000000000000906084016116c2565b6000611c89826040518060400160405280602081526020017f5361666545524332303a206c6f772d6c6576656c2063616c6c206661696c65648152508573ffffffffffffffffffffffffffffffffffffffff166117449092919063ffffffff16565b8051909150156104fc5780806020019051810190611ca79190612441565b6104fc576040517f08c379a000000000000000000000000000000000000000000000000000000000815260206004820152602a60248201527f5361666545524332303a204552433230206f7065726174696f6e20646964206e60448201527f6f74207375636365656400000000000000000000000000000000000000000000606482015260840161056a565b606082471015611dc5576040517f08c379a000000000000000000000000000000000000000000000000000000000815260206004820152602660248201527f416464726573733a20696e73756666696369656e742062616c616e636520666f60448201527f722063616c6c0000000000000000000000000000000000000000000000000000606482015260840161056a565b843b611e2d576040517f08c379a000000000000000000000000000000000000000000000000000000000815260206004820152601d60248201527f416464726573733a2063616c6c20746f206e6f6e2d636f6e7472616374000000604482015260640161056a565b6000808673ffffffffffffffffffffffffffffffffffffffff168587604051611e569190612506565b60006040518083038185875af1925050503d8060008114611e93576040519150601f19603f3d011682016040523d82523d6000602084013e611e98565b606091505b5091509150611ea88282866120f6565b979650505050505050565b60606000611ec2836002612796565b611ecd90600261277e565b67ffffffffffffffff811115611ee557611ee5612936565b6040519080825280601f01601f191660200182016040528015611f0f576020820181803683370190505b5090507f300000000000000000000000000000000000000000000000000000000000000081600081518110611f4657611f46612907565b60200101907effffffffffffffffffffffffffffffffffffffffffffffffffffffffffffff1916908160001a9053507f780000000000000000000000000000000000000000000000000000000000000081600181518110611fa957611fa9612907565b60200101907effffffffffffffffffffffffffffffffffffffffffffffffffffffffffffff1916908160001a9053506000611fe5846002612796565b611ff090600161277e565b90505b600181111561208d577f303132333435363738396162636465660000000000000000000000000000000085600f166010811061203157612031612907565b1a60f81b82828151811061204757612047612907565b60200101907effffffffffffffffffffffffffffffffffffffffffffffffffffffffffffff1916908160001a90535060049490941c9361208681612816565b9050611ff3565b508315611756576040517f08c379a000000000000000000000000000000000000000000000000000000000815260206004820181905260248201527f537472696e67733a20686578206c656e67746820696e73756666696369656e74604482015260640161056a565b60608315612105575081611756565b8251156121155782518084602001fd5b816040517f08c379a000000000000000000000000000000000000000000000000000000000815260040161056a9190612664565b5080546121559061284b565b6000825580601f10612165575050565b601f0160209004906000526020600020908101906106e09190612207565b82805461218f9061284b565b90600052602060002090601f0160209004810192826121b157600085556121f7565b82601f106121ca57805160ff19168380011785556121f7565b828001600101855582156121f7579182015b828111156121f75782518255916020019190600101906121dc565b50612203929150612207565b5090565b5b808211156122035760008155600101612208565b803573ffffffffffffffffffffffffffffffffffffffff8116811461224057600080fd5b919050565b600082601f83011261225657600080fd5b8135602061226b6122668361275a565b61270b565b80838252828201915082860187848660051b890101111561228b57600080fd5b6000805b868110156122bb57823562ffffff811681146122a9578283fd5b8552938501939185019160010161228f565b509198975050505050505050565b6000602082840312156122db57600080fd5b6117568261221c565b6000806000606084860312156122f957600080fd5b6123028461221c565b92506123106020850161221c565b9150604084013590509250925092565b60008060006060848603121561233557600080fd5b61233e8461221c565b925060208085013567ffffffffffffffff8082111561235c57600080fd5b818701915087601f83011261237057600080fd5b813561237e6122668261275a565b8082825285820191508585018b878560051b880101111561239e57600080fd5b600095505b838610156123c8576123b48161221c565b8352600195909501949186019186016123a3565b509650505060408701359250808311156123e157600080fd5b50506123ef86828701612245565b9150509250925092565b6000806000806080858703121561240f57600080fd5b6124188561221c565b93506020850135925060408501359150606085013561243681612965565b939692955090935050565b60006020828403121561245357600080fd5b815161175681612965565b60006020828403121561247057600080fd5b5035919050565b6000806040838503121561248a57600080fd5b8235915061249a6020840161221c565b90509250929050565b6000602082840312156124b557600080fd5b5051919050565b600081518084526124d48160208601602086016127ea565b601f017fffffffffffffffffffffffffffffffffffffffffffffffffffffffffffffffe0169290920160200192915050565b600082516125188184602087016127ea565b9190910192915050565b600083516125348184602088016127ea565b60609390931b7fffffffffffffffffffffffffffffffffffffffff000000000000000000000000169190920190815260140192915050565b6000845161257e8184602089016127ea565b60609490941b7fffffffffffffffffffffffffffffffffffffffff000000000000000000000000169190930190815260e89190911b7fffffff000000000000000000000000000000000000000000000000000000000016601482015260170192915050565b7f416363657373436f6e74726f6c3a206163636f756e742000000000000000000081526000835161261b8160178501602088016127ea565b7f206973206d697373696e6720726f6c652000000000000000000000000000000060179184019182015283516126588160288401602088016127ea565b01602801949350505050565b60208152600061175660208301846124bc565b60408152600061268a60408301856124bc565b828103602084015261269c81856124bc565b95945050505050565b602081526000825160a060208401526126c160c08401826124bc565b905073ffffffffffffffffffffffffffffffffffffffff60208501511660408401526040840151606084015260608401516080840152608084015160a08401528091505092915050565b604051601f82017fffffffffffffffffffffffffffffffffffffffffffffffffffffffffffffffe016810167ffffffffffffffff8111828210171561275257612752612936565b604052919050565b600067ffffffffffffffff82111561277457612774612936565b5060051b60200190565b60008219821115612791576127916128d8565b500190565b6000817fffffffffffffffffffffffffffffffffffffffffffffffffffffffffffffffff04831182151516156127ce576127ce6128d8565b500290565b6000828210156127e5576127e56128d8565b500390565b60005b838110156128055781810151838201526020016127ed565b8381111561061a5750506000910152565b600081612825576128256128d8565b507fffffffffffffffffffffffffffffffffffffffffffffffffffffffffffffffff0190565b600181811c9082168061285f57607f821691505b60208210811415612899577f4e487b7100000000000000000000000000000000000000000000000000000000600052602260045260246000fd5b50919050565b60007fffffffffffffffffffffffffffffffffffffffffffffffffffffffffffffffff8214156128d1576128d16128d8565b5060010190565b7f4e487b7100000000000000000000000000000000000000000000000000000000600052601160045260246000fd5b7f4e487b7100000000000000000000000000000000000000000000000000000000600052603260045260246000fd5b7f4e487b7100000000000000000000000000000000000000000000000000000000600052604160045260246000fd5b80151581146106e057600080fdfea26469706673582212206f84957bd1382b9a5e4a92fd7202efd1a7415c4055055d337a6366db3845c10664736f6c634300080700337935bd0ae54bc31f548c14dba4d37c5c64b3f8ca900cb468fb8abd54d5894f558429d542926e6695b59ac6fbdcd9b37e8b1aeb757afab06ab60b1bb5878c3b4955435dd261a4b9b3364963f7738a7a662ad9c84396d64be3365284bb7f0a5041",
  "devdoc": {
    "author": "Angle Core Team",
    "details": "This contract swaps tokens on UniV3",
    "kind": "dev",
    "methods": {
      "addToken(address,address[],uint24[])": {
        "details": "This function can be called to change the path for a token or to add a new supported token",
        "params": {
          "pathAddresses": "Addresses used (in order) for the swap",
          "pathFees": "Fees used (in order) to get the path for the pool to use for the swap",
          "token": "Token to add to this contract"
        }
      },
      "burn(address)": {
        "details": "This function is what allows for composability between different `SurplusConverter` contracts: a surplus converter having swapped tokens can send its output token to another surplus converter, responsible for doing another type of conversion, by calling this contract",
        "params": {
          "token": "Address of the token to pull"
        }
      },
      "buyback(address,uint256,uint256,bool)": {
        "details": "This function always chooses the same path",
        "params": {
          "amount": "Amount of tokens to use for the buyback",
          "minAmount": "Specify the minimum amount to receive out of the swap as a slippage protection",
          "token": "Token to use for buybacks of `rewardToken`",
          "transfer": "Whether the function should transfer the bought back `rewardToken` directly to the `FeeDistributor` contract or to the associated `SurplusConverter`"
        }
      },
      "constructor": {
        "params": {
          "_feeDistributor": "Reference to the contract handling fee distribution",
          "_rewardToken": "Reward token that this contract tries to buy",
          "_uniswapV3Router": "Reference to the `UniswapV2Router`",
          "governor": "Governor of the protocol",
          "guardians": "List of guardians of the protocol",
          "whitelisted": "Reference to the first whitelisted address that will have the right"
        }
      },
      "getRoleAdmin(bytes32)": {
        "details": "Returns the admin role that controls `role`. See {grantRole} and {revokeRole}. To change a role's admin, use {_setRoleAdmin}."
      },
      "grantRole(bytes32,address)": {
        "details": "Grants `role` to `account`. If `account` had not been already granted `role`, emits a {RoleGranted} event. Requirements: - the caller must have ``role``'s admin role."
      },
      "hasRole(bytes32,address)": {
        "details": "Returns `true` if `account` has been granted `role`."
      },
      "pause()": {
        "details": "After calling this function, it is going to be impossible for whitelisted addresses to buyback reward tokens or to send the bought back tokens to the `FeeDistributor`"
      },
      "paused()": {
        "details": "Returns true if the contract is paused, and false otherwise."
      },
      "recoverERC20(address,address,uint256)": {
        "details": "Added to support recovering rewardToken in case of impossible buybacks and other tokens mistakenly sent to this contract",
        "params": {
          "amount": "Amount to transfer",
          "to": "Address to transfer to",
          "tokenAddress": "Address of the ERC20 token to withdraw"
        }
      },
      "renounceRole(bytes32,address)": {
        "details": "Revokes `role` from the calling account. Roles are often managed via {grantRole} and {revokeRole}: this function's purpose is to provide a mechanism for accounts to lose their privileges if they are compromised (such as when a trusted device is misplaced). If the calling account had been granted `role`, emits a {RoleRevoked} event. Requirements: - the caller must be `account`."
      },
      "revokeRole(bytes32,address)": {
        "details": "Revokes `role` from `account`. If `account` had been granted `role`, emits a {RoleRevoked} event. Requirements: - the caller must have ``role``'s admin role."
      },
      "revokeToken(address)": {
        "params": {
          "token": "Token to add to this contract"
        }
      },
      "sendToFeeDistributor()": {
        "details": "The reason for having this function rather than doing such transfers directly in the `buyback` function is that it can allow to batch transfers and thus optimizes for gas"
      },
      "setFeeDistributor(address)": {
        "details": "This function is a governor only function as it could technically be used to withdraw funds from the protocol",
        "params": {
          "_feeDistributor": "Reference to the new `FeeDistributor`"
        }
      }
    },
    "title": "SurplusConverterUniV3",
    "version": 1
  },
  "userdoc": {
    "kind": "user",
    "methods": {
      "GOVERNOR_ROLE()": {
        "notice": "Role for governor of this contract"
      },
      "GUARDIAN_ROLE()": {
        "notice": "Role for guardians of this contract"
      },
      "WHITELISTED_ROLE()": {
        "notice": "Role for addresses allowed to redistribute the protocol's surplus"
      },
      "addToken(address,address[],uint24[])": {
        "notice": "Adds a token to support with this contract"
      },
      "burn(address)": {
        "notice": "Pulls tokens from another `SurplusConverter` contract"
      },
      "buyback(address,uint256,uint256,bool)": {
        "notice": "Buys back `rewardToken` from UniswapV3 using the accumulated `token` and distributes the results of the swaps to the `FeeDistributor` or some other `SurplusConverter` contract"
      },
      "constructor": {
        "notice": "Constructor of the `SurplusConverterUniV3`"
      },
      "feeDistributor()": {
        "notice": "Address responsible for distributing bought back reward tokens to veANGLE holders or for swapping the reward token of this contract to another token"
      },
      "pause()": {
        "notice": "Pauses the `buyback`, `sendToFeeDistributor` and `burn` methods"
      },
      "recoverERC20(address,address,uint256)": {
        "notice": "Withdraws ERC20 tokens that could accrue on this contract"
      },
      "revokeToken(address)": {
        "notice": "Revokes a token supported by this contract"
      },
      "rewardToken()": {
        "notice": "Reward Token obtained by this contract"
      },
      "sendToFeeDistributor()": {
        "notice": "This function transfers all the accumulated `rewardToken` to the `FeeDistributor` contract"
      },
      "setFeeDistributor(address)": {
        "notice": "Changes the reference to the `FeeDistributor` allowed to distribute rewards to veANGLE holders or to swap the reward token to another token"
      },
      "uniswapPaths(address)": {
        "notice": "Maps a token to the related path on Uniswap to do the swap to the reward token"
      },
      "uniswapV3Router()": {
        "notice": "Address of the uniswapV2Router for swaps"
      },
      "unpause()": {
        "notice": "Unpauses the `buyback` and `sendToFeeDistributor` methods"
      }
    },
    "notice": "A contract to swap tokens from the surplus of the protocol to a reward token (could be ANGLE tokens, or another type of token)",
    "version": 1
  },
  "storageLayout": {
    "storage": [
      {
        "astId": 16499,
        "contract": "contracts/surplus/SurplusConverterUniV3.sol:SurplusConverterUniV3",
        "label": "_roles",
        "offset": 0,
        "slot": "0",
        "type": "t_mapping(t_bytes32,t_struct(RoleData)16494_storage)"
      },
      {
        "astId": 8721,
        "contract": "contracts/surplus/SurplusConverterUniV3.sol:SurplusConverterUniV3",
        "label": "_paused",
        "offset": 0,
        "slot": "1",
        "type": "t_bool"
      },
      {
        "astId": 44577,
        "contract": "contracts/surplus/SurplusConverterUniV3.sol:SurplusConverterUniV3",
        "label": "feeDistributor",
        "offset": 1,
        "slot": "1",
        "type": "t_contract(IFeeDistributor)22472"
      },
      {
        "astId": 45612,
        "contract": "contracts/surplus/SurplusConverterUniV3.sol:SurplusConverterUniV3",
        "label": "uniswapPaths",
        "offset": 0,
        "slot": "2",
        "type": "t_mapping(t_address,t_bytes_storage)"
      }
    ],
    "types": {
      "t_address": {
        "encoding": "inplace",
        "label": "address",
        "numberOfBytes": "20"
      },
      "t_bool": {
        "encoding": "inplace",
        "label": "bool",
        "numberOfBytes": "1"
      },
      "t_bytes32": {
        "encoding": "inplace",
        "label": "bytes32",
        "numberOfBytes": "32"
      },
      "t_bytes_storage": {
        "encoding": "bytes",
        "label": "bytes",
        "numberOfBytes": "32"
      },
      "t_contract(IFeeDistributor)22472": {
        "encoding": "inplace",
        "label": "contract IFeeDistributor",
        "numberOfBytes": "20"
      },
      "t_mapping(t_address,t_bool)": {
        "encoding": "mapping",
        "key": "t_address",
        "label": "mapping(address => bool)",
        "numberOfBytes": "32",
        "value": "t_bool"
      },
      "t_mapping(t_address,t_bytes_storage)": {
        "encoding": "mapping",
        "key": "t_address",
        "label": "mapping(address => bytes)",
        "numberOfBytes": "32",
        "value": "t_bytes_storage"
      },
      "t_mapping(t_bytes32,t_struct(RoleData)16494_storage)": {
        "encoding": "mapping",
        "key": "t_bytes32",
        "label": "mapping(bytes32 => struct AccessControl.RoleData)",
        "numberOfBytes": "32",
        "value": "t_struct(RoleData)16494_storage"
      },
      "t_struct(RoleData)16494_storage": {
        "encoding": "inplace",
        "label": "struct AccessControl.RoleData",
        "members": [
          {
            "astId": 16491,
            "contract": "contracts/surplus/SurplusConverterUniV3.sol:SurplusConverterUniV3",
            "label": "members",
            "offset": 0,
            "slot": "0",
            "type": "t_mapping(t_address,t_bool)"
          },
          {
            "astId": 16493,
            "contract": "contracts/surplus/SurplusConverterUniV3.sol:SurplusConverterUniV3",
            "label": "adminRole",
            "offset": 0,
            "slot": "1",
            "type": "t_bytes32"
          }
        ],
        "numberOfBytes": "64"
      }
    }
  }
}