{
  "_format": "hh-sol-artifact-1",
  "contractName": "GenericCompoundUpgradeable",
  "sourceName": "contracts/genericLender/GenericCompoundUpgradeable.sol",
  "abi": [
    {
      "anonymous": false,
      "inputs": [
        {
          "indexed": true,
          "internalType": "bytes32",
          "name": "role",
          "type": "bytes32"
        },
        {
          "indexed": true,
          "internalType": "bytes32",
          "name": "previousAdminRole",
          "type": "bytes32"
        },
        {
          "indexed": true,
          "internalType": "bytes32",
          "name": "newAdminRole",
          "type": "bytes32"
        }
      ],
      "name": "RoleAdminChanged",
      "type": "event"
    },
    {
      "anonymous": false,
      "inputs": [
        {
          "indexed": true,
          "internalType": "bytes32",
          "name": "role",
          "type": "bytes32"
        },
        {
          "indexed": true,
          "internalType": "address",
          "name": "account",
          "type": "address"
        },
        {
          "indexed": true,
          "internalType": "address",
          "name": "sender",
          "type": "address"
        }
      ],
      "name": "RoleGranted",
      "type": "event"
    },
    {
      "anonymous": false,
      "inputs": [
        {
          "indexed": true,
          "internalType": "bytes32",
          "name": "role",
          "type": "bytes32"
        },
        {
          "indexed": true,
          "internalType": "address",
          "name": "account",
          "type": "address"
        },
        {
          "indexed": true,
          "internalType": "address",
          "name": "sender",
          "type": "address"
        }
      ],
      "name": "RoleRevoked",
      "type": "event"
    },
    {
      "inputs": [],
      "name": "BLOCKS_PER_YEAR",
      "outputs": [
        {
          "internalType": "uint256",
          "name": "",
          "type": "uint256"
        }
      ],
      "stateMutability": "view",
      "type": "function"
    },
    {
      "inputs": [],
      "name": "DEFAULT_ADMIN_ROLE",
      "outputs": [
        {
          "internalType": "bytes32",
          "name": "",
          "type": "bytes32"
        }
      ],
      "stateMutability": "view",
      "type": "function"
    },
    {
      "inputs": [],
      "name": "GUARDIAN_ROLE",
      "outputs": [
        {
          "internalType": "bytes32",
          "name": "",
          "type": "bytes32"
        }
      ],
      "stateMutability": "view",
      "type": "function"
    },
    {
      "inputs": [],
      "name": "KEEPER_ROLE",
      "outputs": [
        {
          "internalType": "bytes32",
          "name": "",
          "type": "bytes32"
        }
      ],
      "stateMutability": "view",
      "type": "function"
    },
    {
      "inputs": [],
      "name": "STRATEGY_ROLE",
      "outputs": [
        {
          "internalType": "bytes32",
          "name": "",
          "type": "bytes32"
        }
      ],
      "stateMutability": "view",
      "type": "function"
    },
    {
      "inputs": [],
      "name": "apr",
      "outputs": [
        {
          "internalType": "uint256",
          "name": "",
          "type": "uint256"
        }
      ],
      "stateMutability": "view",
      "type": "function"
    },
    {
      "inputs": [
        {
          "internalType": "uint256",
          "name": "amount",
          "type": "uint256"
        }
      ],
      "name": "aprAfterDeposit",
      "outputs": [
        {
          "internalType": "uint256",
          "name": "",
          "type": "uint256"
        }
      ],
      "stateMutability": "view",
      "type": "function"
    },
    {
      "inputs": [],
      "name": "cToken",
      "outputs": [
        {
          "internalType": "contract CErc20I",
          "name": "",
          "type": "address"
        }
      ],
      "stateMutability": "view",
      "type": "function"
    },
    {
      "inputs": [],
      "name": "comp",
      "outputs": [
        {
          "internalType": "address",
          "name": "",
          "type": "address"
        }
      ],
      "stateMutability": "view",
      "type": "function"
    },
    {
      "inputs": [],
      "name": "comptroller",
      "outputs": [
        {
          "internalType": "contract IComptroller",
          "name": "",
          "type": "address"
        }
      ],
      "stateMutability": "view",
      "type": "function"
    },
    {
      "inputs": [],
      "name": "deposit",
      "outputs": [],
      "stateMutability": "nonpayable",
      "type": "function"
    },
    {
      "inputs": [
        {
          "internalType": "uint256",
          "name": "amount",
          "type": "uint256"
        }
      ],
      "name": "emergencyWithdraw",
      "outputs": [],
      "stateMutability": "nonpayable",
      "type": "function"
    },
    {
      "inputs": [
        {
          "internalType": "bytes32",
          "name": "role",
          "type": "bytes32"
        }
      ],
      "name": "getRoleAdmin",
      "outputs": [
        {
          "internalType": "bytes32",
          "name": "",
          "type": "bytes32"
        }
      ],
      "stateMutability": "view",
      "type": "function"
    },
    {
      "inputs": [
        {
          "internalType": "bytes32",
          "name": "role",
          "type": "bytes32"
        },
        {
          "internalType": "address",
          "name": "account",
          "type": "address"
        }
      ],
      "name": "grantRole",
      "outputs": [],
      "stateMutability": "nonpayable",
      "type": "function"
    },
    {
      "inputs": [],
      "name": "hasAssets",
      "outputs": [
        {
          "internalType": "bool",
          "name": "",
          "type": "bool"
        }
      ],
      "stateMutability": "view",
      "type": "function"
    },
    {
      "inputs": [
        {
          "internalType": "bytes32",
          "name": "role",
          "type": "bytes32"
        },
        {
          "internalType": "address",
          "name": "account",
          "type": "address"
        }
      ],
      "name": "hasRole",
      "outputs": [
        {
          "internalType": "bool",
          "name": "",
          "type": "bool"
        }
      ],
      "stateMutability": "view",
      "type": "function"
    },
    {
      "inputs": [
        {
          "internalType": "address",
          "name": "_strategy",
          "type": "address"
        },
        {
          "internalType": "string",
          "name": "_name",
          "type": "string"
        },
        {
          "internalType": "address",
          "name": "_cToken",
          "type": "address"
        },
        {
          "internalType": "address[]",
          "name": "governorList",
          "type": "address[]"
        },
        {
          "internalType": "address[]",
          "name": "keeperList",
          "type": "address[]"
        },
        {
          "internalType": "address",
          "name": "guardian",
          "type": "address"
        }
      ],
      "name": "initialize",
      "outputs": [],
      "stateMutability": "nonpayable",
      "type": "function"
    },
    {
      "inputs": [],
      "name": "lenderName",
      "outputs": [
        {
          "internalType": "string",
          "name": "",
          "type": "string"
        }
      ],
      "stateMutability": "view",
      "type": "function"
    },
    {
      "inputs": [],
      "name": "nav",
      "outputs": [
        {
          "internalType": "uint256",
          "name": "",
          "type": "uint256"
        }
      ],
      "stateMutability": "view",
      "type": "function"
    },
    {
      "inputs": [],
      "name": "oneInch",
      "outputs": [
        {
          "internalType": "address",
          "name": "",
          "type": "address"
        }
      ],
      "stateMutability": "view",
      "type": "function"
    },
    {
      "inputs": [],
      "name": "oracle",
      "outputs": [
        {
          "internalType": "contract AggregatorV3Interface",
          "name": "",
          "type": "address"
        }
      ],
      "stateMutability": "view",
      "type": "function"
    },
    {
      "inputs": [],
      "name": "poolManager",
      "outputs": [
        {
          "internalType": "contract IPoolManager",
          "name": "",
          "type": "address"
        }
      ],
      "stateMutability": "view",
      "type": "function"
    },
    {
      "inputs": [
        {
          "internalType": "address",
          "name": "to",
          "type": "address"
        },
        {
          "internalType": "uint256",
          "name": "amount",
          "type": "uint256"
        }
      ],
      "name": "recoverETH",
      "outputs": [],
      "stateMutability": "nonpayable",
      "type": "function"
    },
    {
      "inputs": [
        {
          "internalType": "bytes32",
          "name": "role",
          "type": "bytes32"
        },
        {
          "internalType": "address",
          "name": "account",
          "type": "address"
        }
      ],
      "name": "renounceRole",
      "outputs": [],
      "stateMutability": "nonpayable",
      "type": "function"
    },
    {
      "inputs": [
        {
          "internalType": "bytes32",
          "name": "role",
          "type": "bytes32"
        },
        {
          "internalType": "address",
          "name": "account",
          "type": "address"
        }
      ],
      "name": "revokeRole",
      "outputs": [],
      "stateMutability": "nonpayable",
      "type": "function"
    },
    {
      "inputs": [],
      "name": "strategy",
      "outputs": [
        {
          "internalType": "address",
          "name": "",
          "type": "address"
        }
      ],
      "stateMutability": "view",
      "type": "function"
    },
    {
      "inputs": [
        {
          "internalType": "uint256",
          "name": "minAmountOut",
          "type": "uint256"
        },
        {
          "internalType": "bytes",
          "name": "payload",
          "type": "bytes"
        }
      ],
      "name": "swapComp",
      "outputs": [],
      "stateMutability": "nonpayable",
      "type": "function"
    },
    {
      "inputs": [
        {
          "internalType": "address",
          "name": "_token",
          "type": "address"
        },
        {
          "internalType": "address",
          "name": "to",
          "type": "address"
        }
      ],
      "name": "sweep",
      "outputs": [],
      "stateMutability": "nonpayable",
      "type": "function"
    },
    {
      "inputs": [],
      "name": "underlyingBalanceStored",
      "outputs": [
        {
          "internalType": "uint256",
          "name": "balance",
          "type": "uint256"
        }
      ],
      "stateMutability": "view",
      "type": "function"
    },
    {
      "inputs": [],
      "name": "want",
      "outputs": [
        {
          "internalType": "contract IERC20",
          "name": "",
          "type": "address"
        }
      ],
      "stateMutability": "view",
      "type": "function"
    },
    {
      "inputs": [],
      "name": "wantBase",
      "outputs": [
        {
          "internalType": "uint256",
          "name": "",
          "type": "uint256"
        }
      ],
      "stateMutability": "view",
      "type": "function"
    },
    {
      "inputs": [],
      "name": "weightedApr",
      "outputs": [
        {
          "internalType": "uint256",
          "name": "",
          "type": "uint256"
        }
      ],
      "stateMutability": "view",
      "type": "function"
    },
    {
      "inputs": [
        {
          "internalType": "uint256",
          "name": "amount",
          "type": "uint256"
        }
      ],
      "name": "withdraw",
      "outputs": [
        {
          "internalType": "uint256",
          "name": "",
          "type": "uint256"
        }
      ],
      "stateMutability": "nonpayable",
      "type": "function"
    },
    {
      "inputs": [],
      "name": "withdrawAll",
      "outputs": [
        {
          "internalType": "bool",
          "name": "",
          "type": "bool"
        }
      ],
      "stateMutability": "nonpayable",
      "type": "function"
    },
    {
      "stateMutability": "payable",
      "type": "receive"
    }
  ],
  "bytecode": "0x60806040523480156200001157600080fd5b50600054610100900460ff16806200002c575060005460ff16155b620000945760405162461bcd60e51b815260206004820152602e60248201527f496e697469616c697a61626c653a20636f6e747261637420697320616c72656160448201526d191e481a5b9a5d1a585b1a5e995960921b606482015260840160405180910390fd5b600054610100900460ff16158015620000b7576000805461ffff19166101011790555b8015620000ca576000805461ff00191690555b5061410780620000db6000396000f3fe60806040526004361061021d5760003560e01c80635be9b2d31161011d578063a8c62e76116100b0578063cea0fba21161007f578063d37db1d211610064578063d37db1d214610687578063d547741f1461069e578063dc4c90d3146106be57600080fd5b8063cea0fba214610652578063d0e30db01461067257600080fd5b8063a8c62e76146105db578063b8dc491b14610608578063c1590cd714610628578063c6afba3c1461063d57600080fd5b8063853828b6116100ec578063853828b61461056f5780638b2021761461058457806391d14854146105a6578063a217fddf146105c657600080fd5b80635be9b2d3146104cd5780635fe3b567146104f257806369e527da1461051a5780637dc0d1d01461054757600080fd5b80632e1a7d4d116101b05780633e0c06291161017f57806357ded9c91161016457806357ded9c914610464578063580b7c2e146104795780635a71fd09146104ad57600080fd5b80633e0c0629146104245780635312ea8e1461044457600080fd5b80632e1a7d4d1461038e5780632f2ff15d146103ae578063364bc15a146103d057806336568abe1461040457600080fd5b8063149a4ae4116101ec578063149a4ae4146102dc5780631f1fcd51146102fc578063248a9ca31461032957806324ea54f41461035a57600080fd5b8063045c08d5146102295780630b6d1d171461027b578063109d0af81461029f578063116ac4a3146102c757600080fd5b3661022457005b600080fd5b34801561023557600080fd5b50610251731111111254fb6c44bac0bed2854e76f90643097d81565b60405173ffffffffffffffffffffffffffffffffffffffff90911681526020015b60405180910390f35b34801561028757600080fd5b5061029160385481565b604051908152602001610272565b3480156102ab57600080fd5b5061025173c00e94cb662c3520282e6f5717214004a7f2688881565b3480156102d357600080fd5b506102916106eb565b3480156102e857600080fd5b506102916102f7366004613a49565b610710565b34801561030857600080fd5b506036546102519073ffffffffffffffffffffffffffffffffffffffff1681565b34801561033557600080fd5b50610291610344366004613a49565b6000908152600160208190526040909120015490565b34801561036657600080fd5b506102917f55435dd261a4b9b3364963f7738a7a662ad9c84396d64be3365284bb7f0a504181565b34801561039a57600080fd5b506102916103a9366004613a49565b610b3d565b3480156103ba57600080fd5b506103ce6103c9366004613a62565b610b7c565b005b3480156103dc57600080fd5b506102917ffc8737ab85eb45125971625a9ebdb75cc78e01d5c1fa80c4c6e5203f47bc4fab81565b34801561041057600080fd5b506103ce61041f366004613a62565b610ba8565b34801561043057600080fd5b506103ce61043f3660046139fb565b610c3a565b34801561045057600080fd5b506103ce61045f366004613a49565b610cfd565b34801561047057600080fd5b50610291610e97565b34801561048557600080fd5b506102917f928286c473ded01ff8bf61a1986f14a0579066072fa8261442d9fea514d93a4c81565b3480156104b957600080fd5b506103ce6104c8366004613929565b610ea6565b3480156104d957600080fd5b506104e2611224565b6040519015158152602001610272565b3480156104fe57600080fd5b50610251733d9819210a31b4961b30ef54be2aed79b9c9cd3b81565b34801561052657600080fd5b506037546102519073ffffffffffffffffffffffffffffffffffffffff1681565b34801561055357600080fd5b5061025173dbd020caef83efd542f4de03e3cf0c28a4428bd581565b34801561057b57600080fd5b506104e2611379565b34801561059057600080fd5b506105996113ca565b6040516102729190613cc6565b3480156105b257600080fd5b506104e26105c1366004613a62565b611458565b3480156105d257600080fd5b50610291600081565b3480156105e757600080fd5b506035546102519073ffffffffffffffffffffffffffffffffffffffff1681565b34801561061457600080fd5b506103ce6106233660046138f0565b611492565b34801561063457600080fd5b5061029161165e565b34801561064957600080fd5b50610291611668565b34801561065e57600080fd5b506103ce61066d366004613aa0565b6117db565b34801561067e57600080fd5b506103ce611919565b34801561069357600080fd5b506102916223dbb081565b3480156106aa57600080fd5b506103ce6106b9366004613a62565b611af2565b3480156106ca57600080fd5b506034546102519073ffffffffffffffffffffffffffffffffffffffff1681565b6000806106f6611b19565b9050610700611bde565b61070a9082613ee3565b91505090565b6036546037546040517f70a0823100000000000000000000000000000000000000000000000000000000815273ffffffffffffffffffffffffffffffffffffffff9182166004820152600092839216906370a082319060240160206040518083038186803b15801561078157600080fd5b505afa158015610795573d6000803e3d6000fd5b505050506040513d601f19601f820116820180604052508101906107b99190613a87565b90506000603760009054906101000a900473ffffffffffffffffffffffffffffffffffffffff1673ffffffffffffffffffffffffffffffffffffffff166347bd37186040518163ffffffff1660e01b815260040160206040518083038186803b15801561082557600080fd5b505afa158015610839573d6000803e3d6000fd5b505050506040513d601f19601f8201168201806040525081019061085d9190613a87565b90506000603760009054906101000a900473ffffffffffffffffffffffffffffffffffffffff1673ffffffffffffffffffffffffffffffffffffffff16638f840ddd6040518163ffffffff1660e01b815260040160206040518083038186803b1580156108c957600080fd5b505afa1580156108dd573d6000803e3d6000fd5b505050506040513d601f19601f820116820180604052508101906109019190613a87565b90506000603760009054906101000a900473ffffffffffffffffffffffffffffffffffffffff1673ffffffffffffffffffffffffffffffffffffffff1663173b99046040518163ffffffff1660e01b815260040160206040518083038186803b15801561096d57600080fd5b505afa158015610981573d6000803e3d6000fd5b505050506040513d601f19601f820116820180604052508101906109a59190613a87565b90506000603760009054906101000a900473ffffffffffffffffffffffffffffffffffffffff1673ffffffffffffffffffffffffffffffffffffffff1663f3fdb15a6040518163ffffffff1660e01b815260040160206040518083038186803b158015610a1157600080fd5b505afa158015610a25573d6000803e3d6000fd5b505050506040513d601f19601f82011682018060405250810190610a4991906138d3565b9050600073ffffffffffffffffffffffffffffffffffffffff821663b8168816610a738a89613d66565b6040517fffffffff0000000000000000000000000000000000000000000000000000000060e084901b168152600481019190915260248101889052604481018790526064810186905260840160206040518083038186803b158015610ad757600080fd5b505afa158015610aeb573d6000803e3d6000fd5b505050506040513d601f19601f82011682018060405250810190610b0f9190613a87565b9050610b1a88611c89565b610b276223dbb083613ee3565b610b319190613d66565b98975050505050505050565b60007f928286c473ded01ff8bf61a1986f14a0579066072fa8261442d9fea514d93a4c610b6a8133611f26565b610b7383611fcf565b91505b50919050565b60008281526001602081905260409091200154610b998133611f26565b610ba38383612678565b505050565b73ffffffffffffffffffffffffffffffffffffffff81163314610c2c576040517f08c379a000000000000000000000000000000000000000000000000000000000815260206004820152600260248201527f373100000000000000000000000000000000000000000000000000000000000060448201526064015b60405180910390fd5b610c36828261270e565b5050565b7f55435dd261a4b9b3364963f7738a7a662ad9c84396d64be3365284bb7f0a5041610c658133611f26565b60405173ffffffffffffffffffffffffffffffffffffffff84169083156108fc029084906000818181858888f19350505050610ba3576040517f08c379a000000000000000000000000000000000000000000000000000000000815260206004820152600260248201527f39380000000000000000000000000000000000000000000000000000000000006044820152606401610c23565b7f55435dd261a4b9b3364963f7738a7a662ad9c84396d64be3365284bb7f0a5041610d288133611f26565b6037546040517f852a12e30000000000000000000000000000000000000000000000000000000081526004810184905273ffffffffffffffffffffffffffffffffffffffff9091169063852a12e390602401602060405180830381600087803b158015610d9457600080fd5b505af1158015610da8573d6000803e3d6000fd5b505050506040513d601f19601f82011682018060405250810190610dcc9190613a87565b506034546036546040517f70a08231000000000000000000000000000000000000000000000000000000008152306004820152610c369273ffffffffffffffffffffffffffffffffffffffff9081169216906370a082319060240160206040518083038186803b158015610e3f57600080fd5b505afa158015610e53573d6000803e3d6000fd5b505050506040513d601f19601f82011682018060405250810190610e779190613a87565b60365473ffffffffffffffffffffffffffffffffffffffff1691906127a0565b6000610ea1611b19565b905090565b610eb286868584612874565b610edc7ffc8737ab85eb45125971625a9ebdb75cc78e01d5c1fa80c4c6e5203f47bc4fab82612d41565b60005b8251811015610f3d57610f2b7ffc8737ab85eb45125971625a9ebdb75cc78e01d5c1fa80c4c6e5203f47bc4fab848381518110610f1e57610f1e61404e565b6020026020010151612d41565b80610f3581613fe6565b915050610edf565b50610f887ffc8737ab85eb45125971625a9ebdb75cc78e01d5c1fa80c4c6e5203f47bc4fab7f55435dd261a4b9b3364963f7738a7a662ad9c84396d64be3365284bb7f0a5041612d4b565b603780547fffffffffffffffffffffffff00000000000000000000000000000000000000001673ffffffffffffffffffffffffffffffffffffffff868116918217909255603654604080517f6f307dc300000000000000000000000000000000000000000000000000000000815290519190931692636f307dc3916004808301926020929190829003018186803b15801561102257600080fd5b505afa158015611036573d6000803e3d6000fd5b505050506040513d601f19601f8201168201806040525081019061105a91906138d3565b73ffffffffffffffffffffffffffffffffffffffff16146110d7576040517f08c379a000000000000000000000000000000000000000000000000000000000815260206004820152600c60248201527f77726f6e672063546f6b656e00000000000000000000000000000000000000006044820152606401610c23565b603660009054906101000a900473ffffffffffffffffffffffffffffffffffffffff1673ffffffffffffffffffffffffffffffffffffffff1663313ce5676040518163ffffffff1660e01b815260040160206040518083038186803b15801561113f57600080fd5b505afa158015611153573d6000803e3d6000fd5b505050506040513d601f19601f820116820180604052508101906111779190613b4b565b61118290600a613e1a565b6038556036546111c99073ffffffffffffffffffffffffffffffffffffffff16857fffffffffffffffffffffffffffffffffffffffffffffffffffffffffffffffff612da2565b61121c73c00e94cb662c3520282e6f5717214004a7f26888731111111254fb6c44bac0bed2854e76f90643097d7fffffffffffffffffffffffffffffffffffffffffffffffffffffffffffffffff612da2565b505050505050565b6037546040517f70a08231000000000000000000000000000000000000000000000000000000008152306004820152600091829173ffffffffffffffffffffffffffffffffffffffff909116906370a082319060240160206040518083038186803b15801561129257600080fd5b505afa1580156112a6573d6000803e3d6000fd5b505050506040513d601f19601f820116820180604052508101906112ca9190613a87565b1180610ea157506036546040517f70a0823100000000000000000000000000000000000000000000000000000000815230600482015260009173ffffffffffffffffffffffffffffffffffffffff16906370a082319060240160206040518083038186803b15801561133b57600080fd5b505afa15801561134f573d6000803e3d6000fd5b505050506040513d601f19601f820116820180604052508101906113739190613a87565b11905090565b60007f928286c473ded01ff8bf61a1986f14a0579066072fa8261442d9fea514d93a4c6113a68133611f26565b60006113b0611bde565b905060006113bd82611fcf565b91909110159250505b5090565b603380546113d790613f98565b80601f016020809104026020016040519081016040528092919081815260200182805461140390613f98565b80156114505780601f1061142557610100808354040283529160200191611450565b820191906000526020600020905b81548152906001019060200180831161143357829003601f168201915b505050505081565b600082815260016020908152604080832073ffffffffffffffffffffffffffffffffffffffff8516845290915290205460ff165b92915050565b7f55435dd261a4b9b3364963f7738a7a662ad9c84396d64be3365284bb7f0a50416114bd8133611f26565b60006114c7612f33565b905060005b8151811015611596578181815181106114e7576114e761404e565b602002602001015173ffffffffffffffffffffffffffffffffffffffff168573ffffffffffffffffffffffffffffffffffffffff161415611584576040517f08c379a000000000000000000000000000000000000000000000000000000000815260206004820152600260248201527f39330000000000000000000000000000000000000000000000000000000000006044820152606401610c23565b8061158e81613fe6565b9150506114cc565b506040517f70a0823100000000000000000000000000000000000000000000000000000000815230600482015261165890849073ffffffffffffffffffffffffffffffffffffffff8716906370a082319060240160206040518083038186803b15801561160257600080fd5b505afa158015611616573d6000803e3d6000fd5b505050506040513d601f19601f8201168201806040525081019061163a9190613a87565b73ffffffffffffffffffffffffffffffffffffffff871691906127a0565b50505050565b6000610ea1611bde565b6037546040517f70a08231000000000000000000000000000000000000000000000000000000008152306004820152600091829173ffffffffffffffffffffffffffffffffffffffff909116906370a082319060240160206040518083038186803b1580156116d657600080fd5b505afa1580156116ea573d6000803e3d6000fd5b505050506040513d601f19601f8201168201806040525081019061170e9190613a87565b90508061171d57600091505090565b603754604080517f182df0f50000000000000000000000000000000000000000000000000000000081529051670de0b6b3a76400009273ffffffffffffffffffffffffffffffffffffffff169163182df0f5916004808301926020929190829003018186803b15801561178f57600080fd5b505afa1580156117a3573d6000803e3d6000fd5b505050506040513d601f19601f820116820180604052508101906117c79190613a87565b6117d19083613ee3565b61070a9190613d7e565b7ffc8737ab85eb45125971625a9ebdb75cc78e01d5c1fa80c4c6e5203f47bc4fab6118068133611f26565b600080731111111254fb6c44bac0bed2854e76f90643097d73ffffffffffffffffffffffffffffffffffffffff16846040516118429190613b6e565b6000604051808303816000865af19150503d806000811461187f576040519150601f19603f3d011682016040523d82523d6000602084013e611884565b606091505b5091509150816118975761189781612fed565b6000818060200190518101906118ad9190613a87565b90508581101561121c576040517f08c379a000000000000000000000000000000000000000000000000000000000815260206004820152600260248201527f31350000000000000000000000000000000000000000000000000000000000006044820152606401610c23565b7f928286c473ded01ff8bf61a1986f14a0579066072fa8261442d9fea514d93a4c6119448133611f26565b6036546040517f70a0823100000000000000000000000000000000000000000000000000000000815230600482015260009173ffffffffffffffffffffffffffffffffffffffff16906370a082319060240160206040518083038186803b1580156119ae57600080fd5b505afa1580156119c2573d6000803e3d6000fd5b505050506040513d601f19601f820116820180604052508101906119e69190613a87565b6037546040517fa0712d680000000000000000000000000000000000000000000000000000000081526004810183905291925073ffffffffffffffffffffffffffffffffffffffff169063a0712d6890602401602060405180830381600087803b158015611a5357600080fd5b505af1158015611a67573d6000803e3d6000fd5b505050506040513d601f19601f82011682018060405250810190611a8b9190613a87565b15610c36576040517f08c379a000000000000000000000000000000000000000000000000000000000815260206004820152600960248201527f6d696e74206661696c00000000000000000000000000000000000000000000006044820152606401610c23565b60008281526001602081905260409091200154611b0f8133611f26565b610ba3838361270e565b6000611b256000611c89565b603754604080517fae9d70b000000000000000000000000000000000000000000000000000000000815290516223dbb09273ffffffffffffffffffffffffffffffffffffffff169163ae9d70b0916004808301926020929190829003018186803b158015611b9257600080fd5b505afa158015611ba6573d6000803e3d6000fd5b505050506040513d601f19601f82011682018060405250810190611bca9190613a87565b611bd49190613ee3565b610ea19190613d66565b6000611be8611668565b6036546040517f70a0823100000000000000000000000000000000000000000000000000000000815230600482015273ffffffffffffffffffffffffffffffffffffffff909116906370a082319060240160206040518083038186803b158015611c5157600080fd5b505afa158015611c65573d6000803e3d6000fd5b505050506040513d601f19601f82011682018060405250810190611bd49190613a87565b6037546040517f6aa875b500000000000000000000000000000000000000000000000000000000815273ffffffffffffffffffffffffffffffffffffffff90911660048201526000908190733d9819210a31b4961b30ef54be2aed79b9c9cd3b90636aa875b59060240160206040518083038186803b158015611d0b57600080fd5b505afa158015611d1f573d6000803e3d6000fd5b505050506040513d601f19601f82011682018060405250810190611d439190613a87565b9050600083670de0b6b3a7640000603760009054906101000a900473ffffffffffffffffffffffffffffffffffffffff1673ffffffffffffffffffffffffffffffffffffffff1663182df0f56040518163ffffffff1660e01b815260040160206040518083038186803b158015611db957600080fd5b505afa158015611dcd573d6000803e3d6000fd5b505050506040513d601f19601f82011682018060405250810190611df19190613a87565b603760009054906101000a900473ffffffffffffffffffffffffffffffffffffffff1673ffffffffffffffffffffffffffffffffffffffff166318160ddd6040518163ffffffff1660e01b815260040160206040518083038186803b158015611e5957600080fd5b505afa158015611e6d573d6000803e3d6000fd5b505050506040513d601f19601f82011682018060405250810190611e919190613a87565b611e9b9190613ee3565b611ea59190613d7e565b611eaf9190613d66565b9050611eba8261305e565b9150600081611ed757611ed06223dbb084613ee3565b9050611f04565b81611ee56223dbb085613ee3565b611ef790670de0b6b3a7640000613ee3565b611f019190613d7e565b90505b612710611f138261251c613ee3565b611f1d9190613d7e565b95945050505050565b611f308282611458565b610c3657611f558173ffffffffffffffffffffffffffffffffffffffff1660146131d4565b611f608360206131d4565b604051602001611f71929190613b8a565b604080517fffffffffffffffffffffffffffffffffffffffffffffffffffffffffffffffe0818403018152908290527f08c379a0000000000000000000000000000000000000000000000000000000008252610c2391600401613cc6565b6037546040517f3af9e669000000000000000000000000000000000000000000000000000000008152306004820152600091829173ffffffffffffffffffffffffffffffffffffffff90911690633af9e66990602401602060405180830381600087803b15801561203f57600080fd5b505af1158015612053573d6000803e3d6000fd5b505050506040513d601f19601f820116820180604052508101906120779190613a87565b6036546040517f70a0823100000000000000000000000000000000000000000000000000000000815230600482015291925060009173ffffffffffffffffffffffffffffffffffffffff909116906370a082319060240160206040518083038186803b1580156120e657600080fd5b505afa1580156120fa573d6000803e3d6000fd5b505050506040513d601f19601f8201168201806040525081019061211e9190613a87565b9050600061212c8284613d66565b90508085111561213a578094505b8482106121745760355460365461216b9173ffffffffffffffffffffffffffffffffffffffff9182169116876127a0565b50929392505050565b6036546037546040517f70a0823100000000000000000000000000000000000000000000000000000000815273ffffffffffffffffffffffffffffffffffffffff918216600482015260009291909116906370a082319060240160206040518083038186803b1580156121e657600080fd5b505afa1580156121fa573d6000803e3d6000fd5b505050506040513d601f19601f8201168201806040525081019061221e9190613a87565b9050600181111561245b5760006122358488613f20565b905081811161234e576037546040517f852a12e30000000000000000000000000000000000000000000000000000000081526004810183905273ffffffffffffffffffffffffffffffffffffffff9091169063852a12e390602401602060405180830381600087803b1580156122aa57600080fd5b505af11580156122be573d6000803e3d6000fd5b505050506040513d601f19601f820116820180604052508101906122e29190613a87565b15612349576040517f08c379a000000000000000000000000000000000000000000000000000000000815260206004820152601560248201527f72656465656d556e6465726c79696e67206661696c00000000000000000000006044820152606401610c23565b612459565b6037546040517f852a12e30000000000000000000000000000000000000000000000000000000081526004810184905273ffffffffffffffffffffffffffffffffffffffff9091169063852a12e390602401602060405180830381600087803b1580156123ba57600080fd5b505af11580156123ce573d6000803e3d6000fd5b505050506040513d601f19601f820116820180604052508101906123f29190613a87565b15612459576040517f08c379a000000000000000000000000000000000000000000000000000000000815260206004820152601560248201527f72656465656d556e6465726c79696e67206661696c00000000000000000000006044820152606401610c23565b505b60408051600180825281830190925260009160208083019080368337505060408051600180825281830190925292935060009291506020808301908036833701905050905030826000815181106124b4576124b461404e565b73ffffffffffffffffffffffffffffffffffffffff9283166020918202929092010152603754825191169082906000906124f0576124f061404e565b73ffffffffffffffffffffffffffffffffffffffff909216602092830291909101909101526040517f6810dfa6000000000000000000000000000000000000000000000000000000008152733d9819210a31b4961b30ef54be2aed79b9c9cd3b90636810dfa69061256c90859085906001908190600401613c0b565b600060405180830381600087803b15801561258657600080fd5b505af115801561259a573d6000803e3d6000fd5b50506036546040517f70a0823100000000000000000000000000000000000000000000000000000000815230600482015273ffffffffffffffffffffffffffffffffffffffff90911692506370a08231915060240160206040518083038186803b15801561260757600080fd5b505afa15801561261b573d6000803e3d6000fd5b505050506040513d601f19601f8201168201806040525081019061263f9190613a87565b60355460365491965061266c9173ffffffffffffffffffffffffffffffffffffffff9081169116876127a0565b50929695505050505050565b6126828282611458565b610c3657600082815260016020818152604080842073ffffffffffffffffffffffffffffffffffffffff8616808652925280842080547fffffffffffffffffffffffffffffffffffffffffffffffffffffffffffffff00169093179092559051339285917f2f8788117e7eff1d82e926ec794901d17c78024a50270940304540a733656f0d9190a45050565b6127188282611458565b15610c3657600082815260016020908152604080832073ffffffffffffffffffffffffffffffffffffffff8516808552925280832080547fffffffffffffffffffffffffffffffffffffffffffffffffffffffffffffff0016905551339285917ff6391f5c32d9c69d2a47ea670b442974b53935d1edc7fd64eb21e047a839171b9190a45050565b60405173ffffffffffffffffffffffffffffffffffffffff8316602482015260448101829052610ba39084907fa9059cbb00000000000000000000000000000000000000000000000000000000906064015b604080517fffffffffffffffffffffffffffffffffffffffffffffffffffffffffffffffe08184030181529190526020810180517bffffffffffffffffffffffffffffffffffffffffffffffffffffffff167fffffffff000000000000000000000000000000000000000000000000000000009093169290921790915261341e565b600054610100900460ff168061288d575060005460ff16155b612919576040517f08c379a000000000000000000000000000000000000000000000000000000000815260206004820152602e60248201527f496e697469616c697a61626c653a20636f6e747261637420697320616c72656160448201527f647920696e697469616c697a65640000000000000000000000000000000000006064820152608401610c23565b600054610100900460ff1615801561295857600080547fffffffffffffffffffffffffffffffffffffffffffffffffffffffffffff0000166101011790555b603580547fffffffffffffffffffffffff00000000000000000000000000000000000000001673ffffffffffffffffffffffffffffffffffffffff8716908117909155604080517fdc4c90d3000000000000000000000000000000000000000000000000000000008152905163dc4c90d391600480820192602092909190829003018186803b1580156129ea57600080fd5b505afa1580156129fe573d6000803e3d6000fd5b505050506040513d601f19601f82011682018060405250810190612a2291906138d3565b603480547fffffffffffffffffffffffff00000000000000000000000000000000000000001673ffffffffffffffffffffffffffffffffffffffff929092169182179055604080517ffc0c546a000000000000000000000000000000000000000000000000000000008152905163fc0c546a91600480820192602092909190829003018186803b158015612ab557600080fd5b505afa158015612ac9573d6000803e3d6000fd5b505050506040513d601f19601f82011682018060405250810190612aed91906138d3565b603680547fffffffffffffffffffffffff00000000000000000000000000000000000000001673ffffffffffffffffffffffffffffffffffffffff929092169190911790558351612b45906033906020870190613714565b50603454612b8a907f55435dd261a4b9b3364963f7738a7a662ad9c84396d64be3365284bb7f0a50419073ffffffffffffffffffffffffffffffffffffffff16612d41565b60005b8351811015612bde57612bcc7f55435dd261a4b9b3364963f7738a7a662ad9c84396d64be3365284bb7f0a5041858381518110610f1e57610f1e61404e565b80612bd681613fe6565b915050612b8d565b50612c097f55435dd261a4b9b3364963f7738a7a662ad9c84396d64be3365284bb7f0a504183612d41565b612c337f928286c473ded01ff8bf61a1986f14a0579066072fa8261442d9fea514d93a4c86612d41565b612c7d7f55435dd261a4b9b3364963f7738a7a662ad9c84396d64be3365284bb7f0a50417f928286c473ded01ff8bf61a1986f14a0579066072fa8261442d9fea514d93a4c612d4b565b612cc77f928286c473ded01ff8bf61a1986f14a0579066072fa8261442d9fea514d93a4c7f55435dd261a4b9b3364963f7738a7a662ad9c84396d64be3365284bb7f0a5041612d4b565b603654612d0b9073ffffffffffffffffffffffffffffffffffffffff16867fffffffffffffffffffffffffffffffffffffffffffffffffffffffffffffffff612da2565b8015612d3a57600080547fffffffffffffffffffffffffffffffffffffffffffffffffffffffffffff00ff1690555b5050505050565b610c368282612678565b60008281526001602081905260409091200154819060405184907fbd79b86ffe0ab8e8776151514217cd7cacd52c909f66475c3af44e129f0b00ff90600090a4600091825260016020819052604090922090910155565b801580612e5157506040517fdd62ed3e00000000000000000000000000000000000000000000000000000000815230600482015273ffffffffffffffffffffffffffffffffffffffff838116602483015284169063dd62ed3e9060440160206040518083038186803b158015612e1757600080fd5b505afa158015612e2b573d6000803e3d6000fd5b505050506040513d601f19601f82011682018060405250810190612e4f9190613a87565b155b612edd576040517f08c379a000000000000000000000000000000000000000000000000000000000815260206004820152603660248201527f5361666545524332303a20617070726f76652066726f6d206e6f6e2d7a65726f60448201527f20746f206e6f6e2d7a65726f20616c6c6f77616e6365000000000000000000006064820152608401610c23565b60405173ffffffffffffffffffffffffffffffffffffffff8316602482015260448101829052610ba39084907f095ea7b300000000000000000000000000000000000000000000000000000000906064016127f2565b604080516002808252606080830184529260009291906020830190803683375050603654825192935073ffffffffffffffffffffffffffffffffffffffff1691839150600090612f8557612f8561404e565b73ffffffffffffffffffffffffffffffffffffffff9283166020918202929092010152603754825191169082906001908110612fc357612fc361404e565b73ffffffffffffffffffffffffffffffffffffffff90921660209283029190910190910152919050565b805115612ffc57805181602001fd5b6040517f08c379a000000000000000000000000000000000000000000000000000000000815260206004820152600360248201527f31313700000000000000000000000000000000000000000000000000000000006044820152606401610c23565b60008161306d57506000919050565b600080600073dbd020caef83efd542f4de03e3cf0c28a4428bd573ffffffffffffffffffffffffffffffffffffffff1663feaf968c6040518163ffffffff1660e01b815260040160a06040518083038186803b1580156130cc57600080fd5b505afa1580156130e0573d6000803e3d6000fd5b505050506040513d601f19601f820116820180604052508101906131049190613afb565b945050509250925060008213801561313457508069ffffffffffffffffffff168369ffffffffffffffffffff1611155b61319a576040517f08c379a000000000000000000000000000000000000000000000000000000000815260206004820152600360248201527f31303000000000000000000000000000000000000000000000000000000000006044820152606401610c23565b60385482906a52b7d2dcc80cd2e4000000906131b68389613ee3565b6131c09190613ee3565b6131ca9190613d7e565b9695505050505050565b606060006131e3836002613ee3565b6131ee906002613d66565b67ffffffffffffffff8111156132065761320661407d565b6040519080825280601f01601f191660200182016040528015613230576020820181803683370190505b5090507f3000000000000000000000000000000000000000000000000000000000000000816000815181106132675761326761404e565b60200101907effffffffffffffffffffffffffffffffffffffffffffffffffffffffffffff1916908160001a9053507f7800000000000000000000000000000000000000000000000000000000000000816001815181106132ca576132ca61404e565b60200101907effffffffffffffffffffffffffffffffffffffffffffffffffffffffffffff1916908160001a9053506000613306846002613ee3565b613311906001613d66565b90505b60018111156133ae577f303132333435363738396162636465660000000000000000000000000000000085600f16601081106133525761335261404e565b1a60f81b8282815181106133685761336861404e565b60200101907effffffffffffffffffffffffffffffffffffffffffffffffffffffffffffff1916908160001a90535060049490941c936133a781613f63565b9050613314565b508315613417576040517f08c379a000000000000000000000000000000000000000000000000000000000815260206004820181905260248201527f537472696e67733a20686578206c656e67746820696e73756666696369656e746044820152606401610c23565b9392505050565b6000613480826040518060400160405280602081526020017f5361666545524332303a206c6f772d6c6576656c2063616c6c206661696c65648152508573ffffffffffffffffffffffffffffffffffffffff1661352a9092919063ffffffff16565b805190915015610ba3578080602001905181019061349e9190613a27565b610ba3576040517f08c379a000000000000000000000000000000000000000000000000000000000815260206004820152602a60248201527f5361666545524332303a204552433230206f7065726174696f6e20646964206e60448201527f6f742073756363656564000000000000000000000000000000000000000000006064820152608401610c23565b60606135398484600085613541565b949350505050565b6060824710156135d3576040517f08c379a000000000000000000000000000000000000000000000000000000000815260206004820152602660248201527f416464726573733a20696e73756666696369656e742062616c616e636520666f60448201527f722063616c6c00000000000000000000000000000000000000000000000000006064820152608401610c23565b843b61363b576040517f08c379a000000000000000000000000000000000000000000000000000000000815260206004820152601d60248201527f416464726573733a2063616c6c20746f206e6f6e2d636f6e74726163740000006044820152606401610c23565b6000808673ffffffffffffffffffffffffffffffffffffffff1685876040516136649190613b6e565b60006040518083038185875af1925050503d80600081146136a1576040519150601f19603f3d011682016040523d82523d6000602084013e6136a6565b606091505b50915091506136b68282866136c1565b979650505050505050565b606083156136d0575081613417565b8251156136e05782518084602001fd5b816040517f08c379a0000000000000000000000000000000000000000000000000000000008152600401610c239190613cc6565b82805461372090613f98565b90600052602060002090601f0160209004810192826137425760008555613788565b82601f1061375b57805160ff1916838001178555613788565b82800160010185558215613788579182015b8281111561378857825182559160200191906001019061376d565b506113c69291505b808211156113c65760008155600101613790565b600067ffffffffffffffff8311156137be576137be61407d565b6137ef60207fffffffffffffffffffffffffffffffffffffffffffffffffffffffffffffffe0601f86011601613d17565b905082815283838301111561380357600080fd5b828260208301376000602084830101529392505050565b8035613825816140ac565b919050565b600082601f83011261383b57600080fd5b8135602067ffffffffffffffff8211156138575761385761407d565b8160051b613866828201613d17565b83815282810190868401838801850189101561388157600080fd5b600093505b858410156138ad578035613899816140ac565b835260019390930192918401918401613886565b50979650505050505050565b805169ffffffffffffffffffff8116811461382557600080fd5b6000602082840312156138e557600080fd5b8151613417816140ac565b6000806040838503121561390357600080fd5b823561390e816140ac565b9150602083013561391e816140ac565b809150509250929050565b60008060008060008060c0878903121561394257600080fd5b863561394d816140ac565b9550602087013567ffffffffffffffff8082111561396a57600080fd5b818901915089601f83011261397e57600080fd5b61398d8a8335602085016137a4565b965061399b60408a0161381a565b955060608901359150808211156139b157600080fd5b6139bd8a838b0161382a565b945060808901359150808211156139d357600080fd5b506139e089828a0161382a565b9250506139ef60a0880161381a565b90509295509295509295565b60008060408385031215613a0e57600080fd5b8235613a19816140ac565b946020939093013593505050565b600060208284031215613a3957600080fd5b8151801515811461341757600080fd5b600060208284031215613a5b57600080fd5b5035919050565b60008060408385031215613a7557600080fd5b82359150602083013561391e816140ac565b600060208284031215613a9957600080fd5b5051919050565b60008060408385031215613ab357600080fd5b82359150602083013567ffffffffffffffff811115613ad157600080fd5b8301601f81018513613ae257600080fd5b613af1858235602084016137a4565b9150509250929050565b600080600080600060a08688031215613b1357600080fd5b613b1c866138b9565b9450602086015193506040860151925060608601519150613b3f608087016138b9565b90509295509295909350565b600060208284031215613b5d57600080fd5b815160ff8116811461341757600080fd5b60008251613b80818460208701613f37565b9190910192915050565b7f416363657373436f6e74726f6c3a206163636f756e7420000000000000000000815260008351613bc2816017850160208801613f37565b7f206973206d697373696e6720726f6c65200000000000000000000000000000006017918401918201528351613bff816028840160208801613f37565b01602801949350505050565b6080808252855190820181905260009060209060a0840190828901845b82811015613c5a57815173ffffffffffffffffffffffffffffffffffffffff1684529284019290840190600101613c28565b5050508381038285015286518082528783019183019060005b81811015613ca557835173ffffffffffffffffffffffffffffffffffffffff1683529284019291840191600101613c73565b505086151560408601529250613cb9915050565b8215156060830152611f1d565b6020815260008251806020840152613ce5816040850160208701613f37565b601f017fffffffffffffffffffffffffffffffffffffffffffffffffffffffffffffffe0169190910160400192915050565b604051601f82017fffffffffffffffffffffffffffffffffffffffffffffffffffffffffffffffe016810167ffffffffffffffff81118282101715613d5e57613d5e61407d565b604052919050565b60008219821115613d7957613d7961401f565b500190565b600082613db4577f4e487b7100000000000000000000000000000000000000000000000000000000600052601260045260246000fd5b500490565b600181815b80851115613e1257817fffffffffffffffffffffffffffffffffffffffffffffffffffffffffffffffff04821115613df857613df861401f565b80851615613e0557918102915b93841c9390800290613dbe565b509250929050565b600061341760ff841683600082613e335750600161148c565b81613e405750600061148c565b8160018114613e565760028114613e6057613e7c565b600191505061148c565b60ff841115613e7157613e7161401f565b50506001821b61148c565b5060208310610133831016604e8410600b8410161715613e9f575081810a61148c565b613ea98383613db9565b807fffffffffffffffffffffffffffffffffffffffffffffffffffffffffffffffff04821115613edb57613edb61401f565b029392505050565b6000817fffffffffffffffffffffffffffffffffffffffffffffffffffffffffffffffff0483118215151615613f1b57613f1b61401f565b500290565b600082821015613f3257613f3261401f565b500390565b60005b83811015613f52578181015183820152602001613f3a565b838111156116585750506000910152565b600081613f7257613f7261401f565b507fffffffffffffffffffffffffffffffffffffffffffffffffffffffffffffffff0190565b600181811c90821680613fac57607f821691505b60208210811415610b76577f4e487b7100000000000000000000000000000000000000000000000000000000600052602260045260246000fd5b60007fffffffffffffffffffffffffffffffffffffffffffffffffffffffffffffffff8214156140185761401861401f565b5060010190565b7f4e487b7100000000000000000000000000000000000000000000000000000000600052601160045260246000fd5b7f4e487b7100000000000000000000000000000000000000000000000000000000600052603260045260246000fd5b7f4e487b7100000000000000000000000000000000000000000000000000000000600052604160045260246000fd5b73ffffffffffffffffffffffffffffffffffffffff811681146140ce57600080fd5b5056fea26469706673582212202acd779ab18259dccb8d75fc020d941bb699714f2a902177e3623b1a6d6e186a64736f6c63430008070033",
  "linkReferences": {},
  "deployedLinkReferences": {}
}