{
  "address": "0xA61BeB4A3d02decb01039e378237032B351125B4",
  "abi": [
    {
      "inputs": [],
      "stateMutability": "nonpayable",
      "type": "constructor"
    },
    {
      "anonymous": false,
      "inputs": [
        {
          "indexed": true,
          "internalType": "address",
          "name": "owner",
          "type": "address"
        },
        {
          "indexed": true,
          "internalType": "address",
          "name": "spender",
          "type": "address"
        },
        {
          "indexed": false,
          "internalType": "uint256",
          "name": "value",
          "type": "uint256"
        }
      ],
      "name": "Approval",
      "type": "event"
    },
    {
      "anonymous": false,
      "inputs": [
        {
          "indexed": true,
          "internalType": "address",
          "name": "from",
          "type": "address"
        },
        {
          "indexed": true,
          "internalType": "address",
          "name": "to",
          "type": "address"
        },
        {
          "indexed": false,
          "internalType": "uint256",
          "name": "value",
          "type": "uint256"
        }
      ],
      "name": "Transfer",
      "type": "event"
    },
    {
      "inputs": [],
      "name": "DOMAIN_SEPARATOR",
      "outputs": [
        {
          "internalType": "bytes32",
          "name": "",
          "type": "bytes32"
        }
      ],
      "stateMutability": "view",
      "type": "function"
    },
    {
      "inputs": [
        {
          "internalType": "address",
          "name": "owner",
          "type": "address"
        },
        {
          "internalType": "address",
          "name": "spender",
          "type": "address"
        }
      ],
      "name": "allowance",
      "outputs": [
        {
          "internalType": "uint256",
          "name": "",
          "type": "uint256"
        }
      ],
      "stateMutability": "view",
      "type": "function"
    },
    {
      "inputs": [
        {
          "internalType": "address",
          "name": "spender",
          "type": "address"
        },
        {
          "internalType": "uint256",
          "name": "amount",
          "type": "uint256"
        }
      ],
      "name": "approve",
      "outputs": [
        {
          "internalType": "bool",
          "name": "",
          "type": "bool"
        }
      ],
      "stateMutability": "nonpayable",
      "type": "function"
    },
    {
      "inputs": [
        {
          "internalType": "address",
          "name": "account",
          "type": "address"
        }
      ],
      "name": "balanceOf",
      "outputs": [
        {
          "internalType": "uint256",
          "name": "",
          "type": "uint256"
        }
      ],
      "stateMutability": "view",
      "type": "function"
    },
    {
      "inputs": [
        {
          "internalType": "uint256",
          "name": "amount",
          "type": "uint256"
        },
        {
          "internalType": "address",
          "name": "burner",
          "type": "address"
        },
        {
          "internalType": "address",
          "name": "sender",
          "type": "address"
        }
      ],
      "name": "burnFrom",
      "outputs": [],
      "stateMutability": "nonpayable",
      "type": "function"
    },
    {
      "inputs": [
        {
          "internalType": "address",
          "name": "account",
          "type": "address"
        },
        {
          "internalType": "uint256",
          "name": "amount",
          "type": "uint256"
        },
        {
          "internalType": "address",
          "name": "poolManager",
          "type": "address"
        }
      ],
      "name": "burnFromNoRedeem",
      "outputs": [],
      "stateMutability": "nonpayable",
      "type": "function"
    },
    {
      "inputs": [
        {
          "internalType": "uint256",
          "name": "amount",
          "type": "uint256"
        },
        {
          "internalType": "address",
          "name": "poolManager",
          "type": "address"
        }
      ],
      "name": "burnNoRedeem",
      "outputs": [],
      "stateMutability": "nonpayable",
      "type": "function"
    },
    {
      "inputs": [
        {
          "internalType": "uint256",
          "name": "amount",
          "type": "uint256"
        },
        {
          "internalType": "address",
          "name": "burner",
          "type": "address"
        }
      ],
      "name": "burnSelf",
      "outputs": [],
      "stateMutability": "nonpayable",
      "type": "function"
    },
    {
      "inputs": [],
      "name": "decimals",
      "outputs": [
        {
          "internalType": "uint8",
          "name": "",
          "type": "uint8"
        }
      ],
      "stateMutability": "view",
      "type": "function"
    },
    {
      "inputs": [
        {
          "internalType": "address",
          "name": "spender",
          "type": "address"
        },
        {
          "internalType": "uint256",
          "name": "subtractedValue",
          "type": "uint256"
        }
      ],
      "name": "decreaseAllowance",
      "outputs": [
        {
          "internalType": "bool",
          "name": "",
          "type": "bool"
        }
      ],
      "stateMutability": "nonpayable",
      "type": "function"
    },
    {
      "inputs": [
        {
          "internalType": "address",
          "name": "spender",
          "type": "address"
        },
        {
          "internalType": "uint256",
          "name": "addedValue",
          "type": "uint256"
        }
      ],
      "name": "increaseAllowance",
      "outputs": [
        {
          "internalType": "bool",
          "name": "",
          "type": "bool"
        }
      ],
      "stateMutability": "nonpayable",
      "type": "function"
    },
    {
      "inputs": [
        {
          "internalType": "string",
          "name": "name_",
          "type": "string"
        },
        {
          "internalType": "string",
          "name": "symbol_",
          "type": "string"
        },
        {
          "internalType": "address",
          "name": "stableMaster_",
          "type": "address"
        }
      ],
      "name": "initialize",
      "outputs": [],
      "stateMutability": "nonpayable",
      "type": "function"
    },
    {
      "inputs": [
        {
          "internalType": "address",
          "name": "account",
          "type": "address"
        },
        {
          "internalType": "uint256",
          "name": "amount",
          "type": "uint256"
        }
      ],
      "name": "mint",
      "outputs": [],
      "stateMutability": "nonpayable",
      "type": "function"
    },
    {
      "inputs": [],
      "name": "name",
      "outputs": [
        {
          "internalType": "string",
          "name": "",
          "type": "string"
        }
      ],
      "stateMutability": "view",
      "type": "function"
    },
    {
      "inputs": [
        {
          "internalType": "address",
          "name": "owner",
          "type": "address"
        }
      ],
      "name": "nonces",
      "outputs": [
        {
          "internalType": "uint256",
          "name": "",
          "type": "uint256"
        }
      ],
      "stateMutability": "view",
      "type": "function"
    },
    {
      "inputs": [
        {
          "internalType": "address",
          "name": "owner",
          "type": "address"
        },
        {
          "internalType": "address",
          "name": "spender",
          "type": "address"
        },
        {
          "internalType": "uint256",
          "name": "value",
          "type": "uint256"
        },
        {
          "internalType": "uint256",
          "name": "deadline",
          "type": "uint256"
        },
        {
          "internalType": "uint8",
          "name": "v",
          "type": "uint8"
        },
        {
          "internalType": "bytes32",
          "name": "r",
          "type": "bytes32"
        },
        {
          "internalType": "bytes32",
          "name": "s",
          "type": "bytes32"
        }
      ],
      "name": "permit",
      "outputs": [],
      "stateMutability": "nonpayable",
      "type": "function"
    },
    {
      "inputs": [],
      "name": "stableMaster",
      "outputs": [
        {
          "internalType": "address",
          "name": "",
          "type": "address"
        }
      ],
      "stateMutability": "view",
      "type": "function"
    },
    {
      "inputs": [],
      "name": "symbol",
      "outputs": [
        {
          "internalType": "string",
          "name": "",
          "type": "string"
        }
      ],
      "stateMutability": "view",
      "type": "function"
    },
    {
      "inputs": [],
      "name": "totalSupply",
      "outputs": [
        {
          "internalType": "uint256",
          "name": "",
          "type": "uint256"
        }
      ],
      "stateMutability": "view",
      "type": "function"
    },
    {
      "inputs": [
        {
          "internalType": "address",
          "name": "recipient",
          "type": "address"
        },
        {
          "internalType": "uint256",
          "name": "amount",
          "type": "uint256"
        }
      ],
      "name": "transfer",
      "outputs": [
        {
          "internalType": "bool",
          "name": "",
          "type": "bool"
        }
      ],
      "stateMutability": "nonpayable",
      "type": "function"
    },
    {
      "inputs": [
        {
          "internalType": "address",
          "name": "sender",
          "type": "address"
        },
        {
          "internalType": "address",
          "name": "recipient",
          "type": "address"
        },
        {
          "internalType": "uint256",
          "name": "amount",
          "type": "uint256"
        }
      ],
      "name": "transferFrom",
      "outputs": [
        {
          "internalType": "bool",
          "name": "",
          "type": "bool"
        }
      ],
      "stateMutability": "nonpayable",
      "type": "function"
    }
  ],
  "transactionHash": "0x2eb2a585b14e077e629205349c8b2fc7aa8894e2866f1bc7edc16c71a38608d3",
  "args": [],
  "solcInputHash": "c1a2cc7754e40d365e6c8a31eb4e6940",
  "bytecode": "0x608060405234801561001057600080fd5b50600054610100900460ff168061002a575060005460ff16155b6100915760405162461bcd60e51b815260206004820152602e60248201527f496e697469616c697a61626c653a20636f6e747261637420697320616c72656160448201526d191e481a5b9a5d1a585b1a5e995960921b606482015260840160405180910390fd5b600054610100900460ff161580156100b3576000805461ffff19166101011790555b80156100c5576000805461ff00191690555b5061268480620000d66000396000f3fe608060405234801561001057600080fd5b50600436106101775760003560e01c806340c10f19116100d857806395d89b411161008c578063a9059cbb11610066578063a9059cbb14610329578063d505accf1461033c578063dd62ed3e1461034f57600080fd5b806395d89b41146102fb5780639753632514610303578063a457c2d71461031657600080fd5b806370a08231116100bd57806370a082311461029f5780637ecebe00146102d557806393bd6f69146102e857600080fd5b806340c10f19146102475780636ac5dc461461025a57600080fd5b80632b471d8e1161012f578063350ebe0411610114578063350ebe04146102195780633644e5151461022c578063395093511461023457600080fd5b80632b471d8e146101f7578063313ce5671461020a57600080fd5b8063095ea7b311610160578063095ea7b3146101af57806318160ddd146101d257806323b872dd146101e457600080fd5b806306fdde031461017c578063077f224a1461019a575b600080fd5b610184610395565b60405161019191906124d1565b60405180910390f35b6101ad6101a8366004612410565b610427565b005b6101c26101bd3660046123aa565b610615565b6040519015158152602001610191565b6035545b604051908152602001610191565b6101c26101f23660046122fb565b61062b565b6101ad61020536600461247b565b610711565b60405160128152602001610191565b6101ad61022736600461249e565b6107a0565b6101d6610831565b6101c26102423660046123aa565b610840565b6101ad6102553660046123aa565b610889565b60cc5461027a9073ffffffffffffffffffffffffffffffffffffffff1681565b60405173ffffffffffffffffffffffffffffffffffffffff9091168152602001610191565b6101d66102ad3660046122a6565b73ffffffffffffffffffffffffffffffffffffffff1660009081526033602052604090205490565b6101d66102e33660046122a6565b610914565b6101ad6102f636600461247b565b610941565b6101846109db565b6101ad6103113660046123d4565b6109ea565b6101c26103243660046123aa565b610a86565b6101c26103373660046123aa565b610b5e565b6101ad61034a366004612337565b610b6b565b6101d661035d3660046122c8565b73ffffffffffffffffffffffffffffffffffffffff918216600090815260346020908152604080832093909416825291909152205490565b6060603680546103a490612573565b80601f01602080910402602001604051908101604052809291908181526020018280546103d090612573565b801561041d5780601f106103f25761010080835404028352916020019161041d565b820191906000526020600020905b81548152906001019060200180831161040057829003601f168201915b5050505050905090565b600054610100900460ff1680610440575060005460ff16155b6104d1576040517f08c379a000000000000000000000000000000000000000000000000000000000815260206004820152602e60248201527f496e697469616c697a61626c653a20636f6e747261637420697320616c72656160448201527f647920696e697469616c697a656400000000000000000000000000000000000060648201526084015b60405180910390fd5b600054610100900460ff1615801561051057600080547fffffffffffffffffffffffffffffffffffffffffffffffffffffffffffff0000166101011790555b61051984610d0c565b6105238484610e72565b73ffffffffffffffffffffffffffffffffffffffff82166105a0576040517f08c379a000000000000000000000000000000000000000000000000000000000815260206004820152600160248201527f300000000000000000000000000000000000000000000000000000000000000060448201526064016104c8565b60cc80547fffffffffffffffffffffffff00000000000000000000000000000000000000001673ffffffffffffffffffffffffffffffffffffffff8416179055801561060f57600080547fffffffffffffffffffffffffffffffffffffffffffffffffffffffffffff00ff1690555b50505050565b6000610622338484610f9b565b50600192915050565b600061063884848461114e565b73ffffffffffffffffffffffffffffffffffffffff84166000908152603460209081526040808320338452909152902054828110156106f9576040517f08c379a000000000000000000000000000000000000000000000000000000000815260206004820152602860248201527f45524332303a207472616e7366657220616d6f756e742065786365656473206160448201527f6c6c6f77616e636500000000000000000000000000000000000000000000000060648201526084016104c8565b6107068533858403610f9b565b506001949350505050565b60cc5473ffffffffffffffffffffffffffffffffffffffff163314610792576040517f08c379a000000000000000000000000000000000000000000000000000000000815260206004820152600160248201527f310000000000000000000000000000000000000000000000000000000000000060448201526064016104c8565b61079c8183611401565b5050565b60cc5473ffffffffffffffffffffffffffffffffffffffff163314610821576040517f08c379a000000000000000000000000000000000000000000000000000000000815260206004820152600160248201527f310000000000000000000000000000000000000000000000000000000000000060448201526064016104c8565b61082c8383836115ee565b505050565b600061083b6116a4565b905090565b33600081815260346020908152604080832073ffffffffffffffffffffffffffffffffffffffff871684529091528120549091610622918590610884908690612544565b610f9b565b60cc5473ffffffffffffffffffffffffffffffffffffffff16331461090a576040517f08c379a000000000000000000000000000000000000000000000000000000000815260206004820152600160248201527f310000000000000000000000000000000000000000000000000000000000000060448201526064016104c8565b61079c828261171f565b73ffffffffffffffffffffffffffffffffffffffff81166000908152609960205260408120545b92915050565b61094b3383611401565b60cc546040517f251ad8730000000000000000000000000000000000000000000000000000000081526004810184905273ffffffffffffffffffffffffffffffffffffffff83811660248301529091169063251ad87390604401600060405180830381600087803b1580156109bf57600080fd5b505af11580156109d3573d6000803e3d6000fd5b505050505050565b6060603780546103a490612573565b6109f58284336115ee565b60cc546040517f251ad8730000000000000000000000000000000000000000000000000000000081526004810184905273ffffffffffffffffffffffffffffffffffffffff83811660248301529091169063251ad87390604401600060405180830381600087803b158015610a6957600080fd5b505af1158015610a7d573d6000803e3d6000fd5b50505050505050565b33600090815260346020908152604080832073ffffffffffffffffffffffffffffffffffffffff8616845290915281205482811015610b47576040517f08c379a000000000000000000000000000000000000000000000000000000000815260206004820152602560248201527f45524332303a2064656372656173656420616c6c6f77616e63652062656c6f7760448201527f207a65726f00000000000000000000000000000000000000000000000000000060648201526084016104c8565b610b543385858403610f9b565b5060019392505050565b600061062233848461114e565b83421115610bd5576040517f08c379a000000000000000000000000000000000000000000000000000000000815260206004820152601d60248201527f45524332305065726d69743a206578706972656420646561646c696e6500000060448201526064016104c8565b6000609a54888888610be68c61183f565b60408051602081019690965273ffffffffffffffffffffffffffffffffffffffff94851690860152929091166060840152608083015260a082015260c0810186905260e0016040516020818303038152906040528051906020012090506000610c4e82611874565b90506000610c5e828787876118dd565b90508973ffffffffffffffffffffffffffffffffffffffff168173ffffffffffffffffffffffffffffffffffffffff1614610cf5576040517f08c379a000000000000000000000000000000000000000000000000000000000815260206004820152601e60248201527f45524332305065726d69743a20696e76616c6964207369676e6174757265000060448201526064016104c8565b610d008a8a8a610f9b565b50505050505050505050565b600054610100900460ff1680610d25575060005460ff16155b610db1576040517f08c379a000000000000000000000000000000000000000000000000000000000815260206004820152602e60248201527f496e697469616c697a61626c653a20636f6e747261637420697320616c72656160448201527f647920696e697469616c697a656400000000000000000000000000000000000060648201526084016104c8565b600054610100900460ff16158015610df057600080547fffffffffffffffffffffffffffffffffffffffffffffffffffffffffffff0000166101011790555b610df8611905565b610e37826040518060400160405280600181526020017f3100000000000000000000000000000000000000000000000000000000000000815250611a1b565b610e4082611b4f565b801561079c57600080547fffffffffffffffffffffffffffffffffffffffffffffffffffffffffffff00ff1690555050565b600054610100900460ff1680610e8b575060005460ff16155b610f17576040517f08c379a000000000000000000000000000000000000000000000000000000000815260206004820152602e60248201527f496e697469616c697a61626c653a20636f6e747261637420697320616c72656160448201527f647920696e697469616c697a656400000000000000000000000000000000000060648201526084016104c8565b600054610100900460ff16158015610f5657600080547fffffffffffffffffffffffffffffffffffffffffffffffffffffffffffff0000166101011790555b610f5e611905565b610f688383611c89565b801561082c57600080547fffffffffffffffffffffffffffffffffffffffffffffffffffffffffffff00ff169055505050565b73ffffffffffffffffffffffffffffffffffffffff831661103d576040517f08c379a0000000000000000000000000000000000000000000000000000000008152602060048201526024808201527f45524332303a20617070726f76652066726f6d20746865207a65726f2061646460448201527f726573730000000000000000000000000000000000000000000000000000000060648201526084016104c8565b73ffffffffffffffffffffffffffffffffffffffff82166110e0576040517f08c379a000000000000000000000000000000000000000000000000000000000815260206004820152602260248201527f45524332303a20617070726f766520746f20746865207a65726f20616464726560448201527f737300000000000000000000000000000000000000000000000000000000000060648201526084016104c8565b73ffffffffffffffffffffffffffffffffffffffff83811660008181526034602090815260408083209487168084529482529182902085905590518481527f8c5be1e5ebec7d5bd14f71427d1e84f3dd0314c0f7b2291e5b200ac8c7c3b925910160405180910390a3505050565b73ffffffffffffffffffffffffffffffffffffffff83166111f1576040517f08c379a000000000000000000000000000000000000000000000000000000000815260206004820152602560248201527f45524332303a207472616e736665722066726f6d20746865207a65726f20616460448201527f647265737300000000000000000000000000000000000000000000000000000060648201526084016104c8565b73ffffffffffffffffffffffffffffffffffffffff8216611294576040517f08c379a000000000000000000000000000000000000000000000000000000000815260206004820152602360248201527f45524332303a207472616e7366657220746f20746865207a65726f206164647260448201527f657373000000000000000000000000000000000000000000000000000000000060648201526084016104c8565b73ffffffffffffffffffffffffffffffffffffffff83166000908152603360205260409020548181101561134a576040517f08c379a000000000000000000000000000000000000000000000000000000000815260206004820152602660248201527f45524332303a207472616e7366657220616d6f756e742065786365656473206260448201527f616c616e6365000000000000000000000000000000000000000000000000000060648201526084016104c8565b73ffffffffffffffffffffffffffffffffffffffff80851660009081526033602052604080822085850390559185168152908120805484929061138e908490612544565b925050819055508273ffffffffffffffffffffffffffffffffffffffff168473ffffffffffffffffffffffffffffffffffffffff167fddf252ad1be2c89b69c2b068fc378daa952ba7f163c4a11628f55a4df523b3ef846040516113f491815260200190565b60405180910390a361060f565b73ffffffffffffffffffffffffffffffffffffffff82166114a4576040517f08c379a000000000000000000000000000000000000000000000000000000000815260206004820152602160248201527f45524332303a206275726e2066726f6d20746865207a65726f2061646472657360448201527f730000000000000000000000000000000000000000000000000000000000000060648201526084016104c8565b73ffffffffffffffffffffffffffffffffffffffff82166000908152603360205260409020548181101561155a576040517f08c379a000000000000000000000000000000000000000000000000000000000815260206004820152602260248201527f45524332303a206275726e20616d6f756e7420657863656564732062616c616e60448201527f636500000000000000000000000000000000000000000000000000000000000060648201526084016104c8565b73ffffffffffffffffffffffffffffffffffffffff8316600090815260336020526040812083830390556035805484929061159690849061255c565b909155505060405182815260009073ffffffffffffffffffffffffffffffffffffffff8516907fddf252ad1be2c89b69c2b068fc378daa952ba7f163c4a11628f55a4df523b3ef9060200160405180910390a3505050565b73ffffffffffffffffffffffffffffffffffffffff8281166000908152603460209081526040808320938516835292905220548381101561168b576040517f08c379a000000000000000000000000000000000000000000000000000000000815260206004820152600260248201527f323300000000000000000000000000000000000000000000000000000000000060448201526064016104c8565b61169a8383610884878561255c565b61060f8385611401565b600061083b7f8b73c3c69bb8fe3d512ecc4cf759cc79239f7b179b0ffacaa9a75d522b39400f6116d360655490565b6066546040805160208101859052908101839052606081018290524660808201523060a082015260009060c0016040516020818303038152906040528051906020012090509392505050565b73ffffffffffffffffffffffffffffffffffffffff821661179c576040517f08c379a000000000000000000000000000000000000000000000000000000000815260206004820152601f60248201527f45524332303a206d696e7420746f20746865207a65726f20616464726573730060448201526064016104c8565b80603560008282546117ae9190612544565b909155505073ffffffffffffffffffffffffffffffffffffffff8216600090815260336020526040812080548392906117e8908490612544565b909155505060405181815273ffffffffffffffffffffffffffffffffffffffff8316906000907fddf252ad1be2c89b69c2b068fc378daa952ba7f163c4a11628f55a4df523b3ef9060200160405180910390a35050565b73ffffffffffffffffffffffffffffffffffffffff811660009081526099602052604090208054600181018255905b50919050565b600061093b6118816116a4565b836040517f19010000000000000000000000000000000000000000000000000000000000006020820152602281018390526042810182905260009060620160405160208183030381529060405280519060200120905092915050565b60008060006118ee87878787611dc8565b915091506118fb81611ee0565b5095945050505050565b600054610100900460ff168061191e575060005460ff16155b6119aa576040517f08c379a000000000000000000000000000000000000000000000000000000000815260206004820152602e60248201527f496e697469616c697a61626c653a20636f6e747261637420697320616c72656160448201527f647920696e697469616c697a656400000000000000000000000000000000000060648201526084016104c8565b600054610100900460ff161580156119e957600080547fffffffffffffffffffffffffffffffffffffffffffffffffffffffffffff0000166101011790555b8015611a1857600080547fffffffffffffffffffffffffffffffffffffffffffffffffffffffffffff00ff1690555b50565b600054610100900460ff1680611a34575060005460ff16155b611ac0576040517f08c379a000000000000000000000000000000000000000000000000000000000815260206004820152602e60248201527f496e697469616c697a61626c653a20636f6e747261637420697320616c72656160448201527f647920696e697469616c697a656400000000000000000000000000000000000060648201526084016104c8565b600054610100900460ff16158015611aff57600080547fffffffffffffffffffffffffffffffffffffffffffffffffffffffffffff0000166101011790555b8251602080850191909120835191840191909120606591909155606655801561082c57600080547fffffffffffffffffffffffffffffffffffffffffffffffffffffffffffff00ff169055505050565b600054610100900460ff1680611b68575060005460ff16155b611bf4576040517f08c379a000000000000000000000000000000000000000000000000000000000815260206004820152602e60248201527f496e697469616c697a61626c653a20636f6e747261637420697320616c72656160448201527f647920696e697469616c697a656400000000000000000000000000000000000060648201526084016104c8565b600054610100900460ff16158015611c3357600080547fffffffffffffffffffffffffffffffffffffffffffffffffffffffffffff0000166101011790555b7f6e71edae12b1b97f4d1f60370fef10105fa2faae0126114a169c64845d6126c9609a55801561079c57600080547fffffffffffffffffffffffffffffffffffffffffffffffffffffffffffff00ff1690555050565b600054610100900460ff1680611ca2575060005460ff16155b611d2e576040517f08c379a000000000000000000000000000000000000000000000000000000000815260206004820152602e60248201527f496e697469616c697a61626c653a20636f6e747261637420697320616c72656160448201527f647920696e697469616c697a656400000000000000000000000000000000000060648201526084016104c8565b600054610100900460ff16158015611d6d57600080547fffffffffffffffffffffffffffffffffffffffffffffffffffffffffffff0000166101011790555b8251611d80906036906020860190612139565b508151611d94906037906020850190612139565b50801561082c57600080547fffffffffffffffffffffffffffffffffffffffffffffffffffffffffffff00ff169055505050565b6000807f7fffffffffffffffffffffffffffffff5d576e7357a4501ddfe92f46681b20a0831115611dff5750600090506003611ed7565b8460ff16601b14158015611e1757508460ff16601c14155b15611e285750600090506004611ed7565b6040805160008082526020820180845289905260ff881692820192909252606081018690526080810185905260019060a0016020604051602081039080840390855afa158015611e7c573d6000803e3d6000fd5b50506040517fffffffffffffffffffffffffffffffffffffffffffffffffffffffffffffffe0015191505073ffffffffffffffffffffffffffffffffffffffff8116611ed057600060019250925050611ed7565b9150600090505b94509492505050565b6000816004811115611ef457611ef46125f0565b1415611efd5750565b6001816004811115611f1157611f116125f0565b1415611f79576040517f08c379a000000000000000000000000000000000000000000000000000000000815260206004820152601860248201527f45434453413a20696e76616c6964207369676e6174757265000000000000000060448201526064016104c8565b6002816004811115611f8d57611f8d6125f0565b1415611ff5576040517f08c379a000000000000000000000000000000000000000000000000000000000815260206004820152601f60248201527f45434453413a20696e76616c6964207369676e6174757265206c656e6774680060448201526064016104c8565b6003816004811115612009576120096125f0565b1415612097576040517f08c379a000000000000000000000000000000000000000000000000000000000815260206004820152602260248201527f45434453413a20696e76616c6964207369676e6174757265202773272076616c60448201527f756500000000000000000000000000000000000000000000000000000000000060648201526084016104c8565b60048160048111156120ab576120ab6125f0565b1415611a18576040517f08c379a000000000000000000000000000000000000000000000000000000000815260206004820152602260248201527f45434453413a20696e76616c6964207369676e6174757265202776272076616c60448201527f756500000000000000000000000000000000000000000000000000000000000060648201526084016104c8565b82805461214590612573565b90600052602060002090601f01602090048101928261216757600085556121ad565b82601f1061218057805160ff19168380011785556121ad565b828001600101855582156121ad579182015b828111156121ad578251825591602001919060010190612192565b506121b99291506121bd565b5090565b5b808211156121b957600081556001016121be565b803573ffffffffffffffffffffffffffffffffffffffff811681146121f657600080fd5b919050565b600082601f83011261220c57600080fd5b813567ffffffffffffffff808211156122275761222761261f565b604051601f83017fffffffffffffffffffffffffffffffffffffffffffffffffffffffffffffffe0908116603f0116810190828211818310171561226d5761226d61261f565b8160405283815286602085880101111561228657600080fd5b836020870160208301376000602085830101528094505050505092915050565b6000602082840312156122b857600080fd5b6122c1826121d2565b9392505050565b600080604083850312156122db57600080fd5b6122e4836121d2565b91506122f2602084016121d2565b90509250929050565b60008060006060848603121561231057600080fd5b612319846121d2565b9250612327602085016121d2565b9150604084013590509250925092565b600080600080600080600060e0888a03121561235257600080fd5b61235b886121d2565b9650612369602089016121d2565b95506040880135945060608801359350608088013560ff8116811461238d57600080fd5b9699959850939692959460a0840135945060c09093013592915050565b600080604083850312156123bd57600080fd5b6123c6836121d2565b946020939093013593505050565b6000806000606084860312156123e957600080fd5b6123f2846121d2565b925060208401359150612407604085016121d2565b90509250925092565b60008060006060848603121561242557600080fd5b833567ffffffffffffffff8082111561243d57600080fd5b612449878388016121fb565b9450602086013591508082111561245f57600080fd5b5061246c868287016121fb565b925050612407604085016121d2565b6000806040838503121561248e57600080fd5b823591506122f2602084016121d2565b6000806000606084860312156124b357600080fd5b833592506124c3602085016121d2565b9150612407604085016121d2565b600060208083528351808285015260005b818110156124fe578581018301518582016040015282016124e2565b81811115612510576000604083870101525b50601f017fffffffffffffffffffffffffffffffffffffffffffffffffffffffffffffffe016929092016040019392505050565b60008219821115612557576125576125c1565b500190565b60008282101561256e5761256e6125c1565b500390565b600181811c9082168061258757607f821691505b6020821081141561186e577f4e487b7100000000000000000000000000000000000000000000000000000000600052602260045260246000fd5b7f4e487b7100000000000000000000000000000000000000000000000000000000600052601160045260246000fd5b7f4e487b7100000000000000000000000000000000000000000000000000000000600052602160045260246000fd5b7f4e487b7100000000000000000000000000000000000000000000000000000000600052604160045260246000fdfea26469706673582212202cb144eb86f277a87b53ce061c537e96c193d7c1a61ad240405633278942222664736f6c63430008070033",
  "devdoc": {
    "author": "Angle Core Team",
    "details": "This contract is used to create and handle the stablecoins of Angle protocolOnly the `StableMaster` contract can mint or burn agTokensIt is still possible for any address to burn its agTokens without redeeming collateral in exchange",
    "kind": "dev",
    "methods": {
      "DOMAIN_SEPARATOR()": {
        "details": "See {IERC20Permit-DOMAIN_SEPARATOR}."
      },
      "allowance(address,address)": {
        "details": "See {IERC20-allowance}."
      },
      "approve(address,uint256)": {
        "details": "See {IERC20-approve}. Requirements: - `spender` cannot be the zero address."
      },
      "balanceOf(address)": {
        "details": "See {IERC20-balanceOf}."
      },
      "burnFrom(uint256,address,address)": {
        "details": "This method is to be called by the `StableMaster` contract after being requested to do so by a `sender` address willing to burn tokens from another `burner` addressThe method checks the allowance between the `sender` and the `burner`",
        "params": {
          "amount": "Amount of tokens to burn",
          "burner": "Address to burn from",
          "sender": "Address which requested the burn from `burner`"
        }
      },
      "burnFromNoRedeem(address,uint256,address)": {
        "params": {
          "account": "Account to burn on behalf of",
          "amount": "Amount to burn",
          "poolManager": "Reference to the `PoolManager` contract for which the `stocksUsers` will need to be updated"
        }
      },
      "burnNoRedeem(uint256,address)": {
        "details": "When calling this function, people should specify the `poolManager` for which they want to decrease the `stocksUsers`: this a way for the protocol to maintain healthy accounting variablesThis function is for instance to be used by governance to burn the tokens accumulated by the `BondingCurve` contract",
        "params": {
          "amount": "Amount to burn",
          "poolManager": "Reference to the `PoolManager` contract for which the `stocksUsers` will need to be updated"
        }
      },
      "burnSelf(uint256,address)": {
        "details": "This method is to be called by the `StableMaster` contract after being requested to do so by an address willing to burn tokens from its address",
        "params": {
          "amount": "Amount of tokens to burn",
          "burner": "Address to burn from"
        }
      },
      "constructor": {
        "custom:oz-upgrades-unsafe-allow": "constructor"
      },
      "decimals()": {
        "details": "Returns the number of decimals used to get its user representation. For example, if `decimals` equals `2`, a balance of `505` tokens should be displayed to a user as `5.05` (`505 / 10 ** 2`). Tokens usually opt for a value of 18, imitating the relationship between Ether and Wei. This is the value {ERC20} uses, unless this function is overridden; NOTE: This information is only used for _display_ purposes: it in no way affects any of the arithmetic of the contract, including {IERC20-balanceOf} and {IERC20-transfer}."
      },
      "decreaseAllowance(address,uint256)": {
        "details": "Atomically decreases the allowance granted to `spender` by the caller. This is an alternative to {approve} that can be used as a mitigation for problems described in {IERC20-approve}. Emits an {Approval} event indicating the updated allowance. Requirements: - `spender` cannot be the zero address. - `spender` must have allowance for the caller of at least `subtractedValue`."
      },
      "increaseAllowance(address,uint256)": {
        "details": "Atomically increases the allowance granted to `spender` by the caller. This is an alternative to {approve} that can be used as a mitigation for problems described in {IERC20-approve}. Emits an {Approval} event indicating the updated allowance. Requirements: - `spender` cannot be the zero address."
      },
      "initialize(string,string,address)": {
        "details": "By default, agTokens are ERC-20 tokens with 18 decimals",
        "params": {
          "name_": "Name of the token",
          "stableMaster_": "Reference to the `StableMaster` contract associated to this agToken",
          "symbol_": "Symbol of the token"
        }
      },
      "mint(address,uint256)": {
        "details": "Only the `StableMaster` contract can issue agTokens",
        "params": {
          "account": "Address to mint to",
          "amount": "Amount to mint"
        }
      },
      "name()": {
        "details": "Returns the name of the token."
      },
      "nonces(address)": {
        "details": "See {IERC20Permit-nonces}."
      },
      "permit(address,address,uint256,uint256,uint8,bytes32,bytes32)": {
        "details": "See {IERC20Permit-permit}."
      },
      "symbol()": {
        "details": "Returns the symbol of the token, usually a shorter version of the name."
      },
      "totalSupply()": {
        "details": "See {IERC20-totalSupply}."
      },
      "transfer(address,uint256)": {
        "details": "See {IERC20-transfer}. Requirements: - `recipient` cannot be the zero address. - the caller must have a balance of at least `amount`."
      },
      "transferFrom(address,address,uint256)": {
        "details": "See {IERC20-transferFrom}. Emits an {Approval} event indicating the updated allowance. This is not required by the EIP. See the note at the beginning of {ERC20}. Requirements: - `sender` and `recipient` cannot be the zero address. - `sender` must have a balance of at least `amount`. - the caller must have allowance for ``sender``'s tokens of at least `amount`."
      }
    },
    "title": "AgToken",
    "version": 1
  },
  "userdoc": {
    "kind": "user",
    "methods": {
      "burnFrom(uint256,address,address)": {
        "notice": "Burns `amount` tokens from a `burner` address after being asked to by `sender`"
      },
      "burnFromNoRedeem(address,uint256,address)": {
        "notice": "Burns `amount` of agToken on behalf of another account without redeeming collateral back"
      },
      "burnNoRedeem(uint256,address)": {
        "notice": "Destroys `amount` token from the caller without giving collateral back"
      },
      "burnSelf(uint256,address)": {
        "notice": "Burns `amount` tokens from a `burner` address"
      },
      "initialize(string,string,address)": {
        "notice": "Initializes the `AgToken` contract"
      },
      "mint(address,uint256)": {
        "notice": "Lets the `StableMaster` contract mint agTokens"
      },
      "stableMaster()": {
        "notice": "Reference to the `StableMaster` contract associated to this `AgToken`"
      }
    },
    "notice": "Base contract for agToken, that is to say Angle's stablecoins",
    "version": 1
  },
  "storageLayout": {
    "storage": [
      {
        "astId": 3228,
        "contract": "contracts/agToken/AgToken.sol:AgToken",
        "label": "_initialized",
        "offset": 0,
        "slot": "0",
        "type": "t_bool"
      },
      {
        "astId": 3231,
        "contract": "contracts/agToken/AgToken.sol:AgToken",
        "label": "_initializing",
        "offset": 1,
        "slot": "0",
        "type": "t_bool"
      },
      {
        "astId": 5371,
        "contract": "contracts/agToken/AgToken.sol:AgToken",
        "label": "__gap",
        "offset": 0,
        "slot": "1",
        "type": "t_array(t_uint256)50_storage"
      },
      {
        "astId": 3400,
        "contract": "contracts/agToken/AgToken.sol:AgToken",
        "label": "_balances",
        "offset": 0,
        "slot": "51",
        "type": "t_mapping(t_address,t_uint256)"
      },
      {
        "astId": 3406,
        "contract": "contracts/agToken/AgToken.sol:AgToken",
        "label": "_allowances",
        "offset": 0,
        "slot": "52",
        "type": "t_mapping(t_address,t_mapping(t_address,t_uint256))"
      },
      {
        "astId": 3408,
        "contract": "contracts/agToken/AgToken.sol:AgToken",
        "label": "_totalSupply",
        "offset": 0,
        "slot": "53",
        "type": "t_uint256"
      },
      {
        "astId": 3410,
        "contract": "contracts/agToken/AgToken.sol:AgToken",
        "label": "_name",
        "offset": 0,
        "slot": "54",
        "type": "t_string_storage"
      },
      {
        "astId": 3412,
        "contract": "contracts/agToken/AgToken.sol:AgToken",
        "label": "_symbol",
        "offset": 0,
        "slot": "55",
        "type": "t_string_storage"
      },
      {
        "astId": 3953,
        "contract": "contracts/agToken/AgToken.sol:AgToken",
        "label": "__gap",
        "offset": 0,
        "slot": "56",
        "type": "t_array(t_uint256)45_storage"
      },
      {
        "astId": 6239,
        "contract": "contracts/agToken/AgToken.sol:AgToken",
        "label": "_HASHED_NAME",
        "offset": 0,
        "slot": "101",
        "type": "t_bytes32"
      },
      {
        "astId": 6241,
        "contract": "contracts/agToken/AgToken.sol:AgToken",
        "label": "_HASHED_VERSION",
        "offset": 0,
        "slot": "102",
        "type": "t_bytes32"
      },
      {
        "astId": 6378,
        "contract": "contracts/agToken/AgToken.sol:AgToken",
        "label": "__gap",
        "offset": 0,
        "slot": "103",
        "type": "t_array(t_uint256)50_storage"
      },
      {
        "astId": 4742,
        "contract": "contracts/agToken/AgToken.sol:AgToken",
        "label": "_nonces",
        "offset": 0,
        "slot": "153",
        "type": "t_mapping(t_address,t_struct(Counter)5378_storage)"
      },
      {
        "astId": 4744,
        "contract": "contracts/agToken/AgToken.sol:AgToken",
        "label": "_PERMIT_TYPEHASH",
        "offset": 0,
        "slot": "154",
        "type": "t_bytes32"
      },
      {
        "astId": 4912,
        "contract": "contracts/agToken/AgToken.sol:AgToken",
        "label": "__gap",
        "offset": 0,
        "slot": "155",
        "type": "t_array(t_uint256)49_storage"
      },
      {
        "astId": 12635,
        "contract": "contracts/agToken/AgToken.sol:AgToken",
        "label": "stableMaster",
        "offset": 0,
        "slot": "204",
        "type": "t_address"
      }
    ],
    "types": {
      "t_address": {
        "encoding": "inplace",
        "label": "address",
        "numberOfBytes": "20"
      },
      "t_array(t_uint256)45_storage": {
        "base": "t_uint256",
        "encoding": "inplace",
        "label": "uint256[45]",
        "numberOfBytes": "1440"
      },
      "t_array(t_uint256)49_storage": {
        "base": "t_uint256",
        "encoding": "inplace",
        "label": "uint256[49]",
        "numberOfBytes": "1568"
      },
      "t_array(t_uint256)50_storage": {
        "base": "t_uint256",
        "encoding": "inplace",
        "label": "uint256[50]",
        "numberOfBytes": "1600"
      },
      "t_bool": {
        "encoding": "inplace",
        "label": "bool",
        "numberOfBytes": "1"
      },
      "t_bytes32": {
        "encoding": "inplace",
        "label": "bytes32",
        "numberOfBytes": "32"
      },
      "t_mapping(t_address,t_mapping(t_address,t_uint256))": {
        "encoding": "mapping",
        "key": "t_address",
        "label": "mapping(address => mapping(address => uint256))",
        "numberOfBytes": "32",
        "value": "t_mapping(t_address,t_uint256)"
      },
      "t_mapping(t_address,t_struct(Counter)5378_storage)": {
        "encoding": "mapping",
        "key": "t_address",
        "label": "mapping(address => struct CountersUpgradeable.Counter)",
        "numberOfBytes": "32",
        "value": "t_struct(Counter)5378_storage"
      },
      "t_mapping(t_address,t_uint256)": {
        "encoding": "mapping",
        "key": "t_address",
        "label": "mapping(address => uint256)",
        "numberOfBytes": "32",
        "value": "t_uint256"
      },
      "t_string_storage": {
        "encoding": "bytes",
        "label": "string",
        "numberOfBytes": "32"
      },
      "t_struct(Counter)5378_storage": {
        "encoding": "inplace",
        "label": "struct CountersUpgradeable.Counter",
        "members": [
          {
            "astId": 5377,
            "contract": "contracts/agToken/AgToken.sol:AgToken",
            "label": "_value",
            "offset": 0,
            "slot": "0",
            "type": "t_uint256"
          }
        ],
        "numberOfBytes": "32"
      },
      "t_uint256": {
        "encoding": "inplace",
        "label": "uint256",
        "numberOfBytes": "32"
      }
    }
  }
}