{
  "address": "0xC284900e73D6a3310c9E22846709813Ad82C2DfF",
  "abi": [
    {
      "inputs": [],
      "stateMutability": "nonpayable",
      "type": "constructor"
    },
    {
      "anonymous": false,
      "inputs": [
        {
          "indexed": true,
          "internalType": "address",
          "name": "admin",
          "type": "address"
        },
        {
          "indexed": false,
          "internalType": "bool",
          "name": "setGovernor",
          "type": "bool"
        }
      ],
      "name": "AdminChanged",
      "type": "event"
    },
    {
      "anonymous": false,
      "inputs": [
        {
          "indexed": true,
          "internalType": "address",
          "name": "stableMaster",
          "type": "address"
        },
        {
          "indexed": true,
          "internalType": "address",
          "name": "poolManager",
          "type": "address"
        },
        {
          "indexed": true,
          "internalType": "address",
          "name": "liquidityGauge",
          "type": "address"
        }
      ],
      "name": "CollateralToggled",
      "type": "event"
    },
    {
      "anonymous": false,
      "inputs": [
        {
          "indexed": true,
          "internalType": "address",
          "name": "tokenAddress",
          "type": "address"
        },
        {
          "indexed": true,
          "internalType": "address",
          "name": "to",
          "type": "address"
        },
        {
          "indexed": false,
          "internalType": "uint256",
          "name": "amount",
          "type": "uint256"
        }
      ],
      "name": "Recovered",
      "type": "event"
    },
    {
      "anonymous": false,
      "inputs": [
        {
          "indexed": true,
          "internalType": "address",
          "name": "sanToken",
          "type": "address"
        },
        {
          "indexed": true,
          "internalType": "address",
          "name": "newLiquidityGauge",
          "type": "address"
        }
      ],
      "name": "SanTokenLiquidityGaugeUpdated",
      "type": "event"
    },
    {
      "anonymous": false,
      "inputs": [
        {
          "indexed": true,
          "internalType": "address",
          "name": "stableMaster",
          "type": "address"
        }
      ],
      "name": "StablecoinAdded",
      "type": "event"
    },
    {
      "anonymous": false,
      "inputs": [
        {
          "indexed": true,
          "internalType": "address",
          "name": "stableMaster",
          "type": "address"
        }
      ],
      "name": "StablecoinRemoved",
      "type": "event"
    },
    {
      "inputs": [],
      "name": "ANGLE",
      "outputs": [
        {
          "internalType": "contract IERC20",
          "name": "",
          "type": "address"
        }
      ],
      "stateMutability": "view",
      "type": "function"
    },
    {
      "inputs": [],
      "name": "BASE_PARAMS",
      "outputs": [
        {
          "internalType": "uint256",
          "name": "",
          "type": "uint256"
        }
      ],
      "stateMutability": "view",
      "type": "function"
    },
    {
      "inputs": [],
      "name": "VEANGLE",
      "outputs": [
        {
          "internalType": "contract IVeANGLE",
          "name": "",
          "type": "address"
        }
      ],
      "stateMutability": "view",
      "type": "function"
    },
    {
      "inputs": [],
      "name": "WETH9",
      "outputs": [
        {
          "internalType": "contract IWETH9",
          "name": "",
          "type": "address"
        }
      ],
      "stateMutability": "view",
      "type": "function"
    },
    {
      "inputs": [
        {
          "internalType": "contract IERC20[]",
          "name": "stablecoins",
          "type": "address[]"
        },
        {
          "internalType": "contract IPoolManager[]",
          "name": "poolManagers",
          "type": "address[]"
        },
        {
          "internalType": "contract ILiquidityGauge[]",
          "name": "liquidityGauges",
          "type": "address[]"
        }
      ],
      "name": "addPairs",
      "outputs": [],
      "stateMutability": "nonpayable",
      "type": "function"
    },
    {
      "inputs": [
        {
          "internalType": "contract IERC20",
          "name": "stablecoin",
          "type": "address"
        },
        {
          "internalType": "contract IStableMasterFront",
          "name": "stableMaster",
          "type": "address"
        }
      ],
      "name": "addStableMaster",
      "outputs": [],
      "stateMutability": "nonpayable",
      "type": "function"
    },
    {
      "inputs": [
        {
          "internalType": "uint256",
          "name": "margin",
          "type": "uint256"
        },
        {
          "internalType": "uint256",
          "name": "perpetualID",
          "type": "uint256"
        },
        {
          "internalType": "bool",
          "name": "addressProcessed",
          "type": "bool"
        },
        {
          "internalType": "address",
          "name": "stablecoinOrPerpetualManager",
          "type": "address"
        },
        {
          "internalType": "address",
          "name": "collateral",
          "type": "address"
        }
      ],
      "name": "addToPerpetual",
      "outputs": [],
      "stateMutability": "nonpayable",
      "type": "function"
    },
    {
      "inputs": [
        {
          "internalType": "address",
          "name": "dest",
          "type": "address"
        },
        {
          "internalType": "uint256",
          "name": "amount",
          "type": "uint256"
        },
        {
          "internalType": "uint256",
          "name": "minCollatAmount",
          "type": "uint256"
        },
        {
          "internalType": "address",
          "name": "stablecoin",
          "type": "address"
        },
        {
          "internalType": "address",
          "name": "collateral",
          "type": "address"
        }
      ],
      "name": "burn",
      "outputs": [],
      "stateMutability": "nonpayable",
      "type": "function"
    },
    {
      "inputs": [
        {
          "internalType": "contract IERC20[]",
          "name": "tokens",
          "type": "address[]"
        },
        {
          "internalType": "address[]",
          "name": "spenders",
          "type": "address[]"
        },
        {
          "internalType": "uint256[]",
          "name": "amounts",
          "type": "uint256[]"
        }
      ],
      "name": "changeAllowance",
      "outputs": [],
      "stateMutability": "nonpayable",
      "type": "function"
    },
    {
      "inputs": [
        {
          "internalType": "address",
          "name": "user",
          "type": "address"
        },
        {
          "internalType": "address[]",
          "name": "liquidityGauges",
          "type": "address[]"
        },
        {
          "internalType": "uint256[]",
          "name": "perpetualIDs",
          "type": "uint256[]"
        },
        {
          "internalType": "address[]",
          "name": "perpetualManagers",
          "type": "address[]"
        }
      ],
      "name": "claimRewards",
      "outputs": [],
      "stateMutability": "nonpayable",
      "type": "function"
    },
    {
      "inputs": [
        {
          "internalType": "address",
          "name": "gaugeUser",
          "type": "address"
        },
        {
          "internalType": "address[]",
          "name": "liquidityGauges",
          "type": "address[]"
        },
        {
          "internalType": "uint256[]",
          "name": "perpetualIDs",
          "type": "uint256[]"
        },
        {
          "internalType": "address[]",
          "name": "stablecoins",
          "type": "address[]"
        },
        {
          "internalType": "address[]",
          "name": "collaterals",
          "type": "address[]"
        }
      ],
      "name": "claimRewards",
      "outputs": [],
      "stateMutability": "nonpayable",
      "type": "function"
    },
    {
      "inputs": [
        {
          "internalType": "address",
          "name": "user",
          "type": "address"
        },
        {
          "internalType": "uint256",
          "name": "amount",
          "type": "uint256"
        },
        {
          "internalType": "address",
          "name": "stableMaster",
          "type": "address"
        },
        {
          "internalType": "address",
          "name": "collateral",
          "type": "address"
        },
        {
          "internalType": "contract IPoolManager",
          "name": "poolManager",
          "type": "address"
        },
        {
          "internalType": "contract ISanToken",
          "name": "sanToken",
          "type": "address"
        }
      ],
      "name": "deposit",
      "outputs": [],
      "stateMutability": "nonpayable",
      "type": "function"
    },
    {
      "inputs": [
        {
          "internalType": "address",
          "name": "user",
          "type": "address"
        },
        {
          "internalType": "uint256",
          "name": "amount",
          "type": "uint256"
        },
        {
          "internalType": "address",
          "name": "stablecoin",
          "type": "address"
        },
        {
          "internalType": "address",
          "name": "collateral",
          "type": "address"
        }
      ],
      "name": "deposit",
      "outputs": [],
      "stateMutability": "nonpayable",
      "type": "function"
    },
    {
      "inputs": [
        {
          "internalType": "address",
          "name": "user",
          "type": "address"
        },
        {
          "internalType": "uint256",
          "name": "amount",
          "type": "uint256"
        },
        {
          "internalType": "contract ILiquidityGauge",
          "name": "gauge",
          "type": "address"
        },
        {
          "internalType": "bool",
          "name": "shouldClaimRewards",
          "type": "bool"
        },
        {
          "internalType": "contract IERC20",
          "name": "token",
          "type": "address"
        }
      ],
      "name": "gaugeDeposit",
      "outputs": [],
      "stateMutability": "nonpayable",
      "type": "function"
    },
    {
      "inputs": [],
      "name": "governor",
      "outputs": [
        {
          "internalType": "address",
          "name": "",
          "type": "address"
        }
      ],
      "stateMutability": "view",
      "type": "function"
    },
    {
      "inputs": [],
      "name": "guardian",
      "outputs": [
        {
          "internalType": "address",
          "name": "",
          "type": "address"
        }
      ],
      "stateMutability": "view",
      "type": "function"
    },
    {
      "inputs": [
        {
          "internalType": "address",
          "name": "_governor",
          "type": "address"
        },
        {
          "internalType": "address",
          "name": "_guardian",
          "type": "address"
        },
        {
          "internalType": "contract IUniswapV3Router",
          "name": "_uniswapV3Router",
          "type": "address"
        },
        {
          "internalType": "address",
          "name": "_oneInch",
          "type": "address"
        },
        {
          "internalType": "contract IStableMasterFront",
          "name": "existingStableMaster",
          "type": "address"
        },
        {
          "internalType": "contract IPoolManager[]",
          "name": "existingPoolManagers",
          "type": "address[]"
        },
        {
          "internalType": "contract ILiquidityGauge[]",
          "name": "existingLiquidityGauges",
          "type": "address[]"
        }
      ],
      "name": "initialize",
      "outputs": [],
      "stateMutability": "nonpayable",
      "type": "function"
    },
    {
      "inputs": [
        {
          "internalType": "contract IStableMasterFront",
          "name": "",
          "type": "address"
        },
        {
          "internalType": "contract IERC20",
          "name": "",
          "type": "address"
        }
      ],
      "name": "mapPoolManagers",
      "outputs": [
        {
          "internalType": "contract IPoolManager",
          "name": "poolManager",
          "type": "address"
        },
        {
          "internalType": "contract IPerpetualManagerFrontWithClaim",
          "name": "perpetualManager",
          "type": "address"
        },
        {
          "internalType": "contract ISanToken",
          "name": "sanToken",
          "type": "address"
        },
        {
          "internalType": "contract ILiquidityGauge",
          "name": "gauge",
          "type": "address"
        }
      ],
      "stateMutability": "view",
      "type": "function"
    },
    {
      "inputs": [
        {
          "internalType": "contract IERC20",
          "name": "",
          "type": "address"
        }
      ],
      "name": "mapStableMasters",
      "outputs": [
        {
          "internalType": "contract IStableMasterFront",
          "name": "",
          "type": "address"
        }
      ],
      "stateMutability": "view",
      "type": "function"
    },
    {
      "inputs": [
        {
          "internalType": "address",
          "name": "user",
          "type": "address"
        },
        {
          "internalType": "uint256",
          "name": "amount",
          "type": "uint256"
        },
        {
          "internalType": "uint256",
          "name": "minStableAmount",
          "type": "uint256"
        },
        {
          "internalType": "address",
          "name": "stablecoin",
          "type": "address"
        },
        {
          "internalType": "address",
          "name": "collateral",
          "type": "address"
        }
      ],
      "name": "mint",
      "outputs": [],
      "stateMutability": "nonpayable",
      "type": "function"
    },
    {
      "inputs": [
        {
          "internalType": "address",
          "name": "user",
          "type": "address"
        },
        {
          "internalType": "uint256",
          "name": "amount",
          "type": "uint256"
        },
        {
          "internalType": "uint256",
          "name": "minStableAmount",
          "type": "uint256"
        },
        {
          "internalType": "address",
          "name": "stableMaster",
          "type": "address"
        },
        {
          "internalType": "address",
          "name": "collateral",
          "type": "address"
        },
        {
          "internalType": "address",
          "name": "poolManager",
          "type": "address"
        }
      ],
      "name": "mint",
      "outputs": [],
      "stateMutability": "nonpayable",
      "type": "function"
    },
    {
      "inputs": [
        {
          "components": [
            {
              "internalType": "address",
              "name": "token",
              "type": "address"
            },
            {
              "internalType": "address",
              "name": "owner",
              "type": "address"
            },
            {
              "internalType": "uint256",
              "name": "value",
              "type": "uint256"
            },
            {
              "internalType": "uint256",
              "name": "deadline",
              "type": "uint256"
            },
            {
              "internalType": "uint8",
              "name": "v",
              "type": "uint8"
            },
            {
              "internalType": "bytes32",
              "name": "r",
              "type": "bytes32"
            },
            {
              "internalType": "bytes32",
              "name": "s",
              "type": "bytes32"
            }
          ],
          "internalType": "struct AngleRouter.PermitType[]",
          "name": "paramsPermit",
          "type": "tuple[]"
        },
        {
          "components": [
            {
              "internalType": "contract IERC20",
              "name": "inToken",
              "type": "address"
            },
            {
              "internalType": "uint256",
              "name": "amountIn",
              "type": "uint256"
            }
          ],
          "internalType": "struct AngleRouter.TransferType[]",
          "name": "paramsTransfer",
          "type": "tuple[]"
        },
        {
          "components": [
            {
              "internalType": "contract IERC20",
              "name": "inToken",
              "type": "address"
            },
            {
              "internalType": "address",
              "name": "collateral",
              "type": "address"
            },
            {
              "internalType": "uint256",
              "name": "amountIn",
              "type": "uint256"
            },
            {
              "internalType": "uint256",
              "name": "minAmountOut",
              "type": "uint256"
            },
            {
              "internalType": "bytes",
              "name": "args",
              "type": "bytes"
            },
            {
              "internalType": "enum AngleRouter.SwapType",
              "name": "swapType",
              "type": "uint8"
            }
          ],
          "internalType": "struct AngleRouter.ParamsSwapType[]",
          "name": "paramsSwap",
          "type": "tuple[]"
        },
        {
          "internalType": "enum AngleRouter.ActionType[]",
          "name": "actions",
          "type": "uint8[]"
        },
        {
          "internalType": "bytes[]",
          "name": "datas",
          "type": "bytes[]"
        }
      ],
      "name": "mixer",
      "outputs": [],
      "stateMutability": "payable",
      "type": "function"
    },
    {
      "inputs": [],
      "name": "oneInch",
      "outputs": [
        {
          "internalType": "address",
          "name": "",
          "type": "address"
        }
      ],
      "stateMutability": "view",
      "type": "function"
    },
    {
      "inputs": [
        {
          "internalType": "contract IERC20",
          "name": "",
          "type": "address"
        }
      ],
      "name": "oneInchAllowedToken",
      "outputs": [
        {
          "internalType": "bool",
          "name": "",
          "type": "bool"
        }
      ],
      "stateMutability": "view",
      "type": "function"
    },
    {
      "inputs": [
        {
          "internalType": "address",
          "name": "owner",
          "type": "address"
        },
        {
          "internalType": "uint256",
          "name": "margin",
          "type": "uint256"
        },
        {
          "internalType": "uint256",
          "name": "amountCommitted",
          "type": "uint256"
        },
        {
          "internalType": "uint256",
          "name": "maxOracleRate",
          "type": "uint256"
        },
        {
          "internalType": "uint256",
          "name": "minNetMargin",
          "type": "uint256"
        },
        {
          "internalType": "bool",
          "name": "addressProcessed",
          "type": "bool"
        },
        {
          "internalType": "address",
          "name": "stablecoinOrPerpetualManager",
          "type": "address"
        },
        {
          "internalType": "address",
          "name": "collateral",
          "type": "address"
        }
      ],
      "name": "openPerpetual",
      "outputs": [],
      "stateMutability": "nonpayable",
      "type": "function"
    },
    {
      "inputs": [
        {
          "internalType": "address",
          "name": "tokenAddress",
          "type": "address"
        },
        {
          "internalType": "address",
          "name": "to",
          "type": "address"
        },
        {
          "internalType": "uint256",
          "name": "tokenAmount",
          "type": "uint256"
        }
      ],
      "name": "recoverERC20",
      "outputs": [],
      "stateMutability": "nonpayable",
      "type": "function"
    },
    {
      "inputs": [
        {
          "internalType": "contract IERC20[]",
          "name": "stablecoins",
          "type": "address[]"
        },
        {
          "internalType": "contract IERC20[]",
          "name": "collaterals",
          "type": "address[]"
        },
        {
          "internalType": "contract IStableMasterFront[]",
          "name": "stableMasters",
          "type": "address[]"
        }
      ],
      "name": "removePairs",
      "outputs": [],
      "stateMutability": "nonpayable",
      "type": "function"
    },
    {
      "inputs": [
        {
          "internalType": "contract IERC20",
          "name": "stablecoin",
          "type": "address"
        }
      ],
      "name": "removeStableMaster",
      "outputs": [],
      "stateMutability": "nonpayable",
      "type": "function"
    },
    {
      "inputs": [
        {
          "internalType": "address",
          "name": "admin",
          "type": "address"
        },
        {
          "internalType": "bool",
          "name": "setGovernor",
          "type": "bool"
        }
      ],
      "name": "setGovernorOrGuardian",
      "outputs": [],
      "stateMutability": "nonpayable",
      "type": "function"
    },
    {
      "inputs": [
        {
          "internalType": "contract IERC20[]",
          "name": "stablecoins",
          "type": "address[]"
        },
        {
          "internalType": "contract IERC20[]",
          "name": "collaterals",
          "type": "address[]"
        },
        {
          "internalType": "contract ILiquidityGauge[]",
          "name": "newLiquidityGauges",
          "type": "address[]"
        }
      ],
      "name": "setLiquidityGauges",
      "outputs": [],
      "stateMutability": "nonpayable",
      "type": "function"
    },
    {
      "inputs": [
        {
          "internalType": "contract IERC20",
          "name": "",
          "type": "address"
        }
      ],
      "name": "uniAllowedToken",
      "outputs": [
        {
          "internalType": "bool",
          "name": "",
          "type": "bool"
        }
      ],
      "stateMutability": "view",
      "type": "function"
    },
    {
      "inputs": [],
      "name": "uniswapV3Router",
      "outputs": [
        {
          "internalType": "contract IUniswapV3Router",
          "name": "",
          "type": "address"
        }
      ],
      "stateMutability": "view",
      "type": "function"
    },
    {
      "stateMutability": "payable",
      "type": "receive"
    }
  ],
  "transactionHash": "0x7fd82ce498fb3b90103404c31a0ac6beb154c4a1f0f2c69ed9706f5b25cdc81c",
  "args": [],
  "solcInputHash": "a20b7c25c199317276d43cf448888528",
  "bytecode": "0x60806040523480156200001157600080fd5b50600054610100900460ff16806200002c575060005460ff16155b620000945760405162461bcd60e51b815260206004820152602e60248201527f496e697469616c697a61626c653a20636f6e747261637420697320616c72656160448201526d191e481a5b9a5d1a585b1a5e995960921b606482015260840160405180910390fd5b600054610100900460ff16158015620000b7576000805461ffff19166101011790555b8015620000ca576000805461ff00191690555b506155de80620000db6000396000f3fe6080604052600436106101775760003560e01c8063045c08d5146101835780630c340a24146101b95780630db3280f146101d95780631171bda9146102195780631fd66ede1461023b57806322f2d5861461025b5780632c76d7a61461027b578063313359b11461029b5780633fbe4484146102bd578063452a9320146102dd5780634aa4a4fc146102fd5780634ba20f7014610325578063560a8b78146103455780635cc6b2d41461036d5780636fb8df051461038d5780637c295dfa146103ad5780639f48118f1461043e578063a11a233d14610464578063aacdd99d14610484578063aad3bff0146104a4578063b044d1e0146104c4578063b8034424146104e4578063b82c4dc11461051a578063c6f1649f1461053a578063cef5cd0a1461055a578063d0772c291461056d578063d7d9e46f1461058d578063e45e6f30146105ad578063e9cefc64146105cd578063ee7b4950146105ed578063f5a418bb1461060d578063f8a3a1111461063d57600080fd5b3661017e57005b600080fd5b34801561018f57600080fd5b50603a546101a3906001600160a01b031681565b6040516101b09190615159565b60405180910390f35b3480156101c557600080fd5b506037546101a3906001600160a01b031681565b3480156101e557600080fd5b506102096101f4366004614615565b60356020526000908152604090205460ff1681565b60405190151581526020016101b0565b34801561022557600080fd5b50610239610234366004614a29565b61065d565b005b34801561024757600080fd5b50610239610256366004614cc8565b61070b565b34801561026757600080fd5b50610239610276366004614da5565b61075f565b34801561028757600080fd5b506039546101a3906001600160a01b031681565b3480156102a757600080fd5b506101a360008051602061558983398151915281565b3480156102c957600080fd5b506102396102d836600461495b565b610bbe565b3480156102e957600080fd5b506038546101a3906001600160a01b031681565b34801561030957600080fd5b506101a373c02aaa39b223fe8d0a0e5c4f27ead9083c756cc281565b34801561033157600080fd5b506102396103403660046148d6565b610eac565b34801561035157600080fd5b506101a3730c462dbb9ec8cd1630f1728b2cfd2769d09f0dd581565b34801561037957600080fd5b50610239610388366004614da5565b610f08565b34801561039957600080fd5b506102396103a8366004614615565b6112c8565b3480156103b957600080fd5b5061040b6103c836600461504f565b603460209081526000928352604080842090915290825290208054600182015460028301546003909301546001600160a01b039283169391831692918216911684565b604080516001600160a01b03958616815293851660208501529184169183019190915290911660608201526080016101b0565b34801561044a57600080fd5b50610456633b9aca0081565b6040519081526020016101b0565b34801561047057600080fd5b5061023961047f366004614bc3565b61135f565b34801561049057600080fd5b5061023961049f366004614da5565b611497565b3480156104b057600080fd5b506102396104bf366004614c4f565b6115a7565b3480156104d057600080fd5b506102396104df366004614d22565b611602565b3480156104f057600080fd5b506101a36104ff366004614615565b6033602052600090815260409020546001600160a01b031681565b34801561052657600080fd5b50610239610535366004614da5565b611650565b34801561054657600080fd5b50610239610555366004614bfc565b611745565b610239610568366004614e3e565b61179f565b34801561057957600080fd5b50610239610588366004614a6a565b6122bb565b34801561059957600080fd5b506102396105a8366004614d63565b612341565b3480156105b957600080fd5b506102396105c836600461504f565b61238e565b3480156105d957600080fd5b506102396105e83660046150e0565b612525565b3480156105f957600080fd5b50610239610608366004614d22565b61256f565b34801561061957600080fd5b50610209610628366004614615565b60366020526000908152604090205460ff1681565b34801561064957600080fd5b50610239610658366004614b04565b6125a7565b6037546001600160a01b031633148061068057506038546001600160a01b031633145b6106a55760405162461bcd60e51b815260040161069c90615207565b60405180910390fd5b6106b96001600160a01b03841683836125de565b816001600160a01b0316836001600160a01b03167ffff3b3844276f57024e0b42afec1a37f75db36511e43819a4f2a63ab7862b648836040516106fe91815260200190565b60405180910390a3505050565b6002600154141561072e5760405162461bcd60e51b815260040161069c9061525d565b60026001556107486001600160a01b038216333087612639565b61075485858585612677565b505060018055505050565b6037546001600160a01b031633148061078257506038546001600160a01b031633145b61079e5760405162461bcd60e51b815260040161069c90615207565b82851480156107ac57508085145b6107c85760405162461bcd60e51b815260040161069c906151ce565b60005b85811015610bb5576000603360008989858181106107eb576107eb615516565b90506020020160208101906108009190614615565b6001600160a01b03908116825260208083019390935260409182016000908120549091168082526034909352908120919250908188888681811061084657610846615516565b905060200201602081019061085b9190614615565b6001600160a01b039081168252602082019290925260400160002060038101546002820154919350821691908116908416158015906108a3575082546001600160a01b031615155b6108bf5760405162461bcd60e51b815260040161069c906151b3565b8686868181106108d1576108d1615516565b90506020020160208101906108e69190614615565b6003840180546001600160a01b0319166001600160a01b0392831617905582161561098e5760405163095ea7b360e01b81526001600160a01b0382169063095ea7b39061093a908590600090600401615187565b602060405180830381600087803b15801561095457600080fd5b505af1158015610968573d6000803e3d6000fd5b505050506040513d601f19601f8201168201806040525081019061098c9190614ef6565b505b60008787878181106109a2576109a2615516565b90506020020160208101906109b79190614615565b6001600160a01b031614610b3857806001600160a01b03168787878181106109e1576109e1615516565b90506020020160208101906109f69190614615565b6001600160a01b0316632dc7d74c6040518163ffffffff1660e01b8152600401602060405180830381600087803b158015610a3057600080fd5b505af1158015610a44573d6000803e3d6000fd5b505050506040513d601f19601f82011682018060405250810190610a689190614632565b6001600160a01b031614610a8e5760405162461bcd60e51b815260040161069c90615241565b806001600160a01b031663095ea7b3888888818110610aaf57610aaf615516565b9050602002016020810190610ac49190614615565b6000196040518363ffffffff1660e01b8152600401610ae4929190615187565b602060405180830381600087803b158015610afe57600080fd5b505af1158015610b12573d6000803e3d6000fd5b505050506040513d601f19601f82011682018060405250810190610b369190614ef6565b505b868686818110610b4a57610b4a615516565b9050602002016020810190610b5f9190614615565b6001600160a01b0316816001600160a01b03167f68bfc93bebf089f076e093803a9da9d10f6f78e2bde5f83b50b249ed5333442460405160405180910390a3505050508080610bad906154cf565b9150506107cb565b50505050505050565b600054610100900460ff1680610bd7575060005460ff16155b610c3a5760405162461bcd60e51b815260206004820152602e60248201527f496e697469616c697a61626c653a20636f6e747261637420697320616c72656160448201526d191e481a5b9a5d1a585b1a5e995960921b606482015260840161069c565b600054610100900460ff16158015610c5c576000805461ffff19166101011790555b6001600160a01b03881615801590610c7c57506001600160a01b03871615155b8015610c9057506001600160a01b038a1615155b8015610ca457506001600160a01b03891615155b610cc05760405162461bcd60e51b815260040161069c906151b3565b886001600160a01b03168a6001600160a01b03161415610cf25760405162461bcd60e51b815260040161069c906151eb565b838214610d115760405162461bcd60e51b815260040161069c906151ce565b8560336000886001600160a01b031663ee565a636040518163ffffffff1660e01b815260040160206040518083038186803b158015610d4f57600080fd5b505afa158015610d63573d6000803e3d6000fd5b505050506040513d601f19601f82011682018060405250810190610d879190614632565b6001600160a01b039081168252602082019290925260400160002080546001600160a01b03199081169383169390931790556037805483168d83161790556038805483168c83161790556039805483168b8316179055603a8054909216908916179055610e19600080516020615589833981519152730c462dbb9ec8cd1630f1728b2cfd2769d09f0dd56000196126e7565b60005b84811015610e8d57610e7b87878784818110610e3a57610e3a615516565b9050602002016020810190610e4f9190614615565b868685818110610e6157610e61615516565b9050602002016020810190610e769190614615565b6127f9565b80610e85816154cf565b915050610e1c565b508015610ea0576000805461ff00191690555b50505050505050505050565b60026001541415610ecf5760405162461bcd60e51b815260040161069c9061525d565b6002600155610ee96001600160a01b03821633308a612639565b610ef98888888888888888612aba565b50506001805550505050505050565b6037546001600160a01b0316331480610f2b57506038546001600160a01b031633145b610f475760405162461bcd60e51b815260040161069c90615207565b8285148015610f5557508083145b610f715760405162461bcd60e51b815260040161069c906151ce565b610f79613fe2565b6000805b878110156112bd576000858583818110610f9957610f99615516565b9050602002016020810190610fae9190614615565b6001600160a01b0316141561101c57611013898983818110610fd257610fd2615516565b9050602002016020810190610fe79190614615565b888884818110610ff957610ff9615516565b905060200201602081019061100e9190614615565b612b7a565b935091506110dc565b84848281811061102e5761102e615516565b90506020020160208101906110439190614615565b6001600160a01b038116600090815260346020526040812091935088888481811061107057611070615516565b90506020020160208101906110859190614615565b6001600160a01b039081168252602080830193909352604091820160002082516080810184528154831681526001820154831694810194909452600281015482169284019290925260039091015416606082015292505b6001600160a01b03821660009081526034602052604081209088888481811061110757611107615516565b905060200201602081019061111c9190614615565b6001600160a01b03168152602081019190915260400160002080546001600160a01b03199081168255600182018054821690556002820180548216905560039091018054909116905561119787878381811061117a5761117a615516565b905060200201602081019061118f9190614615565b836000612c2c565b6111cd8787838181106111ac576111ac615516565b90506020020160208101906111c19190614615565b84602001516000612c2c565b60608301516001600160a01b03161561126b5782604001516001600160a01b031663095ea7b3846060015160006040518363ffffffff1660e01b8152600401611217929190615187565b602060405180830381600087803b15801561123157600080fd5b505af1158015611245573d6000803e3d6000fd5b505050506040513d601f19601f820116820180604052508101906112699190614ef6565b505b82606001516001600160a01b031683600001516001600160a01b0316836001600160a01b031660008051602061556983398151915260405160405180910390a4806112b5816154cf565b915050610f7d565b505050505050505050565b6037546001600160a01b03163314806112eb57506038546001600160a01b031633145b6113075760405162461bcd60e51b815260040161069c90615207565b6001600160a01b0380821660009081526033602052604080822080546001600160a01b03198116909155905192169182917f3302a1b37f04242bb55603f5449e7ecd690a35eef08ba1353c48c20e2aae9cda91a25050565b6037546001600160a01b031633148061138257506038546001600160a01b031633145b61139e5760405162461bcd60e51b815260040161069c90615207565b6001600160a01b0382166113c45760405162461bcd60e51b815260040161069c906151b3565b6038546001600160a01b038381169116148015906113f057506037546001600160a01b03838116911614155b61140c5760405162461bcd60e51b815260040161069c906151eb565b801561143257603780546001600160a01b0319166001600160a01b03841617905561144e565b603880546001600160a01b0319166001600160a01b0384161790555b816001600160a01b03167f4526a942aaed9ea92b149506bb00ccf0f9267091de10444718cf9b09e05dc6808260405161148b911515815260200190565b60405180910390a25050565b6037546001600160a01b03163314806114ba57506038546001600160a01b031633145b6114d65760405162461bcd60e51b815260040161069c90615207565b82851480156114e457508085145b6115005760405162461bcd60e51b815260040161069c906151ce565b60005b85811015610bb55760006033600089898581811061152357611523615516565b90506020020160208101906115389190614615565b6001600160a01b0390811682526020820192909252604001600020541690506115948187878581811061156d5761156d615516565b90506020020160208101906115829190614615565b868686818110610e6157610e61615516565b508061159f816154cf565b915050611503565b600260015414156115ca5760405162461bcd60e51b815260040161069c9061525d565b60026001556115e46001600160a01b038416333088612639565b6115f48686600187878787612d02565b505060018055505050505050565b600260015414156116255760405162461bcd60e51b815260040161069c9061525d565b600260015561163f6001600160a01b038216333087612639565b610754858585600086866000612f2b565b6037546001600160a01b031633148061167357506038546001600160a01b031633145b61168f5760405162461bcd60e51b815260040161069c90615207565b848314801561169d57508481145b6116b95760405162461bcd60e51b815260040161069c906151ce565b60005b85811015610bb5576117338787838181106116d9576116d9615516565b90506020020160208101906116ee9190614615565b86868481811061170057611700615516565b90506020020160208101906117159190614615565b85858581811061172757611727615516565b90506020020135612c2c565b8061173d816154cf565b9150506116bc565b600260015414156117685760405162461bcd60e51b815260040161069c9061525d565b60026001556117826001600160a01b038216333086612639565b611793848460008585600080612d02565b50506001805550505050565b600260015414156117c25760405162461bcd60e51b815260040161069c9061525d565b600260015560005b865181101561194e578681815181106117e5576117e5615516565b6020026020010151600001516001600160a01b031663d505accf88838151811061181157611811615516565b602002602001015160200151308a858151811061183057611830615516565b6020026020010151604001518b868151811061184e5761184e615516565b6020026020010151606001518c878151811061186c5761186c615516565b6020026020010151608001518d888151811061188a5761188a615516565b602002602001015160a001518e89815181106118a8576118a8615516565b602090810291909101015160c001516040516001600160e01b031960e08a901b1681526001600160a01b0397881660048201529690951660248701526044860193909352606485019190915260ff16608484015260a483015260c482015260e401600060405180830381600087803b15801561192357600080fd5b505af1158015611937573d6000803e3d6000fd5b505050508080611946906154cf565b9150506117ca565b50611957614009565b61195f614009565b60005b8751811015611a1d576119c533308a848151811061198257611982615516565b6020026020010151602001518b85815181106119a0576119a0615516565b6020026020010151600001516001600160a01b0316612639909392919063ffffffff16565b611a0b83838a84815181106119dc576119dc615516565b6020026020010151600001518b85815181106119fa576119fa615516565b602002602001015160200151612fbb565b80611a15816154cf565b915050611962565b5060005b8651811015611b08576000611aca888381518110611a4157611a41615516565b602002602001015160000151898481518110611a5f57611a5f615516565b6020026020010151604001518a8581518110611a7d57611a7d615516565b6020026020010151606001518b8681518110611a9b57611a9b615516565b602002602001015160a001518c8781518110611ab957611ab9615516565b602002602001015160800151613046565b9050611af584848a8581518110611ae357611ae3615516565b60200260200101516020015184612fbb565b5080611b00816154cf565b915050611a21565b5060005b855181101561223b576000868281518110611b2957611b29615516565b60200260200101516008811115611b4257611b42615500565b1415611d1f5760008060008060008060008b8b89818110611b6557611b65615516565b9050602002810190611b77919061530b565b810190611b84919061472e565b965096509650965096509650965060006000805160206155898339815191526001600160a01b03166370a08231896040518263ffffffff1660e01b8152600401611bce9190615159565b60206040518083038186803b158015611be657600080fd5b505afa158015611bfa573d6000803e3d6000fd5b505050506040513d601f19601f82011682018060405250810190611c1e919061507d565b9050611c2e888787878787613182565b8615611d12576040516370a0823160e01b81528190600080516020615589833981519152906370a0823190611c67908c90600401615159565b60206040518083038186803b158015611c7f57600080fd5b505afa158015611c93573d6000803e3d6000fd5b505050506040513d601f19601f82011682018060405250810190611cb7919061507d565b611cc1919061548c565b9050633b9aca00611cd2888361546d565b611cdc919061544b565b9050611cf8600080516020615589833981519152333084612639565b611d128b8b60008051602061558983398151915284612fbb565b5050505050505050612229565b6001868281518110611d3357611d33615516565b60200260200101516008811115611d4c57611d4c615500565b1415611dc6576000806000878785818110611d6957611d69615516565b9050602002810190611d7b919061530b565b810190611d88919061464f565b925092509250600080611d9c858585613350565b90925090506001600160a01b03811615611dbc57611dbc88888385612fbb565b5050505050612229565b6008868281518110611dda57611dda615516565b60200260200101516008811115611df357611df3615500565b1415611e5e57600080868684818110611e0e57611e0e615516565b9050602002810190611e20919061530b565b810190611e2d919061469a565b91509150611e4b818686600080516020615589833981519152613475565b9050611e57828261353c565b5050612229565b6002868281518110611e7257611e72615516565b60200260200101516008811115611e8b57611e8b615500565b1415611eee576000806000806000898987818110611eab57611eab615516565b9050602002810190611ebd919061530b565b810190611eca91906146c6565b94509450945094509450611ee084898986613475565b9350611dbc85858484612677565b6005868281518110611f0257611f02615516565b60200260200101516008811115611f1b57611f1b615500565b1415611fab5760008060008060008060008b8b89818110611f3e57611f3e615516565b9050602002810190611f50919061530b565b810190611f5d9190614805565b9650965096509650965096509650611f77868b8b86613475565b9550611f8887878787878787612d02565b90965090508515611f9f57611f9f8a8a8389612fbb565b50505050505050612229565b6003868281518110611fbf57611fbf615516565b60200260200101516008811115611fd857611fd8615500565b141561204c576000806000806000898987818110611ff857611ff8615516565b905060200281019061200a919061530b565b8101906120179190615096565b9450945094509450945061202d85898984613475565b945061203b858585856135ab565b9095509150611dbc88888488612fbb565b600486828151811061206057612060615516565b6020026020010151600881111561207957612079615500565b14156120e65760008060008060008060008b8b8981811061209c5761209c615516565b90506020028101906120ae919061530b565b8101906120bb9190614892565b96509650965096509650965096506120d5868b8b85613475565b9550611f9f87878787878787612f2b565b60068682815181106120fa576120fa615516565b6020026020010151600881111561211357612113615500565b1415612192576000806000806000806000808c8c8a81811061213757612137615516565b9050602002810190612149919061530b565b81019061215691906148d6565b97509750975097509750975097509750612172878c8c84613475565b96506121848888888888888888612aba565b505050505050505050612229565b60078682815181106121a6576121a6615516565b602002602001015160088111156121bf576121bf615500565b14156122295760008060008060008989878181106121df576121df615516565b90506020028101906121f1919061530b565b8101906121fe91906150e0565b9450945094509450945061221485898984613475565b945061222385858585856137d4565b50505050505b80612233816154cf565b915050611b0c565b5060005b600a811015610ef95760008282600a811061225c5761225c615516565b602002015111156122a9576122a9338383600a811061227d5761227d615516565b60200201518584600a811061229457612294615516565b60200201516001600160a01b031691906125de565b806122b3816154cf565b91505061223f565b600260015414156122de5760405162461bcd60e51b815260040161069c9061525d565b6002600181905550612337848484600186516001600160401b038111156123075761230761552c565b604051908082528060200260200182016040528015612330578160200160208202803683370190505b5086613182565b5050600180555050565b600260015414156123645760405162461bcd60e51b815260040161069c9061525d565b600260015561237e6001600160a01b038316333088612639565b6117938686866001878787612f2b565b6037546001600160a01b03163314806123b157506038546001600160a01b031633145b6123cd5760405162461bcd60e51b815260040161069c90615207565b6001600160a01b0382166123f35760405162461bcd60e51b815260040161069c906151b3565b6001600160a01b03828116600090815260336020526040902054161561242b5760405162461bcd60e51b815260040161069c90615224565b816001600160a01b0316816001600160a01b031663ee565a636040518163ffffffff1660e01b8152600401602060405180830381600087803b15801561247057600080fd5b505af1158015612484573d6000803e3d6000fd5b505050506040513d601f19601f820116820180604052508101906124a89190614632565b6001600160a01b0316146124ce5760405162461bcd60e51b815260040161069c90615241565b6001600160a01b0382811660009081526033602052604080822080546001600160a01b0319169385169384179055517f3db297c09c19972ba6a701ff373ab97e21ff1e4992e863c7abe44e9b2fed08479190a25050565b600260015414156125485760405162461bcd60e51b815260040161069c9061525d565b60026001556125626001600160a01b038216333088612639565b61075485858585856137d4565b600260015414156125925760405162461bcd60e51b815260040161069c9061525d565b6002600155610754858585600086868261384b565b600260015414156125ca5760405162461bcd60e51b815260040161069c9061525d565b600260015561075485858560008686613182565b6126348363a9059cbb60e01b84846040516024016125fd929190615187565b60408051601f198184030181529190526020810180516001600160e01b03166001600160e01b0319909316929092179091526138a9565b505050565b6040516001600160a01b03808516602483015283166044820152606481018290526126719085906323b872dd60e01b906084016125fd565b50505050565b6040516383df674760e01b8152600481018490526001600160a01b03858116602483015282151560448301528316906383df674790606401600060405180830381600087803b1580156126c957600080fd5b505af11580156126dd573d6000803e3d6000fd5b5050505050505050565b80158061276f5750604051636eb1769f60e11b81526001600160a01b0384169063dd62ed3e9061271d903090869060040161516d565b60206040518083038186803b15801561273557600080fd5b505afa158015612749573d6000803e3d6000fd5b505050506040513d601f19601f8201168201806040525081019061276d919061507d565b155b6127da5760405162461bcd60e51b815260206004820152603660248201527f5361666545524332303a20617070726f76652066726f6d206e6f6e2d7a65726f60448201527520746f206e6f6e2d7a65726f20616c6c6f77616e636560501b606482015260840161069c565b6126348363095ea7b360e01b84846040516024016125fd929190615187565b6000806000856001600160a01b031663ba8b7223866040518263ffffffff1660e01b815260040161282a9190615159565b60006040518083038186803b15801561284257600080fd5b505afa158015612856573d6000803e3d6000fd5b505050506040513d6000823e601f3d908101601f1916820160405261287e9190810190614f13565b5050506001600160a01b03808d166000908152603460209081526040808320848b16845290915290208054979a5095985093965093949092161592506128d99150505760405162461bcd60e51b815260040161069c90615224565b80546001600160a01b038088166001600160a01b0319928316178355600183018054858316908416179055600283018054868316931692909217909155851615612a5f57846001600160a01b0316632dc7d74c6040518163ffffffff1660e01b8152600401602060405180830381600087803b15801561295857600080fd5b505af115801561296c573d6000803e3d6000fd5b505050506040513d601f19601f820116820180604052508101906129909190614632565b6001600160a01b0316836001600160a01b0316146129c05760405162461bcd60e51b815260040161069c90615241565b6003810180546001600160a01b0319166001600160a01b038781169190911790915560405163095ea7b360e01b81529084169063095ea7b390612a0b90889060001990600401615187565b602060405180830381600087803b158015612a2557600080fd5b505af1158015612a39573d6000803e3d6000fd5b505050506040513d601f19601f82011682018060405250810190612a5d9190614ef6565b505b612a6c8488600019612c2c565b612a798483600019612c2c565b846001600160a01b0316866001600160a01b0316886001600160a01b031660008051602061556983398151915260405160405180910390a450505050505050565b600083612ad6576000612acd8484612b7a565b60200151945050505b60405163a62b2a3d60e01b81526001600160a01b038a81166004830152602482018a905260448201899052606482018890526084820187905284169063a62b2a3d9060a401602060405180830381600087803b158015612b3557600080fd5b505af1158015612b49573d6000803e3d6000fd5b505050506040513d601f19601f82011682018060405250810190612b6d919061507d565b9998505050505050505050565b6000612b84613fe2565b50506001600160a01b038083166000908152603360209081526040808320548416808452603483528184208686168552835292819020815160808101835281548616815260018201548616938101939093526002810154851691830191909152600301549092166060830152908115801590612c09575080516001600160a01b031615155b612c255760405162461bcd60e51b815260040161069c906151b3565b9250929050565b604051636eb1769f60e11b81526000906001600160a01b0385169063dd62ed3e90612c5d903090879060040161516d565b60206040518083038186803b158015612c7557600080fd5b505afa158015612c89573d6000803e3d6000fd5b505050506040513d601f19601f82011682018060405250810190612cad919061507d565b905081811015612cdb57612cd683612cc5838561548c565b6001600160a01b038716919061397b565b612671565b818111156126715761267183612cf1848461548c565b6001600160a01b0387169190613a27565b60008060008715612d14575085612d37565b612d1c613fe2565b612d268888612b7a565b805160409091015190975095509150505b6001600160a01b038a16301415612eb8576040516370a0823160e01b81526001600160a01b038516906370a0823190612d74903090600401615159565b60206040518083038186803b158015612d8c57600080fd5b505afa158015612da0573d6000803e3d6000fd5b505050506040513d601f19601f82011682018060405250810190612dc4919061507d565b604051630b8b4a6160e21b81529093506001600160a01b03821690632e2d298490612df7908c9030908a906004016152ec565b600060405180830381600087803b158015612e1157600080fd5b505af1158015612e25573d6000803e3d6000fd5b50506040516370a0823160e01b81528592506001600160a01b03871691506370a0823190612e57903090600401615159565b60206040518083038186803b158015612e6f57600080fd5b505afa158015612e83573d6000803e3d6000fd5b505050506040513d601f19601f82011682018060405250810190612ea7919061507d565b612eb1919061548c565b9250612f1b565b604051630b8b4a6160e21b81526001600160a01b03821690632e2d298490612ee8908c908e908a906004016152ec565b600060405180830381600087803b158015612f0257600080fd5b505af1158015612f16573d6000803e3d6000fd5b505050505b5082905097509795505050505050565b6000612f3985858585613b39565b6040516303a7722360e11b8152600481018a90526001600160a01b038b811660248301528083166044830152606482018a905291945091925082169063074ee446906084015b600060405180830381600087803b158015612f9957600080fd5b505af1158015612fad573d6000803e3d6000fd5b505050505050505050505050565b6000612fc78584613b70565b905060008582600a8110612fdd57612fdd615516565b60200201516001600160a01b0316141561301857828582600a811061300457613004615516565b6001600160a01b0390921660209290920201525b818482600a811061302b5761302b615516565b6020020181815161303c9190615433565b9052505050505050565b60006001600160a01b03861673c02aaa39b223fe8d0a0e5c4f27ead9083c756cc21480156130745750844710155b156130e65773c02aaa39b223fe8d0a0e5c4f27ead9083c756cc26001600160a01b031663d0e30db0866040518263ffffffff1660e01b81526004016000604051808303818588803b1580156130c857600080fd5b505af11580156130dc573d6000803e3d6000fd5b50505050506130fb565b6130fb6001600160a01b038716333088612639565b600083600181111561310f5761310f615500565b14156131285761312186868685613bfb565b9050613179565b600183600181111561313c5761313c615500565b141561314d57613121868584613d00565b60405162461bcd60e51b81526020600482015260016024820152603360f81b604482015260640161069c565b95945050505050565b83518251148015613194575083518151145b6131b05760405162461bcd60e51b815260040161069c906151ce565b60005b8551811015613246578581815181106131ce576131ce615516565b60200260200101516001600160a01b03166384e9bd7e886040518263ffffffff1660e01b81526004016132019190615159565b600060405180830381600087803b15801561321b57600080fd5b505af115801561322f573d6000803e3d6000fd5b50505050808061323e906154cf565b9150506131b3565b5060005b8451811015610bb5576000841561327c5782828151811061326d5761326d615516565b602002602001015190506132c3565b60006132ba85848151811061329357613293615516565b60200260200101518585815181106132ad576132ad615516565b6020026020010151612b7a565b60200151925050505b806001600160a01b0316631c4b774b8784815181106132e4576132e4615516565b60200260200101516040518263ffffffff1660e01b815260040161330a91815260200190565b600060405180830381600087803b15801561332457600080fd5b505af1158015613338573d6000803e3d6000fd5b50505050508080613348906154cf565b91505061324a565b600080836001600160a01b0316631e83409a866040518263ffffffff1660e01b815260040161337f9190615159565b602060405180830381600087803b15801561339957600080fd5b505af11580156133ad573d6000803e3d6000fd5b505050506040513d601f19601f820116820180604052508101906133d1919061507d565b9150821561346857836001600160a01b031663fc0c546a6040518163ffffffff1660e01b8152600401602060405180830381600087803b15801561341457600080fd5b505af1158015613428573d6000803e3d6000fd5b505050506040513d601f19601f8201168201806040525081019061344c9190614632565b90506134636001600160a01b038216333085612639565b61346d565b600091505b935093915050565b6000806134828584613b70565b905060008582600a811061349857613498615516565b60200201516001600160a01b031614156134d95760405162461bcd60e51b8152602060048201526002602482015261333360f01b604482015260640161069c565b633b9aca008482600a81106134f0576134f0615516565b60200201516134ff908861546d565b613509919061544b565b9150818482600a811061351e5761351e615516565b6020020181815161352f919061548c565b9052509095945050505050565b604051631d23139f60e11b8152730c462dbb9ec8cd1630f1728b2cfd2769d09f0dd590633a46273e906135759085908590600401615187565b600060405180830381600087803b15801561358f57600080fd5b505af11580156135a3573d6000803e3d6000fd5b505050505050565b600080600080861561363557859150849050806001600160a01b031663fc0c546a6040518163ffffffff1660e01b815260040160206040518083038186803b1580156135f657600080fd5b505afa15801561360a573d6000803e3d6000fd5b505050506040513d601f19601f8201168201806040525081019061362e9190614632565b945061364f565b61363d613fe2565b6136478787612b7a565b519093509150505b6040516370a0823160e01b81526001600160a01b038616906370a082319061367b903090600401615159565b60206040518083038186803b15801561369357600080fd5b505afa1580156136a7573d6000803e3d6000fd5b505050506040513d601f19601f820116820180604052508101906136cb919061507d565b60405163047c207560e31b8152600481018a9052306024820181905260448201526001600160a01b038381166064830152919550908316906323e103a890608401600060405180830381600087803b15801561372657600080fd5b505af115801561373a573d6000803e3d6000fd5b50506040516370a0823160e01b81528692506001600160a01b03881691506370a082319061376c903090600401615159565b60206040518083038186803b15801561378457600080fd5b505afa158015613798573d6000803e3d6000fd5b505050506040513d601f19601f820116820180604052508101906137bc919061507d565b6137c6919061548c565b989497509395505050505050565b826137ee5760006137e58383612b7a565b60200151935050505b6040516324d83b7960e01b815260048101859052602481018690526001600160a01b038316906324d83b7990604401600060405180830381600087803b15801561383757600080fd5b505af11580156112bd573d6000803e3d6000fd5b600061385985858585613b39565b604051633688210b60e11b8152600481018a90523360248201526001600160a01b038b811660448301528083166064830152608482018a9052919450919250821690636d1042169060a401612f7f565b60006138fe826040518060400160405280602081526020017f5361666545524332303a206c6f772d6c6576656c2063616c6c206661696c6564815250856001600160a01b0316613e2b9092919063ffffffff16565b805190915015612634578080602001905181019061391c9190614ef6565b6126345760405162461bcd60e51b815260206004820152602a60248201527f5361666545524332303a204552433230206f7065726174696f6e20646964206e6044820152691bdd081cdd58d8d9595960b21b606482015260840161069c565b600081846001600160a01b031663dd62ed3e30866040518363ffffffff1660e01b81526004016139ac92919061516d565b60206040518083038186803b1580156139c457600080fd5b505afa1580156139d8573d6000803e3d6000fd5b505050506040513d601f19601f820116820180604052508101906139fc919061507d565b613a069190615433565b90506126718463095ea7b360e01b85846040516024016125fd929190615187565b604051636eb1769f60e11b81526000906001600160a01b0385169063dd62ed3e90613a58903090879060040161516d565b60206040518083038186803b158015613a7057600080fd5b505afa158015613a84573d6000803e3d6000fd5b505050506040513d601f19601f82011682018060405250810190613aa8919061507d565b905081811015613b0c5760405162461bcd60e51b815260206004820152602960248201527f5361666545524332303a2064656372656173656420616c6c6f77616e63652062604482015268656c6f77207a65726f60b81b606482015260840161069c565b60405182820390613b3290869063095ea7b360e01b906125fd9088908690602401615187565b5050505050565b60008060008615613b4b575084613b64565b613b53613fe2565b613b5d8787612b7a565b5195509150505b96929550919350505050565b6000805b600a81108015613ba4575060008482600a8110613b9357613b93615516565b60200201516001600160a01b031614155b15613bf257826001600160a01b03168482600a8110613bc557613bc5615516565b60200201516001600160a01b03161415613be0579050613bf5565b80613bea816154cf565b915050613b74565b90505b92915050565b6001600160a01b03841660009081526035602052604081205460ff16613c5b57603954613c37906001600160a01b03878116911660001961397b565b6001600160a01b0385166000908152603560205260409020805460ff191660011790555b6039546040805160a08101825284815230602082015242818301526060810187905260808101869052905163c04b8d5960e01b81526001600160a01b039092169163c04b8d5991613cae91600401615294565b602060405180830381600087803b158015613cc857600080fd5b505af1158015613cdc573d6000803e3d6000fd5b505050506040513d601f19601f82011682018060405250810190613179919061507d565b6001600160a01b03831660009081526036602052604081205460ff16613d6057603a54613d3c906001600160a01b03868116911660001961397b565b6001600160a01b0384166000908152603660205260409020805460ff191660011790555b603a5460405160009182916001600160a01b0390911690613d8290869061513d565b6000604051808303816000865af19150503d8060008114613dbf576040519150601f19603f3d011682016040523d82523d6000602084013e613dc4565b606091505b509150915081613dd757613dd781613e44565b80806020019051810190613deb919061507d565b925084831015613e225760405162461bcd60e51b8152602060048201526002602482015261313560f01b604482015260640161069c565b50509392505050565b6060613e3a8484600085613e81565b90505b9392505050565b805115613e5357805181602001fd5b60405162461bcd60e51b815260206004820152600360248201526231313760e81b604482015260640161069c565b606082471015613ee25760405162461bcd60e51b815260206004820152602660248201527f416464726573733a20696e73756666696369656e742062616c616e636520666f6044820152651c8818d85b1b60d21b606482015260840161069c565b843b613f305760405162461bcd60e51b815260206004820152601d60248201527f416464726573733a2063616c6c20746f206e6f6e2d636f6e7472616374000000604482015260640161069c565b600080866001600160a01b03168587604051613f4c919061513d565b60006040518083038185875af1925050503d8060008114613f89576040519150601f19603f3d011682016040523d82523d6000602084013e613f8e565b606091505b5091509150613f9e828286613fa9565b979650505050505050565b60608315613fb8575081613e3d565b825115613fc85782518084602001fd5b8160405162461bcd60e51b815260040161069c91906151a0565b60408051608081018252600080825260208201819052918101829052606081019190915290565b604051806101400160405280600a906020820280368337509192915050565b803561403381615542565b919050565b60008083601f84011261404a57600080fd5b5081356001600160401b0381111561406157600080fd5b6020830191508360208260051b8501011115612c2557600080fd5b600082601f83011261408d57600080fd5b813560206140a261409d83615410565b6153e0565b80838252828201915082860187848660051b89010111156140c257600080fd5b60005b858110156140ea5781356140d881615542565b845292840192908401906001016140c5565b5090979650505050505050565b600082601f83011261410857600080fd5b8135602061411861409d83615410565b80838252828201915082860187848660051b890101111561413857600080fd5b6000805b8681101561416457823560098110614152578283fd5b8552938501939185019160010161413c565b509198975050505050505050565b600082601f83011261418357600080fd5b8135602061419361409d83615410565b80838252828201915082860187848660051b89010111156141b357600080fd5b60005b858110156140ea5781356001600160401b03808211156141d557600080fd5b90890190601f1960c0838d03820112156141ee57600080fd5b6141f6615351565b8884013561420381615542565b815260408481013561421481615542565b828b01526060858101358284015260808601359083015260a08501358481111561423d57600080fd5b8501603f81018f1361424e57600080fd5b8a810135858111156142625761426261552c565b6142728c86601f840116016153e0565b95508086528f8382840101111561428857600080fd5b808383018d88013760008c82880101525050508260808201526142ad60c085016144f8565b60a0820152875250505092840192908401906001016141b6565b600082601f8301126142d857600080fd5b813560206142e861409d83615410565b8281528181019085830160e08086028801850189101561430757600080fd5b60005b868110156141645781838b03121561432157600080fd5b614329615379565b833561433481615542565b81528387013561434381615542565b81880152604084810135908201526060808501359082015260808085013560ff8116811461437057600080fd5b9082015260a0848101359082015260c080850135908201528552938501939181019160010161430a565b600082601f8301126143ab57600080fd5b813560206143bb61409d83615410565b80838252828201915082860187848660061b89010111156143db57600080fd5b6000805b8681101561416457604080848c0312156143f7578283fd5b6143ff61539b565b843561440a81615542565b81528488013588820152865294860194909201916001016143df565b600082601f83011261443757600080fd5b8135602061444761409d83615410565b80838252828201915082860187848660051b890101111561446757600080fd5b60005b858110156140ea5781358452928401929084019060010161446a565b600082601f83011261449757600080fd5b815160206144a761409d83615410565b80838252828201915082860187848660051b89010111156144c757600080fd5b60005b858110156140ea576144db826145fe565b845292840192908401906001016144ca565b80356140338161555a565b80356002811061403357600080fd5b6000610100828403121561451a57600080fd5b6145226153bd565b82519091506001600160401b038082111561453c57600080fd5b61454885838601614486565b8352602084015191508082111561455e57600080fd5b61456a85838601614486565b6020840152604084015191508082111561458357600080fd5b61458f85838601614486565b604084015260608401519150808211156145a857600080fd5b506145b584828501614486565b6060830152506145c7608083016145fe565b60808201526145d860a083016145fe565b60a08201526145e960c083016145fe565b60c082015260e082015160e082015292915050565b80516001600160401b038116811461403357600080fd5b60006020828403121561462757600080fd5b8135613bf281615542565b60006020828403121561464457600080fd5b8151613bf281615542565b60008060006060848603121561466457600080fd5b833561466f81615542565b9250602084013561467f81615542565b9150604084013561468f8161555a565b809150509250925092565b600080604083850312156146ad57600080fd5b82356146b881615542565b946020939093013593505050565b600080600080600060a086880312156146de57600080fd5b85356146e981615542565b945060208601359350604086013561470081615542565b9250606086013561471081615542565b915060808601356147208161555a565b809150509295509295909350565b600080600080600080600060e0888a03121561474957600080fd5b61475288614028565b96506020880135955060408801356001600160401b038082111561477557600080fd5b6147818b838c0161407c565b965060608a013591508082111561479757600080fd5b6147a38b838c01614426565b95506147b160808b016144ed565b945060a08a01359150808211156147c757600080fd5b6147d38b838c0161407c565b935060c08a01359150808211156147e957600080fd5b506147f68a828b0161407c565b91505092959891949750929550565b600080600080600080600060e0888a03121561482057600080fd5b873561482b81615542565b96506020880135955060408801356148428161555a565b9450606088013561485281615542565b9350608088013561486281615542565b925060a088013561487281615542565b915060c088013561488281615542565b8091505092959891949750929550565b600080600080600080600060e0888a0312156148ad57600080fd5b87356148b881615542565b9650602088013595506040880135945060608801356148528161555a565b600080600080600080600080610100898b0312156148f357600080fd5b88356148fe81615542565b97506020890135965060408901359550606089013594506080890135935060a089013561492a8161555a565b925060c089013561493a81615542565b915060e089013561494a81615542565b809150509295985092959890939650565b600080600080600080600080600060e08a8c03121561497957600080fd5b893561498481615542565b985060208a013561499481615542565b975060408a01356149a481615542565b965060608a01356149b481615542565b955060808a01356149c481615542565b945060a08a01356001600160401b03808211156149e057600080fd5b6149ec8d838e01614038565b909650945060c08c0135915080821115614a0557600080fd5b50614a128c828d01614038565b915080935050809150509295985092959850929598565b600080600060608486031215614a3e57600080fd5b8335614a4981615542565b92506020840135614a5981615542565b929592945050506040919091013590565b60008060008060808587031215614a8057600080fd5b8435614a8b81615542565b935060208501356001600160401b0380821115614aa757600080fd5b614ab38883890161407c565b94506040870135915080821115614ac957600080fd5b614ad588838901614426565b93506060870135915080821115614aeb57600080fd5b50614af88782880161407c565b91505092959194509250565b600080600080600060a08688031215614b1c57600080fd5b8535614b2781615542565b945060208601356001600160401b0380821115614b4357600080fd5b614b4f89838a0161407c565b95506040880135915080821115614b6557600080fd5b614b7189838a01614426565b94506060880135915080821115614b8757600080fd5b614b9389838a0161407c565b93506080880135915080821115614ba957600080fd5b50614bb68882890161407c565b9150509295509295909350565b60008060408385031215614bd657600080fd5b8235614be181615542565b91506020830135614bf18161555a565b809150509250929050565b60008060008060808587031215614c1257600080fd5b8435614c1d81615542565b9350602085013592506040850135614c3481615542565b91506060850135614c4481615542565b939692955090935050565b60008060008060008060c08789031215614c6857600080fd5b8635614c7381615542565b9550602087013594506040870135614c8a81615542565b93506060870135614c9a81615542565b92506080870135614caa81615542565b915060a0870135614cba81615542565b809150509295509295509295565b600080600080600060a08688031215614ce057600080fd5b8535614ceb81615542565b9450602086013593506040860135614d0281615542565b92506060860135614d128161555a565b9150608086013561472081615542565b600080600080600060a08688031215614d3a57600080fd5b8535614d4581615542565b945060208601359350604086013592506060860135614d1281615542565b60008060008060008060c08789031215614d7c57600080fd5b8635614d8781615542565b955060208701359450604087013593506060870135614c9a81615542565b60008060008060008060608789031215614dbe57600080fd5b86356001600160401b0380821115614dd557600080fd5b614de18a838b01614038565b90985096506020890135915080821115614dfa57600080fd5b614e068a838b01614038565b90965094506040890135915080821115614e1f57600080fd5b50614e2c89828a01614038565b979a9699509497509295939492505050565b60008060008060008060a08789031215614e5757600080fd5b86356001600160401b0380821115614e6e57600080fd5b614e7a8a838b016142c7565b97506020890135915080821115614e9057600080fd5b614e9c8a838b0161439a565b96506040890135915080821115614eb257600080fd5b614ebe8a838b01614172565b95506060890135915080821115614ed457600080fd5b614ee08a838b016140f7565b94506080890135915080821115614e1f57600080fd5b600060208284031215614f0857600080fd5b8151613bf28161555a565b6000806000806000806000806000898b03610200811215614f3357600080fd5b8a51614f3e81615542565b60208c0151909a50614f4f81615542565b60408c0151909950614f6081615542565b60608c0151909850614f7181615542565b8097505060808b0151955060a08b0151945060c08b015193506101008060df1983011215614f9e57600080fd5b614fa66153bd565b60e08d01518152908c015160208201526101208c015160408201526101408c015160608201529050614fdb6101608c016145fe565b6080820152614fed6101808c016145fe565b60a0820152614fff6101a08c016145fe565b60c08201526150116101c08c016145fe565b60e08201526101e08b01519092506001600160401b0381111561503357600080fd5b61503f8c828d01614507565b9150509295985092959850929598565b6000806040838503121561506257600080fd5b823561506d81615542565b91506020830135614bf181615542565b60006020828403121561508f57600080fd5b5051919050565b600080600080600060a086880312156150ae57600080fd5b8535945060208601356150c08161555a565b935060408601356150d081615542565b92506060860135614d1281615542565b600080600080600060a086880312156150f857600080fd5b853594506020860135935060408601356150d08161555a565b600081518084526151298160208601602086016154a3565b601f01601f19169290920160200192915050565b6000825161514f8184602087016154a3565b9190910192915050565b6001600160a01b0391909116815260200190565b6001600160a01b0392831681529116602082015260400190565b6001600160a01b03929092168252602082015260400190565b602081526000613e3d6020830184615111565b6020808252600190820152600360fc1b604082015260600190565b6020808252600390820152620c4c0d60ea1b604082015260600190565b602080825260029082015261343960f01b604082015260600190565b60208082526003908201526231313560e81b604082015260600190565b6020808252600390820152620c4c4d60ea1b604082015260600190565b602080825260029082015261032360f41b604082015260600190565b6020808252601f908201527f5265656e7472616e637947756172643a207265656e7472616e742063616c6c00604082015260600190565b602081526000825160a060208401526152b060c0840182615111565b905060018060a01b0360208501511660408401526040840151606084015260608401516080840152608084015160a08401528091505092915050565b9283526001600160a01b03918216602084015216604082015260600190565b6000808335601e1984360301811261532257600080fd5b8301803591506001600160401b0382111561533c57600080fd5b602001915036819003821315612c2557600080fd5b60405160c081016001600160401b03811182821017156153735761537361552c565b60405290565b60405160e081016001600160401b03811182821017156153735761537361552c565b604080519081016001600160401b03811182821017156153735761537361552c565b60405161010081016001600160401b03811182821017156153735761537361552c565b604051601f8201601f191681016001600160401b03811182821017156154085761540861552c565b604052919050565b60006001600160401b038211156154295761542961552c565b5060051b60200190565b60008219821115615446576154466154ea565b500190565b60008261546857634e487b7160e01b600052601260045260246000fd5b500490565b6000816000190483118215151615615487576154876154ea565b500290565b60008282101561549e5761549e6154ea565b500390565b60005b838110156154be5781810151838201526020016154a6565b838111156126715750506000910152565b60006000198214156154e3576154e36154ea565b5060010190565b634e487b7160e01b600052601160045260246000fd5b634e487b7160e01b600052602160045260246000fd5b634e487b7160e01b600052603260045260246000fd5b634e487b7160e01b600052604160045260246000fd5b6001600160a01b038116811461555757600080fd5b50565b801515811461555757600080fdfeb3c6ea40376b764923443dc6ded6f0af1b34f1109e2d22c4f499855d960eeeae00000000000000000000000031429d1856ad1377a8a0079410b297e1a9e214c2a26469706673582212208a21adfe9866eb89b8898fb4c371aeb9ce7ceee1524f55cdda215e77939502c164736f6c63430008070033"
}