{
  "address": "0x4B00103802Da5f51A9218010a1073Ea432165f13",
  "abi": [
    {
      "inputs": [
        {
          "internalType": "address[]",
          "name": "guardians",
          "type": "address[]"
        },
        {
          "internalType": "contract IAngleDistributor",
          "name": "distributor",
          "type": "address"
        }
      ],
      "stateMutability": "nonpayable",
      "type": "constructor"
    },
    {
      "anonymous": false,
      "inputs": [
        {
          "indexed": true,
          "internalType": "address",
          "name": "gauge",
          "type": "address"
        },
        {
          "indexed": true,
          "internalType": "address",
          "name": "recipient",
          "type": "address"
        },
        {
          "indexed": true,
          "internalType": "address",
          "name": "bridge",
          "type": "address"
        },
        {
          "indexed": false,
          "internalType": "enum AngleMiddleman.RecipientType",
          "name": "recipientType",
          "type": "uint8"
        }
      ],
      "name": "AddGauge",
      "type": "event"
    },
    {
      "anonymous": false,
      "inputs": [
        {
          "indexed": true,
          "internalType": "address",
          "name": "gauge",
          "type": "address"
        },
        {
          "indexed": true,
          "internalType": "address",
          "name": "recipient",
          "type": "address"
        },
        {
          "indexed": false,
          "internalType": "uint256",
          "name": "amount",
          "type": "uint256"
        }
      ],
      "name": "NotifyReward",
      "type": "event"
    },
    {
      "anonymous": false,
      "inputs": [
        {
          "indexed": true,
          "internalType": "address",
          "name": "tokenAddress",
          "type": "address"
        },
        {
          "indexed": true,
          "internalType": "address",
          "name": "to",
          "type": "address"
        },
        {
          "indexed": false,
          "internalType": "uint256",
          "name": "amount",
          "type": "uint256"
        }
      ],
      "name": "Recovered",
      "type": "event"
    },
    {
      "anonymous": false,
      "inputs": [
        {
          "indexed": true,
          "internalType": "address",
          "name": "gauge",
          "type": "address"
        }
      ],
      "name": "RemoveGauge",
      "type": "event"
    },
    {
      "anonymous": false,
      "inputs": [
        {
          "indexed": true,
          "internalType": "bytes32",
          "name": "role",
          "type": "bytes32"
        },
        {
          "indexed": true,
          "internalType": "bytes32",
          "name": "previousAdminRole",
          "type": "bytes32"
        },
        {
          "indexed": true,
          "internalType": "bytes32",
          "name": "newAdminRole",
          "type": "bytes32"
        }
      ],
      "name": "RoleAdminChanged",
      "type": "event"
    },
    {
      "anonymous": false,
      "inputs": [
        {
          "indexed": true,
          "internalType": "bytes32",
          "name": "role",
          "type": "bytes32"
        },
        {
          "indexed": true,
          "internalType": "address",
          "name": "account",
          "type": "address"
        },
        {
          "indexed": true,
          "internalType": "address",
          "name": "sender",
          "type": "address"
        }
      ],
      "name": "RoleGranted",
      "type": "event"
    },
    {
      "anonymous": false,
      "inputs": [
        {
          "indexed": true,
          "internalType": "bytes32",
          "name": "role",
          "type": "bytes32"
        },
        {
          "indexed": true,
          "internalType": "address",
          "name": "account",
          "type": "address"
        },
        {
          "indexed": true,
          "internalType": "address",
          "name": "sender",
          "type": "address"
        }
      ],
      "name": "RoleRevoked",
      "type": "event"
    },
    {
      "inputs": [],
      "name": "DEFAULT_ADMIN_ROLE",
      "outputs": [
        {
          "internalType": "bytes32",
          "name": "",
          "type": "bytes32"
        }
      ],
      "stateMutability": "view",
      "type": "function"
    },
    {
      "inputs": [],
      "name": "DISTRIBUTOR_ROLE",
      "outputs": [
        {
          "internalType": "bytes32",
          "name": "",
          "type": "bytes32"
        }
      ],
      "stateMutability": "view",
      "type": "function"
    },
    {
      "inputs": [],
      "name": "GUARDIAN_ROLE",
      "outputs": [
        {
          "internalType": "bytes32",
          "name": "",
          "type": "bytes32"
        }
      ],
      "stateMutability": "view",
      "type": "function"
    },
    {
      "inputs": [
        {
          "internalType": "address[]",
          "name": "gauges",
          "type": "address[]"
        },
        {
          "internalType": "address[]",
          "name": "recipients",
          "type": "address[]"
        },
        {
          "internalType": "address[]",
          "name": "bridges",
          "type": "address[]"
        },
        {
          "internalType": "enum AngleMiddleman.RecipientType[]",
          "name": "recipientType",
          "type": "uint8[]"
        }
      ],
      "name": "addGauges",
      "outputs": [],
      "stateMutability": "nonpayable",
      "type": "function"
    },
    {
      "inputs": [
        {
          "internalType": "address",
          "name": "spender",
          "type": "address"
        },
        {
          "internalType": "uint256",
          "name": "approvedAmount",
          "type": "uint256"
        }
      ],
      "name": "changeAllowance",
      "outputs": [],
      "stateMutability": "nonpayable",
      "type": "function"
    },
    {
      "inputs": [
        {
          "internalType": "address",
          "name": "",
          "type": "address"
        }
      ],
      "name": "gaugeToRecipient",
      "outputs": [
        {
          "internalType": "address",
          "name": "recipient",
          "type": "address"
        },
        {
          "internalType": "address",
          "name": "bridge",
          "type": "address"
        },
        {
          "internalType": "enum AngleMiddleman.RecipientType",
          "name": "recipientType",
          "type": "uint8"
        }
      ],
      "stateMutability": "view",
      "type": "function"
    },
    {
      "inputs": [
        {
          "internalType": "bytes32",
          "name": "role",
          "type": "bytes32"
        }
      ],
      "name": "getRoleAdmin",
      "outputs": [
        {
          "internalType": "bytes32",
          "name": "",
          "type": "bytes32"
        }
      ],
      "stateMutability": "view",
      "type": "function"
    },
    {
      "inputs": [
        {
          "internalType": "bytes32",
          "name": "role",
          "type": "bytes32"
        },
        {
          "internalType": "address",
          "name": "account",
          "type": "address"
        }
      ],
      "name": "grantRole",
      "outputs": [],
      "stateMutability": "nonpayable",
      "type": "function"
    },
    {
      "inputs": [
        {
          "internalType": "bytes32",
          "name": "role",
          "type": "bytes32"
        },
        {
          "internalType": "address",
          "name": "account",
          "type": "address"
        }
      ],
      "name": "hasRole",
      "outputs": [
        {
          "internalType": "bool",
          "name": "",
          "type": "bool"
        }
      ],
      "stateMutability": "view",
      "type": "function"
    },
    {
      "inputs": [
        {
          "internalType": "address",
          "name": "gauge",
          "type": "address"
        },
        {
          "internalType": "uint256",
          "name": "amount",
          "type": "uint256"
        }
      ],
      "name": "notifyReward",
      "outputs": [],
      "stateMutability": "nonpayable",
      "type": "function"
    },
    {
      "inputs": [
        {
          "internalType": "address",
          "name": "token",
          "type": "address"
        },
        {
          "internalType": "address",
          "name": "to",
          "type": "address"
        },
        {
          "internalType": "uint256",
          "name": "amount",
          "type": "uint256"
        }
      ],
      "name": "recoverERC20",
      "outputs": [],
      "stateMutability": "nonpayable",
      "type": "function"
    },
    {
      "inputs": [
        {
          "internalType": "address",
          "name": "to",
          "type": "address"
        },
        {
          "internalType": "uint256",
          "name": "amount",
          "type": "uint256"
        }
      ],
      "name": "recoverETH",
      "outputs": [],
      "stateMutability": "nonpayable",
      "type": "function"
    },
    {
      "inputs": [
        {
          "internalType": "address",
          "name": "gauge",
          "type": "address"
        }
      ],
      "name": "removeGauge",
      "outputs": [],
      "stateMutability": "nonpayable",
      "type": "function"
    },
    {
      "inputs": [
        {
          "internalType": "bytes32",
          "name": "role",
          "type": "bytes32"
        },
        {
          "internalType": "address",
          "name": "account",
          "type": "address"
        }
      ],
      "name": "renounceRole",
      "outputs": [],
      "stateMutability": "nonpayable",
      "type": "function"
    },
    {
      "inputs": [
        {
          "internalType": "address",
          "name": "spender",
          "type": "address"
        }
      ],
      "name": "revokeApproval",
      "outputs": [],
      "stateMutability": "nonpayable",
      "type": "function"
    },
    {
      "inputs": [
        {
          "internalType": "bytes32",
          "name": "role",
          "type": "bytes32"
        },
        {
          "internalType": "address",
          "name": "account",
          "type": "address"
        }
      ],
      "name": "revokeRole",
      "outputs": [],
      "stateMutability": "nonpayable",
      "type": "function"
    },
    {
      "inputs": [],
      "name": "rewardToken",
      "outputs": [
        {
          "internalType": "contract IERC20",
          "name": "",
          "type": "address"
        }
      ],
      "stateMutability": "view",
      "type": "function"
    },
    {
      "inputs": [
        {
          "internalType": "bytes4",
          "name": "interfaceId",
          "type": "bytes4"
        }
      ],
      "name": "supportsInterface",
      "outputs": [
        {
          "internalType": "bool",
          "name": "",
          "type": "bool"
        }
      ],
      "stateMutability": "view",
      "type": "function"
    },
    {
      "stateMutability": "payable",
      "type": "receive"
    }
  ],
  "transactionHash": "0xa04d4d55b3fe6f5aa615edb8056b9fe7c20ff2e91d3ba56710cb5c47105f69c2",
  "args": [
    [
      "0xdC4e6DFe07EFCa50a197DF15D9200883eF4Eb1c8",
      "0x0C2553e4B9dFA9f83b1A6D3EAB96c4bAaB42d430"
    ],
    "0x4f91F01cE8ec07c9B1f6a82c18811848254917Ab"
  ],
  "solcInputHash": "088f348f6db3fa7bf7fad76c8389554d",
  "bytecode": "0x60a06040523480156200001157600080fd5b506040516200341e3803806200341e83398101604081905262000034916200036a565b6001600160a01b038116620000745760405162461bcd60e51b81526020600482015260016024820152600360fc1b60448201526064015b60405180910390fd5b6000825111620000ab5760405162461bcd60e51b81526020600482015260016024820152603560f81b60448201526064016200006b565b806001600160a01b031663f7c618c16040518163ffffffff1660e01b815260040160206040518083038186803b158015620000e557600080fd5b505afa158015620000fa573d6000803e3d6000fd5b505050506040513d601f19601f8201168201806040525081019062000120919062000457565b60601b6001600160601b03191660805260005b8251811015620001f45760006001600160a01b03168382815181106200015d576200015d620004a8565b60200260200101516001600160a01b03161415620001a25760405162461bcd60e51b81526020600482015260016024820152600360fc1b60448201526064016200006b565b620001df600080516020620033fe833981519152848381518110620001cb57620001cb620004a8565b60200260200101516200025d60201b60201c565b80620001eb816200047e565b91505062000133565b5062000210600080516020620033de833981519152826200025d565b6200023a600080516020620033de833981519152600080516020620033fe8339815191526200026d565b62000255600080516020620033fe833981519152806200026d565b5050620004ed565b620002698282620002b8565b5050565b600082815260208190526040808220600101805490849055905190918391839186917fbd79b86ffe0ab8e8776151514217cd7cacd52c909f66475c3af44e129f0b00ff9190a4505050565b6000828152602081815260408083206001600160a01b038516845290915290205460ff1662000269576000828152602081815260408083206001600160a01b03851684529091529020805460ff19166001179055620003143390565b6001600160a01b0316816001600160a01b0316837f2f8788117e7eff1d82e926ec794901d17c78024a50270940304540a733656f0d60405160405180910390a45050565b80516200036581620004d4565b919050565b600080604083850312156200037e57600080fd5b82516001600160401b03808211156200039657600080fd5b818501915085601f830112620003ab57600080fd5b8151602082821115620003c257620003c2620004be565b8160051b604051601f19603f83011681018181108682111715620003ea57620003ea620004be565b604052838152828101945085830182870184018b10156200040a57600080fd5b600096505b848710156200043857620004238162000358565b8652600196909601959483019483016200040f565b5096506200044a905087820162000358565b9450505050509250929050565b6000602082840312156200046a57600080fd5b81516200047781620004d4565b9392505050565b6000600019821415620004a157634e487b7160e01b600052601160045260246000fd5b5060010190565b634e487b7160e01b600052603260045260246000fd5b634e487b7160e01b600052604160045260246000fd5b6001600160a01b0381168114620004ea57600080fd5b50565b60805160601c612e856200055960003960008181610448015281816105a10152818161064c015281816106a501528181610c01015281816112aa0152818161139b0152818161143601528181611739015281816117f00152818161188d0152611f480152612e856000f3fe60806040526004361061012d5760003560e01c8063484685b0116100a5578063b31dd34011610074578063e324718011610059578063e3247180146103e2578063f0bd87cc14610402578063f7c618c11461043657600080fd5b8063b31dd340146103a2578063d547741f146103c257600080fd5b8063484685b0146102a25780637bd40db6146102c257806391d148541461033c578063a217fddf1461038d57600080fd5b806324ea54f4116100fc57806336568abe116100e157806336568abe146102425780633a045145146102625780633e0c06291461028257600080fd5b806324ea54f4146101ee5780632f2ff15d1461022257600080fd5b806301ffc9a714610139578063079a193b1461016e5780631171bda914610190578063248a9ca3146101b057600080fd5b3661013457005b600080fd5b34801561014557600080fd5b506101596101543660046129fc565b61048f565b60405190151581526020015b60405180910390f35b34801561017a57600080fd5b5061018e610189366004612837565b610528565b005b34801561019c57600080fd5b5061018e6101ab3660046127f6565b6106d2565b3480156101bc57600080fd5b506101e06101cb36600461299a565b60009081526020819052604090206001015490565b604051908152602001610165565b3480156101fa57600080fd5b506101e07f55435dd261a4b9b3364963f7738a7a662ad9c84396d64be3365284bb7f0a504181565b34801561022e57600080fd5b5061018e61023d3660046129cc565b61078b565b34801561024e57600080fd5b5061018e61025d3660046129cc565b6107b6565b34801561026e57600080fd5b5061018e61027d3660046127bc565b61086e565b34801561028e57600080fd5b5061018e61029d366004612837565b610aa6565b3480156102ae57600080fd5b5061018e6102bd3660046127bc565b610bbc565b3480156102ce57600080fd5b5061032d6102dd3660046127bc565b6001602081905260009182526040909120805491015473ffffffffffffffffffffffffffffffffffffffff9182169181169074010000000000000000000000000000000000000000900460ff1683565b60405161016593929190612ba2565b34801561034857600080fd5b506101596103573660046129cc565b60009182526020828152604080842073ffffffffffffffffffffffffffffffffffffffff93909316845291905290205460ff1690565b34801561039957600080fd5b506101e0600081565b3480156103ae57600080fd5b5061018e6103bd366004612863565b610c29565b3480156103ce57600080fd5b5061018e6103dd3660046129cc565b61157b565b3480156103ee57600080fd5b5061018e6103fd366004612837565b6115a1565b34801561040e57600080fd5b506101e07ffbd454f36a7e1a388bd6fc3ab10d434aa4578f811acbbcf33afb1c697486313c81565b34801561044257600080fd5b5061046a7f000000000000000000000000000000000000000000000000000000000000000081565b60405173ffffffffffffffffffffffffffffffffffffffff9091168152602001610165565b60007fffffffff0000000000000000000000000000000000000000000000000000000082167f7965db0b00000000000000000000000000000000000000000000000000000000148061052257507f01ffc9a7000000000000000000000000000000000000000000000000000000007fffffffff000000000000000000000000000000000000000000000000000000008316145b92915050565b7f55435dd261a4b9b3364963f7738a7a662ad9c84396d64be3365284bb7f0a50416105538133611917565b6040517fdd62ed3e00000000000000000000000000000000000000000000000000000000815230600482015273ffffffffffffffffffffffffffffffffffffffff84811660248301526000917f00000000000000000000000000000000000000000000000000000000000000009091169063dd62ed3e9060440160206040518083038186803b1580156105e557600080fd5b505afa1580156105f9573d6000803e3d6000fd5b505050506040513d601f19601f8201168201806040525081019061061d91906129b3565b90508281101561067857610673846106358386612cbd565b73ffffffffffffffffffffffffffffffffffffffff7f00000000000000000000000000000000000000000000000000000000000000001691906119e7565b6106cc565b828111156106cc576106cc8461068e8584612cbd565b73ffffffffffffffffffffffffffffffffffffffff7f0000000000000000000000000000000000000000000000000000000000000000169190611b72565b50505050565b7f55435dd261a4b9b3364963f7738a7a662ad9c84396d64be3365284bb7f0a50416106fd8133611917565b61071e73ffffffffffffffffffffffffffffffffffffffff85168484611d0e565b8273ffffffffffffffffffffffffffffffffffffffff168473ffffffffffffffffffffffffffffffffffffffff167ffff3b3844276f57024e0b42afec1a37f75db36511e43819a4f2a63ab7862b6488460405161077d91815260200190565b60405180910390a350505050565b6000828152602081905260409020600101546107a78133611917565b6107b18383611d64565b505050565b73ffffffffffffffffffffffffffffffffffffffff81163314610860576040517f08c379a000000000000000000000000000000000000000000000000000000000815260206004820152602f60248201527f416363657373436f6e74726f6c3a2063616e206f6e6c792072656e6f756e636560448201527f20726f6c657320666f722073656c66000000000000000000000000000000000060648201526084015b60405180910390fd5b61086a8282611e54565b5050565b7f55435dd261a4b9b3364963f7738a7a662ad9c84396d64be3365284bb7f0a50416108998133611917565b73ffffffffffffffffffffffffffffffffffffffff8281166000908152600160208181526040808420815160608101835281548716815293810154958616928401929092529293919290919083019074010000000000000000000000000000000000000000900460ff16600281111561091457610914612d9d565b600281111561092557610925612d9d565b905250805190915073ffffffffffffffffffffffffffffffffffffffff166109a9576040517f08c379a000000000000000000000000000000000000000000000000000000000815260206004820152600360248201527f31313000000000000000000000000000000000000000000000000000000000006044820152606401610857565b6000816040015160028111156109c1576109c1612d9d565b14156109d75780516109d290610bbc565b610a05565b6002816040015160028111156109ef576109ef612d9d565b1415610a0557610a056102bd8260200151611f0b565b73ffffffffffffffffffffffffffffffffffffffff8316600081815260016020819052604080832080547fffffffffffffffffffffffff000000000000000000000000000000000000000016815590910180547fffffffffffffffffffffff000000000000000000000000000000000000000000169055517fd8447e2a6ccc1f3caeea39fdaea6ca5c1c22a9ab79022d1e39a8c24f0736e5499190a2505050565b7f55435dd261a4b9b3364963f7738a7a662ad9c84396d64be3365284bb7f0a5041610ad18133611917565b60405173ffffffffffffffffffffffffffffffffffffffff84169083156108fc029084906000818181858888f19350505050610b69576040517f08c379a000000000000000000000000000000000000000000000000000000000815260206004820152600260248201527f39380000000000000000000000000000000000000000000000000000000000006044820152606401610857565b60405182815273ffffffffffffffffffffffffffffffffffffffff8416906000907ffff3b3844276f57024e0b42afec1a37f75db36511e43819a4f2a63ab7862b6489060200160405180910390a3505050565b7f55435dd261a4b9b3364963f7738a7a662ad9c84396d64be3365284bb7f0a5041610be78133611917565b61086a73ffffffffffffffffffffffffffffffffffffffff7f000000000000000000000000000000000000000000000000000000000000000016836000612077565b7f55435dd261a4b9b3364963f7738a7a662ad9c84396d64be3365284bb7f0a5041610c548133611917565b6000855111610cbf576040517f08c379a000000000000000000000000000000000000000000000000000000000815260206004820152600160248201527f35000000000000000000000000000000000000000000000000000000000000006044820152606401610857565b83518551148015610cd1575082518551145b8015610cde575081518551145b610d44576040517f08c379a000000000000000000000000000000000000000000000000000000000815260206004820152600360248201527f31303400000000000000000000000000000000000000000000000000000000006044820152606401610857565b60005b855181101561157357600073ffffffffffffffffffffffffffffffffffffffff16868281518110610d7a57610d7a612dcc565b602002602001015173ffffffffffffffffffffffffffffffffffffffff1614158015610dec5750600073ffffffffffffffffffffffffffffffffffffffff16858281518110610dcb57610dcb612dcc565b602002602001015173ffffffffffffffffffffffffffffffffffffffff1614155b610e52576040517f08c379a000000000000000000000000000000000000000000000000000000000815260206004820152600160248201527f30000000000000000000000000000000000000000000000000000000000000006044820152606401610857565b6000838281518110610e6657610e66612dcc565b60200260200101516002811115610e7f57610e7f612d9d565b1415610f3457600073ffffffffffffffffffffffffffffffffffffffff16848281518110610eaf57610eaf612dcc565b602002602001015173ffffffffffffffffffffffffffffffffffffffff1614610f34576040517f08c379a000000000000000000000000000000000000000000000000000000000815260206004820152600360248201527f31313300000000000000000000000000000000000000000000000000000000006044820152606401610857565b6002838281518110610f4857610f48612dcc565b60200260200101516002811115610f6157610f61612d9d565b1480610f9757506001838281518110610f7c57610f7c612dcc565b60200260200101516002811115610f9557610f95612d9d565b145b1561104c57600073ffffffffffffffffffffffffffffffffffffffff16848281518110610fc657610fc6612dcc565b602002602001015173ffffffffffffffffffffffffffffffffffffffff16141561104c576040517f08c379a000000000000000000000000000000000000000000000000000000000815260206004820152600160248201527f30000000000000000000000000000000000000000000000000000000000000006044820152606401610857565b60006001600088848151811061106457611064612dcc565b60209081029190910181015173ffffffffffffffffffffffffffffffffffffffff90811683529082019290925260400160002080549092501615611104576040517f08c379a000000000000000000000000000000000000000000000000000000000815260206004820152600360248201527f31313200000000000000000000000000000000000000000000000000000000006044820152606401610857565b85828151811061111657611116612dcc565b602090810291909101015181547fffffffffffffffffffffffff00000000000000000000000000000000000000001673ffffffffffffffffffffffffffffffffffffffff909116178155835184908390811061117457611174612dcc565b60209081029190910101516001820180547fffffffffffffffffffffff00ffffffffffffffffffffffffffffffffffffffff16740100000000000000000000000000000000000000008360028111156111cf576111cf612d9d565b02179055508482815181106111e6576111e6612dcc565b60209081029190910101516001820180547fffffffffffffffffffffffff00000000000000000000000000000000000000001673ffffffffffffffffffffffffffffffffffffffff909216919091179055600084838151811061124b5761124b612dcc565b6020026020010151600281111561126457611264612d9d565b14156112f3576112ee86838151811061127f5761127f612dcc565b60200260200101517fffffffffffffffffffffffffffffffffffffffffffffffffffffffffffffffff7f000000000000000000000000000000000000000000000000000000000000000073ffffffffffffffffffffffffffffffffffffffff166120779092919063ffffffff16565b611480565b600284838151811061130757611307612dcc565b6020026020010151600281111561132057611320612d9d565b141561148057600061134a86848151811061133d5761133d612dcc565b6020026020010151611f0b565b6040517fdd62ed3e00000000000000000000000000000000000000000000000000000000815230600482015273ffffffffffffffffffffffffffffffffffffffff80831660248301529192506000917f0000000000000000000000000000000000000000000000000000000000000000169063dd62ed3e9060440160206040518083038186803b1580156113dd57600080fd5b505afa1580156113f1573d6000803e3d6000fd5b505050506040513d601f19601f8201168201806040525081019061141591906129b3565b90508061147d5761147d73ffffffffffffffffffffffffffffffffffffffff7f000000000000000000000000000000000000000000000000000000000000000016837fffffffffffffffffffffffffffffffffffffffffffffffffffffffffffffffff612077565b50505b84828151811061149257611492612dcc565b602002602001015173ffffffffffffffffffffffffffffffffffffffff168683815181106114c2576114c2612dcc565b602002602001015173ffffffffffffffffffffffffffffffffffffffff168884815181106114f2576114f2612dcc565b602002602001015173ffffffffffffffffffffffffffffffffffffffff167f76cc700fdcf22aabf7a1727d361771f174d4b9a9e93b3c91bddf783ab81493d887868151811061154357611543612dcc565b60200260200101516040516115589190612bd4565b60405180910390a4508061156b81612d35565b915050610d47565b505050505050565b6000828152602081905260409020600101546115978133611917565b6107b18383611e54565b7ffbd454f36a7e1a388bd6fc3ab10d434aa4578f811acbbcf33afb1c697486313c6115cc8133611917565b73ffffffffffffffffffffffffffffffffffffffff8381166000908152600160208181526040808420815160608101835281548716815293810154958616928401929092529293919290919083019074010000000000000000000000000000000000000000900460ff16600281111561164757611647612d9d565b600281111561165857611658612d9d565b905250805190915073ffffffffffffffffffffffffffffffffffffffff166116dc576040517f08c379a000000000000000000000000000000000000000000000000000000000815260206004820152600360248201527f31313000000000000000000000000000000000000000000000000000000000006044820152606401610857565b6000816040015160028111156116f4576116f4612d9d565b14156117ab5780516040517f93f7aa6700000000000000000000000000000000000000000000000000000000815273ffffffffffffffffffffffffffffffffffffffff7f00000000000000000000000000000000000000000000000000000000000000008116600483015260248201869052909116906393f7aa67906044015b600060405180830381600087803b15801561178e57600080fd5b505af11580156117a2573d6000803e3d6000fd5b505050506118b4565b6002816040015160028111156117c3576117c3612d9d565b141561184f57806020015173ffffffffffffffffffffffffffffffffffffffff1663e3dec8fb82600001517f00000000000000000000000000000000000000000000000000000000000000008660405160200161182291815260200190565b6040516020818303038152906040526040518463ffffffff1660e01b815260040161177493929190612b60565b60018160400151600281111561186757611867612d9d565b14156118b45760208101516118b49073ffffffffffffffffffffffffffffffffffffffff7f0000000000000000000000000000000000000000000000000000000000000000169085611d0e565b806000015173ffffffffffffffffffffffffffffffffffffffff168473ffffffffffffffffffffffffffffffffffffffff167ff70d5c697de7ea828df48e5c4573cb2194c659f1901f70110c52b066dcf508268560405161077d91815260200190565b60008281526020818152604080832073ffffffffffffffffffffffffffffffffffffffff8516845290915290205460ff1661086a5761196d8173ffffffffffffffffffffffffffffffffffffffff166014612208565b611978836020612208565b604051602001611989929190612adf565b604080517fffffffffffffffffffffffffffffffffffffffffffffffffffffffffffffffe0818403018152908290527f08c379a000000000000000000000000000000000000000000000000000000000825261085791600401612be2565b6040517fdd62ed3e00000000000000000000000000000000000000000000000000000000815230600482015273ffffffffffffffffffffffffffffffffffffffff8381166024830152600091839186169063dd62ed3e9060440160206040518083038186803b158015611a5957600080fd5b505afa158015611a6d573d6000803e3d6000fd5b505050506040513d601f19601f82011682018060405250810190611a9191906129b3565b611a9b9190612c68565b60405173ffffffffffffffffffffffffffffffffffffffff85166024820152604481018290529091506106cc9085907f095ea7b300000000000000000000000000000000000000000000000000000000906064015b604080517fffffffffffffffffffffffffffffffffffffffffffffffffffffffffffffffe08184030181529190526020810180517bffffffffffffffffffffffffffffffffffffffffffffffffffffffff167fffffffff000000000000000000000000000000000000000000000000000000009093169290921790915261244b565b6040517fdd62ed3e00000000000000000000000000000000000000000000000000000000815230600482015273ffffffffffffffffffffffffffffffffffffffff83811660248301526000919085169063dd62ed3e9060440160206040518083038186803b158015611be357600080fd5b505afa158015611bf7573d6000803e3d6000fd5b505050506040513d601f19601f82011682018060405250810190611c1b91906129b3565b905081811015611cad576040517f08c379a000000000000000000000000000000000000000000000000000000000815260206004820152602960248201527f5361666545524332303a2064656372656173656420616c6c6f77616e6365206260448201527f656c6f77207a65726f00000000000000000000000000000000000000000000006064820152608401610857565b60405173ffffffffffffffffffffffffffffffffffffffff841660248201528282036044820181905290611d079086907f095ea7b30000000000000000000000000000000000000000000000000000000090606401611af0565b5050505050565b60405173ffffffffffffffffffffffffffffffffffffffff83166024820152604481018290526107b19084907fa9059cbb0000000000000000000000000000000000000000000000000000000090606401611af0565b60008281526020818152604080832073ffffffffffffffffffffffffffffffffffffffff8516845290915290205460ff1661086a5760008281526020818152604080832073ffffffffffffffffffffffffffffffffffffffff85168452909152902080547fffffffffffffffffffffffffffffffffffffffffffffffffffffffffffffff00166001179055611df63390565b73ffffffffffffffffffffffffffffffffffffffff168173ffffffffffffffffffffffffffffffffffffffff16837f2f8788117e7eff1d82e926ec794901d17c78024a50270940304540a733656f0d60405160405180910390a45050565b60008281526020818152604080832073ffffffffffffffffffffffffffffffffffffffff8516845290915290205460ff161561086a5760008281526020818152604080832073ffffffffffffffffffffffffffffffffffffffff8516808552925280832080547fffffffffffffffffffffffffffffffffffffffffffffffffffffffffffffff0016905551339285917ff6391f5c32d9c69d2a47ea670b442974b53935d1edc7fd64eb21e047a839171b9190a45050565b6040517fe43009a600000000000000000000000000000000000000000000000000000000815273ffffffffffffffffffffffffffffffffffffffff7f000000000000000000000000000000000000000000000000000000000000000081166004830152600091829184169063e43009a69060240160206040518083038186803b158015611f9757600080fd5b505afa158015611fab573d6000803e3d6000fd5b505050506040513d601f19601f82011682018060405250810190611fcf91906129b3565b6040517fe66f96030000000000000000000000000000000000000000000000000000000081526004810182905290915073ffffffffffffffffffffffffffffffffffffffff84169063e66f96039060240160206040518083038186803b15801561203857600080fd5b505afa15801561204c573d6000803e3d6000fd5b505050506040513d601f19601f8201168201806040525081019061207091906127d9565b9392505050565b80158061212657506040517fdd62ed3e00000000000000000000000000000000000000000000000000000000815230600482015273ffffffffffffffffffffffffffffffffffffffff838116602483015284169063dd62ed3e9060440160206040518083038186803b1580156120ec57600080fd5b505afa158015612100573d6000803e3d6000fd5b505050506040513d601f19601f8201168201806040525081019061212491906129b3565b155b6121b2576040517f08c379a000000000000000000000000000000000000000000000000000000000815260206004820152603660248201527f5361666545524332303a20617070726f76652066726f6d206e6f6e2d7a65726f60448201527f20746f206e6f6e2d7a65726f20616c6c6f77616e6365000000000000000000006064820152608401610857565b60405173ffffffffffffffffffffffffffffffffffffffff83166024820152604481018290526107b19084907f095ea7b30000000000000000000000000000000000000000000000000000000090606401611af0565b60606000612217836002612c80565b612222906002612c68565b67ffffffffffffffff81111561223a5761223a612dfb565b6040519080825280601f01601f191660200182016040528015612264576020820181803683370190505b5090507f30000000000000000000000000000000000000000000000000000000000000008160008151811061229b5761229b612dcc565b60200101907effffffffffffffffffffffffffffffffffffffffffffffffffffffffffffff1916908160001a9053507f7800000000000000000000000000000000000000000000000000000000000000816001815181106122fe576122fe612dcc565b60200101907effffffffffffffffffffffffffffffffffffffffffffffffffffffffffffff1916908160001a905350600061233a846002612c80565b612345906001612c68565b90505b60018111156123e2577f303132333435363738396162636465660000000000000000000000000000000085600f166010811061238657612386612dcc565b1a60f81b82828151811061239c5761239c612dcc565b60200101907effffffffffffffffffffffffffffffffffffffffffffffffffffffffffffff1916908160001a90535060049490941c936123db81612d00565b9050612348565b508315612070576040517f08c379a000000000000000000000000000000000000000000000000000000000815260206004820181905260248201527f537472696e67733a20686578206c656e67746820696e73756666696369656e746044820152606401610857565b60006124ad826040518060400160405280602081526020017f5361666545524332303a206c6f772d6c6576656c2063616c6c206661696c65648152508573ffffffffffffffffffffffffffffffffffffffff166125579092919063ffffffff16565b8051909150156107b157808060200190518101906124cb9190612978565b6107b1576040517f08c379a000000000000000000000000000000000000000000000000000000000815260206004820152602a60248201527f5361666545524332303a204552433230206f7065726174696f6e20646964206e60448201527f6f742073756363656564000000000000000000000000000000000000000000006064820152608401610857565b6060612566848460008561256e565b949350505050565b606082471015612600576040517f08c379a000000000000000000000000000000000000000000000000000000000815260206004820152602660248201527f416464726573733a20696e73756666696369656e742062616c616e636520666f60448201527f722063616c6c00000000000000000000000000000000000000000000000000006064820152608401610857565b843b612668576040517f08c379a000000000000000000000000000000000000000000000000000000000815260206004820152601d60248201527f416464726573733a2063616c6c20746f206e6f6e2d636f6e74726163740000006044820152606401610857565b6000808673ffffffffffffffffffffffffffffffffffffffff1685876040516126919190612ac3565b60006040518083038185875af1925050503d80600081146126ce576040519150601f19603f3d011682016040523d82523d6000602084013e6126d3565b606091505b50915091506126e38282866126ee565b979650505050505050565b606083156126fd575081612070565b82511561270d5782518084602001fd5b816040517f08c379a00000000000000000000000000000000000000000000000000000000081526004016108579190612be2565b600082601f83011261275257600080fd5b8135602061276761276283612c44565b612bf5565b80838252828201915082860187848660051b890101111561278757600080fd5b60005b858110156127af57813561279d81612e2a565b8452928401929084019060010161278a565b5090979650505050505050565b6000602082840312156127ce57600080fd5b813561207081612e2a565b6000602082840312156127eb57600080fd5b815161207081612e2a565b60008060006060848603121561280b57600080fd5b833561281681612e2a565b9250602084013561282681612e2a565b929592945050506040919091013590565b6000806040838503121561284a57600080fd5b823561285581612e2a565b946020939093013593505050565b6000806000806080858703121561287957600080fd5b843567ffffffffffffffff8082111561289157600080fd5b61289d88838901612741565b95506020915081870135818111156128b457600080fd5b6128c089828a01612741565b9550506040870135818111156128d557600080fd5b6128e189828a01612741565b9450506060870135818111156128f657600080fd5b87019050601f8101881361290957600080fd5b803561291761276282612c44565b8082825284820191508484018b868560051b870101111561293757600080fd5b60009450845b8481101561296557813560038110612953578687fd5b8452928601929086019060010161293d565b5050809550505050505092959194509250565b60006020828403121561298a57600080fd5b8151801515811461207057600080fd5b6000602082840312156129ac57600080fd5b5035919050565b6000602082840312156129c557600080fd5b5051919050565b600080604083850312156129df57600080fd5b8235915060208301356129f181612e2a565b809150509250929050565b600060208284031215612a0e57600080fd5b81357fffffffff000000000000000000000000000000000000000000000000000000008116811461207057600080fd5b60008151808452612a56816020860160208601612cd4565b601f017fffffffffffffffffffffffffffffffffffffffffffffffffffffffffffffffe0169290920160200192915050565b60038110612abf577f4e487b7100000000000000000000000000000000000000000000000000000000600052602160045260246000fd5b9052565b60008251612ad5818460208701612cd4565b9190910192915050565b7f416363657373436f6e74726f6c3a206163636f756e7420000000000000000000815260008351612b17816017850160208801612cd4565b7f206973206d697373696e6720726f6c65200000000000000000000000000000006017918401918201528351612b54816028840160208801612cd4565b01602801949350505050565b600073ffffffffffffffffffffffffffffffffffffffff808616835280851660208401525060606040830152612b996060830184612a3e565b95945050505050565b73ffffffffffffffffffffffffffffffffffffffff848116825283166020820152606081016125666040830184612a88565b602081016105228284612a88565b6020815260006120706020830184612a3e565b604051601f82017fffffffffffffffffffffffffffffffffffffffffffffffffffffffffffffffe016810167ffffffffffffffff81118282101715612c3c57612c3c612dfb565b604052919050565b600067ffffffffffffffff821115612c5e57612c5e612dfb565b5060051b60200190565b60008219821115612c7b57612c7b612d6e565b500190565b6000817fffffffffffffffffffffffffffffffffffffffffffffffffffffffffffffffff0483118215151615612cb857612cb8612d6e565b500290565b600082821015612ccf57612ccf612d6e565b500390565b60005b83811015612cef578181015183820152602001612cd7565b838111156106cc5750506000910152565b600081612d0f57612d0f612d6e565b507fffffffffffffffffffffffffffffffffffffffffffffffffffffffffffffffff0190565b60007fffffffffffffffffffffffffffffffffffffffffffffffffffffffffffffffff821415612d6757612d67612d6e565b5060010190565b7f4e487b7100000000000000000000000000000000000000000000000000000000600052601160045260246000fd5b7f4e487b7100000000000000000000000000000000000000000000000000000000600052602160045260246000fd5b7f4e487b7100000000000000000000000000000000000000000000000000000000600052603260045260246000fd5b7f4e487b7100000000000000000000000000000000000000000000000000000000600052604160045260246000fd5b73ffffffffffffffffffffffffffffffffffffffff81168114612e4c57600080fd5b5056fea264697066735822122011206b2d3136001962c49df6b78a09f0c2e32efe01b34e75bd0e24f97f59f17e64736f6c63430008070033fbd454f36a7e1a388bd6fc3ab10d434aa4578f811acbbcf33afb1c697486313c55435dd261a4b9b3364963f7738a7a662ad9c84396d64be3365284bb7f0a5041",
  "devdoc": {
    "kind": "dev",
    "methods": {
      "addGauges(address[],address[],address[],uint8[])": {
        "details": "Addresses of gauges within the Angle Protocol corresponding to Curve pools or multichain staking contracts are identifiers to be used only for voting purposes.This is the reason we map them to the \"real\" `recipient` contract",
        "params": {
          "bridges": "Array of addresses of the bridging contracts",
          "gauges": "Array of gauges, as defined in `AngleDistributor`",
          "recipientType": "Curve, Polygon or Anyswap",
          "recipients": "Array of addresses ultimately meant to receive the tokens"
        }
      },
      "changeAllowance(address,uint256)": {
        "params": {
          "approvedAmount": "Amount that we want to approve",
          "spender": "Address of the contract that was approved"
        }
      },
      "constructor": {
        "params": {
          "distributor": "address of `AngleDistributor`. Notifies the contract that new rewards should be distributed",
          "guardians": "array of address of admins for this contract. Guardians are allowed to add new gauges or remove them, and recover tokens from the contract"
        }
      },
      "getRoleAdmin(bytes32)": {
        "details": "Returns the admin role that controls `role`. See {grantRole} and {revokeRole}. To change a role's admin, use {_setRoleAdmin}."
      },
      "grantRole(bytes32,address)": {
        "details": "Grants `role` to `account`. If `account` had not been already granted `role`, emits a {RoleGranted} event. Requirements: - the caller must have ``role``'s admin role."
      },
      "hasRole(bytes32,address)": {
        "details": "Returns `true` if `account` has been granted `role`."
      },
      "notifyReward(address,uint256)": {
        "params": {
          "amount": "Amount of tokens to be sent",
          "gauge": "Address of the gauge, as defined in `AngleDistributor`"
        }
      },
      "recoverERC20(address,address,uint256)": {
        "params": {
          "amount": "Amount to be recovered",
          "token": "Address of the token"
        }
      },
      "recoverETH(address,uint256)": {
        "params": {
          "amount": "Amount to be recovered"
        }
      },
      "removeGauge(address)": {
        "params": {
          "gauge": "Address of the gauge (found in `AngleDistributor`)"
        }
      },
      "renounceRole(bytes32,address)": {
        "details": "Revokes `role` from the calling account. Roles are often managed via {grantRole} and {revokeRole}: this function's purpose is to provide a mechanism for accounts to lose their privileges if they are compromised (such as when a trusted device is misplaced). If the calling account had been granted `role`, emits a {RoleRevoked} event. Requirements: - the caller must be `account`."
      },
      "revokeApproval(address)": {
        "params": {
          "spender": "Address of the contract that was approved"
        }
      },
      "revokeRole(bytes32,address)": {
        "details": "Revokes `role` from `account`. If `account` had been granted `role`, emits a {RoleRevoked} event. Requirements: - the caller must have ``role``'s admin role."
      },
      "supportsInterface(bytes4)": {
        "details": "See {IERC165-supportsInterface}."
      }
    },
    "version": 1
  },
  "userdoc": {
    "kind": "user",
    "methods": {
      "addGauges(address[],address[],address[],uint8[])": {
        "notice": "Allows the Governor to add new gauges of type \"Curve\""
      },
      "changeAllowance(address,uint256)": {
        "notice": "Ability to change allowance for a contract. Approvals are given in the `addGauges` methods"
      },
      "constructor": {
        "notice": "Deploys `AngleMiddleman` used to route reward tokens (ANGLE) from `AngleDistributor` to gauges"
      },
      "gaugeToRecipient(address)": {
        "notice": "Maps a gauge address (as defined in `AngleDistributor`) to its parameters"
      },
      "notifyReward(address,uint256)": {
        "notice": "Sends the tokens to the recipient contract using the appropriate method (direct transfer or bridging)"
      },
      "recoverERC20(address,address,uint256)": {
        "notice": "Recovers ERC20 tokens from the contract"
      },
      "recoverETH(address,uint256)": {
        "notice": "Recovers ETH from the contract"
      },
      "removeGauge(address)": {
        "notice": "Deletes a gauge. Removes the parameters from `gaugeToRecipient` and revokes approvals"
      },
      "revokeApproval(address)": {
        "notice": "Ability to revoke approval for a contract. Approvals are given in the `addGauges` methods"
      },
      "rewardToken()": {
        "notice": "Most likely ANGLE token (currently: 0x31429d1856aD1377A8A0079410B297e1a9e214c2)"
      }
    },
    "version": 1
  },
  "storageLayout": {
    "storage": [
      {
        "astId": 7001,
        "contract": "contracts/middleman/AngleMiddleman.sol:AngleMiddleman",
        "label": "_roles",
        "offset": 0,
        "slot": "0",
        "type": "t_mapping(t_bytes32,t_struct(RoleData)6996_storage)"
      },
      {
        "astId": 24230,
        "contract": "contracts/middleman/AngleMiddleman.sol:AngleMiddleman",
        "label": "gaugeToRecipient",
        "offset": 0,
        "slot": "1",
        "type": "t_mapping(t_address,t_struct(Recipient)24210_storage)"
      }
    ],
    "types": {
      "t_address": {
        "encoding": "inplace",
        "label": "address",
        "numberOfBytes": "20"
      },
      "t_bool": {
        "encoding": "inplace",
        "label": "bool",
        "numberOfBytes": "1"
      },
      "t_bytes32": {
        "encoding": "inplace",
        "label": "bytes32",
        "numberOfBytes": "32"
      },
      "t_enum(RecipientType)24202": {
        "encoding": "inplace",
        "label": "enum AngleMiddleman.RecipientType",
        "numberOfBytes": "1"
      },
      "t_mapping(t_address,t_bool)": {
        "encoding": "mapping",
        "key": "t_address",
        "label": "mapping(address => bool)",
        "numberOfBytes": "32",
        "value": "t_bool"
      },
      "t_mapping(t_address,t_struct(Recipient)24210_storage)": {
        "encoding": "mapping",
        "key": "t_address",
        "label": "mapping(address => struct AngleMiddleman.Recipient)",
        "numberOfBytes": "32",
        "value": "t_struct(Recipient)24210_storage"
      },
      "t_mapping(t_bytes32,t_struct(RoleData)6996_storage)": {
        "encoding": "mapping",
        "key": "t_bytes32",
        "label": "mapping(bytes32 => struct AccessControl.RoleData)",
        "numberOfBytes": "32",
        "value": "t_struct(RoleData)6996_storage"
      },
      "t_struct(Recipient)24210_storage": {
        "encoding": "inplace",
        "label": "struct AngleMiddleman.Recipient",
        "members": [
          {
            "astId": 24204,
            "contract": "contracts/middleman/AngleMiddleman.sol:AngleMiddleman",
            "label": "recipient",
            "offset": 0,
            "slot": "0",
            "type": "t_address"
          },
          {
            "astId": 24206,
            "contract": "contracts/middleman/AngleMiddleman.sol:AngleMiddleman",
            "label": "bridge",
            "offset": 0,
            "slot": "1",
            "type": "t_address"
          },
          {
            "astId": 24209,
            "contract": "contracts/middleman/AngleMiddleman.sol:AngleMiddleman",
            "label": "recipientType",
            "offset": 20,
            "slot": "1",
            "type": "t_enum(RecipientType)24202"
          }
        ],
        "numberOfBytes": "64"
      },
      "t_struct(RoleData)6996_storage": {
        "encoding": "inplace",
        "label": "struct AccessControl.RoleData",
        "members": [
          {
            "astId": 6993,
            "contract": "contracts/middleman/AngleMiddleman.sol:AngleMiddleman",
            "label": "members",
            "offset": 0,
            "slot": "0",
            "type": "t_mapping(t_address,t_bool)"
          },
          {
            "astId": 6995,
            "contract": "contracts/middleman/AngleMiddleman.sol:AngleMiddleman",
            "label": "adminRole",
            "offset": 0,
            "slot": "1",
            "type": "t_bytes32"
          }
        ],
        "numberOfBytes": "64"
      }
    }
  }
}