{
  "address": "0xC0534d886B6f6b1a82633c0dC7177141cFf70060",
  "abi": [
    {
      "inputs": [],
      "stateMutability": "nonpayable",
      "type": "constructor"
    },
    {
      "anonymous": false,
      "inputs": [
        {
          "indexed": true,
          "internalType": "address",
          "name": "_gaugeAddr",
          "type": "address"
        },
        {
          "indexed": true,
          "internalType": "address",
          "name": "_delegateGauge",
          "type": "address"
        }
      ],
      "name": "DelegateGaugeUpdated",
      "type": "event"
    },
    {
      "anonymous": false,
      "inputs": [
        {
          "indexed": false,
          "internalType": "bool",
          "name": "_distributionsOn",
          "type": "bool"
        }
      ],
      "name": "DistributionsToggled",
      "type": "event"
    },
    {
      "anonymous": false,
      "inputs": [
        {
          "indexed": true,
          "internalType": "address",
          "name": "_controller",
          "type": "address"
        }
      ],
      "name": "GaugeControllerUpdated",
      "type": "event"
    },
    {
      "anonymous": false,
      "inputs": [
        {
          "indexed": true,
          "internalType": "address",
          "name": "gaugeAddr",
          "type": "address"
        },
        {
          "indexed": false,
          "internalType": "bool",
          "name": "newStatus",
          "type": "bool"
        }
      ],
      "name": "GaugeToggled",
      "type": "event"
    },
    {
      "anonymous": false,
      "inputs": [
        {
          "indexed": true,
          "internalType": "address",
          "name": "_delegateGauge",
          "type": "address"
        },
        {
          "indexed": false,
          "internalType": "bool",
          "name": "_isInterfaceKnown",
          "type": "bool"
        }
      ],
      "name": "InterfaceKnownToggled",
      "type": "event"
    },
    {
      "anonymous": false,
      "inputs": [
        {
          "indexed": false,
          "internalType": "uint256",
          "name": "_newRate",
          "type": "uint256"
        }
      ],
      "name": "RateUpdated",
      "type": "event"
    },
    {
      "anonymous": false,
      "inputs": [
        {
          "indexed": true,
          "internalType": "address",
          "name": "tokenAddress",
          "type": "address"
        },
        {
          "indexed": true,
          "internalType": "address",
          "name": "to",
          "type": "address"
        },
        {
          "indexed": false,
          "internalType": "uint256",
          "name": "amount",
          "type": "uint256"
        }
      ],
      "name": "Recovered",
      "type": "event"
    },
    {
      "anonymous": false,
      "inputs": [
        {
          "indexed": true,
          "internalType": "address",
          "name": "gaugeAddr",
          "type": "address"
        },
        {
          "indexed": false,
          "internalType": "uint256",
          "name": "rewardTally",
          "type": "uint256"
        }
      ],
      "name": "RewardDistributed",
      "type": "event"
    },
    {
      "anonymous": false,
      "inputs": [
        {
          "indexed": true,
          "internalType": "bytes32",
          "name": "role",
          "type": "bytes32"
        },
        {
          "indexed": true,
          "internalType": "bytes32",
          "name": "previousAdminRole",
          "type": "bytes32"
        },
        {
          "indexed": true,
          "internalType": "bytes32",
          "name": "newAdminRole",
          "type": "bytes32"
        }
      ],
      "name": "RoleAdminChanged",
      "type": "event"
    },
    {
      "anonymous": false,
      "inputs": [
        {
          "indexed": true,
          "internalType": "bytes32",
          "name": "role",
          "type": "bytes32"
        },
        {
          "indexed": true,
          "internalType": "address",
          "name": "account",
          "type": "address"
        },
        {
          "indexed": true,
          "internalType": "address",
          "name": "sender",
          "type": "address"
        }
      ],
      "name": "RoleGranted",
      "type": "event"
    },
    {
      "anonymous": false,
      "inputs": [
        {
          "indexed": true,
          "internalType": "bytes32",
          "name": "role",
          "type": "bytes32"
        },
        {
          "indexed": true,
          "internalType": "address",
          "name": "account",
          "type": "address"
        },
        {
          "indexed": true,
          "internalType": "address",
          "name": "sender",
          "type": "address"
        }
      ],
      "name": "RoleRevoked",
      "type": "event"
    },
    {
      "anonymous": false,
      "inputs": [
        {
          "indexed": false,
          "internalType": "uint256",
          "name": "time",
          "type": "uint256"
        },
        {
          "indexed": false,
          "internalType": "uint256",
          "name": "rate",
          "type": "uint256"
        },
        {
          "indexed": false,
          "internalType": "uint256",
          "name": "supply",
          "type": "uint256"
        }
      ],
      "name": "UpdateMiningParameters",
      "type": "event"
    },
    {
      "inputs": [],
      "name": "BASE",
      "outputs": [
        {
          "internalType": "uint256",
          "name": "",
          "type": "uint256"
        }
      ],
      "stateMutability": "view",
      "type": "function"
    },
    {
      "inputs": [],
      "name": "DEFAULT_ADMIN_ROLE",
      "outputs": [
        {
          "internalType": "bytes32",
          "name": "",
          "type": "bytes32"
        }
      ],
      "stateMutability": "view",
      "type": "function"
    },
    {
      "inputs": [],
      "name": "GOVERNOR_ROLE",
      "outputs": [
        {
          "internalType": "bytes32",
          "name": "",
          "type": "bytes32"
        }
      ],
      "stateMutability": "view",
      "type": "function"
    },
    {
      "inputs": [],
      "name": "GUARDIAN_ROLE",
      "outputs": [
        {
          "internalType": "bytes32",
          "name": "",
          "type": "bytes32"
        }
      ],
      "stateMutability": "view",
      "type": "function"
    },
    {
      "inputs": [],
      "name": "RATE_REDUCTION_COEFFICIENT",
      "outputs": [
        {
          "internalType": "uint256",
          "name": "",
          "type": "uint256"
        }
      ],
      "stateMutability": "view",
      "type": "function"
    },
    {
      "inputs": [],
      "name": "RATE_REDUCTION_TIME",
      "outputs": [
        {
          "internalType": "uint256",
          "name": "",
          "type": "uint256"
        }
      ],
      "stateMutability": "view",
      "type": "function"
    },
    {
      "inputs": [],
      "name": "WEEK",
      "outputs": [
        {
          "internalType": "uint256",
          "name": "",
          "type": "uint256"
        }
      ],
      "stateMutability": "view",
      "type": "function"
    },
    {
      "inputs": [],
      "name": "controller",
      "outputs": [
        {
          "internalType": "contract IGaugeController",
          "name": "",
          "type": "address"
        }
      ],
      "stateMutability": "view",
      "type": "function"
    },
    {
      "inputs": [],
      "name": "delegateGauge",
      "outputs": [
        {
          "internalType": "address",
          "name": "",
          "type": "address"
        }
      ],
      "stateMutability": "view",
      "type": "function"
    },
    {
      "inputs": [
        {
          "internalType": "address",
          "name": "",
          "type": "address"
        }
      ],
      "name": "delegateGauges",
      "outputs": [
        {
          "internalType": "address",
          "name": "",
          "type": "address"
        }
      ],
      "stateMutability": "view",
      "type": "function"
    },
    {
      "inputs": [
        {
          "internalType": "address",
          "name": "gaugeAddr",
          "type": "address"
        }
      ],
      "name": "distributeReward",
      "outputs": [
        {
          "internalType": "uint256",
          "name": "",
          "type": "uint256"
        },
        {
          "internalType": "uint256",
          "name": "",
          "type": "uint256"
        }
      ],
      "stateMutability": "nonpayable",
      "type": "function"
    },
    {
      "inputs": [
        {
          "internalType": "address[]",
          "name": "gauges",
          "type": "address[]"
        }
      ],
      "name": "distributeRewardToMultipleGauges",
      "outputs": [],
      "stateMutability": "nonpayable",
      "type": "function"
    },
    {
      "inputs": [],
      "name": "distributionsOn",
      "outputs": [
        {
          "internalType": "bool",
          "name": "",
          "type": "bool"
        }
      ],
      "stateMutability": "view",
      "type": "function"
    },
    {
      "inputs": [
        {
          "internalType": "bytes32",
          "name": "role",
          "type": "bytes32"
        }
      ],
      "name": "getRoleAdmin",
      "outputs": [
        {
          "internalType": "bytes32",
          "name": "",
          "type": "bytes32"
        }
      ],
      "stateMutability": "view",
      "type": "function"
    },
    {
      "inputs": [
        {
          "internalType": "bytes32",
          "name": "role",
          "type": "bytes32"
        },
        {
          "internalType": "address",
          "name": "account",
          "type": "address"
        }
      ],
      "name": "grantRole",
      "outputs": [],
      "stateMutability": "nonpayable",
      "type": "function"
    },
    {
      "inputs": [
        {
          "internalType": "bytes32",
          "name": "role",
          "type": "bytes32"
        },
        {
          "internalType": "address",
          "name": "account",
          "type": "address"
        }
      ],
      "name": "hasRole",
      "outputs": [
        {
          "internalType": "bool",
          "name": "",
          "type": "bool"
        }
      ],
      "stateMutability": "view",
      "type": "function"
    },
    {
      "inputs": [
        {
          "internalType": "address",
          "name": "_rewardToken",
          "type": "address"
        },
        {
          "internalType": "address",
          "name": "_controller",
          "type": "address"
        },
        {
          "internalType": "uint256",
          "name": "_initialRate",
          "type": "uint256"
        },
        {
          "internalType": "uint256",
          "name": "_startEpochSupply",
          "type": "uint256"
        },
        {
          "internalType": "address",
          "name": "governor",
          "type": "address"
        },
        {
          "internalType": "address",
          "name": "guardian",
          "type": "address"
        },
        {
          "internalType": "address",
          "name": "_delegateGauge",
          "type": "address"
        }
      ],
      "name": "initialize",
      "outputs": [],
      "stateMutability": "nonpayable",
      "type": "function"
    },
    {
      "inputs": [
        {
          "internalType": "address",
          "name": "",
          "type": "address"
        }
      ],
      "name": "isInterfaceKnown",
      "outputs": [
        {
          "internalType": "bool",
          "name": "",
          "type": "bool"
        }
      ],
      "stateMutability": "view",
      "type": "function"
    },
    {
      "inputs": [
        {
          "internalType": "address",
          "name": "",
          "type": "address"
        }
      ],
      "name": "killedGauges",
      "outputs": [
        {
          "internalType": "bool",
          "name": "",
          "type": "bool"
        }
      ],
      "stateMutability": "view",
      "type": "function"
    },
    {
      "inputs": [
        {
          "internalType": "address",
          "name": "",
          "type": "address"
        }
      ],
      "name": "lastTimeGaugePaid",
      "outputs": [
        {
          "internalType": "uint256",
          "name": "",
          "type": "uint256"
        }
      ],
      "stateMutability": "view",
      "type": "function"
    },
    {
      "inputs": [],
      "name": "miningEpoch",
      "outputs": [
        {
          "internalType": "uint256",
          "name": "",
          "type": "uint256"
        }
      ],
      "stateMutability": "view",
      "type": "function"
    },
    {
      "inputs": [],
      "name": "rate",
      "outputs": [
        {
          "internalType": "uint256",
          "name": "",
          "type": "uint256"
        }
      ],
      "stateMutability": "view",
      "type": "function"
    },
    {
      "inputs": [
        {
          "internalType": "address",
          "name": "tokenAddress",
          "type": "address"
        },
        {
          "internalType": "address",
          "name": "to",
          "type": "address"
        },
        {
          "internalType": "uint256",
          "name": "amount",
          "type": "uint256"
        }
      ],
      "name": "recoverERC20",
      "outputs": [],
      "stateMutability": "nonpayable",
      "type": "function"
    },
    {
      "inputs": [
        {
          "internalType": "bytes32",
          "name": "role",
          "type": "bytes32"
        },
        {
          "internalType": "address",
          "name": "account",
          "type": "address"
        }
      ],
      "name": "renounceRole",
      "outputs": [],
      "stateMutability": "nonpayable",
      "type": "function"
    },
    {
      "inputs": [
        {
          "internalType": "bytes32",
          "name": "role",
          "type": "bytes32"
        },
        {
          "internalType": "address",
          "name": "account",
          "type": "address"
        }
      ],
      "name": "revokeRole",
      "outputs": [],
      "stateMutability": "nonpayable",
      "type": "function"
    },
    {
      "inputs": [],
      "name": "rewardToken",
      "outputs": [
        {
          "internalType": "contract IERC20",
          "name": "",
          "type": "address"
        }
      ],
      "stateMutability": "view",
      "type": "function"
    },
    {
      "inputs": [
        {
          "internalType": "address",
          "name": "gaugeAddr",
          "type": "address"
        },
        {
          "internalType": "address",
          "name": "_delegateGauge",
          "type": "address"
        },
        {
          "internalType": "bool",
          "name": "toggleInterface",
          "type": "bool"
        }
      ],
      "name": "setDelegateGauge",
      "outputs": [],
      "stateMutability": "nonpayable",
      "type": "function"
    },
    {
      "inputs": [
        {
          "internalType": "address",
          "name": "_controller",
          "type": "address"
        }
      ],
      "name": "setGaugeController",
      "outputs": [],
      "stateMutability": "nonpayable",
      "type": "function"
    },
    {
      "inputs": [
        {
          "internalType": "uint256",
          "name": "_newRate",
          "type": "uint256"
        }
      ],
      "name": "setRate",
      "outputs": [],
      "stateMutability": "nonpayable",
      "type": "function"
    },
    {
      "inputs": [],
      "name": "startEpochSupply",
      "outputs": [
        {
          "internalType": "uint256",
          "name": "",
          "type": "uint256"
        }
      ],
      "stateMutability": "view",
      "type": "function"
    },
    {
      "inputs": [],
      "name": "startEpochTime",
      "outputs": [
        {
          "internalType": "uint256",
          "name": "",
          "type": "uint256"
        }
      ],
      "stateMutability": "view",
      "type": "function"
    },
    {
      "inputs": [],
      "name": "toggleDistributions",
      "outputs": [],
      "stateMutability": "nonpayable",
      "type": "function"
    },
    {
      "inputs": [
        {
          "internalType": "address",
          "name": "gaugeAddr",
          "type": "address"
        }
      ],
      "name": "toggleGauge",
      "outputs": [],
      "stateMutability": "nonpayable",
      "type": "function"
    },
    {
      "inputs": [
        {
          "internalType": "address",
          "name": "_delegateGauge",
          "type": "address"
        }
      ],
      "name": "toggleInterfaceKnown",
      "outputs": [],
      "stateMutability": "nonpayable",
      "type": "function"
    },
    {
      "inputs": [],
      "name": "updateMiningParameters",
      "outputs": [],
      "stateMutability": "nonpayable",
      "type": "function"
    }
  ],
  "transactionHash": "0x939f0ccfa17b7693e42ea7ee15999a9cc12f5e3ea599e49866818654874e3954",
  "args": [],
  "solcInputHash": "cd4ceda3fb7dd7eaa7a0623bf08b2ed8",
  "bytecode": "0x60806040523480156200001157600080fd5b50600054610100900460ff16806200002c575060005460ff16155b620000945760405162461bcd60e51b815260206004820152602e60248201527f496e697469616c697a61626c653a20636f6e747261637420697320616c72656160448201526d191e481a5b9a5d1a585b1a5e995960921b606482015260840160405180910390fd5b600054610100900460ff16158015620000b7576000805461ffff19166101011790555b8015620000ca576000805461ff00191690555b50612e6180620000db6000396000f3fe608060405234801561001057600080fd5b50600436106102405760003560e01c80636a3a1cbf11610145578063ccc57490116100bd578063eee62ac01161008c578063f77c479111610071578063f77c479114610559578063f7c618c114610579578063f905c0831461059957600080fd5b8063eee62ac014610546578063f4359ce5146104e257600080fd5b8063ccc57490146104f4578063d547741f1461051b578063dd5fbc9a1461052e578063ec342ad01461053757600080fd5b8063a217fddf11610114578063b72f0a2f116100f9578063b72f0a2f146104cf578063b87b5616146104e2578063cb626ae2146104ec57600080fd5b8063a217fddf146104a7578063af45d0df146104af57600080fd5b80636a3a1cbf146103c35780636b5cfefe146103e357806391d1485414610406578063a0ca59f01461044c57600080fd5b8063248a9ca3116101d8578063305d6d5f116101a757806336568abe1161018c57806336568abe146103945780633e785737146103a757806364ef6dd4146103ba57600080fd5b8063305d6d5f1461037957806334fcf4371461038157600080fd5b8063248a9ca31461031357806324ea54f4146103365780632c4e722e1461035d5780632f2ff15d1461036657600080fd5b8063174688971161021457806317468897146102ad5780631814a5b1146102e05780631f8a7edf146102f757806321609bbf1461030457600080fd5b806291d2b814610245578063092193ab1461025a5780631171bda914610287578063139ea9b41461029a575b600080fd5b6102586102533660046128c0565b6105ac565b005b61026d6102683660046128c0565b6106c9565b604080519283526020830191909152015b60405180910390f35b610258610295366004612922565b6107e5565b6102586102a83660046128db565b610a23565b6102d06102bb3660046128c0565b60686020526000908152604090205460ff1681565b604051901515815260200161027e565b6102e9606d5481565b60405190815260200161027e565b6070546102d09060ff1681565b6102e9670dfc861f1ff0953381565b6102e9610321366004612add565b60009081526033602052604090206001015490565b6102e97f55435dd261a4b9b3364963f7738a7a662ad9c84396d64be3365284bb7f0a504181565b6102e9606c5481565b610258610374366004612af6565b610b72565b610258610b9d565b61025861038f366004612add565b610c33565b6102586103a2366004612af6565b610de0565b6102586103b536600461295e565b610e6d565b6102e9606f5481565b6102e96103d13660046128c0565b60656020526000908152604090205481565b6102d06103f13660046128c0565b60666020526000908152604090205460ff1681565b6102d0610414366004612af6565b600091825260336020908152604080842073ffffffffffffffffffffffffffffffffffffffff93909316845291905290205460ff1690565b61048261045a3660046128c0565b60676020526000908152604090205473ffffffffffffffffffffffffffffffffffffffff1681565b60405173ffffffffffffffffffffffffffffffffffffffff909116815260200161027e565b6102e9600081565b606b546104829073ffffffffffffffffffffffffffffffffffffffff1681565b6102586104dd3660046128c0565b6111fb565b6102e962093a8081565b610258611317565b6102e97f7935bd0ae54bc31f548c14dba4d37c5c64b3f8ca900cb468fb8abd54d5894f5581565b610258610529366004612af6565b61139b565b6102e9606e5481565b6102e9670de0b6b3a764000081565b6102586105543660046129d6565b6113c1565b606a546104829073ffffffffffffffffffffffffffffffffffffffff1681565b6069546104829073ffffffffffffffffffffffffffffffffffffffff1681565b6102586105a73660046128c0565b61150e565b7f7935bd0ae54bc31f548c14dba4d37c5c64b3f8ca900cb468fb8abd54d5894f556105d78133611542565b73ffffffffffffffffffffffffffffffffffffffff8216610659576040517f08c379a000000000000000000000000000000000000000000000000000000000815260206004820152600160248201527f300000000000000000000000000000000000000000000000000000000000000060448201526064015b60405180910390fd5b606a80547fffffffffffffffffffffffff00000000000000000000000000000000000000001673ffffffffffffffffffffffffffffffffffffffff84169081179091556040517ff3d6907bf00dd37e685d19085134f0fab4ced80b96963ef3e992dc7ac0324c5490600090a25050565b60008060026001541415610739576040517f08c379a000000000000000000000000000000000000000000000000000000000815260206004820152601f60248201527f5265656e7472616e637947756172643a207265656e7472616e742063616c6c006044820152606401610650565b6002600190815560705460ff161515146107af576040517f08c379a000000000000000000000000000000000000000000000000000000000815260206004820152600360248201527f31303900000000000000000000000000000000000000000000000000000000006044820152606401610650565b62093a80606d546107c09190612c4c565b42106107ce576107ce611614565b6107d783611727565b600180559094909350915050565b7f7935bd0ae54bc31f548c14dba4d37c5c64b3f8ca900cb468fb8abd54d5894f556108108133611542565b60695473ffffffffffffffffffffffffffffffffffffffff85811691161415610995576069546040517f70a0823100000000000000000000000000000000000000000000000000000000815230600482015260009173ffffffffffffffffffffffffffffffffffffffff16906370a082319060240160206040518083038186803b15801561089d57600080fd5b505afa1580156108b1573d6000803e3d6000fd5b505050506040513d601f19601f820116820180604052508101906108d59190612b45565b9050826108f2670de0b6b3a7640000670dfc861f1ff09533612cdc565b62093a80670dfc861f1ff09533606c5461090c9190612c9f565b6109169190612c9f565b6109209190612c64565b61092a9190612c4c565b811015610993576040517f08c379a000000000000000000000000000000000000000000000000000000000815260206004820152600160248201527f34000000000000000000000000000000000000000000000000000000000000006044820152606401610650565b505b6109b673ffffffffffffffffffffffffffffffffffffffff85168484611e8c565b8273ffffffffffffffffffffffffffffffffffffffff168473ffffffffffffffffffffffffffffffffffffffff167ffff3b3844276f57024e0b42afec1a37f75db36511e43819a4f2a63ab7862b64884604051610a1591815260200190565b60405180910390a350505050565b7f7935bd0ae54bc31f548c14dba4d37c5c64b3f8ca900cb468fb8abd54d5894f55610a4e8133611542565b73ffffffffffffffffffffffffffffffffffffffff841615610ac25773ffffffffffffffffffffffffffffffffffffffff848116600090815260676020526040902080547fffffffffffffffffffffffff000000000000000000000000000000000000000016918516919091179055610b03565b606b80547fffffffffffffffffffffffff00000000000000000000000000000000000000001673ffffffffffffffffffffffffffffffffffffffff85161790555b8273ffffffffffffffffffffffffffffffffffffffff168473ffffffffffffffffffffffffffffffffffffffff167fe8c02e063c8958a09592bd47f86567ffc358244cae7a91f26807ca8e3a70a0de60405160405180910390a38115610b6c57610b6c83611f60565b50505050565b600082815260336020526040902060010154610b8e8133611542565b610b988383611ff0565b505050565b7f55435dd261a4b9b3364963f7738a7a662ad9c84396d64be3365284bb7f0a5041610bc88133611542565b6070805460ff811680157fffffffffffffffffffffffffffffffffffffffffffffffffffffffffffffff0090921682179092556040519081527fa47e236370e478b9d163098c7c1f4f67b6efbb6683eeb0a669f04f302653779d906020015b60405180910390a15050565b7f7935bd0ae54bc31f548c14dba4d37c5c64b3f8ca900cb468fb8abd54d5894f55610c5e8133611542565b610c78670de0b6b3a7640000670dfc861f1ff09533612cdc565b62093a80610c8e670dfc861f1ff0953385612c9f565b610c989190612c9f565b610ca29190612c64565b6069546040517f70a0823100000000000000000000000000000000000000000000000000000000815230600482015273ffffffffffffffffffffffffffffffffffffffff909116906370a082319060240160206040518083038186803b158015610d0b57600080fd5b505afa158015610d1f573d6000803e3d6000fd5b505050506040513d601f19601f82011682018060405250810190610d439190612b45565b1015610dab576040517f08c379a000000000000000000000000000000000000000000000000000000000815260206004820152600160248201527f34000000000000000000000000000000000000000000000000000000000000006044820152606401610650565b606c8290556040518281527fe65c987b2e4668e09ba867026921588005b2b2063607a1e7e7d91683c8f91b7b90602001610c27565b73ffffffffffffffffffffffffffffffffffffffff81163314610e5f576040517f08c379a000000000000000000000000000000000000000000000000000000000815260206004820152600260248201527f37310000000000000000000000000000000000000000000000000000000000006044820152606401610650565b610e6982826120ad565b5050565b600054610100900460ff1680610e86575060005460ff16155b610f12576040517f08c379a000000000000000000000000000000000000000000000000000000000815260206004820152602e60248201527f496e697469616c697a61626c653a20636f6e747261637420697320616c72656160448201527f647920696e697469616c697a65640000000000000000000000000000000000006064820152608401610650565b600054610100900460ff16158015610f5157600080547fffffffffffffffffffffffffffffffffffffffffffffffffffffffffffff0000166101011790555b73ffffffffffffffffffffffffffffffffffffffff871615801590610f8b575073ffffffffffffffffffffffffffffffffffffffff881615155b8015610fac575073ffffffffffffffffffffffffffffffffffffffff831615155b8015610fcd575073ffffffffffffffffffffffffffffffffffffffff841615155b611033576040517f08c379a000000000000000000000000000000000000000000000000000000000815260206004820152600160248201527f30000000000000000000000000000000000000000000000000000000000000006044820152606401610650565b6069805473ffffffffffffffffffffffffffffffffffffffff808b167fffffffffffffffffffffffff000000000000000000000000000000000000000092831617909255606a80548a8416908316179055606e8790556000606f55606c889055606b805492851692909116919091179055607080547fffffffffffffffffffffffffffffffffffffffffffffffffffffffffffffff0016905542606d556110fa7f7935bd0ae54bc31f548c14dba4d37c5c64b3f8ca900cb468fb8abd54d5894f5580612168565b6111447f55435dd261a4b9b3364963f7738a7a662ad9c84396d64be3365284bb7f0a50417f7935bd0ae54bc31f548c14dba4d37c5c64b3f8ca900cb468fb8abd54d5894f55612168565b61116e7f55435dd261a4b9b3364963f7738a7a662ad9c84396d64be3365284bb7f0a5041846121bc565b6111987f7935bd0ae54bc31f548c14dba4d37c5c64b3f8ca900cb468fb8abd54d5894f55856121bc565b6111c27f55435dd261a4b9b3364963f7738a7a662ad9c84396d64be3365284bb7f0a5041856121bc565b80156111f157600080547fffffffffffffffffffffffffffffffffffffffffffffffffffffffffffff00ff1690555b5050505050505050565b7f7935bd0ae54bc31f548c14dba4d37c5c64b3f8ca900cb468fb8abd54d5894f556112268133611542565b73ffffffffffffffffffffffffffffffffffffffff821660009081526066602052604090205460ff168061128d5773ffffffffffffffffffffffffffffffffffffffff808416600090815260656020526040812081905560695461128d92169085906121c6565b73ffffffffffffffffffffffffffffffffffffffff831660008181526066602090815260409182902080547fffffffffffffffffffffffffffffffffffffffffffffffffffffffffffffff0016851590811790915591519182527ff585f0f5078ec648738dbc4c4618f033a3f0d81e1602b044649d736d33ebac67910160405180910390a2505050565b62093a80606d546113289190612c4c565b421015611391576040517f08c379a000000000000000000000000000000000000000000000000000000000815260206004820152600360248201527f31303800000000000000000000000000000000000000000000000000000000006044820152606401610650565b611399611614565b565b6000828152603360205260409020600101546113b78133611542565b610b9883836120ad565b6002600154141561142e576040517f08c379a000000000000000000000000000000000000000000000000000000000815260206004820152601f60248201527f5265656e7472616e637947756172643a207265656e7472616e742063616c6c006044820152606401610650565b6002600190815560705460ff161515146114a4576040517f08c379a000000000000000000000000000000000000000000000000000000000815260206004820152600360248201527f31303900000000000000000000000000000000000000000000000000000000006044820152606401610650565b62093a80606d546114b59190612c4c565b42106114c3576114c3611614565b60005b8151811015611506576114f18282815181106114e4576114e4612dbc565b6020026020010151611727565b505080806114fe90612d54565b9150506114c6565b505060018055565b7f55435dd261a4b9b3364963f7738a7a662ad9c84396d64be3365284bb7f0a50416115398133611542565b610e6982611f60565b600082815260336020908152604080832073ffffffffffffffffffffffffffffffffffffffff8516845290915290205460ff16610e695761159a8173ffffffffffffffffffffffffffffffffffffffff166014612357565b6115a5836020612357565b6040516020016115b6929190612b7a565b604080517fffffffffffffffffffffffffffffffffffffffffffffffffffffffffffffffe0818403018152908290527f08c379a000000000000000000000000000000000000000000000000000000000825261065091600401612bfb565b600062093a80606d54426116289190612cdc565b6116329190612c64565b606c54606e54919250906116498362093a80612c9f565b606d600082825461165a9190612c4c565b9250508190555082606f60008282546116739190612c4c565b90915550600090505b838110156116d65761169162093a8084612c9f565b61169b9083612c4c565b9150670dfc861f1ff095336116b8670de0b6b3a764000085612c9f565b6116c29190612c64565b9250806116ce81612d54565b91505061167c565b50606c829055606e81905560408051428152602081018490529081018290527f27e46362a1e6129b6dd539c984ce739291a97128dfcaeca1255e8ac83abd94419060600160405180910390a1505050565b606a546040517f3f9095b700000000000000000000000000000000000000000000000000000000815273ffffffffffffffffffffffffffffffffffffffff83811660048301526000928392839290911690633f9095b79060240160206040518083038186803b15801561179957600080fd5b505afa1580156117ad573d6000803e3d6000fd5b505050506040513d601f19601f820116820180604052508101906117d19190612b22565b9050600081600f0b1215801561180d575073ffffffffffffffffffffffffffffffffffffffff841660009081526066602052604090205460ff16155b611873576040517f08c379a000000000000000000000000000000000000000000000000000000000815260206004820152600360248201527f31313000000000000000000000000000000000000000000000000000000000006044820152606401610650565b73ffffffffffffffffffffffffffffffffffffffff8416600090815260656020526040902054806118f7576001935081600f0b600014156118f2576069546118f29073ffffffffffffffffffffffffffffffffffffffff16867fffffffffffffffffffffffffffffffffffffffffffffffffffffffffffffffff6121c6565b611923565b62093a806119058242612cdc565b61190f9190612c64565b935083611923575060009485945092505050565b606c5460009350835b85811015611b39576000816119ed57606a546040517f6472eee100000000000000000000000000000000000000000000000000000000815273ffffffffffffffffffffffffffffffffffffffff8a8116600483015242602483015290911690636472eee190604401602060405180830381600087803b1580156119ae57600080fd5b505af11580156119c2573d6000803e3d6000fd5b505050506040513d601f19601f820116820180604052508101906119e69190612b45565b9050611ac7565b606a5473ffffffffffffffffffffffffffffffffffffffff1663d3078c9489611a198562093a80612c9f565b611a239042612cdc565b6040517fffffffff0000000000000000000000000000000000000000000000000000000060e085901b16815273ffffffffffffffffffffffffffffffffffffffff9092166004830152602482015260440160206040518083038186803b158015611a8c57600080fd5b505afa158015611aa0573d6000803e3d6000fd5b505050506040513d601f19601f82011682018060405250810190611ac49190612b45565b90505b670de0b6b3a764000062093a80611ade8386612c9f565b611ae89190612c9f565b611af29190612c64565b611afc9087612c4c565b9550670de0b6b3a7640000611b19670dfc861f1ff0953385612c9f565b611b239190612c64565b9250508080611b3190612d54565b91505061192c565b5062093a80611b488142612c64565b611b529190612c9f565b73ffffffffffffffffffffffffffffffffffffffff87166000908152606560205260409020556002600f84900b12611cf25773ffffffffffffffffffffffffffffffffffffffff8087166000908152606760205260409020541680611bcc5750606b5473ffffffffffffffffffffffffffffffffffffffff165b73ffffffffffffffffffffffffffffffffffffffff811615611cc857606954611c0c9073ffffffffffffffffffffffffffffffffffffffff168287611e8c565b73ffffffffffffffffffffffffffffffffffffffff811660009081526068602052604090205460ff1615611cc3576040517fe324718000000000000000000000000000000000000000000000000000000000815273ffffffffffffffffffffffffffffffffffffffff88811660048301526024820187905282169063e324718090604401600060405180830381600087803b158015611caa57600080fd5b505af1158015611cbe573d6000803e3d6000fd5b505050505b611cec565b606954611cec9073ffffffffffffffffffffffffffffffffffffffff168887611e8c565b50611e34565b82600f0b60011415611da757606954611d229073ffffffffffffffffffffffffffffffffffffffff168786611e8c565b6040517f3c6b16ab0000000000000000000000000000000000000000000000000000000081526004810185905273ffffffffffffffffffffffffffffffffffffffff871690633c6b16ab90602401600060405180830381600087803b158015611d8a57600080fd5b505af1158015611d9e573d6000803e3d6000fd5b50505050611e34565b6069546040517f93f7aa6700000000000000000000000000000000000000000000000000000000815273ffffffffffffffffffffffffffffffffffffffff918216600482015260248101869052908716906393f7aa6790604401600060405180830381600087803b158015611e1b57600080fd5b505af1158015611e2f573d6000803e3d6000fd5b505050505b8573ffffffffffffffffffffffffffffffffffffffff167fe34918ff1c7084970068b53fd71ad6d8b04e9f15d3886cbf006443e6cdc52ea685604051611e7c91815260200190565b60405180910390a2505050915091565b60405173ffffffffffffffffffffffffffffffffffffffff8316602482015260448101829052610b989084907fa9059cbb00000000000000000000000000000000000000000000000000000000906064015b604080517fffffffffffffffffffffffffffffffffffffffffffffffffffffffffffffffe08184030181529190526020810180517bffffffffffffffffffffffffffffffffffffffffffffffffffffffff167fffffffff00000000000000000000000000000000000000000000000000000000909316929092179091526125a1565b73ffffffffffffffffffffffffffffffffffffffff8116600081815260686020908152604091829020805460ff811680157fffffffffffffffffffffffffffffffffffffffffffffffffffffffffffffff009092168217909255925192835292917fef1fcfc5b60bfbf5c191cfb9774cbd1d1a56987bd13658cec7705bffc7c01d4e910160405180910390a25050565b600082815260336020908152604080832073ffffffffffffffffffffffffffffffffffffffff8516845290915290205460ff16610e6957600082815260336020908152604080832073ffffffffffffffffffffffffffffffffffffffff8516808552925280832080547fffffffffffffffffffffffffffffffffffffffffffffffffffffffffffffff0016600117905551339285917f2f8788117e7eff1d82e926ec794901d17c78024a50270940304540a733656f0d9190a45050565b600082815260336020908152604080832073ffffffffffffffffffffffffffffffffffffffff8516845290915290205460ff1615610e6957600082815260336020908152604080832073ffffffffffffffffffffffffffffffffffffffff8516808552925280832080547fffffffffffffffffffffffffffffffffffffffffffffffffffffffffffffff0016905551339285917ff6391f5c32d9c69d2a47ea670b442974b53935d1edc7fd64eb21e047a839171b9190a45050565b600082815260336020526040902060010154819060405184907fbd79b86ffe0ab8e8776151514217cd7cacd52c909f66475c3af44e129f0b00ff90600090a460009182526033602052604090912060010155565b610e698282611ff0565b80158061227557506040517fdd62ed3e00000000000000000000000000000000000000000000000000000000815230600482015273ffffffffffffffffffffffffffffffffffffffff838116602483015284169063dd62ed3e9060440160206040518083038186803b15801561223b57600080fd5b505afa15801561224f573d6000803e3d6000fd5b505050506040513d601f19601f820116820180604052508101906122739190612b45565b155b612301576040517f08c379a000000000000000000000000000000000000000000000000000000000815260206004820152603660248201527f5361666545524332303a20617070726f76652066726f6d206e6f6e2d7a65726f60448201527f20746f206e6f6e2d7a65726f20616c6c6f77616e6365000000000000000000006064820152608401610650565b60405173ffffffffffffffffffffffffffffffffffffffff8316602482015260448101829052610b989084907f095ea7b30000000000000000000000000000000000000000000000000000000090606401611ede565b60606000612366836002612c9f565b612371906002612c4c565b67ffffffffffffffff81111561238957612389612deb565b6040519080825280601f01601f1916602001820160405280156123b3576020820181803683370190505b5090507f3000000000000000000000000000000000000000000000000000000000000000816000815181106123ea576123ea612dbc565b60200101907effffffffffffffffffffffffffffffffffffffffffffffffffffffffffffff1916908160001a9053507f78000000000000000000000000000000000000000000000000000000000000008160018151811061244d5761244d612dbc565b60200101907effffffffffffffffffffffffffffffffffffffffffffffffffffffffffffff1916908160001a9053506000612489846002612c9f565b612494906001612c4c565b90505b6001811115612531577f303132333435363738396162636465660000000000000000000000000000000085600f16601081106124d5576124d5612dbc565b1a60f81b8282815181106124eb576124eb612dbc565b60200101907effffffffffffffffffffffffffffffffffffffffffffffffffffffffffffff1916908160001a90535060049490941c9361252a81612d1f565b9050612497565b50831561259a576040517f08c379a000000000000000000000000000000000000000000000000000000000815260206004820181905260248201527f537472696e67733a20686578206c656e67746820696e73756666696369656e746044820152606401610650565b9392505050565b6000612603826040518060400160405280602081526020017f5361666545524332303a206c6f772d6c6576656c2063616c6c206661696c65648152508573ffffffffffffffffffffffffffffffffffffffff166126ad9092919063ffffffff16565b805190915015610b9857808060200190518101906126219190612ac0565b610b98576040517f08c379a000000000000000000000000000000000000000000000000000000000815260206004820152602a60248201527f5361666545524332303a204552433230206f7065726174696f6e20646964206e60448201527f6f742073756363656564000000000000000000000000000000000000000000006064820152608401610650565b60606126bc84846000856126c4565b949350505050565b606082471015612756576040517f08c379a000000000000000000000000000000000000000000000000000000000815260206004820152602660248201527f416464726573733a20696e73756666696369656e742062616c616e636520666f60448201527f722063616c6c00000000000000000000000000000000000000000000000000006064820152608401610650565b843b6127be576040517f08c379a000000000000000000000000000000000000000000000000000000000815260206004820152601d60248201527f416464726573733a2063616c6c20746f206e6f6e2d636f6e74726163740000006044820152606401610650565b6000808673ffffffffffffffffffffffffffffffffffffffff1685876040516127e79190612b5e565b60006040518083038185875af1925050503d8060008114612824576040519150601f19603f3d011682016040523d82523d6000602084013e612829565b606091505b5091509150612839828286612844565b979650505050505050565b6060831561285357508161259a565b8251156128635782518084602001fd5b816040517f08c379a00000000000000000000000000000000000000000000000000000000081526004016106509190612bfb565b803573ffffffffffffffffffffffffffffffffffffffff811681146128bb57600080fd5b919050565b6000602082840312156128d257600080fd5b61259a82612897565b6000806000606084860312156128f057600080fd5b6128f984612897565b925061290760208501612897565b9150604084013561291781612e1a565b809150509250925092565b60008060006060848603121561293757600080fd5b61294084612897565b925061294e60208501612897565b9150604084013590509250925092565b600080600080600080600060e0888a03121561297957600080fd5b61298288612897565b965061299060208901612897565b955060408801359450606088013593506129ac60808901612897565b92506129ba60a08901612897565b91506129c860c08901612897565b905092959891949750929550565b600060208083850312156129e957600080fd5b823567ffffffffffffffff80821115612a0157600080fd5b818501915085601f830112612a1557600080fd5b813581811115612a2757612a27612deb565b8060051b6040517fffffffffffffffffffffffffffffffffffffffffffffffffffffffffffffffe0603f83011681018181108582111715612a6a57612a6a612deb565b604052828152858101935084860182860187018a1015612a8957600080fd5b600095505b83861015612ab357612a9f81612897565b855260019590950194938601938601612a8e565b5098975050505050505050565b600060208284031215612ad257600080fd5b815161259a81612e1a565b600060208284031215612aef57600080fd5b5035919050565b60008060408385031215612b0957600080fd5b82359150612b1960208401612897565b90509250929050565b600060208284031215612b3457600080fd5b815180600f0b811461259a57600080fd5b600060208284031215612b5757600080fd5b5051919050565b60008251612b70818460208701612cf3565b9190910192915050565b7f416363657373436f6e74726f6c3a206163636f756e7420000000000000000000815260008351612bb2816017850160208801612cf3565b7f206973206d697373696e6720726f6c65200000000000000000000000000000006017918401918201528351612bef816028840160208801612cf3565b01602801949350505050565b6020815260008251806020840152612c1a816040850160208701612cf3565b601f017fffffffffffffffffffffffffffffffffffffffffffffffffffffffffffffffe0169190910160400192915050565b60008219821115612c5f57612c5f612d8d565b500190565b600082612c9a577f4e487b7100000000000000000000000000000000000000000000000000000000600052601260045260246000fd5b500490565b6000817fffffffffffffffffffffffffffffffffffffffffffffffffffffffffffffffff0483118215151615612cd757612cd7612d8d565b500290565b600082821015612cee57612cee612d8d565b500390565b60005b83811015612d0e578181015183820152602001612cf6565b83811115610b6c5750506000910152565b600081612d2e57612d2e612d8d565b507fffffffffffffffffffffffffffffffffffffffffffffffffffffffffffffffff0190565b60007fffffffffffffffffffffffffffffffffffffffffffffffffffffffffffffffff821415612d8657612d86612d8d565b5060010190565b7f4e487b7100000000000000000000000000000000000000000000000000000000600052601160045260246000fd5b7f4e487b7100000000000000000000000000000000000000000000000000000000600052603260045260246000fd5b7f4e487b7100000000000000000000000000000000000000000000000000000000600052604160045260246000fd5b8015158114612e2857600080fd5b5056fea2646970667358221220da85cf30f56671f01031c5e27c964ebf9ace34c206096bbb631799d2190c44ef64736f6c63430008070033",
  "devdoc": {
    "author": "Forked from contracts developed by Curve and Frax and adapted by Angle Core Team - ERC20CRV.vy (https://github.com/curvefi/curve-dao-contracts/blob/master/contracts/ERC20CRV.vy) - FraxGaugeFXSRewardsDistributor.sol (https://github.com/FraxFinance/frax-solidity/blob/master/src/hardhat/contracts/Curve/FraxGaugeFXSRewardsDistributor.sol)",
    "kind": "dev",
    "methods": {
      "constructor": {
        "custom:oz-upgrades-unsafe-allow": "constructor"
      },
      "distributeReward(address)": {
        "details": "Anyone can call this function to distribute rewards to the different staking contracts",
        "params": {
          "gaugeAddr": "Address of the gauge to send tokens too"
        },
        "returns": {
          "_0": "weeksElapsed Number of weeks elapsed since the last time rewards were distributed",
          "_1": "rewardTally Amount of tokens sent to the gauge"
        }
      },
      "distributeRewardToMultipleGauges(address[])": {
        "details": "Anyone can call this function to distribute rewards to the different staking contractsCompared with the `distributeReward` function, this function sends rewards to multiple contracts at the same time",
        "params": {
          "gauges": "Addresses of the gauge to send tokens too"
        }
      },
      "getRoleAdmin(bytes32)": {
        "details": "Returns the admin role that controls `role`. See {grantRole} and {revokeRole}. To change a role's admin, use {_setRoleAdmin}."
      },
      "grantRole(bytes32,address)": {
        "details": "Grants `role` to `account`. If `account` had not been already granted `role`, emits a {RoleGranted} event. Requirements: - the caller must have ``role``'s admin role."
      },
      "hasRole(bytes32,address)": {
        "details": "Returns `true` if `account` has been granted `role`."
      },
      "initialize(address,address,uint256,uint256,address,address,address)": {
        "details": "After this contract is created, the correct amount of ANGLE tokens should be transferred to the contractThe `_delegateGauge` can be the zero address",
        "params": {
          "_controller": "Address of the GaugeController",
          "_delegateGauge": "Address that will be used to pull rewards for type 2 gauges",
          "_initialRate": "Initial ANGLE emission rate",
          "_rewardToken": "Address of the ANGLE token",
          "_startEpochSupply": "Amount of ANGLE tokens already distributed via liquidity mining",
          "governor": "Governor address of the contract",
          "guardian": "Address of the guardian of this contract"
        }
      },
      "recoverERC20(address,address,uint256)": {
        "details": "Added to support recovering LP Rewards and other mistaken tokens from other systems to be distributed to holdersThis function could also be used to recover ANGLE tokens in case the rate got smaller",
        "params": {
          "amount": "Amount to transfer",
          "to": "Address to transfer to",
          "tokenAddress": "Address of the ERC20 token to withdraw"
        }
      },
      "renounceRole(bytes32,address)": {
        "details": "Revokes `role` from the calling account. Roles are often managed via {grantRole} and {revokeRole}: this function's purpose is to provide a mechanism for accounts to lose their privileges if they are compromised (such as when a trusted device is misplaced). If the calling account had been granted `role`, emits a {RoleRevoked} event. Requirements: - the caller must be `account`."
      },
      "revokeRole(bytes32,address)": {
        "details": "Revokes `role` from `account`. If `account` had been granted `role`, emits a {RoleRevoked} event. Requirements: - the caller must have ``role``'s admin role."
      },
      "setDelegateGauge(address,address,bool)": {
        "details": "This function can be used to remove delegating or introduce the pulling of rewards to a given addressIf `gaugeAddr` is the zero address, this function updates the delegate gauge common to all gauges with type >= 2The `toggleInterface` parameter has been added for convenience to save one transaction when adding a gauge delegate which supports the `notifyReward` interface",
        "params": {
          "_delegateGauge": "Address of the new gauge delegate related to `gaugeAddr`",
          "gaugeAddr": "Gauge to change the delegate of",
          "toggleInterface": "Whether we should toggle the fact that the `_delegateGauge` is built for automation or not"
        }
      },
      "setGaugeController(address)": {
        "params": {
          "_controller": "Address of the new gauge controller"
        }
      },
      "setRate(uint256)": {
        "details": "It is important to be super wary when calling this function and to make sure that `distributeReward` has been called for all gauges in the past weeks. If not, gauges may get an incorrect distribution of ANGLE rewards for these past weeks based on the new rate and not on the old rateGovernance should thus make sure to call this function rarely and when it does to do it after the weekly `distributeReward` calls for all existing gaugesAs this function assumes that `distributeReward` has been called during the week, it also assumes that the `startEpochSupply` parameter has been put up to date",
        "params": {
          "_newRate": "New ANGLE emission rate"
        }
      },
      "toggleGauge(address)": {
        "details": "It is impossible to kill a gauge in the `GaugeController` contract, for this reason killing of gauges takes place in the `AngleDistributor` contractThis means that people could vote for a gauge in the gauge controller contract but that rewards are not going to be distributed to it in the end: people would need to remove their weights on the gauge killed to end the diminution in rewardsIn the case of a gauge being killed, this function resets the timestamps at which this gauge has been approved and disapproves the gauge to spend the tokenIt should be cautiously called by governance as it could result in less ANGLE overall rewards than initially planned if people do not remove their voting weights to the killed gauge",
        "params": {
          "gaugeAddr": "Gauge to toggle the status of"
        }
      },
      "toggleInterfaceKnown(address)": {
        "details": "Gauge delegates that are built for automation should be toggled",
        "params": {
          "_delegateGauge": "Address of the gauge to change"
        }
      },
      "updateMiningParameters()": {
        "details": "Callable by any address, but only once per epoch"
      }
    },
    "title": "AngleDistributor",
    "version": 1
  },
  "userdoc": {
    "kind": "user",
    "methods": {
      "BASE()": {
        "notice": "Base used for computation"
      },
      "GOVERNOR_ROLE()": {
        "notice": "Role for governors only"
      },
      "GUARDIAN_ROLE()": {
        "notice": "Role for the guardian"
      },
      "RATE_REDUCTION_COEFFICIENT()": {
        "notice": "Reduction of the emission rate"
      },
      "RATE_REDUCTION_TIME()": {
        "notice": "Time at which the emission rate is updated"
      },
      "WEEK()": {
        "notice": "Length of a week in seconds"
      },
      "controller()": {
        "notice": "Address of the `GaugeController` contract"
      },
      "delegateGauge()": {
        "notice": "Address responsible for pulling rewards of type >= 2 gauges and distributing it to the associated contracts if there is not already an address delegated for this specific contract"
      },
      "delegateGauges(address)": {
        "notice": "Maps the address of a type >= 2 gauge to a delegate address responsible for giving rewards to the actual gauge"
      },
      "distributeReward(address)": {
        "notice": "Distributes rewards to a staking contract (also called gauge)"
      },
      "distributeRewardToMultipleGauges(address[])": {
        "notice": "Distributes rewards to multiple staking contracts"
      },
      "distributionsOn()": {
        "notice": "Whether ANGLE distribution through this contract is on or no"
      },
      "initialize(address,address,uint256,uint256,address,address,address)": {
        "notice": "Constructor of the contract"
      },
      "isInterfaceKnown(address)": {
        "notice": "Maps the address of a gauge delegate to whether this delegate supports the `notifyReward` interface and is therefore built for automation"
      },
      "killedGauges(address)": {
        "notice": "Maps the address of a gauge to whether it was killed or not A gauge killed in this contract cannot receive any rewards"
      },
      "lastTimeGaugePaid(address)": {
        "notice": "Maps the address of a gauge to the last time this gauge received rewards"
      },
      "miningEpoch()": {
        "notice": "Index of the current emission epoch Here also, this variable is not useful per se inside the smart contracts of the protocol, it is just an informational variable"
      },
      "rate()": {
        "notice": "ANGLE current emission rate, it is first defined in the initializer and then updated every week"
      },
      "recoverERC20(address,address,uint256)": {
        "notice": "Withdraws ERC20 tokens that could accrue on this contract"
      },
      "rewardToken()": {
        "notice": "Address of the ANGLE token given as a reward"
      },
      "setDelegateGauge(address,address,bool)": {
        "notice": "Sets a new delegate gauge for pulling rewards of a type >= 2 gauges or of all type >= 2 gauges"
      },
      "setGaugeController(address)": {
        "notice": "Sets a new gauge controller"
      },
      "setRate(uint256)": {
        "notice": "Changes the ANGLE emission rate"
      },
      "startEpochSupply()": {
        "notice": "Amount of ANGLE tokens distributed through staking at the start of the epoch This is an informational variable used to track how much has been distributed through liquidity mining"
      },
      "startEpochTime()": {
        "notice": "Timestamp at which the current emission epoch started"
      },
      "toggleDistributions()": {
        "notice": "Halts or activates distribution of rewards"
      },
      "toggleGauge(address)": {
        "notice": "Toggles the status of a gauge to either killed or unkilled"
      },
      "toggleInterfaceKnown(address)": {
        "notice": "Notifies that the interface of a gauge delegate is known or has changed"
      },
      "updateMiningParameters()": {
        "notice": "Updates mining rate and supply at the start of the epoch"
      }
    },
    "notice": "All the events used in `AngleDistributor` contract",
    "version": 1
  },
  "storageLayout": {
    "storage": [
      {
        "astId": 3228,
        "contract": "contracts/staking/AngleDistributor.sol:AngleDistributor",
        "label": "_initialized",
        "offset": 0,
        "slot": "0",
        "type": "t_bool"
      },
      {
        "astId": 3231,
        "contract": "contracts/staking/AngleDistributor.sol:AngleDistributor",
        "label": "_initializing",
        "offset": 1,
        "slot": "0",
        "type": "t_bool"
      },
      {
        "astId": 3395,
        "contract": "contracts/staking/AngleDistributor.sol:AngleDistributor",
        "label": "_status",
        "offset": 0,
        "slot": "1",
        "type": "t_uint256"
      },
      {
        "astId": 3438,
        "contract": "contracts/staking/AngleDistributor.sol:AngleDistributor",
        "label": "__gap",
        "offset": 0,
        "slot": "2",
        "type": "t_array(t_uint256)49_storage"
      },
      {
        "astId": 16730,
        "contract": "contracts/staking/AngleDistributor.sol:AngleDistributor",
        "label": "_roles",
        "offset": 0,
        "slot": "51",
        "type": "t_mapping(t_bytes32,t_struct(RoleData)16725_storage)"
      },
      {
        "astId": 17016,
        "contract": "contracts/staking/AngleDistributor.sol:AngleDistributor",
        "label": "__gap",
        "offset": 0,
        "slot": "52",
        "type": "t_array(t_uint256)49_storage"
      },
      {
        "astId": 37533,
        "contract": "contracts/staking/AngleDistributor.sol:AngleDistributor",
        "label": "lastTimeGaugePaid",
        "offset": 0,
        "slot": "101",
        "type": "t_mapping(t_address,t_uint256)"
      },
      {
        "astId": 37538,
        "contract": "contracts/staking/AngleDistributor.sol:AngleDistributor",
        "label": "killedGauges",
        "offset": 0,
        "slot": "102",
        "type": "t_mapping(t_address,t_bool)"
      },
      {
        "astId": 37543,
        "contract": "contracts/staking/AngleDistributor.sol:AngleDistributor",
        "label": "delegateGauges",
        "offset": 0,
        "slot": "103",
        "type": "t_mapping(t_address,t_address)"
      },
      {
        "astId": 37548,
        "contract": "contracts/staking/AngleDistributor.sol:AngleDistributor",
        "label": "isInterfaceKnown",
        "offset": 0,
        "slot": "104",
        "type": "t_mapping(t_address,t_bool)"
      },
      {
        "astId": 37552,
        "contract": "contracts/staking/AngleDistributor.sol:AngleDistributor",
        "label": "rewardToken",
        "offset": 0,
        "slot": "105",
        "type": "t_contract(IERC20)9459"
      },
      {
        "astId": 37556,
        "contract": "contracts/staking/AngleDistributor.sol:AngleDistributor",
        "label": "controller",
        "offset": 0,
        "slot": "106",
        "type": "t_contract(IGaugeController)22501"
      },
      {
        "astId": 37559,
        "contract": "contracts/staking/AngleDistributor.sol:AngleDistributor",
        "label": "delegateGauge",
        "offset": 0,
        "slot": "107",
        "type": "t_address"
      },
      {
        "astId": 37562,
        "contract": "contracts/staking/AngleDistributor.sol:AngleDistributor",
        "label": "rate",
        "offset": 0,
        "slot": "108",
        "type": "t_uint256"
      },
      {
        "astId": 37565,
        "contract": "contracts/staking/AngleDistributor.sol:AngleDistributor",
        "label": "startEpochTime",
        "offset": 0,
        "slot": "109",
        "type": "t_uint256"
      },
      {
        "astId": 37568,
        "contract": "contracts/staking/AngleDistributor.sol:AngleDistributor",
        "label": "startEpochSupply",
        "offset": 0,
        "slot": "110",
        "type": "t_uint256"
      },
      {
        "astId": 37571,
        "contract": "contracts/staking/AngleDistributor.sol:AngleDistributor",
        "label": "miningEpoch",
        "offset": 0,
        "slot": "111",
        "type": "t_uint256"
      },
      {
        "astId": 37574,
        "contract": "contracts/staking/AngleDistributor.sol:AngleDistributor",
        "label": "distributionsOn",
        "offset": 0,
        "slot": "112",
        "type": "t_bool"
      }
    ],
    "types": {
      "t_address": {
        "encoding": "inplace",
        "label": "address",
        "numberOfBytes": "20"
      },
      "t_array(t_uint256)49_storage": {
        "base": "t_uint256",
        "encoding": "inplace",
        "label": "uint256[49]",
        "numberOfBytes": "1568"
      },
      "t_bool": {
        "encoding": "inplace",
        "label": "bool",
        "numberOfBytes": "1"
      },
      "t_bytes32": {
        "encoding": "inplace",
        "label": "bytes32",
        "numberOfBytes": "32"
      },
      "t_contract(IERC20)9459": {
        "encoding": "inplace",
        "label": "contract IERC20",
        "numberOfBytes": "20"
      },
      "t_contract(IGaugeController)22501": {
        "encoding": "inplace",
        "label": "contract IGaugeController",
        "numberOfBytes": "20"
      },
      "t_mapping(t_address,t_address)": {
        "encoding": "mapping",
        "key": "t_address",
        "label": "mapping(address => address)",
        "numberOfBytes": "32",
        "value": "t_address"
      },
      "t_mapping(t_address,t_bool)": {
        "encoding": "mapping",
        "key": "t_address",
        "label": "mapping(address => bool)",
        "numberOfBytes": "32",
        "value": "t_bool"
      },
      "t_mapping(t_address,t_uint256)": {
        "encoding": "mapping",
        "key": "t_address",
        "label": "mapping(address => uint256)",
        "numberOfBytes": "32",
        "value": "t_uint256"
      },
      "t_mapping(t_bytes32,t_struct(RoleData)16725_storage)": {
        "encoding": "mapping",
        "key": "t_bytes32",
        "label": "mapping(bytes32 => struct AccessControlUpgradeable.RoleData)",
        "numberOfBytes": "32",
        "value": "t_struct(RoleData)16725_storage"
      },
      "t_struct(RoleData)16725_storage": {
        "encoding": "inplace",
        "label": "struct AccessControlUpgradeable.RoleData",
        "members": [
          {
            "astId": 16722,
            "contract": "contracts/staking/AngleDistributor.sol:AngleDistributor",
            "label": "members",
            "offset": 0,
            "slot": "0",
            "type": "t_mapping(t_address,t_bool)"
          },
          {
            "astId": 16724,
            "contract": "contracts/staking/AngleDistributor.sol:AngleDistributor",
            "label": "adminRole",
            "offset": 0,
            "slot": "1",
            "type": "t_bytes32"
          }
        ],
        "numberOfBytes": "64"
      },
      "t_uint256": {
        "encoding": "inplace",
        "label": "uint256",
        "numberOfBytes": "32"
      }
    }
  }
}