{
  "address": "0x4A5E967100CA28566CB2A39216992C6dB57e95A4",
  "abi": [
    {
      "inputs": [
        {
          "internalType": "contract IPoolManager",
          "name": "_poolManager",
          "type": "address"
        }
      ],
      "stateMutability": "nonpayable",
      "type": "constructor"
    },
    {
      "anonymous": false,
      "inputs": [
        {
          "indexed": false,
          "internalType": "uint256[]",
          "name": "_xBonusMalusBurn",
          "type": "uint256[]"
        },
        {
          "indexed": false,
          "internalType": "uint64[]",
          "name": "_yBonusMalusBurn",
          "type": "uint64[]"
        }
      ],
      "name": "FeeBurnUpdated",
      "type": "event"
    },
    {
      "anonymous": false,
      "inputs": [
        {
          "indexed": false,
          "internalType": "uint256[]",
          "name": "_xBonusMalusMint",
          "type": "uint256[]"
        },
        {
          "indexed": false,
          "internalType": "uint64[]",
          "name": "_yBonusMalusMint",
          "type": "uint64[]"
        }
      ],
      "name": "FeeMintUpdated",
      "type": "event"
    },
    {
      "anonymous": false,
      "inputs": [
        {
          "indexed": false,
          "internalType": "uint64",
          "name": "_haFeeDeposit",
          "type": "uint64"
        },
        {
          "indexed": false,
          "internalType": "uint64",
          "name": "_haFeeWithdraw",
          "type": "uint64"
        }
      ],
      "name": "HaFeesUpdated",
      "type": "event"
    },
    {
      "anonymous": false,
      "inputs": [
        {
          "indexed": true,
          "internalType": "bytes32",
          "name": "role",
          "type": "bytes32"
        },
        {
          "indexed": true,
          "internalType": "bytes32",
          "name": "previousAdminRole",
          "type": "bytes32"
        },
        {
          "indexed": true,
          "internalType": "bytes32",
          "name": "newAdminRole",
          "type": "bytes32"
        }
      ],
      "name": "RoleAdminChanged",
      "type": "event"
    },
    {
      "anonymous": false,
      "inputs": [
        {
          "indexed": true,
          "internalType": "bytes32",
          "name": "role",
          "type": "bytes32"
        },
        {
          "indexed": true,
          "internalType": "address",
          "name": "account",
          "type": "address"
        },
        {
          "indexed": true,
          "internalType": "address",
          "name": "sender",
          "type": "address"
        }
      ],
      "name": "RoleGranted",
      "type": "event"
    },
    {
      "anonymous": false,
      "inputs": [
        {
          "indexed": true,
          "internalType": "bytes32",
          "name": "role",
          "type": "bytes32"
        },
        {
          "indexed": true,
          "internalType": "address",
          "name": "account",
          "type": "address"
        },
        {
          "indexed": true,
          "internalType": "address",
          "name": "sender",
          "type": "address"
        }
      ],
      "name": "RoleRevoked",
      "type": "event"
    },
    {
      "anonymous": false,
      "inputs": [
        {
          "indexed": false,
          "internalType": "uint256[]",
          "name": "_xSlippageFee",
          "type": "uint256[]"
        },
        {
          "indexed": false,
          "internalType": "uint64[]",
          "name": "_ySlippageFee",
          "type": "uint64[]"
        }
      ],
      "name": "SlippageFeeUpdated",
      "type": "event"
    },
    {
      "anonymous": false,
      "inputs": [
        {
          "indexed": false,
          "internalType": "uint256[]",
          "name": "_xSlippage",
          "type": "uint256[]"
        },
        {
          "indexed": false,
          "internalType": "uint64[]",
          "name": "_ySlippage",
          "type": "uint64[]"
        }
      ],
      "name": "SlippageUpdated",
      "type": "event"
    },
    {
      "anonymous": false,
      "inputs": [
        {
          "indexed": false,
          "internalType": "uint256",
          "name": "_collatRatio",
          "type": "uint256"
        },
        {
          "indexed": false,
          "internalType": "uint64",
          "name": "_bonusMalusMint",
          "type": "uint64"
        },
        {
          "indexed": false,
          "internalType": "uint64",
          "name": "_bonusMalusBurn",
          "type": "uint64"
        },
        {
          "indexed": false,
          "internalType": "uint64",
          "name": "_slippage",
          "type": "uint64"
        },
        {
          "indexed": false,
          "internalType": "uint64",
          "name": "_slippageFee",
          "type": "uint64"
        }
      ],
      "name": "UserAndSLPFeesUpdated",
      "type": "event"
    },
    {
      "inputs": [],
      "name": "BASE_PARAMS_CASTED",
      "outputs": [
        {
          "internalType": "uint64",
          "name": "",
          "type": "uint64"
        }
      ],
      "stateMutability": "view",
      "type": "function"
    },
    {
      "inputs": [],
      "name": "DEFAULT_ADMIN_ROLE",
      "outputs": [
        {
          "internalType": "bytes32",
          "name": "",
          "type": "bytes32"
        }
      ],
      "stateMutability": "view",
      "type": "function"
    },
    {
      "inputs": [],
      "name": "GUARDIAN_ROLE",
      "outputs": [
        {
          "internalType": "bytes32",
          "name": "",
          "type": "bytes32"
        }
      ],
      "stateMutability": "view",
      "type": "function"
    },
    {
      "inputs": [],
      "name": "POOLMANAGER_ROLE",
      "outputs": [
        {
          "internalType": "bytes32",
          "name": "",
          "type": "bytes32"
        }
      ],
      "stateMutability": "view",
      "type": "function"
    },
    {
      "inputs": [
        {
          "internalType": "address[]",
          "name": "governorList",
          "type": "address[]"
        },
        {
          "internalType": "address",
          "name": "guardian",
          "type": "address"
        },
        {
          "internalType": "address",
          "name": "_perpetualManager",
          "type": "address"
        }
      ],
      "name": "deployCollateral",
      "outputs": [],
      "stateMutability": "nonpayable",
      "type": "function"
    },
    {
      "inputs": [
        {
          "internalType": "bytes32",
          "name": "role",
          "type": "bytes32"
        }
      ],
      "name": "getRoleAdmin",
      "outputs": [
        {
          "internalType": "bytes32",
          "name": "",
          "type": "bytes32"
        }
      ],
      "stateMutability": "view",
      "type": "function"
    },
    {
      "inputs": [
        {
          "internalType": "bytes32",
          "name": "role",
          "type": "bytes32"
        },
        {
          "internalType": "address",
          "name": "account",
          "type": "address"
        }
      ],
      "name": "grantRole",
      "outputs": [],
      "stateMutability": "nonpayable",
      "type": "function"
    },
    {
      "inputs": [],
      "name": "haFeeDeposit",
      "outputs": [
        {
          "internalType": "uint64",
          "name": "",
          "type": "uint64"
        }
      ],
      "stateMutability": "view",
      "type": "function"
    },
    {
      "inputs": [],
      "name": "haFeeWithdraw",
      "outputs": [
        {
          "internalType": "uint64",
          "name": "",
          "type": "uint64"
        }
      ],
      "stateMutability": "view",
      "type": "function"
    },
    {
      "inputs": [
        {
          "internalType": "bytes32",
          "name": "role",
          "type": "bytes32"
        },
        {
          "internalType": "address",
          "name": "account",
          "type": "address"
        }
      ],
      "name": "hasRole",
      "outputs": [
        {
          "internalType": "bool",
          "name": "",
          "type": "bool"
        }
      ],
      "stateMutability": "view",
      "type": "function"
    },
    {
      "inputs": [],
      "name": "perpetualManager",
      "outputs": [
        {
          "internalType": "contract IPerpetualManager",
          "name": "",
          "type": "address"
        }
      ],
      "stateMutability": "view",
      "type": "function"
    },
    {
      "inputs": [
        {
          "internalType": "bytes32",
          "name": "role",
          "type": "bytes32"
        },
        {
          "internalType": "address",
          "name": "account",
          "type": "address"
        }
      ],
      "name": "renounceRole",
      "outputs": [],
      "stateMutability": "nonpayable",
      "type": "function"
    },
    {
      "inputs": [
        {
          "internalType": "bytes32",
          "name": "role",
          "type": "bytes32"
        },
        {
          "internalType": "address",
          "name": "account",
          "type": "address"
        }
      ],
      "name": "revokeRole",
      "outputs": [],
      "stateMutability": "nonpayable",
      "type": "function"
    },
    {
      "inputs": [
        {
          "internalType": "uint256[]",
          "name": "xArray",
          "type": "uint256[]"
        },
        {
          "internalType": "uint64[]",
          "name": "yArray",
          "type": "uint64[]"
        },
        {
          "internalType": "uint8",
          "name": "typeChange",
          "type": "uint8"
        }
      ],
      "name": "setFees",
      "outputs": [],
      "stateMutability": "nonpayable",
      "type": "function"
    },
    {
      "inputs": [
        {
          "internalType": "uint64",
          "name": "_haFeeDeposit",
          "type": "uint64"
        },
        {
          "internalType": "uint64",
          "name": "_haFeeWithdraw",
          "type": "uint64"
        }
      ],
      "name": "setHAFees",
      "outputs": [],
      "stateMutability": "nonpayable",
      "type": "function"
    },
    {
      "inputs": [],
      "name": "stableMaster",
      "outputs": [
        {
          "internalType": "contract IStableMaster",
          "name": "",
          "type": "address"
        }
      ],
      "stateMutability": "view",
      "type": "function"
    },
    {
      "inputs": [],
      "name": "updateHA",
      "outputs": [],
      "stateMutability": "nonpayable",
      "type": "function"
    },
    {
      "inputs": [],
      "name": "updateUsersSLP",
      "outputs": [],
      "stateMutability": "nonpayable",
      "type": "function"
    },
    {
      "inputs": [
        {
          "internalType": "uint256",
          "name": "",
          "type": "uint256"
        }
      ],
      "name": "xBonusMalusBurn",
      "outputs": [
        {
          "internalType": "uint256",
          "name": "",
          "type": "uint256"
        }
      ],
      "stateMutability": "view",
      "type": "function"
    },
    {
      "inputs": [
        {
          "internalType": "uint256",
          "name": "",
          "type": "uint256"
        }
      ],
      "name": "xBonusMalusMint",
      "outputs": [
        {
          "internalType": "uint256",
          "name": "",
          "type": "uint256"
        }
      ],
      "stateMutability": "view",
      "type": "function"
    },
    {
      "inputs": [
        {
          "internalType": "uint256",
          "name": "",
          "type": "uint256"
        }
      ],
      "name": "xSlippage",
      "outputs": [
        {
          "internalType": "uint256",
          "name": "",
          "type": "uint256"
        }
      ],
      "stateMutability": "view",
      "type": "function"
    },
    {
      "inputs": [
        {
          "internalType": "uint256",
          "name": "",
          "type": "uint256"
        }
      ],
      "name": "xSlippageFee",
      "outputs": [
        {
          "internalType": "uint256",
          "name": "",
          "type": "uint256"
        }
      ],
      "stateMutability": "view",
      "type": "function"
    },
    {
      "inputs": [
        {
          "internalType": "uint256",
          "name": "",
          "type": "uint256"
        }
      ],
      "name": "yBonusMalusBurn",
      "outputs": [
        {
          "internalType": "uint64",
          "name": "",
          "type": "uint64"
        }
      ],
      "stateMutability": "view",
      "type": "function"
    },
    {
      "inputs": [
        {
          "internalType": "uint256",
          "name": "",
          "type": "uint256"
        }
      ],
      "name": "yBonusMalusMint",
      "outputs": [
        {
          "internalType": "uint64",
          "name": "",
          "type": "uint64"
        }
      ],
      "stateMutability": "view",
      "type": "function"
    },
    {
      "inputs": [
        {
          "internalType": "uint256",
          "name": "",
          "type": "uint256"
        }
      ],
      "name": "ySlippage",
      "outputs": [
        {
          "internalType": "uint64",
          "name": "",
          "type": "uint64"
        }
      ],
      "stateMutability": "view",
      "type": "function"
    },
    {
      "inputs": [
        {
          "internalType": "uint256",
          "name": "",
          "type": "uint256"
        }
      ],
      "name": "ySlippageFee",
      "outputs": [
        {
          "internalType": "uint64",
          "name": "",
          "type": "uint64"
        }
      ],
      "stateMutability": "view",
      "type": "function"
    }
  ],
  "transactionHash": "0xf6145716126ac1606167261359ccedc4f55c3b3e4a1b19b4581606cc3a33b91f",
  "args": [
    "0x53b981389Cfc5dCDA2DC2e903147B5DD0E985F44"
  ],
  "solcInputHash": "d2431381ca4dca5780c529a42e2dc53d",
  "bytecode": "0x60806040523480156200001157600080fd5b506040516200253538038062002535833981016040819052620000349162000249565b806001600160a01b0316636ac5dc466040518163ffffffff1660e01b815260040160206040518083038186803b1580156200006e57600080fd5b505afa15801562000083573d6000803e3d6000fd5b505050506040513d601f19601f82011682018060405250810190620000a9919062000249565b600080546001600160a01b0319166001600160a01b0392909216919091179055620000e4600080516020620025158339815191528262000141565b620000ff600080516020620025158339815191528062000151565b6200013a7f55435dd261a4b9b3364963f7738a7a662ad9c84396d64be3365284bb7f0a50416000805160206200251583398151915262000151565b5062000289565b6200014d8282620001a5565b5050565b6000828152600b6020526040902060010154819060405184907fbd79b86ffe0ab8e8776151514217cd7cacd52c909f66475c3af44e129f0b00ff90600090a46000918252600b602052604090912060010155565b6000828152600b602090815260408083206001600160a01b038516845290915290205460ff166200014d576000828152600b602090815260408083206001600160a01b03851684529091529020805460ff19166001179055620002053390565b6001600160a01b0316816001600160a01b0316837f2f8788117e7eff1d82e926ec794901d17c78024a50270940304540a733656f0d60405160405180910390a45050565b6000602082840312156200025c57600080fd5b8151620002698162000270565b9392505050565b6001600160a01b03811681146200028657600080fd5b50565b61227c80620002996000396000f3fe608060405234801561001057600080fd5b50600436106101ae5760003560e01c80634e6b13f1116100ee57806391d1485411610097578063c011c5b011610071578063c011c5b014610421578063ccde501e14610434578063d547741f14610447578063efce9edd1461045a57600080fd5b806391d14854146103b0578063a217fddf14610406578063aa4bef8d1461040e57600080fd5b80636ac5dc46116100c85780636ac5dc461461036a5780637597323d1461038a5780638d4045271461039d57600080fd5b80634e6b13f11461030a5780635d34082b1461031d5780635da3e6f51461036257600080fd5b806329ba62381161015b57806336568abe1161013557806336568abe146102b957806342746072146102cc57806343223da9146102ec5780634c405020146102f757600080fd5b806329ba6238146102675780632f2ff15d14610293578063329c3e3d146102a657600080fd5b8063232c28c41161018c578063232c28c41461020a578063248a9ca31461021d57806324ea54f41461024057600080fd5b80630c016dc0146101b35780631573087c146101ed57806320be420a14610200575b600080fd5b6101da7f5916f72c85af4ac6f7e34636ecc97619c4b2085da099a5d28f3e58436cfbe56281565b6040519081526020015b60405180910390f35b6101da6101fb366004611d53565b61046e565b61020861048f565b005b610208610218366004611db1565b61058c565b6101da61022b366004611d53565b6000908152600b602052604090206001015490565b6101da7f55435dd261a4b9b3364963f7738a7a662ad9c84396d64be3365284bb7f0a504181565b61027a610275366004611d53565b610607565b60405167ffffffffffffffff90911681526020016101e4565b6102086102a1366004611d6c565b610645565b61027a6102b4366004611d53565b610670565b6102086102c7366004611d6c565b610680565b600a5461027a9068010000000000000000900467ffffffffffffffff1681565b61027a633b9aca0081565b61027a610305366004611d53565b610712565b610208610318366004611c8c565b610722565b60015461033d9073ffffffffffffffffffffffffffffffffffffffff1681565b60405173ffffffffffffffffffffffffffffffffffffffff90911681526020016101e4565b610208610a55565b60005461033d9073ffffffffffffffffffffffffffffffffffffffff1681565b6101da610398366004611d53565b610c46565b6102086103ab366004611bcb565b610c56565b6103f66103be366004611d6c565b6000918252600b6020908152604080842073ffffffffffffffffffffffffffffffffffffffff93909316845291905290205460ff1690565b60405190151581526020016101e4565b6101da600081565b6101da61041c366004611d53565b610e67565b61027a61042f366004611d53565b610e77565b6101da610442366004611d53565b610e87565b610208610455366004611d6c565b610e97565b600a5461027a9067ffffffffffffffff1681565b6004818154811061047e57600080fd5b600091825260209091200154905081565b600a546040805167ffffffffffffffff80841682526801000000000000000090930490921660208301527f8c2ad681201eaf10e67f2557b964de22af47dca1eb2fb61416379905ade5e0c1910160405180910390a1600154600a546040517fc628a6f700000000000000000000000000000000000000000000000000000000815267ffffffffffffffff808316600483015268010000000000000000909204909116602482015273ffffffffffffffffffffffffffffffffffffffff9091169063c628a6f790604401600060405180830381600087803b15801561057257600080fd5b505af1158015610586573d6000803e3d6000fd5b50505050565b7f55435dd261a4b9b3364963f7738a7a662ad9c84396d64be3365284bb7f0a50416105b78133610ebd565b50600a805467ffffffffffffffff92831668010000000000000000027fffffffffffffffffffffffffffffffff000000000000000000000000000000009091169290931691909117919091179055565b6007818154811061061757600080fd5b9060005260206000209060049182820401919006600802915054906101000a900467ffffffffffffffff1681565b6000828152600b60205260409020600101546106618133610ebd565b61066b8383610f8f565b505050565b6003818154811061061757600080fd5b73ffffffffffffffffffffffffffffffffffffffff81163314610704576040517f08c379a000000000000000000000000000000000000000000000000000000000815260206004820152600260248201527f373100000000000000000000000000000000000000000000000000000000000060448201526064015b60405180910390fd5b61070e8282611083565b5050565b6009818154811061061757600080fd5b7f55435dd261a4b9b3364963f7738a7a662ad9c84396d64be3365284bb7f0a504161074d8133610ebd565b8251845114801561075f575060008351115b6107c5576040517f08c379a000000000000000000000000000000000000000000000000000000000815260206004820152600160248201527f350000000000000000000000000000000000000000000000000000000000000060448201526064016106fb565b60005b600184516107d691906120df565b811161089957801561088757846107ee6001836120df565b815181106107fe576107fe6121e8565b6020026020010151858281518110610818576108186121e8565b602002602001015111610887576040517f08c379a000000000000000000000000000000000000000000000000000000000815260206004820152600160248201527f370000000000000000000000000000000000000000000000000000000000000060448201526064016106fb565b8061089181612180565b9150506107c8565b508160ff166001141561090e5783516108b99060029060208701906119ee565b5082516108cd906003906020860190611a39565b507f282808efb3e9ee96e0e38e46472797400e1adcf286e677897d7b566b279d2fc060026003604051610901929190611e5c565b60405180910390a1610586565b8160ff166002141561097557835161092d9060049060208701906119ee565b508251610941906005906020860190611a39565b507fac73cc8727e7a285f6f27260964016bb8a3e79bc7f1eed15994d486d161f952260046005604051610901929190611e5c565b8160ff16600314156109e45783516109949060069060208701906119ee565b5082516109a8906007906020860190611a39565b506109b161113e565b7f4baeeda8a3b1ec443944dc906aee519e7239a4fea7e774772af5bb3c86b48b8460066007604051610901929190611e5c565b83516109f79060089060208701906119ee565b508251610a0b906009906020860190611a39565b50610a1461113e565b7fbcccb929773c04c1dc7062d7adea041d6b0bcdbb2d7743c1a655e018844dac3560086009604051610a47929190611e5c565b60405180910390a150505050565b60008060009054906101000a900473ffffffffffffffffffffffffffffffffffffffff1673ffffffffffffffffffffffffffffffffffffffff1663cd377c536040518163ffffffff1660e01b8152600401602060405180830381600087803b158015610ac057600080fd5b505af1158015610ad4573d6000803e3d6000fd5b505050506040513d601f19601f82011682018060405250810190610af89190611d98565b90506000610b098260026003611319565b90506000610b1a8360046005611319565b90506000610b2b8460066007611319565b90506000610b3c8560086009611319565b6040805187815267ffffffffffffffff87811660208301528681168284015285811660608301528316608082015290519192507fab79e7364d434b5fbbc74047c5f889087f2502936ec4d0d3df245a0cae08f5aa919081900360a00190a16000546040517f91a9ca4800000000000000000000000000000000000000000000000000000000815267ffffffffffffffff8087166004830152808616602483015280851660448301528316606482015273ffffffffffffffffffffffffffffffffffffffff909116906391a9ca4890608401600060405180830381600087803b158015610c2757600080fd5b505af1158015610c3b573d6000803e3d6000fd5b505050505050505050565b6002818154811061047e57600080fd5b7f5916f72c85af4ac6f7e34636ecc97619c4b2085da099a5d28f3e58436cfbe562610c818133610ebd565b600c54610100900460ff1680610c9a5750600c5460ff16155b610d26576040517f08c379a000000000000000000000000000000000000000000000000000000000815260206004820152602e60248201527f496e697469616c697a61626c653a20636f6e747261637420697320616c72656160448201527f647920696e697469616c697a656400000000000000000000000000000000000060648201526084016106fb565b600c54610100900460ff16158015610d6557600c80547fffffffffffffffffffffffffffffffffffffffffffffffffffffffffffff0000166101011790555b60005b8551811015610dc657610db47f55435dd261a4b9b3364963f7738a7a662ad9c84396d64be3365284bb7f0a5041878381518110610da757610da76121e8565b6020026020010151610f8f565b80610dbe81612180565b915050610d68565b50610df17f55435dd261a4b9b3364963f7738a7a662ad9c84396d64be3365284bb7f0a504185610f8f565b600180547fffffffffffffffffffffffff00000000000000000000000000000000000000001673ffffffffffffffffffffffffffffffffffffffff85161790558015610e6057600c80547fffffffffffffffffffffffffffffffffffffffffffffffffffffffffffff00ff1690555b5050505050565b6008818154811061047e57600080fd5b6005818154811061061757600080fd5b6006818154811061047e57600080fd5b6000828152600b6020526040902060010154610eb38133610ebd565b61066b8383611083565b6000828152600b6020908152604080832073ffffffffffffffffffffffffffffffffffffffff8516845290915290205460ff1661070e57610f158173ffffffffffffffffffffffffffffffffffffffff1660146117ab565b610f208360206117ab565b604051602001610f31929190611ddb565b604080517fffffffffffffffffffffffffffffffffffffffffffffffffffffffffffffffe0818403018152908290527f08c379a00000000000000000000000000000000000000000000000000000000082526106fb91600401611f8b565b6000828152600b6020908152604080832073ffffffffffffffffffffffffffffffffffffffff8516845290915290205460ff1661070e576000828152600b6020908152604080832073ffffffffffffffffffffffffffffffffffffffff85168452909152902080547fffffffffffffffffffffffffffffffffffffffffffffffffffffffffffffff001660011790556110253390565b73ffffffffffffffffffffffffffffffffffffffff168173ffffffffffffffffffffffffffffffffffffffff16837f2f8788117e7eff1d82e926ec794901d17c78024a50270940304540a733656f0d60405160405180910390a45050565b6000828152600b6020908152604080832073ffffffffffffffffffffffffffffffffffffffff8516845290915290205460ff161561070e576000828152600b6020908152604080832073ffffffffffffffffffffffffffffffffffffffff8516808552925280832080547fffffffffffffffffffffffffffffffffffffffffffffffffffffffffffffff0016905551339285917ff6391f5c32d9c69d2a47ea670b442974b53935d1edc7fd64eb21e047a839171b9190a45050565b6006546001118015906111545750600854600111155b156113175760005b60095461116b906001906120df565b811161131557600060098281548110611186576111866121e8565b6000918252602090912060048204015460039091166008026101000a900467ffffffffffffffff16111561130357633b9aca0067ffffffffffffffff16600982815481106111d6576111d66121e8565b6000918252602090912060048204015460039091166008026101000a900467ffffffffffffffff161115611266576040517f08c379a000000000000000000000000000000000000000000000000000000000815260206004820152600260248201527f333700000000000000000000000000000000000000000000000000000000000060448201526064016106fb565b60006112926008838154811061127e5761127e6121e8565b906000526020600020015460066007611319565b67ffffffffffffffff1611611303576040517f08c379a000000000000000000000000000000000000000000000000000000000815260206004820152600260248201527f333800000000000000000000000000000000000000000000000000000000000060448201526064016106fb565b8061130d81612180565b91505061115c565b505b565b8154600090839061132c906001906120df565b8154811061133c5761133c6121e8565b9060005260206000200154841061139e578254829061135d906001906120df565b8154811061136d5761136d6121e8565b90600052602060002090600491828204019190066008029054906101000a900467ffffffffffffffff1690506117a4565b826000815481106113b1576113b16121e8565b906000526020600020015484116113d5578160008154811061136d5761136d6121e8565b825460009081906113e8906001906120df565b905060005b60016113f984846120df565b111561145457600261140b84846120df565b6114159190612067565b61141f908461204f565b905086868281548110611434576114346121e8565b90600052602060002001541161144c578092506113ed565b8091506113ed565b6000858481548110611468576114686121e8565b90600052602060002090600491828204019190066008029054906101000a900467ffffffffffffffff1667ffffffffffffffff168684815481106114ae576114ae6121e8565b6000918252602090912060048204015460039091166008026101000a900467ffffffffffffffff16111561163f578684815481106114ee576114ee6121e8565b906000526020600020015487848154811061150b5761150b6121e8565b906000526020600020015461152091906120df565b878581548110611532576115326121e8565b90600052602060002001548961154891906120df565b87868154811061155a5761155a6121e8565b90600052602060002090600491828204019190066008029054906101000a900467ffffffffffffffff16888681548110611596576115966121e8565b90600052602060002090600491828204019190066008029054906101000a900467ffffffffffffffff166115ca91906120f6565b67ffffffffffffffff166115de91906120a2565b6115e89190612067565b8685815481106115fa576115fa6121e8565b90600052602060002090600491828204019190066008029054906101000a900467ffffffffffffffff1667ffffffffffffffff16611638919061204f565b905061179e565b868481548110611651576116516121e8565b906000526020600020015487848154811061166e5761166e6121e8565b906000526020600020015461168391906120df565b878581548110611695576116956121e8565b9060005260206000200154896116ab91906120df565b8785815481106116bd576116bd6121e8565b90600052602060002090600491828204019190066008029054906101000a900467ffffffffffffffff168887815481106116f9576116f96121e8565b90600052602060002090600491828204019190066008029054906101000a900467ffffffffffffffff1661172d91906120f6565b67ffffffffffffffff1661174191906120a2565b61174b9190612067565b86858154811061175d5761175d6121e8565b90600052602060002090600491828204019190066008029054906101000a900467ffffffffffffffff1667ffffffffffffffff1661179b91906120df565b90505b93505050505b9392505050565b606060006117ba8360026120a2565b6117c590600261204f565b67ffffffffffffffff8111156117dd576117dd612217565b6040519080825280601f01601f191660200182016040528015611807576020820181803683370190505b5090507f30000000000000000000000000000000000000000000000000000000000000008160008151811061183e5761183e6121e8565b60200101907effffffffffffffffffffffffffffffffffffffffffffffffffffffffffffff1916908160001a9053507f7800000000000000000000000000000000000000000000000000000000000000816001815181106118a1576118a16121e8565b60200101907effffffffffffffffffffffffffffffffffffffffffffffffffffffffffffff1916908160001a90535060006118dd8460026120a2565b6118e890600161204f565b90505b6001811115611985577f303132333435363738396162636465660000000000000000000000000000000085600f1660108110611929576119296121e8565b1a60f81b82828151811061193f5761193f6121e8565b60200101907effffffffffffffffffffffffffffffffffffffffffffffffffffffffffffff1916908160001a90535060049490941c9361197e8161214b565b90506118eb565b5083156117a4576040517f08c379a000000000000000000000000000000000000000000000000000000000815260206004820181905260248201527f537472696e67733a20686578206c656e67746820696e73756666696369656e7460448201526064016106fb565b828054828255906000526020600020908101928215611a29579160200282015b82811115611a29578251825591602001919060010190611a0e565b50611a35929150611aeb565b5090565b82805482825590600052602060002090600301600490048101928215611a295791602002820160005b83821115611aae57835183826101000a81548167ffffffffffffffff021916908367ffffffffffffffff1602179055509260200192600801602081600701049283019260010302611a62565b8015611ae25782816101000a81549067ffffffffffffffff0219169055600801602081600701049283019260010302611aae565b5050611a359291505b5b80821115611a355760008155600101611aec565b803573ffffffffffffffffffffffffffffffffffffffff81168114611b2457600080fd5b919050565b600082601f830112611b3a57600080fd5b81356020611b4f611b4a8361202b565b611fdc565b80838252828201915082860187848660051b8901011115611b6f57600080fd5b60005b85811015611b9557611b8382611ba2565b84529284019290840190600101611b72565b5090979650505050505050565b803567ffffffffffffffff81168114611b2457600080fd5b803560ff81168114611b2457600080fd5b600080600060608486031215611be057600080fd5b833567ffffffffffffffff811115611bf757600080fd5b8401601f81018613611c0857600080fd5b80356020611c18611b4a8361202b565b8083825282820191508285018a848660051b8801011115611c3857600080fd5b600095505b84861015611c6257611c4e81611b00565b835260019590950194918301918301611c3d565b509650611c729050878201611b00565b9450505050611c8360408501611b00565b90509250925092565b600080600060608486031215611ca157600080fd5b833567ffffffffffffffff80821115611cb957600080fd5b818601915086601f830112611ccd57600080fd5b81356020611cdd611b4a8361202b565b8083825282820191508286018b848660051b8901011115611cfd57600080fd5b600096505b84871015611d20578035835260019690960195918301918301611d02565b5097505087013592505080821115611d3757600080fd5b50611d4486828701611b29565b925050611c8360408501611bba565b600060208284031215611d6557600080fd5b5035919050565b60008060408385031215611d7f57600080fd5b82359150611d8f60208401611b00565b90509250929050565b600060208284031215611daa57600080fd5b5051919050565b60008060408385031215611dc457600080fd5b611dcd83611ba2565b9150611d8f60208401611ba2565b7f416363657373436f6e74726f6c3a206163636f756e7420000000000000000000815260008351611e1381601785016020880161211f565b7f206973206d697373696e6720726f6c65200000000000000000000000000000006017918401918201528351611e5081602884016020880161211f565b01602801949350505050565b600060408083018184528086548083526060925082860191508760005260208060002060005b83811015611e9e57815485529382019360019182019101611e82565b505086830381880152875480845260008981526020808220950193505b81600382011015611f0757845467ffffffffffffffff808216865281891c811685870152608082811c9091168987015260c09190911c8786015260019095019490930192600401611ebb565b8454955081811015611f285767ffffffffffffffff86168452928201926001015b81811015611f475785871c67ffffffffffffffff168452928201926001015b81811015611f6857608086901c67ffffffffffffffff168452928201926001015b81811015611f7c5760c086901c8452928201925b50919998505050505050505050565b6020815260008251806020840152611faa81604085016020870161211f565b601f017fffffffffffffffffffffffffffffffffffffffffffffffffffffffffffffffe0169190910160400192915050565b604051601f82017fffffffffffffffffffffffffffffffffffffffffffffffffffffffffffffffe016810167ffffffffffffffff8111828210171561202357612023612217565b604052919050565b600067ffffffffffffffff82111561204557612045612217565b5060051b60200190565b60008219821115612062576120626121b9565b500190565b60008261209d577f4e487b7100000000000000000000000000000000000000000000000000000000600052601260045260246000fd5b500490565b6000817fffffffffffffffffffffffffffffffffffffffffffffffffffffffffffffffff04831182151516156120da576120da6121b9565b500290565b6000828210156120f1576120f16121b9565b500390565b600067ffffffffffffffff83811690831681811015612117576121176121b9565b039392505050565b60005b8381101561213a578181015183820152602001612122565b838111156105865750506000910152565b60008161215a5761215a6121b9565b507fffffffffffffffffffffffffffffffffffffffffffffffffffffffffffffffff0190565b60007fffffffffffffffffffffffffffffffffffffffffffffffffffffffffffffffff8214156121b2576121b26121b9565b5060010190565b7f4e487b7100000000000000000000000000000000000000000000000000000000600052601160045260246000fd5b7f4e487b7100000000000000000000000000000000000000000000000000000000600052603260045260246000fd5b7f4e487b7100000000000000000000000000000000000000000000000000000000600052604160045260246000fdfea264697066735822122014918df964b0dfe7e1733f7ae1442a40873f331e7a2320378a21c646897109d564736f6c634300080700335916f72c85af4ac6f7e34636ecc97619c4b2085da099a5d28f3e58436cfbe562",
  "devdoc": {
    "author": "Angle Core Team",
    "details": "This contract interacts with fee parameters for a given stablecoin/collateral pair`FeeManager` contains all the functions that keepers can call to update parameters in the `StableMaster` and `PerpetualManager` contractsThese parameters need to be updated by keepers because they depend on variables, like the collateral ratio, that are too expensive to compute each time transactions that would need it occur",
    "kind": "dev",
    "methods": {
      "constructor": {
        "details": "The `_poolManager` address is used to grant the correct role. It does not need to be stored by the contractThere is no need to do a zero address check on the `_poolManager` as if the zero address is passed the function will revert when trying to fetch the `StableMaster`",
        "params": {
          "_poolManager": "`PoolManager` contract handling the collateral"
        }
      },
      "deployCollateral(address[],address,address)": {
        "details": "`GUARDIAN_ROLE` can then directly be granted or revoked by the corresponding `PoolManager` As `POOLMANAGER_ROLE` is admin of `GUARDIAN_ROLE`, it corresponds to the intended behaviour of roles",
        "params": {
          "_perpetualManager": "`PerpetualManager` contract handling the perpetuals of the pool",
          "governorList": "List of the governor addresses of the protocol",
          "guardian": "Guardian address of the protocol"
        }
      },
      "getRoleAdmin(bytes32)": {
        "details": "Returns the admin role that controls `role`. See {grantRole} and {revokeRole}. To change a role's admin, use {_setRoleAdmin}."
      },
      "grantRole(bytes32,address)": {
        "details": "Grants `role` to `account`. If `account` had not been already granted `role`, emits a {RoleGranted} event. Requirements: - the caller must have ``role``'s admin role."
      },
      "hasRole(bytes32,address)": {
        "details": "Returns `true` if `account` has been granted `role`."
      },
      "renounceRole(bytes32,address)": {
        "details": "Revokes `role` from the calling account. Roles are often managed via {grantRole} and {revokeRole}: this function's purpose is to provide a mechanism for accounts to lose their privileges if they are compromised (such as when a trusted device is misplaced). If the calling account had been granted `role`, emits a {RoleRevoked} event. Requirements: - the caller must be `account`."
      },
      "revokeRole(bytes32,address)": {
        "details": "Revokes `role` from `account`. If `account` had been granted `role`, emits a {RoleRevoked} event. Requirements: - the caller must have ``role``'s admin role."
      },
      "setFees(uint256[],uint64[],uint8)": {
        "details": "For `typeChange = 1`, `bonusMalusMint` fees are updatedFor `typeChange = 2`, `bonusMalusBurn` fees are updatedFor `typeChange = 3`, `slippage` values are updatedFor other values of `typeChange`, `slippageFee` values are updated",
        "params": {
          "typeChange": "Type of parameter to change",
          "xArray": "New collateral ratio thresholds (in ascending order)",
          "yArray": "New fees or values for the parameters at thresholds"
        }
      },
      "setHAFees(uint64,uint64)": {
        "params": {
          "_haFeeDeposit": "New parameter to modify deposit fee for HAs",
          "_haFeeWithdraw": "New parameter to modify withdraw fee for HAs"
        }
      },
      "updateHA()": {
        "details": "This function updates:     - The part of the fee taken from HAs when they open a perpetual or add collateral in it. This allows        governance to add penalties or bonuses in some occasions to HAs opening their perpetuals     - The part of the fee taken from the HA when they withdraw collateral from a perpetual. This allows       governance to add penalty or bonuses in some occasions to HAs closing their perpetualsPenalties or bonuses for HAs should almost never be usedIn the `PerpetualManager` contract, these parameters are multiplied to the fee amount depending on the HA hedge ratio to get the exact fee amount for HAsFor the moment, these parameters do not depend on the collateral ratio, and they are just an extra element that governance can play on to correct fees taken for HAs"
      },
      "updateUsersSLP()": {
        "details": "This function updates: \t-\t`bonusMalusMint`: part of the fee induced by a user minting depending on the collateral ratio                   In normal times, no fees are taken for that, and so this fee should be equal to `BASE_PARAMS`\t\t-\t`bonusMalusBurn`: part of the fee induced by a user burning depending on the collateral ratio\t\t-\tSlippage: what's given to SLPs compared with their claim when they exit\t\t-\tSlippageFee: that is the portion of fees that is put aside because the protocol         is not well collateralized`bonusMalusMint` and `bonusMalusBurn` allow governance to add penalties or bonuses for users minting and burning in some situations of collateral ratio. These parameters are multiplied to the fee amount depending on the hedge ratio by Hedging Agents to get the exact fee induced to the users"
      }
    },
    "title": "FeeManager",
    "version": 1
  },
  "userdoc": {
    "kind": "user",
    "methods": {
      "GUARDIAN_ROLE()": {
        "notice": "Role for guardians and governors"
      },
      "POOLMANAGER_ROLE()": {
        "notice": "Role for `PoolManager` only"
      },
      "constructor": {
        "notice": "Deploys the `FeeManager` contract for a pair stablecoin/collateral"
      },
      "deployCollateral(address[],address,address)": {
        "notice": "Initializes the governor and guardian roles of the contract as well as the reference to the `perpetualManager` contract"
      },
      "haFeeDeposit()": {
        "notice": "Bonus - Malus HA deposit Fee, means that if the `fee > BASE_PARAMS` then HAs incur a malus and will have larger fees, while `fee < BASE_PARAMS` they incur a smaller fee than what they would have if fees just consisted in what was obtained using hedge ratio"
      },
      "haFeeWithdraw()": {
        "notice": "Bonus - Malus HA withdraw Fee"
      },
      "perpetualManager()": {
        "notice": "Address of the `PerpetualManager` corresponding to this contract This reference cannot be modified"
      },
      "setFees(uint256[],uint64[],uint8)": {
        "notice": "Sets the x (i.e. thresholds of collateral ratio) array / y (i.e. value of fees at threshold)-array for users minting, burning, for SLPs withdrawal slippage or for the slippage fee when updating the exchange rate between sanTokens and collateral"
      },
      "setHAFees(uint64,uint64)": {
        "notice": "Sets the extra fees that can be used when HAs deposit or withdraw collateral from the protocol"
      },
      "stableMaster()": {
        "notice": "Address of the `StableMaster` contract corresponding to this contract This reference cannot be modified"
      },
      "updateHA()": {
        "notice": "Updates HA fees associated to the pair stablecoin/collateral in the `PerpetualManager` contract"
      },
      "updateUsersSLP()": {
        "notice": "Updates the SLP and Users fees associated to the pair stablecoin/collateral in the `StableMaster` contract"
      },
      "xBonusMalusBurn(uint256)": {
        "notice": "Values of the collateral ratio where burn transaction fees will change"
      },
      "xBonusMalusMint(uint256)": {
        "notice": "Bonus - Malus Fee, means that if the `fee > BASE_PARAMS` then agents incur a malus and will have larger fees, while `fee < BASE_PARAMS` they incur a smaller fee than what they would have if fees just consisted in what was obtained using the hedge ratioValues of the collateral ratio where mint transaction fees will change for users It should be ranked in ascending order"
      },
      "xSlippage(uint256)": {
        "notice": "Values of the collateral ratio where the slippage factor for SLPs exiting will evolve"
      },
      "xSlippageFee(uint256)": {
        "notice": "Values of the collateral ratio where the slippage fee, that is the portion of the fees that does not come to SLPs although changes"
      },
      "yBonusMalusBurn(uint256)": {
        "notice": "Values of the bonus/malus on the burn fees at the points of collateral ratio in the array above"
      },
      "yBonusMalusMint(uint256)": {
        "notice": "Values of the bonus/malus on the mint fees at the points of collateral ratio in the array above The evolution of the fees when collateral ratio is between two threshold values is linear"
      },
      "ySlippage(uint256)": {
        "notice": "Slippage factor at the values of collateral ratio above"
      },
      "ySlippageFee(uint256)": {
        "notice": "Slippage fee value at the values of collateral ratio above"
      }
    },
    "version": 1
  },
  "storageLayout": {
    "storage": [
      {
        "astId": 18041,
        "contract": "contracts/feeManager/FeeManager.sol:FeeManager",
        "label": "stableMaster",
        "offset": 0,
        "slot": "0",
        "type": "t_contract(IStableMaster)23188"
      },
      {
        "astId": 18045,
        "contract": "contracts/feeManager/FeeManager.sol:FeeManager",
        "label": "perpetualManager",
        "offset": 0,
        "slot": "1",
        "type": "t_contract(IPerpetualManager)22705"
      },
      {
        "astId": 18049,
        "contract": "contracts/feeManager/FeeManager.sol:FeeManager",
        "label": "xBonusMalusMint",
        "offset": 0,
        "slot": "2",
        "type": "t_array(t_uint256)dyn_storage"
      },
      {
        "astId": 18053,
        "contract": "contracts/feeManager/FeeManager.sol:FeeManager",
        "label": "yBonusMalusMint",
        "offset": 0,
        "slot": "3",
        "type": "t_array(t_uint64)dyn_storage"
      },
      {
        "astId": 18057,
        "contract": "contracts/feeManager/FeeManager.sol:FeeManager",
        "label": "xBonusMalusBurn",
        "offset": 0,
        "slot": "4",
        "type": "t_array(t_uint256)dyn_storage"
      },
      {
        "astId": 18061,
        "contract": "contracts/feeManager/FeeManager.sol:FeeManager",
        "label": "yBonusMalusBurn",
        "offset": 0,
        "slot": "5",
        "type": "t_array(t_uint64)dyn_storage"
      },
      {
        "astId": 18065,
        "contract": "contracts/feeManager/FeeManager.sol:FeeManager",
        "label": "xSlippage",
        "offset": 0,
        "slot": "6",
        "type": "t_array(t_uint256)dyn_storage"
      },
      {
        "astId": 18069,
        "contract": "contracts/feeManager/FeeManager.sol:FeeManager",
        "label": "ySlippage",
        "offset": 0,
        "slot": "7",
        "type": "t_array(t_uint64)dyn_storage"
      },
      {
        "astId": 18073,
        "contract": "contracts/feeManager/FeeManager.sol:FeeManager",
        "label": "xSlippageFee",
        "offset": 0,
        "slot": "8",
        "type": "t_array(t_uint256)dyn_storage"
      },
      {
        "astId": 18077,
        "contract": "contracts/feeManager/FeeManager.sol:FeeManager",
        "label": "ySlippageFee",
        "offset": 0,
        "slot": "9",
        "type": "t_array(t_uint64)dyn_storage"
      },
      {
        "astId": 18080,
        "contract": "contracts/feeManager/FeeManager.sol:FeeManager",
        "label": "haFeeDeposit",
        "offset": 0,
        "slot": "10",
        "type": "t_uint64"
      },
      {
        "astId": 18083,
        "contract": "contracts/feeManager/FeeManager.sol:FeeManager",
        "label": "haFeeWithdraw",
        "offset": 8,
        "slot": "10",
        "type": "t_uint64"
      },
      {
        "astId": 16345,
        "contract": "contracts/feeManager/FeeManager.sol:FeeManager",
        "label": "_roles",
        "offset": 0,
        "slot": "11",
        "type": "t_mapping(t_bytes32,t_struct(RoleData)16340_storage)"
      },
      {
        "astId": 3228,
        "contract": "contracts/feeManager/FeeManager.sol:FeeManager",
        "label": "_initialized",
        "offset": 0,
        "slot": "12",
        "type": "t_bool"
      },
      {
        "astId": 3231,
        "contract": "contracts/feeManager/FeeManager.sol:FeeManager",
        "label": "_initializing",
        "offset": 1,
        "slot": "12",
        "type": "t_bool"
      }
    ],
    "types": {
      "t_address": {
        "encoding": "inplace",
        "label": "address",
        "numberOfBytes": "20"
      },
      "t_array(t_uint256)dyn_storage": {
        "base": "t_uint256",
        "encoding": "dynamic_array",
        "label": "uint256[]",
        "numberOfBytes": "32"
      },
      "t_array(t_uint64)dyn_storage": {
        "base": "t_uint64",
        "encoding": "dynamic_array",
        "label": "uint64[]",
        "numberOfBytes": "32"
      },
      "t_bool": {
        "encoding": "inplace",
        "label": "bool",
        "numberOfBytes": "1"
      },
      "t_bytes32": {
        "encoding": "inplace",
        "label": "bytes32",
        "numberOfBytes": "32"
      },
      "t_contract(IPerpetualManager)22705": {
        "encoding": "inplace",
        "label": "contract IPerpetualManager",
        "numberOfBytes": "20"
      },
      "t_contract(IStableMaster)23188": {
        "encoding": "inplace",
        "label": "contract IStableMaster",
        "numberOfBytes": "20"
      },
      "t_mapping(t_address,t_bool)": {
        "encoding": "mapping",
        "key": "t_address",
        "label": "mapping(address => bool)",
        "numberOfBytes": "32",
        "value": "t_bool"
      },
      "t_mapping(t_bytes32,t_struct(RoleData)16340_storage)": {
        "encoding": "mapping",
        "key": "t_bytes32",
        "label": "mapping(bytes32 => struct AccessControl.RoleData)",
        "numberOfBytes": "32",
        "value": "t_struct(RoleData)16340_storage"
      },
      "t_struct(RoleData)16340_storage": {
        "encoding": "inplace",
        "label": "struct AccessControl.RoleData",
        "members": [
          {
            "astId": 16337,
            "contract": "contracts/feeManager/FeeManager.sol:FeeManager",
            "label": "members",
            "offset": 0,
            "slot": "0",
            "type": "t_mapping(t_address,t_bool)"
          },
          {
            "astId": 16339,
            "contract": "contracts/feeManager/FeeManager.sol:FeeManager",
            "label": "adminRole",
            "offset": 0,
            "slot": "1",
            "type": "t_bytes32"
          }
        ],
        "numberOfBytes": "64"
      },
      "t_uint256": {
        "encoding": "inplace",
        "label": "uint256",
        "numberOfBytes": "32"
      },
      "t_uint64": {
        "encoding": "inplace",
        "label": "uint64",
        "numberOfBytes": "8"
      }
    }
  }
}