{
  "address": "0x9aD7e7b0877582E14c17702EecF49018DD6f2367",
  "abi": [
    {
      "name": "CommitOwnership",
      "inputs": [
        {
          "name": "admin",
          "type": "address",
          "indexed": false
        }
      ],
      "anonymous": false,
      "type": "event"
    },
    {
      "name": "ApplyOwnership",
      "inputs": [
        {
          "name": "admin",
          "type": "address",
          "indexed": false
        }
      ],
      "anonymous": false,
      "type": "event"
    },
    {
      "name": "AddType",
      "inputs": [
        {
          "name": "name",
          "type": "string",
          "indexed": false
        },
        {
          "name": "type_id",
          "type": "int128",
          "indexed": false
        }
      ],
      "anonymous": false,
      "type": "event"
    },
    {
      "name": "NewTypeWeight",
      "inputs": [
        {
          "name": "type_id",
          "type": "int128",
          "indexed": false
        },
        {
          "name": "time",
          "type": "uint256",
          "indexed": false
        },
        {
          "name": "weight",
          "type": "uint256",
          "indexed": false
        },
        {
          "name": "total_weight",
          "type": "uint256",
          "indexed": false
        }
      ],
      "anonymous": false,
      "type": "event"
    },
    {
      "name": "NewGaugeWeight",
      "inputs": [
        {
          "name": "gauge_address",
          "type": "address",
          "indexed": false
        },
        {
          "name": "time",
          "type": "uint256",
          "indexed": false
        },
        {
          "name": "weight",
          "type": "uint256",
          "indexed": false
        },
        {
          "name": "total_weight",
          "type": "uint256",
          "indexed": false
        }
      ],
      "anonymous": false,
      "type": "event"
    },
    {
      "name": "VoteForGauge",
      "inputs": [
        {
          "name": "time",
          "type": "uint256",
          "indexed": false
        },
        {
          "name": "user",
          "type": "address",
          "indexed": false
        },
        {
          "name": "gauge_addr",
          "type": "address",
          "indexed": false
        },
        {
          "name": "weight",
          "type": "uint256",
          "indexed": false
        }
      ],
      "anonymous": false,
      "type": "event"
    },
    {
      "name": "NewGauge",
      "inputs": [
        {
          "name": "addr",
          "type": "address",
          "indexed": false
        },
        {
          "name": "gauge_type",
          "type": "int128",
          "indexed": false
        },
        {
          "name": "weight",
          "type": "uint256",
          "indexed": false
        }
      ],
      "anonymous": false,
      "type": "event"
    },
    {
      "name": "KilledGauge",
      "inputs": [
        {
          "name": "addr",
          "type": "address",
          "indexed": false
        }
      ],
      "anonymous": false,
      "type": "event"
    },
    {
      "stateMutability": "nonpayable",
      "type": "constructor",
      "inputs": [
        {
          "name": "_token",
          "type": "address"
        },
        {
          "name": "_voting_escrow",
          "type": "address"
        },
        {
          "name": "_admin",
          "type": "address"
        }
      ],
      "outputs": []
    },
    {
      "stateMutability": "nonpayable",
      "type": "function",
      "name": "commit_transfer_ownership",
      "inputs": [
        {
          "name": "addr",
          "type": "address"
        }
      ],
      "outputs": []
    },
    {
      "stateMutability": "nonpayable",
      "type": "function",
      "name": "accept_transfer_ownership",
      "inputs": [],
      "outputs": []
    },
    {
      "stateMutability": "view",
      "type": "function",
      "name": "gauge_types",
      "inputs": [
        {
          "name": "_addr",
          "type": "address"
        }
      ],
      "outputs": [
        {
          "name": "",
          "type": "int128"
        }
      ]
    },
    {
      "stateMutability": "nonpayable",
      "type": "function",
      "name": "add_gauge",
      "inputs": [
        {
          "name": "addr",
          "type": "address"
        },
        {
          "name": "gauge_type",
          "type": "int128"
        }
      ],
      "outputs": []
    },
    {
      "stateMutability": "nonpayable",
      "type": "function",
      "name": "add_gauge",
      "inputs": [
        {
          "name": "addr",
          "type": "address"
        },
        {
          "name": "gauge_type",
          "type": "int128"
        },
        {
          "name": "weight",
          "type": "uint256"
        }
      ],
      "outputs": []
    },
    {
      "stateMutability": "nonpayable",
      "type": "function",
      "name": "checkpoint",
      "inputs": [],
      "outputs": []
    },
    {
      "stateMutability": "nonpayable",
      "type": "function",
      "name": "checkpoint_gauge",
      "inputs": [
        {
          "name": "addr",
          "type": "address"
        }
      ],
      "outputs": []
    },
    {
      "stateMutability": "view",
      "type": "function",
      "name": "gauge_relative_weight",
      "inputs": [
        {
          "name": "addr",
          "type": "address"
        }
      ],
      "outputs": [
        {
          "name": "",
          "type": "uint256"
        }
      ]
    },
    {
      "stateMutability": "view",
      "type": "function",
      "name": "gauge_relative_weight",
      "inputs": [
        {
          "name": "addr",
          "type": "address"
        },
        {
          "name": "time",
          "type": "uint256"
        }
      ],
      "outputs": [
        {
          "name": "",
          "type": "uint256"
        }
      ]
    },
    {
      "stateMutability": "nonpayable",
      "type": "function",
      "name": "gauge_relative_weight_write",
      "inputs": [
        {
          "name": "addr",
          "type": "address"
        }
      ],
      "outputs": [
        {
          "name": "",
          "type": "uint256"
        }
      ]
    },
    {
      "stateMutability": "nonpayable",
      "type": "function",
      "name": "gauge_relative_weight_write",
      "inputs": [
        {
          "name": "addr",
          "type": "address"
        },
        {
          "name": "time",
          "type": "uint256"
        }
      ],
      "outputs": [
        {
          "name": "",
          "type": "uint256"
        }
      ]
    },
    {
      "stateMutability": "nonpayable",
      "type": "function",
      "name": "add_type",
      "inputs": [
        {
          "name": "_name",
          "type": "string"
        }
      ],
      "outputs": []
    },
    {
      "stateMutability": "nonpayable",
      "type": "function",
      "name": "add_type",
      "inputs": [
        {
          "name": "_name",
          "type": "string"
        },
        {
          "name": "weight",
          "type": "uint256"
        }
      ],
      "outputs": []
    },
    {
      "stateMutability": "nonpayable",
      "type": "function",
      "name": "change_type_weight",
      "inputs": [
        {
          "name": "type_id",
          "type": "int128"
        },
        {
          "name": "weight",
          "type": "uint256"
        }
      ],
      "outputs": []
    },
    {
      "stateMutability": "nonpayable",
      "type": "function",
      "name": "change_gauge_weight",
      "inputs": [
        {
          "name": "addr",
          "type": "address"
        },
        {
          "name": "weight",
          "type": "uint256"
        }
      ],
      "outputs": []
    },
    {
      "stateMutability": "nonpayable",
      "type": "function",
      "name": "vote_for_gauge_weights",
      "inputs": [
        {
          "name": "_gauge_addr",
          "type": "address"
        },
        {
          "name": "_user_weight",
          "type": "uint256"
        }
      ],
      "outputs": []
    },
    {
      "stateMutability": "view",
      "type": "function",
      "name": "get_gauge_weight",
      "inputs": [
        {
          "name": "addr",
          "type": "address"
        }
      ],
      "outputs": [
        {
          "name": "",
          "type": "uint256"
        }
      ]
    },
    {
      "stateMutability": "view",
      "type": "function",
      "name": "get_type_weight",
      "inputs": [
        {
          "name": "type_id",
          "type": "int128"
        }
      ],
      "outputs": [
        {
          "name": "",
          "type": "uint256"
        }
      ]
    },
    {
      "stateMutability": "view",
      "type": "function",
      "name": "get_total_weight",
      "inputs": [],
      "outputs": [
        {
          "name": "",
          "type": "uint256"
        }
      ]
    },
    {
      "stateMutability": "view",
      "type": "function",
      "name": "get_weights_sum_per_type",
      "inputs": [
        {
          "name": "type_id",
          "type": "int128"
        }
      ],
      "outputs": [
        {
          "name": "",
          "type": "uint256"
        }
      ]
    },
    {
      "stateMutability": "view",
      "type": "function",
      "name": "admin",
      "inputs": [],
      "outputs": [
        {
          "name": "",
          "type": "address"
        }
      ]
    },
    {
      "stateMutability": "view",
      "type": "function",
      "name": "future_admin",
      "inputs": [],
      "outputs": [
        {
          "name": "",
          "type": "address"
        }
      ]
    },
    {
      "stateMutability": "view",
      "type": "function",
      "name": "token",
      "inputs": [],
      "outputs": [
        {
          "name": "",
          "type": "address"
        }
      ]
    },
    {
      "stateMutability": "view",
      "type": "function",
      "name": "voting_escrow",
      "inputs": [],
      "outputs": [
        {
          "name": "",
          "type": "address"
        }
      ]
    },
    {
      "stateMutability": "view",
      "type": "function",
      "name": "n_gauge_types",
      "inputs": [],
      "outputs": [
        {
          "name": "",
          "type": "int128"
        }
      ]
    },
    {
      "stateMutability": "view",
      "type": "function",
      "name": "n_gauges",
      "inputs": [],
      "outputs": [
        {
          "name": "",
          "type": "int128"
        }
      ]
    },
    {
      "stateMutability": "view",
      "type": "function",
      "name": "gauge_type_names",
      "inputs": [
        {
          "name": "arg0",
          "type": "int128"
        }
      ],
      "outputs": [
        {
          "name": "",
          "type": "string"
        }
      ]
    },
    {
      "stateMutability": "view",
      "type": "function",
      "name": "gauges",
      "inputs": [
        {
          "name": "arg0",
          "type": "uint256"
        }
      ],
      "outputs": [
        {
          "name": "",
          "type": "address"
        }
      ]
    },
    {
      "stateMutability": "view",
      "type": "function",
      "name": "vote_user_slopes",
      "inputs": [
        {
          "name": "arg0",
          "type": "address"
        },
        {
          "name": "arg1",
          "type": "address"
        }
      ],
      "outputs": [
        {
          "name": "slope",
          "type": "uint256"
        },
        {
          "name": "power",
          "type": "uint256"
        },
        {
          "name": "end",
          "type": "uint256"
        }
      ]
    },
    {
      "stateMutability": "view",
      "type": "function",
      "name": "vote_user_power",
      "inputs": [
        {
          "name": "arg0",
          "type": "address"
        }
      ],
      "outputs": [
        {
          "name": "",
          "type": "uint256"
        }
      ]
    },
    {
      "stateMutability": "view",
      "type": "function",
      "name": "last_user_vote",
      "inputs": [
        {
          "name": "arg0",
          "type": "address"
        },
        {
          "name": "arg1",
          "type": "address"
        }
      ],
      "outputs": [
        {
          "name": "",
          "type": "uint256"
        }
      ]
    },
    {
      "stateMutability": "view",
      "type": "function",
      "name": "points_weight",
      "inputs": [
        {
          "name": "arg0",
          "type": "address"
        },
        {
          "name": "arg1",
          "type": "uint256"
        }
      ],
      "outputs": [
        {
          "name": "bias",
          "type": "uint256"
        },
        {
          "name": "slope",
          "type": "uint256"
        }
      ]
    },
    {
      "stateMutability": "view",
      "type": "function",
      "name": "time_weight",
      "inputs": [
        {
          "name": "arg0",
          "type": "address"
        }
      ],
      "outputs": [
        {
          "name": "",
          "type": "uint256"
        }
      ]
    },
    {
      "stateMutability": "view",
      "type": "function",
      "name": "points_sum",
      "inputs": [
        {
          "name": "arg0",
          "type": "int128"
        },
        {
          "name": "arg1",
          "type": "uint256"
        }
      ],
      "outputs": [
        {
          "name": "bias",
          "type": "uint256"
        },
        {
          "name": "slope",
          "type": "uint256"
        }
      ]
    },
    {
      "stateMutability": "view",
      "type": "function",
      "name": "time_sum",
      "inputs": [
        {
          "name": "arg0",
          "type": "uint256"
        }
      ],
      "outputs": [
        {
          "name": "",
          "type": "uint256"
        }
      ]
    },
    {
      "stateMutability": "view",
      "type": "function",
      "name": "points_total",
      "inputs": [
        {
          "name": "arg0",
          "type": "uint256"
        }
      ],
      "outputs": [
        {
          "name": "",
          "type": "uint256"
        }
      ]
    },
    {
      "stateMutability": "view",
      "type": "function",
      "name": "time_total",
      "inputs": [],
      "outputs": [
        {
          "name": "",
          "type": "uint256"
        }
      ]
    },
    {
      "stateMutability": "view",
      "type": "function",
      "name": "points_type_weight",
      "inputs": [
        {
          "name": "arg0",
          "type": "int128"
        },
        {
          "name": "arg1",
          "type": "uint256"
        }
      ],
      "outputs": [
        {
          "name": "",
          "type": "uint256"
        }
      ]
    },
    {
      "stateMutability": "view",
      "type": "function",
      "name": "time_type_weight",
      "inputs": [
        {
          "name": "arg0",
          "type": "uint256"
        }
      ],
      "outputs": [
        {
          "name": "",
          "type": "uint256"
        }
      ]
    }
  ],
  "transactionHash": "0x7205fa431797ec891c0381dcc68421bcfd600a38c168fe851d18694b5e9f1b51",
  "args": [
    "0x31429d1856aD1377A8A0079410B297e1a9e214c2",
    "0x0C462Dbb9EC8cD1630f1728B2CFD2769d09f0dd5",
    "0x2Acd062Cf718c87c9A58382f01C5b51a0f287C8D"
  ],
  "bytecode": "0x606061278661014039602061278660c03960c05160a01c61278157602060206127860160c03960c05160a01c61278157602060406127860160c03960c05160a01c612781576000610140511815612781576000610160511815612781576000610180511815612781576101805160005561014051600255610160516003554262093a808082049050905062093a80808202821582848304141715612781578090509050905063773594115561276956600436101561000d57611880565b600035601c52600051346126b557636b441a408114156100865760043560a01c6126b5576000543314156126b557600060043518156126b5576004356001557f2f56810a6bf40af059b96d3aea4db54081f378029a518390491093a7b67032e961014080808060043581525050602090509050610140a1005b63e5ea47b88114156100e65760015461014052610140513314156126b557610140516000557febee2d5739011062cb4f14113f3b36bf0ffe3da5c0568f64189d1012a11891056101608080806101405181525050602090509050610160a1005b633f9095b78114156101475760043560a01c6126b557633b9aca0760043560e05260c052604060c020546101405260006101405118156126b55761014051600180820380607f1d8160801d14156126b5578090509050905060005260206000f35b633a04f90081141561015e5760006101405261017f565b6318dfe92181141561017a57602060446101403760005061017f565b6104e7565b60043560a01c6126b55760243580607f1d8160801d14156126b557809050506000543314156126b5576000602435126101be57600454602435126101c1565b60005b156126b557633b9aca0760043560e05260c052604060c020546126b5576005546101605261016051600180820180607f1d8160801d14156126b55780905090509050600555600435600161016051633b9aca008110156126b5570260070155602435600180820180607f1d8160801d14156126b55780905090509050633b9aca0760043560e05260c052604060c020554262093a8081818301106126b5578082019050905062093a808082049050905062093a808082028215828483041417156126b5578090509050905061018052600061014051111561043b576101405161016051610180516101a0516024356101c0526101c05160065801611886565b610220526101a052610180526101605261014052610220516101a0526101405161016051610180516101a0516101c0516024356101e0526101e051600658016119a2565b610240526101c0526101a052610180526101605261014052610240516101c0526101405161016051610180516101a0516101c0516101e05160065801611b79565b610200526101e0526101c0526101a052610180526101605261014052610200516101e052610140516101c05181818301106126b55780820190509050633b9aca0e60243560e05260c052604060c0206101805160e05260c052604060c02055610180516001602435633b9aca008110156126b55702633b9aca1001556101e0516101a051610140518082028215828483041417156126b5578090509050905081818301106126b5578082019050905063773594106101805160e05260c052604060c020556101805163773594115561014051633b9aca0b60043560e05260c052604060c0206101805160e05260c052604060c020555b6001602435633b9aca008110156126b55702633b9aca10015461047657610180516001602435633b9aca008110156126b55702633b9aca1001555b61018051633b9aca0d60043560e05260c052604060c020557ffd55b3191f9c9dd92f4f134dd700e7d76f6a0c836a08687023d6d38f03ebd8776101a080808060043581525050602081019050808060243581525050602081019050808061014051815250506060905090506101a0a1005b63c2c4c5c18114156105065760065801611b79565b6101405261014050005b63615e523781141561054b5760043560a01c6126b557600435610140526101405160065801611dd3565b6101a0526101a05060065801611b79565b6101405261014050005b636207d866811415610561574261014052610582565b63d3078c9481141561057d576020602461014037600050610582565b6105c5565b60043560a01c6126b55761014051600435610160526101405161018052610180516101605160065801611fa0565b6101e052610140526101e05160005260206000f35b6395cfcec38114156105db5742610140526105fc565b636472eee18114156105f75760206024610140376000506105fc565b61067c565b60043560a01c6126b55761014051600435610160526101605160065801611dd3565b6101c052610140526101c0506101405160065801611b79565b61016052610140526101605061014051600435610160526101405161018052610180516101605160065801611fa0565b6101e052610140526101e05160005260206000f35b6326e56d5e8114156106935760006101c0526106b4565b6392d0d2328114156106af57602060246101c0376000506106b4565b61085f565b606060043560040161014037604060043560040135116126b5576000543314156126b5576004546101e0526101408060066101e05160e05260c052604060c020602082510161012060006003818352015b826101205160200211156107185761073a565b61012051602002850151610120518501555b8151600101808352811415610705575b5050505050506101e051600180820180607f1d8160801d14156126b5578090509050905060045560006101c051181561085d576101405161016051610180516101a0516101c0516101e0516101e051610200526101c051610220526102205161020051600658016120f2565b6101e0526101c0526101a0526101805261016052610140526000507f6fbe76157c712f16b5a3c44ed48baa04e3450bc3fab0c020e848aca72bbccc8461020080604080825280830180610140805160200180838284600060045af1156126b55750508051806020830101818260206001820306601f8201039050033682375050805160200160206001820306601f8201039050905090508101905060208201915081806101e0518152505080905090509050610200a15b005b63db1ca2608114156108ae5760043580607f1d8160801d14156126b557809050506000543314156126b55760043561014052602435610160526101605161014051600658016120f2565b600050005b63d4d2646e8114156108f25760043560a01c6126b5576000543314156126b5576004356101405260243561016052610160516101405160065801612347565b600050005b63d71363288114156112cf5760043560a01c6126b5576003546101405260206102006024637c74a17461018052336101a05261019c610140515afa156126b557601f3d11156126b55760005061020051600081126126b557610160526020610220602463adc635896101a052336101c0526101bc610140515afa156126b557601f3d11156126b55760005061022051610180526005546101a0524262093a8081818301106126b5578082019050905062093a808082049050905062093a808082028215828483041417156126b557809050905090506101c0526101c0516101805111610a1d576308c379a06101e0526020610200526020610220527f596f757220746f6b656e206c6f636b206578706972657320746f6f20736f6f6e610240526102205060646101fcfd5b600060243510610a34576127106024351115610a37565b60005b610a80576308c379a06101e052602061020052601e610220527f596f75207573656420616c6c20796f757220766f74696e6720706f7765720000610240526102205060646101fcfd5b633b9aca0a3360e05260c052604060c02060043560e05260c052604060c02054620d2f0081818301106126b55780820190509050421015610b00576308c379a06101e0526020610200526014610220527f43616e6e6f7420766f746520736f206f6674656e000000000000000000000000610240526102205060646101fcfd5b633b9aca0760043560e05260c052604060c02054600180820380607f1d8160801d14156126b557809050905090506101e05260006101e0511215610b83576308c379a061020052602061022052600f610240527f4761756765206e6f7420616464656400000000000000000000000000000000006102605261024050606461021cfd5b610200633b9aca083360e05260c052604060c02060043560e05260c052604060c02080548252600181015482602001526002810154826040015250506000610260526101c051610240511115610bee57610240516101c0518082106126b55780820390509050610260525b61020051610260518082028215828483041417156126b55780905090509050610280526102a0610160516024358082028215828483041417156126b55780905090509050612710808204905090508152602435816020015261018051816040015250610180516101c0518082106126b55780820390509050610300526102a051610300518082028215828483041417156126b5578090509050905061032052633b9aca093360e05260c052604060c0205461034052610340516102c05181818301106126b55780820190509050610220518082106126b557808203905090506103405261034051633b9aca093360e05260c052604060c0205560006103405110610d0057612710610340511115610d03565b60005b610d4c576308c379a06103605260206103805260136103a0527f5573656420746f6f206d75636820706f776572000000000000000000000000006103c0526103a050606461037cfd5b610140610380525b61038051516020610380510161038052610380610380511015610d7657610d54565b6004356103a0526103a05160065801611dd3565b61040052610360610380525b610380515260206103805103610380526101406103805110610db757610d96565b61040051610360526001633b9aca0b60043560e05260c052604060c0206101c05160e05260c052604060c0200154610380526101406103c0525b6103c0515160206103c051016103c0526103c06103c0511015610e1357610df1565b6101e0516103e0526103e051600658016119a2565b610440526103a06103c0525b6103c0515260206103c051036103c0526101406103c05110610e5557610e34565b610440516103a0526001633b9aca0e6101e05160e05260c052604060c0206101c05160e05260c052604060c02001546103c052610360516103205181818301106126b557808201905090506102805180821015610eb25780610eb4565b815b90509050610280518082106126b55780820390509050633b9aca0b60043560e05260c052604060c0206101c05160e05260c052604060c020556103a0516103205181818301106126b557808201905090506102805180821015610f175780610f19565b815b90509050610280518082106126b55780820390509050633b9aca0e6101e05160e05260c052604060c0206101c05160e05260c052604060c020556101c05161024051111561103757610380516102a05181818301106126b557808201905090506102005180821015610f8b5780610f8d565b815b90509050610200518082106126b557808203905090506001633b9aca0b60043560e05260c052604060c0206101c05160e05260c052604060c02001556103c0516102a05181818301106126b557808201905090506102005180821015610ff35780610ff5565b815b90509050610200518082106126b557808203905090506001633b9aca0e6101e05160e05260c052604060c0206101c05160e05260c052604060c02001556110b5565b6001633b9aca0b60043560e05260c052604060c0206101c05160e05260c052604060c0200180546102a05181818301106126b557808201905090508155506001633b9aca0e6101e05160e05260c052604060c0206101c05160e05260c052604060c0200180546102a05181818301106126b557808201905090508155505b4261024051111561113457633b9aca0c60043560e05260c052604060c0206102405160e05260c052604060c0208054610200518082106126b55780820390509050815550633b9aca0f6101e05160e05260c052604060c0206102405160e05260c052604060c0208054610200518082106126b557808203905090508155505b633b9aca0c60043560e05260c052604060c0206102e05160e05260c052604060c02080546102a05181818301106126b55780820190509050815550633b9aca0f6101e05160e05260c052604060c0206102e05160e05260c052604060c02080546102a05181818301106126b557808201905090508155506101406103e0525b6103e0515160206103e051016103e0526103e06103e05110156111d5576111b3565b60065801611b79565b610400526103c06103e0525b6103e0515260206103e051036103e0526101406103e0511061120b576111ea565b61040050633b9aca083360e05260c052604060c02060043560e05260c052604060c0206102a0805182558060200151600183015580604001516002830155505042633b9aca0a3360e05260c052604060c02060043560e05260c052604060c020557f45ca9a4c8d0119eb329e580d28fe689e484e1be230da8037ade9547d2d25cc916103e08080804281525050602081019050808033815250506020810190508080600435815250506020810190508080602435815250506080905090506103e0a1005b634e791a3a8114156113215760043560a01c6126b557633b9aca0b60043560e05260c052604060c020633b9aca0d60043560e05260c052604060c0205460e05260c052604060c0205460005260206000f35b6372fdccfa8114156113835760043580607f1d8160801d14156126b55780905050637735941260043560e05260c052604060c0206001600435633b9aca008110156126b557026377359413015460e05260c052604060c0205460005260206000f35b636977ff928114156113af57637735941063773594115460e05260c052604060c0205460005260206000f35b636f214a6a8114156114115760043580607f1d8160801d14156126b55780905050633b9aca0e60043560e05260c052604060c0206001600435633b9aca008110156126b55702633b9aca10015460e05260c052604060c0205460005260206000f35b63f851a4408114156114295760005460005260206000f35b6317f7182a8114156114415760015460005260206000f35b63fc0c546a8114156114595760025460005260206000f35b63dfe050318114156114715760035460005260206000f35b639fba03a18114156114895760045460005260206000f35b63e93841d08114156114a15760055460005260206000f35b63d958a8fc8114156115615760043580607f1d8160801d14156126b55780905050600660043560e05260c052604060c02080610180602082540161012060006003818352015b826101205160200211156114fa5761151c565b61012051850154610120516020028501525b81516001018083528114156114e7575b50505050505061018051806101a001818260206001820306601f82010390500336823750506020610160526040610180510160206001820306601f8201039050610160f35b63b053918781141561158c576001600435633b9aca008110156126b557026007015460005260206000f35b630f467f9881141561160c5760043560a01c6126b55760243560a01c6126b557633b9aca0860043560e05260c052604060c02060243560e05260c052604060c0206101408080808454815250506020810190508080600185015481525050602081019050808060028501548152505060609050905060c05260c051610140f35b63411e74b581141561163f5760043560a01c6126b557633b9aca0960043560e05260c052604060c0205460005260206000f35b637e418fa081141561168a5760043560a01c6126b55760243560a01c6126b557633b9aca0a60043560e05260c052604060c02060243560e05260c052604060c0205460005260206000f35b63edba52738114156116ef5760043560a01c6126b557633b9aca0b60043560e05260c052604060c02060243560e05260c052604060c020610140808080845481525050602081019050808060018501548152505060409050905060c05260c051610140f35b63a4d7a2508114156117225760043560a01c6126b557633b9aca0d60043560e05260c052604060c0205460005260206000f35b63a9b48c018114156117925760043580607f1d8160801d14156126b55780905050633b9aca0e60043560e05260c052604060c02060243560e05260c052604060c020610140808080845481525050602081019050808060018501548152505060409050905060c05260c051610140f35b635a5491588114156117c0576001600435633b9aca008110156126b55702633b9aca10015460005260206000f35b631142916b8114156117e957637735941060043560e05260c052604060c0205460005260206000f35b63513872bd8114156118045763773594115460005260206000f35b63afd2bb498114156118505760043580607f1d8160801d14156126b55780905050637735941260043560e05260c052604060c02060243560e05260c052604060c0205460005260206000f35b6351ce6b5981141561187e576001600435633b9aca008110156126b557026377359413015460005260206000f35b505b60006000fd5b6101605261014052600161014051633b9aca008110156126b55702637735941301546101805260006101805111156119925763773594126101405160e05260c052604060c0206101805160e05260c052604060c020546101a0526101c060006101f4818352015b426101805111156118fd5761197c565b610180805162093a8081818301106126b557808201905090508152506101a05163773594126101405160e05260c052604060c0206101805160e05260c052604060c020554261018051111561196b5761018051600161014051633b9aca008110156126b55702637735941301555b5b81516001018083528114156118ed575b50506101a05160005260005161016051566119a0565b600060005260005161016051565b005b6101605261014052600161014051633b9aca008110156126b55702633b9aca100154610180526000610180511115611b69576101a0633b9aca0e6101405160e05260c052604060c0206101805160e05260c052604060c020805482526001810154826020015250506101e060006101f4818352015b42610180511115611a2757611b53565b610180805162093a8081818301106126b557808201905090508152506101c05162093a808082028215828483041417156126b5578090509050905061020052610200516101a0511115611ad5576101a08051610200518082106126b55780820390509050815250633b9aca0f6101405160e05260c052604060c0206101805160e05260c052604060c02054610220526101c08051610220518082106126b55780820390509050815250611ae2565b60006101a05260006101c0525b633b9aca0e6101405160e05260c052604060c0206101805160e05260c052604060c0206101a08051825580602001516001830155505042610180511115611b425761018051600161014051633b9aca008110156126b55702633b9aca1001555b5b8151600101808352811415611a17575b50506101a0516000526000516101605156611b77565b600060005260005161016051565b005b61014052637735941154610160526004546101805242610160511115611bb457610160805162093a808082106126b557808203905090508152505b63773594106101605160e05260c052604060c020546101a0526101c060006064818352015b610180516101c0511415611bec57611c87565b6101405161016051610180516101a0516101c0516101c0516101e0526101e051600658016119a2565b610240526101c0526101a052610180526101605261014052610240506101405161016051610180516101a0516101c0516101c0516101e0526101e05160065801611886565b610240526101c0526101a052610180526101605261014052610240505b8151600101808352811415611bd9575b50506101c060006101f4818352015b42610160511115611ca657611dc1565b610160805162093a8081818301106126b5578082019050905081525060006101a0526101e060006064818352015b610180516101e0511415611ce757611d7f565b633b9aca0e6101e05160e05260c052604060c0206101605160e05260c052604060c020546102005263773594126101e05160e05260c052604060c0206101605160e05260c052604060c02054610220526101a0805161020051610220518082028215828483041417156126b5578090509050905081818301106126b557808201905090508152505b8151600101808352811415611cd4575b50506101a05163773594106101605160e05260c052604060c0205542610160511115611db057610160516377359411555b5b8151600101808352811415611c96575b50506101a05160005260005161014051565b6101605261014052633b9aca0d6101405160e05260c052604060c02054610180526000610180511115611f90576101a0633b9aca0b6101405160e05260c052604060c0206101805160e05260c052604060c020805482526001810154826020015250506101e060006101f4818352015b42610180511115611e5357611f7a565b610180805162093a8081818301106126b557808201905090508152506101c05162093a808082028215828483041417156126b5578090509050905061020052610200516101a0511115611f01576101a08051610200518082106126b55780820390509050815250633b9aca0c6101405160e05260c052604060c0206101805160e05260c052604060c02054610220526101c08051610220518082106126b55780820390509050815250611f0e565b60006101a05260006101c0525b633b9aca0b6101405160e05260c052604060c0206101805160e05260c052604060c0206101a08051825580602001516001830155505042610180511115611f695761018051633b9aca0d6101405160e05260c052604060c020555b5b8151600101808352811415611e43575b50506101a0516000526000516101605156611f9e565b600060005260005161016051565b005b6101805261014052610160526101605162093a808082049050905062093a808082028215828483041417156126b557809050905090506101a05263773594106101a05160e05260c052604060c020546101c05260006101c05111156120e257633b9aca076101405160e05260c052604060c02054600180820380607f1d8160801d14156126b557809050905090506101e05263773594126101e05160e05260c052604060c0206101a05160e05260c052604060c0205461020052633b9aca0b6101405160e05260c052604060c0206101a05160e05260c052604060c0205461022052670de0b6b3a7640000610200518082028215828483041417156126b55780905090509050610220518082028215828483041417156126b557809050905090506101c0518080156126b55782049050905060005260005161018051566120f0565b600060005260005161018051565b005b6101805261014052610160526101405161016051610180516101a051610140516101c0526101c05160065801611886565b610220526101a052610180526101605261014052610220516101a0526101405161016051610180516101a0516101c051610140516101e0526101e051600658016119a2565b610240526101c0526101a052610180526101605261014052610240516101c0526101405161016051610180516101a0516101c0516101e05160065801611b79565b610200526101e0526101c0526101a052610180526101605261014052610200516101e0524262093a8081818301106126b5578082019050905062093a808082049050905062093a808082028215828483041417156126b55780905090509050610200526101e0516101c051610160518082028215828483041417156126b5578090509050905081818301106126b557808201905090506101c0516101a0518082028215828483041417156126b557809050905090508082106126b557808203905090506101e0526101e05163773594106102005160e05260c052604060c020556101605163773594126101405160e05260c052604060c0206102005160e05260c052604060c020556102005163773594115561020051600161014051633b9aca008110156126b55702637735941301557e170bcdc909b6ac6e12d020fe8942256312cdcd555fb6d712899eba56d2f9016102208080806101405181525050602081019050808061020051815250506020810190508080610160518152505060208101905080806101e05181525050608090509050610220a161018051565b610180526101405261016052633b9aca076101405160e05260c052604060c02054600180820380607f1d8160801d14156126b557809050905090506101a0526101405161016051610180516101a0516101c051610140516101e0526101e05160065801611dd3565b610240526101c0526101a052610180526101605261014052610240516101c0526101405161016051610180516101a0516101c0516101e0516101a051610200526102005160065801611886565b610260526101e0526101c0526101a052610180526101605261014052610260516101e0526101405161016051610180516101a0516101c0516101e051610200516101a0516102205261022051600658016119a2565b61028052610200526101e0526101c0526101a05261018052610160526101405261028051610200526101405161016051610180516101a0516101c0516101e051610200516102205160065801611b79565b6102405261022052610200526101e0526101c0526101a05261018052610160526101405261024051610220524262093a8081818301106126b5578082019050905062093a808082049050905062093a808082028215828483041417156126b557809050905090506102405261016051633b9aca0b6101405160e05260c052604060c0206102405160e05260c052604060c0205561024051633b9aca0d6101405160e05260c052604060c02055610200516101605181818301106126b557808201905090506101c0518082106126b557808203905090506102605261026051633b9aca0e6101a05160e05260c052604060c0206102405160e05260c052604060c020556102405160016101a051633b9aca008110156126b55702633b9aca10015561022051610260516101e0518082028215828483041417156126b5578090509050905081818301106126b55780820190509050610200516101e0518082028215828483041417156126b557809050905090508082106126b55780820390509050610220526102205163773594106102405160e05260c052604060c02055610240516377359411557f54c0cf3647e6cdb2fc0a7876e60ba77563fceedf2e06c01c597f8dccb9e6bd726102808080806101405181525050602081019050808042815250506020810190508080610160518152505060208101905080806102205181525050608090509050610280a161018051565b600080fd5b6100af612769036100af6000396100af612769036000f35b600080fd"
}