{
  "address": "0x4ed4dd6fbB04B20fc9cfA2b56e3C8d305AE44fC8",
  "abi": [
    {
      "anonymous": false,
      "inputs": [
        {
          "indexed": true,
          "internalType": "bytes32",
          "name": "role",
          "type": "bytes32"
        },
        {
          "indexed": true,
          "internalType": "bytes32",
          "name": "previousAdminRole",
          "type": "bytes32"
        },
        {
          "indexed": true,
          "internalType": "bytes32",
          "name": "newAdminRole",
          "type": "bytes32"
        }
      ],
      "name": "RoleAdminChanged",
      "type": "event"
    },
    {
      "anonymous": false,
      "inputs": [
        {
          "indexed": true,
          "internalType": "bytes32",
          "name": "role",
          "type": "bytes32"
        },
        {
          "indexed": true,
          "internalType": "address",
          "name": "account",
          "type": "address"
        },
        {
          "indexed": true,
          "internalType": "address",
          "name": "sender",
          "type": "address"
        }
      ],
      "name": "RoleGranted",
      "type": "event"
    },
    {
      "anonymous": false,
      "inputs": [
        {
          "indexed": true,
          "internalType": "bytes32",
          "name": "role",
          "type": "bytes32"
        },
        {
          "indexed": true,
          "internalType": "address",
          "name": "account",
          "type": "address"
        },
        {
          "indexed": true,
          "internalType": "address",
          "name": "sender",
          "type": "address"
        }
      ],
      "name": "RoleRevoked",
      "type": "event"
    },
    {
      "inputs": [],
      "name": "BLOCKS_PER_YEAR",
      "outputs": [
        {
          "internalType": "uint256",
          "name": "",
          "type": "uint256"
        }
      ],
      "stateMutability": "view",
      "type": "function"
    },
    {
      "inputs": [],
      "name": "DEFAULT_ADMIN_ROLE",
      "outputs": [
        {
          "internalType": "bytes32",
          "name": "",
          "type": "bytes32"
        }
      ],
      "stateMutability": "view",
      "type": "function"
    },
    {
      "inputs": [],
      "name": "GUARDIAN_ROLE",
      "outputs": [
        {
          "internalType": "bytes32",
          "name": "",
          "type": "bytes32"
        }
      ],
      "stateMutability": "view",
      "type": "function"
    },
    {
      "inputs": [],
      "name": "KEEPER_ROLE",
      "outputs": [
        {
          "internalType": "bytes32",
          "name": "",
          "type": "bytes32"
        }
      ],
      "stateMutability": "view",
      "type": "function"
    },
    {
      "inputs": [],
      "name": "STRATEGY_ROLE",
      "outputs": [
        {
          "internalType": "bytes32",
          "name": "",
          "type": "bytes32"
        }
      ],
      "stateMutability": "view",
      "type": "function"
    },
    {
      "inputs": [],
      "name": "apr",
      "outputs": [
        {
          "internalType": "uint256",
          "name": "",
          "type": "uint256"
        }
      ],
      "stateMutability": "view",
      "type": "function"
    },
    {
      "inputs": [
        {
          "internalType": "uint256",
          "name": "amount",
          "type": "uint256"
        }
      ],
      "name": "aprAfterDeposit",
      "outputs": [
        {
          "internalType": "uint256",
          "name": "",
          "type": "uint256"
        }
      ],
      "stateMutability": "view",
      "type": "function"
    },
    {
      "inputs": [],
      "name": "cToken",
      "outputs": [
        {
          "internalType": "contract CErc20I",
          "name": "",
          "type": "address"
        }
      ],
      "stateMutability": "view",
      "type": "function"
    },
    {
      "inputs": [],
      "name": "comp",
      "outputs": [
        {
          "internalType": "address",
          "name": "",
          "type": "address"
        }
      ],
      "stateMutability": "view",
      "type": "function"
    },
    {
      "inputs": [],
      "name": "comptroller",
      "outputs": [
        {
          "internalType": "contract IComptroller",
          "name": "",
          "type": "address"
        }
      ],
      "stateMutability": "view",
      "type": "function"
    },
    {
      "inputs": [],
      "name": "deposit",
      "outputs": [],
      "stateMutability": "nonpayable",
      "type": "function"
    },
    {
      "inputs": [
        {
          "internalType": "uint256",
          "name": "amount",
          "type": "uint256"
        }
      ],
      "name": "emergencyWithdraw",
      "outputs": [],
      "stateMutability": "nonpayable",
      "type": "function"
    },
    {
      "inputs": [
        {
          "internalType": "bytes32",
          "name": "role",
          "type": "bytes32"
        }
      ],
      "name": "getRoleAdmin",
      "outputs": [
        {
          "internalType": "bytes32",
          "name": "",
          "type": "bytes32"
        }
      ],
      "stateMutability": "view",
      "type": "function"
    },
    {
      "inputs": [
        {
          "internalType": "bytes32",
          "name": "role",
          "type": "bytes32"
        },
        {
          "internalType": "address",
          "name": "account",
          "type": "address"
        }
      ],
      "name": "grantRole",
      "outputs": [],
      "stateMutability": "nonpayable",
      "type": "function"
    },
    {
      "inputs": [],
      "name": "hasAssets",
      "outputs": [
        {
          "internalType": "bool",
          "name": "",
          "type": "bool"
        }
      ],
      "stateMutability": "view",
      "type": "function"
    },
    {
      "inputs": [
        {
          "internalType": "bytes32",
          "name": "role",
          "type": "bytes32"
        },
        {
          "internalType": "address",
          "name": "account",
          "type": "address"
        }
      ],
      "name": "hasRole",
      "outputs": [
        {
          "internalType": "bool",
          "name": "",
          "type": "bool"
        }
      ],
      "stateMutability": "view",
      "type": "function"
    },
    {
      "inputs": [
        {
          "internalType": "address",
          "name": "_strategy",
          "type": "address"
        },
        {
          "internalType": "string",
          "name": "_name",
          "type": "string"
        },
        {
          "internalType": "address",
          "name": "_cToken",
          "type": "address"
        },
        {
          "internalType": "address[]",
          "name": "governorList",
          "type": "address[]"
        },
        {
          "internalType": "address[]",
          "name": "keeperList",
          "type": "address[]"
        },
        {
          "internalType": "address",
          "name": "guardian",
          "type": "address"
        }
      ],
      "name": "initialize",
      "outputs": [],
      "stateMutability": "nonpayable",
      "type": "function"
    },
    {
      "inputs": [],
      "name": "lenderName",
      "outputs": [
        {
          "internalType": "string",
          "name": "",
          "type": "string"
        }
      ],
      "stateMutability": "view",
      "type": "function"
    },
    {
      "inputs": [],
      "name": "nav",
      "outputs": [
        {
          "internalType": "uint256",
          "name": "",
          "type": "uint256"
        }
      ],
      "stateMutability": "view",
      "type": "function"
    },
    {
      "inputs": [],
      "name": "oneInch",
      "outputs": [
        {
          "internalType": "address",
          "name": "",
          "type": "address"
        }
      ],
      "stateMutability": "view",
      "type": "function"
    },
    {
      "inputs": [],
      "name": "oracle",
      "outputs": [
        {
          "internalType": "contract AggregatorV3Interface",
          "name": "",
          "type": "address"
        }
      ],
      "stateMutability": "view",
      "type": "function"
    },
    {
      "inputs": [],
      "name": "poolManager",
      "outputs": [
        {
          "internalType": "contract IPoolManager",
          "name": "",
          "type": "address"
        }
      ],
      "stateMutability": "view",
      "type": "function"
    },
    {
      "inputs": [
        {
          "internalType": "address",
          "name": "to",
          "type": "address"
        },
        {
          "internalType": "uint256",
          "name": "amount",
          "type": "uint256"
        }
      ],
      "name": "recoverETH",
      "outputs": [],
      "stateMutability": "nonpayable",
      "type": "function"
    },
    {
      "inputs": [
        {
          "internalType": "bytes32",
          "name": "role",
          "type": "bytes32"
        },
        {
          "internalType": "address",
          "name": "account",
          "type": "address"
        }
      ],
      "name": "renounceRole",
      "outputs": [],
      "stateMutability": "nonpayable",
      "type": "function"
    },
    {
      "inputs": [
        {
          "internalType": "bytes32",
          "name": "role",
          "type": "bytes32"
        },
        {
          "internalType": "address",
          "name": "account",
          "type": "address"
        }
      ],
      "name": "revokeRole",
      "outputs": [],
      "stateMutability": "nonpayable",
      "type": "function"
    },
    {
      "inputs": [],
      "name": "strategy",
      "outputs": [
        {
          "internalType": "address",
          "name": "",
          "type": "address"
        }
      ],
      "stateMutability": "view",
      "type": "function"
    },
    {
      "inputs": [
        {
          "internalType": "uint256",
          "name": "minAmountOut",
          "type": "uint256"
        },
        {
          "internalType": "bytes",
          "name": "payload",
          "type": "bytes"
        }
      ],
      "name": "swapComp",
      "outputs": [],
      "stateMutability": "nonpayable",
      "type": "function"
    },
    {
      "inputs": [
        {
          "internalType": "address",
          "name": "_token",
          "type": "address"
        },
        {
          "internalType": "address",
          "name": "to",
          "type": "address"
        }
      ],
      "name": "sweep",
      "outputs": [],
      "stateMutability": "nonpayable",
      "type": "function"
    },
    {
      "inputs": [],
      "name": "underlyingBalanceStored",
      "outputs": [
        {
          "internalType": "uint256",
          "name": "balance",
          "type": "uint256"
        }
      ],
      "stateMutability": "view",
      "type": "function"
    },
    {
      "inputs": [],
      "name": "want",
      "outputs": [
        {
          "internalType": "contract IERC20",
          "name": "",
          "type": "address"
        }
      ],
      "stateMutability": "view",
      "type": "function"
    },
    {
      "inputs": [],
      "name": "wantBase",
      "outputs": [
        {
          "internalType": "uint256",
          "name": "",
          "type": "uint256"
        }
      ],
      "stateMutability": "view",
      "type": "function"
    },
    {
      "inputs": [],
      "name": "weightedApr",
      "outputs": [
        {
          "internalType": "uint256",
          "name": "",
          "type": "uint256"
        }
      ],
      "stateMutability": "view",
      "type": "function"
    },
    {
      "inputs": [
        {
          "internalType": "uint256",
          "name": "amount",
          "type": "uint256"
        }
      ],
      "name": "withdraw",
      "outputs": [
        {
          "internalType": "uint256",
          "name": "",
          "type": "uint256"
        }
      ],
      "stateMutability": "nonpayable",
      "type": "function"
    },
    {
      "inputs": [],
      "name": "withdrawAll",
      "outputs": [
        {
          "internalType": "bool",
          "name": "",
          "type": "bool"
        }
      ],
      "stateMutability": "nonpayable",
      "type": "function"
    },
    {
      "stateMutability": "payable",
      "type": "receive"
    }
  ],
  "transactionHash": "0x3ebef11eb510d3f1f37750bdfea25a43350b98a0a3365b062334e5e419ec283a",
  "args": [],
  "numDeployments": 1,
  "solcInputHash": "49852441b120346a98e2cf914de9b17c",
  "bytecode": "0x60806040523480156200001157600080fd5b50600054610100900460ff166200002f5760005460ff161562000039565b62000039620000de565b620000a15760405162461bcd60e51b815260206004820152602e60248201527f496e697469616c697a61626c653a20636f6e747261637420697320616c72656160448201526d191e481a5b9a5d1a585b1a5e995960921b606482015260840160405180910390fd5b600054610100900460ff16158015620000c4576000805461ffff19166101011790555b8015620000d7576000805461ff00191690555b5062000102565b6000620000f630620000fc60201b6200140c1760201c565b15905090565b3b151590565b61307380620001126000396000f3fe60806040526004361061018d5760003560e01c8063045c08d5146101995780630b6d1d17146101d7578063109d0af8146101fb578063116ac4a314610223578063149a4ae4146102385780631f1fcd5114610258578063248a9ca31461027857806324ea54f4146102985780632e1a7d4d146102ba5780632f2ff15d146102da578063364bc15a146102fc57806336568abe1461031e5780633e0c06291461033e5780635312ea8e1461035e57806357ded9c91461037e578063580b7c2e146103935780635a71fd09146103b55780635be9b2d3146103d55780635fe3b567146103fa57806369e527da146104225780637dc0d1d014610442578063853828b61461046a5780638b2021761461047f57806391d14854146104a1578063a217fddf146104c1578063a8c62e76146104d6578063b8dc491b146104f6578063c1590cd714610516578063c6afba3c1461052b578063cea0fba214610540578063d0e30db014610560578063d37db1d214610575578063d547741f1461058c578063dc4c90d3146105ac57600080fd5b3661019457005b600080fd5b3480156101a557600080fd5b506101c1731111111254fb6c44bac0bed2854e76f90643097d81565b6040516101ce919061280e565b60405180910390f35b3480156101e357600080fd5b506101ed60385481565b6040519081526020016101ce565b34801561020757600080fd5b506101c173c00e94cb662c3520282e6f5717214004a7f2688881565b34801561022f57600080fd5b506101ed6105cc565b34801561024457600080fd5b506101ed610253366004612822565b6105f1565b34801561026457600080fd5b506036546101c1906001600160a01b031681565b34801561028457600080fd5b506101ed610293366004612822565b610916565b3480156102a457600080fd5b506101ed60008051602061301e83398151915281565b3480156102c657600080fd5b506101ed6102d5366004612822565b61092c565b3480156102e657600080fd5b506102fa6102f5366004612863565b610959565b005b34801561030857600080fd5b506101ed600080516020612fde83398151915281565b34801561032a57600080fd5b506102fa610339366004612863565b61097b565b34801561034a57600080fd5b506102fa610359366004612893565b6109cb565b34801561036a57600080fd5b506102fa610379366004612822565b610a3a565b34801561038a57600080fd5b506101ed610b50565b34801561039f57600080fd5b506101ed600080516020612ffe83398151915281565b3480156103c157600080fd5b506102fa6103d03660046129d9565b610b5f565b3480156103e157600080fd5b506103ea610d9e565b60405190151581526020016101ce565b34801561040657600080fd5b506101c1733d9819210a31b4961b30ef54be2aed79b9c9cd3b81565b34801561042e57600080fd5b506037546101c1906001600160a01b031681565b34801561044e57600080fd5b506101c173dbd020caef83efd542f4de03e3cf0c28a4428bd581565b34801561047657600080fd5b506103ea610e93565b34801561048b57600080fd5b50610494610ed2565b6040516101ce9190612ad6565b3480156104ad57600080fd5b506103ea6104bc366004612863565b610f60565b3480156104cd57600080fd5b506101ed600081565b3480156104e257600080fd5b506035546101c1906001600160a01b031681565b34801561050257600080fd5b506102fa610511366004612b09565b610f8d565b34801561052257600080fd5b506101ed6110b9565b34801561053757600080fd5b506101ed6110c3565b34801561054c57600080fd5b506102fa61055b366004612b37565b6111d1565b34801561056c57600080fd5b506102fa6112bb565b34801561058157600080fd5b506101ed6223dbb081565b34801561059857600080fd5b506102fa6105a7366004612863565b6113ef565b3480156105b857600080fd5b506034546101c1906001600160a01b031681565b6000806105d7611412565b90506105e16114a2565b6105eb9082612ba7565b91505090565b6036546037546040516370a0823160e01b815260009283926001600160a01b03918216926370a082319261062992169060040161280e565b602060405180830381865afa158015610646573d6000803e3d6000fd5b505050506040513d601f19601f8201168201806040525081019061066a9190612bc6565b90506000603760009054906101000a90046001600160a01b03166001600160a01b03166347bd37186040518163ffffffff1660e01b8152600401602060405180830381865afa1580156106c1573d6000803e3d6000fd5b505050506040513d601f19601f820116820180604052508101906106e59190612bc6565b90506000603760009054906101000a90046001600160a01b03166001600160a01b0316638f840ddd6040518163ffffffff1660e01b8152600401602060405180830381865afa15801561073c573d6000803e3d6000fd5b505050506040513d601f19601f820116820180604052508101906107609190612bc6565b90506000603760009054906101000a90046001600160a01b03166001600160a01b031663173b99046040518163ffffffff1660e01b8152600401602060405180830381865afa1580156107b7573d6000803e3d6000fd5b505050506040513d601f19601f820116820180604052508101906107db9190612bc6565b90506000603760009054906101000a90046001600160a01b03166001600160a01b031663f3fdb15a6040518163ffffffff1660e01b8152600401602060405180830381865afa158015610832573d6000803e3d6000fd5b505050506040513d601f19601f820116820180604052508101906108569190612bdf565b905060006001600160a01b03821663b81688166108738a89612bfc565b6040516001600160e01b031960e084901b1681526004810191909152602481018890526044810187905260648101869052608401602060405180830381865afa1580156108c4573d6000803e3d6000fd5b505050506040513d601f19601f820116820180604052508101906108e89190612bc6565b90506108f38861151d565b6109006223dbb083612ba7565b61090a9190612bfc565b98975050505050505050565b6000908152600160208190526040909120015490565b6000600080516020612ffe8339815191526109478133611736565b6109508361179a565b91505b50919050565b61096282610916565b61096c8133611736565b6109768383611c37565b505050565b6001600160a01b03811633146109bd5760405162461bcd60e51b8152602060048201526002602482015261373160f01b60448201526064015b60405180910390fd5b6109c78282611ca2565b5050565b60008051602061301e8339815191526109e48133611736565b6040516001600160a01b0384169083156108fc029084906000818181858888f193505050506109765760405162461bcd60e51b8152602060048201526002602482015261072760f31b60448201526064016109b4565b60008051602061301e833981519152610a538133611736565b60375460405163852a12e360e01b8152600481018490526001600160a01b039091169063852a12e3906024016020604051808303816000875af1158015610a9e573d6000803e3d6000fd5b505050506040513d601f19601f82011682018060405250810190610ac29190612bc6565b506034546036546040516370a0823160e01b81526109c7926001600160a01b039081169216906370a0823190610afc90309060040161280e565b602060405180830381865afa158015610b19573d6000803e3d6000fd5b505050506040513d601f19601f82011682018060405250810190610b3d9190612bc6565b6036546001600160a01b03169190611d09565b6000610b5a611412565b905090565b610b6b86868584611d5f565b610b83600080516020612fde83398151915282612048565b60005b8251811015610bd257610bc0600080516020612fde833981519152848381518110610bb357610bb3612c14565b6020026020010151612048565b80610bca81612c2a565b915050610b86565b50610bf9600080516020612fde83398151915260008051602061301e833981519152612052565b603780546001600160a01b0319166001600160a01b0386811691821790925560365460408051636f307dc360e01b815290519190931692636f307dc39160048083019260209291908290030181865afa158015610c5a573d6000803e3d6000fd5b505050506040513d601f19601f82011682018060405250810190610c7e9190612bdf565b6001600160a01b031614610cc35760405162461bcd60e51b815260206004820152600c60248201526b3bb937b7339031aa37b5b2b760a11b60448201526064016109b4565b603660009054906101000a90046001600160a01b03166001600160a01b031663313ce5676040518163ffffffff1660e01b8152600401602060405180830381865afa158015610d16573d6000803e3d6000fd5b505050506040513d601f19601f82011682018060405250810190610d3a9190612c45565b610d4590600a612d4c565b603855603654610d61906001600160a01b03168560001961209e565b610d9673c00e94cb662c3520282e6f5717214004a7f26888731111111254fb6c44bac0bed2854e76f90643097d60001961209e565b505050505050565b6037546040516370a0823160e01b815260009182916001600160a01b03909116906370a0823190610dd390309060040161280e565b602060405180830381865afa158015610df0573d6000803e3d6000fd5b505050506040513d601f19601f82011682018060405250810190610e149190612bc6565b1180610b5a57506036546040516370a0823160e01b81526000916001600160a01b0316906370a0823190610e4c90309060040161280e565b602060405180830381865afa158015610e69573d6000803e3d6000fd5b505050506040513d601f19601f82011682018060405250810190610e8d9190612bc6565b11905090565b6000600080516020612ffe833981519152610eae8133611736565b6000610eb86114a2565b90506000610ec58261179a565b91909110159250505b5090565b60338054610edf90612d5b565b80601f0160208091040260200160405190810160405280929190818152602001828054610f0b90612d5b565b8015610f585780601f10610f2d57610100808354040283529160200191610f58565b820191906000526020600020905b815481529060010190602001808311610f3b57829003601f168201915b505050505081565b60008281526001602090815260408083206001600160a01b038516845290915290205460ff165b92915050565b60008051602061301e833981519152610fa68133611736565b6000610fb06121a2565b905060005b815181101561103057818181518110610fd057610fd0612c14565b60200260200101516001600160a01b0316856001600160a01b0316141561101e5760405162461bcd60e51b8152602060048201526002602482015261393360f01b60448201526064016109b4565b8061102881612c2a565b915050610fb5565b506110b383856001600160a01b03166370a08231306040518263ffffffff1660e01b8152600401611061919061280e565b602060405180830381865afa15801561107e573d6000803e3d6000fd5b505050506040513d601f19601f820116820180604052508101906110a29190612bc6565b6001600160a01b0387169190611d09565b50505050565b6000610b5a6114a2565b6037546040516370a0823160e01b815260009182916001600160a01b03909116906370a08231906110f890309060040161280e565b602060405180830381865afa158015611115573d6000803e3d6000fd5b505050506040513d601f19601f820116820180604052508101906111399190612bc6565b90508061114857600091505090565b6037546040805163182df0f560e01b81529051670de0b6b3a7640000926001600160a01b03169163182df0f59160048083019260209291908290030181865afa158015611199573d6000803e3d6000fd5b505050506040513d601f19601f820116820180604052508101906111bd9190612bc6565b6111c79083612ba7565b6105eb9190612d90565b600080516020612fde8339815191526111ea8133611736565b600080731111111254fb6c44bac0bed2854e76f90643097d6001600160a01b0316846040516112199190612db2565b6000604051808303816000865af19150503d8060008114611256576040519150601f19603f3d011682016040523d82523d6000602084013e61125b565b606091505b50915091508161126e5761126e81612235565b6000818060200190518101906112849190612bc6565b905085811015610d965760405162461bcd60e51b8152602060048201526002602482015261313560f01b60448201526064016109b4565b600080516020612ffe8339815191526112d48133611736565b6036546040516370a0823160e01b81526000916001600160a01b0316906370a082319061130590309060040161280e565b602060405180830381865afa158015611322573d6000803e3d6000fd5b505050506040513d601f19601f820116820180604052508101906113469190612bc6565b60375460405163140e25ad60e31b8152600481018390529192506001600160a01b03169063a0712d68906024016020604051808303816000875af1158015611392573d6000803e3d6000fd5b505050506040513d601f19601f820116820180604052508101906113b69190612bc6565b156109c75760405162461bcd60e51b81526020600482015260096024820152681b5a5b9d0819985a5b60ba1b60448201526064016109b4565b6113f882610916565b6114028133611736565b6109768383611ca2565b3b151590565b600061141e600061151d565b60375460408051630ae9d70b60e41b815290516223dbb0926001600160a01b03169163ae9d70b09160048083019260209291908290030181865afa15801561146a573d6000803e3d6000fd5b505050506040513d601f19601f8201168201806040525081019061148e9190612bc6565b6114989190612ba7565b610b5a9190612bfc565b60006114ac6110c3565b6036546040516370a0823160e01b81526001600160a01b03909116906370a08231906114dc90309060040161280e565b602060405180830381865afa1580156114f9573d6000803e3d6000fd5b505050506040513d601f19601f820116820180604052508101906114989190612bc6565b603754604051636aa875b560e01b81526000918291733d9819210a31b4961b30ef54be2aed79b9c9cd3b91636aa875b591611564916001600160a01b03169060040161280e565b602060405180830381865afa158015611581573d6000803e3d6000fd5b505050506040513d601f19601f820116820180604052508101906115a59190612bc6565b9050600083670de0b6b3a7640000603760009054906101000a90046001600160a01b03166001600160a01b031663182df0f56040518163ffffffff1660e01b8152600401602060405180830381865afa158015611606573d6000803e3d6000fd5b505050506040513d601f19601f8201168201806040525081019061162a9190612bc6565b603760009054906101000a90046001600160a01b03166001600160a01b03166318160ddd6040518163ffffffff1660e01b8152600401602060405180830381865afa15801561167d573d6000803e3d6000fd5b505050506040513d601f19601f820116820180604052508101906116a19190612bc6565b6116ab9190612ba7565b6116b59190612d90565b6116bf9190612bfc565b90506116ca82612272565b91506000816116e7576116e06223dbb084612ba7565b9050611714565b816116f56223dbb085612ba7565b61170790670de0b6b3a7640000612ba7565b6117119190612d90565b90505b6127106117238261251c612ba7565b61172d9190612d90565b95945050505050565b6117408282610f60565b6109c757611758816001600160a01b03166014612392565b611763836020612392565b604051602001611774929190612dce565b60408051601f198184030181529082905262461bcd60e51b82526109b491600401612ad6565b603754604051633af9e66960e01b815260009182916001600160a01b0390911690633af9e669906117cf90309060040161280e565b6020604051808303816000875af11580156117ee573d6000803e3d6000fd5b505050506040513d601f19601f820116820180604052508101906118129190612bc6565b6036546040516370a0823160e01b81529192506000916001600160a01b03909116906370a082319061184890309060040161280e565b602060405180830381865afa158015611865573d6000803e3d6000fd5b505050506040513d601f19601f820116820180604052508101906118899190612bc6565b905060006118978284612bfc565b9050808511156118a5578094505b8482106118d2576035546036546118c9916001600160a01b03918216911687611d09565b50929392505050565b6036546037546040516370a0823160e01b81526000926001600160a01b03908116926370a082319261190a929091169060040161280e565b602060405180830381865afa158015611927573d6000803e3d6000fd5b505050506040513d601f19601f8201168201806040525081019061194b9190612bc6565b90506001811115611a8a5760006119628488612e3d565b90508181116119fc5760375460405163852a12e360e01b8152600481018390526001600160a01b039091169063852a12e3906024016020604051808303816000875af11580156119b6573d6000803e3d6000fd5b505050506040513d601f19601f820116820180604052508101906119da9190612bc6565b156119f75760405162461bcd60e51b81526004016109b490612e54565b611a88565b60375460405163852a12e360e01b8152600481018490526001600160a01b039091169063852a12e3906024016020604051808303816000875af1158015611a47573d6000803e3d6000fd5b505050506040513d601f19601f82011682018060405250810190611a6b9190612bc6565b15611a885760405162461bcd60e51b81526004016109b490612e54565b505b6040805160018082528183019092526000916020808301908036833750506040805160018082528183019092529293506000929150602080830190803683370190505090503082600081518110611ae357611ae3612c14565b6001600160a01b03928316602091820292909201015260375482519116908290600090611b1257611b12612c14565b6001600160a01b03909216602092830291909101909101526040516334086fd360e11b8152733d9819210a31b4961b30ef54be2aed79b9c9cd3b90636810dfa690611b6890859085906001908190600401612e83565b600060405180830381600087803b158015611b8257600080fd5b505af1158015611b96573d6000803e3d6000fd5b50506036546040516370a0823160e01b81526001600160a01b0390911692506370a082319150611bca90309060040161280e565b602060405180830381865afa158015611be7573d6000803e3d6000fd5b505050506040513d601f19601f82011682018060405250810190611c0b9190612bc6565b603554603654919650611c2b916001600160a01b03908116911687611d09565b50929695505050505050565b611c418282610f60565b6109c75760008281526001602081815260408084206001600160a01b0386168086529252808420805460ff19169093179092559051339285917f2f8788117e7eff1d82e926ec794901d17c78024a50270940304540a733656f0d9190a45050565b611cac8282610f60565b156109c75760008281526001602090815260408083206001600160a01b0385168085529252808320805460ff1916905551339285917ff6391f5c32d9c69d2a47ea670b442974b53935d1edc7fd64eb21e047a839171b9190a45050565b6109768363a9059cbb60e01b8484604051602401611d28929190612f24565b60408051601f198184030181529190526020810180516001600160e01b03166001600160e01b031990931692909217909152612534565b600054610100900460ff16611d7a5760005460ff1615611d7e565b303b155b611de15760405162461bcd60e51b815260206004820152602e60248201527f496e697469616c697a61626c653a20636f6e747261637420697320616c72656160448201526d191e481a5b9a5d1a585b1a5e995960921b60648201526084016109b4565b600054610100900460ff16158015611e03576000805461ffff19166101011790555b603580546001600160a01b0319166001600160a01b0387169081179091556040805163dc4c90d360e01b8152905163dc4c90d3916004808201926020929091908290030181865afa158015611e5c573d6000803e3d6000fd5b505050506040513d601f19601f82011682018060405250810190611e809190612bdf565b603480546001600160a01b0319166001600160a01b0392909216918217905560408051637e062a3560e11b8152905163fc0c546a916004808201926020929091908290030181865afa158015611eda573d6000803e3d6000fd5b505050506040513d601f19601f82011682018060405250810190611efe9190612bdf565b603680546001600160a01b0319166001600160a01b03929092169190911790558351611f3190603390602087019061277e565b50603454611f579060008051602061301e833981519152906001600160a01b0316612048565b60005b8351811015611f9957611f8760008051602061301e833981519152858381518110610bb357610bb3612c14565b80611f9181612c2a565b915050611f5a565b50611fb260008051602061301e83398151915283612048565b611fca600080516020612ffe83398151915286612048565b611ff060008051602061301e833981519152600080516020612ffe833981519152612052565b612016600080516020612ffe83398151915260008051602061301e833981519152612052565b60365461202f906001600160a01b03168660001961209e565b8015612041576000805461ff00191690555b5050505050565b6109c78282611c37565b8061205c83610916565b60405184907fbd79b86ffe0ab8e8776151514217cd7cacd52c909f66475c3af44e129f0b00ff90600090a4600091825260016020819052604090922090910155565b8015806121185750604051636eb1769f60e11b81523060048201526001600160a01b03838116602483015284169063dd62ed3e90604401602060405180830381865afa1580156120f2573d6000803e3d6000fd5b505050506040513d601f19601f820116820180604052508101906121169190612bc6565b155b6121835760405162461bcd60e51b815260206004820152603660248201527f5361666545524332303a20617070726f76652066726f6d206e6f6e2d7a65726f60448201527520746f206e6f6e2d7a65726f20616c6c6f77616e636560501b60648201526084016109b4565b6109768363095ea7b360e01b8484604051602401611d28929190612f24565b60408051600280825260608083018452926000929190602083019080368337505060365482519293506001600160a01b0316918391506000906121e7576121e7612c14565b6001600160a01b03928316602091820292909201015260375482519116908290600190811061221857612218612c14565b6001600160a01b0390921660209283029190910190910152919050565b80511561224457805181602001fd5b60405162461bcd60e51b815260206004820152600360248201526231313760e81b60448201526064016109b4565b60008161228157506000919050565b600080600073dbd020caef83efd542f4de03e3cf0c28a4428bd56001600160a01b031663feaf968c6040518163ffffffff1660e01b815260040160a060405180830381865afa1580156122d8573d6000803e3d6000fd5b505050506040513d601f19601f820116820180604052508101906122fc9190612f54565b94505050925092506000821380156123265750806001600160501b0316836001600160501b031611155b6123585760405162461bcd60e51b815260206004820152600360248201526203130360ec1b60448201526064016109b4565b60385482906a52b7d2dcc80cd2e4000000906123748389612ba7565b61237e9190612ba7565b6123889190612d90565b9695505050505050565b606060006123a1836002612ba7565b6123ac906002612bfc565b6001600160401b038111156123c3576123c36128bf565b6040519080825280601f01601f1916602001820160405280156123ed576020820181803683370190505b509050600360fc1b8160008151811061240857612408612c14565b60200101906001600160f81b031916908160001a905350600f60fb1b8160018151811061243757612437612c14565b60200101906001600160f81b031916908160001a905350600061245b846002612ba7565b612466906001612bfc565b90505b60018111156124de576f181899199a1a9b1b9c1cb0b131b232b360811b85600f166010811061249a5761249a612c14565b1a60f81b8282815181106124b0576124b0612c14565b60200101906001600160f81b031916908160001a90535060049490941c936124d781612fa4565b9050612469565b50831561252d5760405162461bcd60e51b815260206004820181905260248201527f537472696e67733a20686578206c656e67746820696e73756666696369656e7460448201526064016109b4565b9392505050565b6000612589826040518060400160405280602081526020017f5361666545524332303a206c6f772d6c6576656c2063616c6c206661696c6564815250856001600160a01b03166126069092919063ffffffff16565b80519091501561097657808060200190518101906125a79190612fbb565b6109765760405162461bcd60e51b815260206004820152602a60248201527f5361666545524332303a204552433230206f7065726174696f6e20646964206e6044820152691bdd081cdd58d8d9595960b21b60648201526084016109b4565b6060612615848460008561261d565b949350505050565b60608247101561267e5760405162461bcd60e51b815260206004820152602660248201527f416464726573733a20696e73756666696369656e742062616c616e636520666f6044820152651c8818d85b1b60d21b60648201526084016109b4565b843b6126cc5760405162461bcd60e51b815260206004820152601d60248201527f416464726573733a2063616c6c20746f206e6f6e2d636f6e747261637400000060448201526064016109b4565b600080866001600160a01b031685876040516126e89190612db2565b60006040518083038185875af1925050503d8060008114612725576040519150601f19603f3d011682016040523d82523d6000602084013e61272a565b606091505b509150915061273a828286612745565b979650505050505050565b6060831561275457508161252d565b8251156127645782518084602001fd5b8160405162461bcd60e51b81526004016109b49190612ad6565b82805461278a90612d5b565b90600052602060002090601f0160209004810192826127ac57600085556127f2565b82601f106127c557805160ff19168380011785556127f2565b828001600101855582156127f2579182015b828111156127f25782518255916020019190600101906127d7565b50610ece9291505b80821115610ece57600081556001016127fa565b6001600160a01b0391909116815260200190565b60006020828403121561283457600080fd5b5035919050565b6001600160a01b038116811461285057600080fd5b50565b803561285e8161283b565b919050565b6000806040838503121561287657600080fd5b8235915060208301356128888161283b565b809150509250929050565b600080604083850312156128a657600080fd5b82356128b18161283b565b946020939093013593505050565b634e487b7160e01b600052604160045260246000fd5b604051601f8201601f191681016001600160401b03811182821017156128fd576128fd6128bf565b604052919050565b60006001600160401b0383111561291e5761291e6128bf565b612931601f8401601f19166020016128d5565b905082815283838301111561294557600080fd5b828260208301376000602084830101529392505050565b600082601f83011261296d57600080fd5b813560206001600160401b03821115612988576129886128bf565b8160051b6129978282016128d5565b92835284810182019282810190878511156129b157600080fd5b83870192505b8483101561273a5782356129ca8161283b565b825291830191908301906129b7565b60008060008060008060c087890312156129f257600080fd5b86356129fd8161283b565b955060208701356001600160401b0380821115612a1957600080fd5b818901915089601f830112612a2d57600080fd5b612a3c8a833560208501612905565b9650612a4a60408a01612853565b95506060890135915080821115612a6057600080fd5b612a6c8a838b0161295c565b94506080890135915080821115612a8257600080fd5b50612a8f89828a0161295c565b925050612a9e60a08801612853565b90509295509295509295565b60005b83811015612ac5578181015183820152602001612aad565b838111156110b35750506000910152565b6020815260008251806020840152612af5816040850160208701612aaa565b601f01601f19169190910160400192915050565b60008060408385031215612b1c57600080fd5b8235612b278161283b565b915060208301356128888161283b565b60008060408385031215612b4a57600080fd5b8235915060208301356001600160401b03811115612b6757600080fd5b8301601f81018513612b7857600080fd5b612b8785823560208401612905565b9150509250929050565b634e487b7160e01b600052601160045260246000fd5b6000816000190483118215151615612bc157612bc1612b91565b500290565b600060208284031215612bd857600080fd5b5051919050565b600060208284031215612bf157600080fd5b815161252d8161283b565b60008219821115612c0f57612c0f612b91565b500190565b634e487b7160e01b600052603260045260246000fd5b6000600019821415612c3e57612c3e612b91565b5060010190565b600060208284031215612c5757600080fd5b815160ff8116811461252d57600080fd5b600181815b80851115612ca3578160001904821115612c8957612c89612b91565b80851615612c9657918102915b93841c9390800290612c6d565b509250929050565b600082612cba57506001610f87565b81612cc757506000610f87565b8160018114612cdd5760028114612ce757612d03565b6001915050610f87565b60ff841115612cf857612cf8612b91565b50506001821b610f87565b5060208310610133831016604e8410600b8410161715612d26575081810a610f87565b612d308383612c68565b8060001904821115612d4457612d44612b91565b029392505050565b600061252d60ff841683612cab565b600181811c90821680612d6f57607f821691505b6020821081141561095357634e487b7160e01b600052602260045260246000fd5b600082612dad57634e487b7160e01b600052601260045260246000fd5b500490565b60008251612dc4818460208701612aaa565b9190910192915050565b76020b1b1b2b9b9a1b7b73a3937b61d1030b1b1b7bab73a1604d1b815260008351612e00816017850160208801612aaa565b7001034b99036b4b9b9b4b733903937b6329607d1b6017918401918201528351612e31816028840160208801612aaa565b01602801949350505050565b600082821015612e4f57612e4f612b91565b500390565b6020808252601590820152741c995919595b555b99195c9b1e5a5b99c819985a5b605a1b604082015260600190565b6080808252855190820181905260009060209060a0840190828901845b82811015612ec55781516001600160a01b031684529284019290840190600101612ea0565b5050508381038285015286518082528783019183019060005b81811015612f035783516001600160a01b031683529284019291840191600101612ede565b505086151560408601529250612f17915050565b821515606083015261172d565b6001600160a01b03929092168252602082015260400190565b80516001600160501b038116811461285e57600080fd5b600080600080600060a08688031215612f6c57600080fd5b612f7586612f3d565b9450602086015193506040860151925060608601519150612f9860808701612f3d565b90509295509295909350565b600081612fb357612fb3612b91565b506000190190565b600060208284031215612fcd57600080fd5b8151801515811461252d57600080fdfefc8737ab85eb45125971625a9ebdb75cc78e01d5c1fa80c4c6e5203f47bc4fab928286c473ded01ff8bf61a1986f14a0579066072fa8261442d9fea514d93a4c55435dd261a4b9b3364963f7738a7a662ad9c84396d64be3365284bb7f0a5041a26469706673582212208fb110e42064f42efc60d075c2d2380715f1aa26fcce0565883360a6991627df64736f6c634300080a0033",
  "devdoc": {
    "author": "Forked from here: https://github.com/Grandthrax/yearnV2-generic-lender-strat/blob/master/contracts/GenericLender/GenericCompound.sol",
    "kind": "dev",
    "methods": {
      "aprAfterDeposit(uint256)": {
        "params": {
          "amount": "Amount to add to the lending platform, and that we want to take into account in the apr computation"
        }
      },
      "emergencyWithdraw(uint256)": {
        "details": "Does not check if any error occurs or if the amount withdrawn is correct",
        "params": {
          "amount": "Amount to withdraw"
        }
      },
      "getRoleAdmin(bytes32)": {
        "details": "Returns the admin role that controls `role`. See {grantRole} and {revokeRole}. To change a role's admin, use {_setRoleAdmin}."
      },
      "grantRole(bytes32,address)": {
        "details": "Grants `role` to `account`. If `account` had not been already granted `role`, emits a {RoleGranted} event. Requirements: - the caller must have ``role``'s admin role."
      },
      "hasRole(bytes32,address)": {
        "details": "Returns `true` if `account` has been granted `role`."
      },
      "initialize(address,string,address,address[],address[],address)": {
        "params": {
          "_cToken": "Address of the cToken",
          "_strategy": "Reference to the strategy using this lender",
          "governorList": "List of addresses with governor privilege",
          "guardian": "Address of the guardian",
          "keeperList": "List of addresses with keeper privilege"
        }
      },
      "recoverETH(address,uint256)": {
        "params": {
          "amount": "Amount to be recovered"
        }
      },
      "renounceRole(bytes32,address)": {
        "details": "Revokes `role` from the calling account. Roles are often managed via {grantRole} and {revokeRole}: this function's purpose is to provide a mechanism for accounts to lose their privileges if they are compromised (such as when a trusted device is misplaced). If the calling account had been granted `role`, emits a {RoleRevoked} event. Requirements: - the caller must be `account`."
      },
      "revokeRole(bytes32,address)": {
        "details": "Revokes `role` from `account`. If `account` had been granted `role`, emits a {RoleRevoked} event. Requirements: - the caller must have ``role``'s admin role."
      },
      "swapComp(uint256,bytes)": {
        "params": {
          "minAmountOut": "Minimum amount accepted for the swap to happen",
          "payload": "Bytes needed for 1Inch API"
        }
      },
      "sweep(address,address)": {
        "details": "Implement `_protectedTokens()` to specify any additional tokens that should be protected from sweeping in addition to `want`.",
        "params": {
          "_token": "The token to transfer out of this poolManager.",
          "to": "Address to send the tokens to."
        }
      },
      "withdraw(uint256)": {
        "params": {
          "amount": "The amount the caller wants to withdraw"
        },
        "returns": {
          "_0": "Amount actually withdrawn"
        }
      },
      "withdrawAll()": {
        "returns": {
          "_0": "Whether everything was withdrawn or not"
        }
      }
    },
    "title": "GenericCompoundV2",
    "version": 1
  },
  "userdoc": {
    "kind": "user",
    "methods": {
      "apr()": {
        "notice": "Returns an estimation of the current Annual Percentage Rate"
      },
      "aprAfterDeposit(uint256)": {
        "notice": "Returns an estimation of the current Annual Percentage Rate after a new deposit of `amount`"
      },
      "deposit()": {
        "notice": "Deposits the current balance of the contract to the lending platform"
      },
      "emergencyWithdraw(uint256)": {
        "notice": "Withdraws as much as possible in case of emergency and sends it to the `PoolManager`"
      },
      "hasAssets()": {
        "notice": "Check if assets are currently managed by this contract"
      },
      "initialize(address,string,address,address[],address[],address)": {
        "notice": "Initializer of the `GenericCompound`"
      },
      "nav()": {
        "notice": "Helper function to get the current total of assets managed by the lender."
      },
      "poolManager()": {
        "notice": "Reference to the protocol's collateral poolManager"
      },
      "recoverETH(address,uint256)": {
        "notice": "Recovers ETH from the contract"
      },
      "strategy()": {
        "notice": "Reference to the `Strategy`"
      },
      "swapComp(uint256,bytes)": {
        "notice": "Claims and swaps from Uniswap the `comp` earned"
      },
      "sweep(address,address)": {
        "notice": "Removes tokens from this Strategy that are not the type of tokens managed by this Strategy. This may be used in case of accidentally sending the wrong kind of token to this Strategy. Tokens will be sent to `governance()`. This will fail if an attempt is made to sweep `want`, or any tokens that are protected by this Strategy. This may only be called by governance."
      },
      "underlyingBalanceStored()": {
        "notice": "Helper function the current balance of cTokens"
      },
      "want()": {
        "notice": "Reference to the token lent"
      },
      "weightedApr()": {
        "notice": "Returns an estimation of the current Annual Percentage Rate weighted by a factor"
      },
      "withdraw(uint256)": {
        "notice": "Withdraws a given amount from lender"
      },
      "withdrawAll()": {
        "notice": "Withdraws as much as possible from the lending platform"
      }
    },
    "version": 1
  },
  "storageLayout": {
    "storage": [
      {
        "astId": 52,
        "contract": "contracts/GenericCompoundUpgradeable.sol:GenericCompoundUpgradeable",
        "label": "_initialized",
        "offset": 0,
        "slot": "0",
        "type": "t_bool"
      },
      {
        "astId": 55,
        "contract": "contracts/GenericCompoundUpgradeable.sol:GenericCompoundUpgradeable",
        "label": "_initializing",
        "offset": 1,
        "slot": "0",
        "type": "t_bool"
      },
      {
        "astId": 2523,
        "contract": "contracts/GenericCompoundUpgradeable.sol:GenericCompoundUpgradeable",
        "label": "_roles",
        "offset": 0,
        "slot": "1",
        "type": "t_mapping(t_bytes32,t_struct(RoleData)2518_storage)"
      },
      {
        "astId": 2809,
        "contract": "contracts/GenericCompoundUpgradeable.sol:GenericCompoundUpgradeable",
        "label": "__gap",
        "offset": 0,
        "slot": "2",
        "type": "t_array(t_uint256)49_storage"
      },
      {
        "astId": 4272,
        "contract": "contracts/GenericCompoundUpgradeable.sol:GenericCompoundUpgradeable",
        "label": "lenderName",
        "offset": 0,
        "slot": "51",
        "type": "t_string_storage"
      },
      {
        "astId": 4276,
        "contract": "contracts/GenericCompoundUpgradeable.sol:GenericCompoundUpgradeable",
        "label": "poolManager",
        "offset": 0,
        "slot": "52",
        "type": "t_contract(IPoolManager)5783"
      },
      {
        "astId": 4280,
        "contract": "contracts/GenericCompoundUpgradeable.sol:GenericCompoundUpgradeable",
        "label": "strategy",
        "offset": 0,
        "slot": "53",
        "type": "t_address"
      },
      {
        "astId": 4284,
        "contract": "contracts/GenericCompoundUpgradeable.sol:GenericCompoundUpgradeable",
        "label": "want",
        "offset": 0,
        "slot": "54",
        "type": "t_contract(IERC20)1655"
      },
      {
        "astId": 3382,
        "contract": "contracts/GenericCompoundUpgradeable.sol:GenericCompoundUpgradeable",
        "label": "cToken",
        "offset": 0,
        "slot": "55",
        "type": "t_contract(CErc20I)6355"
      },
      {
        "astId": 3384,
        "contract": "contracts/GenericCompoundUpgradeable.sol:GenericCompoundUpgradeable",
        "label": "wantBase",
        "offset": 0,
        "slot": "56",
        "type": "t_uint256"
      }
    ],
    "types": {
      "t_address": {
        "encoding": "inplace",
        "label": "address",
        "numberOfBytes": "20"
      },
      "t_array(t_uint256)49_storage": {
        "base": "t_uint256",
        "encoding": "inplace",
        "label": "uint256[49]",
        "numberOfBytes": "1568"
      },
      "t_bool": {
        "encoding": "inplace",
        "label": "bool",
        "numberOfBytes": "1"
      },
      "t_bytes32": {
        "encoding": "inplace",
        "label": "bytes32",
        "numberOfBytes": "32"
      },
      "t_contract(CErc20I)6355": {
        "encoding": "inplace",
        "label": "contract CErc20I",
        "numberOfBytes": "20"
      },
      "t_contract(IERC20)1655": {
        "encoding": "inplace",
        "label": "contract IERC20",
        "numberOfBytes": "20"
      },
      "t_contract(IPoolManager)5783": {
        "encoding": "inplace",
        "label": "contract IPoolManager",
        "numberOfBytes": "20"
      },
      "t_mapping(t_address,t_bool)": {
        "encoding": "mapping",
        "key": "t_address",
        "label": "mapping(address => bool)",
        "numberOfBytes": "32",
        "value": "t_bool"
      },
      "t_mapping(t_bytes32,t_struct(RoleData)2518_storage)": {
        "encoding": "mapping",
        "key": "t_bytes32",
        "label": "mapping(bytes32 => struct AccessControlUpgradeable.RoleData)",
        "numberOfBytes": "32",
        "value": "t_struct(RoleData)2518_storage"
      },
      "t_string_storage": {
        "encoding": "bytes",
        "label": "string",
        "numberOfBytes": "32"
      },
      "t_struct(RoleData)2518_storage": {
        "encoding": "inplace",
        "label": "struct AccessControlUpgradeable.RoleData",
        "members": [
          {
            "astId": 2515,
            "contract": "contracts/GenericCompoundUpgradeable.sol:GenericCompoundUpgradeable",
            "label": "members",
            "offset": 0,
            "slot": "0",
            "type": "t_mapping(t_address,t_bool)"
          },
          {
            "astId": 2517,
            "contract": "contracts/GenericCompoundUpgradeable.sol:GenericCompoundUpgradeable",
            "label": "adminRole",
            "offset": 0,
            "slot": "1",
            "type": "t_bytes32"
          }
        ],
        "numberOfBytes": "64"
      },
      "t_uint256": {
        "encoding": "inplace",
        "label": "uint256",
        "numberOfBytes": "32"
      }
    }
  }
}