{
  "address": "0x2859a4eBcB58c8Dd5cAC1419C4F63A071b642B20",
  "abi": [
    {
      "inputs": [
        {
          "internalType": "address",
          "name": "_poolChainlink",
          "type": "address"
        },
        {
          "internalType": "uint8",
          "name": "_isChainlinkMultiplied",
          "type": "uint8"
        },
        {
          "internalType": "uint256",
          "name": "_inBase",
          "type": "uint256"
        },
        {
          "internalType": "bytes32",
          "name": "_description",
          "type": "bytes32"
        }
      ],
      "stateMutability": "nonpayable",
      "type": "constructor"
    },
    {
      "inputs": [],
      "name": "BASE",
      "outputs": [
        {
          "internalType": "uint256",
          "name": "",
          "type": "uint256"
        }
      ],
      "stateMutability": "view",
      "type": "function"
    },
    {
      "inputs": [],
      "name": "chainlinkDecimals",
      "outputs": [
        {
          "internalType": "uint8",
          "name": "",
          "type": "uint8"
        }
      ],
      "stateMutability": "view",
      "type": "function"
    },
    {
      "inputs": [],
      "name": "description",
      "outputs": [
        {
          "internalType": "bytes32",
          "name": "",
          "type": "bytes32"
        }
      ],
      "stateMutability": "view",
      "type": "function"
    },
    {
      "inputs": [],
      "name": "inBase",
      "outputs": [
        {
          "internalType": "uint256",
          "name": "",
          "type": "uint256"
        }
      ],
      "stateMutability": "view",
      "type": "function"
    },
    {
      "inputs": [],
      "name": "isChainlinkMultiplied",
      "outputs": [
        {
          "internalType": "uint8",
          "name": "",
          "type": "uint8"
        }
      ],
      "stateMutability": "view",
      "type": "function"
    },
    {
      "inputs": [],
      "name": "poolChainlink",
      "outputs": [
        {
          "internalType": "contract AggregatorV3Interface",
          "name": "",
          "type": "address"
        }
      ],
      "stateMutability": "view",
      "type": "function"
    },
    {
      "inputs": [],
      "name": "read",
      "outputs": [
        {
          "internalType": "uint256",
          "name": "rate",
          "type": "uint256"
        }
      ],
      "stateMutability": "view",
      "type": "function"
    },
    {
      "inputs": [],
      "name": "readAll",
      "outputs": [
        {
          "internalType": "uint256",
          "name": "",
          "type": "uint256"
        },
        {
          "internalType": "uint256",
          "name": "",
          "type": "uint256"
        }
      ],
      "stateMutability": "view",
      "type": "function"
    },
    {
      "inputs": [],
      "name": "readLower",
      "outputs": [
        {
          "internalType": "uint256",
          "name": "rate",
          "type": "uint256"
        }
      ],
      "stateMutability": "view",
      "type": "function"
    },
    {
      "inputs": [
        {
          "internalType": "uint256",
          "name": "quoteAmount",
          "type": "uint256"
        }
      ],
      "name": "readQuote",
      "outputs": [
        {
          "internalType": "uint256",
          "name": "",
          "type": "uint256"
        }
      ],
      "stateMutability": "view",
      "type": "function"
    },
    {
      "inputs": [
        {
          "internalType": "uint256",
          "name": "quoteAmount",
          "type": "uint256"
        }
      ],
      "name": "readQuoteLower",
      "outputs": [
        {
          "internalType": "uint256",
          "name": "",
          "type": "uint256"
        }
      ],
      "stateMutability": "view",
      "type": "function"
    },
    {
      "inputs": [],
      "name": "readUpper",
      "outputs": [
        {
          "internalType": "uint256",
          "name": "rate",
          "type": "uint256"
        }
      ],
      "stateMutability": "view",
      "type": "function"
    }
  ],
  "transactionHash": "0x70503a6e364cbb8a7f5840b11221655ce928c64058d3a4cc02d2de934ccb1490",
  "args": [
    "0xb49f677943BC038e9857d61E7d053CaA2C1734C1",
    0,
    "1000000",
    "0x618c7c056ee613e15967a95f943dfd4d9a5950d7f2d80c06b87e0f5f605aef98"
  ],
  "solcInputHash": "c1a2cc7754e40d365e6c8a31eb4e6940",
  "bytecode": "0x60e060405234801561001057600080fd5b5060405161095938038061095983398101604081905261002f91610159565b83836001600160a01b0382166100715760405162461bcd60e51b815260206004820152600360248201526231303560e81b604482015260640160405180910390fd5b816001600160a01b03166080816001600160a01b031660601b81525050816001600160a01b031663313ce5676040518163ffffffff1660e01b815260040160206040518083038186803b1580156100c757600080fd5b505afa1580156100db573d6000803e3d6000fd5b505050506040513d601f19601f820116820180604052508101906100ff91906101aa565b7fff0000000000000000000000000000000000000000000000000000000000000060f891821b811660c05291901b1660a05250600091909155600155506101cc9050565b805160ff8116811461015457600080fd5b919050565b6000806000806080858703121561016f57600080fd5b84516001600160a01b038116811461018657600080fd5b935061019460208601610143565b6040860151606090960151949790965092505050565b6000602082840312156101bc57600080fd5b6101c582610143565b9392505050565b60805160601c60a05160f81c60c05160f81c610741610218600039600081816101c1015261031701526000818160de01526102f601526000818161011c01526102d501526107416000f3fe608060405234801561001057600080fd5b50600436106100d45760003560e01c806351e643731161008157806392611e331161005b57806392611e33146101f45780639aefb5c3146101fc578063ec342ad01461020557600080fd5b806351e64373146101bc57806357de26a4146101e35780637284e416146101eb57600080fd5b80633593ba7b116100b25780633593ba7b1461018457806341f654f714610197578063442133bd146101b457600080fd5b80631d1ff675146100d9578063210d5a2914610117578063240fd5ab14610163575b600080fd5b6101007f000000000000000000000000000000000000000000000000000000000000000081565b60405160ff90911681526020015b60405180910390f35b61013e7f000000000000000000000000000000000000000000000000000000000000000081565b60405173ffffffffffffffffffffffffffffffffffffffff909116815260200161010e565b6101766101713660046104c8565b610214565b60405190815260200161010e565b6101766101923660046104c8565b610225565b61019f610239565b6040805192835260208301919091520161010e565b61017661024f565b6101007f000000000000000000000000000000000000000000000000000000000000000081565b61017661025c565b61017660015481565b610176610275565b61017660005481565b610176670de0b6b3a764000081565b600061021f82610282565b92915050565b600080610231836102b4565b509392505050565b6000806102476000546102b4565b915091509091565b600061021f6000546102b4565b600061026f670de0b6b3a76400006102cc565b50919050565b600061026f6000546102b4565b60008054610298670de0b6b3a76400008461069f565b6102a29190610531565b91506102ad826102cc565b5092915050565b60008060006102c284610282565b9485945092505050565b600080610340837f00000000000000000000000000000000000000000000000000000000000000007f00000000000000000000000000000000000000000000000000000000000000007f000000000000000000000000000000000000000000000000000000000000000060ff166000610349565b91509150915091565b600080826104485760008673ffffffffffffffffffffffffffffffffffffffff1663feaf968c6040518163ffffffff1660e01b815260040160a06040518083038186803b15801561039957600080fd5b505afa1580156103ad573d6000803e3d6000fd5b505050506040513d601f19601f820116820180604052508101906103d191906104e1565b50505091505060008113610445576040517f08c379a000000000000000000000000000000000000000000000000000000000815260206004820152600360248201527f3130300000000000000000000000000000000000000000000000000000000000604482015260640160405180910390fd5b92505b8460ff166001141561047a5761045f84600a6105cd565b610469848961069f565b6104739190610531565b965061049d565b8261048685600a6105cd565b610490908961069f565b61049a9190610531565b96505b50949590945092505050565b805169ffffffffffffffffffff811681146104c357600080fd5b919050565b6000602082840312156104da57600080fd5b5035919050565b600080600080600060a086880312156104f957600080fd5b610502866104a9565b9450602086015193506040860151925060608601519150610525608087016104a9565b90509295509295909350565b600082610567577f4e487b7100000000000000000000000000000000000000000000000000000000600052601260045260246000fd5b500490565b600181815b808511156105c557817fffffffffffffffffffffffffffffffffffffffffffffffffffffffffffffffff048211156105ab576105ab6106dc565b808516156105b857918102915b93841c9390800290610571565b509250929050565b60006105d983836105e0565b9392505050565b6000826105ef5750600161021f565b816105fc5750600061021f565b8160018114610612576002811461061c57610638565b600191505061021f565b60ff84111561062d5761062d6106dc565b50506001821b61021f565b5060208310610133831016604e8410600b841016171561065b575081810a61021f565b610665838361056c565b807fffffffffffffffffffffffffffffffffffffffffffffffffffffffffffffffff04821115610697576106976106dc565b029392505050565b6000817fffffffffffffffffffffffffffffffffffffffffffffffffffffffffffffffff04831182151516156106d7576106d76106dc565b500290565b7f4e487b7100000000000000000000000000000000000000000000000000000000600052601160045260246000fdfea2646970667358221220f8f59c4b19e9a5f97c9a0316492b22c07b0809a8577d97b7063206d3b64e492464736f6c63430008070033",
  "devdoc": {
    "author": "Angle Core Team",
    "details": "This contract concerns an oracle that only uses Chainlink and a single poolThis is mainly going to be the contract used for the USD/EUR pool (or for other fiat currencies)Like all oracle contracts, this contract is an instance of `OracleAstract` that contains some base functions",
    "kind": "dev",
    "methods": {
      "constructor": {
        "params": {
          "_description": "Description of the assets concerned by the oracle",
          "_inBase": "Number of units of the in-currency",
          "_isChainlinkMultiplied": "Whether we should multiply or divide by the Chainlink rate the in-currency amount to get the out-currency amount",
          "_poolChainlink": "Chainlink pool address"
        }
      },
      "read()": {
        "returns": {
          "rate": "The current rate between the in-currency and out-currency"
        }
      },
      "readAll()": {
        "details": "The rate returned is expressed with base `BASE` (and not the base of the out-currency)",
        "returns": {
          "_0": "Return all available rates (Chainlink and Uniswap) with the lowest rate returned first."
        }
      },
      "readLower()": {
        "details": "If there is only one rate computed in an oracle contract, then the only rate is returned regardless of the value of the `lower` parameterThe rate returned is expressed with base `BASE` (and not the base of the out-currency)",
        "returns": {
          "rate": "The lower rate between Chainlink and Uniswap"
        }
      },
      "readQuote(uint256)": {
        "details": "The amount returned is expressed with base `BASE` (and not the base of the out-currency)",
        "params": {
          "quoteAmount": "Amount (in the input collateral) to be converted in out-currency"
        },
        "returns": {
          "_0": "Quote amount in out-currency from the base amount in in-currency"
        }
      },
      "readQuoteLower(uint256)": {
        "details": "The rate returned is expressed with base `BASE` (and not the base of the out-currency)",
        "params": {
          "quoteAmount": "Amount (in the input collateral) to be converted"
        },
        "returns": {
          "_0": "The lowest quote amount from the quote amount in in-currency"
        }
      },
      "readUpper()": {
        "details": "If there is only one rate computed in an oracle contract, then the only rate is returned regardless of the value of the `lower` parameterThe rate returned is expressed with base `BASE` (and not the base of the out-currency)",
        "returns": {
          "rate": "The upper rate between Chainlink and Uniswap"
        }
      }
    },
    "title": "OracleChainlinkSingle",
    "version": 1
  },
  "userdoc": {
    "kind": "user",
    "methods": {
      "BASE()": {
        "notice": "Base used for computation"
      },
      "chainlinkDecimals()": {
        "notice": "Decimals for each Chainlink pairs"
      },
      "constructor": {
        "notice": "Constructor for the oracle using a single Chainlink pool"
      },
      "description()": {
        "notice": "Description of the assets concerned by the oracle and the price outputted"
      },
      "inBase()": {
        "notice": "Unit of the in-currency"
      },
      "isChainlinkMultiplied()": {
        "notice": "Whether the rate computed using the Chainlink pool should be multiplied to the quote amount or not"
      },
      "poolChainlink()": {
        "notice": "Chainlink pool to look for in the contract"
      },
      "read()": {
        "notice": "Reads the rate from the Chainlink feed"
      },
      "readAll()": {
        "notice": "Read rates from the circuit of both Uniswap and Chainlink if there are both circuits else returns twice the same price"
      },
      "readLower()": {
        "notice": "Reads rates from the circuit of both Uniswap and Chainlink if there are both circuits and returns either the highest of both rates or the lowest"
      },
      "readQuote(uint256)": {
        "notice": "Converts an in-currency quote amount to out-currency using Chainlink's feed"
      },
      "readQuoteLower(uint256)": {
        "notice": "Returns the lowest quote amount between Uniswap and Chainlink circuits (if possible). If the oracle contract only involves a single feed, then this returns the value of this feed"
      },
      "readUpper()": {
        "notice": "Reads rates from the circuit of both Uniswap and Chainlink if there are both circuits and returns either the highest of both rates or the lowest"
      }
    },
    "notice": "Oracle contract, one contract is deployed per collateral/stablecoin pair",
    "version": 1
  },
  "storageLayout": {
    "storage": [
      {
        "astId": 28059,
        "contract": "contracts/oracle/OracleChainlinkSingle.sol:OracleChainlinkSingle",
        "label": "inBase",
        "offset": 0,
        "slot": "0",
        "type": "t_uint256"
      },
      {
        "astId": 28062,
        "contract": "contracts/oracle/OracleChainlinkSingle.sol:OracleChainlinkSingle",
        "label": "description",
        "offset": 0,
        "slot": "1",
        "type": "t_bytes32"
      }
    ],
    "types": {
      "t_bytes32": {
        "encoding": "inplace",
        "label": "bytes32",
        "numberOfBytes": "32"
      },
      "t_uint256": {
        "encoding": "inplace",
        "label": "uint256",
        "numberOfBytes": "32"
      }
    }
  }
}