{
  "address": "0xc9Cb5703C109D4Fe46d2F29b0454c434e42A6947",
  "abi": [
    {
      "inputs": [
        {
          "internalType": "address[]",
          "name": "addressInAndOutUni",
          "type": "address[]"
        },
        {
          "internalType": "contract IUniswapV3Pool[]",
          "name": "_circuitUniswap",
          "type": "address[]"
        },
        {
          "internalType": "uint8[]",
          "name": "_circuitUniIsMultiplied",
          "type": "uint8[]"
        },
        {
          "internalType": "uint32",
          "name": "_twapPeriod",
          "type": "uint32"
        },
        {
          "internalType": "uint16",
          "name": "observationLength",
          "type": "uint16"
        },
        {
          "internalType": "uint8",
          "name": "_uniFinalCurrency",
          "type": "uint8"
        },
        {
          "internalType": "address[]",
          "name": "_circuitChainlink",
          "type": "address[]"
        },
        {
          "internalType": "uint8[]",
          "name": "_circuitChainIsMultiplied",
          "type": "uint8[]"
        },
        {
          "internalType": "address[]",
          "name": "guardians",
          "type": "address[]"
        },
        {
          "internalType": "bytes32",
          "name": "_description",
          "type": "bytes32"
        }
      ],
      "stateMutability": "nonpayable",
      "type": "constructor"
    },
    {
      "anonymous": false,
      "inputs": [
        {
          "indexed": true,
          "internalType": "bytes32",
          "name": "role",
          "type": "bytes32"
        },
        {
          "indexed": true,
          "internalType": "bytes32",
          "name": "previousAdminRole",
          "type": "bytes32"
        },
        {
          "indexed": true,
          "internalType": "bytes32",
          "name": "newAdminRole",
          "type": "bytes32"
        }
      ],
      "name": "RoleAdminChanged",
      "type": "event"
    },
    {
      "anonymous": false,
      "inputs": [
        {
          "indexed": true,
          "internalType": "bytes32",
          "name": "role",
          "type": "bytes32"
        },
        {
          "indexed": true,
          "internalType": "address",
          "name": "account",
          "type": "address"
        },
        {
          "indexed": true,
          "internalType": "address",
          "name": "sender",
          "type": "address"
        }
      ],
      "name": "RoleGranted",
      "type": "event"
    },
    {
      "anonymous": false,
      "inputs": [
        {
          "indexed": true,
          "internalType": "bytes32",
          "name": "role",
          "type": "bytes32"
        },
        {
          "indexed": true,
          "internalType": "address",
          "name": "account",
          "type": "address"
        },
        {
          "indexed": true,
          "internalType": "address",
          "name": "sender",
          "type": "address"
        }
      ],
      "name": "RoleRevoked",
      "type": "event"
    },
    {
      "inputs": [],
      "name": "BASE",
      "outputs": [
        {
          "internalType": "uint256",
          "name": "",
          "type": "uint256"
        }
      ],
      "stateMutability": "view",
      "type": "function"
    },
    {
      "inputs": [],
      "name": "DEFAULT_ADMIN_ROLE",
      "outputs": [
        {
          "internalType": "bytes32",
          "name": "",
          "type": "bytes32"
        }
      ],
      "stateMutability": "view",
      "type": "function"
    },
    {
      "inputs": [],
      "name": "GUARDIAN_ROLE",
      "outputs": [
        {
          "internalType": "bytes32",
          "name": "",
          "type": "bytes32"
        }
      ],
      "stateMutability": "view",
      "type": "function"
    },
    {
      "inputs": [
        {
          "internalType": "uint256",
          "name": "",
          "type": "uint256"
        }
      ],
      "name": "chainlinkDecimals",
      "outputs": [
        {
          "internalType": "uint8",
          "name": "",
          "type": "uint8"
        }
      ],
      "stateMutability": "view",
      "type": "function"
    },
    {
      "inputs": [
        {
          "internalType": "uint32",
          "name": "_twapPeriod",
          "type": "uint32"
        }
      ],
      "name": "changeTwapPeriod",
      "outputs": [],
      "stateMutability": "nonpayable",
      "type": "function"
    },
    {
      "inputs": [
        {
          "internalType": "uint256",
          "name": "",
          "type": "uint256"
        }
      ],
      "name": "circuitChainIsMultiplied",
      "outputs": [
        {
          "internalType": "uint8",
          "name": "",
          "type": "uint8"
        }
      ],
      "stateMutability": "view",
      "type": "function"
    },
    {
      "inputs": [
        {
          "internalType": "uint256",
          "name": "",
          "type": "uint256"
        }
      ],
      "name": "circuitChainlink",
      "outputs": [
        {
          "internalType": "contract AggregatorV3Interface",
          "name": "",
          "type": "address"
        }
      ],
      "stateMutability": "view",
      "type": "function"
    },
    {
      "inputs": [
        {
          "internalType": "uint256",
          "name": "",
          "type": "uint256"
        }
      ],
      "name": "circuitUniIsMultiplied",
      "outputs": [
        {
          "internalType": "uint8",
          "name": "",
          "type": "uint8"
        }
      ],
      "stateMutability": "view",
      "type": "function"
    },
    {
      "inputs": [
        {
          "internalType": "uint256",
          "name": "",
          "type": "uint256"
        }
      ],
      "name": "circuitUniswap",
      "outputs": [
        {
          "internalType": "contract IUniswapV3Pool",
          "name": "",
          "type": "address"
        }
      ],
      "stateMutability": "view",
      "type": "function"
    },
    {
      "inputs": [],
      "name": "description",
      "outputs": [
        {
          "internalType": "bytes32",
          "name": "",
          "type": "bytes32"
        }
      ],
      "stateMutability": "view",
      "type": "function"
    },
    {
      "inputs": [
        {
          "internalType": "bytes32",
          "name": "role",
          "type": "bytes32"
        }
      ],
      "name": "getRoleAdmin",
      "outputs": [
        {
          "internalType": "bytes32",
          "name": "",
          "type": "bytes32"
        }
      ],
      "stateMutability": "view",
      "type": "function"
    },
    {
      "inputs": [
        {
          "internalType": "bytes32",
          "name": "role",
          "type": "bytes32"
        },
        {
          "internalType": "address",
          "name": "account",
          "type": "address"
        }
      ],
      "name": "grantRole",
      "outputs": [],
      "stateMutability": "nonpayable",
      "type": "function"
    },
    {
      "inputs": [
        {
          "internalType": "bytes32",
          "name": "role",
          "type": "bytes32"
        },
        {
          "internalType": "address",
          "name": "account",
          "type": "address"
        }
      ],
      "name": "hasRole",
      "outputs": [
        {
          "internalType": "bool",
          "name": "",
          "type": "bool"
        }
      ],
      "stateMutability": "view",
      "type": "function"
    },
    {
      "inputs": [],
      "name": "inBase",
      "outputs": [
        {
          "internalType": "uint256",
          "name": "",
          "type": "uint256"
        }
      ],
      "stateMutability": "view",
      "type": "function"
    },
    {
      "inputs": [
        {
          "internalType": "uint16",
          "name": "newLengthStored",
          "type": "uint16"
        }
      ],
      "name": "increaseTWAPStore",
      "outputs": [],
      "stateMutability": "nonpayable",
      "type": "function"
    },
    {
      "inputs": [],
      "name": "outBase",
      "outputs": [
        {
          "internalType": "uint256",
          "name": "",
          "type": "uint256"
        }
      ],
      "stateMutability": "view",
      "type": "function"
    },
    {
      "inputs": [],
      "name": "read",
      "outputs": [
        {
          "internalType": "uint256",
          "name": "",
          "type": "uint256"
        }
      ],
      "stateMutability": "view",
      "type": "function"
    },
    {
      "inputs": [],
      "name": "readAll",
      "outputs": [
        {
          "internalType": "uint256",
          "name": "",
          "type": "uint256"
        },
        {
          "internalType": "uint256",
          "name": "",
          "type": "uint256"
        }
      ],
      "stateMutability": "view",
      "type": "function"
    },
    {
      "inputs": [],
      "name": "readLower",
      "outputs": [
        {
          "internalType": "uint256",
          "name": "rate",
          "type": "uint256"
        }
      ],
      "stateMutability": "view",
      "type": "function"
    },
    {
      "inputs": [
        {
          "internalType": "uint256",
          "name": "quoteAmount",
          "type": "uint256"
        }
      ],
      "name": "readQuote",
      "outputs": [
        {
          "internalType": "uint256",
          "name": "",
          "type": "uint256"
        }
      ],
      "stateMutability": "view",
      "type": "function"
    },
    {
      "inputs": [
        {
          "internalType": "uint256",
          "name": "quoteAmount",
          "type": "uint256"
        }
      ],
      "name": "readQuoteLower",
      "outputs": [
        {
          "internalType": "uint256",
          "name": "",
          "type": "uint256"
        }
      ],
      "stateMutability": "view",
      "type": "function"
    },
    {
      "inputs": [],
      "name": "readUpper",
      "outputs": [
        {
          "internalType": "uint256",
          "name": "rate",
          "type": "uint256"
        }
      ],
      "stateMutability": "view",
      "type": "function"
    },
    {
      "inputs": [
        {
          "internalType": "bytes32",
          "name": "role",
          "type": "bytes32"
        },
        {
          "internalType": "address",
          "name": "account",
          "type": "address"
        }
      ],
      "name": "renounceRole",
      "outputs": [],
      "stateMutability": "nonpayable",
      "type": "function"
    },
    {
      "inputs": [
        {
          "internalType": "bytes32",
          "name": "role",
          "type": "bytes32"
        },
        {
          "internalType": "address",
          "name": "account",
          "type": "address"
        }
      ],
      "name": "revokeRole",
      "outputs": [],
      "stateMutability": "nonpayable",
      "type": "function"
    },
    {
      "inputs": [],
      "name": "twapPeriod",
      "outputs": [
        {
          "internalType": "uint32",
          "name": "",
          "type": "uint32"
        }
      ],
      "stateMutability": "view",
      "type": "function"
    },
    {
      "inputs": [],
      "name": "uniFinalCurrency",
      "outputs": [
        {
          "internalType": "uint8",
          "name": "",
          "type": "uint8"
        }
      ],
      "stateMutability": "view",
      "type": "function"
    }
  ],
  "transactionHash": "0x09667b76bbfcce3a9d40d492e82bf757a518a4538e4b2ec6f5f7fef49e5df87a",
  "args": [
    [
      "0x6B175474E89094C44Da98b954EedeAC495271d0F",
      "0xA0b86991c6218b36c1d19D4a2e9Eb0cE3606eB48"
    ],
    [
      "0x6c6Bc977E13Df9b0de53b251522280BB72383700"
    ],
    [
      1
    ],
    600,
    300,
    1,
    [
      "0xAed0c38402a5d19df6E4c03F4E2DceD6e29c1ee9",
      "0xb49f677943BC038e9857d61E7d053CaA2C1734C1"
    ],
    [
      1,
      0
    ],
    [
      "0x5183f032bf42109cD370B9559FD22207e432301E",
      "0x0C2553e4B9dFA9f83b1A6D3EAB96c4bAaB42d430"
    ],
    "0xd863b6c08827232be80e967a0adbd3acc3852b7def244f3ef1ffb77d5ea32c07"
  ],
  "solcInputHash": "f23a76f26c3628382787b6f8fe48535e",
  "bytecode": "0x60c06040523480156200001157600080fd5b506040516200316538038062003165833981016040819052620000349162000a64565b88888888858888600082519050600081116200007d5760405162461bcd60e51b815260206004820152600360248201526218981b60e91b60448201526064015b60405180910390fd5b81518114620000b55760405162461bcd60e51b81526020600482015260036024820152620c4c0d60ea1b604482015260640162000074565b60005b81811015620001f5576000848281518110620000d857620000d862000d6a565b602090810291909101810151600280546001810182556000919091527f405787fa12a823e0f2b7631cc41b3ba8828b3321ca811111fa75cd3aa3bb5ace0180546001600160a01b0319166001600160a01b0383169081179091556040805163313ce56760e01b81529051929450600493919263313ce567928583019290919081900386018186803b1580156200016d57600080fd5b505afa15801562000182573d6000803e3d6000fd5b505050506040513d601f19601f82011682018060405250810190620001a8919062000bb0565b81546001810183556000928352602092839020928104909201805460ff928316601f9094166101000a93840292909302199092161790555080620001ec8162000d36565b915050620000b8565b5081516200020b906003906020850190620007a2565b505050506000815111620002485760405162461bcd60e51b815260206004820152600360248201526231303160e81b604482015260640162000074565b60005b81518110156200030c5760006001600160a01b031682828151811062000275576200027562000d6a565b60200260200101516001600160a01b03161415620002ba5760405162461bcd60e51b81526020600482015260016024820152600360fc1b604482015260640162000074565b620002f760008051602062003145833981519152838381518110620002e357620002e362000d6a565b60200260200101516200068760201b60201c565b80620003038162000d36565b9150506200024b565b5062000328600080516020620031458339815191528062000697565b60008360030b13620003635760405162461bcd60e51b815260206004820152600360248201526218981960e91b604482015260640162000074565b8451806200039a5760405162461bcd60e51b815260206004820152600360248201526231303360e81b604482015260640162000074565b84518114620003d25760405162461bcd60e51b81526020600482015260036024820152620c4c0d60ea1b604482015260640162000074565b6006805463ffffffff191663ffffffff86161790558551620003fc9060079060208901906200084f565b50845162000412906008906020880190620007a2565b5060005b81811015620004b7576007818154811062000435576200043562000d6a565b6000918252602090912001546040516332148f6760e01b815261ffff861660048201526001600160a01b03909116906332148f6790602401600060405180830381600087803b1580156200048857600080fd5b505af11580156200049d573d6000803e3d6000fd5b505050508080620004ae9062000d36565b91505062000416565b505050505050508951600214620004f75760405162461bcd60e51b815260206004820152600360248201526231303760e81b604482015260640162000074565b60008a6000815181106200050f576200050f62000d6a565b6020026020010151905060008b60018151811062000531576200053162000d6a565b60200260200101519050816001600160a01b031663313ce5676040518163ffffffff1660e01b815260040160206040518083038186803b1580156200057557600080fd5b505afa1580156200058a573d6000803e3d6000fd5b505050506040513d601f19601f82011682018060405250810190620005b0919062000bb0565b620005bd90600a62000c77565b600081905550806001600160a01b031663313ce5676040518163ffffffff1660e01b815260040160206040518083038186803b158015620005fd57600080fd5b505afa15801562000612573d6000803e3d6000fd5b505050506040513d601f19601f8201168201806040525081019062000638919062000bb0565b6200064590600a62000c77565b60a052505060f89490941b7fff00000000000000000000000000000000000000000000000000000000000000166080525050506001555062000daf9350505050565b620006938282620006eb565b5050565b600082815260056020526040902060010154819060405184907fbd79b86ffe0ab8e8776151514217cd7cacd52c909f66475c3af44e129f0b00ff90600090a460009182526005602052604090912060010155565b620006f7828262000775565b620006935760008281526005602090815260408083206001600160a01b03851684529091529020805460ff19166001179055620007313390565b6001600160a01b0316816001600160a01b0316837f2f8788117e7eff1d82e926ec794901d17c78024a50270940304540a733656f0d60405160405180910390a45050565b60008281526005602090815260408083206001600160a01b038516845290915290205460ff165b92915050565b82805482825590600052602060002090601f016020900481019282156200083d5791602002820160005b838211156200080c57835183826101000a81548160ff021916908360ff1602179055509260200192600101602081600001049283019260010302620007cc565b80156200083b5782816101000a81549060ff02191690556001016020816000010492830192600103026200080c565b505b506200084b929150620008a7565b5090565b8280548282559060005260206000209081019282156200083d579160200282015b828111156200083d57825182546001600160a01b0319166001600160a01b0390911617825560209092019160019091019062000870565b5b808211156200084b5760008155600101620008a8565b600082601f830112620008d057600080fd5b81516020620008e9620008e38362000c08565b62000bd5565b80838252828201915082860187848660051b89010111156200090a57600080fd5b60005b8581101562000936578151620009238162000d96565b845292840192908401906001016200090d565b5090979650505050505050565b600082601f8301126200095557600080fd5b8151602062000968620008e38362000c08565b80838252828201915082860187848660051b89010111156200098957600080fd5b60005b8581101562000936578151620009a28162000d96565b845292840192908401906001016200098c565b600082601f830112620009c757600080fd5b81516020620009da620008e38362000c08565b80838252828201915082860187848660051b8901011115620009fb57600080fd5b60005b85811015620009365762000a128262000a52565b84529284019290840190600101620009fe565b805161ffff8116811462000a3857600080fd5b919050565b805163ffffffff8116811462000a3857600080fd5b805160ff8116811462000a3857600080fd5b6000806000806000806000806000806101408b8d03121562000a8557600080fd5b8a516001600160401b038082111562000a9d57600080fd5b62000aab8e838f01620008be565b9b5060208d015191508082111562000ac257600080fd5b62000ad08e838f0162000943565b9a5060408d015191508082111562000ae757600080fd5b62000af58e838f01620009b5565b995062000b0560608e0162000a3d565b985062000b1560808e0162000a25565b975062000b2560a08e0162000a52565b965060c08d015191508082111562000b3c57600080fd5b62000b4a8e838f01620008be565b955060e08d015191508082111562000b6157600080fd5b62000b6f8e838f01620009b5565b94506101008d015191508082111562000b8757600080fd5b5062000b968d828e01620008be565b9250506101208b015190509295989b9194979a5092959850565b60006020828403121562000bc357600080fd5b62000bce8262000a52565b9392505050565b604051601f8201601f191681016001600160401b038111828210171562000c005762000c0062000d80565b604052919050565b60006001600160401b0382111562000c245762000c2462000d80565b5060051b60200190565b600181815b8085111562000c6f57816000190482111562000c535762000c5362000d54565b8085161562000c6157918102915b93841c939080029062000c33565b509250929050565b600062000bce60ff84168360008262000c93575060016200079c565b8162000ca2575060006200079c565b816001811462000cbb576002811462000cc65762000ce6565b60019150506200079c565b60ff84111562000cda5762000cda62000d54565b50506001821b6200079c565b5060208310610133831016604e8410600b841016171562000d0b575081810a6200079c565b62000d17838362000c2e565b806000190482111562000d2e5762000d2e62000d54565b029392505050565b600060001982141562000d4d5762000d4d62000d54565b5060010190565b634e487b7160e01b600052601160045260246000fd5b634e487b7160e01b600052603260045260246000fd5b634e487b7160e01b600052604160045260246000fd5b6001600160a01b038116811462000dac57600080fd5b50565b60805160f81c60a05161235162000df4600039600081816101b8015281816107e10152610a2f01526000818161040d015281816108220152610aa401526123516000f3fe608060405234801561001057600080fd5b50600436106101ae5760003560e01c806391d14854116100ee578063cf330c2611610097578063dbda63de11610071578063dbda63de146103e6578063ec342ad0146103f9578063ee32d64114610408578063f62073261461042f57600080fd5b8063cf330c2614610388578063d547741f146103c0578063d74febcb146103d357600080fd5b80639e0a8500116100c85780639e0a85001461035a578063a217fddf1461036d578063b31dbb9f1461037557600080fd5b806391d14854146102f357806392611e33146103495780639aefb5c31461035157600080fd5b80633593ba7b1161015b578063442133bd11610135578063442133bd146102c757806357de26a4146102cf57806365cf10b6146102d75780637284e416146102ea57600080fd5b80633593ba7b1461028457806336568abe1461029757806341f654f7146102aa57600080fd5b806324ea54f41161018c57806324ea54f4146102235780632b271dde1461024a5780632f2ff15d1461026f57600080fd5b806322834baa146101b3578063240fd5ab146101ed578063248a9ca314610200575b600080fd5b6101da7f000000000000000000000000000000000000000000000000000000000000000081565b6040519081526020015b60405180910390f35b6101da6101fb366004611bda565b610454565b6101da61020e366004611bda565b60009081526005602052604090206001015490565b6101da7f55435dd261a4b9b3364963f7738a7a662ad9c84396d64be3365284bb7f0a504181565b61025d610258366004611bda565b610465565b60405160ff90911681526020016101e4565b61028261027d366004611bf3565b610499565b005b6101da610292366004611bda565b6104c4565b6102826102a5366004611bf3565b6104d8565b6102b261056a565b604080519283526020830191909152016101e4565b6101da610580565b6101da61058d565b6102826102e5366004611c23565b61059f565b6101da60015481565b610339610301366004611bf3565b600091825260056020908152604080842073ffffffffffffffffffffffffffffffffffffffff93909316845291905290205460ff1690565b60405190151581526020016101e4565b6101da610662565b6101da60005481565b61025d610368366004611bda565b610675565b6101da600081565b610282610383366004611c47565b610685565b61039b610396366004611bda565b610755565b60405173ffffffffffffffffffffffffffffffffffffffff90911681526020016101e4565b6102826103ce366004611bf3565b61078c565b61039b6103e1366004611bda565b6107b2565b61025d6103f4366004611bda565b6107c2565b6101da670de0b6b3a764000081565b61025d7f000000000000000000000000000000000000000000000000000000000000000081565b60065461043f9063ffffffff1681565b60405163ffffffff90911681526020016101e4565b600061045f826107d2565b92915050565b6008818154811061047557600080fd5b9060005260206000209060209182820401919006915054906101000a900460ff1681565b6000828152600560205260409020600101546104b58133610857565b6104bf8383610929565b505050565b6000806104d083610a1d565b509392505050565b73ffffffffffffffffffffffffffffffffffffffff8116331461055c576040517f08c379a000000000000000000000000000000000000000000000000000000000815260206004820152600260248201527f373100000000000000000000000000000000000000000000000000000000000060448201526064015b60405180910390fd5b6105668282610b66565b5050565b600080610578600054610a1d565b915091509091565b600061045f600054610a1d565b600061059a6000546107d2565b905090565b60005b60075481101561056657600781815481106105bf576105bf612298565b6000918252602090912001546040517f32148f6700000000000000000000000000000000000000000000000000000000815261ffff8416600482015273ffffffffffffffffffffffffffffffffffffffff909116906332148f6790602401600060405180830381600087803b15801561063757600080fd5b505af115801561064b573d6000803e3d6000fd5b50505050808061065a90612192565b9150506105a2565b600061066f600054610a1d565b50919050565b6003818154811061047557600080fd5b7f55435dd261a4b9b3364963f7738a7a662ad9c84396d64be3365284bb7f0a50416106b08133610857565b60008260030b1361071d576040517f08c379a000000000000000000000000000000000000000000000000000000000815260206004820152600260248201527f39390000000000000000000000000000000000000000000000000000000000006044820152606401610553565b50600680547fffffffffffffffffffffffffffffffffffffffffffffffffffffffff000000001663ffffffff92909216919091179055565b6002818154811061076557600080fd5b60009182526020909120015473ffffffffffffffffffffffffffffffffffffffff16905081565b6000828152600560205260409020600101546107a88133610857565b6104bf8383610b66565b6007818154811061076557600080fd5b6004818154811061047557600080fd5b60006107dd82610c21565b90507f0000000000000000000000000000000000000000000000000000000000000000610812670de0b6b3a764000083612013565b61081c9190611ed8565b905060ff7f000000000000000000000000000000000000000000000000000000000000000016156108525761045f600082610cbf565b919050565b600082815260056020908152604080832073ffffffffffffffffffffffffffffffffffffffff8516845290915290205460ff16610566576108af8173ffffffffffffffffffffffffffffffffffffffff166014610d87565b6108ba836020610d87565b6040516020016108cb929190611cbd565b604080517fffffffffffffffffffffffffffffffffffffffffffffffffffffffffffffffe0818403018152908290527f08c379a000000000000000000000000000000000000000000000000000000000825261055391600401611d88565b600082815260056020908152604080832073ffffffffffffffffffffffffffffffffffffffff8516845290915290205460ff1661056657600082815260056020908152604080832073ffffffffffffffffffffffffffffffffffffffff85168452909152902080547fffffffffffffffffffffffffffffffffffffffffffffffffffffffffffffff001660011790556109bf3390565b73ffffffffffffffffffffffffffffffffffffffff168173ffffffffffffffffffffffffffffffffffffffff16837f2f8788117e7eff1d82e926ec794901d17c78024a50270940304540a733656f0d60405160405180910390a45050565b6000806000610a2b84610c21565b90507f0000000000000000000000000000000000000000000000000000000000000000610a60670de0b6b3a764000083612013565b610a6a9190611ed8565b905060008054670de0b6b3a764000086610a849190612013565b610a8e9190611ed8565b90506000610a9b82610fd1565b909250905060ff7f00000000000000000000000000000000000000000000000000000000000000001615610ad657610ad38184610cbf565b92505b610b0081600054670de0b6b3a764000089610af19190612013565b610afb9190611ed8565b610cbf565b9050828211610b3757818111610b1b57959194509092505050565b808311610b2d57909590945092505050565b5094909350915050565b828111610b48579590945092505050565b808211610b5b5791959194509092505050565b509094909350915050565b600082815260056020908152604080832073ffffffffffffffffffffffffffffffffffffffff8516845290915290205460ff161561056657600082815260056020908152604080832073ffffffffffffffffffffffffffffffffffffffff8516808552925280832080547fffffffffffffffffffffffffffffffffffffffffffffffffffffffffffffff0016905551339285917ff6391f5c32d9c69d2a47ea670b442974b53935d1edc7fd64eb21e047a839171b9190a45050565b6000805b600754811015610cb857610ca48360078381548110610c4657610c46612298565b6000918252602090912001546008805473ffffffffffffffffffffffffffffffffffffffff9092169185908110610c7f57610c7f612298565b90600052602060002090602091828204019190069054906101000a900460ff166110a6565b925080610cb081612192565b915050610c25565b5090919050565b6002546000908190610cd3906001906120b8565b9050610d7e8360028381548110610cec57610cec612298565b6000918252602090912001546003805473ffffffffffffffffffffffffffffffffffffffff9092169185908110610d2557610d25612298565b90600052602060002090602091828204019190069054906101000a900460ff1660048581548110610d5857610d58612298565b60009182526020918290209181049091015460ff601f9092166101000a900416886112ad565b50949350505050565b60606000610d96836002612013565b610da1906002611e4c565b67ffffffffffffffff811115610db957610db96122c7565b6040519080825280601f01601f191660200182016040528015610de3576020820181803683370190505b5090507f300000000000000000000000000000000000000000000000000000000000000081600081518110610e1a57610e1a612298565b60200101907effffffffffffffffffffffffffffffffffffffffffffffffffffffffffffff1916908160001a9053507f780000000000000000000000000000000000000000000000000000000000000081600181518110610e7d57610e7d612298565b60200101907effffffffffffffffffffffffffffffffffffffffffffffffffffffffffffff1916908160001a9053506000610eb9846002612013565b610ec4906001611e4c565b90505b6001811115610f61577f303132333435363738396162636465660000000000000000000000000000000085600f1660108110610f0557610f05612298565b1a60f81b828281518110610f1b57610f1b612298565b60200101907effffffffffffffffffffffffffffffffffffffffffffffffffffffffffffff1916908160001a90535060049490941c93610f5a8161215d565b9050610ec7565b508315610fca576040517f08c379a000000000000000000000000000000000000000000000000000000000815260206004820181905260248201527f537472696e67733a20686578206c656e67746820696e73756666696369656e746044820152606401610553565b9392505050565b60008080805b60025481101561109e576110878560028381548110610ff857610ff8612298565b6000918252602090912001546003805473ffffffffffffffffffffffffffffffffffffffff909216918590811061103157611031612298565b90600052602060002090602091828204019190069054906101000a900460ff166004858154811061106457611064612298565b60009182526020808320908204015460ff601f9092166101000a900416906112ad565b90955091508061109681612192565b915050610fd7565b509293915050565b604080516002808252606082018352600092839291906020830190803683375050600654825192935063ffffffff16918391506000906110e8576110e8612298565b602002602001019063ffffffff16908163ffffffff168152505060008160018151811061111757611117612298565b63ffffffff909216602092830291909101909101526040517f883bdbfd00000000000000000000000000000000000000000000000000000000815260009073ffffffffffffffffffffffffffffffffffffffff86169063883bdbfd90611181908590600401611d3e565b60006040518083038186803b15801561119957600080fd5b505afa1580156111ad573d6000803e3d6000fd5b505050506040513d6000823e601f3d9081017fffffffffffffffffffffffffffffffffffffffffffffffffffffffffffffffe01682016040526111f39190810190611b08565b50905060008160008151811061120b5761120b612298565b60200260200101518260018151811061122657611226612298565b60200260200101516112389190612050565b6006549091506000906112549063ffffffff1660030b83611e64565b905060008260060b128015611280575060065461127a9063ffffffff1660030b836121cb565b60060b15155b15611293578061128f816120ff565b9150505b6112a181898860ff16611409565b98975050505050505050565b600080826113a85760008673ffffffffffffffffffffffffffffffffffffffff1663feaf968c6040518163ffffffff1660e01b815260040160a06040518083038186803b1580156112fd57600080fd5b505afa158015611311573d6000803e3d6000fd5b505050506040513d601f19601f820116820180604052508101906113359190611c6d565b505050915050600081136113a5576040517f08c379a000000000000000000000000000000000000000000000000000000000815260206004820152600360248201527f31303000000000000000000000000000000000000000000000000000000000006044820152606401610553565b92505b8460ff16600114156113da576113bf84600a611f4d565b6113c98489612013565b6113d39190611ed8565b96506113fd565b826113e685600a611f4d565b6113f09089612013565b6113fa9190611ed8565b96505b50949590945092505050565b60008061141585611453565b90508260011461143757611432670de0b6b3a764000085836118db565b61144a565b61144a8185670de0b6b3a76400006118db565b95945050505050565b60008060008360020b1261146a578260020b611477565b8260020b61147790612201565b9050620d89e88111156114e6576040517f08c379a000000000000000000000000000000000000000000000000000000000815260206004820152600160248201527f54000000000000000000000000000000000000000000000000000000000000006044820152606401610553565b60006001821661150757700100000000000000000000000000000000611519565b6ffff97272373d413259a46990580e213a5b70ffffffffffffffffffffffffffffffffff1690506002821615611558576080611553826ffff2e50f5f656932ef12357cf3c7fdcc612013565b901c90505b600482161561158257608061157d826fffe5caca7e10e4e61c3624eaa0941cd0612013565b901c90505b60088216156115ac5760806115a7826fffcb9843d60f6159c9db58835c926644612013565b901c90505b60108216156115d65760806115d1826fff973b41fa98c081472e6896dfb254c0612013565b901c90505b60208216156116005760806115fb826fff2ea16466c96a3843ec78b326b52861612013565b901c90505b604082161561162a576080611625826ffe5dee046a99a2a811c461f1969c3053612013565b901c90505b608082161561165457608061164f826ffcbe86c7900a88aedcffc83b479aa3a4612013565b901c90505b61010082161561167f57608061167a826ff987a7253ac413176f2b074cf7815e54612013565b901c90505b6102008216156116aa5760806116a5826ff3392b0822b70005940c7a398e4b70f3612013565b901c90505b6104008216156116d55760806116d0826fe7159475a2c29b7443b29c7fa6e889d9612013565b901c90505b6108008216156117005760806116fb826fd097f3bdfd2022b8845ad8f792aa5825612013565b901c90505b61100082161561172b576080611726826fa9f746462d870fdf8a65dc1f90e061e5612013565b901c90505b612000821615611756576080611751826f70d869a156d2a1b890bb3df62baf32f7612013565b901c90505b61400082161561178157608061177c826f31be135f97d08fd981231505542fcfa6612013565b901c90505b6180008216156117ac5760806117a7826f09aa508b5b7a84e1c677de54f3e99bc9612013565b901c90505b620100008216156117d75760806117d2826e5d6af8dedb81196699c329225ee604612013565b901c90505b620200008216156118015760806117fc826d2216e584f5fa1ea926041bedfe98612013565b901c90505b62040000821615611829576080611824826b048a170391f7dc42444e8fa2612013565b901c90505b6208000082161561184c5760806118478266149b34ee7ac262612013565b901c90505b60008460020b131561188557611882817fffffffffffffffffffffffffffffffffffffffffffffffffffffffffffffffff611ed8565b90505b600061189a68200000000000000000836121ed565b156118a65760016118a9565b60005b6118ba9060ff16604584901c611e4c565b9050603b6118d082670de0b6b3a7640000612013565b901c95945050505050565b600080807fffffffffffffffffffffffffffffffffffffffffffffffffffffffffffffffff8587098587029250828110838203039150508060001415611933576000841161192857600080fd5b508290049050610fca565b80841161193f57600080fd5b600084868809808403938111909203919050600061195f86196001611e4c565b86169586900495938490049360008190030460010190506119808184612013565b909317926000611991876003612013565b60021890506119a08188612013565b6119ab9060026120b8565b6119b59082612013565b90506119c18188612013565b6119cc9060026120b8565b6119d69082612013565b90506119e28188612013565b6119ed9060026120b8565b6119f79082612013565b9050611a038188612013565b611a0e9060026120b8565b611a189082612013565b9050611a248188612013565b611a2f9060026120b8565b611a399082612013565b9050611a458188612013565b611a509060026120b8565b611a5a9082612013565b9050611a668186612013565b9998505050505050505050565b600082601f830112611a8457600080fd5b81516020611a99611a9483611e28565b611dd9565b80838252828201915082860187848660051b8901011115611ab957600080fd5b60005b85811015611ae1578151611acf816122f6565b84529284019290840190600101611abc565b5090979650505050505050565b805169ffffffffffffffffffff8116811461085257600080fd5b60008060408385031215611b1b57600080fd5b825167ffffffffffffffff80821115611b3357600080fd5b818501915085601f830112611b4757600080fd5b81516020611b57611a9483611e28565b8083825282820191508286018a848660051b8901011115611b7757600080fd5b600096505b84871015611ba95780518060060b8114611b9557600080fd5b835260019690960195918301918301611b7c565b5091880151919650909350505080821115611bc357600080fd5b50611bd085828601611a73565b9150509250929050565b600060208284031215611bec57600080fd5b5035919050565b60008060408385031215611c0657600080fd5b823591506020830135611c18816122f6565b809150509250929050565b600060208284031215611c3557600080fd5b813561ffff81168114610fca57600080fd5b600060208284031215611c5957600080fd5b813563ffffffff81168114610fca57600080fd5b600080600080600060a08688031215611c8557600080fd5b611c8e86611aee565b9450602086015193506040860151925060608601519150611cb160808701611aee565b90509295509295909350565b7f416363657373436f6e74726f6c3a206163636f756e7420000000000000000000815260008351611cf58160178501602088016120cf565b7f206973206d697373696e6720726f6c65200000000000000000000000000000006017918401918201528351611d328160288401602088016120cf565b01602801949350505050565b6020808252825182820181905260009190848201906040850190845b81811015611d7c57835163ffffffff1683529284019291840191600101611d5a565b50909695505050505050565b6020815260008251806020840152611da78160408501602087016120cf565b601f017fffffffffffffffffffffffffffffffffffffffffffffffffffffffffffffffe0169190910160400192915050565b604051601f82017fffffffffffffffffffffffffffffffffffffffffffffffffffffffffffffffe016810167ffffffffffffffff81118282101715611e2057611e206122c7565b604052919050565b600067ffffffffffffffff821115611e4257611e426122c7565b5060051b60200190565b60008219821115611e5f57611e5f61223a565b500190565b60008160060b8360060b80611e7b57611e7b612269565b7fffffffffffffffffffffffffffffffffffffffffffffffffffffffffffffffff81147fffffffffffffffffffffffffffffffffffffffffffffffffff8000000000000083141615611ecf57611ecf61223a565b90059392505050565b600082611ee757611ee7612269565b500490565b600181815b80851115611f4557817fffffffffffffffffffffffffffffffffffffffffffffffffffffffffffffffff04821115611f2b57611f2b61223a565b80851615611f3857918102915b93841c9390800290611ef1565b509250929050565b6000610fca8383600082611f635750600161045f565b81611f705750600061045f565b8160018114611f865760028114611f9057611fac565b600191505061045f565b60ff841115611fa157611fa161223a565b50506001821b61045f565b5060208310610133831016604e8410600b8410161715611fcf575081810a61045f565b611fd98383611eec565b807fffffffffffffffffffffffffffffffffffffffffffffffffffffffffffffffff0482111561200b5761200b61223a565b029392505050565b6000817fffffffffffffffffffffffffffffffffffffffffffffffffffffffffffffffff048311821515161561204b5761204b61223a565b500290565b60008160060b8360060b60008112817fffffffffffffffffffffffffffffffffffffffffffffffffff80000000000000018312811516156120935761209361223a565b81667fffffffffffff0183138116156120ae576120ae61223a565b5090039392505050565b6000828210156120ca576120ca61223a565b500390565b60005b838110156120ea5781810151838201526020016120d2565b838111156120f9576000848401525b50505050565b60008160020b7fffffffffffffffffffffffffffffffffffffffffffffffffffffffffff8000008114156121355761213561223a565b7fffffffffffffffffffffffffffffffffffffffffffffffffffffffffffffffff0192915050565b60008161216c5761216c61223a565b507fffffffffffffffffffffffffffffffffffffffffffffffffffffffffffffffff0190565b60007fffffffffffffffffffffffffffffffffffffffffffffffffffffffffffffffff8214156121c4576121c461223a565b5060010190565b60008260060b806121de576121de612269565b808360060b0791505092915050565b6000826121fc576121fc612269565b500690565b60007f80000000000000000000000000000000000000000000000000000000000000008214156122335761223361223a565b5060000390565b7f4e487b7100000000000000000000000000000000000000000000000000000000600052601160045260246000fd5b7f4e487b7100000000000000000000000000000000000000000000000000000000600052601260045260246000fd5b7f4e487b7100000000000000000000000000000000000000000000000000000000600052603260045260246000fd5b7f4e487b7100000000000000000000000000000000000000000000000000000000600052604160045260246000fd5b73ffffffffffffffffffffffffffffffffffffffff8116811461231857600080fd5b5056fea264697066735822122048bf1752be0edfeab3bbeac5be053f438a3edf58f07ef1fd1a4434c3b2c3affa64736f6c6343000807003355435dd261a4b9b3364963f7738a7a662ad9c84396d64be3365284bb7f0a5041",
  "devdoc": {
    "author": "Angle Core Team",
    "details": "This contract concerns an oracle that only uses both Chainlink and Uniswap for multiple poolsThis is going to be used for like ETH/EUR oraclesLike all oracle contracts, this contract is an instance of `OracleAstract` that contains some base functions",
    "kind": "dev",
    "methods": {
      "changeTwapPeriod(uint32)": {
        "params": {
          "_twapPeriod": "New window to compute the TWAP"
        }
      },
      "constructor": {
        "details": "When deploying this contract, it is important to check in the case where Uniswap circuit is not final whether Chainlink and Uniswap circuits are compatible. If Chainlink is UNI-WBTC and WBTC-USD and Uniswap is just UNI-WETH, then Chainlink cannot be the final circuit",
        "params": {
          "_circuitChainIsMultiplied": "Whether we should multiply or divide by this rate",
          "_circuitChainlink": "Chainlink pool addresses put in order",
          "_circuitUniIsMultiplied": "Whether we should multiply or divide by this rate in the path",
          "_circuitUniswap": "Path of the Uniswap pools",
          "_description": "Description of the assets concerned by the oracle",
          "_twapPeriod": "Time weighted average window for all Uniswap pools",
          "_uniFinalCurrency": "Whether we need to use the last Chainlink oracle to convert to another currency / asset (Forex for instance)",
          "addressInAndOutUni": "List of 2 addresses representing the in-currency address and the out-currency address",
          "guardians": "List of governor or guardian addresses",
          "observationLength": "Number of observations that each pool should have stored"
        }
      },
      "getRoleAdmin(bytes32)": {
        "details": "Returns the admin role that controls `role`. See {grantRole} and {revokeRole}. To change a role's admin, use {_setRoleAdmin}."
      },
      "grantRole(bytes32,address)": {
        "details": "Grants `role` to `account`. If `account` had not been already granted `role`, emits a {RoleGranted} event. Requirements: - the caller must have ``role``'s admin role."
      },
      "hasRole(bytes32,address)": {
        "details": "Returns `true` if `account` has been granted `role`."
      },
      "increaseTWAPStore(uint16)": {
        "details": "newLengthStored should be larger than all previous pools observations length",
        "params": {
          "newLengthStored": "Size asked for"
        }
      },
      "read()": {
        "details": "By default even if there is a Chainlink rate, this function returns the Uniswap rateThe amount returned is expressed with base `BASE` (and not the base of the out-currency)",
        "returns": {
          "_0": "The current rate between the in-currency and out-currency"
        }
      },
      "readAll()": {
        "details": "The rate returned is expressed with base `BASE` (and not the base of the out-currency)",
        "returns": {
          "_0": "Return all available rates (Chainlink and Uniswap) with the lowest rate returned first."
        }
      },
      "readLower()": {
        "details": "If there is only one rate computed in an oracle contract, then the only rate is returned regardless of the value of the `lower` parameterThe rate returned is expressed with base `BASE` (and not the base of the out-currency)",
        "returns": {
          "rate": "The lower rate between Chainlink and Uniswap"
        }
      },
      "readQuote(uint256)": {
        "details": "Like in the `read` function, this function returns the Uniswap quoteThe amount returned is expressed with base `BASE` (and not the base of the out-currency)",
        "params": {
          "quoteAmount": "Amount (in the input collateral) to be converted in out-currency"
        },
        "returns": {
          "_0": "Quote amount in out-currency from the base amount in in-currency"
        }
      },
      "readQuoteLower(uint256)": {
        "details": "The rate returned is expressed with base `BASE` (and not the base of the out-currency)",
        "params": {
          "quoteAmount": "Amount (in the input collateral) to be converted"
        },
        "returns": {
          "_0": "The lowest quote amount from the quote amount in in-currency"
        }
      },
      "readUpper()": {
        "details": "If there is only one rate computed in an oracle contract, then the only rate is returned regardless of the value of the `lower` parameterThe rate returned is expressed with base `BASE` (and not the base of the out-currency)",
        "returns": {
          "rate": "The upper rate between Chainlink and Uniswap"
        }
      },
      "renounceRole(bytes32,address)": {
        "details": "Revokes `role` from the calling account. Roles are often managed via {grantRole} and {revokeRole}: this function's purpose is to provide a mechanism for accounts to lose their privileges if they are compromised (such as when a trusted device is misplaced). If the calling account had been granted `role`, emits a {RoleRevoked} event. Requirements: - the caller must be `account`."
      },
      "revokeRole(bytes32,address)": {
        "details": "Revokes `role` from `account`. If `account` had been granted `role`, emits a {RoleRevoked} event. Requirements: - the caller must have ``role``'s admin role."
      }
    },
    "title": "OracleDAI",
    "version": 1
  },
  "userdoc": {
    "kind": "user",
    "methods": {
      "BASE()": {
        "notice": "Base used for computation"
      },
      "chainlinkDecimals(uint256)": {
        "notice": "Decimals for each Chainlink pairs"
      },
      "changeTwapPeriod(uint32)": {
        "notice": "Changes the TWAP period"
      },
      "circuitChainIsMultiplied(uint256)": {
        "notice": "Whether each rate for the pairs in `circuitChainlink` should be multiplied or divided"
      },
      "circuitChainlink(uint256)": {
        "notice": "Chanlink pools, the order of the pools has to be the order in which they are read for the computation of the price"
      },
      "circuitUniIsMultiplied(uint256)": {
        "notice": "Whether the rate obtained with each pool should be multiplied or divided to the current amount"
      },
      "circuitUniswap(uint256)": {
        "notice": "Uniswap pools, the order of the pools to arrive to the final price should be respected"
      },
      "constructor": {
        "notice": "Constructor for an oracle using both Uniswap and Chainlink with multiple pools to read from"
      },
      "description()": {
        "notice": "Description of the assets concerned by the oracle and the price outputted"
      },
      "inBase()": {
        "notice": "Unit of the in-currency"
      },
      "increaseTWAPStore(uint16)": {
        "notice": "Increases the number of observations for each Uniswap pools"
      },
      "outBase()": {
        "notice": "Unit out Uniswap currency"
      },
      "read()": {
        "notice": "Reads the Uniswap rate using the circuit given"
      },
      "readAll()": {
        "notice": "Read rates from the circuit of both Uniswap and Chainlink if there are both circuits else returns twice the same price"
      },
      "readLower()": {
        "notice": "Reads rates from the circuit of both Uniswap and Chainlink if there are both circuits and returns either the highest of both rates or the lowest"
      },
      "readQuote(uint256)": {
        "notice": "Converts an in-currency quote amount to out-currency using the Uniswap rate"
      },
      "readQuoteLower(uint256)": {
        "notice": "Returns the lowest quote amount between Uniswap and Chainlink circuits (if possible). If the oracle contract only involves a single feed, then this returns the value of this feed"
      },
      "readUpper()": {
        "notice": "Reads rates from the circuit of both Uniswap and Chainlink if there are both circuits and returns either the highest of both rates or the lowest"
      },
      "twapPeriod()": {
        "notice": "Time weigthed average window that should be used for each Uniswap rate It is mainly going to be 5 minutes in the protocol"
      },
      "uniFinalCurrency()": {
        "notice": "Whether the final rate obtained with Uniswap should be multiplied to last rate from Chainlink"
      }
    },
    "notice": "Oracle contract, one contract is deployed per collateral/stablecoin pair",
    "version": 1
  },
  "storageLayout": {
    "storage": [
      {
        "astId": 28052,
        "contract": "contracts/oracle/OracleDAI.sol:OracleDAI",
        "label": "inBase",
        "offset": 0,
        "slot": "0",
        "type": "t_uint256"
      },
      {
        "astId": 28055,
        "contract": "contracts/oracle/OracleDAI.sol:OracleDAI",
        "label": "description",
        "offset": 0,
        "slot": "1",
        "type": "t_bytes32"
      },
      {
        "astId": 29004,
        "contract": "contracts/oracle/OracleDAI.sol:OracleDAI",
        "label": "circuitChainlink",
        "offset": 0,
        "slot": "2",
        "type": "t_array(t_contract(AggregatorV3Interface)45)dyn_storage"
      },
      {
        "astId": 29008,
        "contract": "contracts/oracle/OracleDAI.sol:OracleDAI",
        "label": "circuitChainIsMultiplied",
        "offset": 0,
        "slot": "3",
        "type": "t_array(t_uint8)dyn_storage"
      },
      {
        "astId": 29012,
        "contract": "contracts/oracle/OracleDAI.sol:OracleDAI",
        "label": "chainlinkDecimals",
        "offset": 0,
        "slot": "4",
        "type": "t_array(t_uint8)dyn_storage"
      },
      {
        "astId": 16345,
        "contract": "contracts/oracle/OracleDAI.sol:OracleDAI",
        "label": "_roles",
        "offset": 0,
        "slot": "5",
        "type": "t_mapping(t_bytes32,t_struct(RoleData)16340_storage)"
      },
      {
        "astId": 29504,
        "contract": "contracts/oracle/OracleDAI.sol:OracleDAI",
        "label": "twapPeriod",
        "offset": 0,
        "slot": "6",
        "type": "t_uint32"
      },
      {
        "astId": 29216,
        "contract": "contracts/oracle/OracleDAI.sol:OracleDAI",
        "label": "circuitUniswap",
        "offset": 0,
        "slot": "7",
        "type": "t_array(t_contract(IUniswapV3Pool)12201)dyn_storage"
      },
      {
        "astId": 29220,
        "contract": "contracts/oracle/OracleDAI.sol:OracleDAI",
        "label": "circuitUniIsMultiplied",
        "offset": 0,
        "slot": "8",
        "type": "t_array(t_uint8)dyn_storage"
      }
    ],
    "types": {
      "t_address": {
        "encoding": "inplace",
        "label": "address",
        "numberOfBytes": "20"
      },
      "t_array(t_contract(AggregatorV3Interface)45)dyn_storage": {
        "base": "t_contract(AggregatorV3Interface)45",
        "encoding": "dynamic_array",
        "label": "contract AggregatorV3Interface[]",
        "numberOfBytes": "32"
      },
      "t_array(t_contract(IUniswapV3Pool)12201)dyn_storage": {
        "base": "t_contract(IUniswapV3Pool)12201",
        "encoding": "dynamic_array",
        "label": "contract IUniswapV3Pool[]",
        "numberOfBytes": "32"
      },
      "t_array(t_uint8)dyn_storage": {
        "base": "t_uint8",
        "encoding": "dynamic_array",
        "label": "uint8[]",
        "numberOfBytes": "32"
      },
      "t_bool": {
        "encoding": "inplace",
        "label": "bool",
        "numberOfBytes": "1"
      },
      "t_bytes32": {
        "encoding": "inplace",
        "label": "bytes32",
        "numberOfBytes": "32"
      },
      "t_contract(AggregatorV3Interface)45": {
        "encoding": "inplace",
        "label": "contract AggregatorV3Interface",
        "numberOfBytes": "20"
      },
      "t_contract(IUniswapV3Pool)12201": {
        "encoding": "inplace",
        "label": "contract IUniswapV3Pool",
        "numberOfBytes": "20"
      },
      "t_mapping(t_address,t_bool)": {
        "encoding": "mapping",
        "key": "t_address",
        "label": "mapping(address => bool)",
        "numberOfBytes": "32",
        "value": "t_bool"
      },
      "t_mapping(t_bytes32,t_struct(RoleData)16340_storage)": {
        "encoding": "mapping",
        "key": "t_bytes32",
        "label": "mapping(bytes32 => struct AccessControl.RoleData)",
        "numberOfBytes": "32",
        "value": "t_struct(RoleData)16340_storage"
      },
      "t_struct(RoleData)16340_storage": {
        "encoding": "inplace",
        "label": "struct AccessControl.RoleData",
        "members": [
          {
            "astId": 16337,
            "contract": "contracts/oracle/OracleDAI.sol:OracleDAI",
            "label": "members",
            "offset": 0,
            "slot": "0",
            "type": "t_mapping(t_address,t_bool)"
          },
          {
            "astId": 16339,
            "contract": "contracts/oracle/OracleDAI.sol:OracleDAI",
            "label": "adminRole",
            "offset": 0,
            "slot": "1",
            "type": "t_bytes32"
          }
        ],
        "numberOfBytes": "64"
      },
      "t_uint256": {
        "encoding": "inplace",
        "label": "uint256",
        "numberOfBytes": "32"
      },
      "t_uint32": {
        "encoding": "inplace",
        "label": "uint32",
        "numberOfBytes": "4"
      },
      "t_uint8": {
        "encoding": "inplace",
        "label": "uint8",
        "numberOfBytes": "1"
      }
    }
  }
}