{
  "address": "0x2A3C75dc85f83a1BfA80fe304e6159ed4C4Aac87",
  "abi": [
    {
      "inputs": [
        {
          "internalType": "address",
          "name": "_owner",
          "type": "address"
        }
      ],
      "stateMutability": "nonpayable",
      "type": "constructor"
    },
    {
      "inputs": [
        {
          "internalType": "contract IStableMaster",
          "name": "stableMaster",
          "type": "address"
        },
        {
          "internalType": "contract IPoolManager",
          "name": "poolManager",
          "type": "address"
        },
        {
          "internalType": "contract IPerpetualManager",
          "name": "perpetualManager",
          "type": "address"
        },
        {
          "internalType": "contract IFeeManager",
          "name": "feeManager",
          "type": "address"
        },
        {
          "components": [
            {
              "internalType": "uint64[]",
              "name": "xFeeMint",
              "type": "uint64[]"
            },
            {
              "internalType": "uint64[]",
              "name": "yFeeMint",
              "type": "uint64[]"
            },
            {
              "internalType": "uint64[]",
              "name": "xFeeBurn",
              "type": "uint64[]"
            },
            {
              "internalType": "uint64[]",
              "name": "yFeeBurn",
              "type": "uint64[]"
            },
            {
              "internalType": "uint64[]",
              "name": "xHAFeesDeposit",
              "type": "uint64[]"
            },
            {
              "internalType": "uint64[]",
              "name": "yHAFeesDeposit",
              "type": "uint64[]"
            },
            {
              "internalType": "uint64[]",
              "name": "xHAFeesWithdraw",
              "type": "uint64[]"
            },
            {
              "internalType": "uint64[]",
              "name": "yHAFeesWithdraw",
              "type": "uint64[]"
            },
            {
              "internalType": "uint256[]",
              "name": "xSlippageFee",
              "type": "uint256[]"
            },
            {
              "internalType": "uint64[]",
              "name": "ySlippageFee",
              "type": "uint64[]"
            },
            {
              "internalType": "uint256[]",
              "name": "xSlippage",
              "type": "uint256[]"
            },
            {
              "internalType": "uint64[]",
              "name": "ySlippage",
              "type": "uint64[]"
            },
            {
              "internalType": "uint256[]",
              "name": "xBonusMalusMint",
              "type": "uint256[]"
            },
            {
              "internalType": "uint64[]",
              "name": "yBonusMalusMint",
              "type": "uint64[]"
            },
            {
              "internalType": "uint256[]",
              "name": "xBonusMalusBurn",
              "type": "uint256[]"
            },
            {
              "internalType": "uint64[]",
              "name": "yBonusMalusBurn",
              "type": "uint64[]"
            },
            {
              "internalType": "uint64[]",
              "name": "xKeeperFeesClosing",
              "type": "uint64[]"
            },
            {
              "internalType": "uint64[]",
              "name": "yKeeperFeesClosing",
              "type": "uint64[]"
            },
            {
              "internalType": "uint64",
              "name": "haFeeDeposit",
              "type": "uint64"
            },
            {
              "internalType": "uint64",
              "name": "haFeeWithdraw",
              "type": "uint64"
            },
            {
              "internalType": "uint256",
              "name": "capOnStableMinted",
              "type": "uint256"
            },
            {
              "internalType": "uint256",
              "name": "maxInterestsDistributed",
              "type": "uint256"
            },
            {
              "internalType": "uint64",
              "name": "feesForSLPs",
              "type": "uint64"
            },
            {
              "internalType": "uint64",
              "name": "interestsForSLPs",
              "type": "uint64"
            },
            {
              "internalType": "uint64",
              "name": "targetHAHedge",
              "type": "uint64"
            },
            {
              "internalType": "uint64",
              "name": "limitHAHedge",
              "type": "uint64"
            },
            {
              "internalType": "uint64",
              "name": "maxLeverage",
              "type": "uint64"
            },
            {
              "internalType": "uint64",
              "name": "maintenanceMargin",
              "type": "uint64"
            },
            {
              "internalType": "uint64",
              "name": "lockTime",
              "type": "uint64"
            },
            {
              "internalType": "uint64",
              "name": "keeperFeesLiquidationRatio",
              "type": "uint64"
            },
            {
              "internalType": "uint256",
              "name": "keeperFeesLiquidationCap",
              "type": "uint256"
            },
            {
              "internalType": "uint256",
              "name": "keeperFeesClosingCap",
              "type": "uint256"
            }
          ],
          "internalType": "struct PoolParameters",
          "name": "p",
          "type": "tuple"
        }
      ],
      "name": "initCollateral",
      "outputs": [],
      "stateMutability": "nonpayable",
      "type": "function"
    },
    {
      "inputs": [],
      "name": "owner",
      "outputs": [
        {
          "internalType": "address",
          "name": "",
          "type": "address"
        }
      ],
      "stateMutability": "view",
      "type": "function"
    },
    {
      "inputs": [
        {
          "internalType": "address",
          "name": "_newOwner",
          "type": "address"
        }
      ],
      "name": "setOwner",
      "outputs": [],
      "stateMutability": "nonpayable",
      "type": "function"
    }
  ],
  "transactionHash": "0xa3201fa10d10f965ef83b84fc9e05a177fc1fea73f07abb7a5f9eda7cfa2eda3",
  "args": [
    "0x5183f032bf42109cD370B9559FD22207e432301E"
  ],
  "solcInputHash": "d2431381ca4dca5780c529a42e2dc53d",
  "bytecode": "0x608060405234801561001057600080fd5b506040516114d43803806114d483398101604081905261002f91610054565b600080546001600160a01b0319166001600160a01b0392909216919091179055610084565b60006020828403121561006657600080fd5b81516001600160a01b038116811461007d57600080fd5b9392505050565b611441806100936000396000f3fe608060405234801561001057600080fd5b50600436106100415760003560e01c806313af4035146100465780638da5cb5b1461005b578063d15c35d5146100a4575b600080fd5b610059610054366004610d84565b6100b7565b005b60005461007b9073ffffffffffffffffffffffffffffffffffffffff1681565b60405173ffffffffffffffffffffffffffffffffffffffff909116815260200160405180910390f35b6100596100b2366004610da8565b610184565b60005473ffffffffffffffffffffffffffffffffffffffff16331461013d576040517f08c379a000000000000000000000000000000000000000000000000000000000815260206004820152600260248201527f373900000000000000000000000000000000000000000000000000000000000060448201526064015b60405180910390fd5b600080547fffffffffffffffffffffffff00000000000000000000000000000000000000001673ffffffffffffffffffffffffffffffffffffffff92909216919091179055565b60005473ffffffffffffffffffffffffffffffffffffffff163314610205576040517f08c379a000000000000000000000000000000000000000000000000000000000815260206004820152600260248201527f37390000000000000000000000000000000000000000000000000000000000006044820152606401610134565b805160208201516040517fbe8c31ff00000000000000000000000000000000000000000000000000000000815273ffffffffffffffffffffffffffffffffffffffff88169263be8c31ff9261026392899291906001906004016112c4565b600060405180830381600087803b15801561027d57600080fd5b505af1158015610291573d6000803e3d6000fd5b505050508473ffffffffffffffffffffffffffffffffffffffff1663be8c31ff858360400151846060015160006040518563ffffffff1660e01b81526004016102dd94939291906112c4565b600060405180830381600087803b1580156102f757600080fd5b505af115801561030b573d6000803e3d6000fd5b50505050608081015160a08201516040517f8211477a00000000000000000000000000000000000000000000000000000000815273ffffffffffffffffffffffffffffffffffffffff861692638211477a9261036c926001906004016112b1565b600060405180830381600087803b15801561038657600080fd5b505af115801561039a573d6000803e3d6000fd5b5050505060c081015160e08201516040517f8211477a00000000000000000000000000000000000000000000000000000000815273ffffffffffffffffffffffffffffffffffffffff861692638211477a926103fb926000906004016112b1565b600060405180830381600087803b15801561041557600080fd5b505af1158015610429573d6000803e3d6000fd5b505050506101008101516101208201516040517f4e6b13f100000000000000000000000000000000000000000000000000000000815273ffffffffffffffffffffffffffffffffffffffff851692634e6b13f19261048c9260009060040161124a565b600060405180830381600087803b1580156104a657600080fd5b505af11580156104ba573d6000803e3d6000fd5b505050506101808101516101a08201516040517f4e6b13f100000000000000000000000000000000000000000000000000000000815273ffffffffffffffffffffffffffffffffffffffff851692634e6b13f19261051d9260019060040161124a565b600060405180830381600087803b15801561053757600080fd5b505af115801561054b573d6000803e3d6000fd5b505050506101c08101516101e08201516040517f4e6b13f100000000000000000000000000000000000000000000000000000000815273ffffffffffffffffffffffffffffffffffffffff851692634e6b13f1926105ae9260029060040161124a565b600060405180830381600087803b1580156105c857600080fd5b505af11580156105dc573d6000803e3d6000fd5b505050506101408101516101608201516040517f4e6b13f100000000000000000000000000000000000000000000000000000000815273ffffffffffffffffffffffffffffffffffffffff851692634e6b13f19261063f9260039060040161124a565b600060405180830381600087803b15801561065957600080fd5b505af115801561066d573d6000803e3d6000fd5b505050506102408101516102608201516040517f232c28c400000000000000000000000000000000000000000000000000000000815267ffffffffffffffff92831660048201529116602482015273ffffffffffffffffffffffffffffffffffffffff83169063232c28c490604401600060405180830381600087803b1580156106f657600080fd5b505af115801561070a573d6000803e3d6000fd5b505050506102808101516102a08201516040517f5a3c10f10000000000000000000000000000000000000000000000000000000081526004810192909252602482015273ffffffffffffffffffffffffffffffffffffffff8581166044830152861690635a3c10f190606401600060405180830381600087803b15801561079057600080fd5b505af11580156107a4573d6000803e3d6000fd5b505050506102c08101516102e08201516040517fec5b1bee00000000000000000000000000000000000000000000000000000000815267ffffffffffffffff92831660048201529116602482015273ffffffffffffffffffffffffffffffffffffffff858116604483015286169063ec5b1bee90606401600060405180830381600087803b15801561083557600080fd5b505af1158015610849573d6000803e3d6000fd5b505050506103008101516103208201516040517f515dc48000000000000000000000000000000000000000000000000000000000815267ffffffffffffffff92831660048201529116602482015273ffffffffffffffffffffffffffffffffffffffff84169063515dc48090604401600060405180830381600087803b1580156108d257600080fd5b505af11580156108e6573d6000803e3d6000fd5b505050506103408101516103608201516040517ff5d011c500000000000000000000000000000000000000000000000000000000815267ffffffffffffffff92831660048201529116602482015273ffffffffffffffffffffffffffffffffffffffff84169063f5d011c590604401600060405180830381600087803b15801561096f57600080fd5b505af1158015610983573d6000803e3d6000fd5b505050506103808101516040517f3675441500000000000000000000000000000000000000000000000000000000815267ffffffffffffffff909116600482015273ffffffffffffffffffffffffffffffffffffffff841690633675441590602401600060405180830381600087803b1580156109ff57600080fd5b505af1158015610a13573d6000803e3d6000fd5b505050506103a08101516040517fb3b1cb2700000000000000000000000000000000000000000000000000000000815267ffffffffffffffff909116600482015273ffffffffffffffffffffffffffffffffffffffff84169063b3b1cb2790602401600060405180830381600087803b158015610a8f57600080fd5b505af1158015610aa3573d6000803e3d6000fd5b505050506103c08101516103e08201516040517f47c12e010000000000000000000000000000000000000000000000000000000081526004810192909252602482015273ffffffffffffffffffffffffffffffffffffffff8416906347c12e0190604401600060405180830381600087803b158015610b2157600080fd5b505af1158015610b35573d6000803e3d6000fd5b505050506102008101516102208201516040517f367f21b400000000000000000000000000000000000000000000000000000000815273ffffffffffffffffffffffffffffffffffffffff86169263367f21b492610b9592600401611283565b600060405180830381600087803b158015610baf57600080fd5b505af1158015610bc3573d6000803e3d6000fd5b505050508173ffffffffffffffffffffffffffffffffffffffff166320be420a6040518163ffffffff1660e01b8152600401600060405180830381600087803b158015610c0f57600080fd5b505af1158015610c23573d6000803e3d6000fd5b505050508173ffffffffffffffffffffffffffffffffffffffff16635da3e6f56040518163ffffffff1660e01b8152600401600060405180830381600087803b158015610c6f57600080fd5b505af1158015610c83573d6000803e3d6000fd5b505050505050505050565b600082601f830112610c9f57600080fd5b81356020610cb4610caf83611393565b611344565b80838252828201915082860187848660051b8901011115610cd457600080fd5b60005b85811015610cf357813584529284019290840190600101610cd7565b5090979650505050505050565b600082601f830112610d1157600080fd5b81356020610d21610caf83611393565b80838252828201915082860187848660051b8901011115610d4157600080fd5b60005b85811015610cf357610d5582610d67565b84529284019290840190600101610d44565b803567ffffffffffffffff81168114610d7f57600080fd5b919050565b600060208284031215610d9657600080fd5b8135610da1816113e6565b9392505050565b600080600080600060a08688031215610dc057600080fd5b8535610dcb816113e6565b94506020860135610ddb816113e6565b93506040860135610deb816113e6565b92506060860135610dfb816113e6565b9150608086013567ffffffffffffffff80821115610e1857600080fd5b90870190610400828a031215610e2d57600080fd5b610e3561131a565b823582811115610e4457600080fd5b610e508b828601610d00565b825250602083013582811115610e6557600080fd5b610e718b828601610d00565b602083015250604083013582811115610e8957600080fd5b610e958b828601610d00565b604083015250606083013582811115610ead57600080fd5b610eb98b828601610d00565b606083015250608083013582811115610ed157600080fd5b610edd8b828601610d00565b60808301525060a083013582811115610ef557600080fd5b610f018b828601610d00565b60a08301525060c083013582811115610f1957600080fd5b610f258b828601610d00565b60c08301525060e083013582811115610f3d57600080fd5b610f498b828601610d00565b60e0830152506101008084013583811115610f6357600080fd5b610f6f8c828701610c8e565b8284015250506101208084013583811115610f8957600080fd5b610f958c828701610d00565b8284015250506101408084013583811115610faf57600080fd5b610fbb8c828701610c8e565b8284015250506101608084013583811115610fd557600080fd5b610fe18c828701610d00565b8284015250506101808084013583811115610ffb57600080fd5b6110078c828701610c8e565b8284015250506101a0808401358381111561102157600080fd5b61102d8c828701610d00565b8284015250506101c0808401358381111561104757600080fd5b6110538c828701610c8e565b8284015250506101e0808401358381111561106d57600080fd5b6110798c828701610d00565b828401525050610200808401358381111561109357600080fd5b61109f8c828701610d00565b82840152505061022080840135838111156110b957600080fd5b6110c58c828701610d00565b82840152505061024091506110db828401610d67565b8282015261026091506110ef828401610d67565b9181019190915261028082810135908201526102a080830135908201526102c09061111b828401610d67565b828201526102e0915061112f828401610d67565b828201526103009150611143828401610d67565b828201526103209150611157828401610d67565b82820152610340915061116b828401610d67565b82820152610360915061117f828401610d67565b828201526103809150611193828401610d67565b828201526103a091506111a7828401610d67565b828201526103c0915081830135828201526103e0915081830135828201528093505050509295509295909350565b600081518084526020808501945080840160005b83811015611205578151875295820195908201906001016111e9565b509495945050505050565b600081518084526020808501945080840160005b8381101561120557815167ffffffffffffffff1687529582019590820190600101611224565b60608152600061125d60608301866111d5565b828103602084015261126f8186611210565b91505060ff83166040830152949350505050565b6040815260006112966040830185611210565b82810360208401526112a88185611210565b95945050505050565b60608152600061125d6060830186611210565b73ffffffffffffffffffffffffffffffffffffffff851681526080602082015260006112f36080830186611210565b82810360408401526113058186611210565b91505060ff8316606083015295945050505050565b604051610400810167ffffffffffffffff8111828210171561133e5761133e6113b7565b60405290565b604051601f82017fffffffffffffffffffffffffffffffffffffffffffffffffffffffffffffffe016810167ffffffffffffffff8111828210171561138b5761138b6113b7565b604052919050565b600067ffffffffffffffff8211156113ad576113ad6113b7565b5060051b60200190565b7f4e487b7100000000000000000000000000000000000000000000000000000000600052604160045260246000fd5b73ffffffffffffffffffffffffffffffffffffffff8116811461140857600080fd5b5056fea2646970667358221220570133897411112285269437e5fdef07784cdd6cbf6ae025a7f44759ff2829f864736f6c63430008070033",
  "devdoc": {
    "author": "Angle Core Team",
    "kind": "dev",
    "methods": {
      "initCollateral(address,address,address,address,(uint64[],uint64[],uint64[],uint64[],uint64[],uint64[],uint64[],uint64[],uint256[],uint64[],uint256[],uint64[],uint256[],uint64[],uint256[],uint64[],uint64[],uint64[],uint64,uint64,uint256,uint256,uint64,uint64,uint64,uint64,uint64,uint64,uint64,uint64,uint256,uint256))": {
        "details": "Only the `owner` can call this function",
        "params": {
          "p": "List of all the parameters with which to initialize the pool"
        }
      },
      "setOwner(address)": {
        "details": "With this function the timelock can be given the ownership of the contract",
        "params": {
          "_newOwner": "New owner of the contract"
        }
      }
    },
    "title": "OrchestratorOwnable",
    "version": 1
  },
  "userdoc": {
    "kind": "user",
    "methods": {
      "constructor": {
        "notice": "Initializes the `owner` of the contract"
      },
      "initCollateral(address,address,address,address,(uint64[],uint64[],uint64[],uint64[],uint64[],uint64[],uint64[],uint64[],uint256[],uint64[],uint256[],uint64[],uint256[],uint64[],uint256[],uint64[],uint64[],uint64[],uint64,uint64,uint256,uint256,uint64,uint64,uint64,uint64,uint64,uint64,uint64,uint64,uint256,uint256))": {
        "notice": "Initializes a pool"
      },
      "owner()": {
        "notice": "Address that is allowed to call the `initCollateral` function"
      },
      "setOwner(address)": {
        "notice": "Changes the owner of a contract"
      }
    },
    "notice": "Contract that is used to facilitate the deployment of a given collateral on mainnet",
    "version": 1
  },
  "storageLayout": {
    "storage": [
      {
        "astId": 30217,
        "contract": "contracts/orchestrator/OrchestratorOwnable.sol:OrchestratorOwnable",
        "label": "owner",
        "offset": 0,
        "slot": "0",
        "type": "t_address"
      }
    ],
    "types": {
      "t_address": {
        "encoding": "inplace",
        "label": "address",
        "numberOfBytes": "20"
      }
    }
  }
}