{
  "address": "0x2101F65A51d545CD51896160230bcc6A360a6671",
  "abi": [
    {
      "inputs": [],
      "stateMutability": "nonpayable",
      "type": "constructor"
    },
    {
      "inputs": [
        {
          "internalType": "contract IStableMaster",
          "name": "stableMaster",
          "type": "address"
        },
        {
          "internalType": "contract IPoolManager",
          "name": "poolManager",
          "type": "address"
        },
        {
          "internalType": "contract IPerpetualManager",
          "name": "perpetualManager",
          "type": "address"
        },
        {
          "internalType": "contract IFeeManager",
          "name": "feeManager",
          "type": "address"
        },
        {
          "components": [
            {
              "internalType": "uint64[]",
              "name": "xFeeMint",
              "type": "uint64[]"
            },
            {
              "internalType": "uint64[]",
              "name": "yFeeMint",
              "type": "uint64[]"
            },
            {
              "internalType": "uint64[]",
              "name": "xFeeBurn",
              "type": "uint64[]"
            },
            {
              "internalType": "uint64[]",
              "name": "yFeeBurn",
              "type": "uint64[]"
            },
            {
              "internalType": "uint64[]",
              "name": "xHAFeesDeposit",
              "type": "uint64[]"
            },
            {
              "internalType": "uint64[]",
              "name": "yHAFeesDeposit",
              "type": "uint64[]"
            },
            {
              "internalType": "uint64[]",
              "name": "xHAFeesWithdraw",
              "type": "uint64[]"
            },
            {
              "internalType": "uint64[]",
              "name": "yHAFeesWithdraw",
              "type": "uint64[]"
            },
            {
              "internalType": "uint256[]",
              "name": "xSlippageFee",
              "type": "uint256[]"
            },
            {
              "internalType": "uint64[]",
              "name": "ySlippageFee",
              "type": "uint64[]"
            },
            {
              "internalType": "uint256[]",
              "name": "xSlippage",
              "type": "uint256[]"
            },
            {
              "internalType": "uint64[]",
              "name": "ySlippage",
              "type": "uint64[]"
            },
            {
              "internalType": "uint256[]",
              "name": "xBonusMalusMint",
              "type": "uint256[]"
            },
            {
              "internalType": "uint64[]",
              "name": "yBonusMalusMint",
              "type": "uint64[]"
            },
            {
              "internalType": "uint256[]",
              "name": "xBonusMalusBurn",
              "type": "uint256[]"
            },
            {
              "internalType": "uint64[]",
              "name": "yBonusMalusBurn",
              "type": "uint64[]"
            },
            {
              "internalType": "uint64[]",
              "name": "xKeeperFeesClosing",
              "type": "uint64[]"
            },
            {
              "internalType": "uint64[]",
              "name": "yKeeperFeesClosing",
              "type": "uint64[]"
            },
            {
              "internalType": "uint64",
              "name": "haFeeDeposit",
              "type": "uint64"
            },
            {
              "internalType": "uint64",
              "name": "haFeeWithdraw",
              "type": "uint64"
            },
            {
              "internalType": "uint256",
              "name": "capOnStableMinted",
              "type": "uint256"
            },
            {
              "internalType": "uint256",
              "name": "maxInterestsDistributed",
              "type": "uint256"
            },
            {
              "internalType": "uint64",
              "name": "feesForSLPs",
              "type": "uint64"
            },
            {
              "internalType": "uint64",
              "name": "interestsForSLPs",
              "type": "uint64"
            },
            {
              "internalType": "uint64",
              "name": "targetHAHedge",
              "type": "uint64"
            },
            {
              "internalType": "uint64",
              "name": "limitHAHedge",
              "type": "uint64"
            },
            {
              "internalType": "uint64",
              "name": "maxLeverage",
              "type": "uint64"
            },
            {
              "internalType": "uint64",
              "name": "maintenanceMargin",
              "type": "uint64"
            },
            {
              "internalType": "uint64",
              "name": "lockTime",
              "type": "uint64"
            },
            {
              "internalType": "uint64",
              "name": "keeperFeesLiquidationRatio",
              "type": "uint64"
            },
            {
              "internalType": "uint256",
              "name": "keeperFeesLiquidationCap",
              "type": "uint256"
            },
            {
              "internalType": "uint256",
              "name": "keeperFeesClosingCap",
              "type": "uint256"
            }
          ],
          "internalType": "struct PoolParameters",
          "name": "p",
          "type": "tuple"
        }
      ],
      "name": "initCollateral",
      "outputs": [],
      "stateMutability": "nonpayable",
      "type": "function"
    },
    {
      "inputs": [],
      "name": "owner",
      "outputs": [
        {
          "internalType": "address",
          "name": "",
          "type": "address"
        }
      ],
      "stateMutability": "view",
      "type": "function"
    }
  ],
  "transactionHash": "0xa8f409e1e3093c47b23441457705b4cd5ee99a9b9eedb685cedf31bdfe691621",
  "args": [],
  "solcInputHash": "c1a2cc7754e40d365e6c8a31eb4e6940",
  "bytecode": "0x608060405234801561001057600080fd5b50600080546001600160a01b03191633179055611336806100326000396000f3fe608060405234801561001057600080fd5b50600436106100365760003560e01c80638da5cb5b1461003b578063d15c35d514610084575b600080fd5b60005461005b9073ffffffffffffffffffffffffffffffffffffffff1681565b60405173ffffffffffffffffffffffffffffffffffffffff909116815260200160405180910390f35b610097610092366004610c9d565b610099565b005b60005473ffffffffffffffffffffffffffffffffffffffff16331461011e576040517f08c379a000000000000000000000000000000000000000000000000000000000815260206004820152600260248201527f3739000000000000000000000000000000000000000000000000000000000000604482015260640160405180910390fd5b805160208201516040517fbe8c31ff00000000000000000000000000000000000000000000000000000000815273ffffffffffffffffffffffffffffffffffffffff88169263be8c31ff9261017c92899291906001906004016111b9565b600060405180830381600087803b15801561019657600080fd5b505af11580156101aa573d6000803e3d6000fd5b505050508473ffffffffffffffffffffffffffffffffffffffff1663be8c31ff858360400151846060015160006040518563ffffffff1660e01b81526004016101f694939291906111b9565b600060405180830381600087803b15801561021057600080fd5b505af1158015610224573d6000803e3d6000fd5b50505050608081015160a08201516040517f8211477a00000000000000000000000000000000000000000000000000000000815273ffffffffffffffffffffffffffffffffffffffff861692638211477a92610285926001906004016111a6565b600060405180830381600087803b15801561029f57600080fd5b505af11580156102b3573d6000803e3d6000fd5b5050505060c081015160e08201516040517f8211477a00000000000000000000000000000000000000000000000000000000815273ffffffffffffffffffffffffffffffffffffffff861692638211477a92610314926000906004016111a6565b600060405180830381600087803b15801561032e57600080fd5b505af1158015610342573d6000803e3d6000fd5b505050506101008101516101208201516040517f4e6b13f100000000000000000000000000000000000000000000000000000000815273ffffffffffffffffffffffffffffffffffffffff851692634e6b13f1926103a59260009060040161113f565b600060405180830381600087803b1580156103bf57600080fd5b505af11580156103d3573d6000803e3d6000fd5b505050506101808101516101a08201516040517f4e6b13f100000000000000000000000000000000000000000000000000000000815273ffffffffffffffffffffffffffffffffffffffff851692634e6b13f1926104369260019060040161113f565b600060405180830381600087803b15801561045057600080fd5b505af1158015610464573d6000803e3d6000fd5b505050506101c08101516101e08201516040517f4e6b13f100000000000000000000000000000000000000000000000000000000815273ffffffffffffffffffffffffffffffffffffffff851692634e6b13f1926104c79260029060040161113f565b600060405180830381600087803b1580156104e157600080fd5b505af11580156104f5573d6000803e3d6000fd5b505050506101408101516101608201516040517f4e6b13f100000000000000000000000000000000000000000000000000000000815273ffffffffffffffffffffffffffffffffffffffff851692634e6b13f1926105589260039060040161113f565b600060405180830381600087803b15801561057257600080fd5b505af1158015610586573d6000803e3d6000fd5b505050506102408101516102608201516040517f232c28c400000000000000000000000000000000000000000000000000000000815267ffffffffffffffff92831660048201529116602482015273ffffffffffffffffffffffffffffffffffffffff83169063232c28c490604401600060405180830381600087803b15801561060f57600080fd5b505af1158015610623573d6000803e3d6000fd5b505050506102808101516102a08201516040517f5a3c10f10000000000000000000000000000000000000000000000000000000081526004810192909252602482015273ffffffffffffffffffffffffffffffffffffffff8581166044830152861690635a3c10f190606401600060405180830381600087803b1580156106a957600080fd5b505af11580156106bd573d6000803e3d6000fd5b505050506102c08101516102e08201516040517fec5b1bee00000000000000000000000000000000000000000000000000000000815267ffffffffffffffff92831660048201529116602482015273ffffffffffffffffffffffffffffffffffffffff858116604483015286169063ec5b1bee90606401600060405180830381600087803b15801561074e57600080fd5b505af1158015610762573d6000803e3d6000fd5b505050506103008101516103208201516040517f515dc48000000000000000000000000000000000000000000000000000000000815267ffffffffffffffff92831660048201529116602482015273ffffffffffffffffffffffffffffffffffffffff84169063515dc48090604401600060405180830381600087803b1580156107eb57600080fd5b505af11580156107ff573d6000803e3d6000fd5b505050506103408101516103608201516040517ff5d011c500000000000000000000000000000000000000000000000000000000815267ffffffffffffffff92831660048201529116602482015273ffffffffffffffffffffffffffffffffffffffff84169063f5d011c590604401600060405180830381600087803b15801561088857600080fd5b505af115801561089c573d6000803e3d6000fd5b505050506103808101516040517f3675441500000000000000000000000000000000000000000000000000000000815267ffffffffffffffff909116600482015273ffffffffffffffffffffffffffffffffffffffff841690633675441590602401600060405180830381600087803b15801561091857600080fd5b505af115801561092c573d6000803e3d6000fd5b505050506103a08101516040517fb3b1cb2700000000000000000000000000000000000000000000000000000000815267ffffffffffffffff909116600482015273ffffffffffffffffffffffffffffffffffffffff84169063b3b1cb2790602401600060405180830381600087803b1580156109a857600080fd5b505af11580156109bc573d6000803e3d6000fd5b505050506103c08101516103e08201516040517f47c12e010000000000000000000000000000000000000000000000000000000081526004810192909252602482015273ffffffffffffffffffffffffffffffffffffffff8416906347c12e0190604401600060405180830381600087803b158015610a3a57600080fd5b505af1158015610a4e573d6000803e3d6000fd5b505050506102008101516102208201516040517f367f21b400000000000000000000000000000000000000000000000000000000815273ffffffffffffffffffffffffffffffffffffffff86169263367f21b492610aae92600401611178565b600060405180830381600087803b158015610ac857600080fd5b505af1158015610adc573d6000803e3d6000fd5b505050508173ffffffffffffffffffffffffffffffffffffffff166320be420a6040518163ffffffff1660e01b8152600401600060405180830381600087803b158015610b2857600080fd5b505af1158015610b3c573d6000803e3d6000fd5b505050508173ffffffffffffffffffffffffffffffffffffffff16635da3e6f56040518163ffffffff1660e01b8152600401600060405180830381600087803b158015610b8857600080fd5b505af1158015610b9c573d6000803e3d6000fd5b505050505050505050565b600082601f830112610bb857600080fd5b81356020610bcd610bc883611288565b611239565b80838252828201915082860187848660051b8901011115610bed57600080fd5b60005b85811015610c0c57813584529284019290840190600101610bf0565b5090979650505050505050565b600082601f830112610c2a57600080fd5b81356020610c3a610bc883611288565b80838252828201915082860187848660051b8901011115610c5a57600080fd5b60005b85811015610c0c57610c6e82610c80565b84529284019290840190600101610c5d565b803567ffffffffffffffff81168114610c9857600080fd5b919050565b600080600080600060a08688031215610cb557600080fd5b8535610cc0816112db565b94506020860135610cd0816112db565b93506040860135610ce0816112db565b92506060860135610cf0816112db565b9150608086013567ffffffffffffffff80821115610d0d57600080fd5b90870190610400828a031215610d2257600080fd5b610d2a61120f565b823582811115610d3957600080fd5b610d458b828601610c19565b825250602083013582811115610d5a57600080fd5b610d668b828601610c19565b602083015250604083013582811115610d7e57600080fd5b610d8a8b828601610c19565b604083015250606083013582811115610da257600080fd5b610dae8b828601610c19565b606083015250608083013582811115610dc657600080fd5b610dd28b828601610c19565b60808301525060a083013582811115610dea57600080fd5b610df68b828601610c19565b60a08301525060c083013582811115610e0e57600080fd5b610e1a8b828601610c19565b60c08301525060e083013582811115610e3257600080fd5b610e3e8b828601610c19565b60e0830152506101008084013583811115610e5857600080fd5b610e648c828701610ba7565b8284015250506101208084013583811115610e7e57600080fd5b610e8a8c828701610c19565b8284015250506101408084013583811115610ea457600080fd5b610eb08c828701610ba7565b8284015250506101608084013583811115610eca57600080fd5b610ed68c828701610c19565b8284015250506101808084013583811115610ef057600080fd5b610efc8c828701610ba7565b8284015250506101a08084013583811115610f1657600080fd5b610f228c828701610c19565b8284015250506101c08084013583811115610f3c57600080fd5b610f488c828701610ba7565b8284015250506101e08084013583811115610f6257600080fd5b610f6e8c828701610c19565b8284015250506102008084013583811115610f8857600080fd5b610f948c828701610c19565b8284015250506102208084013583811115610fae57600080fd5b610fba8c828701610c19565b8284015250506102409150610fd0828401610c80565b828201526102609150610fe4828401610c80565b9181019190915261028082810135908201526102a080830135908201526102c090611010828401610c80565b828201526102e09150611024828401610c80565b828201526103009150611038828401610c80565b82820152610320915061104c828401610c80565b828201526103409150611060828401610c80565b828201526103609150611074828401610c80565b828201526103809150611088828401610c80565b828201526103a0915061109c828401610c80565b828201526103c0915081830135828201526103e0915081830135828201528093505050509295509295909350565b600081518084526020808501945080840160005b838110156110fa578151875295820195908201906001016110de565b509495945050505050565b600081518084526020808501945080840160005b838110156110fa57815167ffffffffffffffff1687529582019590820190600101611119565b60608152600061115260608301866110ca565b82810360208401526111648186611105565b91505060ff83166040830152949350505050565b60408152600061118b6040830185611105565b828103602084015261119d8185611105565b95945050505050565b6060815260006111526060830186611105565b73ffffffffffffffffffffffffffffffffffffffff851681526080602082015260006111e86080830186611105565b82810360408401526111fa8186611105565b91505060ff8316606083015295945050505050565b604051610400810167ffffffffffffffff81118282101715611233576112336112ac565b60405290565b604051601f82017fffffffffffffffffffffffffffffffffffffffffffffffffffffffffffffffe016810167ffffffffffffffff81118282101715611280576112806112ac565b604052919050565b600067ffffffffffffffff8211156112a2576112a26112ac565b5060051b60200190565b7f4e487b7100000000000000000000000000000000000000000000000000000000600052604160045260246000fd5b73ffffffffffffffffffffffffffffffffffffffff811681146112fd57600080fd5b5056fea26469706673582212204076028deae4eb919e3438fa664babd40b0dcdccc5305b0fe84b5921f56f256264736f6c63430008070033",
  "devdoc": {
    "author": "Angle Core Team",
    "kind": "dev",
    "methods": {
      "initCollateral(address,address,address,address,(uint64[],uint64[],uint64[],uint64[],uint64[],uint64[],uint64[],uint64[],uint256[],uint64[],uint256[],uint64[],uint256[],uint64[],uint256[],uint64[],uint64[],uint64[],uint64,uint64,uint256,uint256,uint64,uint64,uint64,uint64,uint64,uint64,uint64,uint64,uint256,uint256))": {
        "details": "Only the `owner` can call this function",
        "params": {
          "p": "List of all the parameters with which to initialize the pool"
        }
      }
    },
    "title": "Orchestrator",
    "version": 1
  },
  "userdoc": {
    "kind": "user",
    "methods": {
      "constructor": {
        "notice": "Initializes the `owner`"
      },
      "initCollateral(address,address,address,address,(uint64[],uint64[],uint64[],uint64[],uint64[],uint64[],uint64[],uint64[],uint256[],uint64[],uint256[],uint64[],uint256[],uint64[],uint256[],uint64[],uint64[],uint64[],uint64,uint64,uint256,uint256,uint64,uint64,uint64,uint64,uint64,uint64,uint64,uint64,uint256,uint256))": {
        "notice": "Initializes a pool"
      },
      "owner()": {
        "notice": "Deployer address that is allowed to call the `initCollateral` function"
      }
    },
    "notice": "Contract that is used to facilitate the deployment of a given collateral on mainnet",
    "version": 1
  },
  "storageLayout": {
    "storage": [
      {
        "astId": 29722,
        "contract": "contracts/orchestrator/Orchestrator.sol:Orchestrator",
        "label": "owner",
        "offset": 0,
        "slot": "0",
        "type": "t_address"
      }
    ],
    "types": {
      "t_address": {
        "encoding": "inplace",
        "label": "address",
        "numberOfBytes": "20"
      }
    }
  }
}