{
  "address": "0x9Ca144C12a9dce3B72Be31048CF54C79b42E02df",
  "abi": [
    {
      "inputs": [],
      "stateMutability": "nonpayable",
      "type": "constructor"
    },
    {
      "anonymous": false,
      "inputs": [
        {
          "indexed": true,
          "internalType": "address",
          "name": "owner",
          "type": "address"
        },
        {
          "indexed": true,
          "internalType": "address",
          "name": "approved",
          "type": "address"
        },
        {
          "indexed": true,
          "internalType": "uint256",
          "name": "tokenId",
          "type": "uint256"
        }
      ],
      "name": "Approval",
      "type": "event"
    },
    {
      "anonymous": false,
      "inputs": [
        {
          "indexed": true,
          "internalType": "address",
          "name": "owner",
          "type": "address"
        },
        {
          "indexed": true,
          "internalType": "address",
          "name": "operator",
          "type": "address"
        },
        {
          "indexed": false,
          "internalType": "bool",
          "name": "approved",
          "type": "bool"
        }
      ],
      "name": "ApprovalForAll",
      "type": "event"
    },
    {
      "anonymous": false,
      "inputs": [
        {
          "indexed": false,
          "internalType": "string",
          "name": "_baseURI",
          "type": "string"
        }
      ],
      "name": "BaseURIUpdated",
      "type": "event"
    },
    {
      "anonymous": false,
      "inputs": [
        {
          "indexed": false,
          "internalType": "uint64",
          "name": "_maxLeverage",
          "type": "uint64"
        },
        {
          "indexed": false,
          "internalType": "uint64",
          "name": "_maintenanceMargin",
          "type": "uint64"
        }
      ],
      "name": "BoundsPerpetualUpdated",
      "type": "event"
    },
    {
      "anonymous": false,
      "inputs": [
        {
          "indexed": false,
          "internalType": "uint64[]",
          "name": "_xHAFees",
          "type": "uint64[]"
        },
        {
          "indexed": false,
          "internalType": "uint64[]",
          "name": "_yHAFees",
          "type": "uint64[]"
        },
        {
          "indexed": false,
          "internalType": "uint8",
          "name": "deposit",
          "type": "uint8"
        }
      ],
      "name": "HAFeesUpdated",
      "type": "event"
    },
    {
      "anonymous": false,
      "inputs": [
        {
          "indexed": false,
          "internalType": "uint256",
          "name": "_keeperFeesLiquidationCap",
          "type": "uint256"
        },
        {
          "indexed": false,
          "internalType": "uint256",
          "name": "_keeperFeesClosingCap",
          "type": "uint256"
        }
      ],
      "name": "KeeperFeesCapUpdated",
      "type": "event"
    },
    {
      "anonymous": false,
      "inputs": [
        {
          "indexed": false,
          "internalType": "uint64[]",
          "name": "xKeeperFeesClosing",
          "type": "uint64[]"
        },
        {
          "indexed": false,
          "internalType": "uint64[]",
          "name": "yKeeperFeesClosing",
          "type": "uint64[]"
        }
      ],
      "name": "KeeperFeesClosingUpdated",
      "type": "event"
    },
    {
      "anonymous": false,
      "inputs": [
        {
          "indexed": false,
          "internalType": "uint64",
          "name": "_keeperFeesLiquidationRatio",
          "type": "uint64"
        }
      ],
      "name": "KeeperFeesLiquidationRatioUpdated",
      "type": "event"
    },
    {
      "anonymous": false,
      "inputs": [
        {
          "indexed": false,
          "internalType": "address",
          "name": "keeperAddress",
          "type": "address"
        },
        {
          "indexed": false,
          "internalType": "uint256",
          "name": "liquidationFees",
          "type": "uint256"
        }
      ],
      "name": "KeeperTransferred",
      "type": "event"
    },
    {
      "anonymous": false,
      "inputs": [
        {
          "indexed": false,
          "internalType": "uint64",
          "name": "_lockTime",
          "type": "uint64"
        }
      ],
      "name": "LockTimeUpdated",
      "type": "event"
    },
    {
      "anonymous": false,
      "inputs": [
        {
          "indexed": false,
          "internalType": "address",
          "name": "account",
          "type": "address"
        }
      ],
      "name": "Paused",
      "type": "event"
    },
    {
      "anonymous": false,
      "inputs": [
        {
          "indexed": false,
          "internalType": "uint256",
          "name": "_perpetualID",
          "type": "uint256"
        },
        {
          "indexed": false,
          "internalType": "uint256",
          "name": "_closeAmount",
          "type": "uint256"
        }
      ],
      "name": "PerpetualClosed",
      "type": "event"
    },
    {
      "anonymous": false,
      "inputs": [
        {
          "indexed": false,
          "internalType": "uint256",
          "name": "_perpetualID",
          "type": "uint256"
        },
        {
          "indexed": false,
          "internalType": "uint256",
          "name": "_entryRate",
          "type": "uint256"
        },
        {
          "indexed": false,
          "internalType": "uint256",
          "name": "_margin",
          "type": "uint256"
        },
        {
          "indexed": false,
          "internalType": "uint256",
          "name": "_committedAmount",
          "type": "uint256"
        }
      ],
      "name": "PerpetualOpened",
      "type": "event"
    },
    {
      "anonymous": false,
      "inputs": [
        {
          "indexed": false,
          "internalType": "uint256",
          "name": "_perpetualID",
          "type": "uint256"
        },
        {
          "indexed": false,
          "internalType": "uint256",
          "name": "_margin",
          "type": "uint256"
        }
      ],
      "name": "PerpetualUpdated",
      "type": "event"
    },
    {
      "anonymous": false,
      "inputs": [
        {
          "indexed": false,
          "internalType": "uint256[]",
          "name": "perpetualIDs",
          "type": "uint256[]"
        },
        {
          "components": [
            {
              "internalType": "address",
              "name": "owner",
              "type": "address"
            },
            {
              "internalType": "uint256",
              "name": "netCashOutAmount",
              "type": "uint256"
            }
          ],
          "indexed": false,
          "internalType": "struct Pairs[]",
          "name": "ownerAndCashOut",
          "type": "tuple[]"
        },
        {
          "indexed": false,
          "internalType": "address",
          "name": "keeper",
          "type": "address"
        },
        {
          "indexed": false,
          "internalType": "uint256",
          "name": "reward",
          "type": "uint256"
        }
      ],
      "name": "PerpetualsForceClosed",
      "type": "event"
    },
    {
      "anonymous": false,
      "inputs": [
        {
          "indexed": true,
          "internalType": "address",
          "name": "tokenAddress",
          "type": "address"
        },
        {
          "indexed": true,
          "internalType": "address",
          "name": "to",
          "type": "address"
        },
        {
          "indexed": false,
          "internalType": "uint256",
          "name": "amount",
          "type": "uint256"
        }
      ],
      "name": "Recovered",
      "type": "event"
    },
    {
      "anonymous": false,
      "inputs": [
        {
          "indexed": false,
          "internalType": "uint256",
          "name": "_reward",
          "type": "uint256"
        }
      ],
      "name": "RewardAdded",
      "type": "event"
    },
    {
      "anonymous": false,
      "inputs": [
        {
          "indexed": true,
          "internalType": "address",
          "name": "_user",
          "type": "address"
        },
        {
          "indexed": false,
          "internalType": "uint256",
          "name": "_reward",
          "type": "uint256"
        }
      ],
      "name": "RewardPaid",
      "type": "event"
    },
    {
      "anonymous": false,
      "inputs": [
        {
          "indexed": false,
          "internalType": "uint256",
          "name": "_rewardsDuration",
          "type": "uint256"
        },
        {
          "indexed": true,
          "internalType": "address",
          "name": "_rewardsDistributor",
          "type": "address"
        }
      ],
      "name": "RewardsDistributionDurationUpdated",
      "type": "event"
    },
    {
      "anonymous": false,
      "inputs": [
        {
          "indexed": true,
          "internalType": "address",
          "name": "_rewardsDistributor",
          "type": "address"
        }
      ],
      "name": "RewardsDistributionUpdated",
      "type": "event"
    },
    {
      "anonymous": false,
      "inputs": [
        {
          "indexed": true,
          "internalType": "bytes32",
          "name": "role",
          "type": "bytes32"
        },
        {
          "indexed": true,
          "internalType": "bytes32",
          "name": "previousAdminRole",
          "type": "bytes32"
        },
        {
          "indexed": true,
          "internalType": "bytes32",
          "name": "newAdminRole",
          "type": "bytes32"
        }
      ],
      "name": "RoleAdminChanged",
      "type": "event"
    },
    {
      "anonymous": false,
      "inputs": [
        {
          "indexed": true,
          "internalType": "bytes32",
          "name": "role",
          "type": "bytes32"
        },
        {
          "indexed": true,
          "internalType": "address",
          "name": "account",
          "type": "address"
        },
        {
          "indexed": true,
          "internalType": "address",
          "name": "sender",
          "type": "address"
        }
      ],
      "name": "RoleGranted",
      "type": "event"
    },
    {
      "anonymous": false,
      "inputs": [
        {
          "indexed": true,
          "internalType": "bytes32",
          "name": "role",
          "type": "bytes32"
        },
        {
          "indexed": true,
          "internalType": "address",
          "name": "account",
          "type": "address"
        },
        {
          "indexed": true,
          "internalType": "address",
          "name": "sender",
          "type": "address"
        }
      ],
      "name": "RoleRevoked",
      "type": "event"
    },
    {
      "anonymous": false,
      "inputs": [
        {
          "indexed": false,
          "internalType": "uint64",
          "name": "_targetHAHedge",
          "type": "uint64"
        },
        {
          "indexed": false,
          "internalType": "uint64",
          "name": "_limitHAHedge",
          "type": "uint64"
        }
      ],
      "name": "TargetAndLimitHAHedgeUpdated",
      "type": "event"
    },
    {
      "anonymous": false,
      "inputs": [
        {
          "indexed": true,
          "internalType": "address",
          "name": "from",
          "type": "address"
        },
        {
          "indexed": true,
          "internalType": "address",
          "name": "to",
          "type": "address"
        },
        {
          "indexed": true,
          "internalType": "uint256",
          "name": "tokenId",
          "type": "uint256"
        }
      ],
      "name": "Transfer",
      "type": "event"
    },
    {
      "anonymous": false,
      "inputs": [
        {
          "indexed": false,
          "internalType": "address",
          "name": "account",
          "type": "address"
        }
      ],
      "name": "Unpaused",
      "type": "event"
    },
    {
      "inputs": [],
      "name": "BASE_PARAMS",
      "outputs": [
        {
          "internalType": "uint256",
          "name": "",
          "type": "uint256"
        }
      ],
      "stateMutability": "view",
      "type": "function"
    },
    {
      "inputs": [],
      "name": "BASE_TOKENS",
      "outputs": [
        {
          "internalType": "uint256",
          "name": "",
          "type": "uint256"
        }
      ],
      "stateMutability": "view",
      "type": "function"
    },
    {
      "inputs": [],
      "name": "DEFAULT_ADMIN_ROLE",
      "outputs": [
        {
          "internalType": "bytes32",
          "name": "",
          "type": "bytes32"
        }
      ],
      "stateMutability": "view",
      "type": "function"
    },
    {
      "inputs": [],
      "name": "GUARDIAN_ROLE",
      "outputs": [
        {
          "internalType": "bytes32",
          "name": "",
          "type": "bytes32"
        }
      ],
      "stateMutability": "view",
      "type": "function"
    },
    {
      "inputs": [],
      "name": "POOLMANAGER_ROLE",
      "outputs": [
        {
          "internalType": "bytes32",
          "name": "",
          "type": "bytes32"
        }
      ],
      "stateMutability": "view",
      "type": "function"
    },
    {
      "inputs": [
        {
          "internalType": "uint256",
          "name": "perpetualID",
          "type": "uint256"
        },
        {
          "internalType": "uint256",
          "name": "amount",
          "type": "uint256"
        }
      ],
      "name": "addToPerpetual",
      "outputs": [],
      "stateMutability": "nonpayable",
      "type": "function"
    },
    {
      "inputs": [
        {
          "internalType": "address",
          "name": "to",
          "type": "address"
        },
        {
          "internalType": "uint256",
          "name": "perpetualID",
          "type": "uint256"
        }
      ],
      "name": "approve",
      "outputs": [],
      "stateMutability": "nonpayable",
      "type": "function"
    },
    {
      "inputs": [
        {
          "internalType": "address",
          "name": "owner",
          "type": "address"
        }
      ],
      "name": "balanceOf",
      "outputs": [
        {
          "internalType": "uint256",
          "name": "",
          "type": "uint256"
        }
      ],
      "stateMutability": "view",
      "type": "function"
    },
    {
      "inputs": [],
      "name": "baseURI",
      "outputs": [
        {
          "internalType": "string",
          "name": "",
          "type": "string"
        }
      ],
      "stateMutability": "view",
      "type": "function"
    },
    {
      "inputs": [
        {
          "internalType": "uint256",
          "name": "perpetualID",
          "type": "uint256"
        },
        {
          "internalType": "address",
          "name": "to",
          "type": "address"
        },
        {
          "internalType": "uint256",
          "name": "minCashOutAmount",
          "type": "uint256"
        }
      ],
      "name": "closePerpetual",
      "outputs": [],
      "stateMutability": "nonpayable",
      "type": "function"
    },
    {
      "inputs": [
        {
          "internalType": "address[]",
          "name": "governorList",
          "type": "address[]"
        },
        {
          "internalType": "address",
          "name": "guardian",
          "type": "address"
        },
        {
          "internalType": "contract IFeeManager",
          "name": "feeManager_",
          "type": "address"
        },
        {
          "internalType": "contract IOracle",
          "name": "oracle_",
          "type": "address"
        }
      ],
      "name": "deployCollateral",
      "outputs": [],
      "stateMutability": "nonpayable",
      "type": "function"
    },
    {
      "inputs": [
        {
          "internalType": "uint256",
          "name": "perpetualID",
          "type": "uint256"
        }
      ],
      "name": "earned",
      "outputs": [
        {
          "internalType": "uint256",
          "name": "",
          "type": "uint256"
        }
      ],
      "stateMutability": "view",
      "type": "function"
    },
    {
      "inputs": [
        {
          "internalType": "uint256[]",
          "name": "perpetualIDs",
          "type": "uint256[]"
        }
      ],
      "name": "forceClosePerpetuals",
      "outputs": [],
      "stateMutability": "nonpayable",
      "type": "function"
    },
    {
      "inputs": [
        {
          "internalType": "uint256",
          "name": "perpetualID",
          "type": "uint256"
        }
      ],
      "name": "getApproved",
      "outputs": [
        {
          "internalType": "address",
          "name": "",
          "type": "address"
        }
      ],
      "stateMutability": "view",
      "type": "function"
    },
    {
      "inputs": [
        {
          "internalType": "uint256",
          "name": "perpetualID",
          "type": "uint256"
        },
        {
          "internalType": "uint256",
          "name": "rate",
          "type": "uint256"
        }
      ],
      "name": "getCashOutAmount",
      "outputs": [
        {
          "internalType": "uint256",
          "name": "",
          "type": "uint256"
        },
        {
          "internalType": "uint256",
          "name": "",
          "type": "uint256"
        }
      ],
      "stateMutability": "view",
      "type": "function"
    },
    {
      "inputs": [
        {
          "internalType": "uint256",
          "name": "perpetualID",
          "type": "uint256"
        }
      ],
      "name": "getReward",
      "outputs": [],
      "stateMutability": "nonpayable",
      "type": "function"
    },
    {
      "inputs": [
        {
          "internalType": "bytes32",
          "name": "role",
          "type": "bytes32"
        }
      ],
      "name": "getRoleAdmin",
      "outputs": [
        {
          "internalType": "bytes32",
          "name": "",
          "type": "bytes32"
        }
      ],
      "stateMutability": "view",
      "type": "function"
    },
    {
      "inputs": [
        {
          "internalType": "bytes32",
          "name": "role",
          "type": "bytes32"
        },
        {
          "internalType": "address",
          "name": "account",
          "type": "address"
        }
      ],
      "name": "grantRole",
      "outputs": [],
      "stateMutability": "nonpayable",
      "type": "function"
    },
    {
      "inputs": [],
      "name": "haBonusMalusDeposit",
      "outputs": [
        {
          "internalType": "uint64",
          "name": "",
          "type": "uint64"
        }
      ],
      "stateMutability": "view",
      "type": "function"
    },
    {
      "inputs": [],
      "name": "haBonusMalusWithdraw",
      "outputs": [
        {
          "internalType": "uint64",
          "name": "",
          "type": "uint64"
        }
      ],
      "stateMutability": "view",
      "type": "function"
    },
    {
      "inputs": [
        {
          "internalType": "bytes32",
          "name": "role",
          "type": "bytes32"
        },
        {
          "internalType": "address",
          "name": "account",
          "type": "address"
        }
      ],
      "name": "hasRole",
      "outputs": [
        {
          "internalType": "bool",
          "name": "",
          "type": "bool"
        }
      ],
      "stateMutability": "view",
      "type": "function"
    },
    {
      "inputs": [
        {
          "internalType": "contract IPoolManager",
          "name": "poolManager_",
          "type": "address"
        },
        {
          "internalType": "contract IERC20",
          "name": "rewardToken_",
          "type": "address"
        }
      ],
      "name": "initialize",
      "outputs": [],
      "stateMutability": "nonpayable",
      "type": "function"
    },
    {
      "inputs": [
        {
          "internalType": "address",
          "name": "owner",
          "type": "address"
        },
        {
          "internalType": "address",
          "name": "operator",
          "type": "address"
        }
      ],
      "name": "isApprovedForAll",
      "outputs": [
        {
          "internalType": "bool",
          "name": "",
          "type": "bool"
        }
      ],
      "stateMutability": "view",
      "type": "function"
    },
    {
      "inputs": [
        {
          "internalType": "address",
          "name": "spender",
          "type": "address"
        },
        {
          "internalType": "uint256",
          "name": "perpetualID",
          "type": "uint256"
        }
      ],
      "name": "isApprovedOrOwner",
      "outputs": [
        {
          "internalType": "bool",
          "name": "",
          "type": "bool"
        }
      ],
      "stateMutability": "view",
      "type": "function"
    },
    {
      "inputs": [],
      "name": "keeperFeesClosingCap",
      "outputs": [
        {
          "internalType": "uint256",
          "name": "",
          "type": "uint256"
        }
      ],
      "stateMutability": "view",
      "type": "function"
    },
    {
      "inputs": [],
      "name": "keeperFeesLiquidationCap",
      "outputs": [
        {
          "internalType": "uint256",
          "name": "",
          "type": "uint256"
        }
      ],
      "stateMutability": "view",
      "type": "function"
    },
    {
      "inputs": [],
      "name": "keeperFeesLiquidationRatio",
      "outputs": [
        {
          "internalType": "uint64",
          "name": "",
          "type": "uint64"
        }
      ],
      "stateMutability": "view",
      "type": "function"
    },
    {
      "inputs": [],
      "name": "lastUpdateTime",
      "outputs": [
        {
          "internalType": "uint256",
          "name": "",
          "type": "uint256"
        }
      ],
      "stateMutability": "view",
      "type": "function"
    },
    {
      "inputs": [],
      "name": "limitHAHedge",
      "outputs": [
        {
          "internalType": "uint64",
          "name": "",
          "type": "uint64"
        }
      ],
      "stateMutability": "view",
      "type": "function"
    },
    {
      "inputs": [
        {
          "internalType": "uint256[]",
          "name": "perpetualIDs",
          "type": "uint256[]"
        }
      ],
      "name": "liquidatePerpetuals",
      "outputs": [],
      "stateMutability": "nonpayable",
      "type": "function"
    },
    {
      "inputs": [],
      "name": "lockTime",
      "outputs": [
        {
          "internalType": "uint64",
          "name": "",
          "type": "uint64"
        }
      ],
      "stateMutability": "view",
      "type": "function"
    },
    {
      "inputs": [],
      "name": "maintenanceMargin",
      "outputs": [
        {
          "internalType": "uint64",
          "name": "",
          "type": "uint64"
        }
      ],
      "stateMutability": "view",
      "type": "function"
    },
    {
      "inputs": [],
      "name": "maxLeverage",
      "outputs": [
        {
          "internalType": "uint64",
          "name": "",
          "type": "uint64"
        }
      ],
      "stateMutability": "view",
      "type": "function"
    },
    {
      "inputs": [],
      "name": "name",
      "outputs": [
        {
          "internalType": "string",
          "name": "",
          "type": "string"
        }
      ],
      "stateMutability": "pure",
      "type": "function"
    },
    {
      "inputs": [
        {
          "internalType": "uint256",
          "name": "reward",
          "type": "uint256"
        }
      ],
      "name": "notifyRewardAmount",
      "outputs": [],
      "stateMutability": "nonpayable",
      "type": "function"
    },
    {
      "inputs": [
        {
          "internalType": "address",
          "name": "owner",
          "type": "address"
        },
        {
          "internalType": "uint256",
          "name": "margin",
          "type": "uint256"
        },
        {
          "internalType": "uint256",
          "name": "committedAmount",
          "type": "uint256"
        },
        {
          "internalType": "uint256",
          "name": "maxOracleRate",
          "type": "uint256"
        },
        {
          "internalType": "uint256",
          "name": "minNetMargin",
          "type": "uint256"
        }
      ],
      "name": "openPerpetual",
      "outputs": [
        {
          "internalType": "uint256",
          "name": "perpetualID",
          "type": "uint256"
        }
      ],
      "stateMutability": "nonpayable",
      "type": "function"
    },
    {
      "inputs": [],
      "name": "oracle",
      "outputs": [
        {
          "internalType": "contract IOracle",
          "name": "",
          "type": "address"
        }
      ],
      "stateMutability": "view",
      "type": "function"
    },
    {
      "inputs": [
        {
          "internalType": "uint256",
          "name": "perpetualID",
          "type": "uint256"
        }
      ],
      "name": "ownerOf",
      "outputs": [
        {
          "internalType": "address",
          "name": "",
          "type": "address"
        }
      ],
      "stateMutability": "view",
      "type": "function"
    },
    {
      "inputs": [],
      "name": "pause",
      "outputs": [],
      "stateMutability": "nonpayable",
      "type": "function"
    },
    {
      "inputs": [],
      "name": "paused",
      "outputs": [
        {
          "internalType": "bool",
          "name": "",
          "type": "bool"
        }
      ],
      "stateMutability": "view",
      "type": "function"
    },
    {
      "inputs": [],
      "name": "periodFinish",
      "outputs": [
        {
          "internalType": "uint256",
          "name": "",
          "type": "uint256"
        }
      ],
      "stateMutability": "view",
      "type": "function"
    },
    {
      "inputs": [
        {
          "internalType": "uint256",
          "name": "",
          "type": "uint256"
        }
      ],
      "name": "perpetualData",
      "outputs": [
        {
          "internalType": "uint256",
          "name": "entryRate",
          "type": "uint256"
        },
        {
          "internalType": "uint256",
          "name": "entryTimestamp",
          "type": "uint256"
        },
        {
          "internalType": "uint256",
          "name": "margin",
          "type": "uint256"
        },
        {
          "internalType": "uint256",
          "name": "committedAmount",
          "type": "uint256"
        }
      ],
      "stateMutability": "view",
      "type": "function"
    },
    {
      "inputs": [
        {
          "internalType": "uint256",
          "name": "",
          "type": "uint256"
        }
      ],
      "name": "perpetualRewardPerTokenPaid",
      "outputs": [
        {
          "internalType": "uint256",
          "name": "",
          "type": "uint256"
        }
      ],
      "stateMutability": "view",
      "type": "function"
    },
    {
      "inputs": [],
      "name": "poolManager",
      "outputs": [
        {
          "internalType": "contract IPoolManager",
          "name": "",
          "type": "address"
        }
      ],
      "stateMutability": "view",
      "type": "function"
    },
    {
      "inputs": [
        {
          "internalType": "address",
          "name": "tokenAddress",
          "type": "address"
        },
        {
          "internalType": "address",
          "name": "to",
          "type": "address"
        },
        {
          "internalType": "uint256",
          "name": "tokenAmount",
          "type": "uint256"
        }
      ],
      "name": "recoverERC20",
      "outputs": [],
      "stateMutability": "nonpayable",
      "type": "function"
    },
    {
      "inputs": [
        {
          "internalType": "uint256",
          "name": "perpetualID",
          "type": "uint256"
        },
        {
          "internalType": "uint256",
          "name": "amount",
          "type": "uint256"
        },
        {
          "internalType": "address",
          "name": "to",
          "type": "address"
        }
      ],
      "name": "removeFromPerpetual",
      "outputs": [],
      "stateMutability": "nonpayable",
      "type": "function"
    },
    {
      "inputs": [
        {
          "internalType": "bytes32",
          "name": "role",
          "type": "bytes32"
        },
        {
          "internalType": "address",
          "name": "account",
          "type": "address"
        }
      ],
      "name": "renounceRole",
      "outputs": [],
      "stateMutability": "nonpayable",
      "type": "function"
    },
    {
      "inputs": [
        {
          "internalType": "bytes32",
          "name": "role",
          "type": "bytes32"
        },
        {
          "internalType": "address",
          "name": "account",
          "type": "address"
        }
      ],
      "name": "revokeRole",
      "outputs": [],
      "stateMutability": "nonpayable",
      "type": "function"
    },
    {
      "inputs": [],
      "name": "rewardPerTokenStored",
      "outputs": [
        {
          "internalType": "uint256",
          "name": "",
          "type": "uint256"
        }
      ],
      "stateMutability": "view",
      "type": "function"
    },
    {
      "inputs": [],
      "name": "rewardRate",
      "outputs": [
        {
          "internalType": "uint256",
          "name": "",
          "type": "uint256"
        }
      ],
      "stateMutability": "view",
      "type": "function"
    },
    {
      "inputs": [],
      "name": "rewardToken",
      "outputs": [
        {
          "internalType": "contract IERC20",
          "name": "",
          "type": "address"
        }
      ],
      "stateMutability": "view",
      "type": "function"
    },
    {
      "inputs": [
        {
          "internalType": "uint256",
          "name": "",
          "type": "uint256"
        }
      ],
      "name": "rewards",
      "outputs": [
        {
          "internalType": "uint256",
          "name": "",
          "type": "uint256"
        }
      ],
      "stateMutability": "view",
      "type": "function"
    },
    {
      "inputs": [],
      "name": "rewardsDistribution",
      "outputs": [
        {
          "internalType": "address",
          "name": "",
          "type": "address"
        }
      ],
      "stateMutability": "view",
      "type": "function"
    },
    {
      "inputs": [],
      "name": "rewardsDuration",
      "outputs": [
        {
          "internalType": "uint256",
          "name": "",
          "type": "uint256"
        }
      ],
      "stateMutability": "view",
      "type": "function"
    },
    {
      "inputs": [
        {
          "internalType": "address",
          "name": "from",
          "type": "address"
        },
        {
          "internalType": "address",
          "name": "to",
          "type": "address"
        },
        {
          "internalType": "uint256",
          "name": "perpetualID",
          "type": "uint256"
        }
      ],
      "name": "safeTransferFrom",
      "outputs": [],
      "stateMutability": "nonpayable",
      "type": "function"
    },
    {
      "inputs": [
        {
          "internalType": "address",
          "name": "from",
          "type": "address"
        },
        {
          "internalType": "address",
          "name": "to",
          "type": "address"
        },
        {
          "internalType": "uint256",
          "name": "perpetualID",
          "type": "uint256"
        },
        {
          "internalType": "bytes",
          "name": "_data",
          "type": "bytes"
        }
      ],
      "name": "safeTransferFrom",
      "outputs": [],
      "stateMutability": "nonpayable",
      "type": "function"
    },
    {
      "inputs": [
        {
          "internalType": "address",
          "name": "operator",
          "type": "address"
        },
        {
          "internalType": "bool",
          "name": "approved",
          "type": "bool"
        }
      ],
      "name": "setApprovalForAll",
      "outputs": [],
      "stateMutability": "nonpayable",
      "type": "function"
    },
    {
      "inputs": [
        {
          "internalType": "string",
          "name": "_baseURI",
          "type": "string"
        }
      ],
      "name": "setBaseURI",
      "outputs": [],
      "stateMutability": "nonpayable",
      "type": "function"
    },
    {
      "inputs": [
        {
          "internalType": "uint64",
          "name": "_maxLeverage",
          "type": "uint64"
        },
        {
          "internalType": "uint64",
          "name": "_maintenanceMargin",
          "type": "uint64"
        }
      ],
      "name": "setBoundsPerpetual",
      "outputs": [],
      "stateMutability": "nonpayable",
      "type": "function"
    },
    {
      "inputs": [
        {
          "internalType": "uint64",
          "name": "feeDeposit",
          "type": "uint64"
        },
        {
          "internalType": "uint64",
          "name": "feeWithdraw",
          "type": "uint64"
        }
      ],
      "name": "setFeeKeeper",
      "outputs": [],
      "stateMutability": "nonpayable",
      "type": "function"
    },
    {
      "inputs": [
        {
          "internalType": "contract IFeeManager",
          "name": "feeManager_",
          "type": "address"
        }
      ],
      "name": "setFeeManager",
      "outputs": [],
      "stateMutability": "nonpayable",
      "type": "function"
    },
    {
      "inputs": [
        {
          "internalType": "uint64[]",
          "name": "_xHAFees",
          "type": "uint64[]"
        },
        {
          "internalType": "uint64[]",
          "name": "_yHAFees",
          "type": "uint64[]"
        },
        {
          "internalType": "uint8",
          "name": "deposit",
          "type": "uint8"
        }
      ],
      "name": "setHAFees",
      "outputs": [],
      "stateMutability": "nonpayable",
      "type": "function"
    },
    {
      "inputs": [
        {
          "internalType": "uint256",
          "name": "_keeperFeesLiquidationCap",
          "type": "uint256"
        },
        {
          "internalType": "uint256",
          "name": "_keeperFeesClosingCap",
          "type": "uint256"
        }
      ],
      "name": "setKeeperFeesCap",
      "outputs": [],
      "stateMutability": "nonpayable",
      "type": "function"
    },
    {
      "inputs": [
        {
          "internalType": "uint64[]",
          "name": "_xKeeperFeesClosing",
          "type": "uint64[]"
        },
        {
          "internalType": "uint64[]",
          "name": "_yKeeperFeesClosing",
          "type": "uint64[]"
        }
      ],
      "name": "setKeeperFeesClosing",
      "outputs": [],
      "stateMutability": "nonpayable",
      "type": "function"
    },
    {
      "inputs": [
        {
          "internalType": "uint64",
          "name": "_keeperFeesLiquidationRatio",
          "type": "uint64"
        }
      ],
      "name": "setKeeperFeesLiquidationRatio",
      "outputs": [],
      "stateMutability": "nonpayable",
      "type": "function"
    },
    {
      "inputs": [
        {
          "internalType": "uint64",
          "name": "_lockTime",
          "type": "uint64"
        }
      ],
      "name": "setLockTime",
      "outputs": [],
      "stateMutability": "nonpayable",
      "type": "function"
    },
    {
      "inputs": [
        {
          "internalType": "address",
          "name": "_rewardsDistribution",
          "type": "address"
        }
      ],
      "name": "setNewRewardsDistribution",
      "outputs": [],
      "stateMutability": "nonpayable",
      "type": "function"
    },
    {
      "inputs": [
        {
          "internalType": "contract IOracle",
          "name": "oracle_",
          "type": "address"
        }
      ],
      "name": "setOracle",
      "outputs": [],
      "stateMutability": "nonpayable",
      "type": "function"
    },
    {
      "inputs": [
        {
          "internalType": "uint256",
          "name": "_rewardsDuration",
          "type": "uint256"
        },
        {
          "internalType": "address",
          "name": "_rewardsDistribution",
          "type": "address"
        }
      ],
      "name": "setRewardDistribution",
      "outputs": [],
      "stateMutability": "nonpayable",
      "type": "function"
    },
    {
      "inputs": [
        {
          "internalType": "uint64",
          "name": "_targetHAHedge",
          "type": "uint64"
        },
        {
          "internalType": "uint64",
          "name": "_limitHAHedge",
          "type": "uint64"
        }
      ],
      "name": "setTargetAndLimitHAHedge",
      "outputs": [],
      "stateMutability": "nonpayable",
      "type": "function"
    },
    {
      "inputs": [
        {
          "internalType": "bytes4",
          "name": "interfaceId",
          "type": "bytes4"
        }
      ],
      "name": "supportsInterface",
      "outputs": [
        {
          "internalType": "bool",
          "name": "",
          "type": "bool"
        }
      ],
      "stateMutability": "pure",
      "type": "function"
    },
    {
      "inputs": [],
      "name": "symbol",
      "outputs": [
        {
          "internalType": "string",
          "name": "",
          "type": "string"
        }
      ],
      "stateMutability": "pure",
      "type": "function"
    },
    {
      "inputs": [],
      "name": "targetHAHedge",
      "outputs": [
        {
          "internalType": "uint64",
          "name": "",
          "type": "uint64"
        }
      ],
      "stateMutability": "view",
      "type": "function"
    },
    {
      "inputs": [
        {
          "internalType": "uint256",
          "name": "perpetualID",
          "type": "uint256"
        }
      ],
      "name": "tokenURI",
      "outputs": [
        {
          "internalType": "string",
          "name": "",
          "type": "string"
        }
      ],
      "stateMutability": "view",
      "type": "function"
    },
    {
      "inputs": [],
      "name": "totalHedgeAmount",
      "outputs": [
        {
          "internalType": "uint256",
          "name": "",
          "type": "uint256"
        }
      ],
      "stateMutability": "view",
      "type": "function"
    },
    {
      "inputs": [
        {
          "internalType": "address",
          "name": "from",
          "type": "address"
        },
        {
          "internalType": "address",
          "name": "to",
          "type": "address"
        },
        {
          "internalType": "uint256",
          "name": "perpetualID",
          "type": "uint256"
        }
      ],
      "name": "transferFrom",
      "outputs": [],
      "stateMutability": "nonpayable",
      "type": "function"
    },
    {
      "inputs": [],
      "name": "unpause",
      "outputs": [],
      "stateMutability": "nonpayable",
      "type": "function"
    },
    {
      "inputs": [
        {
          "internalType": "uint256",
          "name": "",
          "type": "uint256"
        }
      ],
      "name": "xHAFeesDeposit",
      "outputs": [
        {
          "internalType": "uint64",
          "name": "",
          "type": "uint64"
        }
      ],
      "stateMutability": "view",
      "type": "function"
    },
    {
      "inputs": [
        {
          "internalType": "uint256",
          "name": "",
          "type": "uint256"
        }
      ],
      "name": "xHAFeesWithdraw",
      "outputs": [
        {
          "internalType": "uint64",
          "name": "",
          "type": "uint64"
        }
      ],
      "stateMutability": "view",
      "type": "function"
    },
    {
      "inputs": [
        {
          "internalType": "uint256",
          "name": "",
          "type": "uint256"
        }
      ],
      "name": "xKeeperFeesClosing",
      "outputs": [
        {
          "internalType": "uint64",
          "name": "",
          "type": "uint64"
        }
      ],
      "stateMutability": "view",
      "type": "function"
    },
    {
      "inputs": [
        {
          "internalType": "uint256",
          "name": "",
          "type": "uint256"
        }
      ],
      "name": "yHAFeesDeposit",
      "outputs": [
        {
          "internalType": "uint64",
          "name": "",
          "type": "uint64"
        }
      ],
      "stateMutability": "view",
      "type": "function"
    },
    {
      "inputs": [
        {
          "internalType": "uint256",
          "name": "",
          "type": "uint256"
        }
      ],
      "name": "yHAFeesWithdraw",
      "outputs": [
        {
          "internalType": "uint64",
          "name": "",
          "type": "uint64"
        }
      ],
      "stateMutability": "view",
      "type": "function"
    },
    {
      "inputs": [
        {
          "internalType": "uint256",
          "name": "",
          "type": "uint256"
        }
      ],
      "name": "yKeeperFeesClosing",
      "outputs": [
        {
          "internalType": "uint64",
          "name": "",
          "type": "uint64"
        }
      ],
      "stateMutability": "view",
      "type": "function"
    }
  ],
  "transactionHash": "0xe7bdf1ad5ab0ec767048f8fa45b07db79397d00d1b4ce3e7eac8640b4e64a506",
  "args": [],
  "solcInputHash": "e491787c469535e53711d44f0e2a5c5e",
  "bytecode": "0x60806040523480156200001157600080fd5b50602154610100900460ff16806200002c575060215460ff16155b620000945760405162461bcd60e51b815260206004820152602e60248201527f496e697469616c697a61626c653a20636f6e747261637420697320616c72656160448201526d191e481a5b9a5d1a585b1a5e995960921b606482015260840160405180910390fd5b602154610100900460ff16158015620000b7576021805461ffff19166101011790555b8015620000ca576021805461ff00191690555b50615f3580620000db6000396000f3fe608060405234801561001057600080fd5b50600436106104a15760003560e01c80637bd06a151161026d578063c0212c7211610151578063df136d65116100ce578063e985e9c511610092578063e985e9c514610a94578063ebe2b12b14610ace578063f301af4214610ad7578063f5d011c514610af7578063f7c618c114610b0a578063f902fad714610b1d57600080fd5b8063df136d6514610a2e578063df1b8bd314610a37578063e048684214610a46578063e2b01a5e14610a6e578063e5234c7a14610a8157600080fd5b8063d1aace9f11610115578063d1aace9f146109cf578063d547741f146109e2578063d5eb0581146109f5578063d7f6328e14610a08578063dc4c90d314610a1b57600080fd5b8063c0212c721461097a578063c1618dda1461098d578063c628a6f7146109a0578063c87b56dd146109b3578063c8f33c91146109c657600080fd5b806395d89b41116101ea578063ae3302c2116101ae578063ae3302c21461090b578063b126e7e514610925578063b3b1cb2714610938578063b88d4fde1461094b578063b8f368951461095e578063bcb01a801461096757600080fd5b806395d89b41146104ce5780639f48118f146108d2578063a217fddf146108dd578063a22cb465146108e5578063a62b2a3d146108f857600080fd5b8063873291bb11610231578063873291bb1461086f5780638c6dfaf7146108825780638d5e19f11461088b5780638e240144146108a557806391d14854146108bf57600080fd5b80637bd06a15146108185780637dc0d1d0146108215780638211477a14610834578063840a7698146108475780638456cb591461086757600080fd5b8063386a9525116103945780634d6ed8c4116103115780636c0360eb116102d55780636c0360eb146107bb5780636d59dae7146107c357806370a08231146107d65780637adbf973146107e95780637b0a47ee146107fc5780637b39ecf71461080557600080fd5b80634d6ed8c414610764578063515dc4801461077757806355f804b31461078a5780635c975abb1461079d5780636352211e146107a857600080fd5b8063430c208111610358578063430c208114610705578063472d35b91461071857806347c12e011461072b578063485cc9551461073e57806349a5d3ef1461075157600080fd5b8063386a9525146106bb5780633c6b16ab146106c45780633f4ba83a146106d75780633fc6df6e146106df57806342842e0e146106f257600080fd5b806323b872dd11610422578063324f3815116103e6578063324f38151461065557806336568abe1461066f5780633675441514610682578063367f21b41461069557806338050129146106a857600080fd5b806323b872dd146105e4578063248a9ca3146105f757806324d83b791461061a57806324ea54f41461062d5780632f2ff15d1461064257600080fd5b80630c016dc0116104695780630c016dc01461056e5780630d668087146105915780631171bda9146105ab578063142c3ba0146105be5780631c4b774b146105d157600080fd5b806301ffc9a7146104a657806306fdde03146104ce578063081812fc146104fc578063095ea7b3146105275780630bfab8a71461053c575b600080fd5b6104b96104b436600461549f565b610b72565b60405190151581526020015b60405180910390f35b6040805180820190915260098152680416e676c65506572760bc1b60208201525b6040516104c59190615a22565b61050f61050a366004615461565b610c4b565b6040516001600160a01b0390911681526020016104c5565b61053a610535366004615190565b610ca5565b005b600e5461055690600160c01b90046001600160401b031681565b6040516001600160401b0390911681526020016104c5565b610583600080516020615ec083398151915281565b6040519081526020016104c5565b600e5461055690600160801b90046001600160401b031681565b61053a6105b93660046150a2565b610d5c565b6105566105cc366004615461565b610e2f565b61053a6105df366004615461565b610e6c565b61053a6105f23660046150a2565b610ef1565b610583610605366004615461565b60009081526022602052604090206001015490565b61053a610628366004615561565b610f2b565b610583600080516020615ee083398151915281565b61053a61065036600461547a565b611046565b600d5461055690600160c01b90046001600160401b031681565b61053a61067d36600461547a565b61106c565b61053a6106903660046155d5565b6110b7565b61053a6106a336600461536a565b611133565b6105566106b6366004615461565b61133a565b61058360155481565b61053a6106d2366004615461565b61134a565b61053a6114e6565b60185461050f906001600160a01b031681565b61053a6107003660046150a2565b611507565b6104b9610713366004615190565b611522565b61053a61072636600461502f565b611535565b61053a610739366004615561565b611571565b61053a61074c366004615069565b6115d3565b61055661075f366004615461565b6118b5565b610583610772366004615461565b6118c5565b61053a6107853660046155f0565b6118f0565b61053a6107983660046154d9565b611a94565b60865460ff166104b9565b61050f6107b6366004615461565b611af0565b6104ef611afb565b61053a6107d13660046155a7565b611b89565b6105836107e436600461502f565b611dc4565b61053a6107f736600461502f565b611e08565b61058360145481565b61053a6108133660046152d3565b611e54565b610583600f5481565b60035461050f906001600160a01b031681565b61053a6108423660046153cd565b611f9e565b610583610855366004615461565b601b6020526000908152604090205481565b61053a6121ef565b61053a61087d36600461502f565b612210565b61058360105481565b600d5461055690600160801b90046001600160401b031681565b600e5461055690600160401b90046001600160401b031681565b6104b96108cd36600461547a565b612284565b610583633b9aca0081565b610583600081565b61053a6108f3366004615162565b6122af565b6105836109063660046151bc565b612364565b600d5461055690600160401b90046001600160401b031681565b61053a610933366004615200565b6125e7565b61053a6109463660046155d5565b6126be565b61053a6109593660046150e3565b61275e565b61058360015481565b61053a6109753660046152d3565b61279a565b600e54610556906001600160401b031681565b61055661099b366004615461565b612e08565b61053a6109ae3660046155f0565b612e18565b6104ef6109c1366004615461565b612e73565b61058360165481565b6105566109dd366004615461565b612fdb565b61053a6109f036600461547a565b612feb565b600d54610556906001600160401b031681565b610556610a16366004615461565b613011565b60065461050f906001600160a01b031681565b61058360175481565b610583670de0b6b3a764000081565b610a59610a54366004615561565b613021565b604080519283526020830191909152016104c5565b61053a610a7c36600461547a565b613077565b61053a610a8f36600461553a565b613114565b6104b9610aa2366004615069565b6001600160a01b0391821660009081526020808052604080832093909416825291909152205460ff1690565b61058360135481565b610583610ae5366004615461565b601c6020526000908152604090205481565b61053a610b053660046155f0565b6132bc565b60055461050f906001600160a01b031681565b610b52610b2b366004615461565b601a6020526000908152604090208054600182015460028301546003909301549192909184565b6040805194855260208501939093529183015260608201526080016104c5565b60006001600160e01b03198216636e44396d60e01b1480610ba357506001600160e01b03198216632303fc0360e01b145b80610bbe57506001600160e01b0319821663f7c618c160e01b145b80610bd957506001600160e01b0319821663aa283ab960e01b145b80610bf457506001600160e01b03198216637965db0b60e01b145b80610c0f57506001600160e01b03198216635b5e139f60e01b145b80610c2a57506001600160e01b031982166380ac58cd60e01b145b80610c4557506001600160e01b031982166301ffc9a760e01b145b92915050565b6000818152601d60205260408120546001600160a01b0316610c885760405162461bcd60e51b8152600401610c7f90615ae3565b60405180910390fd5b6000828152601f60205260409020546001600160a01b0316610c45565b6000610cb0826133cf565b9050806001600160a01b0316836001600160a01b03161415610cf95760405162461bcd60e51b8152602060048201526002602482015261333560f01b6044820152606401610c7f565b336001600160a01b0382161480610d3157506001600160a01b03811660009081526020808052604080832033845290915290205460ff165b610d4d5760405162461bcd60e51b8152600401610c7f90615b19565b610d578383613409565b505050565b6018546001600160a01b03163314610d865760405162461bcd60e51b8152600401610c7f90615afe565b6005546001600160a01b0384811691161415610dc95760405162461bcd60e51b8152602060048201526002602482015261032360f41b6044820152606401610c7f565b610ddd6001600160a01b0384168383613477565b816001600160a01b0316836001600160a01b03167ffff3b3844276f57024e0b42afec1a37f75db36511e43819a4f2a63ab7862b64883604051610e2291815260200190565b60405180910390a3505050565b600a8181548110610e3f57600080fd5b9060005260206000209060049182820401919006600802915054906101000a90046001600160401b031681565b60865460ff1615610e8f5760405162461bcd60e51b8152600401610c7f90615a6b565b6000818152601d60205260409020546001600160a01b0316610ec35760405162461bcd60e51b8152600401610c7f90615ae3565b6000818152601a602052604090208054600390910154610eee918391610ee99190615ceb565b6134da565b50565b3381610efd828261356b565b610f195760405162461bcd60e51b8152600401610c7f90615b19565b610f248585856135e8565b5050505050565b60865460ff1615610f4e5760405162461bcd60e51b8152600401610c7f90615a6b565b6000828152601a6020908152604080832081516080810183528154815260018201549381019390935260028101549183019190915260030154606082015290610f9561371f565b5090506000610fa58584846137a4565b91505080610f2457600654600854610fcc916001600160a01b0391821691339116876137eb565b6000858152601a602052604081206002018054869290610fed908490615b88565b925050819055507f10c4de39a7e804616cdc1b2dbf59fe6db0ed0d54ff69cef9c8fc024f79c7d47e858585604001516110269190615b88565b604080519283526020830191909152015b60405180910390a15050505050565b6000828152602260205260409020600101546110628133613829565b610d57838361388d565b6001600160a01b03811633146110a95760405162461bcd60e51b8152602060048201526002602482015261373160f01b6044820152606401610c7f565b6110b382826138f6565b5050565b600080516020615ee08339815191526110d08133613829565b600e805467ffffffffffffffff60801b1916600160801b6001600160401b038516908102919091179091556040519081527f0cedd128b637e635da421319ae981d7968b7a477c1fa3b10275fac22ecbd51a6906020015b60405180910390a15050565b600080516020615ee083398151915261114c8133613829565b828280518251148015611160575060008251115b6111905760405162461bcd60e51b81526020600482015260016024820152603560f81b6044820152606401610c7f565b60005b600182516111a19190615d39565b81116112de57633b9aca006001600160401b03168282815181106111c7576111c7615e4b565b60200260200101516001600160401b0316111580156112155750633b9aca006001600160401b031683828151811061120157611201615e4b565b60200260200101516001600160401b031611155b6112455760405162461bcd60e51b81526020600482015260016024820152601b60f91b6044820152606401610c7f565b80156112cc5782611257600183615d39565b8151811061126757611267615e4b565b60200260200101516001600160401b031683828151811061128a5761128a615e4b565b60200260200101516001600160401b0316116112cc5760405162461bcd60e51b81526020600482015260016024820152603760f81b6044820152606401610c7f565b806112d681615df0565b915050611193565b5084516112f2906011906020880190614dfc565b508351611306906012906020870190614dfc565b507f275781d4ec4992e53f64326606b9f7eb81a89baf476df8de6d0410fd218e7be3601160126040516110379291906159fd565b60118181548110610e3f57600080fd5b6018546001600160a01b031633146113745760405162461bcd60e51b8152600401610c7f90615afe565b61137c61395d565b601755601354421061139d576015546113959082615bcb565b6014556113df565b6000426013546113ad9190615d39565b90506000601454826113bf9190615ceb565b6015549091506113cf8285615b88565b6113d99190615bcb565b60145550505b6005546040516370a0823160e01b81523060048201526000916001600160a01b0316906370a082319060240160206040518083038186803b15801561142357600080fd5b505afa158015611437573d6000803e3d6000fd5b505050506040513d601f19601f8201168201806040525081019061145b9190615521565b90506015548161146b9190615bcb565b60145411156114a15760405162461bcd60e51b8152602060048201526002602482015261191960f11b6044820152606401610c7f565b4260168190556015546114b391615b88565b6013556040518281527fde88a922e0d3b88b24e9623efeb464919c6bf9f66857a65e2bfcf2ce87a9433d90602001611127565b600080516020615ee08339815191526114ff8133613829565b610eee6139c5565b610d578383836040518060200160405280600081525061275e565b600061152e838361356b565b9392505050565b600080516020615ec083398151915261154e8133613829565b50600480546001600160a01b0319166001600160a01b0392909216919091179055565b600080516020615ee083398151915261158a8133613829565b600f839055601082905560408051848152602081018490527fa0aa01eac9422dea36b84eb0bbc758e72643fbdbc72a4fd205d51c738803598291015b60405180910390a1505050565b602154610100900460ff16806115ec575060215460ff16155b6116085760405162461bcd60e51b8152600401610c7f90615a95565b602154610100900460ff1615801561162a576021805461ffff19166101011790555b816001600160a01b0381166116515760405162461bcd60e51b8152600401610c7f90615a35565b611659613a58565b611661613ad3565b600680546001600160a01b0319166001600160a01b03861690811790915560408051637e062a3560e11b8152905163fc0c546a91600480820192602092909190829003018186803b1580156116b557600080fd5b505afa1580156116c9573d6000803e3d6000fd5b505050506040513d601f19601f820116820180604052508101906116ed919061504c565b600860006101000a8154816001600160a01b0302191690836001600160a01b03160217905550836001600160a01b0316636ac5dc466040518163ffffffff1660e01b815260040160206040518083038186803b15801561174c57600080fd5b505afa158015611760573d6000803e3d6000fd5b505050506040513d601f19601f82011682018060405250810190611784919061504c565b600780546001600160a01b03199081166001600160a01b0393841617909155600580549091168583161790556008546040805163313ce56760e01b81529051919092169163313ce567916004808301926020929190829003018186803b1580156117ed57600080fd5b505afa158015611801573d6000803e3d6000fd5b505050506040513d601f19601f820116820180604052508101906118259190615623565b61183090600a615c40565b60005560065461185890600080516020615ec0833981519152906001600160a01b0316613b32565b61187e600080516020615ee0833981519152600080516020615ec0833981519152613b3c565b611896600080516020615ec083398151915280613b3c565b61189e613b90565b508015610d57576021805461ff0019169055505050565b600b8181548110610e3f57600080fd5b6000818152601a602052604081208054600390910154610c459184916118eb9190615ceb565b613be8565b600080516020615ee08339815191526119098133613829565b82633b9aca00816001600160401b031611156119375760405162461bcd60e51b8152600401610c7f90615a50565b82633b9aca00816001600160401b031611156119655760405162461bcd60e51b8152600401610c7f90615a50565b836001600160401b0316856001600160401b031611156119ab5760405162461bcd60e51b81526020600482015260016024820152600760fb1b6044820152606401610c7f565b600d80546fffffffffffffffffffffffffffffffff16600160c01b6001600160401b038781169190910267ffffffffffffffff60801b191691909117600160801b91881691820217909155600754604051635b749f3560e01b815260048101929092526001600160a01b031690635b749f3590602401600060405180830381600087803b158015611a3b57600080fd5b505af1158015611a4f573d6000803e3d6000fd5b5050604080516001600160401b03808a168252881660208201527f686faddec2d8b23f0f43c10006482b63941b927c9a98339cd78514b67139ad679350019050611037565b600080516020615ee0833981519152611aad8133613829565b8151611ac0906019906020850190614eb4565b507f6741b2fc379fad678116fe3d4d4b9a1a184ab53ba36b86ad0fa66340b1ab41ad826040516111279190615a22565b6000610c45826133cf565b60198054611b0890615dbb565b80601f0160208091040260200160405190810160405280929190818152602001828054611b3490615dbb565b8015611b815780601f10611b5657610100808354040283529160200191611b81565b820191906000526020600020905b815481529060010190602001808311611b6457829003601f168201915b505050505081565b60865460ff1615611bac5760405162461bcd60e51b8152600401610c7f90615a6b565b3383611bb8828261356b565b611bd45760405162461bcd60e51b8152600401610c7f90615b19565b6000858152601a6020908152604080832081516080810183528154815260018201549381019390935260028101549183019190915260030154606082015290611c1b61371f565b509050600080611c2c8985856137a4565b915091508060001415611db957600e5460208501514291611c5e91600160801b9091046001600160401b031690615b88565b11158015611c6b57508188105b8015611c7a5750836040015188105b8015611cbf5750600d54600160401b90046001600160401b0316611c9e8984615d39565b611ca89190615ceb565b633b9aca008560600151611cbc9190615ceb565b11155b8015611d0c5750600d546040850151600160401b9091046001600160401b031690611ceb908a90615d39565b611cf59190615ceb565b633b9aca008560600151611d099190615ceb565b11155b611d3d5760405162461bcd60e51b8152602060048201526002602482015261333360f01b6044820152606401610c7f565b6000898152601a6020526040812060020180548a9290611d5e908490615d39565b925050819055507f10c4de39a7e804616cdc1b2dbf59fe6db0ed0d54ff69cef9c8fc024f79c7d47e89898660400151611d979190615d39565b6040805192835260208301919091520160405180910390a1611db98789613c4c565b505050505050505050565b60006001600160a01b038216611dec5760405162461bcd60e51b8152600401610c7f90615a35565b506001600160a01b03166000908152601e602052604090205490565b6007546001600160a01b03163314611e325760405162461bcd60e51b8152600401610c7f90615afe565b600380546001600160a01b0319166001600160a01b0392909216919091179055565b60865460ff1615611e775760405162461bcd60e51b8152600401610c7f90615a6b565b6000611e8161371f565b5090506000805b8351811015611f5a576000848281518110611ea557611ea5615e4b565b60200260200101519050611ed0816000908152601d60205260409020546001600160a01b0316151590565b15611f47576000818152601a602090815260408083208151608081018352815481526001820154938101939093526002810154918301919091526003015460608201529080611f208484896137a4565b915091508060011415611f4357611f3682613d9c565b611f409087615b88565b95505b5050505b5080611f5281615df0565b915050611e88565b5060408051338152602081018390527f4a9b62c74532d4448574775253ac495abc6f658b1284e9f28508a23135eeb641910160405180910390a1610d573382613c4c565b600080516020615ee0833981519152611fb78133613829565b838380518251148015611fcb575060008251115b611ffb5760405162461bcd60e51b81526020600482015260016024820152603560f81b6044820152606401610c7f565b60005b6001825161200c9190615d39565b811161214957633b9aca006001600160401b031682828151811061203257612032615e4b565b60200260200101516001600160401b0316111580156120805750633b9aca006001600160401b031683828151811061206c5761206c615e4b565b60200260200101516001600160401b031611155b6120b05760405162461bcd60e51b81526020600482015260016024820152601b60f91b6044820152606401610c7f565b801561213757826120c2600183615d39565b815181106120d2576120d2615e4b565b60200260200101516001600160401b03168382815181106120f5576120f5615e4b565b60200260200101516001600160401b0316116121375760405162461bcd60e51b81526020600482015260016024820152603760f81b6044820152606401610c7f565b8061214181615df0565b915050611ffe565b508360ff1660011415612183578551612169906009906020890190614dfc565b50845161217d90600a906020880190614dfc565b506121ac565b855161219690600b906020890190614dfc565b5084516121aa90600c906020880190614dfc565b505b7f03c94e5b4f32a4b9a2709b098207aebe4cc92c950987ee077776cc2300adcde28686866040516121df939291906159c4565b60405180910390a1505050505050565b600080516020615ee08339815191526122088133613829565b610eee613b90565b6018546001600160a01b0316331461223a5760405162461bcd60e51b8152600401610c7f90615afe565b601880546001600160a01b0319166001600160a01b0383169081179091556040517f1c794a043683a294127c95bc365bae91b63b651eb9884a2c9120afee2bb690b490600090a250565b60009182526022602090815260408084206001600160a01b0393909316845291905290205460ff1690565b6001600160a01b0382163314156122ed5760405162461bcd60e51b8152602060048201526002602482015261199b60f11b6044820152606401610c7f565b336000818152602080805260408083206001600160a01b0387168085529252909120805460ff1916841515179055906001600160a01b03167f17307eab39ab6107e8899845ad3d59bd9653f200f220920489ca2b5937696c3183604051612358911515815260200190565b60405180910390a35050565b600061237260865460ff1690565b1561238f5760405162461bcd60e51b8152600401610c7f90615a6b565b856001600160a01b0381166123b65760405162461bcd60e51b8152600401610c7f90615a35565b600085116123eb5760405162461bcd60e51b8152602060048201526002602482015261323760f01b6044820152606401610c7f565b60065460085461240a916001600160a01b0391821691339116896137eb565b600061241461371f565b9150508481111561244c5760405162461bcd60e51b8152602060048201526002602482015261064760f31b6044820152606401610c7f565b6000805461245a8389615ceb565b6124649190615bcb565b9050600061247389838a613ddf565b9050858110156124aa5760405162461bcd60e51b8152602060048201526002602482015261323960f01b6044820152606401610c7f565b600d546124c8908290600160401b90046001600160401b0316615ceb565b6124d6633b9aca008a615ceb565b11156125095760405162461bcd60e51b8152602060048201526002602482015261033360f41b6044820152606401610c7f565b612517600280546001019055565b6002549450612527856000613f95565b81600160008282546125399190615b88565b909155505060408051608081018252848152426020808301918252828401858152606084018d815260008b8152601a90935294909120925183559051600183015551600282015590516003909101556125928a86613fdb565b6040805186815260208101859052908101829052606081018990527f2af29ed8e180e9bfa65515c22e3af766d15e852ec59b9666d6eeaef8a97565929060800160405180910390a15050505095945050505050565b600080516020615ec08339815191526126008133613829565b60005b855181101561264f5761263d600080516020615ee083398151915287838151811061263057612630615e4b565b602002602001015161388d565b8061264781615df0565b915050612603565b50612668600080516020615ee08339815191528561388d565b60075461268d90600080516020615ee0833981519152906001600160a01b031661388d565b50600480546001600160a01b039384166001600160a01b031991821617909155600380549290931691161790555050565b600080516020615ee08339815191526126d78133613829565b81633b9aca00816001600160401b031611156127055760405162461bcd60e51b8152600401610c7f90615a50565b600e80546001600160c01b0316600160c01b6001600160401b038681168202929092179283905560405192041681527f264a4c2e5ed86659859b3c52d1b00a899950c0f3a637d68ca438cc0216dd89bf906020016115c6565b338261276a828261356b565b6127865760405162461bcd60e51b8152600401610c7f90615b19565b612792868686866140ab565b505050505050565b60865460ff16156127bd5760405162461bcd60e51b8152600401610c7f90615a6b565b6000806127c861371f565b915091506000600760009054906101000a90046001600160a01b03166001600160a01b031663344844db6040518163ffffffff1660e01b815260040160206040518083038186803b15801561281c57600080fd5b505afa158015612830573d6000803e3d6000fd5b505050506040513d601f19601f820116820180604052508101906128549190615521565b600d54909150600090633b9aca009061287d90600160801b90046001600160401b031684615ceb565b6128879190615bcb565b600d54909150633b9aca00906128ad90600160c01b90046001600160401b031684615ceb565b6128b79190615bcb565b600154116128ec5760405162461bcd60e51b81526020600482015260026024820152610ccd60f21b6044820152606401610c7f565b600080600087516001600160401b0381111561290a5761290a615e61565b60405190808252806020026020018201604052801561294f57816020015b60408051808201909152600080825260208201528152602001906001900390816129285790505b50905060005b8851811015612b0b57600089828151811061297257612972615e4b565b6020908102919091018101516000818152601d9092526040909120549091506001600160a01b03168015612af6576000828152601a6020908152604080832081516080810183528154815260018201549381019390935260028101549183019190915260030154606082015290806129eb85848f6137a4565b915091508060011415612a1257612a0182613d9c565b612a0b908a615b88565b9850612adf565b600e5460208401514291612a3791600160801b9091046001600160401b031690615b88565b11612adf57612a4685846140f3565b60006001548b1115612a76578a633b9aca00600154612a659190615ceb565b612a6f9190615bcb565b9050612a7d565b50633b9aca005b600080612a8f8587606001518561414e565b9092509050612a9e818c615b88565b9a506040518060400160405280886001600160a01b03168152602001838152508a8a81518110612ad057612ad0615e4b565b60200260200101819052505050505b8960015411612af2575050505050612b0b565b5050505b50508080612b0390615df0565b915050612955565b5060008415612b4057612b1f856002615ceb565b633b9aca00600154612b319190615ceb565b612b3b9190615bcb565b612b43565b60005b9050633b9aca00612c59826011805480602002602001604051908101604052809291908181526020018280548015612bcc57602002820191906000526020600020906000905b82829054906101000a90046001600160401b03166001600160401b031681526020019060080190602082600701049283019260010382029150808411612b895790505b50505050506012805480602002602001604051908101604052809291908181526020018280548015612c4f57602002820191906000526020600020906000905b82829054906101000a90046001600160401b03166001600160401b031681526020019060080190602082600701049283019260010382029150808411612c0c5790505b50505050506142c2565b612c6c906001600160401b031685615ceb565b612c769190615bcb565b92506010548310612c8957601054612c8b565b825b92506000633b9aca00612ca089612710615ceb565b612caa9190615ceb565b600054600d548990612cd5906001600160401b03600160801b8204811691600160c01b900416615d50565b612ce0906005615d0a565b6001600160401b0316612cf39190615ceb565b612cfd9190615ceb565b612d079190615bcb565b9050808410612d165780612d18565b835b93507fb789efbabfeba5ae006c34c3b3c17f6b1cf34ab2ac684be93d1e64da000b5be78a8433612d488989615b88565b604051612d589493929190615918565b60405180910390a160005b8a51811015612de8576000848281518110612d8057612d80615e4b565b6020026020010151602001511115612dd657612dd6848281518110612da757612da7615e4b565b602002602001015160000151858381518110612dc557612dc5615e4b565b602002602001015160200151613c4c565b80612de081615df0565b915050612d63565b50612dfc33612df78787615b88565b613c4c565b50505050505050505050565b60098181548110610e3f57600080fd5b6004546001600160a01b03163314612e425760405162461bcd60e51b8152600401610c7f90615afe565b600e80546001600160401b03928316600160401b026001600160801b03199091169290931691909117919091179055565b6000818152601d60205260409020546060906001600160a01b0316612eaa5760405162461bcd60e51b8152600401610c7f90615ae3565b8160005b8115612ed45780612ebe81615df0565b9150612ecd9050600a83615bcb565b9150612eae565b6000816001600160401b03811115612eee57612eee615e61565b6040519080825280601f01601f191660200182016040528015612f18576020820181803683370190505b5090505b8415612f8357612f2d600183615d39565b9150612f3a600a86615e0b565b612f45906030615b88565b60f81b818381518110612f5a57612f5a615e4b565b60200101906001600160f81b031916908160001a905350612f7c600a86615bcb565b9450612f1c565b600060198054612f9290615dbb565b905011612fae5760405180602001604052806000815250612fd2565b601981604051602001612fc29291906157d3565b6040516020818303038152906040525b95945050505050565b60128181548110610e3f57600080fd5b6000828152602260205260409020600101546130078133613829565b610d5783836138f6565b600c8181548110610e3f57600080fd5b6000828152601a60209081526040808320815160808101835281548152600182015493810193909352600281015491830191909152600301546060820152819061306b818561460b565b92509250509250929050565b600080516020615ee08339815191526130908133613829565b816001600160a01b0381166130b75760405162461bcd60e51b8152600401610c7f90615a35565b6015849055601880546001600160a01b0319166001600160a01b0385169081179091556040518581527fe139be2fc520b685c93d718b643b5d8c42fc57b5724201180c5d765635467312906020015b60405180910390a250505050565b60865460ff16156131375760405162461bcd60e51b8152600401610c7f90615a6b565b3383613143828261356b565b61315f5760405162461bcd60e51b8152600401610c7f90615b19565b6000858152601a60209081526040808320815160808101835281548152600182015493810193909352600281015491830191909152600301546060820152906131a661371f565b5090506000806131b78985856137a4565b915091508060001415611db957600e54602085015142916131e991600160801b9091046001600160401b031690615b88565b111561321c5760405162461bcd60e51b8152602060048201526002602482015261333160f01b6044820152606401610c7f565b61322689856140f3565b600061324183866060015161323c6001546146b3565b61414e565b509050878110156132795760405162461bcd60e51b8152602060048201526002602482015261199960f11b6044820152606401610c7f565b604080518b8152602081018390527f2f06d076c30d294b959d7aa34f40d448e45f487492a47889f02831bb06fee6bf910160405180910390a1612dfc8982613c4c565b600080516020615ee08339815191526132d58133613829565b81633b9aca00816001600160401b031611156133035760405162461bcd60e51b8152600401610c7f90615a50565b61330d8385615d0a565b6001600160401b03166133256002633b9aca00615c40565b116133565760405162461bcd60e51b81526020600482015260016024820152600760fb1b6044820152606401610c7f565b600d80546001600160801b031916600160401b6001600160401b0387811691820267ffffffffffffffff1916929092179186169182179092556040805192835260208301919091527fb556fe5cb4a1a8243b8d5000bbefd6f8b868adcac2765cd4a30ac9320ff1a0b6910160405180910390a150505050565b6000818152601d60205260409020546001600160a01b0316806134045760405162461bcd60e51b8152600401610c7f90615ae3565b919050565b6000818152601f6020526040902080546001600160a01b0319166001600160a01b038416908117909155819061343e826133cf565b6001600160a01b03167f8c5be1e5ebec7d5bd14f71427d1e84f3dd0314c0f7b2291e5b200ac8c7c3b92560405160405180910390a45050565b6040516001600160a01b038316602482015260448101829052610d5790849063a9059cbb60e01b906064015b60408051601f198184030181529190526020810180516001600160e01b03166001600160e01b0319909316929092179091526147ac565b6134e48282613f95565b6000828152601c60205260409020548015610d57576000838152601c60209081526040808320839055601d9091529020546005546001600160a01b039182169161353091168284613477565b806001600160a01b03167fe2403640ba68fed3a2f88b7557551d1993f84b99bb10ff833f0cf8db0c5e04868360405161310691815260200190565b600080613577836133cf565b9050806001600160a01b0316846001600160a01b031614806135b257506000838152601f60205260409020546001600160a01b038581169116145b806135e057506001600160a01b038082166000908152602080805260408083209388168352929052205460ff165b949350505050565b826001600160a01b03166135fb826133cf565b6001600160a01b0316146136215760405162461bcd60e51b8152600401610c7f90615afe565b6001600160a01b03821661365c5760405162461bcd60e51b8152602060048201526002602482015261191b60f11b6044820152606401610c7f565b613667600082613409565b6001600160a01b0383166000908152601e60205260408120805460019290613690908490615d39565b90915550506001600160a01b0382166000908152601e602052604081208054600192906136be908490615b88565b90915550506000818152601d602052604080822080546001600160a01b0319166001600160a01b0386811691821790925591518493918716917fddf252ad1be2c89b69c2b068fc378daa952ba7f163c4a11628f55a4df523b3ef91a4505050565b600354604080516341f654f760e01b8152815160009384936001600160a01b03909116926341f654f79260048083019392829003018186803b15801561376457600080fd5b505afa158015613778573d6000803e3d6000fd5b505050506040513d601f19601f8201168201806040525081019061379c9190615583565b915091509091565b60008060008060006137b6878761460b565b9150915081600014806137c95750806001145b156137dd576137d888886140f3565b600192505b50925090505b935093915050565b6040516001600160a01b03808516602483015283166044820152606481018290526138239085906323b872dd60e01b906084016134a3565b50505050565b6138338282612284565b6110b35761384b816001600160a01b0316601461487e565b61385683602061487e565b604051602001613867929190615871565b60408051601f198184030181529082905262461bcd60e51b8252610c7f91600401615a22565b6138978282612284565b6110b35760008281526022602090815260408083206001600160a01b0385168085529252808320805460ff1916600117905551339285917f2f8788117e7eff1d82e926ec794901d17c78024a50270940304540a733656f0d9190a45050565b6139008282612284565b156110b35760008281526022602090815260408083206001600160a01b0385168085529252808320805460ff1916905551339285917ff6391f5c32d9c69d2a47ea670b442974b53935d1edc7fd64eb21e047a839171b9190a45050565b600060015460001415613971575060175490565b600154670de0b6b3a764000060145460165461398b614a19565b6139959190615d39565b61399f9190615ceb565b6139a99190615ceb565b6139b39190615bcb565b6017546139c09190615b88565b905090565b60865460ff16613a0e5760405162461bcd60e51b815260206004820152601460248201527314185d5cd8589b194e881b9bdd081c185d5cd95960621b6044820152606401610c7f565b6086805460ff191690557f5db9ee0a495bf2e6ff9c91a7834c1ba4fdd244a5e8aa4e537bd38aeae4b073aa335b6040516001600160a01b03909116815260200160405180910390a1565b602154610100900460ff1680613a71575060215460ff16155b613a8d5760405162461bcd60e51b8152600401610c7f90615a95565b602154610100900460ff16158015613aaf576021805461ffff19166101011790555b613ab7614a34565b613abf614a9e565b8015610eee576021805461ff001916905550565b602154610100900460ff1680613aec575060215460ff16155b613b085760405162461bcd60e51b8152600401610c7f90615a95565b602154610100900460ff16158015613b2a576021805461ffff19166101011790555b613abf614a34565b6110b3828261388d565b600082815260226020526040902060010154819060405184907fbd79b86ffe0ab8e8776151514217cd7cacd52c909f66475c3af44e129f0b00ff90600090a460009182526022602052604090912060010155565b60865460ff1615613bb35760405162461bcd60e51b8152600401610c7f90615a6b565b6086805460ff191660011790557f62e78cea01bee320cd4e420270b5ea74000d11b0c9f74754ebdbfc544b05a258613a3b3390565b6000828152601c60209081526040808320548354601b90935290832054909190670de0b6b3a764000090613c1a61395d565b613c249190615d39565b613c2e9086615ceb565b613c389190615bcb565b613c429190615bcb565b61152e9190615b88565b60065460408051629032ff60e51b815290516000926001600160a01b0316916312065fe0916004808301926020929190829003018186803b158015613c9057600080fd5b505afa158015613ca4573d6000803e3d6000fd5b505050506040513d601f19601f82011682018060405250810190613cc89190615521565b9050818110158015613cda5750600082115b15613cfd57600654600854610d57916001600160a01b03918216911685856137eb565b8115610d57576000613d0f8284615d39565b600654600854919250613d30916001600160a01b03908116911686856137eb565b600754604051631a115ff160e01b8152600481018390526001600160a01b03868116602483015290911690631a115ff190604401600060405180830381600087803b158015613d7e57600080fd5b505af1158015613d92573d6000803e3d6000fd5b5050505050505050565b600e54600090633b9aca0090613dc290600160c01b90046001600160401b031684615ceb565b613dcc9190615bcb565b9050600f54811061340457600f54610c45565b600080613df884600154613df39190615b88565b6146b3565b9050633b9aca006001600160401b03821610613e3b5760405162461bcd60e51b8152602060048201526002602482015261323560f01b6044820152606401610c7f565b6000633b9aca00613f27836009805480602002602001604051908101604052809291908181526020018280548015613ec457602002820191906000526020600020906000905b82829054906101000a90046001600160401b03166001600160401b031681526020019060080190602082600701049283019260010382029150808411613e815790505b5050505050600a805480602002602001604051908101604052809291908181526020018280548015612c4f57600091825260209182902080546001600160401b03168452908202830192909160089101808411612c0c57905050505050506142c2565b600e54613f3d91906001600160401b0316615d0a565b6001600160401b0316613f509190615bcb565b9050633b9aca00613f618282615d39565b613f6b9086615ceb565b613f759190615bcb565b613f7f9085615d39565b9050613f8b8187615d39565b9695505050505050565b613f9d61395d565b601755613fa8614a19565b601655613fb58282613be8565b6000928352601c6020908152604080852092909255601754601b90915292209190915550565b6001600160a01b0382166000908152601e60205260408120805460019290614004908490615b88565b90915550506000818152601d602052604080822080546001600160a01b0319166001600160a01b03861690811790915590518392907fddf252ad1be2c89b69c2b068fc378daa952ba7f163c4a11628f55a4df523b3ef908290a461407a6000838360405180602001604052806000815250614b13565b6110b35760405162461bcd60e51b81526020600482015260026024820152610c8d60f21b6044820152606401610c7f565b6140b68484846135e8565b6140c284848484614b13565b6138235760405162461bcd60e51b81526020600482015260026024820152610c8d60f21b6044820152606401610c7f565b8051606082015160009161410691615ceb565b905061411283826134da565b6000838152601b602052604081208190555461412e9082615bcb565b6001600082825461413f9190615d39565b90915550610d57905083614c35565b600080633b9aca0061423b84600b8054806020026020016040519081016040528092919081815260200182805480156141d857602002820191906000526020600020906000905b82829054906101000a90046001600160401b03166001600160401b0316815260200190600801906020826007010492830192600103820291508084116141955790505b5050505050600c805480602002602001604051908101604052809291908181526020018280548015612c4f57600091825260209182902080546001600160401b03168452908202830192909160089101808411612c0c57905050505050506142c2565b600e546142589190600160401b90046001600160401b0316615d0a565b6001600160401b031661426b9190615bcb565b9050633b9aca0061427c8282615d39565b6142869086615ceb565b6142909190615bcb565b61429a9085615d39565b90508481106142ae575060009050836137e3565b6142b88186615d39565b9150935093915050565b600082600184516142d39190615d39565b815181106142e3576142e3615e4b565b60200260200101516001600160401b0316846001600160401b0316106143315781600184516143129190615d39565b8151811061432257614322615e4b565b6020026020010151905061152e565b8260008151811061434457614344615e4b565b60200260200101516001600160401b0316846001600160401b031611614377578160008151811061432257614322615e4b565b600080600185516143889190615d39565b905060005b60016143998484615d39565b11156144035760026143ab8484615d39565b6143b59190615bcb565b6143bf9084615b88565b9050866001600160401b03168682815181106143dd576143dd615e4b565b60200260200101516001600160401b0316116143fb5780925061438d565b80915061438d565b84838151811061441557614415615e4b565b60200260200101516001600160401b031685838151811061443857614438615e4b565b60200260200101516001600160401b031611156145325785838151811061446157614461615e4b565b602002602001015186838151811061447b5761447b615e4b565b602002602001015161448d9190615d50565b86848151811061449f5761449f615e4b565b6020026020010151886144b29190615d50565b8685815181106144c4576144c4615e4b565b60200260200101518785815181106144de576144de615e4b565b60200260200101516144f09190615d50565b6144fa9190615d0a565b6145049190615bdf565b85848151811061451657614516615e4b565b60200260200101516145289190615ba0565b935050505061152e565b85838151811061454457614544615e4b565b602002602001015186838151811061455e5761455e615e4b565b60200260200101516145709190615d50565b86848151811061458257614582615e4b565b6020026020010151886145959190615d50565b8684815181106145a7576145a7615e4b565b60200260200101518786815181106145c1576145c1615e4b565b60200260200101516145d39190615d50565b6145dd9190615d0a565b6145e79190615bdf565b8584815181106145f9576145f9615e4b565b60200260200101516145289190615d50565b600080600083856000015186606001516146259190615ceb565b61462f9190615bcb565b9050846040015185606001516146459190615b88565b811061465457600092506146ab565b80856040015186606001516146699190615b88565b6146739190615d39565b600d546060870151919450614693916001600160401b0390911690615ceb565b6146a1633b9aca0085615ceb565b116146ab57600191505b509250929050565b600080633b9aca00600d60109054906101000a90046001600160401b03166001600160401b0316600760009054906101000a90046001600160a01b03166001600160a01b031663344844db6040518163ffffffff1660e01b815260040160206040518083038186803b15801561472857600080fd5b505afa15801561473c573d6000803e3d6000fd5b505050506040513d601f19601f820116820180604052508101906147609190615521565b61476a9190615ceb565b6147749190615bcb565b90508083101561479e578061478d633b9aca0085615ceb565b6147979190615bcb565b91506147a6565b633b9aca0091505b50919050565b6000614801826040518060400160405280602081526020017f5361666545524332303a206c6f772d6c6576656c2063616c6c206661696c6564815250856001600160a01b0316614cf19092919063ffffffff16565b805190915015610d57578080602001905181019061481f9190615444565b610d575760405162461bcd60e51b815260206004820152602a60248201527f5361666545524332303a204552433230206f7065726174696f6e20646964206e6044820152691bdd081cdd58d8d9595960b21b6064820152608401610c7f565b6060600061488d836002615ceb565b614898906002615b88565b6001600160401b038111156148af576148af615e61565b6040519080825280601f01601f1916602001820160405280156148d9576020820181803683370190505b509050600360fc1b816000815181106148f4576148f4615e4b565b60200101906001600160f81b031916908160001a905350600f60fb1b8160018151811061492357614923615e4b565b60200101906001600160f81b031916908160001a9053506000614947846002615ceb565b614952906001615b88565b90505b60018111156149ca576f181899199a1a9b1b9c1cb0b131b232b360811b85600f166010811061498657614986615e4b565b1a60f81b82828151811061499c5761499c615e4b565b60200101906001600160f81b031916908160001a90535060049490941c936149c381615da4565b9050614955565b50831561152e5760405162461bcd60e51b815260206004820181905260248201527f537472696e67733a20686578206c656e67746820696e73756666696369656e746044820152606401610c7f565b6000806013544210614a2d57601354610c45565b4292915050565b602154610100900460ff1680614a4d575060215460ff16155b614a695760405162461bcd60e51b8152600401610c7f90615a95565b602154610100900460ff16158015613abf576021805461ffff19166101011790558015610eee576021805461ff001916905550565b602154610100900460ff1680614ab7575060215460ff16155b614ad35760405162461bcd60e51b8152600401610c7f90615a95565b602154610100900460ff16158015614af5576021805461ffff19166101011790555b6086805460ff191690558015610eee576021805461ff001916905550565b60006001600160a01b0384163b15614c2a57604051630a85bd0160e11b81526001600160a01b0385169063150b7a0290614b579033908990889088906004016158e6565b602060405180830381600087803b158015614b7157600080fd5b505af1925050508015614ba1575060408051601f3d908101601f19168201909252614b9e918101906154bc565b60015b614c10573d808015614bcf576040519150601f19603f3d011682016040523d82523d6000602084013e614bd4565b606091505b508051614c085760405162461bcd60e51b81526020600482015260026024820152610c8d60f21b6044820152606401610c7f565b805181602001fd5b6001600160e01b031916630a85bd0160e11b1490506135e0565b506001949350505050565b6000614c40826133cf565b9050614c4d600083613409565b6001600160a01b0381166000908152601e60205260408120805460019290614c76908490615d39565b90915550506000828152601d6020908152604080832080546001600160a01b0319169055601a9091528082208281556001810183905560028101839055600301829055518391906001600160a01b038416907fddf252ad1be2c89b69c2b068fc378daa952ba7f163c4a11628f55a4df523b3ef908390a45050565b60606135e0848460008585843b614d4a5760405162461bcd60e51b815260206004820152601d60248201527f416464726573733a2063616c6c20746f206e6f6e2d636f6e74726163740000006044820152606401610c7f565b600080866001600160a01b03168587604051614d6691906157b7565b60006040518083038185875af1925050503d8060008114614da3576040519150601f19603f3d011682016040523d82523d6000602084013e614da8565b606091505b5091509150614db8828286614dc3565b979650505050505050565b60608315614dd257508161152e565b825115614de25782518084602001fd5b8160405162461bcd60e51b8152600401610c7f9190615a22565b82805482825590600052602060002090600301600490048101928215614ea45791602002820160005b83821115614e6f57835183826101000a8154816001600160401b0302191690836001600160401b031602179055509260200192600801602081600701049283019260010302614e25565b8015614ea25782816101000a8154906001600160401b030219169055600801602081600701049283019260010302614e6f565b505b50614eb0929150614f28565b5090565b828054614ec090615dbb565b90600052602060002090601f016020900481019282614ee25760008555614ea4565b82601f10614efb57805160ff1916838001178555614ea4565b82800160010185558215614ea4579182015b82811115614ea4578251825591602001919060010190614f0d565b5b80821115614eb05760008155600101614f29565b60006001600160401b03831115614f5657614f56615e61565b614f69601f8401601f1916602001615b35565b9050828152838383011115614f7d57600080fd5b828260208301376000602084830101529392505050565b803561340481615e77565b600082601f830112614fb057600080fd5b81356020614fc5614fc083615b65565b615b35565b80838252828201915082860187848660051b8901011115614fe557600080fd5b60005b8581101561500b57614ff982615018565b84529284019290840190600101614fe8565b5090979650505050505050565b80356001600160401b038116811461340457600080fd5b60006020828403121561504157600080fd5b813561152e81615e77565b60006020828403121561505e57600080fd5b815161152e81615e77565b6000806040838503121561507c57600080fd5b823561508781615e77565b9150602083013561509781615e77565b809150509250929050565b6000806000606084860312156150b757600080fd5b83356150c281615e77565b925060208401356150d281615e77565b929592945050506040919091013590565b600080600080608085870312156150f957600080fd5b843561510481615e77565b9350602085013561511481615e77565b92506040850135915060608501356001600160401b0381111561513657600080fd5b8501601f8101871361514757600080fd5b61515687823560208401614f3d565b91505092959194509250565b6000806040838503121561517557600080fd5b823561518081615e77565b9150602083013561509781615e8c565b600080604083850312156151a357600080fd5b82356151ae81615e77565b946020939093013593505050565b600080600080600060a086880312156151d457600080fd5b85356151df81615e77565b97602087013597506040870135966060810135965060800135945092505050565b6000806000806080858703121561521657600080fd5b84356001600160401b0381111561522c57600080fd5b8501601f8101871361523d57600080fd5b8035602061524d614fc083615b65565b8083825282820191508285018b848660051b880101111561526d57600080fd5b600095505b8486101561529957803561528581615e77565b835260019590950194918301918301615272565b5097506152a99050888201614f94565b95505050506152ba60408601614f94565b91506152c860608601614f94565b905092959194509250565b600060208083850312156152e657600080fd5b82356001600160401b038111156152fc57600080fd5b8301601f8101851361530d57600080fd5b803561531b614fc082615b65565b80828252848201915084840188868560051b870101111561533b57600080fd5b600094505b8385101561535e578035835260019490940193918501918501615340565b50979650505050505050565b6000806040838503121561537d57600080fd5b82356001600160401b038082111561539457600080fd5b6153a086838701614f9f565b935060208501359150808211156153b657600080fd5b506153c385828601614f9f565b9150509250929050565b6000806000606084860312156153e257600080fd5b83356001600160401b03808211156153f957600080fd5b61540587838801614f9f565b9450602086013591508082111561541b57600080fd5b5061542886828701614f9f565b925050604084013561543981615eb0565b809150509250925092565b60006020828403121561545657600080fd5b815161152e81615e8c565b60006020828403121561547357600080fd5b5035919050565b6000806040838503121561548d57600080fd5b82359150602083013561509781615e77565b6000602082840312156154b157600080fd5b813561152e81615e9a565b6000602082840312156154ce57600080fd5b815161152e81615e9a565b6000602082840312156154eb57600080fd5b81356001600160401b0381111561550157600080fd5b8201601f8101841361551257600080fd5b6135e084823560208401614f3d565b60006020828403121561553357600080fd5b5051919050565b60008060006060848603121561554f57600080fd5b8335925060208401356150d281615e77565b6000806040838503121561557457600080fd5b50508035926020909101359150565b6000806040838503121561559657600080fd5b505080516020909101519092909150565b6000806000606084860312156155bc57600080fd5b8335925060208401359150604084013561543981615e77565b6000602082840312156155e757600080fd5b61152e82615018565b6000806040838503121561560357600080fd5b61560c83615018565b915061561a60208401615018565b90509250929050565b60006020828403121561563557600080fd5b815161152e81615eb0565b600081518084526020808501945080840160005b838110156156795781516001600160401b031687529582019590820190600101615654565b509495945050505050565b805480835260008281526020808220940193909190825b826003820110156156ea5781546001600160401b038082168852604082811c821660208a0152608083811c9092169089015260c09190911c60608801529095019460019091019060040161569b565b9054908281101561570b576001600160401b03821686526020909501946001015b8281101561572d576001600160401b03604083901c1686526020909501946001015b8281101561574f576001600160401b03608083901c1686526020909501946001015b828110156157655760c082901c86526020860195505b5093949350505050565b60008151808452615787816020860160208601615d78565b601f01601f19169290920160200192915050565b600081516157ad818560208601615d78565b9290920192915050565b600082516157c9818460208701615d78565b9190910192915050565b600080845481600182811c9150808316806157ef57607f831692505b602080841082141561580f57634e487b7160e01b86526022600452602486fd5b818015615823576001811461583457615861565b60ff19861689528489019650615861565b60008b81526020902060005b868110156158595781548b820152908501908301615840565b505084890196505b505050505050612fd2818561579b565b7f416363657373436f6e74726f6c3a206163636f756e74200000000000000000008152600083516158a9816017850160208801615d78565b7001034b99036b4b9b9b4b733903937b6329607d1b60179184019182015283516158da816028840160208801615d78565b01602801949350505050565b60006001600160a01b03808716835280861660208401525083604083015260806060830152613f8b608083018461576f565b6080808252855190820181905260009060209060a0840190828901845b8281101561595157815184529284019290840190600101615935565b5050508381038285015286518082528783019183019060005b8181101561599a57835180516001600160a01b03168452850151858401529284019260409092019160010161596a565b50506001600160a01b038716604086015292506159b5915050565b82606083015295945050505050565b6060815260006159d76060830186615640565b82810360208401526159e98186615640565b91505060ff83166040830152949350505050565b604081526000615a106040830185615684565b8281036020840152612fd28185615684565b60208152600061152e602083018461576f565b6020808252600190820152600360fc1b604082015260600190565b6020808252600190820152600d60fa1b604082015260600190565b60208082526010908201526f14185d5cd8589b194e881c185d5cd95960821b604082015260600190565b6020808252602e908201527f496e697469616c697a61626c653a20636f6e747261637420697320616c72656160408201526d191e481a5b9a5d1a585b1a5e995960921b606082015260800190565b6020808252600190820152601960f91b604082015260600190565b6020808252600190820152603160f81b604082015260600190565b602080825260029082015261323160f01b604082015260600190565b604051601f8201601f191681016001600160401b0381118282101715615b5d57615b5d615e61565b604052919050565b60006001600160401b03821115615b7e57615b7e615e61565b5060051b60200190565b60008219821115615b9b57615b9b615e1f565b500190565b60006001600160401b03808316818516808303821115615bc257615bc2615e1f565b01949350505050565b600082615bda57615bda615e35565b500490565b60006001600160401b0380841680615bf957615bf9615e35565b92169190910492915050565b600181815b808511156146ab578160001904821115615c2657615c26615e1f565b80851615615c3357918102915b93841c9390800290615c0a565b600061152e60ff841683600082615c5957506001610c45565b81615c6657506000610c45565b8160018114615c7c5760028114615c8657615ca2565b6001915050610c45565b60ff841115615c9757615c97615e1f565b50506001821b610c45565b5060208310610133831016604e8410600b8410161715615cc5575081810a610c45565b615ccf8383615c05565b8060001904821115615ce357615ce3615e1f565b029392505050565b6000816000190483118215151615615d0557615d05615e1f565b500290565b60006001600160401b0380831681851681830481118215151615615d3057615d30615e1f565b02949350505050565b600082821015615d4b57615d4b615e1f565b500390565b60006001600160401b0383811690831681811015615d7057615d70615e1f565b039392505050565b60005b83811015615d93578181015183820152602001615d7b565b838111156138235750506000910152565b600081615db357615db3615e1f565b506000190190565b600181811c90821680615dcf57607f821691505b602082108114156147a657634e487b7160e01b600052602260045260246000fd5b6000600019821415615e0457615e04615e1f565b5060010190565b600082615e1a57615e1a615e35565b500690565b634e487b7160e01b600052601160045260246000fd5b634e487b7160e01b600052601260045260246000fd5b634e487b7160e01b600052603260045260246000fd5b634e487b7160e01b600052604160045260246000fd5b6001600160a01b0381168114610eee57600080fd5b8015158114610eee57600080fd5b6001600160e01b031981168114610eee57600080fd5b60ff81168114610eee57600080fdfe5916f72c85af4ac6f7e34636ecc97619c4b2085da099a5d28f3e58436cfbe56255435dd261a4b9b3364963f7738a7a662ad9c84396d64be3365284bb7f0a5041a26469706673582212206a35e934a4939c3da2e9a75fb51b6129babcae1a26cd0fb89845202edc12f28d64736f6c63430008070033"
}