{
  "address": "0xC06481fc1D0196C138770fD2148DCB306cB24E20",
  "abi": [
    {
      "inputs": [
        {
          "internalType": "address[]",
          "name": "governorList",
          "type": "address[]"
        },
        {
          "internalType": "address",
          "name": "guardian",
          "type": "address"
        },
        {
          "internalType": "address",
          "name": "rewardTokenAddress",
          "type": "address"
        }
      ],
      "stateMutability": "nonpayable",
      "type": "constructor"
    },
    {
      "anonymous": false,
      "inputs": [
        {
          "indexed": false,
          "internalType": "uint256",
          "name": "_amountToDistribute",
          "type": "uint256"
        },
        {
          "indexed": true,
          "internalType": "address",
          "name": "_stakingContract",
          "type": "address"
        }
      ],
      "name": "AmountToDistributeUpdated",
      "type": "event"
    },
    {
      "anonymous": false,
      "inputs": [
        {
          "indexed": true,
          "internalType": "address",
          "name": "stakingContract",
          "type": "address"
        }
      ],
      "name": "DeletedStakingContract",
      "type": "event"
    },
    {
      "anonymous": false,
      "inputs": [
        {
          "indexed": true,
          "internalType": "address",
          "name": "_caller",
          "type": "address"
        },
        {
          "indexed": false,
          "internalType": "uint256",
          "name": "_amount",
          "type": "uint256"
        },
        {
          "indexed": false,
          "internalType": "address",
          "name": "_stakingContract",
          "type": "address"
        }
      ],
      "name": "Dripped",
      "type": "event"
    },
    {
      "anonymous": false,
      "inputs": [
        {
          "indexed": false,
          "internalType": "uint256",
          "name": "_duration",
          "type": "uint256"
        },
        {
          "indexed": true,
          "internalType": "address",
          "name": "_stakingContract",
          "type": "address"
        }
      ],
      "name": "DurationUpdated",
      "type": "event"
    },
    {
      "anonymous": false,
      "inputs": [
        {
          "indexed": false,
          "internalType": "uint256",
          "name": "_frequency",
          "type": "uint256"
        },
        {
          "indexed": true,
          "internalType": "address",
          "name": "_stakingContract",
          "type": "address"
        }
      ],
      "name": "FrequencyUpdated",
      "type": "event"
    },
    {
      "anonymous": false,
      "inputs": [
        {
          "indexed": false,
          "internalType": "uint256",
          "name": "_incentiveAmount",
          "type": "uint256"
        },
        {
          "indexed": true,
          "internalType": "address",
          "name": "_stakingContract",
          "type": "address"
        }
      ],
      "name": "IncentiveUpdated",
      "type": "event"
    },
    {
      "anonymous": false,
      "inputs": [
        {
          "indexed": true,
          "internalType": "address",
          "name": "newRewardsDistributor",
          "type": "address"
        }
      ],
      "name": "NewRewardsDistributor",
      "type": "event"
    },
    {
      "anonymous": false,
      "inputs": [
        {
          "indexed": true,
          "internalType": "address",
          "name": "_stakingContract",
          "type": "address"
        }
      ],
      "name": "NewStakingContract",
      "type": "event"
    },
    {
      "anonymous": false,
      "inputs": [
        {
          "indexed": false,
          "internalType": "uint256",
          "name": "_amount",
          "type": "uint256"
        }
      ],
      "name": "RewardTokenWithdrawn",
      "type": "event"
    },
    {
      "anonymous": false,
      "inputs": [
        {
          "indexed": true,
          "internalType": "bytes32",
          "name": "role",
          "type": "bytes32"
        },
        {
          "indexed": true,
          "internalType": "bytes32",
          "name": "previousAdminRole",
          "type": "bytes32"
        },
        {
          "indexed": true,
          "internalType": "bytes32",
          "name": "newAdminRole",
          "type": "bytes32"
        }
      ],
      "name": "RoleAdminChanged",
      "type": "event"
    },
    {
      "anonymous": false,
      "inputs": [
        {
          "indexed": true,
          "internalType": "bytes32",
          "name": "role",
          "type": "bytes32"
        },
        {
          "indexed": true,
          "internalType": "address",
          "name": "account",
          "type": "address"
        },
        {
          "indexed": true,
          "internalType": "address",
          "name": "sender",
          "type": "address"
        }
      ],
      "name": "RoleGranted",
      "type": "event"
    },
    {
      "anonymous": false,
      "inputs": [
        {
          "indexed": true,
          "internalType": "bytes32",
          "name": "role",
          "type": "bytes32"
        },
        {
          "indexed": true,
          "internalType": "address",
          "name": "account",
          "type": "address"
        },
        {
          "indexed": true,
          "internalType": "address",
          "name": "sender",
          "type": "address"
        }
      ],
      "name": "RoleRevoked",
      "type": "event"
    },
    {
      "inputs": [],
      "name": "DEFAULT_ADMIN_ROLE",
      "outputs": [
        {
          "internalType": "bytes32",
          "name": "",
          "type": "bytes32"
        }
      ],
      "stateMutability": "view",
      "type": "function"
    },
    {
      "inputs": [],
      "name": "GOVERNOR_ROLE",
      "outputs": [
        {
          "internalType": "bytes32",
          "name": "",
          "type": "bytes32"
        }
      ],
      "stateMutability": "view",
      "type": "function"
    },
    {
      "inputs": [],
      "name": "GUARDIAN_ROLE",
      "outputs": [
        {
          "internalType": "bytes32",
          "name": "",
          "type": "bytes32"
        }
      ],
      "stateMutability": "view",
      "type": "function"
    },
    {
      "inputs": [
        {
          "internalType": "contract IStakingRewards",
          "name": "stakingContract",
          "type": "address"
        }
      ],
      "name": "drip",
      "outputs": [
        {
          "internalType": "uint256",
          "name": "",
          "type": "uint256"
        }
      ],
      "stateMutability": "nonpayable",
      "type": "function"
    },
    {
      "inputs": [
        {
          "internalType": "bytes32",
          "name": "role",
          "type": "bytes32"
        }
      ],
      "name": "getRoleAdmin",
      "outputs": [
        {
          "internalType": "bytes32",
          "name": "",
          "type": "bytes32"
        }
      ],
      "stateMutability": "view",
      "type": "function"
    },
    {
      "inputs": [
        {
          "internalType": "address",
          "name": "tokenAddress",
          "type": "address"
        },
        {
          "internalType": "address",
          "name": "to",
          "type": "address"
        },
        {
          "internalType": "uint256",
          "name": "amount",
          "type": "uint256"
        },
        {
          "internalType": "contract IStakingRewards",
          "name": "stakingContract",
          "type": "address"
        }
      ],
      "name": "governorRecover",
      "outputs": [],
      "stateMutability": "nonpayable",
      "type": "function"
    },
    {
      "inputs": [
        {
          "internalType": "uint256",
          "name": "amount",
          "type": "uint256"
        },
        {
          "internalType": "address",
          "name": "to",
          "type": "address"
        }
      ],
      "name": "governorWithdrawRewardToken",
      "outputs": [],
      "stateMutability": "nonpayable",
      "type": "function"
    },
    {
      "inputs": [
        {
          "internalType": "bytes32",
          "name": "role",
          "type": "bytes32"
        },
        {
          "internalType": "address",
          "name": "account",
          "type": "address"
        }
      ],
      "name": "grantRole",
      "outputs": [],
      "stateMutability": "nonpayable",
      "type": "function"
    },
    {
      "inputs": [
        {
          "internalType": "bytes32",
          "name": "role",
          "type": "bytes32"
        },
        {
          "internalType": "address",
          "name": "account",
          "type": "address"
        }
      ],
      "name": "hasRole",
      "outputs": [
        {
          "internalType": "bool",
          "name": "",
          "type": "bool"
        }
      ],
      "stateMutability": "view",
      "type": "function"
    },
    {
      "inputs": [
        {
          "internalType": "contract IStakingRewards",
          "name": "stakingContract",
          "type": "address"
        }
      ],
      "name": "removeStakingContract",
      "outputs": [],
      "stateMutability": "nonpayable",
      "type": "function"
    },
    {
      "inputs": [
        {
          "internalType": "bytes32",
          "name": "role",
          "type": "bytes32"
        },
        {
          "internalType": "address",
          "name": "account",
          "type": "address"
        }
      ],
      "name": "renounceRole",
      "outputs": [],
      "stateMutability": "nonpayable",
      "type": "function"
    },
    {
      "inputs": [
        {
          "internalType": "bytes32",
          "name": "role",
          "type": "bytes32"
        },
        {
          "internalType": "address",
          "name": "account",
          "type": "address"
        }
      ],
      "name": "revokeRole",
      "outputs": [],
      "stateMutability": "nonpayable",
      "type": "function"
    },
    {
      "inputs": [],
      "name": "rewardToken",
      "outputs": [
        {
          "internalType": "contract IERC20",
          "name": "",
          "type": "address"
        }
      ],
      "stateMutability": "view",
      "type": "function"
    },
    {
      "inputs": [
        {
          "internalType": "uint256",
          "name": "_amountToDistribute",
          "type": "uint256"
        },
        {
          "internalType": "contract IStakingRewards",
          "name": "stakingContract",
          "type": "address"
        }
      ],
      "name": "setAmountToDistribute",
      "outputs": [],
      "stateMutability": "nonpayable",
      "type": "function"
    },
    {
      "inputs": [
        {
          "internalType": "uint256",
          "name": "_duration",
          "type": "uint256"
        },
        {
          "internalType": "contract IStakingRewards",
          "name": "stakingContract",
          "type": "address"
        }
      ],
      "name": "setDuration",
      "outputs": [],
      "stateMutability": "nonpayable",
      "type": "function"
    },
    {
      "inputs": [
        {
          "internalType": "uint256",
          "name": "_incentiveAmount",
          "type": "uint256"
        },
        {
          "internalType": "contract IStakingRewards",
          "name": "stakingContract",
          "type": "address"
        }
      ],
      "name": "setIncentiveAmount",
      "outputs": [],
      "stateMutability": "nonpayable",
      "type": "function"
    },
    {
      "inputs": [
        {
          "internalType": "address",
          "name": "newRewardsDistributor",
          "type": "address"
        }
      ],
      "name": "setNewRewardsDistributor",
      "outputs": [],
      "stateMutability": "nonpayable",
      "type": "function"
    },
    {
      "inputs": [
        {
          "internalType": "address",
          "name": "_stakingContract",
          "type": "address"
        },
        {
          "internalType": "uint256",
          "name": "_duration",
          "type": "uint256"
        },
        {
          "internalType": "uint256",
          "name": "_incentiveAmount",
          "type": "uint256"
        },
        {
          "internalType": "uint256",
          "name": "_updateFrequency",
          "type": "uint256"
        },
        {
          "internalType": "uint256",
          "name": "_amountToDistribute",
          "type": "uint256"
        }
      ],
      "name": "setStakingContract",
      "outputs": [],
      "stateMutability": "nonpayable",
      "type": "function"
    },
    {
      "inputs": [
        {
          "internalType": "uint256",
          "name": "_updateFrequency",
          "type": "uint256"
        },
        {
          "internalType": "contract IStakingRewards",
          "name": "stakingContract",
          "type": "address"
        }
      ],
      "name": "setUpdateFrequency",
      "outputs": [],
      "stateMutability": "nonpayable",
      "type": "function"
    },
    {
      "inputs": [
        {
          "internalType": "uint256",
          "name": "",
          "type": "uint256"
        }
      ],
      "name": "stakingContractsList",
      "outputs": [
        {
          "internalType": "contract IStakingRewards",
          "name": "",
          "type": "address"
        }
      ],
      "stateMutability": "view",
      "type": "function"
    },
    {
      "inputs": [
        {
          "internalType": "contract IStakingRewards",
          "name": "",
          "type": "address"
        }
      ],
      "name": "stakingContractsMap",
      "outputs": [
        {
          "internalType": "uint256",
          "name": "distributedRewards",
          "type": "uint256"
        },
        {
          "internalType": "uint256",
          "name": "lastDistributionTime",
          "type": "uint256"
        },
        {
          "internalType": "uint256",
          "name": "updateFrequency",
          "type": "uint256"
        },
        {
          "internalType": "uint256",
          "name": "incentiveAmount",
          "type": "uint256"
        },
        {
          "internalType": "uint256",
          "name": "timeStarted",
          "type": "uint256"
        },
        {
          "internalType": "uint256",
          "name": "duration",
          "type": "uint256"
        },
        {
          "internalType": "uint256",
          "name": "amountToDistribute",
          "type": "uint256"
        }
      ],
      "stateMutability": "view",
      "type": "function"
    }
  ],
  "transactionHash": "0xe4dc6cd788a5db3dedf7200ca5a4c3806b686376a570b88344975317706fc40e",
  "args": [
    [
      "0xfdA462548Ce04282f4B6D6619823a7C64Fdc0185",
      "0xe02F8E39b8cFA7d3b62307E46077669010883459",
      "0x5183f032bf42109cD370B9559FD22207e432301E"
    ],
    "0x0C2553e4B9dFA9f83b1A6D3EAB96c4bAaB42d430",
    "0x31429d1856aD1377A8A0079410B297e1a9e214c2"
  ],
  "solcInputHash": "c1a2cc7754e40d365e6c8a31eb4e6940",
  "bytecode": "0x60a06040523480156200001157600080fd5b5060405162002e0338038062002e0383398101604081905262000034916200034d565b6001600160a01b038116158015906200005557506001600160a01b03821615155b6200008b5760405162461bcd60e51b81526020600482015260016024820152600360fc1b60448201526064015b60405180910390fd5b6000835111620000c35760405162461bcd60e51b8152602060048201526002602482015261343760f01b604482015260640162000082565b6001600160601b0319606082901b16608052620000f060008051602062002dc3833981519152806200022c565b6200011a60008051602062002de383398151915260008051602062002dc38339815191526200022c565b60005b8351811015620002075760006001600160a01b031684828151811062000147576200014762000476565b60200260200101516001600160a01b031614156200018c5760405162461bcd60e51b81526020600482015260016024820152600360fc1b604482015260640162000082565b620001c960008051602062002dc3833981519152858381518110620001b557620001b562000476565b60200260200101516200028060201b60201c565b620001f260008051602062002de3833981519152858381518110620001b557620001b562000476565b80620001fe816200044c565b9150506200011d565b506200022360008051602062002de38339815191528362000280565b505050620004a2565b600082815260208190526040902060010154819060405184907fbd79b86ffe0ab8e8776151514217cd7cacd52c909f66475c3af44e129f0b00ff90600090a460009182526020829052604090912060010155565b6200028c828262000290565b5050565b6000828152602081815260408083206001600160a01b038516845290915290205460ff166200028c576000828152602081815260408083206001600160a01b03851684529091529020805460ff19166001179055620002ec3390565b6001600160a01b0316816001600160a01b0316837f2f8788117e7eff1d82e926ec794901d17c78024a50270940304540a733656f0d60405160405180910390a45050565b80516001600160a01b03811681146200034857600080fd5b919050565b6000806000606084860312156200036357600080fd5b83516001600160401b03808211156200037b57600080fd5b818601915086601f8301126200039057600080fd5b8151602082821115620003a757620003a76200048c565b8160051b604051601f19603f83011681018181108682111715620003cf57620003cf6200048c565b604052838152828101945085830182870184018c1015620003ef57600080fd5b600096505b848710156200041d57620004088162000330565b865260019690960195948301948301620003f4565b5097506200042f905088820162000330565b955050505050620004436040850162000330565b90509250925092565b60006000198214156200046f57634e487b7160e01b600052601160045260246000fd5b5060010190565b634e487b7160e01b600052603260045260246000fd5b634e487b7160e01b600052604160045260246000fd5b60805160601c6128d1620004f2600039600081816104110152818161088a01528181610bb001528181610e6b01528181610efc01528181610fe00152818161129c0152611f2001526128d16000f3fe608060405234801561001057600080fd5b50600436106101775760003560e01c80634c6a92e6116100d8578063ccc574901161008c578063d547741f11610066578063d547741f146103e6578063e35c9b44146103f9578063f7c618c11461040c57600080fd5b8063ccc5749014610374578063cd9566591461039b578063d247e0f8146103d357600080fd5b80636ea334bd116100bd5780636ea334bd1461030557806391d1485414610318578063a217fddf1461036c57600080fd5b80634c6a92e6146102df57806367a5cd06146102f257600080fd5b80633a8117df1161012f5780633de7126b116101145780633de7126b146102a657806342109f12146102b95780634b3c8c94146102cc57600080fd5b80633a8117df146102145780633b4afe081461022757600080fd5b806324ea54f41161016057806324ea54f4146101c75780632f2ff15d146101ee57806336568abe1461020157600080fd5b80631090c2c01461017c578063248a9ca314610191575b600080fd5b61018f61018a366004612524565b610433565b005b6101b461019f36600461250b565b60009081526020819052604090206001015490565b6040519081526020015b60405180910390f35b6101b47f55435dd261a4b9b3364963f7738a7a662ad9c84396d64be3365284bb7f0a504181565b61018f6101fc366004612524565b61054c565b61018f61020f366004612524565b610577565b61018f610222366004612524565b610604565b610271610235366004612435565b60016020819052600091825260409091208054918101546002820154600383015460048401546005850154600690950154939492939192909187565b604080519788526020880196909652948601939093526060850191909152608084015260a083015260c082015260e0016101be565b61018f6102b43660046124a5565b610778565b61018f6102c7366004612452565b610ac1565b61018f6102da366004612435565b610b83565b61018f6102ed366004612524565b610f68565b6101b4610300366004612435565b611007565b61018f610313366004612524565b6113a0565b61035c610326366004612524565b60009182526020828152604080842073ffffffffffffffffffffffffffffffffffffffff93909316845291905290205460ff1690565b60405190151581526020016101be565b6101b4600081565b6101b47f7935bd0ae54bc31f548c14dba4d37c5c64b3f8ca900cb468fb8abd54d5894f5581565b6103ae6103a936600461250b565b6115f4565b60405173ffffffffffffffffffffffffffffffffffffffff90911681526020016101be565b61018f6103e1366004612524565b61162b565b61018f6103f4366004612524565b6117a3565b61018f610407366004612435565b6117c9565b6103ae7f000000000000000000000000000000000000000000000000000000000000000081565b7f55435dd261a4b9b3364963f7738a7a662ad9c84396d64be3365284bb7f0a504161045e8133611b39565b73ffffffffffffffffffffffffffffffffffffffff8216600090815260016020526040902060058101546104f3576040517f08c379a000000000000000000000000000000000000000000000000000000000815260206004820152600260248201527f383000000000000000000000000000000000000000000000000000000000000060448201526064015b60405180910390fd5b6003810184905560405184815273ffffffffffffffffffffffffffffffffffffffff8416907fd9536e856b2ef83701ab78868596ba05039859709dc5f8406a69c668c09c7c5e906020015b60405180910390a250505050565b6000828152602081905260409020600101546105688133611b39565b6105728383611c09565b505050565b73ffffffffffffffffffffffffffffffffffffffff811633146105f6576040517f08c379a000000000000000000000000000000000000000000000000000000000815260206004820152600260248201527f373100000000000000000000000000000000000000000000000000000000000060448201526064016104ea565b6106008282611cf9565b5050565b7f55435dd261a4b9b3364963f7738a7a662ad9c84396d64be3365284bb7f0a504161062f8133611b39565b73ffffffffffffffffffffffffffffffffffffffff8216600090815260016020526040902060058101546106bf576040517f08c379a000000000000000000000000000000000000000000000000000000000815260206004820152600260248201527f383000000000000000000000000000000000000000000000000000000000000060448201526064016104ea565b80548411610729576040517f08c379a000000000000000000000000000000000000000000000000000000000815260206004820152600260248201527f383800000000000000000000000000000000000000000000000000000000000060448201526064016104ea565b6006810184905560405184815273ffffffffffffffffffffffffffffffffffffffff8416907fbb413288279da18c017bf38bbdd947481ef17687929444fa26d433ae92e9e4079060200161053e565b7f7935bd0ae54bc31f548c14dba4d37c5c64b3f8ca900cb468fb8abd54d5894f556107a38133611b39565b6000851161080d576040517f08c379a000000000000000000000000000000000000000000000000000000000815260206004820152600260248201527f383500000000000000000000000000000000000000000000000000000000000060448201526064016104ea565b82851015801561081d5750824210155b610883576040517f08c379a000000000000000000000000000000000000000000000000000000000815260206004820152600260248201527f383600000000000000000000000000000000000000000000000000000000000060448201526064016104ea565b60008690507f000000000000000000000000000000000000000000000000000000000000000073ffffffffffffffffffffffffffffffffffffffff168173ffffffffffffffffffffffffffffffffffffffff1663f7c618c16040518163ffffffff1660e01b815260040160206040518083038186803b15801561090557600080fd5b505afa158015610919573d6000803e3d6000fd5b505050506040513d601f19601f8201168201806040525081019061093d9190612554565b73ffffffffffffffffffffffffffffffffffffffff16146109ba576040517f08c379a000000000000000000000000000000000000000000000000000000000815260206004820152600260248201527f383300000000000000000000000000000000000000000000000000000000000060448201526064016104ea565b73ffffffffffffffffffffffffffffffffffffffff8116600090815260016020526040902060028101859055600381018690556109f78542612708565b6001820155610a068542612708565b600482015560058101879055600681018490556002805460018101825560009182527f405787fa12a823e0f2b7631cc41b3ba8828b3321ca811111fa75cd3aa3bb5ace0180547fffffffffffffffffffffffff00000000000000000000000000000000000000001673ffffffffffffffffffffffffffffffffffffffff85811691909117909155604051908a16917ff228d09c7f9308ef1c29067a996fb4332eab58e7a67d0b405cf84ffba2fd205691a25050505050505050565b7f7935bd0ae54bc31f548c14dba4d37c5c64b3f8ca900cb468fb8abd54d5894f55610aec8133611b39565b6040517f1171bda900000000000000000000000000000000000000000000000000000000815273ffffffffffffffffffffffffffffffffffffffff8681166004830152858116602483015260448201859052831690631171bda990606401600060405180830381600087803b158015610b6457600080fd5b505af1158015610b78573d6000803e3d6000fd5b505050505050505050565b7f7935bd0ae54bc31f548c14dba4d37c5c64b3f8ca900cb468fb8abd54d5894f55610bae8133611b39565b7f000000000000000000000000000000000000000000000000000000000000000073ffffffffffffffffffffffffffffffffffffffff168273ffffffffffffffffffffffffffffffffffffffff1663f7c618c16040518163ffffffff1660e01b815260040160206040518083038186803b158015610c2b57600080fd5b505afa158015610c3f573d6000803e3d6000fd5b505050506040513d601f19601f82011682018060405250810190610c639190612554565b73ffffffffffffffffffffffffffffffffffffffff1614610ce0576040517f08c379a000000000000000000000000000000000000000000000000000000000815260206004820152600260248201527f383300000000000000000000000000000000000000000000000000000000000060448201526064016104ea565b73ffffffffffffffffffffffffffffffffffffffff8216301415610d60576040517f08c379a000000000000000000000000000000000000000000000000000000000815260206004820152600260248201527f383400000000000000000000000000000000000000000000000000000000000060448201526064016104ea565b60005b600254811015610e215760028181548110610d8057610d8061281b565b6000918252602090912001546040517f873291bb00000000000000000000000000000000000000000000000000000000815273ffffffffffffffffffffffffffffffffffffffff85811660048301529091169063873291bb90602401600060405180830381600087803b158015610df657600080fd5b505af1158015610e0a573d6000803e3d6000fd5b505050508080610e1990612784565b915050610d63565b506040517f70a08231000000000000000000000000000000000000000000000000000000008152306004820152610f2390839073ffffffffffffffffffffffffffffffffffffffff7f000000000000000000000000000000000000000000000000000000000000000016906370a082319060240160206040518083038186803b158015610ead57600080fd5b505afa158015610ec1573d6000803e3d6000fd5b505050506040513d601f19601f82011682018060405250810190610ee59190612571565b73ffffffffffffffffffffffffffffffffffffffff7f0000000000000000000000000000000000000000000000000000000000000000169190611db0565b60405173ffffffffffffffffffffffffffffffffffffffff8316907f058fa9577dc29aece41d41c2d3bff2ed4e8d5085762198e8f7faab35039555da90600090a25050565b7f7935bd0ae54bc31f548c14dba4d37c5c64b3f8ca900cb468fb8abd54d5894f55610f938133611b39565b6040518381527fc153761d6d1b89a5525acd53d2bec7b851c0f72a52e13c3c9663ac0e08b42a2b9060200160405180910390a161057273ffffffffffffffffffffffffffffffffffffffff7f0000000000000000000000000000000000000000000000000000000000000000168385611db0565b73ffffffffffffffffffffffffffffffffffffffff811660009081526001602052604081206005810154611097576040517f08c379a000000000000000000000000000000000000000000000000000000000815260206004820152600260248201527f383000000000000000000000000000000000000000000000000000000000000060448201526064016104ea565b6040805160e08101825282548152600183015460208201526002830154918101919091526003820154606082015260048201546080820152600582015460a0820152600682015460c08201526110ec90611e3d565b611152576040517f08c379a000000000000000000000000000000000000000000000000000000000815260206004820152600260248201527f383100000000000000000000000000000000000000000000000000000000000060448201526064016104ea565b6040805160e08101825282548152600183015460208201526002830154918101919091526003820154606082015260048201546080820152600582015460a0820152600682015460c08201526000906111aa90611e51565b426001840155905080611219576040517f08c379a000000000000000000000000000000000000000000000000000000000815260206004820152600260248201527f383200000000000000000000000000000000000000000000000000000000000060448201526064016104ea565b8082600001600082825461122d9190612678565b90915550506040805182815273ffffffffffffffffffffffffffffffffffffffff8616602082015233917f9fa52952803bc57696c9fd3c1c2d8287f2d795d0d9a40e32750f25eba46b6630910160405180910390a26112c373ffffffffffffffffffffffffffffffffffffffff7f0000000000000000000000000000000000000000000000000000000000000000168583611db0565b6040517f3c6b16ab0000000000000000000000000000000000000000000000000000000081526004810182905273ffffffffffffffffffffffffffffffffffffffff851690633c6b16ab90602401600060405180830381600087803b15801561132b57600080fd5b505af115801561133f573d6000803e3d6000fd5b50506040805160e08101825285548152600186015460208201526002860154918101919091526003850154606082015260048501546080820152600585015460a0820152600685015460c082015261139992509050611f00565b9392505050565b7f55435dd261a4b9b3364963f7738a7a662ad9c84396d64be3365284bb7f0a50416113cb8133611b39565b73ffffffffffffffffffffffffffffffffffffffff82166000908152600160205260409020600581015461145b576040517f08c379a000000000000000000000000000000000000000000000000000000000815260206004820152600260248201527f383000000000000000000000000000000000000000000000000000000000000060448201526064016104ea565b80600201548410156114c9576040517f08c379a000000000000000000000000000000000000000000000000000000000815260206004820152600260248201527f383700000000000000000000000000000000000000000000000000000000000060448201526064016104ea565b6040805160e08101825282548152600183015460208201526002830154918101919091526003820154606082015260048201546080820152600582015460a0820152600682015460c082015260009061152190611f4b565b905081600501548110801561153557508481105b61159b576040517f08c379a000000000000000000000000000000000000000000000000000000000815260206004820152600260248201527f363600000000000000000000000000000000000000000000000000000000000060448201526064016104ea565b6005820185905560405185815273ffffffffffffffffffffffffffffffffffffffff8516907fbee09afa44760aa24732e07ec15b6fa5f4432550051c3a0d1a08a50326a1defb9060200160405180910390a25050505050565b6002818154811061160457600080fd5b60009182526020909120015473ffffffffffffffffffffffffffffffffffffffff16905081565b7f55435dd261a4b9b3364963f7738a7a662ad9c84396d64be3365284bb7f0a50416116568133611b39565b73ffffffffffffffffffffffffffffffffffffffff8216600090815260016020526040902060058101546116e6576040517f08c379a000000000000000000000000000000000000000000000000000000000815260206004820152600260248201527f383000000000000000000000000000000000000000000000000000000000000060448201526064016104ea565b8381600501541015611754576040517f08c379a000000000000000000000000000000000000000000000000000000000815260206004820152600260248201527f383700000000000000000000000000000000000000000000000000000000000060448201526064016104ea565b6002810184905560405184815273ffffffffffffffffffffffffffffffffffffffff8416907fbfd33a2575f88c85e7e7e86d842b48bf98c1ef211bc56e33211acd0e0bd31f7c9060200161053e565b6000828152602081905260409020600101546117bf8133611b39565b6105728383611cf9565b7f7935bd0ae54bc31f548c14dba4d37c5c64b3f8ca900cb468fb8abd54d5894f556117f48133611b39565b6002546000906001811015611865576040517f08c379a000000000000000000000000000000000000000000000000000000000815260206004820152600260248201527f383000000000000000000000000000000000000000000000000000000000000060448201526064016104ea565b60005b611873600183612708565b811015611984578473ffffffffffffffffffffffffffffffffffffffff16600282815481106118a4576118a461281b565b60009182526020909120015473ffffffffffffffffffffffffffffffffffffffff161415611972576001925060026118dc8484612708565b815481106118ec576118ec61281b565b6000918252602090912001546002805473ffffffffffffffffffffffffffffffffffffffff90921691839081106119255761192561281b565b9060005260206000200160006101000a81548173ffffffffffffffffffffffffffffffffffffffff021916908373ffffffffffffffffffffffffffffffffffffffff160217905550611984565b8061197c81612784565b915050611868565b5081600114806119e7575073ffffffffffffffffffffffffffffffffffffffff841660026119b3600184612708565b815481106119c3576119c361281b565b60009182526020909120015473ffffffffffffffffffffffffffffffffffffffff16145b611a4d576040517f08c379a000000000000000000000000000000000000000000000000000000000815260206004820152600260248201527f383000000000000000000000000000000000000000000000000000000000000060448201526064016104ea565b6002805480611a5e57611a5e6127ec565b6000828152602080822083017fffffffffffffffffffffffffffffffffffffffffffffffffffffffffffffffff90810180547fffffffffffffffffffffffff000000000000000000000000000000000000000016905590920190925573ffffffffffffffffffffffffffffffffffffffff86168083526001918290526040808420848155928301849055600283018490556003830184905560048301849055600583018490556006909201839055905190917f0847cc014e998c8a980971cc19d157bd4f42f7c9927dded789e9f88a941bf14691a250505050565b60008281526020818152604080832073ffffffffffffffffffffffffffffffffffffffff8516845290915290205460ff1661060057611b8f8173ffffffffffffffffffffffffffffffffffffffff166014611f7e565b611b9a836020611f7e565b604051602001611bab9291906125a6565b604080517fffffffffffffffffffffffffffffffffffffffffffffffffffffffffffffffe0818403018152908290527f08c379a00000000000000000000000000000000000000000000000000000000082526104ea91600401612627565b60008281526020818152604080832073ffffffffffffffffffffffffffffffffffffffff8516845290915290205460ff166106005760008281526020818152604080832073ffffffffffffffffffffffffffffffffffffffff85168452909152902080547fffffffffffffffffffffffffffffffffffffffffffffffffffffffffffffff00166001179055611c9b3390565b73ffffffffffffffffffffffffffffffffffffffff168173ffffffffffffffffffffffffffffffffffffffff16837f2f8788117e7eff1d82e926ec794901d17c78024a50270940304540a733656f0d60405160405180910390a45050565b60008281526020818152604080832073ffffffffffffffffffffffffffffffffffffffff8516845290915290205460ff16156106005760008281526020818152604080832073ffffffffffffffffffffffffffffffffffffffff8516808552925280832080547fffffffffffffffffffffffffffffffffffffffffffffffffffffffffffffff0016905551339285917ff6391f5c32d9c69d2a47ea670b442974b53935d1edc7fd64eb21e047a839171b9190a45050565b6040805173ffffffffffffffffffffffffffffffffffffffff8416602482015260448082018490528251808303909101815260649091019091526020810180517bffffffffffffffffffffffffffffffffffffffffffffffffffffffff167fa9059cbb000000000000000000000000000000000000000000000000000000001790526105729084906121c1565b6000611e48826122cd565b42101592915050565b60008160c00151826000015110611e6a57506000919050565b60008260a00151836020015142611e819190612708565b8460c00151611e9091906126cb565b611e9a9190612690565b90506000611ea784611f4b565b8460a00151611eb69190612708565b9050600084600001518560c00151611ece9190612708565b90508460400151821080611ee157508281105b80611eea575081155b15611ef757949350505050565b50909392505050565b6060810151611f489073ffffffffffffffffffffffffffffffffffffffff7f000000000000000000000000000000000000000000000000000000000000000016903390611db0565b50565b60a08101516080820151600091908290611f659042612708565b9050818111611f745780611f76565b815b949350505050565b60606000611f8d8360026126cb565b611f98906002612678565b67ffffffffffffffff811115611fb057611fb061284a565b6040519080825280601f01601f191660200182016040528015611fda576020820181803683370190505b5090507f3000000000000000000000000000000000000000000000000000000000000000816000815181106120115761201161281b565b60200101907effffffffffffffffffffffffffffffffffffffffffffffffffffffffffffff1916908160001a9053507f7800000000000000000000000000000000000000000000000000000000000000816001815181106120745761207461281b565b60200101907effffffffffffffffffffffffffffffffffffffffffffffffffffffffffffff1916908160001a90535060006120b08460026126cb565b6120bb906001612678565b90505b6001811115612158577f303132333435363738396162636465660000000000000000000000000000000085600f16601081106120fc576120fc61281b565b1a60f81b8282815181106121125761211261281b565b60200101907effffffffffffffffffffffffffffffffffffffffffffffffffffffffffffff1916908160001a90535060049490941c936121518161274f565b90506120be565b508315611399576040517f08c379a000000000000000000000000000000000000000000000000000000000815260206004820181905260248201527f537472696e67733a20686578206c656e67746820696e73756666696369656e7460448201526064016104ea565b6000612223826040518060400160405280602081526020017f5361666545524332303a206c6f772d6c6576656c2063616c6c206661696c65648152508573ffffffffffffffffffffffffffffffffffffffff166122e99092919063ffffffff16565b805190915015610572578080602001905181019061224191906124e9565b610572576040517f08c379a000000000000000000000000000000000000000000000000000000000815260206004820152602a60248201527f5361666545524332303a204552433230206f7065726174696f6e20646964206e60448201527f6f7420737563636565640000000000000000000000000000000000000000000060648201526084016104ea565b6000816040015182602001516122e39190612678565b92915050565b6060611f76848460008585843b61235c576040517f08c379a000000000000000000000000000000000000000000000000000000000815260206004820152601d60248201527f416464726573733a2063616c6c20746f206e6f6e2d636f6e747261637400000060448201526064016104ea565b6000808673ffffffffffffffffffffffffffffffffffffffff168587604051612385919061258a565b60006040518083038185875af1925050503d80600081146123c2576040519150601f19603f3d011682016040523d82523d6000602084013e6123c7565b606091505b50915091506123d78282866123e2565b979650505050505050565b606083156123f1575081611399565b8251156124015782518084602001fd5b816040517f08c379a00000000000000000000000000000000000000000000000000000000081526004016104ea9190612627565b60006020828403121561244757600080fd5b813561139981612879565b6000806000806080858703121561246857600080fd5b843561247381612879565b9350602085013561248381612879565b925060408501359150606085013561249a81612879565b939692955090935050565b600080600080600060a086880312156124bd57600080fd5b85356124c881612879565b97602087013597506040870135966060810135965060800135945092505050565b6000602082840312156124fb57600080fd5b8151801515811461139957600080fd5b60006020828403121561251d57600080fd5b5035919050565b6000806040838503121561253757600080fd5b82359150602083013561254981612879565b809150509250929050565b60006020828403121561256657600080fd5b815161139981612879565b60006020828403121561258357600080fd5b5051919050565b6000825161259c81846020870161271f565b9190910192915050565b7f416363657373436f6e74726f6c3a206163636f756e74200000000000000000008152600083516125de81601785016020880161271f565b7f206973206d697373696e6720726f6c6520000000000000000000000000000000601791840191820152835161261b81602884016020880161271f565b01602801949350505050565b602081526000825180602084015261264681604085016020870161271f565b601f017fffffffffffffffffffffffffffffffffffffffffffffffffffffffffffffffe0169190910160400192915050565b6000821982111561268b5761268b6127bd565b500190565b6000826126c6577f4e487b7100000000000000000000000000000000000000000000000000000000600052601260045260246000fd5b500490565b6000817fffffffffffffffffffffffffffffffffffffffffffffffffffffffffffffffff0483118215151615612703576127036127bd565b500290565b60008282101561271a5761271a6127bd565b500390565b60005b8381101561273a578181015183820152602001612722565b83811115612749576000848401525b50505050565b60008161275e5761275e6127bd565b507fffffffffffffffffffffffffffffffffffffffffffffffffffffffffffffffff0190565b60007fffffffffffffffffffffffffffffffffffffffffffffffffffffffffffffffff8214156127b6576127b66127bd565b5060010190565b7f4e487b7100000000000000000000000000000000000000000000000000000000600052601160045260246000fd5b7f4e487b7100000000000000000000000000000000000000000000000000000000600052603160045260246000fd5b7f4e487b7100000000000000000000000000000000000000000000000000000000600052603260045260246000fd5b7f4e487b7100000000000000000000000000000000000000000000000000000000600052604160045260246000fd5b73ffffffffffffffffffffffffffffffffffffffff81168114611f4857600080fdfea2646970667358221220921910580aa59f834d1ebbde619478225f880a64b1655f7c80f72bc1097ab4cc64736f6c634300080700337935bd0ae54bc31f548c14dba4d37c5c64b3f8ca900cb468fb8abd54d5894f5555435dd261a4b9b3364963f7738a7a662ad9c84396d64be3365284bb7f0a5041",
  "devdoc": {
    "author": "Angle Core Team (forked form FEI Protocol)",
    "details": "Inspired from FEI contract: https://github.com/fei-protocol/fei-protocol-core/blob/master/contracts/staking/FeiRewardsDistributor.sol",
    "kind": "dev",
    "methods": {
      "constructor": {
        "params": {
          "governorList": "List of the governor addresses of the protocol",
          "guardian": "The guardian address, optional",
          "rewardTokenAddress": "The ERC20 token to distribute"
        }
      },
      "drip(address)": {
        "details": "The way to pause this function is to set `updateFrequency` to infinity, or to completely delete the contractA keeper calling this function could be frontran by a miner seeing the potential profit from calling this functionThis function automatically computes the amount of reward tokens to send to the staking contract based on the time elapsed since the last drip, on the amount to distribute and on the duration of the distribution",
        "params": {
          "stakingContract": "Reference to the staking contract"
        }
      },
      "getRoleAdmin(bytes32)": {
        "details": "Returns the admin role that controls `role`. See {grantRole} and {revokeRole}. To change a role's admin, use {_setRoleAdmin}."
      },
      "governorRecover(address,address,uint256,address)": {
        "details": "A use case would be to claim tokens if the staked tokens accumulate rewards or if tokens were mistakenly sent to staking contracts",
        "params": {
          "amount": "Amount to transfer",
          "stakingContract": "Reference to the staking contract",
          "to": "Address to transfer to",
          "tokenAddress": "Address of the ERC20 to recover"
        }
      },
      "governorWithdrawRewardToken(uint256,address)": {
        "details": "Only callable by governance and not by the guardian",
        "params": {
          "amount": "Amount of tokens to send back to treasury",
          "to": "Address to send the tokens to"
        }
      },
      "grantRole(bytes32,address)": {
        "details": "Grants `role` to `account`. If `account` had not been already granted `role`, emits a {RoleGranted} event. Requirements: - the caller must have ``role``'s admin role."
      },
      "hasRole(bytes32,address)": {
        "details": "Returns `true` if `account` has been granted `role`."
      },
      "removeStakingContract(address)": {
        "details": "Allows to clean some space and to avoid keeping in memory contracts which became uselessIt is also a way governance has to completely stop rewards distribution from a contract",
        "params": {
          "stakingContract": "Contract to remove"
        }
      },
      "renounceRole(bytes32,address)": {
        "details": "Revokes `role` from the calling account. Roles are often managed via {grantRole} and {revokeRole}: this function's purpose is to provide a mechanism for accounts to lose their privileges if they are compromised (such as when a trusted device is misplaced). If the calling account had been granted `role`, emits a {RoleRevoked} event. Requirements: - the caller must be `account`."
      },
      "revokeRole(bytes32,address)": {
        "details": "Revokes `role` from `account`. If `account` had been granted `role`, emits a {RoleRevoked} event. Requirements: - the caller must have ``role``'s admin role."
      },
      "setAmountToDistribute(uint256,address)": {
        "params": {
          "_amountToDistribute": "New amount to distribute",
          "stakingContract": "Reference to the staking contract"
        }
      },
      "setDuration(uint256,address)": {
        "params": {
          "_duration": "New duration",
          "stakingContract": "Reference to the staking contract"
        }
      },
      "setIncentiveAmount(uint256,address)": {
        "params": {
          "_incentiveAmount": "New incentive amount",
          "stakingContract": "Reference to the staking contract"
        }
      },
      "setNewRewardsDistributor(address)": {
        "details": "This contract is not upgradeable, setting a new contract could allow for upgrades, which should be propagated across all staking contractsThis function transfers all the reward tokens to the new addressThe new rewards distributor contract should be initialized correctly with all the staking contracts from the staking contract list",
        "params": {
          "newRewardsDistributor": "Address of the new rewards distributor contract"
        }
      },
      "setStakingContract(address,uint256,uint256,uint256,uint256)": {
        "details": "Called by governance to activate a contractAfter setting a new staking contract, everything is as if the contract had already been set for `_updateFrequency` meaning that it is possible to `drip` the staking contract immediately after that",
        "params": {
          "_amountToDistribute": "Amount of gov tokens to give to the staking contract across all drips",
          "_duration": "Time frame during which tokens will be distributed",
          "_incentiveAmount": "Incentive amount given to keepers calling the update function",
          "_stakingContract": "Address of the staking contract",
          "_updateFrequency": "Frequency when it is possible to call the update function and give tokens to the staking contract"
        }
      },
      "setUpdateFrequency(uint256,address)": {
        "params": {
          "_updateFrequency": "New update frequency",
          "stakingContract": "Reference to the staking contract"
        }
      }
    },
    "title": "RewardsDistributor",
    "version": 1
  },
  "userdoc": {
    "kind": "user",
    "methods": {
      "GOVERNOR_ROLE()": {
        "notice": "Role for governors only"
      },
      "GUARDIAN_ROLE()": {
        "notice": "Role for guardians and governors"
      },
      "constructor": {
        "notice": "Initializes the distributor contract with a first set of parameters"
      },
      "drip(address)": {
        "notice": "Sends reward tokens to the staking contract"
      },
      "governorRecover(address,address,uint256,address)": {
        "notice": "Function to withdraw ERC20 tokens that could accrue on a staking contract"
      },
      "governorWithdrawRewardToken(uint256,address)": {
        "notice": "Sends tokens back to governance treasury or another address"
      },
      "removeStakingContract(address)": {
        "notice": "Deletes a staking contract from the staking contract map and removes it from the `stakingContractsList`"
      },
      "rewardToken()": {
        "notice": "Token used as a reward"
      },
      "setAmountToDistribute(uint256,address)": {
        "notice": "Sets the new amount to distribute to a staking contract"
      },
      "setDuration(uint256,address)": {
        "notice": "Sets the new duration with which tokens will be distributed to the staking contract"
      },
      "setIncentiveAmount(uint256,address)": {
        "notice": "Sets the incentive amount for calling drip"
      },
      "setNewRewardsDistributor(address)": {
        "notice": "Sets a new rewards distributor contract and automatically makes this contract useless"
      },
      "setStakingContract(address,uint256,uint256,uint256,uint256)": {
        "notice": "Notifies and initializes a new staking contract"
      },
      "setUpdateFrequency(uint256,address)": {
        "notice": "Sets the update frequency"
      },
      "stakingContractsList(uint256)": {
        "notice": "List of all the staking contracts handled by the rewards distributor Used to be able to change the rewards distributor and propagate a new reference to the underlying staking contract"
      },
      "stakingContractsMap(address)": {
        "notice": "Maps a `StakingContract` to its distribution parameters"
      }
    },
    "notice": "Controls and handles the distribution of governance tokens to the different staking contracts of the protocol",
    "version": 1
  },
  "storageLayout": {
    "storage": [
      {
        "astId": 16352,
        "contract": "contracts/staking/RewardsDistributor.sol:RewardsDistributor",
        "label": "_roles",
        "offset": 0,
        "slot": "0",
        "type": "t_mapping(t_bytes32,t_struct(RoleData)16347_storage)"
      },
      {
        "astId": 35891,
        "contract": "contracts/staking/RewardsDistributor.sol:RewardsDistributor",
        "label": "stakingContractsMap",
        "offset": 0,
        "slot": "1",
        "type": "t_mapping(t_contract(IStakingRewards)23177,t_struct(StakingParameters)35856_storage)"
      },
      {
        "astId": 35896,
        "contract": "contracts/staking/RewardsDistributor.sol:RewardsDistributor",
        "label": "stakingContractsList",
        "offset": 0,
        "slot": "2",
        "type": "t_array(t_contract(IStakingRewards)23177)dyn_storage"
      }
    ],
    "types": {
      "t_address": {
        "encoding": "inplace",
        "label": "address",
        "numberOfBytes": "20"
      },
      "t_array(t_contract(IStakingRewards)23177)dyn_storage": {
        "base": "t_contract(IStakingRewards)23177",
        "encoding": "dynamic_array",
        "label": "contract IStakingRewards[]",
        "numberOfBytes": "32"
      },
      "t_bool": {
        "encoding": "inplace",
        "label": "bool",
        "numberOfBytes": "1"
      },
      "t_bytes32": {
        "encoding": "inplace",
        "label": "bytes32",
        "numberOfBytes": "32"
      },
      "t_contract(IStakingRewards)23177": {
        "encoding": "inplace",
        "label": "contract IStakingRewards",
        "numberOfBytes": "20"
      },
      "t_mapping(t_address,t_bool)": {
        "encoding": "mapping",
        "key": "t_address",
        "label": "mapping(address => bool)",
        "numberOfBytes": "32",
        "value": "t_bool"
      },
      "t_mapping(t_bytes32,t_struct(RoleData)16347_storage)": {
        "encoding": "mapping",
        "key": "t_bytes32",
        "label": "mapping(bytes32 => struct AccessControl.RoleData)",
        "numberOfBytes": "32",
        "value": "t_struct(RoleData)16347_storage"
      },
      "t_mapping(t_contract(IStakingRewards)23177,t_struct(StakingParameters)35856_storage)": {
        "encoding": "mapping",
        "key": "t_contract(IStakingRewards)23177",
        "label": "mapping(contract IStakingRewards => struct StakingParameters)",
        "numberOfBytes": "32",
        "value": "t_struct(StakingParameters)35856_storage"
      },
      "t_struct(RoleData)16347_storage": {
        "encoding": "inplace",
        "label": "struct AccessControl.RoleData",
        "members": [
          {
            "astId": 16344,
            "contract": "contracts/staking/RewardsDistributor.sol:RewardsDistributor",
            "label": "members",
            "offset": 0,
            "slot": "0",
            "type": "t_mapping(t_address,t_bool)"
          },
          {
            "astId": 16346,
            "contract": "contracts/staking/RewardsDistributor.sol:RewardsDistributor",
            "label": "adminRole",
            "offset": 0,
            "slot": "1",
            "type": "t_bytes32"
          }
        ],
        "numberOfBytes": "64"
      },
      "t_struct(StakingParameters)35856_storage": {
        "encoding": "inplace",
        "label": "struct StakingParameters",
        "members": [
          {
            "astId": 35843,
            "contract": "contracts/staking/RewardsDistributor.sol:RewardsDistributor",
            "label": "distributedRewards",
            "offset": 0,
            "slot": "0",
            "type": "t_uint256"
          },
          {
            "astId": 35845,
            "contract": "contracts/staking/RewardsDistributor.sol:RewardsDistributor",
            "label": "lastDistributionTime",
            "offset": 0,
            "slot": "1",
            "type": "t_uint256"
          },
          {
            "astId": 35847,
            "contract": "contracts/staking/RewardsDistributor.sol:RewardsDistributor",
            "label": "updateFrequency",
            "offset": 0,
            "slot": "2",
            "type": "t_uint256"
          },
          {
            "astId": 35849,
            "contract": "contracts/staking/RewardsDistributor.sol:RewardsDistributor",
            "label": "incentiveAmount",
            "offset": 0,
            "slot": "3",
            "type": "t_uint256"
          },
          {
            "astId": 35851,
            "contract": "contracts/staking/RewardsDistributor.sol:RewardsDistributor",
            "label": "timeStarted",
            "offset": 0,
            "slot": "4",
            "type": "t_uint256"
          },
          {
            "astId": 35853,
            "contract": "contracts/staking/RewardsDistributor.sol:RewardsDistributor",
            "label": "duration",
            "offset": 0,
            "slot": "5",
            "type": "t_uint256"
          },
          {
            "astId": 35855,
            "contract": "contracts/staking/RewardsDistributor.sol:RewardsDistributor",
            "label": "amountToDistribute",
            "offset": 0,
            "slot": "6",
            "type": "t_uint256"
          }
        ],
        "numberOfBytes": "224"
      },
      "t_uint256": {
        "encoding": "inplace",
        "label": "uint256",
        "numberOfBytes": "32"
      }
    }
  }
}