{
  "address": "0xA86CC1ae2D94C6ED2aB3bF68fB128c2825673267",
  "abi": [
    {
      "inputs": [
        {
          "internalType": "address",
          "name": "_rewardsDistribution",
          "type": "address"
        },
        {
          "internalType": "address",
          "name": "_rewardToken",
          "type": "address"
        },
        {
          "internalType": "address",
          "name": "_stakingToken",
          "type": "address"
        },
        {
          "internalType": "uint256",
          "name": "_rewardsDuration",
          "type": "uint256"
        }
      ],
      "stateMutability": "nonpayable",
      "type": "constructor"
    },
    {
      "anonymous": false,
      "inputs": [
        {
          "indexed": true,
          "internalType": "address",
          "name": "tokenAddress",
          "type": "address"
        },
        {
          "indexed": true,
          "internalType": "address",
          "name": "to",
          "type": "address"
        },
        {
          "indexed": false,
          "internalType": "uint256",
          "name": "amount",
          "type": "uint256"
        }
      ],
      "name": "Recovered",
      "type": "event"
    },
    {
      "anonymous": false,
      "inputs": [
        {
          "indexed": false,
          "internalType": "uint256",
          "name": "reward",
          "type": "uint256"
        }
      ],
      "name": "RewardAdded",
      "type": "event"
    },
    {
      "anonymous": false,
      "inputs": [
        {
          "indexed": true,
          "internalType": "address",
          "name": "user",
          "type": "address"
        },
        {
          "indexed": false,
          "internalType": "uint256",
          "name": "reward",
          "type": "uint256"
        }
      ],
      "name": "RewardPaid",
      "type": "event"
    },
    {
      "anonymous": false,
      "inputs": [
        {
          "indexed": true,
          "internalType": "address",
          "name": "_rewardsDistribution",
          "type": "address"
        }
      ],
      "name": "RewardsDistributionUpdated",
      "type": "event"
    },
    {
      "anonymous": false,
      "inputs": [
        {
          "indexed": true,
          "internalType": "address",
          "name": "user",
          "type": "address"
        },
        {
          "indexed": false,
          "internalType": "uint256",
          "name": "amount",
          "type": "uint256"
        }
      ],
      "name": "Staked",
      "type": "event"
    },
    {
      "anonymous": false,
      "inputs": [
        {
          "indexed": true,
          "internalType": "address",
          "name": "user",
          "type": "address"
        },
        {
          "indexed": false,
          "internalType": "uint256",
          "name": "amount",
          "type": "uint256"
        }
      ],
      "name": "Withdrawn",
      "type": "event"
    },
    {
      "inputs": [
        {
          "internalType": "address",
          "name": "account",
          "type": "address"
        }
      ],
      "name": "balanceOf",
      "outputs": [
        {
          "internalType": "uint256",
          "name": "",
          "type": "uint256"
        }
      ],
      "stateMutability": "view",
      "type": "function"
    },
    {
      "inputs": [
        {
          "internalType": "address",
          "name": "account",
          "type": "address"
        }
      ],
      "name": "earned",
      "outputs": [
        {
          "internalType": "uint256",
          "name": "",
          "type": "uint256"
        }
      ],
      "stateMutability": "view",
      "type": "function"
    },
    {
      "inputs": [],
      "name": "exit",
      "outputs": [],
      "stateMutability": "nonpayable",
      "type": "function"
    },
    {
      "inputs": [],
      "name": "getReward",
      "outputs": [],
      "stateMutability": "nonpayable",
      "type": "function"
    },
    {
      "inputs": [],
      "name": "lastTimeRewardApplicable",
      "outputs": [
        {
          "internalType": "uint256",
          "name": "",
          "type": "uint256"
        }
      ],
      "stateMutability": "view",
      "type": "function"
    },
    {
      "inputs": [],
      "name": "lastUpdateTime",
      "outputs": [
        {
          "internalType": "uint256",
          "name": "",
          "type": "uint256"
        }
      ],
      "stateMutability": "view",
      "type": "function"
    },
    {
      "inputs": [
        {
          "internalType": "uint256",
          "name": "reward",
          "type": "uint256"
        }
      ],
      "name": "notifyRewardAmount",
      "outputs": [],
      "stateMutability": "nonpayable",
      "type": "function"
    },
    {
      "inputs": [],
      "name": "periodFinish",
      "outputs": [
        {
          "internalType": "uint256",
          "name": "",
          "type": "uint256"
        }
      ],
      "stateMutability": "view",
      "type": "function"
    },
    {
      "inputs": [
        {
          "internalType": "address",
          "name": "tokenAddress",
          "type": "address"
        },
        {
          "internalType": "address",
          "name": "to",
          "type": "address"
        },
        {
          "internalType": "uint256",
          "name": "amount",
          "type": "uint256"
        }
      ],
      "name": "recoverERC20",
      "outputs": [],
      "stateMutability": "nonpayable",
      "type": "function"
    },
    {
      "inputs": [],
      "name": "rewardPerToken",
      "outputs": [
        {
          "internalType": "uint256",
          "name": "",
          "type": "uint256"
        }
      ],
      "stateMutability": "view",
      "type": "function"
    },
    {
      "inputs": [],
      "name": "rewardPerTokenStored",
      "outputs": [
        {
          "internalType": "uint256",
          "name": "",
          "type": "uint256"
        }
      ],
      "stateMutability": "view",
      "type": "function"
    },
    {
      "inputs": [],
      "name": "rewardRate",
      "outputs": [
        {
          "internalType": "uint256",
          "name": "",
          "type": "uint256"
        }
      ],
      "stateMutability": "view",
      "type": "function"
    },
    {
      "inputs": [],
      "name": "rewardToken",
      "outputs": [
        {
          "internalType": "contract IERC20",
          "name": "",
          "type": "address"
        }
      ],
      "stateMutability": "view",
      "type": "function"
    },
    {
      "inputs": [
        {
          "internalType": "address",
          "name": "",
          "type": "address"
        }
      ],
      "name": "rewards",
      "outputs": [
        {
          "internalType": "uint256",
          "name": "",
          "type": "uint256"
        }
      ],
      "stateMutability": "view",
      "type": "function"
    },
    {
      "inputs": [],
      "name": "rewardsDistribution",
      "outputs": [
        {
          "internalType": "address",
          "name": "",
          "type": "address"
        }
      ],
      "stateMutability": "view",
      "type": "function"
    },
    {
      "inputs": [],
      "name": "rewardsDuration",
      "outputs": [
        {
          "internalType": "uint256",
          "name": "",
          "type": "uint256"
        }
      ],
      "stateMutability": "view",
      "type": "function"
    },
    {
      "inputs": [
        {
          "internalType": "address",
          "name": "_rewardsDistribution",
          "type": "address"
        }
      ],
      "name": "setNewRewardsDistribution",
      "outputs": [],
      "stateMutability": "nonpayable",
      "type": "function"
    },
    {
      "inputs": [
        {
          "internalType": "uint256",
          "name": "amount",
          "type": "uint256"
        }
      ],
      "name": "stake",
      "outputs": [],
      "stateMutability": "nonpayable",
      "type": "function"
    },
    {
      "inputs": [
        {
          "internalType": "uint256",
          "name": "amount",
          "type": "uint256"
        },
        {
          "internalType": "address",
          "name": "onBehalf",
          "type": "address"
        }
      ],
      "name": "stakeOnBehalf",
      "outputs": [],
      "stateMutability": "nonpayable",
      "type": "function"
    },
    {
      "inputs": [],
      "name": "stakingBase",
      "outputs": [
        {
          "internalType": "uint256",
          "name": "",
          "type": "uint256"
        }
      ],
      "stateMutability": "view",
      "type": "function"
    },
    {
      "inputs": [],
      "name": "stakingToken",
      "outputs": [
        {
          "internalType": "contract IERC20",
          "name": "",
          "type": "address"
        }
      ],
      "stateMutability": "view",
      "type": "function"
    },
    {
      "inputs": [],
      "name": "totalSupply",
      "outputs": [
        {
          "internalType": "uint256",
          "name": "",
          "type": "uint256"
        }
      ],
      "stateMutability": "view",
      "type": "function"
    },
    {
      "inputs": [
        {
          "internalType": "address",
          "name": "",
          "type": "address"
        }
      ],
      "name": "userRewardPerTokenPaid",
      "outputs": [
        {
          "internalType": "uint256",
          "name": "",
          "type": "uint256"
        }
      ],
      "stateMutability": "view",
      "type": "function"
    },
    {
      "inputs": [
        {
          "internalType": "uint256",
          "name": "amount",
          "type": "uint256"
        }
      ],
      "name": "withdraw",
      "outputs": [],
      "stateMutability": "nonpayable",
      "type": "function"
    }
  ],
  "transactionHash": "0x76f7be97aa932964eb19d0bd5f4017f4ea55a5526722d8925a1c25242739f7a7",
  "args": [
    "0xC06481fc1D0196C138770fD2148DCB306cB24E20",
    "0x31429d1856aD1377A8A0079410B297e1a9e214c2",
    "0x1f4c763bde1d4832b3ea0640e66da00b98831355",
    "606000"
  ],
  "solcInputHash": "e281d18b7b4209f86d24ee132ca15bd3",
  "bytecode": "0x60e06040523480156200001157600080fd5b5060405162001d6938038062001d6983398101604081905262000034916200018f565b60016000556001600160a01b038216158015906200005a57506001600160a01b03831615155b80156200006f57506001600160a01b03841615155b620000a45760405162461bcd60e51b81526020600482015260016024820152600360fc1b604482015260640160405180910390fd5b6001600160601b0319606084811b821660805283901b1660a0526004818155600180546001600160a01b038781166001600160a01b0319909216919091179091556040805163313ce56760e01b815290519185169263313ce567928282019260209290829003018186803b1580156200011c57600080fd5b505afa15801562000131573d6000803e3d6000fd5b505050506040513d601f19601f82011682018060405250810190620001579190620001e1565b6200016490600a62000256565b60c052506200032d92505050565b80516001600160a01b03811681146200018a57600080fd5b919050565b60008060008060808587031215620001a657600080fd5b620001b18562000172565b9350620001c16020860162000172565b9250620001d16040860162000172565b6060959095015193969295505050565b600060208284031215620001f457600080fd5b815160ff811681146200020657600080fd5b9392505050565b600181815b808511156200024e57816000190482111562000232576200023262000317565b808516156200024057918102915b93841c939080029062000212565b509250929050565b60006200020660ff841683600082620002725750600162000311565b81620002815750600062000311565b81600181146200029a5760028114620002a557620002c5565b600191505062000311565b60ff841115620002b957620002b962000317565b50506001821b62000311565b5060208310610133831016604e8410600b8410161715620002ea575081810a62000311565b620002f683836200020d565b80600019048211156200030d576200030d62000317565b0290505b92915050565b634e487b7160e01b600052601160045260246000fd5b60805160601c60a05160601c60c0516119ce6200039b60003960008181610280015281816103ee01526111030152600081816102dd015281816104f20152818161082101526112fd0152600081816103990152818161054901528181610a960152610d0501526119ce6000f3fe608060405234801561001057600080fd5b50600436106101975760003560e01c80637b0a47ee116100e3578063c8f33c911161008c578063e9fad8ee11610066578063e9fad8ee14610383578063ebe2b12b1461038b578063f7c618c11461039457600080fd5b8063c8f33c9114610369578063cd3daf9d14610372578063df136d651461037a57600080fd5b80638b876347116100bd5780638b87634714610323578063a694fc3a14610343578063aceccf8f1461035657600080fd5b80637b0a47ee146102ff57806380faa57d14610308578063873291bb1461031057600080fd5b80633c6b16ab116101455780636041c34f1161011f5780636041c34f1461027b57806370a08231146102a257806372f702f3146102d857600080fd5b80633c6b16ab1461021b5780633d18b9121461022e5780633fc6df6e1461023657600080fd5b806318160ddd1161017657806318160ddd146101f75780632e1a7d4d146101ff578063386a95251461021257600080fd5b80628cc2621461019c5780630700037d146101c25780631171bda9146101e2575b600080fd5b6101af6101aa366004611752565b6103bb565b6040519081526020015b60405180910390f35b6101af6101d0366004611752565b60086020526000908152604090205481565b6101f56101f036600461176d565b61046a565b005b6009546101af565b6101f561020d3660046117cb565b61068b565b6101af60045481565b6101f56102293660046117cb565b61089c565b6101f5610bf2565b6001546102569073ffffffffffffffffffffffffffffffffffffffff1681565b60405173ffffffffffffffffffffffffffffffffffffffff90911681526020016101b9565b6101af7f000000000000000000000000000000000000000000000000000000000000000081565b6101af6102b0366004611752565b73ffffffffffffffffffffffffffffffffffffffff166000908152600a602052604090205490565b6102567f000000000000000000000000000000000000000000000000000000000000000081565b6101af60035481565b6101af610d7c565b6101f561031e366004611752565b610d8f565b6101af610331366004611752565b60076020526000908152604090205481565b6101f56103513660046117cb565b610e7f565b6101f56103643660046117fd565b610f70565b6101af60055481565b6101af6110ea565b6101af60065481565b6101f5611165565b6101af60025481565b6102567f000000000000000000000000000000000000000000000000000000000000000081565b73ffffffffffffffffffffffffffffffffffffffff811660009081526008602090815260408083205460079092528220547f0000000000000000000000000000000000000000000000000000000000000000906104166110ea565b6104209190611926565b73ffffffffffffffffffffffffffffffffffffffff85166000908152600a602052604090205461045091906118e9565b61045a91906118ae565b6104649190611896565b92915050565b60015473ffffffffffffffffffffffffffffffffffffffff1633146104f0576040517f08c379a000000000000000000000000000000000000000000000000000000000815260206004820152600160248201527f310000000000000000000000000000000000000000000000000000000000000060448201526064015b60405180910390fd5b7f000000000000000000000000000000000000000000000000000000000000000073ffffffffffffffffffffffffffffffffffffffff168373ffffffffffffffffffffffffffffffffffffffff161415801561059857507f000000000000000000000000000000000000000000000000000000000000000073ffffffffffffffffffffffffffffffffffffffff168373ffffffffffffffffffffffffffffffffffffffff1614155b6105fe576040517f08c379a000000000000000000000000000000000000000000000000000000000815260206004820152600260248201527f323000000000000000000000000000000000000000000000000000000000000060448201526064016104e7565b61061f73ffffffffffffffffffffffffffffffffffffffff84168383611188565b8173ffffffffffffffffffffffffffffffffffffffff168373ffffffffffffffffffffffffffffffffffffffff167ffff3b3844276f57024e0b42afec1a37f75db36511e43819a4f2a63ab7862b6488360405161067e91815260200190565b60405180910390a3505050565b600260005414156106f8576040517f08c379a000000000000000000000000000000000000000000000000000000000815260206004820152601f60248201527f5265656e7472616e637947756172643a207265656e7472616e742063616c6c0060448201526064016104e7565b6002600055336107066110ea565b600655610711610d7c565b60055573ffffffffffffffffffffffffffffffffffffffff81161561077257610739816103bb565b73ffffffffffffffffffffffffffffffffffffffff82166000908152600860209081526040808320939093556006546007909152919020555b600082116107dc576040517f08c379a000000000000000000000000000000000000000000000000000000000815260206004820152600260248201527f383900000000000000000000000000000000000000000000000000000000000060448201526064016104e7565b816009546107ea9190611926565b600955336000908152600a6020526040902054610808908390611926565b336000818152600a602052604090209190915561085d907f000000000000000000000000000000000000000000000000000000000000000073ffffffffffffffffffffffffffffffffffffffff169084611188565b60405182815233907f7084f5476618d8e60b11ef0d7d3f06914655adb8793e28ff7f018d4c76d505d5906020015b60405180910390a250506001600055565b60015473ffffffffffffffffffffffffffffffffffffffff16331461091d576040517f08c379a000000000000000000000000000000000000000000000000000000000815260206004820152600160248201527f310000000000000000000000000000000000000000000000000000000000000060448201526064016104e7565b6002600054141561098a576040517f08c379a000000000000000000000000000000000000000000000000000000000815260206004820152601f60248201527f5265656e7472616e637947756172643a207265656e7472616e742063616c6c0060448201526064016104e7565b600260009081556109996110ea565b6006556109a4610d7c565b60055573ffffffffffffffffffffffffffffffffffffffff811615610a05576109cc816103bb565b73ffffffffffffffffffffffffffffffffffffffff82166000908152600860209081526040808320939093556006546007909152919020555b6002544210610a2357600454610a1b90836118ae565b600355610a65565b600042600254610a339190611926565b9050600060035482610a4591906118e9565b600454909150610a558286611896565b610a5f91906118ae565b60035550505b6040517f70a082310000000000000000000000000000000000000000000000000000000081523060048201526000907f000000000000000000000000000000000000000000000000000000000000000073ffffffffffffffffffffffffffffffffffffffff16906370a082319060240160206040518083038186803b158015610aed57600080fd5b505afa158015610b01573d6000803e3d6000fd5b505050506040513d601f19601f82011682018060405250810190610b2591906117e4565b905060045481610b3591906118ae565b6003541115610ba0576040517f08c379a000000000000000000000000000000000000000000000000000000000815260206004820152600260248201527f393100000000000000000000000000000000000000000000000000000000000060448201526064016104e7565b426005819055600454610bb291611896565b6002556040518381527fde88a922e0d3b88b24e9623efeb464919c6bf9f66857a65e2bfcf2ce87a9433d9060200160405180910390a15050600160005550565b60026000541415610c5f576040517f08c379a000000000000000000000000000000000000000000000000000000000815260206004820152601f60248201527f5265656e7472616e637947756172643a207265656e7472616e742063616c6c0060448201526064016104e7565b600260005533610c6d6110ea565b600655610c78610d7c565b60055573ffffffffffffffffffffffffffffffffffffffff811615610cd957610ca0816103bb565b73ffffffffffffffffffffffffffffffffffffffff82166000908152600860209081526040808320939093556006546007909152919020555b336000908152600860205260409020548015610d735733600081815260086020526040812055610d41907f000000000000000000000000000000000000000000000000000000000000000073ffffffffffffffffffffffffffffffffffffffff169083611188565b60405181815233907fe2403640ba68fed3a2f88b7557551d1993f84b99bb10ff833f0cf8db0c5e04869060200161088b565b50506001600055565b6000610d8a42600254611261565b905090565b60015473ffffffffffffffffffffffffffffffffffffffff163314610e10576040517f08c379a000000000000000000000000000000000000000000000000000000000815260206004820152600160248201527f310000000000000000000000000000000000000000000000000000000000000060448201526064016104e7565b600180547fffffffffffffffffffffffff00000000000000000000000000000000000000001673ffffffffffffffffffffffffffffffffffffffff83169081179091556040517f1c794a043683a294127c95bc365bae91b63b651eb9884a2c9120afee2bb690b490600090a250565b60026000541415610eec576040517f08c379a000000000000000000000000000000000000000000000000000000000815260206004820152601f60248201527f5265656e7472616e637947756172643a207265656e7472616e742063616c6c0060448201526064016104e7565b600260005533610efa6110ea565b600655610f05610d7c565b60055573ffffffffffffffffffffffffffffffffffffffff811615610f6657610f2d816103bb565b73ffffffffffffffffffffffffffffffffffffffff82166000908152600860209081526040808320939093556006546007909152919020555b610d738233611279565b60026000541415610fdd576040517f08c379a000000000000000000000000000000000000000000000000000000000815260206004820152601f60248201527f5265656e7472616e637947756172643a207265656e7472616e742063616c6c0060448201526064016104e7565b60026000558073ffffffffffffffffffffffffffffffffffffffff8116611060576040517f08c379a000000000000000000000000000000000000000000000000000000000815260206004820152600160248201527f300000000000000000000000000000000000000000000000000000000000000060448201526064016104e7565b816110696110ea565b600655611074610d7c565b60055573ffffffffffffffffffffffffffffffffffffffff8116156110d55761109c816103bb565b73ffffffffffffffffffffffffffffffffffffffff82166000908152600860209081526040808320939093556006546007909152919020555b6110df8484611279565b505060016000555050565b6000600954600014156110fe575060065490565b6009547f0000000000000000000000000000000000000000000000000000000000000000600354600554611130610d7c565b61113a9190611926565b61114491906118e9565b61114e91906118e9565b61115891906118ae565b600654610d8a9190611896565b336000908152600a602052604090205461117e9061068b565b611186610bf2565b565b60405173ffffffffffffffffffffffffffffffffffffffff831660248201526044810182905261125c9084907fa9059cbb00000000000000000000000000000000000000000000000000000000906064015b604080517fffffffffffffffffffffffffffffffffffffffffffffffffffffffffffffffe08184030181529190526020810180517bffffffffffffffffffffffffffffffffffffffffffffffffffffffff167fffffffff00000000000000000000000000000000000000000000000000000000909316929092179091526113cf565b505050565b60008183106112705781611272565b825b9392505050565b600082116112e3576040517f08c379a000000000000000000000000000000000000000000000000000000000815260206004820152600260248201527f393000000000000000000000000000000000000000000000000000000000000060448201526064016104e7565b61132573ffffffffffffffffffffffffffffffffffffffff7f0000000000000000000000000000000000000000000000000000000000000000163330856114db565b816009546113339190611896565b60095573ffffffffffffffffffffffffffffffffffffffff81166000908152600a6020526040902054611367908390611896565b73ffffffffffffffffffffffffffffffffffffffff82166000818152600a6020526040908190209290925590517f9e71bc8eea02a63969f509818f2dafb9254532904319f9dbda79b67bd34a5f3d906113c39085815260200190565b60405180910390a25050565b6000611431826040518060400160405280602081526020017f5361666545524332303a206c6f772d6c6576656c2063616c6c206661696c65648152508573ffffffffffffffffffffffffffffffffffffffff1661153f9092919063ffffffff16565b80519091501561125c578080602001905181019061144f91906117a9565b61125c576040517f08c379a000000000000000000000000000000000000000000000000000000000815260206004820152602a60248201527f5361666545524332303a204552433230206f7065726174696f6e20646964206e60448201527f6f7420737563636565640000000000000000000000000000000000000000000060648201526084016104e7565b60405173ffffffffffffffffffffffffffffffffffffffff808516602483015283166044820152606481018290526115399085907f23b872dd00000000000000000000000000000000000000000000000000000000906084016111da565b50505050565b606061154e8484600085611556565b949350505050565b6060824710156115e8576040517f08c379a000000000000000000000000000000000000000000000000000000000815260206004820152602660248201527f416464726573733a20696e73756666696369656e742062616c616e636520666f60448201527f722063616c6c000000000000000000000000000000000000000000000000000060648201526084016104e7565b843b611650576040517f08c379a000000000000000000000000000000000000000000000000000000000815260206004820152601d60248201527f416464726573733a2063616c6c20746f206e6f6e2d636f6e747261637400000060448201526064016104e7565b6000808673ffffffffffffffffffffffffffffffffffffffff1685876040516116799190611829565b60006040518083038185875af1925050503d80600081146116b6576040519150601f19603f3d011682016040523d82523d6000602084013e6116bb565b606091505b50915091506116cb8282866116d6565b979650505050505050565b606083156116e5575081611272565b8251156116f55782518084602001fd5b816040517f08c379a00000000000000000000000000000000000000000000000000000000081526004016104e79190611845565b803573ffffffffffffffffffffffffffffffffffffffff8116811461174d57600080fd5b919050565b60006020828403121561176457600080fd5b61127282611729565b60008060006060848603121561178257600080fd5b61178b84611729565b925061179960208501611729565b9150604084013590509250925092565b6000602082840312156117bb57600080fd5b8151801515811461127257600080fd5b6000602082840312156117dd57600080fd5b5035919050565b6000602082840312156117f657600080fd5b5051919050565b6000806040838503121561181057600080fd5b8235915061182060208401611729565b90509250929050565b6000825161183b81846020870161193d565b9190910192915050565b602081526000825180602084015261186481604085016020870161193d565b601f017fffffffffffffffffffffffffffffffffffffffffffffffffffffffffffffffe0169190910160400192915050565b600082198211156118a9576118a9611969565b500190565b6000826118e4577f4e487b7100000000000000000000000000000000000000000000000000000000600052601260045260246000fd5b500490565b6000817fffffffffffffffffffffffffffffffffffffffffffffffffffffffffffffffff048311821515161561192157611921611969565b500290565b60008282101561193857611938611969565b500390565b60005b83811015611958578181015183820152602001611940565b838111156115395750506000910152565b7f4e487b7100000000000000000000000000000000000000000000000000000000600052601160045260246000fdfea264697066735822122077f991a49e4728e59e531169e15d2eda16ef6a44d51ad55135afbbba85844e7b64736f6c63430008070033",
  "devdoc": {
    "author": "Forked form SetProtocol https://github.com/SetProtocol/index-coop-contracts/blob/master/contracts/staking/StakingRewards.sol",
    "details": "This contracts is managed by the reward distributor and implements the staking interface",
    "kind": "dev",
    "methods": {
      "balanceOf(address)": {
        "details": "Used instead of having a public variable to respect the ERC20 standard",
        "params": {
          "account": "Account to query the balance of"
        }
      },
      "constructor": {
        "params": {
          "_rewardToken": "ERC20 token given as reward",
          "_rewardsDistribution": "Address owning the rewards token",
          "_rewardsDuration": "Duration of the staking contract",
          "_stakingToken": "ERC20 token used for staking"
        }
      },
      "earned(address)": {
        "details": "It adds to the rewards the amount of reward earned since last time that is the difference in reward per token from now and last time multiplied by the number of tokens staked by the person",
        "params": {
          "account": "Address for which the request is made"
        },
        "returns": {
          "_0": "How much a given account earned rewards"
        }
      },
      "exit()": {
        "details": "This function lets the caller withdraw its staking and claim rewards"
      },
      "lastTimeRewardApplicable()": {
        "details": "Returns the current timestamp if a reward is being distributed and the end of the staking period if staking is done"
      },
      "notifyRewardAmount(uint256)": {
        "details": "This reward will be distributed during `rewardsDuration` set previously",
        "params": {
          "reward": "Amount of reward tokens to distribute"
        }
      },
      "recoverERC20(address,address,uint256)": {
        "details": "A use case would be to claim tokens if the staked tokens accumulate rewards",
        "params": {
          "amount": "Amount to transfer",
          "to": "Address to transfer to",
          "tokenAddress": "Address of the ERC20 token to withdraw"
        }
      },
      "rewardPerToken()": {
        "details": "It adds to the reward per token: the time elapsed since the `rewardPerTokenStored` was last updated multiplied by the `rewardRate` divided by the number of tokens"
      },
      "setNewRewardsDistribution(address)": {
        "details": "This function was also added by Angle Core TeamA compatibility check of the reward token is already performed in the current `RewardsDistributor` implementation which has right to call this function",
        "params": {
          "_rewardsDistribution": "Address of the new rewards distributor contract"
        }
      },
      "stake(uint256)": {
        "params": {
          "amount": "Amount of ERC20 staking token that the `msg.sender` wants to stake"
        }
      },
      "stakeOnBehalf(uint256,address)": {
        "params": {
          "amount": "Amount to stake",
          "onBehalf": "Address to stake onBehalf of"
        }
      },
      "totalSupply()": {
        "details": "Used instead of having a public variable to respect the ERC20 standard"
      },
      "withdraw(uint256)": {
        "params": {
          "amount": "Amount of the ERC20 staking token that the `msg.sender` wants to withdraw"
        }
      }
    },
    "title": "StakingRewards",
    "version": 1
  },
  "userdoc": {
    "kind": "user",
    "methods": {
      "balanceOf(address)": {
        "notice": "Accesses the number of token staked by an account"
      },
      "constructor": {
        "notice": "Initializes the staking contract with a first set of parameters"
      },
      "earned(address)": {
        "notice": "Returns how much a given account earned rewards"
      },
      "exit()": {
        "notice": "Exits someone"
      },
      "getReward()": {
        "notice": "Triggers a payment of the reward earned to the msg.sender"
      },
      "lastTimeRewardApplicable()": {
        "notice": "Queries the last timestamp at which a reward was distributed"
      },
      "lastUpdateTime()": {
        "notice": "Last time `rewardPerTokenStored` was updated"
      },
      "notifyRewardAmount(uint256)": {
        "notice": "Adds rewards to be distributed"
      },
      "periodFinish()": {
        "notice": "Time at which distribution ends"
      },
      "recoverERC20(address,address,uint256)": {
        "notice": "Withdraws ERC20 tokens that could accrue on this contract"
      },
      "rewardPerToken()": {
        "notice": "Used to actualize the `rewardPerTokenStored`"
      },
      "rewardPerTokenStored()": {
        "notice": "Helps to compute the amount earned by someone Cumulates rewards accumulated for one token since the beginning. Stored as a uint so it is actually a float times the base of the reward token"
      },
      "rewardRate()": {
        "notice": "Reward per second given to the staking contract, split among the staked tokens"
      },
      "rewardToken()": {
        "notice": "ERC20 token given as reward"
      },
      "rewards(address)": {
        "notice": "Stores for each account the accumulated rewards"
      },
      "rewardsDistribution()": {
        "notice": "Rewards Distribution contract for this staking contract"
      },
      "rewardsDuration()": {
        "notice": "Duration of the reward distribution"
      },
      "setNewRewardsDistribution(address)": {
        "notice": "Changes the rewards distributor associated to this contract"
      },
      "stake(uint256)": {
        "notice": "Lets someone stake a given amount of `stakingTokens`"
      },
      "stakeOnBehalf(uint256,address)": {
        "notice": "Allows to stake on behalf of another address"
      },
      "stakingBase()": {
        "notice": "Base of the staked token, it is going to be used in the case of sanTokens which are not in base 10**18"
      },
      "stakingToken()": {
        "notice": "ERC20 token used for staking"
      },
      "totalSupply()": {
        "notice": "Accesses the total supply"
      },
      "userRewardPerTokenPaid(address)": {
        "notice": "Stores for each account the `rewardPerToken`: we do the difference between the current and the old value to compute what has been earned by an account"
      },
      "withdraw(uint256)": {
        "notice": "Lets a user withdraw a given amount of collateral from the staking contract"
      }
    },
    "notice": "The `StakingRewards` contracts allows to stake an ERC20 token to receive as reward another ERC20",
    "version": 1
  },
  "storageLayout": {
    "storage": [
      {
        "astId": 8748,
        "contract": "contracts/staking/StakingRewards.sol:StakingRewards",
        "label": "_status",
        "offset": 0,
        "slot": "0",
        "type": "t_uint256"
      },
      {
        "astId": 36904,
        "contract": "contracts/staking/StakingRewards.sol:StakingRewards",
        "label": "rewardsDistribution",
        "offset": 0,
        "slot": "1",
        "type": "t_address"
      },
      {
        "astId": 36907,
        "contract": "contracts/staking/StakingRewards.sol:StakingRewards",
        "label": "periodFinish",
        "offset": 0,
        "slot": "2",
        "type": "t_uint256"
      },
      {
        "astId": 36910,
        "contract": "contracts/staking/StakingRewards.sol:StakingRewards",
        "label": "rewardRate",
        "offset": 0,
        "slot": "3",
        "type": "t_uint256"
      },
      {
        "astId": 36913,
        "contract": "contracts/staking/StakingRewards.sol:StakingRewards",
        "label": "rewardsDuration",
        "offset": 0,
        "slot": "4",
        "type": "t_uint256"
      },
      {
        "astId": 36916,
        "contract": "contracts/staking/StakingRewards.sol:StakingRewards",
        "label": "lastUpdateTime",
        "offset": 0,
        "slot": "5",
        "type": "t_uint256"
      },
      {
        "astId": 36919,
        "contract": "contracts/staking/StakingRewards.sol:StakingRewards",
        "label": "rewardPerTokenStored",
        "offset": 0,
        "slot": "6",
        "type": "t_uint256"
      },
      {
        "astId": 36924,
        "contract": "contracts/staking/StakingRewards.sol:StakingRewards",
        "label": "userRewardPerTokenPaid",
        "offset": 0,
        "slot": "7",
        "type": "t_mapping(t_address,t_uint256)"
      },
      {
        "astId": 36929,
        "contract": "contracts/staking/StakingRewards.sol:StakingRewards",
        "label": "rewards",
        "offset": 0,
        "slot": "8",
        "type": "t_mapping(t_address,t_uint256)"
      },
      {
        "astId": 36931,
        "contract": "contracts/staking/StakingRewards.sol:StakingRewards",
        "label": "_totalSupply",
        "offset": 0,
        "slot": "9",
        "type": "t_uint256"
      },
      {
        "astId": 36935,
        "contract": "contracts/staking/StakingRewards.sol:StakingRewards",
        "label": "_balances",
        "offset": 0,
        "slot": "10",
        "type": "t_mapping(t_address,t_uint256)"
      }
    ],
    "types": {
      "t_address": {
        "encoding": "inplace",
        "label": "address",
        "numberOfBytes": "20"
      },
      "t_mapping(t_address,t_uint256)": {
        "encoding": "mapping",
        "key": "t_address",
        "label": "mapping(address => uint256)",
        "numberOfBytes": "32",
        "value": "t_uint256"
      },
      "t_uint256": {
        "encoding": "inplace",
        "label": "uint256",
        "numberOfBytes": "32"
      }
    }
  }
}