{
  "address": "0x74024F9B3D075A5D339dd3B80E2E218Ec71De0B9",
  "abi": [
    {
      "name": "CommitOwnership",
      "inputs": [
        {
          "name": "admin",
          "type": "address",
          "indexed": false
        }
      ],
      "anonymous": false,
      "type": "event"
    },
    {
      "name": "ApplyOwnership",
      "inputs": [
        {
          "name": "admin",
          "type": "address",
          "indexed": false
        }
      ],
      "anonymous": false,
      "type": "event"
    },
    {
      "name": "Deposit",
      "inputs": [
        {
          "name": "provider",
          "type": "address",
          "indexed": true
        },
        {
          "name": "value",
          "type": "uint256",
          "indexed": false
        },
        {
          "name": "locktime",
          "type": "uint256",
          "indexed": true
        },
        {
          "name": "type",
          "type": "int128",
          "indexed": false
        },
        {
          "name": "ts",
          "type": "uint256",
          "indexed": false
        }
      ],
      "anonymous": false,
      "type": "event"
    },
    {
      "name": "Withdraw",
      "inputs": [
        {
          "name": "provider",
          "type": "address",
          "indexed": true
        },
        {
          "name": "value",
          "type": "uint256",
          "indexed": false
        },
        {
          "name": "ts",
          "type": "uint256",
          "indexed": false
        }
      ],
      "anonymous": false,
      "type": "event"
    },
    {
      "name": "Supply",
      "inputs": [
        {
          "name": "prevSupply",
          "type": "uint256",
          "indexed": false
        },
        {
          "name": "supply",
          "type": "uint256",
          "indexed": false
        }
      ],
      "anonymous": false,
      "type": "event"
    },
    {
      "stateMutability": "nonpayable",
      "type": "constructor",
      "inputs": [],
      "outputs": []
    },
    {
      "stateMutability": "nonpayable",
      "type": "function",
      "name": "initialize",
      "inputs": [
        {
          "name": "_admin",
          "type": "address"
        },
        {
          "name": "token_addr",
          "type": "address"
        },
        {
          "name": "_smart_wallet_checker",
          "type": "address"
        },
        {
          "name": "_name",
          "type": "string"
        },
        {
          "name": "_symbol",
          "type": "string"
        }
      ],
      "outputs": []
    },
    {
      "stateMutability": "nonpayable",
      "type": "function",
      "name": "commit_transfer_ownership",
      "inputs": [
        {
          "name": "addr",
          "type": "address"
        }
      ],
      "outputs": []
    },
    {
      "stateMutability": "nonpayable",
      "type": "function",
      "name": "accept_transfer_ownership",
      "inputs": [],
      "outputs": []
    },
    {
      "stateMutability": "nonpayable",
      "type": "function",
      "name": "apply_transfer_ownership",
      "inputs": [],
      "outputs": []
    },
    {
      "stateMutability": "nonpayable",
      "type": "function",
      "name": "commit_smart_wallet_checker",
      "inputs": [
        {
          "name": "addr",
          "type": "address"
        }
      ],
      "outputs": []
    },
    {
      "stateMutability": "nonpayable",
      "type": "function",
      "name": "apply_smart_wallet_checker",
      "inputs": [],
      "outputs": []
    },
    {
      "stateMutability": "view",
      "type": "function",
      "name": "get_last_user_slope",
      "inputs": [
        {
          "name": "addr",
          "type": "address"
        }
      ],
      "outputs": [
        {
          "name": "",
          "type": "int128"
        }
      ]
    },
    {
      "stateMutability": "view",
      "type": "function",
      "name": "user_point_history__ts",
      "inputs": [
        {
          "name": "_addr",
          "type": "address"
        },
        {
          "name": "_idx",
          "type": "uint256"
        }
      ],
      "outputs": [
        {
          "name": "",
          "type": "uint256"
        }
      ]
    },
    {
      "stateMutability": "view",
      "type": "function",
      "name": "locked__end",
      "inputs": [
        {
          "name": "_addr",
          "type": "address"
        }
      ],
      "outputs": [
        {
          "name": "",
          "type": "uint256"
        }
      ]
    },
    {
      "stateMutability": "nonpayable",
      "type": "function",
      "name": "checkpoint",
      "inputs": [],
      "outputs": []
    },
    {
      "stateMutability": "nonpayable",
      "type": "function",
      "name": "deposit_for",
      "inputs": [
        {
          "name": "_addr",
          "type": "address"
        },
        {
          "name": "_value",
          "type": "uint256"
        }
      ],
      "outputs": []
    },
    {
      "stateMutability": "nonpayable",
      "type": "function",
      "name": "create_lock",
      "inputs": [
        {
          "name": "_value",
          "type": "uint256"
        },
        {
          "name": "_unlock_time",
          "type": "uint256"
        }
      ],
      "outputs": []
    },
    {
      "stateMutability": "nonpayable",
      "type": "function",
      "name": "increase_amount",
      "inputs": [
        {
          "name": "_value",
          "type": "uint256"
        }
      ],
      "outputs": []
    },
    {
      "stateMutability": "nonpayable",
      "type": "function",
      "name": "increase_unlock_time",
      "inputs": [
        {
          "name": "_unlock_time",
          "type": "uint256"
        }
      ],
      "outputs": []
    },
    {
      "stateMutability": "nonpayable",
      "type": "function",
      "name": "withdraw",
      "inputs": [],
      "outputs": []
    },
    {
      "stateMutability": "view",
      "type": "function",
      "name": "balanceOf",
      "inputs": [
        {
          "name": "addr",
          "type": "address"
        }
      ],
      "outputs": [
        {
          "name": "",
          "type": "uint256"
        }
      ]
    },
    {
      "stateMutability": "view",
      "type": "function",
      "name": "balanceOf",
      "inputs": [
        {
          "name": "addr",
          "type": "address"
        },
        {
          "name": "_t",
          "type": "uint256"
        }
      ],
      "outputs": [
        {
          "name": "",
          "type": "uint256"
        }
      ]
    },
    {
      "stateMutability": "view",
      "type": "function",
      "name": "balanceOfAt",
      "inputs": [
        {
          "name": "addr",
          "type": "address"
        },
        {
          "name": "_block",
          "type": "uint256"
        }
      ],
      "outputs": [
        {
          "name": "",
          "type": "uint256"
        }
      ]
    },
    {
      "stateMutability": "view",
      "type": "function",
      "name": "getPastVotes",
      "inputs": [
        {
          "name": "addr",
          "type": "address"
        },
        {
          "name": "_block",
          "type": "uint256"
        }
      ],
      "outputs": [
        {
          "name": "",
          "type": "uint256"
        }
      ]
    },
    {
      "stateMutability": "view",
      "type": "function",
      "name": "totalSupply",
      "inputs": [],
      "outputs": [
        {
          "name": "",
          "type": "uint256"
        }
      ]
    },
    {
      "stateMutability": "view",
      "type": "function",
      "name": "totalSupply",
      "inputs": [
        {
          "name": "t",
          "type": "uint256"
        }
      ],
      "outputs": [
        {
          "name": "",
          "type": "uint256"
        }
      ]
    },
    {
      "stateMutability": "view",
      "type": "function",
      "name": "totalSupplyAt",
      "inputs": [
        {
          "name": "_block",
          "type": "uint256"
        }
      ],
      "outputs": [
        {
          "name": "",
          "type": "uint256"
        }
      ]
    },
    {
      "stateMutability": "view",
      "type": "function",
      "name": "token",
      "inputs": [],
      "outputs": [
        {
          "name": "",
          "type": "address"
        }
      ]
    },
    {
      "stateMutability": "view",
      "type": "function",
      "name": "supply",
      "inputs": [],
      "outputs": [
        {
          "name": "",
          "type": "uint256"
        }
      ]
    },
    {
      "stateMutability": "view",
      "type": "function",
      "name": "locked",
      "inputs": [
        {
          "name": "arg0",
          "type": "address"
        }
      ],
      "outputs": [
        {
          "name": "amount",
          "type": "int128"
        },
        {
          "name": "end",
          "type": "uint256"
        }
      ]
    },
    {
      "stateMutability": "view",
      "type": "function",
      "name": "epoch",
      "inputs": [],
      "outputs": [
        {
          "name": "",
          "type": "uint256"
        }
      ]
    },
    {
      "stateMutability": "view",
      "type": "function",
      "name": "point_history",
      "inputs": [
        {
          "name": "arg0",
          "type": "uint256"
        }
      ],
      "outputs": [
        {
          "name": "bias",
          "type": "int128"
        },
        {
          "name": "slope",
          "type": "int128"
        },
        {
          "name": "ts",
          "type": "uint256"
        },
        {
          "name": "blk",
          "type": "uint256"
        }
      ]
    },
    {
      "stateMutability": "view",
      "type": "function",
      "name": "user_point_history",
      "inputs": [
        {
          "name": "arg0",
          "type": "address"
        },
        {
          "name": "arg1",
          "type": "uint256"
        }
      ],
      "outputs": [
        {
          "name": "bias",
          "type": "int128"
        },
        {
          "name": "slope",
          "type": "int128"
        },
        {
          "name": "ts",
          "type": "uint256"
        },
        {
          "name": "blk",
          "type": "uint256"
        }
      ]
    },
    {
      "stateMutability": "view",
      "type": "function",
      "name": "user_point_epoch",
      "inputs": [
        {
          "name": "arg0",
          "type": "address"
        }
      ],
      "outputs": [
        {
          "name": "",
          "type": "uint256"
        }
      ]
    },
    {
      "stateMutability": "view",
      "type": "function",
      "name": "slope_changes",
      "inputs": [
        {
          "name": "arg0",
          "type": "uint256"
        }
      ],
      "outputs": [
        {
          "name": "",
          "type": "int128"
        }
      ]
    },
    {
      "stateMutability": "view",
      "type": "function",
      "name": "name",
      "inputs": [],
      "outputs": [
        {
          "name": "",
          "type": "string"
        }
      ]
    },
    {
      "stateMutability": "view",
      "type": "function",
      "name": "symbol",
      "inputs": [],
      "outputs": [
        {
          "name": "",
          "type": "string"
        }
      ]
    },
    {
      "stateMutability": "view",
      "type": "function",
      "name": "decimals",
      "inputs": [],
      "outputs": [
        {
          "name": "",
          "type": "uint256"
        }
      ]
    },
    {
      "stateMutability": "view",
      "type": "function",
      "name": "future_smart_wallet_checker",
      "inputs": [],
      "outputs": [
        {
          "name": "",
          "type": "address"
        }
      ]
    },
    {
      "stateMutability": "view",
      "type": "function",
      "name": "smart_wallet_checker",
      "inputs": [],
      "outputs": [
        {
          "name": "",
          "type": "address"
        }
      ]
    },
    {
      "stateMutability": "view",
      "type": "function",
      "name": "admin",
      "inputs": [],
      "outputs": [
        {
          "name": "",
          "type": "address"
        }
      ]
    },
    {
      "stateMutability": "view",
      "type": "function",
      "name": "future_admin",
      "inputs": [],
      "outputs": [
        {
          "name": "",
          "type": "address"
        }
      ]
    },
    {
      "stateMutability": "view",
      "type": "function",
      "name": "initialized",
      "inputs": [],
      "outputs": [
        {
          "name": "",
          "type": "bool"
        }
      ]
    }
  ],
  "transactionHash": "0xe04d27fa72d17df10f6977582cb9bc38a8e38cbbb3117506092127b86c4eb952",
  "args": [],
  "bytecode": "0x6f7fffffffffffffffffffffffffffffff6040526c050c783eb9b5c840000000001854612b7e5760016c050c783eb9b5c840000000001855612b6656600436101561000d57611964565b600035601c526f7fffffffffffffffffffffffffffffff60405260005134612b25576383b435898114156101fb5760043560a01c612b255760243560a01c612b255760443560a01c612b255760606064356004016101403760406064356004013511612b255760406084356004016101c03760206084356004013511612b25576c050c783eb9b5c840000000001854612b255760016c050c783eb9b5c84000000000185560006004351815612b25576004356c050c783eb9b5c8400000000016556024356005556044356c050c783eb9b5c84000000000155543600c5542600b5560206102a0600463313ce5676102405261025c6024355afa15612b2557601f3d1115612b25576000506102a0516102205260ff6102205111612b2557610220516c050c783eb9b5c840000000001355610140806c050c783eb9b5c840000000000c602082510161012060006003818352015b8261012051602002111561017357610195565b61012051602002850151610120518501555b8151600101808352811415610160575b5050505050506101c0806c050c783eb9b5c8400000000010602082510161012060006002818352015b826101205160200211156101d1576101f3565b61012051602002850151610120518501555b81516001018083528114156101be575b505050505050005b636b441a4081141561027e5760043560a01c612b25576c050c783eb9b5c840000000001654331415612b255760006004351815612b25576004356c050c783eb9b5c8400000000017557f2f56810a6bf40af059b96d3aea4db54081f378029a518390491093a7b67032e961014080808060043581525050602090509050610140a1005b63e5ea47b88114156102f6576c050c783eb9b5c8400000000017546101405261014051331415612b2557610140516c050c783eb9b5c8400000000016557febee2d5739011062cb4f14113f3b36bf0ffe3da5c0568f64189d1012a11891056101608080806101405181525050602090509050610160a1005b636a1c05ae811415610385576c050c783eb9b5c840000000001654331415612b25576c050c783eb9b5c840000000001754610140526000610140511815612b2557610140516c050c783eb9b5c8400000000016557febee2d5739011062cb4f14113f3b36bf0ffe3da5c0568f64189d1012a11891056101608080806101405181525050602090509050610160a1005b6357f901e28114156103c55760043560a01c612b25576c050c783eb9b5c840000000001654331415612b25576004356c050c783eb9b5c840000000001455005b638e5b490f811415610407576c050c783eb9b5c840000000001654331415612b25576c050c783eb9b5c8400000000014546c050c783eb9b5c840000000001555005b637c74a17481141561047b5760043560a01c612b25576c050c783eb9b5c840000000000a60043560e05260c052604060c02054610140526001600461014051633b9aca00811015612b2557026c050c783eb9b5c840000000000960043560e05260c052604060c02001015460005260206000f35b63da020a188114156104cd5760043560a01c612b255760026004602435633b9aca00811015612b2557026c050c783eb9b5c840000000000960043560e05260c052604060c02001015460005260206000f35b63adc635898114156105005760043560a01c612b25576001600760043560e05260c052604060c020015460005260206000f35b63c2c4c5c181141561058e5760403661014037604036610180376101405161016051610180516101a05160006101c0526101e061014080518252806020015182602001525050610220610180805182528060200151826020015250506102405161022051610200516101e0516101c05160065801611a50565b6101a052610180526101605261014052600050005b633a46273e81141561071d57600054612b2557600160005560043560a01c612b2557610140600760043560e05260c052604060c0208054825260018101548260200152505060006024351115612b25576000610140511361062e576308c379a06101805260206101a05260166101c0527f4e6f206578697374696e67206c6f636b20666f756e64000000000000000000006101e0526101c050606461019cfd5b4261016051116106a2576308c379a06101805260206101a05260246101c0527f43616e6e6f742061646420746f2065787069726564206c6f636b2e20576974686101e0527f6472617700000000000000000000000000000000000000000000000000000000610200526101c050608461019cfd5b6101405161016051604060046101803760006101c0526101e0600760043560e05260c052604060c0208054825260018101548260200152505060006102205233610240526102405161022051610200516101e0516101c0516101a05161018051600658016121dc565b61016052610140526000506000600055005b6365fc387381141561094657600154612b255760016001553361014052610140516006580161196a565b60005060243562093a808082049050905062093a80808202821582848304141715612b2557809050905090506101405261016060073360e05260c052604060c0208054825260018101548260200152505060006004351115612b255761016051156107f1576308c379a06101a05260206101c05260196101e0527f5769746864726177206f6c6420746f6b656e7320666972737400000000000000610200526101e05060646101bcfd5b426101405111610865576308c379a06101a05260206101c05260266101e0527f43616e206f6e6c79206c6f636b20756e74696c2074696d6520696e2074686520610200527f6675747572650000000000000000000000000000000000000000000000000000610220526101e05060846101bcfd5b42630784ce008181830110612b2557808201905090506101405111156108ca576308c379a06101a05260206101c052601e6101e0527f566f74696e67206c6f636b2063616e2062652034207965617273206d61780000610200526101e05060646101bcfd5b610140516101605161018051336101a0526004356101c052610140516101e052610200610160805182528060200151826020015250506001610240523361026052610260516102405161022051610200516101e0516101c0516101a051600658016121dc565b6101805261016052610140526000506000600155005b634957677c811415610ad557600254612b255760016002553361014052610140516006580161196a565b60005061014060073360e05260c052604060c0208054825260018101548260200152505060006004351115612b2557600061014051136109ef576308c379a06101805260206101a05260166101c0527f4e6f206578697374696e67206c6f636b20666f756e64000000000000000000006101e0526101c050606461019cfd5b426101605111610a63576308c379a06101805260206101a05260246101c0527f43616e6e6f742061646420746f2065787069726564206c6f636b2e20576974686101e0527f6472617700000000000000000000000000000000000000000000000000000000610200526101c050608461019cfd5b610140516101605133610180526004356101a05260006101c0526101e06101408051825280602001518260200152505060026102205233610240526102405161022051610200516101e0516101c0516101a05161018051600658016121dc565b61016052610140526000506000600255005b63eff7a612811415610d2157600354612b255760016003553361014052610140516006580161196a565b60005061014060073360e05260c052604060c0208054825260018101548260200152505060043562093a808082049050905062093a80808202821582848304141715612b25578090509050905061018052426101605111610b9f576308c379a06101a05260206101c052600c6101e0527f4c6f636b20657870697265640000000000000000000000000000000000000000610200526101e05060646101bcfd5b60006101405113610bef576308c379a06101a05260206101c05260116101e0527f4e6f7468696e67206973206c6f636b6564000000000000000000000000000000610200526101e05060646101bcfd5b610160516101805111610c41576308c379a06101a05260206101c052601f6101e0527f43616e206f6e6c7920696e637265617365206c6f636b206475726174696f6e00610200526101e05060646101bcfd5b42630784ce008181830110612b255780820190509050610180511115610ca6576308c379a06101a05260206101c052601e6101e0527f566f74696e67206c6f636b2063616e2062652034207965617273206d61780000610200526101e05060646101bcfd5b610140516101605161018051336101a05260006101c052610180516101e052610200610140805182528060200151826020015250506003610240523361026052610260516102405161022051610200516101e0516101c0516101a051600658016121dc565b6101805261016052610140526000506000600355005b633ccfd60b811415610f8857600454612b2557600160045561014060073360e05260c052604060c0208054825260018101548260200152505061016051421015610daa576308c379a06101805260206101a05260166101c0527f546865206c6f636b206469646e277420657870697265000000000000000000006101e0526101c050606461019cfd5b6101405160008112612b2557610180526101a06101408051825280602001518260200152505060006101605260006101405260073360e05260c052604060c020610140805182558060200151600183015550506006546101e0526101e05161018051808210612b2557808203905090506006556101405161016051610180516101a0516101c0516101e05133610200526102206101a08051825280602001518260200152505061026061014080518252806020015182602001525050610280516102605161024051610220516102005160065801611a50565b6101e0526101c0526101a05261018052610160526101405260005060206102a0604463a9059cbb610200523361022052610180516102405261021c60006005545af115612b2557601f3d1115612b25576000506102a05115612b2557337ff279e6a1f5e320cca91135676d9cb6e44ca8a08c0b88342bcdb1144f6511b568610200808080610180518152505060208101905080804281525050604090509050610200a27f5e2aa66efd74cce82b21852e317e5490d9ecc9e6bb953ae24d90851258cc2f5c6102008080806101e0518152505060208101905080806101e05161018051808210612b25578082039050905081525050604090509050610200a16000600455005b6370a08231811415610f9e574261014052610fbe565b62fdd58e811415610fb9576020602461014037600050610fbe565b6110dc565b60043560a01c612b25576c050c783eb9b5c840000000000a60043560e05260c052604060c02054610160526101605161100057600060005260206000f36110da565b610180600461016051633b9aca00811015612b2557026c050c783eb9b5c840000000000960043560e05260c052604060c0200180548252600181015482602001526002810154826040015260038101548260600152505061018080516101a051610140516101c051808210612b2557808203905090506040518111612b255780820280607f1d8160801d1415612b25578090509050905080820380607f1d8160801d1415612b25578090509050905081525060006101805112156110c5576000610180525b6101805160008112612b255760005260206000f35b005b634ee2cd7e8114156111225760043560a01c612b25576004356101405260243561016052610160516101405160065801612567565b6101c0526101c05160005260206000f35b633a46b1a88114156111685760043560a01c612b25576004356101405260243561016052610160516101405160065801612567565b6101c0526101c05160005260206000f35b6318160ddd81141561117e57426101405261119f565b63bd85b03981141561119a57602060046101403760005061119f565b61127c565b600854610160526101806004610160516c01431e0fae6d7217caa0000000811015612b2557026009018054825260018101548260200152600281015482604001526003810154826060015250506101405161016051610180516101a0516101c0516101e0516102006101808051825280602001518260200152806040015182604001528060600151826060015250506101405161028052610280516102605161024051610220516102005160065801612971565b6102e0526101e0526101c0526101a0526101805261016052610140526102e05160005260206000f35b63981b24d081141561151f574360043511612b255760085461014052610140516101605160043561018052610140516101a0526101a0516101805160065801612483565b61020052610160526101405261020051610160526101806004610160516c01431e0fae6d7217caa0000000811015612b255702600901805482526001810154826020015260028101548260400152600381015482606001525050600061020052610140516101605110156114035761022060046101605160018181830110612b2557808201905090506c01431e0fae6d7217caa0000000811015612b255702600901805482526001810154826020015260028101548260400152600381015482606001525050610280516101e05118156113fe576004356101e051808210612b255780820390509050610260516101c051808210612b255780820390509050808202821582848304141715612b255780905090509050610280516101e051808210612b255780820390509050808015612b2557820490509050610200525b611473565b436101e0511815611472576004356101e051808210612b255780820390509050426101c051808210612b255780820390509050808202821582848304141715612b255780905090509050436101e051808210612b255780820390509050808015612b2557820490509050610200525b5b6101405161016051610180516101a0516101c0516101e051610200516102206101808051825280602001518260200152806040015182604001528060600151826060015250506101c051610200518181830110612b2557808201905090506102a0526102a0516102805161026051610240516102205160065801612971565b61030052610200526101e0526101c0526101a0526101805261016052610140526103005160005260206000f35b63fc0c546a8114156115375760055460005260206000f35b63047fc9aa81141561154f5760065460005260206000f35b63cbf9fe5f8114156115a35760043560a01c612b2557600760043560e05260c052604060c020610140808080845481525050602081019050808060018501548152505060409050905060c05260c051610140f35b63900cf0cf8114156115bb5760085460005260206000f35b63d1febfb98114156116355760046004356c01431e0fae6d7217caa0000000811015612b25570260090161014080808084548152505060208101905080806001850154815250506020810190508080600285015481525050602081019050808060038501548152505060809050905060c05260c051610140f35b6328d09d478114156116ca5760043560a01c612b25576004602435633b9aca00811015612b2557026c050c783eb9b5c840000000000960043560e05260c052604060c0200161014080808084548152505060208101905080806001850154815250506020810190508080600285015481525050602081019050808060038501548152505060809050905060c05260c051610140f35b63010ae7578114156117065760043560a01c612b25576c050c783eb9b5c840000000000a60043560e05260c052604060c0205460005260206000f35b6371197484811415611738576c050c783eb9b5c840000000000b60043560e05260c052604060c0205460005260206000f35b6306fdde038114156117e1576c050c783eb9b5c840000000000c80610180602082540161012060006003818352015b8261012051602002111561177a5761179c565b61012051850154610120516020028501525b8151600101808352811415611767575b50505050505061018051806101a001818260206001820306601f82010390500336823750506020610160526040610180510160206001820306601f8201039050610160f35b6395d89b4181141561188a576c050c783eb9b5c840000000001080610180602082540161012060006002818352015b8261012051602002111561182357611845565b61012051850154610120516020028501525b8151600101808352811415611810575b50505050505061018051806101a001818260206001820306601f82010390500336823750506020610160526040610180510160206001820306601f8201039050610160f35b63313ce5678114156118ae576c050c783eb9b5c84000000000135460005260206000f35b638ff36fd18114156118d2576c050c783eb9b5c84000000000145460005260206000f35b637175d4f78114156118f6576c050c783eb9b5c84000000000155460005260206000f35b63f851a44081141561191a576c050c783eb9b5c84000000000165460005260206000f35b6317f7182a81141561193e576c050c783eb9b5c84000000000175460005260206000f35b63158ef93e811415611962576c050c783eb9b5c84000000000185460005260206000f35b505b60006000fd5b610160526101405232610140511815611a4a576c050c783eb9b5c8400000000015546101805260006101805118156119e0576020610220602463c23697a86101a052610140516101c0526101bc6000610180515af115612b2557601f3d1115612b255760005061022051156119df5761016051565b5b6308c379a06101a05260206101c05260256101e0527f536d61727420636f6e7472616374206465706f7369746f7273206e6f7420616c610200527f6c6f776564000000000000000000000000000000000000000000000000000000610220526101e05060846101bcfd5b61016051565b6101e0526101405261016052610180526101a0526101c0526101403661020037600854610340526000610140511815611bf35742610180511115611a9a5760006101605113611a9d565b60005b15611b045761016051630784ce0080820580607f1d8160801d1415612b25578090509050905061022052610220516101805142808210612b2557808203905090506040518111612b255780820280607f1d8160801d1415612b255780905090509050610200525b426101c0511115611b1b5760006101a05113611b1e565b60005b15611b85576101a051630784ce0080820580607f1d8160801d1415612b2557809050905090506102a0526102a0516101c05142808210612b2557808203905090506040518111612b255780820280607f1d8160801d1415612b255780905090509050610280525b6c050c783eb9b5c840000000000b6101805160e05260c052604060c020546103005260006101c0511815611bf257610180516101c0511415611bce576103005161032052611bf1565b6c050c783eb9b5c840000000000b6101c05160e05260c052604060c02054610320525b5b5b6103606000815260008160200152428160400152438160600152506000610340511115611c61576103606004610340516c01431e0fae6d7217caa0000000811015612b2557026009018054825260018101548260200152600281015482604001526003810154826060015250505b6103a0516103e0526104006103608051825280602001518260200152806040015182604001528060600151826060015250506000610480526103a051421115611cfc57670de0b6b3a7640000436103c051808210612b255780820390509050808202821582848304141715612b255780905090509050426103a051808210612b255780820390509050808015612b2557820490509050610480525b6103e05162093a808082049050905062093a80808202821582848304141715612b2557809050905090506104a0526104c0600060ff818352015b6104a0805162093a808181830110612b25578082019050905081525060006104e052426104a0511115611d6d57426104a052611d90565b6c050c783eb9b5c840000000000b6104a05160e05260c052604060c020546104e0525b6103608051610380516104a0516103e051808210612b2557808203905090506040518111612b255780820280607f1d8160801d1415612b25578090509050905080820380607f1d8160801d1415612b25578090509050905081525061038080516104e05180820180607f1d8160801d1415612b2557809050905090508152506000610360511215611e22576000610360525b6000610380511215611e35576000610380525b6104a0516103e0526104a0516103a05261046051610480516104a05161044051808210612b255780820390509050808202821582848304141715612b255780905090509050670de0b6b3a7640000808204905090508181830110612b2557808201905090506103c052610340805160018181830110612b255780820190509050815250426104a0511415611ed157436103c052611f2956611f18565b6004610340516c01431e0fae6d7217caa0000000811015612b2557026009016103608051825580602001516001830155806040015160028301558060600151600383015550505b5b8151600101808352811415611d36575b5050610340516008556000610140511815611fe55761038080516102a0516102205180820380607f1d8160801d1415612b25578090509050905080820180607f1d8160801d1415612b2557809050905090508152506103608051610280516102005180820380607f1d8160801d1415612b25578090509050905080820180607f1d8160801d1415612b2557809050905090508152506000610380511215611fd1576000610380525b6000610360511215611fe4576000610360525b5b6004610340516c01431e0fae6d7217caa0000000811015612b25570260090161036080518255806020015160018301558060400151600283015580606001516003830155505060006101405118156121d657426101805111156120bc5761030080516102205180820180607f1d8160801d1415612b255780905090509050815250610180516101c05114156120995761030080516102a05180820380607f1d8160801d1415612b2557809050905090508152505b610300516c050c783eb9b5c840000000000b6101805160e05260c052604060c020555b426101c051111561211d57610180516101c051111561211c5761032080516102a05180820380607f1d8160801d1415612b255780905090509050815250610320516c050c783eb9b5c840000000000b6101c05160e05260c052604060c020555b5b6c050c783eb9b5c840000000000a6101405160e05260c052604060c0205460018181830110612b2557808201905090506104c0526104c0516c050c783eb9b5c840000000000a6101405160e05260c052604060c02055426102c052436102e05260046104c051633b9aca00811015612b2557026c050c783eb9b5c84000000000096101405160e05260c052604060c020016102808051825580602001516001830155806040015160028301558060600151600383015550505b6101e051565b610220526101405261016052610180526101a0526101c0526101e052610200526102406101a0805182528060200151826020015250506006546102805261028051610160518181830110612b2557808201905090506006556102a0610240805182528060200151826020015250506102408051610160516040518111612b255780820180607f1d8160801d1415612b255780905090509050815250600061018051181561228c5761018051610260525b60076101405160e05260c052604060c020610240805182558060200151600183015550506101405161016051610180516101a0516101c0516101e05161020051610220516102405161026051610280516102a0516102c051610140516102e0526103006102a08051825280602001518260200152505061034061024080518252806020015182602001525050610360516103405161032051610300516102e05160065801611a50565b6102c0526102a05261028052610260526102405261022052610200526101e0526101c0526101a05261018052610160526101405260005060006101605118156123c25760206103a060646323b872dd6102e0526102005161030052306103205261016051610340526102fc60006005545af115612b2557601f3d1115612b25576000506103a05115612b25575b61026051610140517f4566dfc29f6f11d13a418c26a02bef7c28bae749d4de47e4e6a7cddea6730d596102e0808080610160518152505060208101905080806101e05181525050602081019050808042815250506060905090506102e0a37f5e2aa66efd74cce82b21852e317e5490d9ecc9e6bb953ae24d90851258cc2f5c6102e08080806102805181525050602081019050808061028051610160518181830110612b255780820190509050815250506040905090506102e0a161022051565b61018052610140526101605260006101a052610160516101c0526101e060006080818352015b6101c0516101a051106124bb57612555565b6101a0516101c0518181830110612b25578082019050905060018181830110612b255780820190509050600280820490509050610200526101405160036004610200516c01431e0fae6d7217caa0000000811015612b25570260090101541161252b57610200516101a052612544565b610200516001808210612b2557808203905090506101c0525b5b81516001018083528114156124a9575b50506101a05160005260005161018051565b610180526101405261016052436101605111612b255760006101a0526c050c783eb9b5c840000000000a6101405160e05260c052604060c020546101c0526101e060006080818352015b6101c0516101a051106125c35761266f565b6101a0516101c0518181830110612b25578082019050905060018181830110612b25578082019050905060028082049050905061020052610160516003600461020051633b9aca00811015612b2557026c050c783eb9b5c84000000000096101405160e05260c052604060c0200101541161264557610200516101a05261265e565b610200516001808210612b2557808203905090506101c0525b5b81516001018083528114156125b1575b50506101e060046101a051633b9aca00811015612b2557026c050c783eb9b5c84000000000096101405160e05260c052604060c02001805482526001810154826020015260028101548260400152600381015482606001525050600854610260526101405161016051610180516101a0516101c0516101e0516102005161022051610240516102605161028051610160516102a052610260516102c0526102c0516102a05160065801612483565b6103205261028052610260526102405261022052610200526101e0526101c0526101a05261018052610160526101405261032051610280526102a06004610280516c01431e0fae6d7217caa0000000811015612b25570260090180548252600181015482602001526002810154826040015260038101548260600152505060403661032037610260516102805110156128415761036060046102805160018181830110612b2557808201905090506c01431e0fae6d7217caa0000000811015612b2557026009018054825260018101548260200152600281015482604001526003810154826060015250506103c05161030051808210612b255780820390509050610320526103a0516102e051808210612b25578082039050905061034052612870565b4361030051808210612b25578082039050905061032052426102e051808210612b255780820390509050610340525b6102e0516103605260006103205118156128df576103608051610340516101605161030051808210612b255780820390509050808202821582848304141715612b25578090509050905061032051808015612b25578204905090508181830110612b2557808201905090508152505b6101e08051610200516103605161022051808210612b2557808203905090506040518111612b255780820280607f1d8160801d1415612b25578090509050905080820380607f1d8160801d1415612b25578090509050905081525060006101e05112612961576101e05160008112612b2557600052600051610180515661296f565b600060005260005161018051565b005b6101e0526101405261016052610180526101a0526101c0526102006101408051825280602001518260200152806040015182604001528060600151826060015250506102405162093a808082049050905062093a80808202821582848304141715612b255780905090509050610280526102a0600060ff818352015b610280805162093a808181830110612b25578082019050905081525060006102c0526101c051610280511115612a2a576101c05161028052612a4d565b6c050c783eb9b5c840000000000b6102805160e05260c052604060c020546102c0525b6102008051610220516102805161024051808210612b2557808203905090506040518111612b255780820280607f1d8160801d1415612b25578090509050905080820380607f1d8160801d1415612b2557809050905090508152506101c051610280511415612abb57612af8565b61022080516102c05180820180607f1d8160801d1415612b25578090509050905081525061028051610240525b81516001018083528114156129ed575b50506000610200511215612b0d576000610200525b6102005160008112612b25576000526000516101e051565b600080fd5b61003c612b660361003c60003961003c612b66036000f35b600080fd"
}