{
  "address": "0x52701bFA0599db6db2b2476075D9a2f4Cb77DAe3",
  "abi": [
    {
      "name": "CommitAdmin",
      "inputs": [
        {
          "name": "admin",
          "type": "address",
          "indexed": false
        }
      ],
      "anonymous": false,
      "type": "event"
    },
    {
      "name": "ApplyAdmin",
      "inputs": [
        {
          "name": "admin",
          "type": "address",
          "indexed": false
        }
      ],
      "anonymous": false,
      "type": "event"
    },
    {
      "name": "DelegationSet",
      "inputs": [
        {
          "name": "delegation",
          "type": "address",
          "indexed": false
        }
      ],
      "anonymous": false,
      "type": "event"
    },
    {
      "stateMutability": "nonpayable",
      "type": "constructor",
      "inputs": [
        {
          "name": "_voting_escrow",
          "type": "address"
        },
        {
          "name": "_delegation",
          "type": "address"
        },
        {
          "name": "_admin",
          "type": "address"
        }
      ],
      "outputs": []
    },
    {
      "stateMutability": "view",
      "type": "function",
      "name": "adjusted_balance_of",
      "inputs": [
        {
          "name": "_account",
          "type": "address"
        }
      ],
      "outputs": [
        {
          "name": "",
          "type": "uint256"
        }
      ]
    },
    {
      "stateMutability": "nonpayable",
      "type": "function",
      "name": "kill_delegation",
      "inputs": [],
      "outputs": []
    },
    {
      "stateMutability": "nonpayable",
      "type": "function",
      "name": "set_delegation",
      "inputs": [
        {
          "name": "_delegation",
          "type": "address"
        }
      ],
      "outputs": []
    },
    {
      "stateMutability": "nonpayable",
      "type": "function",
      "name": "commit_admin",
      "inputs": [
        {
          "name": "_admin",
          "type": "address"
        }
      ],
      "outputs": []
    },
    {
      "stateMutability": "nonpayable",
      "type": "function",
      "name": "accept_transfer_ownership",
      "inputs": [],
      "outputs": []
    },
    {
      "stateMutability": "view",
      "type": "function",
      "name": "voting_escrow",
      "inputs": [],
      "outputs": [
        {
          "name": "",
          "type": "address"
        }
      ]
    },
    {
      "stateMutability": "view",
      "type": "function",
      "name": "delegation",
      "inputs": [],
      "outputs": [
        {
          "name": "",
          "type": "address"
        }
      ]
    },
    {
      "stateMutability": "view",
      "type": "function",
      "name": "admin",
      "inputs": [],
      "outputs": [
        {
          "name": "",
          "type": "address"
        }
      ]
    },
    {
      "stateMutability": "view",
      "type": "function",
      "name": "future_admin",
      "inputs": [],
      "outputs": [
        {
          "name": "",
          "type": "address"
        }
      ]
    }
  ],
  "transactionHash": "0x2e66b7e2c5850e2ed4e5727dc5fd574c5e6ad3110e32588fda92b74d6efc2092",
  "args": [
    "0x0C462Dbb9EC8cD1630f1728B2CFD2769d09f0dd5",
    "0x0000000000000000000000000000000000000000",
    "0xdC4e6DFe07EFCa50a197DF15D9200883eF4Eb1c8"
  ],
  "bytecode": "0x60606103de6101403960206103de60c03960c05160a01c6103d957602060206103de0160c03960c05160a01c6103d957602060406103de0160c03960c05160a01c6103d95760006101405118156103d95760006101805118156103d9576101405160005561016051600155610180516002557f963001cf3a0c5cdcfc26b2710abe2fe859b3565482158b7cb34f59b6eaff52126101a080808061016051815250506020905090506101a0a16103c156600436101561000d57610307565b600035601c526000513461030d5763bbf7408a8114156100bb5760043560a01c61030d57600154610140526101405161007d5760206101e060246370a08231610160526004356101805261017c6000545afa1561030d57601f3d111561030d576000506101e05160005260206000f35b60206101e0602463bbf7408a610160526004356101805261017c610140515afa1561030d57601f3d111561030d576000506101e05160005260206000f35b634b74efb781141561010f5760025433141561030d5760006001557f963001cf3a0c5cdcfc26b2710abe2fe859b3565482158b7cb34f59b6eaff5212610140808080600081525050602090509050610140a1005b63f4b446a38114156101a15760043560a01c61030d5760025433141561030d5760206101c0602463bbf7408a61014052336101605261015c6004355afa1561030d57601f3d111561030d576000506101c0506004356001557f963001cf3a0c5cdcfc26b2710abe2fe859b3565482158b7cb34f59b6eaff521261014080808060043581525050602090509050610140a1005b63b1d3db758114156102455760043560a01c61030d576002543314610205576308c379a061014052602061016052600d610180527f4163636573732064656e696564000000000000000000000000000000000000006101a05261018050606461015cfd5b6004356003557f59a407284ae6e2986675fa1400d6498af928ed01f4fd2dd6be4a2a8b4fc35b3461014080808060043581525050602090509050610140a1005b63e5ea47b88114156102a557600354610140526101405133141561030d57610140516002557f756f845176805c8ebf249854e909627308157f63c96e470e44a9e8549ba6fb1e6101608080806101405181525050602090509050610160a1005b63dfe050318114156102bd5760005460005260206000f35b63df5cf7238114156102d55760015460005260206000f35b63f851a4408114156102ed5760025460005260206000f35b6317f7182a8114156103055760035460005260206000f35b505b60006000fd5b600080fd5b6100af6103c1036100af6000396100af6103c1036000f35b600080fd"
}