{
  "_format": "hh-sol-artifact-1",
  "contractName": "MockCompound",
  "sourceName": "contracts/mock/MockCompound.sol",
  "abi": [
    {
      "inputs": [
        {
          "internalType": "string",
          "name": "name_",
          "type": "string"
        },
        {
          "internalType": "string",
          "name": "symbol_",
          "type": "string"
        },
        {
          "internalType": "address",
          "name": "token_",
          "type": "address"
        }
      ],
      "stateMutability": "nonpayable",
      "type": "constructor"
    },
    {
      "anonymous": false,
      "inputs": [
        {
          "indexed": true,
          "internalType": "address",
          "name": "owner",
          "type": "address"
        },
        {
          "indexed": true,
          "internalType": "address",
          "name": "spender",
          "type": "address"
        },
        {
          "indexed": false,
          "internalType": "uint256",
          "name": "value",
          "type": "uint256"
        }
      ],
      "name": "Approval",
      "type": "event"
    },
    {
      "anonymous": false,
      "inputs": [
        {
          "indexed": true,
          "internalType": "address",
          "name": "_from",
          "type": "address"
        },
        {
          "indexed": true,
          "internalType": "address",
          "name": "_burner",
          "type": "address"
        },
        {
          "indexed": false,
          "internalType": "uint256",
          "name": "_amount",
          "type": "uint256"
        }
      ],
      "name": "Burning",
      "type": "event"
    },
    {
      "anonymous": false,
      "inputs": [
        {
          "indexed": true,
          "internalType": "address",
          "name": "_to",
          "type": "address"
        },
        {
          "indexed": true,
          "internalType": "address",
          "name": "_minter",
          "type": "address"
        },
        {
          "indexed": false,
          "internalType": "uint256",
          "name": "_amount",
          "type": "uint256"
        }
      ],
      "name": "Minting",
      "type": "event"
    },
    {
      "anonymous": false,
      "inputs": [
        {
          "indexed": true,
          "internalType": "address",
          "name": "from",
          "type": "address"
        },
        {
          "indexed": true,
          "internalType": "address",
          "name": "to",
          "type": "address"
        },
        {
          "indexed": false,
          "internalType": "uint256",
          "name": "value",
          "type": "uint256"
        }
      ],
      "name": "Transfer",
      "type": "event"
    },
    {
      "inputs": [],
      "name": "BLOCKS_PER_YEAR",
      "outputs": [
        {
          "internalType": "uint256",
          "name": "",
          "type": "uint256"
        }
      ],
      "stateMutability": "view",
      "type": "function"
    },
    {
      "inputs": [
        {
          "internalType": "address",
          "name": "owner",
          "type": "address"
        },
        {
          "internalType": "address",
          "name": "spender",
          "type": "address"
        }
      ],
      "name": "allowance",
      "outputs": [
        {
          "internalType": "uint256",
          "name": "",
          "type": "uint256"
        }
      ],
      "stateMutability": "view",
      "type": "function"
    },
    {
      "inputs": [
        {
          "internalType": "address",
          "name": "spender",
          "type": "address"
        },
        {
          "internalType": "uint256",
          "name": "amount",
          "type": "uint256"
        }
      ],
      "name": "approve",
      "outputs": [
        {
          "internalType": "bool",
          "name": "",
          "type": "bool"
        }
      ],
      "stateMutability": "nonpayable",
      "type": "function"
    },
    {
      "inputs": [
        {
          "internalType": "address",
          "name": "account",
          "type": "address"
        }
      ],
      "name": "balanceOf",
      "outputs": [
        {
          "internalType": "uint256",
          "name": "",
          "type": "uint256"
        }
      ],
      "stateMutability": "view",
      "type": "function"
    },
    {
      "inputs": [
        {
          "internalType": "address",
          "name": "owner",
          "type": "address"
        }
      ],
      "name": "balanceOfUnderlying",
      "outputs": [
        {
          "internalType": "uint256",
          "name": "",
          "type": "uint256"
        }
      ],
      "stateMutability": "view",
      "type": "function"
    },
    {
      "inputs": [
        {
          "internalType": "address",
          "name": "account",
          "type": "address"
        },
        {
          "internalType": "uint256",
          "name": "amount",
          "type": "uint256"
        }
      ],
      "name": "burn",
      "outputs": [],
      "stateMutability": "nonpayable",
      "type": "function"
    },
    {
      "inputs": [],
      "name": "decimals",
      "outputs": [
        {
          "internalType": "uint8",
          "name": "",
          "type": "uint8"
        }
      ],
      "stateMutability": "view",
      "type": "function"
    },
    {
      "inputs": [
        {
          "internalType": "address",
          "name": "spender",
          "type": "address"
        },
        {
          "internalType": "uint256",
          "name": "subtractedValue",
          "type": "uint256"
        }
      ],
      "name": "decreaseAllowance",
      "outputs": [
        {
          "internalType": "bool",
          "name": "",
          "type": "bool"
        }
      ],
      "stateMutability": "nonpayable",
      "type": "function"
    },
    {
      "inputs": [],
      "name": "exchangeRate",
      "outputs": [
        {
          "internalType": "uint256",
          "name": "",
          "type": "uint256"
        }
      ],
      "stateMutability": "view",
      "type": "function"
    },
    {
      "inputs": [],
      "name": "exchangeRateCurrent",
      "outputs": [
        {
          "internalType": "uint256",
          "name": "",
          "type": "uint256"
        }
      ],
      "stateMutability": "nonpayable",
      "type": "function"
    },
    {
      "inputs": [],
      "name": "exchangeRateStored",
      "outputs": [
        {
          "internalType": "uint256",
          "name": "",
          "type": "uint256"
        }
      ],
      "stateMutability": "view",
      "type": "function"
    },
    {
      "inputs": [
        {
          "internalType": "uint256",
          "name": "",
          "type": "uint256"
        },
        {
          "internalType": "uint256",
          "name": "",
          "type": "uint256"
        },
        {
          "internalType": "uint256",
          "name": "",
          "type": "uint256"
        },
        {
          "internalType": "uint256",
          "name": "",
          "type": "uint256"
        }
      ],
      "name": "getSupplyRate",
      "outputs": [
        {
          "internalType": "uint256",
          "name": "",
          "type": "uint256"
        }
      ],
      "stateMutability": "view",
      "type": "function"
    },
    {
      "inputs": [
        {
          "internalType": "address",
          "name": "spender",
          "type": "address"
        },
        {
          "internalType": "uint256",
          "name": "addedValue",
          "type": "uint256"
        }
      ],
      "name": "increaseAllowance",
      "outputs": [
        {
          "internalType": "bool",
          "name": "",
          "type": "bool"
        }
      ],
      "stateMutability": "nonpayable",
      "type": "function"
    },
    {
      "inputs": [],
      "name": "interestRateModel",
      "outputs": [
        {
          "internalType": "contract InterestRateModel",
          "name": "",
          "type": "address"
        }
      ],
      "stateMutability": "view",
      "type": "function"
    },
    {
      "inputs": [
        {
          "internalType": "address",
          "name": "account",
          "type": "address"
        },
        {
          "internalType": "uint256",
          "name": "amount",
          "type": "uint256"
        }
      ],
      "name": "mint",
      "outputs": [],
      "stateMutability": "nonpayable",
      "type": "function"
    },
    {
      "inputs": [
        {
          "internalType": "uint256",
          "name": "amount",
          "type": "uint256"
        }
      ],
      "name": "mint",
      "outputs": [
        {
          "internalType": "uint256",
          "name": "",
          "type": "uint256"
        }
      ],
      "stateMutability": "nonpayable",
      "type": "function"
    },
    {
      "inputs": [],
      "name": "name",
      "outputs": [
        {
          "internalType": "string",
          "name": "",
          "type": "string"
        }
      ],
      "stateMutability": "view",
      "type": "function"
    },
    {
      "inputs": [
        {
          "internalType": "uint256",
          "name": "amount",
          "type": "uint256"
        }
      ],
      "name": "redeem",
      "outputs": [
        {
          "internalType": "uint256",
          "name": "",
          "type": "uint256"
        }
      ],
      "stateMutability": "nonpayable",
      "type": "function"
    },
    {
      "inputs": [
        {
          "internalType": "uint256",
          "name": "amount",
          "type": "uint256"
        }
      ],
      "name": "redeemUnderlying",
      "outputs": [
        {
          "internalType": "uint256",
          "name": "",
          "type": "uint256"
        }
      ],
      "stateMutability": "nonpayable",
      "type": "function"
    },
    {
      "inputs": [],
      "name": "reserveFactorMantissa",
      "outputs": [
        {
          "internalType": "uint256",
          "name": "",
          "type": "uint256"
        }
      ],
      "stateMutability": "view",
      "type": "function"
    },
    {
      "inputs": [],
      "name": "supplyRate",
      "outputs": [
        {
          "internalType": "uint256",
          "name": "",
          "type": "uint256"
        }
      ],
      "stateMutability": "view",
      "type": "function"
    },
    {
      "inputs": [],
      "name": "supplyRatePerBlock",
      "outputs": [
        {
          "internalType": "uint256",
          "name": "",
          "type": "uint256"
        }
      ],
      "stateMutability": "view",
      "type": "function"
    },
    {
      "inputs": [],
      "name": "symbol",
      "outputs": [
        {
          "internalType": "string",
          "name": "",
          "type": "string"
        }
      ],
      "stateMutability": "view",
      "type": "function"
    },
    {
      "inputs": [],
      "name": "token",
      "outputs": [
        {
          "internalType": "contract IERC20",
          "name": "",
          "type": "address"
        }
      ],
      "stateMutability": "view",
      "type": "function"
    },
    {
      "inputs": [],
      "name": "totalBorrows",
      "outputs": [
        {
          "internalType": "uint256",
          "name": "",
          "type": "uint256"
        }
      ],
      "stateMutability": "view",
      "type": "function"
    },
    {
      "inputs": [],
      "name": "totalReserves",
      "outputs": [
        {
          "internalType": "uint256",
          "name": "",
          "type": "uint256"
        }
      ],
      "stateMutability": "view",
      "type": "function"
    },
    {
      "inputs": [],
      "name": "totalSupply",
      "outputs": [
        {
          "internalType": "uint256",
          "name": "",
          "type": "uint256"
        }
      ],
      "stateMutability": "view",
      "type": "function"
    },
    {
      "inputs": [
        {
          "internalType": "address",
          "name": "recipient",
          "type": "address"
        },
        {
          "internalType": "uint256",
          "name": "amount",
          "type": "uint256"
        }
      ],
      "name": "transfer",
      "outputs": [
        {
          "internalType": "bool",
          "name": "",
          "type": "bool"
        }
      ],
      "stateMutability": "nonpayable",
      "type": "function"
    },
    {
      "inputs": [
        {
          "internalType": "address",
          "name": "sender",
          "type": "address"
        },
        {
          "internalType": "address",
          "name": "recipient",
          "type": "address"
        },
        {
          "internalType": "uint256",
          "name": "amount",
          "type": "uint256"
        }
      ],
      "name": "transferFrom",
      "outputs": [
        {
          "internalType": "bool",
          "name": "",
          "type": "bool"
        }
      ],
      "stateMutability": "nonpayable",
      "type": "function"
    },
    {
      "inputs": [],
      "name": "underlying",
      "outputs": [
        {
          "internalType": "address",
          "name": "",
          "type": "address"
        }
      ],
      "stateMutability": "view",
      "type": "function"
    },
    {
      "inputs": [
        {
          "internalType": "uint256",
          "name": "newExchangeRate",
          "type": "uint256"
        }
      ],
      "name": "updateExchangeRate",
      "outputs": [],
      "stateMutability": "nonpayable",
      "type": "function"
    },
    {
      "inputs": [
        {
          "internalType": "uint256",
          "name": "newSupplyRate",
          "type": "uint256"
        }
      ],
      "name": "updateSupplyRate",
      "outputs": [],
      "stateMutability": "nonpayable",
      "type": "function"
    }
  ],
  "bytecode": "0x6080604052670de0b6b3a7640000600655668e1bc9bf0400006007553480156200002857600080fd5b5060405162001d0738038062001d078339810160408190526200004b9162000278565b825183908390620000649060039060208501906200011b565b5080516200007a9060049060208401906200011b565b5050600580546001600160a01b0319166001600160a01b03841690811790915590506340c10f1930620000b26103e860001962000305565b6040516001600160e01b031960e085901b1681526001600160a01b0390921660048301526024820152604401600060405180830381600087803b158015620000f957600080fd5b505af11580156200010e573d6000803e3d6000fd5b505050505050506200037b565b828054620001299062000328565b90600052602060002090601f0160209004810192826200014d576000855562000198565b82601f106200016857805160ff191683800117855562000198565b8280016001018555821562000198579182015b82811115620001985782518255916020019190600101906200017b565b50620001a6929150620001aa565b5090565b5b80821115620001a65760008155600101620001ab565b600082601f830112620001d357600080fd5b81516001600160401b0380821115620001f057620001f062000365565b604051601f8301601f19908116603f011681019082821181831017156200021b576200021b62000365565b816040528381526020925086838588010111156200023857600080fd5b600091505b838210156200025c57858201830151818301840152908201906200023d565b838211156200026e5760008385830101525b9695505050505050565b6000806000606084860312156200028e57600080fd5b83516001600160401b0380821115620002a657600080fd5b620002b487838801620001c1565b94506020860151915080821115620002cb57600080fd5b50620002da86828701620001c1565b604086015190935090506001600160a01b0381168114620002fa57600080fd5b809150509250925092565b6000826200032357634e487b7160e01b600052601260045260246000fd5b500490565b600181811c908216806200033d57607f821691505b602082108114156200035f57634e487b7160e01b600052602260045260246000fd5b50919050565b634e487b7160e01b600052604160045260246000fd5b61197c806200038b6000396000f3fe608060405234801561001057600080fd5b50600436106101f05760003560e01c80638f840ddd1161010f578063b8168816116100a2578063db006a7511610071578063db006a75146103f5578063dd62ed3e14610408578063f3fdb15a1461044e578063fc0c546a1461045457600080fd5b8063b8168816146103c5578063b9e205ae146103d8578063bd6d894d14610264578063d37db1d2146103eb57600080fd5b8063a457c2d7116100de578063a457c2d71461038e578063a9059cbb146103a1578063ad2961a3146103b4578063ae9d70b0146103bd57600080fd5b80638f840ddd1461035857806395d89b41146103605780639dc29fac14610368578063a0712d681461037b57600080fd5b8063395093511161018757806347bd37181161015657806347bd37181461024b5780636f307dc3146102d057806370a082311461030f578063852a12e31461034557600080fd5b8063395093511461028e5780633af9e669146102a15780633ba0b9a9146102b457806340c10f19146102bd57600080fd5b806318160ddd116101c357806318160ddd1461025c578063182df0f51461026457806323b872dd1461026c578063313ce5671461027f57600080fd5b806306fdde03146101f5578063095ea7b3146102135780630c19176314610236578063173b99041461024b575b600080fd5b6101fd610474565b60405161020a919061179f565b60405180910390f35b6102266102213660046116d3565b610506565b604051901515815260200161020a565b61024961024436600461171f565b600755565b005b60005b60405190815260200161020a565b60025461024e565b60065461024e565b61022661027a366004611697565b61051c565b6040516012815260200161020a565b61022661029c3660046116d3565b610609565b61024e6102af366004611649565b610652565b61024e60065481565b6102496102cb3660046116d3565b610719565b60055473ffffffffffffffffffffffffffffffffffffffff165b60405173ffffffffffffffffffffffffffffffffffffffff909116815260200161020a565b61024e61031d366004611649565b73ffffffffffffffffffffffffffffffffffffffff1660009081526020819052604090205490565b61024e61035336600461171f565b610775565b61024e610806565b6101fd610816565b6102496103763660046116d3565b610825565b61024e61038936600461171f565b610879565b61022661039c3660046116d3565b61091b565b6102266103af3660046116d3565b6109f3565b61024e60075481565b61024e610a00565b61024e6103d3366004611751565b610a13565b6102496103e636600461171f565b600655565b61024e6223186081565b61024e61040336600461171f565b610a2f565b61024e610416366004611664565b73ffffffffffffffffffffffffffffffffffffffff918216600090815260016020908152604080832093909416825291909152205490565b306102ea565b6005546102ea9073ffffffffffffffffffffffffffffffffffffffff1681565b606060038054610483906118c3565b80601f01602080910402602001604051908101604052809291908181526020018280546104af906118c3565b80156104fc5780601f106104d1576101008083540402835291602001916104fc565b820191906000526020600020905b8154815290600101906020018083116104df57829003601f168201915b5050505050905090565b6000610513338484610a85565b50600192915050565b6000610529848484610c38565b73ffffffffffffffffffffffffffffffffffffffff84166000908152600160209081526040808320338452909152902054828110156105ef576040517f08c379a000000000000000000000000000000000000000000000000000000000815260206004820152602860248201527f45524332303a207472616e7366657220616d6f756e742065786365656473206160448201527f6c6c6f77616e636500000000000000000000000000000000000000000000000060648201526084015b60405180910390fd5b6105fc8533858403610a85565b60019150505b9392505050565b33600081815260016020908152604080832073ffffffffffffffffffffffffffffffffffffffff87168452909152812054909161051391859061064d9086906117f0565b610a85565b6006546040517f70a0823100000000000000000000000000000000000000000000000000000000815273ffffffffffffffffffffffffffffffffffffffff83166004820152600091670de0b6b3a76400009130906370a082319060240160206040518083038186803b1580156106c757600080fd5b505afa1580156106db573d6000803e3d6000fd5b505050506040513d601f19601f820116820180604052508101906106ff9190611738565b6107099190611843565b6107139190611808565b92915050565b6107238282610eed565b604051818152339073ffffffffffffffffffffffffffffffffffffffff8416907fb1233017d63154bc561d57c16f7b6a55e2e1acd7fcac94045a9f35fb31a850ca906020015b60405180910390a35050565b60008161078457506001919050565b60065460009061079c84670de0b6b3a7640000611843565b6107a69190611808565b90506107b23382610825565b6000670de0b6b3a7640000600654836107cb9190611843565b6107d59190611808565b6005549091506107fc9073ffffffffffffffffffffffffffffffffffffffff163383611006565b5060009392505050565b600061081160025490565b905090565b606060048054610483906118c3565b61082f82826110df565b604051818152339073ffffffffffffffffffffffffffffffffffffffff8416907f227fb4b3aae8331f21af5167739c291fefe3afd3c2e08cea44f499e564f486ef90602001610769565b60008161088857506001919050565b6005546108ad9073ffffffffffffffffffffffffffffffffffffffff163330856112cc565b6006546000906108c584670de0b6b3a7640000611843565b6108cf9190611808565b90506108db3382610eed565b604051818152339081907fb1233017d63154bc561d57c16f7b6a55e2e1acd7fcac94045a9f35fb31a850ca9060200160405180910390a350600092915050565b33600090815260016020908152604080832073ffffffffffffffffffffffffffffffffffffffff86168452909152812054828110156109dc576040517f08c379a000000000000000000000000000000000000000000000000000000000815260206004820152602560248201527f45524332303a2064656372656173656420616c6c6f77616e63652062656c6f7760448201527f207a65726f00000000000000000000000000000000000000000000000000000060648201526084016105e6565b6109e93385858403610a85565b5060019392505050565b6000610513338484610c38565b6000622318606007546108119190611808565b600062231860600754610a269190611808565b95945050505050565b6000610a3b3383610825565b6000670de0b6b3a764000060065484610a549190611843565b610a5e9190611808565b6005549091506107139073ffffffffffffffffffffffffffffffffffffffff163383611006565b73ffffffffffffffffffffffffffffffffffffffff8316610b27576040517f08c379a0000000000000000000000000000000000000000000000000000000008152602060048201526024808201527f45524332303a20617070726f76652066726f6d20746865207a65726f2061646460448201527f726573730000000000000000000000000000000000000000000000000000000060648201526084016105e6565b73ffffffffffffffffffffffffffffffffffffffff8216610bca576040517f08c379a000000000000000000000000000000000000000000000000000000000815260206004820152602260248201527f45524332303a20617070726f766520746f20746865207a65726f20616464726560448201527f737300000000000000000000000000000000000000000000000000000000000060648201526084016105e6565b73ffffffffffffffffffffffffffffffffffffffff83811660008181526001602090815260408083209487168084529482529182902085905590518481527f8c5be1e5ebec7d5bd14f71427d1e84f3dd0314c0f7b2291e5b200ac8c7c3b925910160405180910390a3505050565b73ffffffffffffffffffffffffffffffffffffffff8316610cdb576040517f08c379a000000000000000000000000000000000000000000000000000000000815260206004820152602560248201527f45524332303a207472616e736665722066726f6d20746865207a65726f20616460448201527f647265737300000000000000000000000000000000000000000000000000000060648201526084016105e6565b73ffffffffffffffffffffffffffffffffffffffff8216610d7e576040517f08c379a000000000000000000000000000000000000000000000000000000000815260206004820152602360248201527f45524332303a207472616e7366657220746f20746865207a65726f206164647260448201527f657373000000000000000000000000000000000000000000000000000000000060648201526084016105e6565b73ffffffffffffffffffffffffffffffffffffffff831660009081526020819052604090205481811015610e34576040517f08c379a000000000000000000000000000000000000000000000000000000000815260206004820152602660248201527f45524332303a207472616e7366657220616d6f756e742065786365656473206260448201527f616c616e6365000000000000000000000000000000000000000000000000000060648201526084016105e6565b73ffffffffffffffffffffffffffffffffffffffff808516600090815260208190526040808220858503905591851681529081208054849290610e789084906117f0565b925050819055508273ffffffffffffffffffffffffffffffffffffffff168473ffffffffffffffffffffffffffffffffffffffff167fddf252ad1be2c89b69c2b068fc378daa952ba7f163c4a11628f55a4df523b3ef84604051610ede91815260200190565b60405180910390a35b50505050565b73ffffffffffffffffffffffffffffffffffffffff8216610f6a576040517f08c379a000000000000000000000000000000000000000000000000000000000815260206004820152601f60248201527f45524332303a206d696e7420746f20746865207a65726f20616464726573730060448201526064016105e6565b8060026000828254610f7c91906117f0565b909155505073ffffffffffffffffffffffffffffffffffffffff821660009081526020819052604081208054839290610fb69084906117f0565b909155505060405181815273ffffffffffffffffffffffffffffffffffffffff8316906000907fddf252ad1be2c89b69c2b068fc378daa952ba7f163c4a11628f55a4df523b3ef90602001610769565b60405173ffffffffffffffffffffffffffffffffffffffff83166024820152604481018290526110da9084907fa9059cbb00000000000000000000000000000000000000000000000000000000906064015b604080517fffffffffffffffffffffffffffffffffffffffffffffffffffffffffffffffe08184030181529190526020810180517bffffffffffffffffffffffffffffffffffffffffffffffffffffffff167fffffffff000000000000000000000000000000000000000000000000000000009093169290921790915261132a565b505050565b73ffffffffffffffffffffffffffffffffffffffff8216611182576040517f08c379a000000000000000000000000000000000000000000000000000000000815260206004820152602160248201527f45524332303a206275726e2066726f6d20746865207a65726f2061646472657360448201527f730000000000000000000000000000000000000000000000000000000000000060648201526084016105e6565b73ffffffffffffffffffffffffffffffffffffffff821660009081526020819052604090205481811015611238576040517f08c379a000000000000000000000000000000000000000000000000000000000815260206004820152602260248201527f45524332303a206275726e20616d6f756e7420657863656564732062616c616e60448201527f636500000000000000000000000000000000000000000000000000000000000060648201526084016105e6565b73ffffffffffffffffffffffffffffffffffffffff83166000908152602081905260408120838303905560028054849290611274908490611880565b909155505060405182815260009073ffffffffffffffffffffffffffffffffffffffff8516907fddf252ad1be2c89b69c2b068fc378daa952ba7f163c4a11628f55a4df523b3ef9060200160405180910390a3505050565b60405173ffffffffffffffffffffffffffffffffffffffff80851660248301528316604482015260648101829052610ee79085907f23b872dd0000000000000000000000000000000000000000000000000000000090608401611058565b600061138c826040518060400160405280602081526020017f5361666545524332303a206c6f772d6c6576656c2063616c6c206661696c65648152508573ffffffffffffffffffffffffffffffffffffffff166114369092919063ffffffff16565b8051909150156110da57808060200190518101906113aa91906116fd565b6110da576040517f08c379a000000000000000000000000000000000000000000000000000000000815260206004820152602a60248201527f5361666545524332303a204552433230206f7065726174696f6e20646964206e60448201527f6f7420737563636565640000000000000000000000000000000000000000000060648201526084016105e6565b6060611445848460008561144d565b949350505050565b6060824710156114df576040517f08c379a000000000000000000000000000000000000000000000000000000000815260206004820152602660248201527f416464726573733a20696e73756666696369656e742062616c616e636520666f60448201527f722063616c6c000000000000000000000000000000000000000000000000000060648201526084016105e6565b843b611547576040517f08c379a000000000000000000000000000000000000000000000000000000000815260206004820152601d60248201527f416464726573733a2063616c6c20746f206e6f6e2d636f6e747261637400000060448201526064016105e6565b6000808673ffffffffffffffffffffffffffffffffffffffff1685876040516115709190611783565b60006040518083038185875af1925050503d80600081146115ad576040519150601f19603f3d011682016040523d82523d6000602084013e6115b2565b606091505b50915091506115c28282866115cd565b979650505050505050565b606083156115dc575081610602565b8251156115ec5782518084602001fd5b816040517f08c379a00000000000000000000000000000000000000000000000000000000081526004016105e6919061179f565b803573ffffffffffffffffffffffffffffffffffffffff8116811461164457600080fd5b919050565b60006020828403121561165b57600080fd5b61060282611620565b6000806040838503121561167757600080fd5b61168083611620565b915061168e60208401611620565b90509250929050565b6000806000606084860312156116ac57600080fd5b6116b584611620565b92506116c360208501611620565b9150604084013590509250925092565b600080604083850312156116e657600080fd5b6116ef83611620565b946020939093013593505050565b60006020828403121561170f57600080fd5b8151801515811461060257600080fd5b60006020828403121561173157600080fd5b5035919050565b60006020828403121561174a57600080fd5b5051919050565b6000806000806080858703121561176757600080fd5b5050823594602084013594506040840135936060013592509050565b60008251611795818460208701611897565b9190910192915050565b60208152600082518060208401526117be816040850160208701611897565b601f017fffffffffffffffffffffffffffffffffffffffffffffffffffffffffffffffe0169190910160400192915050565b6000821982111561180357611803611917565b500190565b60008261183e577f4e487b7100000000000000000000000000000000000000000000000000000000600052601260045260246000fd5b500490565b6000817fffffffffffffffffffffffffffffffffffffffffffffffffffffffffffffffff048311821515161561187b5761187b611917565b500290565b60008282101561189257611892611917565b500390565b60005b838110156118b257818101518382015260200161189a565b83811115610ee75750506000910152565b600181811c908216806118d757607f821691505b60208210811415611911577f4e487b7100000000000000000000000000000000000000000000000000000000600052602260045260246000fd5b50919050565b7f4e487b7100000000000000000000000000000000000000000000000000000000600052601160045260246000fdfea264697066735822122008f8bf8769fbd7edd8f98a8113911cc5305254c6ba3f2a25267fbffe191ccc1c64736f6c63430008070033",
  "linkReferences": {},
  "deployedLinkReferences": {}
}