{
  "_format": "hh-sol-artifact-1",
  "contractName": "FunctionUtilsWrapper",
  "sourceName": "contracts/sigp/FunctionUtilsWrapper.sol",
  "abi": [
    {
      "inputs": [],
      "name": "BASE_PARAMS",
      "outputs": [
        {
          "internalType": "uint256",
          "name": "",
          "type": "uint256"
        }
      ],
      "stateMutability": "view",
      "type": "function"
    },
    {
      "inputs": [],
      "name": "BASE_TOKENS",
      "outputs": [
        {
          "internalType": "uint256",
          "name": "",
          "type": "uint256"
        }
      ],
      "stateMutability": "view",
      "type": "function"
    },
    {
      "inputs": [
        {
          "internalType": "uint64",
          "name": "fees",
          "type": "uint64"
        }
      ],
      "name": "checkCompatibleFees",
      "outputs": [
        {
          "internalType": "bool",
          "name": "",
          "type": "bool"
        }
      ],
      "stateMutability": "view",
      "type": "function"
    },
    {
      "inputs": [
        {
          "internalType": "uint64[]",
          "name": "xArray",
          "type": "uint64[]"
        },
        {
          "internalType": "uint64[]",
          "name": "yArray",
          "type": "uint64[]"
        }
      ],
      "name": "checkCompatibleInputArrays",
      "outputs": [
        {
          "internalType": "bool",
          "name": "",
          "type": "bool"
        }
      ],
      "stateMutability": "view",
      "type": "function"
    },
    {
      "inputs": [
        {
          "internalType": "uint64",
          "name": "x",
          "type": "uint64"
        },
        {
          "internalType": "uint64[]",
          "name": "xArray",
          "type": "uint64[]"
        },
        {
          "internalType": "uint64[]",
          "name": "yArray",
          "type": "uint64[]"
        }
      ],
      "name": "piecewiseLinear",
      "outputs": [
        {
          "internalType": "uint64",
          "name": "y",
          "type": "uint64"
        }
      ],
      "stateMutability": "pure",
      "type": "function"
    }
  ],
  "bytecode": "0x608060405234801561001057600080fd5b50610b29806100206000396000f3fe608060405234801561001057600080fd5b50600436106100675760003560e01c8063831b139e11610050578063831b139e146100a75780639f48118f146100d3578063df1b8bd3146100ec57600080fd5b80631e12f8031461006c5780633603b28c14610094575b600080fd5b61007f61007a366004610880565b6100fb565b60405190151581526020015b60405180910390f35b61007f6100a236600461081c565b610184565b6100ba6100b536600461089b565b6103cc565b60405167ffffffffffffffff909116815260200161008b565b6100de633b9aca0081565b60405190815260200161008b565b6100de670de0b6b3a764000081565b600081633b9aca008167ffffffffffffffff16111561017b576040517f08c379a000000000000000000000000000000000000000000000000000000000815260206004820152600160248201527f340000000000000000000000000000000000000000000000000000000000000060448201526064015b60405180910390fd5b50600192915050565b600082828051825114801561019a575060008251115b610200576040517f08c379a000000000000000000000000000000000000000000000000000000000815260206004820152600160248201527f35000000000000000000000000000000000000000000000000000000000000006044820152606401610172565b60005b6001825161021191906109be565b81116103c057633b9aca0067ffffffffffffffff1682828151811061023857610238610a95565b602002602001015167ffffffffffffffff16111580156102895750633b9aca0067ffffffffffffffff1683828151811061027457610274610a95565b602002602001015167ffffffffffffffff1611155b6102ef576040517f08c379a000000000000000000000000000000000000000000000000000000000815260206004820152600160248201527f36000000000000000000000000000000000000000000000000000000000000006044820152606401610172565b80156103ae57826103016001836109be565b8151811061031157610311610a95565b602002602001015167ffffffffffffffff1683828151811061033557610335610a95565b602002602001015167ffffffffffffffff16116103ae576040517f08c379a000000000000000000000000000000000000000000000000000000000815260206004820152600160248201527f37000000000000000000000000000000000000000000000000000000000000006044820152606401610172565b806103b8816109fe565b915050610203565b50600195945050505050565b60006103d98484846103e1565b949350505050565b600082600184516103f291906109be565b8151811061040257610402610a95565b602002602001015167ffffffffffffffff168467ffffffffffffffff161061045257816001845161043391906109be565b8151811061044357610443610a95565b60200260200101519050610732565b8260008151811061046557610465610a95565b602002602001015167ffffffffffffffff168467ffffffffffffffff161161049a578160008151811061044357610443610a95565b600080600185516104ab91906109be565b905060005b60016104bc84846109be565b11156105285760026104ce84846109be565b6104d89190610953565b6104e2908461090f565b90508667ffffffffffffffff1686828151811061050157610501610a95565b602002602001015167ffffffffffffffff1611610520578092506104b0565b8091506104b0565b84838151811061053a5761053a610a95565b602002602001015167ffffffffffffffff1685838151811061055e5761055e610a95565b602002602001015167ffffffffffffffff1611156106595785838151811061058857610588610a95565b60200260200101518683815181106105a2576105a2610a95565b60200260200101516105b491906109d5565b8684815181106105c6576105c6610a95565b6020026020010151886105d991906109d5565b8685815181106105eb576105eb610a95565b602002602001015187858151811061060557610605610a95565b602002602001015161061791906109d5565b610621919061098e565b61062b9190610967565b85848151811061063d5761063d610a95565b602002602001015161064f9190610927565b9350505050610732565b85838151811061066b5761066b610a95565b602002602001015186838151811061068557610685610a95565b602002602001015161069791906109d5565b8684815181106106a9576106a9610a95565b6020026020010151886106bc91906109d5565b8684815181106106ce576106ce610a95565b60200260200101518786815181106106e8576106e8610a95565b60200260200101516106fa91906109d5565b610704919061098e565b61070e9190610967565b85848151811061072057610720610a95565b602002602001015161064f91906109d5565b9392505050565b600082601f83011261074a57600080fd5b8135602067ffffffffffffffff8083111561076757610767610ac4565b8260051b6040517fffffffffffffffffffffffffffffffffffffffffffffffffffffffffffffffe0603f830116810181811084821117156107aa576107aa610ac4565b604052848152838101925086840182880185018910156107c957600080fd5b600092505b858310156107f3576107df816107ff565b8452928401926001929092019184016107ce565b50979650505050505050565b803567ffffffffffffffff8116811461081757600080fd5b919050565b6000806040838503121561082f57600080fd5b823567ffffffffffffffff8082111561084757600080fd5b61085386838701610739565b9350602085013591508082111561086957600080fd5b5061087685828601610739565b9150509250929050565b60006020828403121561089257600080fd5b610732826107ff565b6000806000606084860312156108b057600080fd5b6108b9846107ff565b9250602084013567ffffffffffffffff808211156108d657600080fd5b6108e287838801610739565b935060408601359150808211156108f857600080fd5b5061090586828701610739565b9150509250925092565b6000821982111561092257610922610a37565b500190565b600067ffffffffffffffff80831681851680830382111561094a5761094a610a37565b01949350505050565b60008261096257610962610a66565b500490565b600067ffffffffffffffff8084168061098257610982610a66565b92169190910492915050565b600067ffffffffffffffff808316818516818304811182151516156109b5576109b5610a37565b02949350505050565b6000828210156109d0576109d0610a37565b500390565b600067ffffffffffffffff838116908316818110156109f6576109f6610a37565b039392505050565b60007fffffffffffffffffffffffffffffffffffffffffffffffffffffffffffffffff821415610a3057610a30610a37565b5060010190565b7f4e487b7100000000000000000000000000000000000000000000000000000000600052601160045260246000fd5b7f4e487b7100000000000000000000000000000000000000000000000000000000600052601260045260246000fd5b7f4e487b7100000000000000000000000000000000000000000000000000000000600052603260045260246000fd5b7f4e487b7100000000000000000000000000000000000000000000000000000000600052604160045260246000fdfea2646970667358221220525774ff11b052ab123e32980f3b5246c28362e14bdc0dd44b61af60b8d1cc5964736f6c63430008070033",
  "linkReferences": {},
  "deployedLinkReferences": {}
}